:10000000F8C0000027C1000025C1000023C1000086
:1000100021C100001FC100001DC100001BC1000064
:1000200019C1000017C1000015C1000013C1000074
:1000300011C100000FC100000DC100000BC1000084
:1000400009C1000007C1000005C1000003C1000094
:1000500001C10000FFC00000FDC000000C94302C66
:10006000F9C000000C9427300C945D30F3C0000000
:10007000F1C00000EFC00000EDC00000EBC00000C8
:10008000E9C00000E7C00000E5C00000E3C00000D8
:100090000C94B3300C94E930DDC00000DBC00000EC
:1000A000D9C00000D7C00000D5C00000D3C00000F8
:1000B000D1C00000CFC00000CDC00000CBC0000008
:1000C000C9C00000C7C000000C94D8280C943F3170
:1000D0000C947531BFC000000C94CB310C940132EC
:1000E000B9C0000000000A0B02090C0D0E0807033E
:1000F00004010000000000000000000000000000FB
:1001000000000000000000000000000000000000EF
:1001100012111000000000000000000000000000AC
:100120000000000000000000000001021020200874
:100130000810204010204080020102010804020142
:1001400001020408102040808040201008040201B1
:10015000800402018040201008040201080402010A
:100160000102040810204080010204081020408091
:1001700005050505070508080808020202020A0A23
:100180000808040404040101010101010101030341
:10019000030303030303040707070C0C0C0C0C0CEC
:1001A0000C0C0202020206060606060606060B0BE9
:1001B0000B0B0B0B0B0B00002200250028002B0063
:1001C0002E003100340002010000050108010B017E
:1001D00000002100240027002A002D0030003300F9
:1001E00001010000040107010A01863012319E312D
:1001F0002A3211241FBECFEFD1E2DEBFCDBF00E017
:100200000CBF13E0A0E0B2E0ECEDF5E600E00BBFC0
:1002100002C007900D92A035B107D9F729E0A0E5FB
:10022000B3E001C01D92A23BB207E1F710E0C9EFB5
:10023000D0E000E006C021970109802FFE010E9456
:10024000BB32C53FD10780E00807A9F70E94F42917
:100250000C94EC32D5CECF92DF92EF92FF92CF93F7
:10026000882351F16A017B01CFEFC80F20E030E015
:10027000A901CB01B6010E94E22A18168CF0C70131
:10028000B60190580E94EB2A9B01AC016C2F70E0E4
:1002900090E080E0CF91FF90EF90DF90CF90B2C0E0
:1002A000C701B6010E94E62A8C2FCF91FF90EF90F4
:1002B000DF90CF900C945A2DCF91FF90EF90DF906C
:1002C000CF9008950F931F938B019C0183E0369587
:1002D0002795179507958A95D1F7005B1C4F462FF8
:1002E000477021E030E0F90102C0EE0FFF1F4A9590
:1002F000E2F7AF01F80120812423CB0101962111FF
:1003000002C090E080E01F910F9108950F931F931A
:100310008B019C0183E036952795179507958A9563
:10032000D1F7677081E090E001C0880F6A95EAF725
:10033000F801E05BFC4F2081452B31F4809582234E
:1003400080831F910F910895822BFACF2F923F92B5
:100350004F925F926F927F928F929F92AF92BF92D5
:10036000CF92DF92EF92FF920F931F93CF93DF9381
:10037000D62EC72E782E692E49015A01280161E038
:100380008D2D0E94942ECD2DDC2D8E010F5F1F4FE1
:10039000A8016D2D7C2D872D962DB8DF20E030E053
:1003A000A901C201B7010E94C92B181664F4C20149
:1003B000B7010E94EB2A2B01C501B4010E94EB2A70
:1003C000A201CE0123D0C801DF91CF911F910F91DF
:1003D000FF90EF90DF90CF90BF90AF909F908F9065
:1003E0007F906F905F904F903F902F90089588235B
:1003F00041F08150682F70E090E080E050E040E0F4
:1004000085CF0895862FB9010C945A2D9C01FC01CB
:10041000EC51FF4FE491E150E231E0F4F0E0882745
:10042000EB5EFD4F8F4F0C94BB3227022E02310240
:1004300048025D022A0272027E0282029902AE0224
:10044000C302DA02EF022A0204031B03300384B55D
:10045000806884BD60E0822F0C94D02E84B58062C9
:10046000F8CF809180008C7F8260809380008091A3
:100470008100807E8061682B6093810050938700AB
:100480004093860080918000806880938000E2CF56
:10049000809180008C7F82608093800080918100B9
:1004A000807E8061682B6093810050938700409329
:1004B0008600809180008062E8CF809180008C7FF0
:1004C00082608093800080918100807E8061682BB3
:1004D0006093810050938700409386008091800054
:1004E0008860D3CF8091B00080688093B000809105
:1004F000B100887F682B6093B100ACCF8091B000D1
:100500008062F3CF809190008C7F82608093900016
:1005100080919100807E8061682B60939100509360
:10052000970040939600809190008068809390009F
:1005300091CF809190008C7F826080939000809119
:100540009100807E8061682B6093910050939700AA
:1005500040939600809190008062E8CF8091900057
:100560008C7F82608093900080919100807E80617A
:10057000682B609391005093970040939600809170
:1005800090008860D3CF8091A0008C7F82608093A0
:10059000A0008091A100807E8061682B6093A10003
:1005A0005093A7004093A6008091A000806880939C
:1005B000A00050CF8091A0008C7F82608093A0002B
:1005C0008091A100807E8061682B6093A100509390
:1005D000A7004093A6008091A0008062E8CF8091A0
:1005E000A0008C7F82608093A0008091A100807E1B
:1005F0008061682B6093A1005093A7004093A600F0
:100600008091A0008860D3CF809120018C7F826090
:100610008093200180912101807E8061682B60930E
:100620002101509327014093260180912001806889
:10063000809320010FCF809120018C7F8260809376
:10064000200180912101807E8061682B60932101CF
:100650005093270140932601809120018062E8CFCA
:10066000809120018C7F8260809320018091210104
:10067000807E8061682B6093210150932701409315
:100680002601809120018860D3CFCF93DF93882308
:1006900049F0EB0181500E94372D99838883DF91C7
:1006A000CF910895FB0111821082F9CF0F931F9310
:1006B0008B019C0183E036952795179507958A95C0
:1006C000D1F7075A1C4F462F477021E030E0F9015F
:1006D00002C0EE0FFF1F4A95E2F7AF01F80120813B
:1006E0002423CB010196211102C090E080E01F91EC
:1006F0000F9108950F931F938B019C0183E0369512
:100700002795179507958A95D1F7677081E090E056
:1007100001C0880F6A95EAF7F801E75AFC4F20817B
:10072000452B31F48095822380831F910F9108958A
:10073000822BFACFCF92DF92EF92FF92CF93DF938B
:100740006B017C0160E086E3C816D104E104F1048A
:1007500090F486E38C0D0E94942EE6012196AE0162
:10076000C701B601C7DFCE01DF91CF91FF90EF90B7
:10077000DF90CF9008958C2DEECF882341F08150EB
:10078000682F70E090E080E050E040E0B3CF089543
:1007900090E080E008950F931F93009709F488C0BC
:1007A0006115710509F484C00091920210919302C1
:1007B00020919402309195020E3F1F4F2F4F3F4FD3
:1007C00009F067C04FEF5FEFBA0140939202509378
:1007D000930260939402709395024091920250911B
:1007E00093026091940270919502DC011296ED9152
:1007F000FC9180819181A281B3818093D0039093F9
:10080000D103A093D203B093D30384819581A681B1
:10081000B7818093CC039093CD03A093CE03B09384
:10082000CF0380859185A285B3858093C80390937B
:10083000C903A093CA03B093CB0384859585A6858D
:10084000B7858093C4039093C503A093C603B09368
:10085000C7031092C0031092C1031092C2031092FA
:10086000C3030E94C10C86EE9CE0909363038093C7
:100870006203909365038093640372D7009731F409
:1008800021E030E03093D5032093D4031F910F91E2
:100890000895009192021091930220919402309158
:1008A0009502DB010D931D932D933C93139795CFE8
:1008B0008FEF9FEFEBCF8F929F92AF92BF92CF922D
:1008C000DF92EF92FF921F93CF93DF934B015C0176
:1008D0001091D70382E090E09093D5038093D403E6
:1008E00081149104A104B10441F48091D7038111D2
:1008F00004C08091D603C1E08111C0E0C12CD12C8D
:1009000076018091D703811106C08091D6038111B1
:1009100002C0CC23D9F083E090E09093D50380937C
:10092000D403CC2379F1CCE9DFEF111102C00E948E
:100930004A10CE01DF91CF911F91FF90EF90DF9091
:10094000CF90BF90AF909F908F9008956AE070E035
:1009500080E090E00E949F2C80E1C80E87E2D81EC4
:10096000E11CF11C8FEF88169806A806B80631F036
:10097000C1E08C149D04AE04BF0408F0C0E080E028
:1009800023D7BFCFD0E0C0E0D0CFCF92DF92EF929D
:10099000FF920F931F93CF93DF938F3F910511F039
:1009A00008F050C02091D4033091D5032330310595
:1009B00039F02091D4033091D5032130310531F441
:1009C00024E030E03093D5032093D4036A017B0107
:1009D000EC0182309105A0F011E0AE01C701B60133
:1009E000BED6AB01BC01CE011123F9F0DF91CF914E
:1009F0001F910F91FF90EF90DF90CF900C947312A6
:100A00008C01000F111F0E591C4FD8018D919C9124
:100A1000892B11F30E947D120297F1F6D801ED9116
:100A2000FC91CE011995182FD8CF0E94951290E015
:100A300080E0DF91CF911F910F91FF90EF90DF90B9
:100A4000CF9008958FEF9FEFF4CF80E0BDC6CF9396
:100A5000DF9386E090E09093D5038093D4030DD785
:100A6000EC01E2E6F3E084E0DF011D928A95E9F70C
:100A70000E94E20F1092D5031092D403CE01DF91B1
:100A8000CF9108958091D60308958091BF03089572
:100A900060939202709393028093940290939502D4
:100AA00090E080E008954F925F926F927F928F92D4
:100AB0009F92AF92BF92CF92DF92EF92FF92CF932D
:100AC000DF93CDB7DEB766970FB6F894DEBF0FBEE3
:100AD000CDBF20916E0930916F09409170095091FE
:100AE0007109609154027091550280915602909163
:100AF00057020E94CD2B6B017C012091720930912D
:100B00007309409174095091750960915802709170
:100B1000590280915A0290915B020E94CD2B9B0159
:100B2000AC01C701B6010E947E2A6B017C012091B5
:100B3000760930917709409178095091790960914F
:100B40005C0270915D0280915E0290915F020E9452
:100B5000CD2B9B01AC01C701B6010E947E2A6B011F
:100B60007C0120917A0930917B0940917C09509158
:100B70007D096091600270916102809162029091A2
:100B800063020E94CD2B9B01AC01C701B6010E94FC
:100B90007E2A6B017C01C0929009D0929109E0926B
:100BA0009209F09293098090680290906902A09057
:100BB0006A02B0906B02A50194010E94C92B18161D
:100BC0000CF08EC38092940990929509A092960998
:100BD000B0929709A70196016091940970919509C7
:100BE00080919609909197090E947D2A60939809B7
:100BF0007093990980939A0990939B09C090000281
:100C0000D0900102E0900202F0900302A701960149
:100C100060916209709163098091640990916509FE
:100C20000E94E22A882341F0C0926209D0926309AF
:100C3000E0926409F092650966E370E080E090E07C
:100C400035DD909361098093600943E050E0BE0177
:100C50006F5F7F4F1ADD2091900230919102A98140
:100C6000BA810E94C3320E94172B20E030E040E09E
:100C700057E30E94CD2B9B01AC01609174027091EF
:100C8000750280917602909177020E947D2A6B0115
:100C90007C01C0929C09D0929D09E0929E09F0923D
:100CA0009F098090780290907902A0907A02B0908B
:100CB0007B028092A0099092A109A092A209B09211
:100CC000A309209198093091990940919A0950916E
:100CD0009B096091700270917102809172029091F3
:100CE00073020E94CD2BA50194010E947E2AA701C8
:100CF00096010E947D2A6093A4097093A5098093B0
:100D0000A6099093A70920917C0230917D02409121
:100D10007E0250917F0260919409709195098091B3
:100D20009609909197090E947E2A6093A809709372
:100D3000A9098093AA099093AB0920918002309170
:100D4000810240918202509183020E94CD2B4B017F
:100D50005C01C0908402D0908502E0908602F09001
:100D600087029B01AC01B601C7010E94E22A87FD00
:100D700012C0C0908802D0908902E0908A02F09060
:100D80008B029401A501B601C7010E94C92B181658
:100D900014F0640175019601A70160918C027091B5
:100DA0008D0280918E0290918F020E947E2A609324
:100DB000AC097093AD098093AE099093AF0969E0D7
:100DC00070E080E090E07EDA5C0190936D098093A2
:100DD0006C09C090AC09D090AD09E090AE09F090DC
:100DE000AF0920E030E04FE753E4C701B6010E94AD
:100DF000E22A18160CF48DC220E030E0A901C701E8
:100E0000B6010E94C92B87FF03C0C12CD12C7601EB
:100E1000B701A601C5011FDA80906E0990906F0995
:100E2000A0907009B0907109C0907209D0907309B8
:100E3000E0907409F0907509809176099091770996
:100E4000A0917809B09179098B839C83AD83BE838F
:100E500080917A0990917B09A0917C09B0917D09DC
:100E60008F839887A987BA878091A4099091A50953
:100E7000A091A609B091A7098B879C87AD87BE87F3
:100E800020911402309115024091160250911702E0
:100E9000C501B4010E94CD2B2B013C012091180209
:100EA0003091190240911A0250911B02C701B601FC
:100EB0000E94CD2B9B01AC01C301B2010E947E2A8E
:100EC0002B013C0120911C0230911D0240911E0219
:100ED00050911F026B817C818D819E810E94CD2B60
:100EE0009B01AC01C301B2010E947E2A2B013C018F
:100EF0002091200230912102409122025091230240
:100F00006F81788589859A850E94CD2B9B01AC01E4
:100F1000C301B2010E947E2A2B013C0120914802AC
:100F20003091490240914A0250914B026B857C8579
:100F30008D859E850E94CD2B9B01AC01C301B20122
:100F40000E947E2A6F87788B898B9A8B209124024E
:100F5000309125024091260250912702C501B4012B
:100F60000E94CD2B2B013C012091280230912902B7
:100F700040912A0250912B02C701B6010E94CD2B4D
:100F80009B01AC01C301B2010E947E2A2B013C01EE
:100F900020912C0230912D0240912E0250912F026F
:100FA0006B817C818D819E810E94CD2B9B01AC0148
:100FB000C301B2010E947E2A2B013C012091300224
:100FC0003091310240913202509133026F81788525
:100FD00089859A850E94CD2B9B01AC01C301B2018A
:100FE0000E947E2A2B013C0120914C0230914D023F
:100FF00040914E0250914F026B857C858D859E8578
:101000000E94CD2B9B01AC01C301B2010E947E2A3C
:101010006B8B7C8B8D8B9E8B2091340230913502B3
:101020004091360250913702C501B4010E94CD2B88
:101030002B013C01209138023091390240913A0253
:1010400050913B02C701B6010E94CD2B9B01AC0120
:10105000C301B2010E947E2A2B013C0120913C0277
:1010600030913D0240913E0250913F026B817C8164
:101070008D819E810E94CD2B9B01AC01C301B201E9
:101080000E947E2A2B013C012091400230914102B6
:1010900040914202509143026F81788589859A85FB
:1010A0000E94CD2B9B01AC01C301B2010E947E2A9C
:1010B0002B013C012091500230915102409152028B
:1010C000509153026B857C858D859E850E94CD2B2A
:1010D0009B01AC01C301B2010E947E2A2B013C019D
:1010E00020910402309105024091060250910702BE
:1010F000C501B4010E94CD2B4B015C012091080277
:101100003091090240910A0250910B02C701B601C9
:101110000E94CD2B9B01AC01C501B4010E947E2A27
:101120006B017C0120910C0230910D0240910E0266
:1011300050910F026B817C818D819E810E94CD2B0D
:101140009B01AC01C701B6010E947E2A6B017C01A4
:10115000209110023091110240911202509113021D
:101160006F81788589859A850E94CD2B9B01AC0182
:10117000C701B6010E947E2A6B017C0120914402C6
:101180003091450240914602509147026B857C8523
:101190008D859E850E94CD2B9B01AC01C701B601B8
:1011A0000E947E2A60936E0970936F098093700984
:1011B000909371098F859889A989BA89809372095A
:1011C00090937309A0937409B09375098B899C89D6
:1011D000AD89BE898093760990937709A0937809A9
:1011E000B093790940927A0950927B0960927C0908
:1011F00070927D09C0909203D0909303E090940385
:10120000F09095039FEFC91AD90AE90AF90AC0922A
:101210009203D0929303E0929403F0929503C11449
:10122000D104E104F10499F480919603909197031D
:10123000A0919803B09199030196A11DB11D8093CF
:10124000960390939703A0939803B093990380908B
:101250009A0390909B03A0909C03B0909D03609193
:1012600096037091970380919803909199030E943F
:10127000172BA50194010E94CD2B20E030E040E81F
:101280005FE40E94CD2B2B013C01C701B6010E94F7
:10129000172BA50194010E94CD2B9B01AC01C3012A
:1012A000B2010E947E2A60938E0370938F03809315
:1012B00090039093910366960FB6F894DEBF0FBE2D
:1012C000CDBFDF91CF91FF90EF90DF90CF90BF9097
:1012D000AF909F908F907F906F905F904F90089508
:1012E00080906C0290906D02A0906E02B0906F02A0
:1012F000A5019401C701B6010E94E22A87FD62CCD4
:10130000C0929409D0929509E0929609F0929709BB
:1013100061CCC12CD12C8FE7E82E83E4F82E78CD58
:101320008F929F92AF92BF92DF92EF92FF920F93B4
:101330001F93CF93DF93E8E7F3E08BE2DF011D9289
:101340008A95E9F780E090E0A8E4B2E486A397A349
:10135000A0A7B1A78AE097EDA3E2BCE382A393A381
:10136000A4A3B5A388EE98EFA9E4B7E0848395839E
:10137000A683B78387EB9BEAAEE6BEE180879187C1
:10138000A287B38780E69DE4A2E1BEE684879587C5
:10139000A687B78781E99EE5ABE1B4E1808B918BAD
:1013A000A28BB38BACE6B3E0B383A283E6E6F3E0B3
:1013B0001196FC93EE938CEB92E091838083938360
:1013C0008283958384838CE893E015969C938E9317
:1013D00014978CE793E013969C938E9312978EE864
:1013E00093E017969C938E931697E0E9F9E080E2DC
:1013F000DF011D928A95E9F7CAE5D9E086E3FE018F
:1014000011928A95E9F7DD24D394DCAA8091000239
:1014100090910102A0910202B091030288879987FE
:10142000AA87BB87812C912C5401839489829A824C
:10143000AB82BC8266E370E080E090E07BD99F8362
:101440008E83DD821C86DDAA8D869E86AF86B88A55
:10145000E12CF12C8701A801970169E070E080E0A0
:1014600090E00E94A6019B8B8A8BD98A80916402AE
:1014700090916502A0916602B09167028C8B9D8B62
:10148000AE8BBF8B888F998FAA8FBB8F8C8F9D8FD0
:10149000AE8FBF8F88A399A3AAA3BBA3DF91CF91DF
:1014A0001F910F91FF90EF90DF90BF90AF909F90B2
:1014B0008F90089580915A0981111DC081E0809319
:1014C0005A0980915B0990915C09A0915D09B091E6
:1014D0005E090197A105B10571F480915F09882328
:1014E00051F066E370E080E090E0E0D8909361090D
:1014F0008093600942D98091660981112EC081E0F4
:10150000809366098091670990916809A0916909A3
:10151000B0916A090197A105B105F9F480916B09B1
:101520008823D9F069E070E080E090E00E946201D9
:1015300090936D0980936C0940E050E0BA010E94DD
:101540002B0169E070E080E090E00E9462019093DE
:101550006D0980936C090C94F70108954F925F9286
:101560006F927F928F929F92AF92BF92CF92DF92B3
:10157000EF92FF920F931F93F8944090AF03509017
:10158000B0036090B1037090B203C090A303D090F9
:10159000A403E090A503F090A603452B09F0A4C096
:1015A0009B01AC01241935094609570929013A0163
:1015B0000091AB031091AC032091AD033091AE03C9
:1015C00048015901840C951CA61CB71C8016910675
:1015D000A206B306A0F40091A7031091A8032091DE
:1015E000A9033091AA030F5F1F4F2F4F3F4F009366
:1015F000A7031093A8032093A9033093AA03809212
:10160000AB039092AC03A092AD03B092AE030091F5
:10161000A7031091A8032091A9033091AA038092F7
:10162000B3039092B403A092B503B092B6030093B3
:10163000B7031093B8032093B9033093BA036093B0
:10164000AF037093B0038093B1039093B203A0E112
:10165000B7E2A30192010E94D2326C0D7D1D8E1D56
:101660009F1D6093A3037093A4038093A50390939D
:10167000A60300919202109193022091940230915E
:1016800095020F3F1F4F2F4F3F4FF1F000919202F5
:101690001091930220919402309195020E3F1F4FBA
:1016A0002F4F3F4F89F0C0909202D0909302E0906C
:1016B0009402F090950221E08C149D04AE04BF04C6
:1016C00008F420E02093BF0378941F910F91FF90BE
:1016D000EF90DF90CF90BF90AF909F908F907F90D2
:1016E0006F905F904F9008954B015C0184189508AE
:1016F000A608B708A3019201261B370B480B590B0C
:101700006415750586059705D0F082169306A40624
:10171000B50640F420E030E0A90181149104A10451
:10172000B10491F4A0E1B7E20E94D232A701960180
:10173000261B370B480B590BCA01B901C5CF8216BE
:101740009306A406B50670F7A0E1B7E2A5019401DF
:101750000E94D2326C0D7D1D8E1D9F1DB5CFFECE19
:10176000CF93DF9300D01F92CDB7DEB71C821B82D0
:101770001A8219821092BB031092BC031092BD030F
:101780001092BE03BE016F5F7F4FCE0103960E9491
:10179000A92869817A818B819C810E949921009777
:1017A00061F4BE016F5F7F4FCE0103960E94B528A2
:1017B00069817A818B819C812ED50F900F900F903B
:1017C0000F90DF91CF910895FF920F931F93CF93C6
:1017D000DF93082F60E070E0CB010E949F2CFF2474
:1017E000F3940E948220EC01892B89F010E0CE3F17
:1017F0008FEFD80769F0002361F160E070E0CB0162
:101800000E949F2C81E090E0892B59F322C011E0C7
:1018100025D5EC01892B21F0CE3F8FEFD80759F762
:1018200011111EC011E0229609F410E00E9432202E
:10183000EC01892B21F0CE3F8FEFD807E1F6111193
:1018400011C011E0CE3F8FEFD80709F410E001116D
:101850000BC0CE01DF91CF911F910F91FF900895A2
:1018600011E0E4CF11E0F3CF60E070E0CB010E9423
:101870009F2C1F25812F90E0C7CFCF93DF938091BE
:10188000BF03882321F060E070E0CB014CD635D651
:10189000D0E0C0E0892B71F06AE070E080E090E079
:1018A0000E949F2C81E090DF28D62196C03D27E042
:1018B000D20781F727D60E94ED211092D70310920C
:1018C000D6031092D0031092D1031092D20310923B
:1018D000D3031092CC031092CD031092CE0310923A
:1018E000CF031092C8031092C9031092CA0310923A
:1018F000CB031092C4031092C5031092C60310923A
:10190000C7031092C0031092C1031092C203109239
:10191000C3034EEF5FEF6FEF7FEF40939202509360
:10192000930260939402709395021092BF03E3EBCD
:10193000F3E028E0DF011D922A95E9F71092AF034A
:101940001092B0031092B1031092B2031092AB0345
:101950001092AC031092AD031092AE031092A70345
:101960001092A8031092A9031092AA031092A30345
:101970001092A4031092A5031092A603DF91CF91B9
:1019800008951092E3031092E4031092E50310927D
:10199000E6031092E2038091EB039091EC039093A5
:1019A000E1038093E0031092DF031092DE031092B4
:1019B000DA031092DB031092DC031092DD03109225
:1019C000E8031092E70390E080E00895CF92DF9261
:1019D000EF92FF920F931F93CF938C01892B09F005
:1019E00055C02091EB033091EC038091E00390917E
:1019F000E1034091EB035091EC035093E1034093DA
:101A0000E0032817390781F01092DF031092DE03FC
:101A10001092DA031092DB031092DC031092DD03C4
:101A20001092E8031092E7038091EB039091EC038E
:101A3000019761F58091E7039091E803892B21F4E8
:101A400080919602811112C08091E7039091E80382
:101A50000197E1F48091DA039091DB03A091DC031C
:101A6000B091DD030197A105B10581F41092DA036D
:101A70001092DB031092DC031092DD0310929602A9
:101A800082E090E09093E8038093E7038091EB037A
:101A90009091EC03019709F01CC180910104909191
:101AA00002048017910709F014C18091FD03909101
:101AB000FE03A091FF03B0910004009709F409C14F
:101AC0002091FC0321110DC04091FD035091FE03B4
:101AD0006091FF0370910004452B462B472B09F4BE
:101AE000F8C02091E7033091E8032230310509F076
:101AF000F0C02091DE032111ECC0FC01C080D18038
:101B0000E280F3808091E203882309F4D3C08091BE
:101B1000EE039091EF03892B09F4FDC02091EE03B1
:101B20003091EF0381E02230310509F080E020910F
:101B3000EE033091EF03C1E02130310549F02091EF
:101B4000EE033091EF03C1E02230310509F0C0E02F
:101B5000882309F456C02091F8033091F90340918D
:101B6000FA035091FB03C701B6010E94C92B87FD00
:101B700014C02091F8033091F9034091FA03509179
:101B8000FB036091E3037091E4038091E50390917E
:101B9000E6030E94E22A87FD22C02091F8033091DB
:101BA000F9034091FA035091FB03C701B6010E946B
:101BB000C92B181634F52091F8033091F9034091A0
:101BC000FA035091FB036091E3037091E403809169
:101BD000E5039091E6030E94E22A811112C08091F0
:101BE000F0039091F103A091F203B091F303892BDC
:101BF0008A2B8B2B19F481E08093DF0381E08093A3
:101C0000DE03CC2309F456C02091F8033091F90388
:101C10004091FA035091FB03C701B6010E94E22AEA
:101C200087FF14C02091F8033091F9034091FA0323
:101C30005091FB036091E3037091E4038091E5030D
:101C40009091E6030E94C92B87FF22C02091F803E0
:101C50003091F9034091FA035091FB03C701B6019B
:101C60000E94E22A811126C02091F8033091F903E5
:101C70004091FA035091FB036091E3037091E403F8
:101C80008091E5039091E6030E94C92B181694F405
:101C90008091F0039091F103A091F203B091F303CE
:101CA000892B8A2B8B2B19F481E08093DF0381E051
:101CB0008093DE0381E09091DE03911180E08093B8
:101CC000E203C092E303D092E403E092E503F092D2
:101CD000E603012B09F067C18091E7039091E803C7
:101CE000892BD9F41092ED031092DE0380919602B5
:101CF000882379F082E090E09093E8038093E703F3
:101D0000109296022091EB033091EC0381E0232B9B
:101D1000E9F080E01BC081E00ACF1092960280912A
:101D2000ED03882349F01092DF031092E80310922C
:101D3000E7031092ED03EDCF8091EB039091EC035C
:101D4000892BE1F08091DE031092DE032091E703FE
:101D50003091E8032230310509F45EC088F4211582
:101D6000310509F448C02130310509F4F3C010925F
:101D7000DF031092DE031092ED0338C081E0E6CF5E
:101D80002330310509F4B1C02430310581F7409189
:101D9000DA035091DB036091DC037091DD034115A0
:101DA00051056105710561F04150510961097109E1
:101DB0004093DA035093DB036093DC037093DD03FD
:101DC0004091DA035091DB036091DC037091DD03F5
:101DD000452B462B472BD9F42091E9033091EA0398
:101DE0002130310509F046C01092DF031092E8035C
:101DF0001092E7030CC080919602882341F082E0A4
:101E000090E09093E8038093E7031092960210927B
:101E1000D8038091DF03CEC08823C9F38091F003FB
:101E20009091F103A091F203B091F30318161906F3
:101E30001A061B060CF07DC08091EB039091EC0319
:101E4000019709F076C08091F0039091F103A09181
:101E5000F203B091F3038093DA039093DB03A09332
:101E6000DC03B093DD0383E090E09093E80380937C
:101E7000E703CDCF4091F4035091F5036091F60351
:101E80007091F703452B462B472BA9F01092DF03E7
:101E90008091F4039091F503A091F603B091F703BC
:101EA0008093DA039093DB03A093DC03B093DD030C
:101EB00081E090E0DACF882399F0809197029091A9
:101EC0009802A0919902B0919A028093DA039093BC
:101ED000DB03A093DC03B093DD0384E090E0C5CF87
:101EE0001092DF0382E090E0C0CF8091DA039091FE
:101EF000DB03A091DC03B091DD030097A105B105E0
:101F000059F00197A109B1098093DA039093DB039B
:101F1000A093DC03B093DD038091DA039091DB039F
:101F2000A091DC03B091DD03892B8A2B8B2B09F068
:101F30006ECF8091970290919802A0919902B091F2
:101F40009A02892B8A2B8B2B09F44ECF81E0809348
:101F5000DF03B3CF4091DA035091DB036091DC03E0
:101F60007091DD03411551056105710561F0415026
:101F70005109610971094093DA035093DB036093BF
:101F8000DC037093DD034091DA035091DB03609131
:101F9000DC037091DD03452B462B472B09F037CF2F
:101FA0008111C7CF9FCF8091D803882309F431CF07
:101FB0008091D903CF911F910F91FF90EF90DF9007
:101FC000CF9008951092E3031092E4031092E5037A
:101FD0001092E6031092E2031092E8031092E703D6
:101FE0001092E1031092E003109202041092010497
:101FF0001092DF031092DE031092DA031092DB03DB
:102000001092DC031092DD031092D9031092D803D2
:102010001092FD031092FE031092FF031092000431
:102020001092FC031092F8031092F9031092FA0335
:102030001092FB0388EE93E0A0E0B0E0809397025B
:1020400090939802A0939902B0939A021092F4038D
:102050001092F5031092F6031092F7031092F0031A
:102060001092F1031092F2031092F3031092EF0317
:102070001092EE0381E0809396021092ED0310928D
:10208000EC031092EB031092EA031092E90390E044
:1020900080E008958091EB039091EC03892B19F572
:1020A00080919602882351F08091ED03811106C042
:1020B00081E08093D9038093D80308952091ED03A4
:1020C0003091960281E090E0332311F090E080E0BF
:1020D00030E082239323892B21F01092D90381E0F1
:1020E000EACF1092D803089582E090E0FA0191833C
:1020F00080838FEF9FEF0895CF93DF93EA010097DE
:1021000011F00E940D231982188290E080E0DF9187
:10211000CF910895DB01009719F48FEF8C93089508
:102120002EEF2C93FC013F96EF30F10508F034C000
:102130008827E256FF4E8F4F0C94BB32CA10C8104E
:10214000C610C410C210BE10C010BC10BA10B81017
:10215000B510B110AD10B310CC1080E311968C9374
:10216000089589E2FBCF82E2F9CF11961C9208957F
:1021700083E2F4CF81E2F2CF81E1F0CF87E2EECFCC
:102180008AE2ECCF80E1EACF84E2E8CF88E2E6CFD2
:1021900086E2E4CF81E3E2CF80E2E0CF80910F04DA
:1021A0009091100408959093100480930F04089563
:1021B00080910E04089590910E04892B80930E0453
:1021C0000895982F909580910E04892380930E0492
:1021D000089580910D04089580910B0490910C0452
:1021E00008956115710559F0FB0130E020E070E0C1
:1021F00060E02417350719F06115710511F0CB0166
:102200000895A081B181A817B90709F4BF012F5F14
:102210003F4F3696EECF8091110481111CC060D2E1
:1022200066D290930404809303040E940B1B0E94C7
:102230001D1B90930804809307040E949A1F0E941C
:10224000A11F909306048093050481E080931104FC
:1022500090E080E0089584EF9FEF08958F929F9221
:10226000AF92BF92CF92DF92EF92FF920F931F93A4
:10227000CF93DF9300D000D000D01F92CDB7DEB750
:102280001A86198618861F821E821D821C821B8256
:102290001A8219828091110407EF1FEF882309F435
:1022A0009CC08E010D5F1F4F9E012B5F3F4FAE0103
:1022B000495F5F4FBE01675F7F4F90E080E00E9403
:1022C0001E218C01009721F00596029708F0DBC0D3
:1022D00029853A852115310509F402C1ED80FE807A
:1022E0004B815C81B701640F751F8F8198858617BC
:1022F000970708F4F5C0E20EF31ED7019C91903CBD
:1023000009F07FC04230510508F47BC011968C91D2
:1023100040910F0450911004452B09F49CC0913F4B
:1023200008F071C02CE1290F2D3008F48BC02DE28C
:10233000290F203108F489C0903C21F4815082306B
:1023400008F483C088E3890F8B3008F481C09AE8D1
:10235000C92E90E1D92EE4E7F0E16D817E81AE01D6
:102360004F5F5F4F89859A8519955C01C114D1042F
:10237000A1F189809A808114910479F18B819C81EB
:102380008815990508F487C010E000E04B815C8156
:1023900070E060E0C7010E94E53201151105E9F423
:1023A00049815A8169857A858D819E81680F791F5F
:1023B000C501F6011995E980FA800D811E812F81F2
:1023C000388549855A856FEF7FEF81E090E00E9464
:1023D000B9208C01892B09F056C0C8012A960FB686
:1023E000F894DEBF0FBECDBFDF91CF911F910F914B
:1023F000FF90EF90DF90CF90BF90AF909F908F9025
:10240000089580E085CF30E020E0220F331FF901EE
:10241000ED5FFB4F0190F081E02D309709F497CFED
:10242000892F90E01995009709F491CFDC0112965D
:10243000ED91FC9113971496CD90DC90309709F0B4
:102440008CCF1FC021E030E0E0CF22E030E0DDCFD4
:1024500023E030E0DACFD12CC12CECE7F0E19F3F54
:1024600009F07BCFE0910304F0910404309721F44C
:10247000C90104EF1FEF0CC08FEF90E01995009792
:10248000A9F604EF1FEF89859A85009709F4A5CF77
:102490000E940D23A2CF0E94E8218C0189859A8594
:1024A0000E940D2370E060E0C4010E9481219887A2
:1024B0008F830E94B6209E838D836F8178856115FE
:1024C000710559F0C8010E9499249A87898706EFFF
:1024D0001FEF892B09F058CF59CF08EF1FEF56CFC8
:1024E00008EF1FEFD0CF20911104222319F020E034
:1024F0000C94221B87EF9FEF089580910F04909119
:10250000100408950E94A61F0E94001FF5D0E3E06A
:10251000F4E088E0DF011D928A95E9F7109211043A
:1025200090E080E008950C945E1D21E040E050E0D2
:10253000BA010C94221B86E090E0FA01918380831B
:1025400090E080E0089547E050E06FEB72E049CE04
:10255000DF92EF92FF920F931F93CF93DF938A0145
:10256000EC01C60FD71FE0901504F0901604D98037
:102570000E94D021D816190678F082E090E0F80188
:10258000918380838EEF9FEFDF91CF911F910F9109
:10259000FF90EF90DF900895EF2841F482E090E003
:1025A000F8019183808384EF9FEFEECF8981809340
:1025B000140490E00196F8019183808390E080E01C
:1025C000E3CFCF93DF93EA010E940F1E882321F00F
:1025D0000E94DD210E94101E82E090E09983888392
:1025E0008BEF9FEFDF91CF910895CF93DF93EB01B6
:1025F00086E0FB0111928A95E9F78FEF8883D8DD99
:102600008983E7DD8A83E8DD9D838C83DF91CF9129
:102610000895CF93DF93EA010E94121E811109C031
:1026200082E090E09983888385EF9FEFDF91CF91DF
:10263000089590E080E0B7DD81E090E099838883A1
:1026400090E080E0F3CF0F931F93CF93DF93EA01E5
:102650008C01060F171F0E94121E81110BC082E011
:1026600090E09983888385EF9FEFDF91CF911F9151
:102670000F910895F8018181823038F082E090E076
:10268000998388838EEF9FEFF0CF81E090E08BDD20
:1026900088E090E09983888390E080E0E6CFCF9354
:1026A000DF930097D1F4EB01FB01329686E0DF0166
:1026B0001D928A95E9F78FEF888385E089831A82D6
:1026C0000E94D0218B830E94CF219D838C8381E047
:1026D0008E838F83DF91CF910895DF91CF911ACDB3
:1026E00083EA92E1909313048093120408958091F9
:1026F000120490911304089510921304109212047E
:10270000089580911504909116040895411105C013
:10271000611571058105910561F060931504709351
:10272000160480931704909318044093190481E0D1
:10273000089580E00895FF920F931F93CF93DF9346
:102740008A01EC01C60FD71FF9800E94D021F8162C
:10275000190668F082E090E0F801918380838EEFA3
:102760009FEFDF91CF911F910F91FF9008956C81A2
:102770007D818E819F814B81C9DF811108C082E0FC
:1027800090E0F8019183808384EF9FEFEACF898105
:102790008093140490E00196F8019183808390E087
:1027A00080E0DFCFCF93DF93EA01FC01E60FF71F54
:1027B00064817581868197814381A8DF811109C079
:1027C00082E090E09983888384EF9FEFDF91CF913F
:1027D000089581E090E09983888390E080E0F6CFCF
:1027E000E5E1F4E04081518162817381480F511D20
:1027F000611D711D40835183628373830895CF935C
:10280000C09114044C2F50E060911504709116048F
:1028100001960E94DC328C2FE3DF10921404CF91DA
:102820000895009799F480911504909116042FEF64
:10283000FB012083892B59F02091140430E02F5F95
:102840003F4F2417350719F4CB01D9CF63CC089536
:10285000009799F480911504909116042FEFFB01D5
:102860002083892B59F02091140430E02F5F3F4FD3
:102870002417350719F4CB01C2CF4CCC089523E1BE
:10288000AC01249FC001259F900D1124E0911E04EE
:10289000F0911F04E80FF91F238134812250310980
:1028A00081E02230310508F080E008950F931F93F6
:1028B000CF93DF930091200410912104D0E0C0E079
:1028C00080E00C171D0749F491E0811190E0892FF9
:1028D000DF91CF911F910F9108958111F5CFCE0116
:1028E000CEDF2196EECFA0911E04B0911F04109769
:1028F00029F1209120043091210482179307F0F4EC
:1029000053E1589F9001599F300D1124A20FB31F1E
:10291000ED91FC911197309789F012968C91681780
:1029200068F48DE0689FE00DF11D11248081918194
:10293000892B21F081E09281491708F080E0089509
:102940009C0143E1429FC001439F900D1124E091FF
:102950001E04F0911F04E80FF91F8385823091F463
:1029600081E090E06581768140919B0250919C02CC
:102970006417750711F490E080E0892B19F081E06D
:10298000232B09F080E00895FC01A081B1818DE046
:10299000689FA00DB11D112413964D915C91858502
:1029A0009685489F9001499F300D589F300D112406
:1029B000C9010196611103C0478144FD0496089541
:1029C000EF92FF920F931F93CF93DF93EA01FC01E5
:1029D000E60FF71F02811381E480F5804F2D6E2DE5
:1029E000C80181DF81110DC082E090E09983888366
:1029F0008EEF9FEFDF91CF911F910F91FF90EF909E
:102A00000895C8013CDF882339F082E090E0998383
:102A1000888388EF9FEFEECF1093A2020093A1026C
:102A2000E092A302F092A40281E090E0998388836F
:102A300090E080E0DFCFCF92DF92EF92FF920F9392
:102A40001F93CF93DF937A01EC01C60FD71FC0907D
:102A5000A102D090A2020091A3021091A402412FE2
:102A6000602FC60140DF811110C082E090E0F701C5
:102A7000918380838AEF9FEFDF91CF911F910F9118
:102A8000FF90EF90DF90CF900895C601F8DE882385
:102A900041F082E090E0F7019183808388EF9FEF1F
:102AA000EBCF4C815D816E817F819A8189818F3FDF
:102AB00041F082E090E0F701918380838EEF9FEFF9
:102AC000DBCFE3E1EC9D9001ED9D300D1124E09111
:102AD0001E04F0911F04E20FF31F0190F081E02D1E
:102AE0002DE0029FE00DF11D11240190F081E02DF9
:102AF00027E0129FE00DF11D1124808391838B81CB
:102B0000828343835483658376831F5F1093A4027B
:102B100081E090E0F7019183808390E080E0ACCF8A
:102B2000EF92FF920F931F93CF93DF937A018C0163
:102B3000060F171FC0911E04D0911F04209781F02B
:102B400021E030E0F801828193814091200450918E
:102B500021048417950710F030E020E0232B71F456
:102B600082E090E0F701918380838EEF9FEFDF9109
:102B7000CF911F910F91FF90EF90089543E1489FEF
:102B80009001499F300D1124C20FD31F78DE882396
:102B900041F082E090E0F7019183808388EF9FEF1E
:102BA000E6CFF8012481358120383105C8F68781C8
:102BB0008111D6CF4181842F90E08F7E009741F024
:102BC00082E090E0F7019183808386EF9FEFCFCF83
:102BD0004F833E832D83268128871986223010F467
:102BE00021E0288721E030E0F70131832083BFCF47
:102BF00088E090E0FA019183808390E080E008957E
:102C0000FB018FEF808381E181838FEF9FEF9383BF
:102C1000828380E890E095838483168217820895EA
:102C2000FB018FEF808391E0918382839383848380
:102C300084E3858381E090E0978386830895DF9223
:102C4000EF92FF920F931F93CF93DF93EA01FC0162
:102C5000E60FF71F8181813071F082E090E0998367
:102C600088838FEF9FEFDF91CF911F910F91FF909E
:102C7000EF90DF90089582819381D4802581E68052
:102C8000F78000911E0410911F040115110539F4FD
:102C900082E090E0998388838CEF9FEFE4CF4091AE
:102CA0002004509121048417950738F082E090E0C9
:102CB000998388838EEF9FEFD6CF892B39F082E0FE
:102CC00090E09983888386EF9FEFCDCF8D2D8D7F08
:102CD000B1F72130A1F781E0D11006C091E0E916EB
:102CE000F10431F080E004C0E2E0EE16F104D0F32C
:102CF000882329F390E080E0C2DD882339F082E068
:102D000090E09983888388EF9FEFADCFF801D38659
:102D100081E08487F686E586108A178681E090E058
:102D20009983888390E080E09ECF4CE050E069EE8C
:102D300072E057CA8F929F92BF92CF92DF92EF922A
:102D4000FF920F931F93CF93DF93EA01FC01E60FED
:102D5000F71F828193810481B580E0911E04F09178
:102D60001F04309791F482E090E0998388838CEF80
:102D70009FEFDF91CF911F910F91FF90EF90DF9028
:102D8000CF90BF909F908F90089520912004309114
:102D900021048217930738F082E090E099838883BA
:102DA0008EEF9FEFE6CF23E1289F6001299FD00C93
:102DB0001124EC0DFD1DE080F180E114F10499F285
:102DC0008281081748F78DE0089F80011124E00EEA
:102DD000F11EF70180819181892B29F6BB20E1F258
:102DE000F7E0BF9E40011124C4010E94D422F701E4
:102DF00091838083E0911E04F0911F04EC0DFD1D72
:102E00000190F081E02DE00FF11F8081918100970A
:102E100039F482E090E0998388838DEF9FEFA9CF0A
:102E2000A40170E060E00E94E53280911E04909160
:102E30001F04C80ED91EF60180819181080F191F49
:102E4000F801B28281E090E09983888390E080E08D
:102E500090CFAF92BF92CF92DF92FF920F931F93CA
:102E6000CF93DF93EA01FC01E60FF71F8281938184
:102E7000F48000911E0410911F040115110581F4C6
:102E800082E090E0998388838CEF9FEFDF91CF9170
:102E90001F910F91FF90DF90CF90BF90AF9008955A
:102EA00020912004309121048217930738F082E0AA
:102EB00090E0998388838EEF9FEFE8CF2FEF2F0D5F
:102EC0002C3FA8F723E1289F6001299FD00C1124F3
:102ED0000C0D1D1DF80180819181892B89F6FDE083
:102EE000FF9E50011124C5010E94D422F801918354
:102EF0008083E0911E04F0911F04EC0DFD1D808184
:102F00009181009739F482E090E0998388838DEF76
:102F10009FEFBCCFA50170E060E00E94E532E09138
:102F20001E04F0911F04EC0DFD1DF28281E090E083
:102F30009983888390E080E0A9CFCF92DF92EF92CF
:102F4000FF920F931F93CF93DF93860F971FFC0180
:102F50000281138180911E0490911F04892B81F0BE
:102F600082E090E0FA01918380838CEF9FEFDF9104
:102F7000CF911F910F91FF90EF90DF90CF90089528
:102F8000C801B0E0A0E00197A109B1098F3F9F4FB0
:102F9000A105B10540F082E090E0FA0191838083C1
:102FA0008EEF9FEFE4CF7A0183E1809F6001819FE4
:102FB000D00C1124C6010E94D422EC01009741F4E8
:102FC00082E090E0F701918380838DEF9FEFCFCF78
:102FD000A60170E060E00E94E532D0931F04C09328
:102FE0001E04109321040093200490E080E02FEF52
:102FF0003FEF41E061E070E08017910741F481E02C
:1030000090E0F7019183808390E080E0B0CF3A8B2D
:10301000298B1B864C877E876D87188A1F860196B1
:103020006396EACFEF92FF921F93CF93DF93EC0169
:1030300010E0F12CE12C6A811617B0F083E0689F54
:10304000B0011124AE014F5E5F4FC7010E943923CA
:10305000009721F02FEF3FEF3A8B298BDF91CF9133
:103060001F91FF90EF900895612FCE018DDC61E0FC
:1030700070E00E948121E816F90608F47C011F5FC8
:10308000DACFF89420911C0430911D0481E02115C1
:10309000310509F080E0232B09F0789408952F92F0
:1030A0003F924F925F926F927F928F929F92AF92D8
:1030B000BF92CF92DF92EF92FF920F931F93CF9325
:1030C000DF933C01660E771EF301828193814C01F0
:1030D000B12CA12CC0911E04D0911F04209769F03F
:1030E00021E030E060912004709121048617970759
:1030F00010F030E020E0232BD1F482E090E0FA01E0
:10310000918380838EEF9FEFDF91CF911F910F917D
:10311000FF90EF90DF90CF90BF90AF909F908F90F7
:103120007F906F905F904F903F902F900895809286
:10313000A5029092A602A092A702B092A80263E113
:10314000689F9001699F300D1124C20FD31FF301B6
:103150008181833040F082E090E0FA0191838083A6
:1031600086EF9FEFD1CF2A012B813C81232BF1F4F5
:10317000288139819F8191FF2EC0232B09F46FC0D4
:10318000209123049A81422F490F5527551FBA01D8
:1031900041E050E06138710514F050E040E0452B0B
:1031A00009F45DC02A87920F9093230481508230E6
:1031B00008F481C066DF882309F4D8C0F301818157
:1031C000813009F48DC008F47BC0823009F4C6C098
:1031D00090E080E0ADC0232B09F441C0209122048F
:1031E0009A81E22FE90FFF27FF1F41E050E0ED3FFA
:1031F000F10514F050E040E0452B89F12A87920F49
:1032000090932204D3CFA081B181A20FB31F119656
:103210006C91060F111D0196295F3F4F841795078A
:1032200094F38D859E85089F1001099F300C189F8F
:10323000300C1124C114D104D1F48F8184FF17C044
:103240000E94CF21F5E02F0E311C21E0821593055D
:1032500008F420E0A701435F5F4F21110EC082E018
:1032600090E0F2019183808387EF9FEF4DCF0E9422
:10327000CF212FEF221A320AE8CF88819981E80EF8
:10328000F91EF70114830383FFEFCF1ADF0A7A01D7
:103290008A818C151D0409F00CF48CCFE881F9812A
:1032A000EE0DFF1D428150E030E020E010E000E034
:1032B00090E080E0B3CFF12CE12CD12CC12CE8CFF1
:1032C00081E090E09C838B83F1DA882309F480CF3E
:1032D00081E090E00E94D31080E40E94E11078CF5A
:1032E00089899A89019661F083E090E09C838B83C1
:1032F00082E090E00E94D31080E40E94DB1068CF4F
:103300008D819E8120919B0230919C0282179307B0
:10331000D1F460919F027091A002AE014F5E5F4FA9
:1033200080919D0290919E020E9458240097E1F2A4
:10333000789422E030E0F20131832083892B99F0E8
:103340008DEF9FEFE1CE89288A288B2869F6892B9B
:1033500059F6CE0167DE188A1F86E8CF82E090E03A
:103360009C838B8335CF90E080E0CECE82E090E0EE
:10337000F2019183808385EF9FEFC6CE8F929F925B
:10338000AF92BF92CF92DF92EF92FF920F931F9373
:10339000CF93DF93EA018C01060F171FF80181819B
:1033A000833098F082E090E09983888386EF9FEFE6
:1033B000DF91CF911F910F91FF90EF90DF90CF9011
:1033C000BF90AF909F908F90089580911E04909130
:1033D0001F04892B61F081E090E02091200430915E
:1033E0002104232B11F490E080E0892B39F482E052
:1033F00090E0998388838EEF9FEFDACF42DE8823B7
:1034000009F4DFC0F8018181813009F495C0E8F04A
:10341000823099F42091200430912104E0911E041F
:10342000F0911F0490E080E041E050E02817390758
:1034300009F0BDC03BDA811117C0789481E090E0BB
:103440009983888390E080E0B3CF2091200430916D
:103450002104E0911E04F0911F0490E080E041E01F
:1034600050E02817390741F481E090E00E94D31022
:1034700080E40E94E110E1CF63817481672B11F039
:103480005483438301967396ECCFE0911E04F09130
:103490001F04E00FF11F2381348122303105D9F45C
:1034A000218932892F3F3F4FB1F4258136814091E8
:1034B0009B0250919C022417350761F5AF014F5EC6
:1034C0005F4F60919F027091A00280919D02909148
:1034D0009E020E945824EFEFCE1ADE0AEE0AFE0A80
:1034E0000D5E1F4F409120045091210470E060E078
:1034F000C416D506E606F7063CF5009731F2789437
:10350000892B09F49BCF82E090E0998388838DEF2B
:103510009FEF4ECFC114D104E104F104E1F6232B57
:10352000D1F6CF017FDDE0911E04F0911F04E00F82
:10353000F11F108A1786CFCF10E000E090E080E006
:10354000C12CD12C7601CECF0097C9F610E000E057
:10355000812C912C540183E0E82EF12C1AC0E091CB
:103560001E04F0911F04E00FF11F838194810297E4
:1035700049F4F482E38282E090E00E94D31080E478
:103580000E94DB10FFEF8F1A9F0AAF0ABF0A0D5E81
:103590001F4F8091200490912104B0E0A0E0881694
:1035A0009906AA06BB06DCF290E080E0A8CF638112
:1035B00074816230710511F45483438301967396CC
:1035C00035CF82E090E09983888385EF9FEFF0CE3E
:1035D0000097B9F48FEFFB0180832091A502309111
:1035E000A60243E1429FC001439F900D1124E09148
:1035F0001E04F0911F04E80FF91F8285FB018183EF
:1036000008950C948A1088E090E0FA0191838083F9
:1036100090E080E0089510921D0410921C04EEE1E9
:10362000F4E086E0DF011D928A95E9F785E996E1ED
:1036300090931B0480931A04089580911A0490912A
:103640001B0408952F923F924F925F926F927F9248
:103650008F929F92AF92BF92CF92DF92EF92FF92A2
:103660000F931F93CF93DF93CDB7DEB72F970FB68E
:10367000F894DEBF0FBECDBFF894E0911C04F0912A
:103680001D043196F0931D04E0931C04789440903F
:103690001E0450901F044114510409F40CC2E0911F
:1036A0002004F0912104EF2B09F405C22D874987EE
:1036B0005A876B877C8798878F831201B12CA12C46
:1036C00010E000E08091200490912104A816B90632
:1036D00018F40115110529F1F89480911C049091BA
:1036E0001D04019790931D0480931C047894C801D5
:1036F0002F960FB6F894DEBF0FBECDBFDF91CF91EE
:103700001F910F91FF90EF90DF90CF90BF90AF90FF
:103710009F908F907F906F905F904F903F902F90F1
:1037200008957101E418F508D10117968C91179747
:1037300081FD54C013968D919C911497039709F0C5
:103740004DC015968D919C91EF81F8858E179F073E
:1037500009F044C0B50190E080E07FD48A832091D5
:103760001E0430911F043D832C833D85332309F4CF
:103770004CC04C815D81452B09F49AC18091200495
:1037800090912104A816B90608F092C1C501D8D8B5
:103790008823E9F06C817D816E0D7F1D7D836C83B4
:1037A000DB011F968D919C91892B89F0D12CC12C26
:1037B000F12CE12CAC81BD8112968C9112978E1563
:1037C0001F0409F094F450961C921E921F972A81B0
:1037D000222321F0B50190E080E041D43FEFA31A0D
:1037E000B30A43E1240E311C6DCFAC81BD81ED9154
:1037F000FC91EC0DFD1D858196810FD7BFEFEB1A73
:10380000FB0AEDE0CE0ED11CD5CFEC81FD813097C7
:1038100009F44EC18091200490912104A816B906A4
:1038200008F046C1EE0DFF1DFF87EE87C50188D861
:103830008B83882339F1AE85BF851F968D919C912E
:103840005097019621E01D964D915C918417950744
:1038500009F020E02E831982712C10E000E0AE8583
:10386000BF8512968C91781608F45DC0EE85FF85B1
:10387000878590890196658576850E948532908B33
:103880008787A5CFB1E0BE83E6CF992493946BC020
:103890008BD6F6019683858382C0D601ED90FC908D
:1038A000B7E06B9EE00CF11C1124F7016381748179
:1038B00080818F3F61F121E030E002C0220F331F91
:1038C0008A95E2F7C901092E000CAA0BBB0BFB017C
:1038D000408151816281738184239523A623B7237C
:1038E00021E0892B8A2B8B2B09F420E0D4012C9327
:1038F000D70111968C91F60123853485820F932F81
:10390000911D880E991E1486138663949BC0418175
:1039100050E0C4010E94DC32EBCF998206EF1FEF2A
:10392000C5C01982C3C0F981F111A0CFEDE07E9E20
:1039300070011124AE85BF85CD90DC90CE0CDF1CCC
:1039400015D49D838C83BB81BB2309F49ECF81E07A
:10395000EE85FF8527853089232B09F080E0982E9E
:10396000882309F458C0672D8E859F850DD8D60110
:1039700018969C938E93179761E070E0C2D4EE8501
:10398000FF85218932892F3F320709F481CFBC019D
:10399000C901CFD7D60116969C938E931597D60161
:1039A00015968D919C911697009709F4B6CFEC81EE
:1039B000FD818E0F9F1F1A969C938E931997AE854B
:1039C000BF85ED91FC911197EE0EFF1EF701218549
:1039D0003285148613861A968C91870DD9018D93A2
:1039E000711016C0EE85FF85878184FF11C049855F
:1039F0005A856B857C85F901418352836383748387
:103A0000F701838594850496A80FB91F1486138641
:103A1000F701B287A187D60115968D919C911697D3
:103A2000892B09F443C0EE85FF852581368180917D
:103A30009B0290919C022817390779F019968D9076
:103A40009C90612CD60112968C911297681608F4FE
:103A500024CF1A969C928E921997BE81BB2309F4AB
:103A600060CF61E070E0F601878190854AD4D6018D
:103A70001796ED90FC90189715964D915C91E1E0AA
:103A8000F0E0BA81BB2311F0F0E0E0E00C811D8191
:103A90009C01B501882799278E1B9F0B6AD38C0147
:103AA000892B21F0F60185819681B7D57394D7CE05
:103AB0000FEF1FEF8CCE10E000E00ECE2F923F9262
:103AC0004F925F926F927F928F929F92AF92BF922E
:103AD000CF92DF92EF92FF920F931F93CF93DF93DA
:103AE00080911E0490911F0410E000E0892BA9F042
:103AF000C8DA0AEF1FEF882381F02090200430906D
:103B00002104C0911E04D0911F04D12CC12C10E0BF
:103B100000E02C143D04A9F47894C801DF91CF9102
:103B20001F910F91FF90EF90DF90CF90BF90AF90DB
:103B30009F908F907F906F905F904F903F902F90CD
:103B40000895C6010E94A014882309F18B819C81ED
:103B50000397E9F48F859889892BC9F0B60190E025
:103B600080E07BD221E030E0882311F030E020E0DB
:103B700044245524421A530AB12CA12C912C812C97
:103B80008A818815190409F038F4188A1F864FEFC6
:103B9000C41AD40A6396BDCFE881F981EA0DFB1DF2
:103BA00085819681892BA1F161E070E08781908504
:103BB000A8D33C01DBD28C01E881F981EA0DFB1D21
:103BC0008185928525813681200F311FAC01421BF2
:103BD000530B9A0147815085421B530B70E060E004
:103BE0000E94E532E881F981EA0DFB1DE780F0844F
:103BF000458156819301B601C201BBD28C01892B4C
:103C000039F0E881F981EA0DFB1D8581968105D5A2
:103C10005FEF851A950A8DE0A80EB11CB1CF31CAAD
:103C2000789408952F923F924F925F926F927F9275
:103C30009F92AF92BF92CF92DF92EF92FF920F933B
:103C40001F93CF93DF9300D000D0CDB7DEB70091A4
:103C50001E0410911F04992493940115110509F471
:103C60003EC0A0902004B09021040BDA982E882347
:103C7000B1F110921F0410921E04109221041092B0
:103C8000200410922204109223048FEF9FEFDC0196
:103C90008093A5029093A602A093A702B093A802D6
:103CA00078947FD31E830D83C12CD12C7601C5015E
:103CB000B0E0A0E089839A83AB83BC8322242A945A
:103CC000322C89819A81AB81BC81C816D906EA065B
:103CD000FB06F4F0C801A1D480E40E94E110892D14
:103CE00026960FB6F894DEBF0FBECDBFDF91CF9101
:103CF0001F910F91FF90EF90DF90CF90BF90AF900A
:103D00009F907F906F905F904F903F902F9008957D
:103D1000AD81BE8115968D919C91169720919B0245
:103D200030919C0282179307D1F451968D919C910A
:103D3000EED5ED81FE8180819181B12CA12C412CA9
:103D4000512C3201892B89F5BFEFCB1ADB0AEB0A24
:103D5000FB0AED81FE817396FE83ED83B2CFC11421
:103D6000D104E104F10429F7892B19F7ED81FE81D3
:103D7000818992898F3F980709F029D5AD81BE814D
:103D800052963C922E925197D4CF8A0D9B1DDC0106
:103D90008D919C91009709F040D4BFEF4B1A5B0ABC
:103DA0006B0A7B0AEDE0AE0EB11CAD81BE818D9138
:103DB0009C91119712964C9150E070E060E044168F
:103DC0005506660677060CF328D4BECFCF93DF9353
:103DD000EA0128DF811109C082E090E0998388839D
:103DE00085EF9FEFDF91CF91089581E090E00E94F1
:103DF000D31081E090E09983888390E080E0F2CF57
:103E000011DF10921B0410921A04089542E050E052
:103E100061E373E00C94F110FF920F931F93CF9323
:103E2000DF938A01EC01C60FD71FF980B9D208973A
:103E3000F816190671F068F082E090E0F8019183BD
:103E400080838EEF9FEFDF91CF911F910F91FF90B5
:103E500008956C817D818E819F814B810E948613A4
:103E6000811108C082E090E0F8019183808384EFA3
:103E70009FEFE9CFF9800E9481134F2D50E0BE01E2
:103E8000685F7F4F0E94DC3289810E94F01381E0DD
:103E900090E0F8019183808390E080E0D4CFDF92BE
:103EA000EF92FF920F931F93CF93DF938A01EC0160
:103EB000C60FD71F0E9481137C01D98071D2DD20EB
:103EC00059F0029721E030E0D816190619F010F0E9
:103ED00030E020E0232B79F482E090E0F801918338
:103EE00080838EEF9FEFDF91CF911F910F91FF9015
:103EF000EF90DF900895EF2841F482E090E0F80120
:103F00009183808384EF9FEFEECFF9800E9481132D
:103F10004F2D50E0BE016E5F7F4F0E94DC328981E1
:103F20000E94F01381E090E0F8019183808390E09B
:103F300080E0D9CF86E09FE190932504809324040C
:103F40000895809124049091250408950895FC011A
:103F500011821082938382830895DB011D921C924B
:103F6000DC011296ED91FC91139771836083139697
:103F70007C936E9312970895FC0180819181DB01FF
:103F80008D939C93A081B181109741F08D919C916C
:103F900091838083892B11F4F383E2830895FC01DC
:103FA00080819181DB018D939C93892B11F4738324
:103FB0006283718360830895FC0111821082938370
:103FC00082830895CF93DF931F921F92CDB7DEB700
:103FD0001A821982F894BE016F5F7F4F8BE294E0E2
:103FE000CBDF89819A81009709F017D389819A8163
:103FF000892B89F7BE016F5F7F4F8FE294E0BCDFB2
:1040000089819A81009709F008D389819A81892B47
:1040100089F778940F900F90DF91CF910895CF9307
:10402000DF931F921F92CDB7DEB71A821982F894E0
:10403000BE016F5F7F4F87E294E09EDF89819A81A6
:10404000009709F0EAD289819A81892B89F77894BF
:104050000F900F90DF91CF91089581E0089590E047
:1040600080E00895EF92FF920F931F93CF93DF9319
:104070001F921F92CDB7DEB71A8219828091260453
:1040800007EF1FEF8823A1F1F894BE016F5F7F4F08
:104090008FE294E071DF789489819A81EE24E39431
:1040A000F12C892B51F4F894BE016F5F7F4F8BE2A6
:1040B00094E062DF7894F12CE12C89819A810EEFF3
:1040C0001FEF0097A9F0FC014281538164E070E08A
:1040D00074D68C01892B61F0F89469817A81C701CB
:1040E000880F991F880F991F855D9B4F58DF789423
:1040F000C8010F900F90DF91CF911F910F91FF900A
:10410000EF9008950F931F93CF93DF9300D01F92EA
:10411000CDB7DEB71C821B821A82198280912604D9
:1041200007EF1FEF8823C1F0AE014D5F5F4F64E0E2
:1041300070E0CE010196B4D68C01892B69F4E98137
:10414000FA818B819C8193838283F89469817A813F
:1041500087E294E002DF7894C8010F900F900F90EF
:104160000F90DF91CF911F910F910895B9D70496C9
:1041700008958F929F92AF92BF92CF92DF92EF926B
:10418000FF920F931F93CF93DF931F921F92CDB790
:10419000DEB71A821982BC016F5F7F4F63307105F1
:1041A00098F0AA24AA94BA2CC5010F900F90DF9121
:1041B000CF911F910F91FF90EF90DF90CF90BF9024
:1041C000AF909F908F9008954115510551F348018C
:1041D00059018A016C01CADF8815990511F7E114AC
:1041E000F104F9F28E0D9F1DA816B906D0F2809148
:1041F00026048823F1F0F894B50164507109970101
:10420000AE014F5F5F4FC8010496DFD65C01892B7A
:1042100071F489819A81F80193838283C601880FA2
:10422000991F880F991FB801855D9B4F96DE789482
:10423000BBCF87EFA82EBB24BA94B6CFAF92BF9264
:10424000CF92DF92EF92FF920F931F93CF93DF9362
:104250001F921F92CDB7DEB71A821982892B09F0FF
:1042600047C06115710509F443C04115510509F4B2
:104270003FC02115310509F43BC001151105C1F1FD
:10428000809126048823B9F179016A015B01F894D1
:10429000BE016F5F7F4F87E294E06EDE7894898184
:1042A0009A81009759F1DC0112966D917C91A801D9
:1042B0000496A4D68C01E981FA81D501ED93FC9393
:1042C000828193810496F601918380834FDFD70129
:1042D0008D939C93C8010F900F90DF91CF911F9108
:1042E0000F91FF90EF90DF90CF90BF90AF90089527
:1042F0000FEF1FEFEFCF07EF1FEFECCF0EEF1FEF2A
:10430000E9CFCF93DF93EC01672B71F4F2D68C17D2
:104310009D0760F0E5D62496C80FD91FE4D68C0F10
:104320009D1FDF91CF910895E1D6F1CF90E080E01D
:10433000F8CF0F931F93CF93DF9320912604211181
:104340002BC08B01EC018BE294E001DE8FE294E064
:10435000FEDD87E294E0FBDD97D00097C1F4C9D67B
:1043600070E060E0CEDF49EA52E062E070E081D1C7
:10437000009769F48091A9029091AA02CCD6B80165
:10438000CE0101D5009719F421E020932604DF9196
:10439000CF911F910F91089584EF9FEFF8CFA6C69C
:1043A000A8C6CF93DF93A8D6EC01892B11F40ADEBF
:1043B00036DECE01DF91CF910895CF93DF939CD667
:1043C000EC01892B09F4FEDDCE01DF91CF91089538
:1043D0008091A9029091AA020895CF93DF938091D2
:1043E0002604D0E0C0E08823D1F09AD6EC01892BD6
:1043F000B1F4E8DD14DE8091A9029091AA02E7D120
:10440000E8D2EC01892B59F48BE294E0D5DD8FE200
:1044100094E0D2DD87E294E0CFDD10922604CE0155
:10442000DF91CF910895EF92FF920F931F93CF9357
:10443000DF93EC017A018B010F5F1F4F0E9DA001EE
:104440000F9D500D1E9D500D112470E060E00E94E4
:10445000E53290E080E0F0E0E0E02FEFE816F906CA
:1044600039F4DF91CF911F910F91FF90EF90089554
:104470001A8219822883309711F0D283C183019662
:10448000FE01C00FD11FEACFCF92DF92EF92FF92D1
:104490000F931F93CF93DF9308EF15E00C7F43E05A
:1044A00050E06BEA72E081EB92E01AD48BEAE82EDE
:1044B00082E0F82E91EBC92E92E0D92ECFE9D6E01A
:1044C000D7014D915D917D01F601619171916F016F
:1044D000198308835D834C835B834A837F836E8368
:1044E0009B012F5F3F4F249FC001259F900D349F5C
:1044F000900D1124998788870115110511F0C801C5
:1045000092DF88859985080F191F2A96F1EBEF161F
:10451000F2E0FF06A9F6E5E3F4E080EC91E0DF01CC
:104520009C011D9221503040E1F71092340410920A
:1045300033041092BE061092BD061092C20610926D
:10454000C1061092C0061092BF061092C4061092C7
:10455000C3061092C6061092C5061092C8061092A5
:10456000C7061092CC061092CB061092CA06109283
:10457000C9061092CE061092CD061092D006109267
:10458000CF0610929C0610929B0610929E061092E7
:104590009D0690E080E0DF91CF911F910F91FF90F9
:1045A000EF90DF90CF9008950097F1F0F894A1EB91
:1045B000B2E0EFE9F6E030E020E04D915D91481780
:1045C0005907A8F0428153814115510581F08AE0D5
:1045D000829FF001839FF00D1124E156F94F8081F5
:1045E0009181009759F4789490E080E008952F5FCE
:1045F0003F4F3A962330310501F7F5CFDC01119694
:104600006D917C9171836083415051095383428342
:10461000FC012193CF0178940895009749F1DC01C2
:104620008E91853041F4E0919D06F0919E06309781
:10463000F9F0CD0119948530D8F4282F30E0F894A2
:104640008FEF8C938AE0829FF001839FF00D1124FD
:10465000E156F94F8081918112969C938E93119728
:10466000B183A0838281938101969383828378941E
:104670000895CF92DF92EF92FF920F931F93CF9303
:10468000DF939C0188E394E08C7F4115510509F488
:104690009BC02115310509F497C06115710509F416
:1046A00093C07A01AB01B9016D5F7F4F6C7F9B01B5
:1046B0002F5F3F4F249F8001259F100D349F100DC9
:1046C0001124F8942091BD063091BE06232B59F495
:1046D0002091C5063091C6062115310569F12017D4
:1046E000310708F058C02091C7063091C806232B27
:1046F00091F42091C5063091C606820F931F209138
:10470000CF063091D0062115310509F441C020179C
:10471000310708F056C07894CFEFDFEF86EF9FEFB8
:10472000F701D183C083DF91CF911F910F91FF904B
:10473000EF90DF90CF900895C3E0D0E0C0903304B5
:10474000D09034042DEB31E02C193D0920173107AE
:1047500010F32AE02C9FF0012D9FF00D1124E1565B
:10476000F94F9183808355834483538342837783B6
:10477000668311870087009709F055DE0C0D1D1D1B
:104780001093340400933304789490E080E0C8CF11
:10479000C4E0D0E0D3CFC3E0D0E02AE02C9FF0010A
:1047A0002D9FF00D1124E156F94F9183808355839D
:1047B00044835383428377836683009729F333DEF0
:1047C000E3CFC4E0D0E0E9CF8FEF9FEFACCF9C0107
:1047D0000397029708F069C0F89484E09AE0482FA4
:1047E00050E0241735070CF44DC091E08AE0829F19
:1047F000F001839FF00D1124E156F94F11821082D0
:104800001582148213821282178216829923B1F1C3
:104810008091BD069091BE06892BA9F42091C50612
:104820003091C6062115310571F0809133049091C5
:104830003404821B930B90933404809333041092BE
:10484000C6061092C5068091C7069091C806892BAE
:10485000A9F42091CF063091D0062115310571F0D1
:104860008091330490913404821B930B9093340411
:10487000809333041092D0061092CF06789490E083
:1048800080E00895949FF001959FF00D1124E1566A
:10489000F94F40815181452B31F440855185452B9D
:1048A00011F481509CCF90E0A1CF8FEF9FEF08953E
:1048B0004115510549F1009739F16115710521F153
:1048C000F89420919B0630919C06232BB9F42091FB
:1048D0009D0630919E06232B89F490939C0680932D
:1048E0009B0670939E0660939D06789425E030E0C9
:1048F00090E080E0FA0131832083089578942FEFCF
:104900003FEF86EF9FEFF6CF8FEF9FEF089505976C
:1049100069F4F89410929C0610929B0610929E06E1
:1049200010929D06789490E080E008958FEF9FEFBD
:1049300008956115710519F4F0E0E0E011C08530CB
:10494000910581F4E0919B06F0919C063097A1F3CC
:10495000CB0101961995009779F3FC0185E08193CD
:10496000CF0108959C01235031092230310520F7F1
:104970002AE0289FD001299FB00D1124A156B94FDC
:104980002D913C911197232BB9F216962D913C91C4
:1049900017972617370780F2F89412962D913C91BD
:1049A00013972115310529F0ED91FC91119730975E
:1049B00011F47894C1CF4181528111965C934E934A
:1049C0002150310913963C932E931297819378943A
:1049D000C7CFE5EFF5E086EADF011D928A95E9F79A
:1049E000E5E3F4E080EC91E0DF019C011D922150B1
:1049F0003040E1F71092340410923304EFE9F6E00E
:104A000082E3DF011D928A95E9F7EBE9F6E084E0A5
:104A1000DF011D928A95E9F790E080E00895CF9339
:104A2000DF93C091B702D091B802CF3FDC0759F4B1
:104A300020D49093B8028093B70297FF09C0D09317
:104A4000B802C093B70284EF9FEFDF91CF91089532
:104A500090E080E0FACF8230910528F48093D1066F
:104A600090E080E008958FEF9FEF08954F925F925E
:104A70006F927F92AF92BF92CF92DF92EF92FF92AE
:104A80000F931F93CF93DF931F921F92CDB7DEB783
:104A90001A821982009709F478C06115710509F42A
:104AA00074C02091B7023091B80207EF1FEF2F3F7B
:104AB0003F4F09F444C06B015C01412C512C320181
:104AC000F12CE12C10E000E09E012F5F3F4FA6018A
:104AD0004E195F09B5016E0D7F1D8091B70290914F
:104AE000B80226D4892B09F04AC089819A8100979F
:104AF00041F4E114F10429F42091D106222309F4B0
:104B000041C0E80EF91EEC14FD04C8F480E8481614
:104B100084E858068EE16806710418F560E070E0DC
:104B2000CB010DD72AE0420E511C611C711C0A3FBB
:104B30004FEF140721F0043F8FEF1807A1F4C801CD
:104B40000F900F90DF91CF911F910F91FF90EF90F9
:104B5000DF90CF90BF90AF907F906F905F904F901D
:104B6000089501EF1FEF81E090E0013F2FEF120762
:104B700011F090E080E0892B09F4A6CFE0CF04EF9C
:104B80001FEFDDCF0AEF1FEFDACF0FEF1FEFD7CF09
:104B90004F925F926F927F92AF92BF92CF92DF92CD
:104BA000EF92FF920F931F93CF93DF931F921F9269
:104BB000CDB7DEB71A821982009709F478C0611563
:104BC000710509F474C02091B7023091B80207EF63
:104BD0001FEF2F3F3F4F09F444C06B015C01412C94
:104BE000512C3201F12CE12C10E000E09E012F5FEE
:104BF0003F4FA6014E195F09B5016E0D7F1D8091D3
:104C0000B7029091B8024AD3892B09F04AC0898132
:104C10009A81009741F4E114F10429F42091D1061E
:104C2000222309F441C0E80EF91EEC14FD04C8F477
:104C300080E4481682E458068FE06806710418F58F
:104C400060E070E0CB017BD62AE0420E511C611C73
:104C5000711C0E3F4FEF140721F0043F8FEF180730
:104C6000A1F4C8010F900F90DF91CF911F910F9188
:104C7000FF90EF90DF90CF90BF90AF907F906F90BC
:104C80005F904F90089502EF1FEF81E090E0023FA8
:104C90002FEF120711F090E080E0892B09F4A6CFE6
:104CA000E0CF04EF1FEFDDCF0EEF1FEFDACF0FEFF6
:104CB0001FEFD7CF8091B7029091B8028F3F98072E
:104CC00049F0CFD2892B49F48FEF9FEF9093B80230
:104CD0008093B70290E080E0089584EF9FEF0895FD
:104CE000CF92DF92EF92FF920F931F93CF93DF93B8
:104CF00021E04115510509F020E0415051092111F1
:104D00002CC0DC01FB01D12CC12C21E022C03FEFE3
:104D1000C31AD30A7D010D911D91E701EA80FB8042
:104D2000E016F106A8F420813181E280F380F1825F
:104D3000E08233832283ED90FC9011979D012250F5
:104D40003109E901F982E88211961C930E9320E063
:104D50003296C416D506D8F2D2CFDF91CF911F91EB
:104D60000F91FF90EF90DF90CF900895FC01680FB6
:104D7000791F90E080E0E617F70709F40895219184
:104D8000820F911DF8CF2091D206211113C047DE6A
:104D9000009791F41092D8061092D7061092D6067A
:104DA0001092D5061092D4061092D30621E02093DB
:104DB000D206089584EF9FEF0895AF92BF92CF92ED
:104DC000DF92EF92FF920F931F93CF93DF930097A1
:104DD00009F460C04630510508F45CC02091D20649
:104DE000C7EFDFEF222309F449C08C01060F171F1C
:104DF000F801C080D180C114D10409F44EC09601DD
:104E00002A5F3F4F4217530708F447C07C01809147
:104E1000D7069091D80693838283B6016C5F7F4F4B
:104E20005801A60EB71EC801A1DFF501918380834A
:104E300064E070E0C8011ADEEC01892BF9F481E02E
:104E400090E009DEB601C801049610DEEC01892B62
:104E500091F462E070E0C50109DEEC01892B59F4A0
:104E6000C701DBDB8091D7069091D806019690931D
:104E7000D8068093D70690E080E0EDDDCE01DF918B
:104E8000CF911F910F91FF90EF90DF90CF90BF9047
:104E9000AF900895CFEFDFEFF1CFC9EFDFEFEECFA7
:104EA0006F927F928F929F92AF92BF92CF92DF923A
:104EB000EF92FF920F931F93CF93DF9300D01F9237
:104EC000CDB7DEB7009709F47AC04115510509F452
:104ED00076C02091D20607EF1FEF222309F44DC0C0
:104EE0003A017B015C0164E070E0CE01019650DE86
:104EF0008C01892B09F041C009811A810115110526
:104F000009F45AC0480186E0880E911CB701680D6B
:104F1000791D8091B9029091BA020BDD6C01009766
:104F200009F450C0A70170E060E00E94E532898179
:104F30009A81AB81BC81EC0CFD1CF70181939193AC
:104F4000A193B1937F0181E090E085DDB801C701B5
:104F50001FDE892B31F562E070E0C701800F911FE1
:104F600017DE8C01892BE9F490E080E074DDF50117
:104F7000D182C082F30191828082C8010F900F908C
:104F80000F900F90DF91CF911F910F91FF90EF90B5
:104F9000DF90CF90BF90AF909F908F907F906F9059
:104FA000089590E080E057DDF50111821082F30151
:104FB00011821082C60131DB09EF1FEFDECF0FEF48
:104FC0001FEFDBCF06EF1FEFD8CF0097A1F0411501
:104FD000510589F02115310571F0F90136966E17EA
:104FE0007F0748F0DC012D933C93DA01ED93FC93AD
:104FF00090E080E008958FEF9FEF0895AF92BF9209
:10500000CF92DF92EF92FF920F931F93CF93DF9394
:10501000009709F45FC04115510509F45BC0653084
:10502000710508F457C02091D206C7EFDFEF2223A5
:1050300091F1DC01CD90DC9011971296ED91FC91ED
:1050400096012A5F3F4FC9EFDFEF2617370719F5A3
:10505000C091D306D091D406209749F521E030E0E5
:105060003093D4062093D3067A018C01F093D606B0
:10507000E093D5065601B4E0AB0EB11CB50176DE67
:105080000A0D1B1DF801208131818217930729F534
:10509000D701CD92DC92CE01DF91CF911F910F917C
:1050A000FF90EF90DF90CF90BF90AF900895209148
:1050B000D5063091D6062F5F3F4FCCEFDFEFE217DA
:1050C000F30790F2CBEFDFEF2E173F0768F2D0E047
:1050D000C0E0CACFCFEFDFEFDECFC3EFDFEFDBCF34
:1050E00084E090E0089582E090E008958CEF9FEFD7
:1050F000089580E290E008951092D8061092D706A5
:105100001092D6061092D5061092D4061092D306AD
:1051100090E080E008959093BA028093B9020895D8
:105120008091D206882391F0C5DD009789F4109212
:10513000D8061092D7061092D6061092D506109275
:10514000D4061092D3061092D206089590E080E023
:105150000895009749F06115710531F0FC01118245
:105160001082FB01118210820895F3CF26E030E017
:1051700040E855E260E070E090E080E000C08130FF
:10518000910569F01CF4892B39F00895823091055E
:1051900049F0039751F0089586EE96E0F8C683E84B
:1051A00097E0FCCF80E298E0F9CF8DEB98E0F6CF66
:1051B0001F920F920FB60F9211240BB60F922F93DE
:1051C0003F934F935F936F937F938F939F93AF938F
:1051D000BF93EF93FF938FE89DEF9093250180930A
:1051E0002401BAD0FF91EF91BF91AF919F918F9120
:1051F0007F916F915F914F913F912F910F900BBED7
:105200000F900FBE0F901F9018958FE89DEF909311
:10521000250180932401A3E7B0E08C918E7F8C93CD
:10522000E0E2F1E080818C7F8083E1E2F1E0808147
:10523000877E808380818460808380818C7F80836F
:105240008C9181608C930895E3E7F0E080819081F8
:105250009E7F90838170089581E008951092D90611
:10526000089568EE73E080E090E069D390E080E01C
:10527000089526E030E040E050E16EE070E090E01C
:1052800080E07DDF86EE96E0B8D5892B21F086EEB2
:1052900096E0CDD5F7CF90E080E00895CF92DF92F1
:1052A000EF92FF920F931F93CF93DF936B017A01DD
:1052B000E9011982188286EE96E09FD5892B69F163
:1052C0008601CC24C39482E0D82E8091D906811126
:1052D00010C086EE96E0ABD50297B9F7C092D9061A
:1052E000F801D1928F0188819981019699838883F1
:1052F000ECCF888199818E159F0578F486EE96E033
:1053000096D58F3F9807A9F3F80181938F01888183
:105310009981019699838883ECCF90E080E0DF91BA
:10532000CF911F910F91FF90EF90DF90CF90089554
:105330000F931F93CF93DF93EA01890186EE96E0E6
:105340000E945732F801D183C08390E080E0DF9162
:10535000CF911F910F910895CF92DF92EF92FF921C
:10536000CF93DF938091DA0691E0980F9093DA065D
:10537000882379F021E030E03093DC062093DB06CF
:105380008093DA06DF91CF91FF90EF90DF90CF907E
:1053900008957894C091BD02D091BE026E8D7F8D2C
:1053A00088A199A144D120E030E040E85FE4F5D144
:1053B0006B017C016A8D7B8D8C8D9D8D38D19B011D
:1053C000AC01C701B6019AD006D16B017C010E94E5
:1053D0005305B701A60190E080E00E94C504F8944F
:1053E0008091DA068150CCCF0F931F93CF93DF9338
:1053F0001092B1091092B009D8D2B8DEC091BD02A6
:10540000D091BE021982188268E873E180E090E0D2
:105410000E94480570E060E090E080E00E94C803D0
:10542000009709F03AC00E949009F8947894BE0160
:105430006A5D7F4F8A819B810E94CB03892B59F43F
:105440006FEF7FEFCB010E945B040E94420588232F
:1054500011F081E08AA7F894D8DE0E9445058823E0
:1054600011F080E008C00E9442058111FACF81E06E
:105470009AA59111F6CF8093B00978940E94CE102E
:105480008C0178948091B00981110CC00E945A0A55
:105490000E942705F89490E080E0DF91CF911F9162
:1054A0000F9108950E9425050E9445058823D9F093
:1054B00081E08093B1099091B10981E0911180E080
:1054C0008093B0098091B1098111BEDE01301105D0
:1054D00029F40E94CE10892B09F4C0DE0E94CE1060
:1054E0008C01BADECFCF0E9442058111E1CF81E06D
:1054F0009AA59111DECF80E0DCCF5058BB27AA27B8
:105500000ED00DC1FED030F003D120F031F49F3F1A
:1055100011F41EF4F3C00EF4E095E7FBE9C0E92FA7
:105520000FD180F3BA17620773078407950718F045
:1055300071F49EF527C10EF4E0950B2EBA2FA02D25
:105540000B01B90190010C01CA01A0011124FF2730
:10555000591B99F0593F50F4503E68F11A16F0402B
:10556000A22F232F342F4427585FF3CF469537952A
:105570002795A795F0405395C9F77EF41F16BA0BEF
:10558000620B730B840BBAF09150A1F0FF0FBB1F9D
:10559000661F771F881FC2F70EC0BA0F621F731FE6
:1055A000841F48F4879577956795B795F7959E3F43
:1055B00008F0B3CF9395880F08F09927EE0F9795D1
:1055C0008795089571D008F481E0089504D0689417
:1055D000B111D9C00895BCD088F09F5790F0B92F71
:1055E0009927B751A0F0D1F0660F771F881F991F38
:1055F0001AF0BA95C9F712C0B13081F0C3D0B1E04A
:105600000895C0C0672F782F8827B85F39F0B93F59
:10561000CCF3869577956795B395D9F73EF4909539
:105620008095709561957F4F8F4F9F4F0895E894B7
:1056300009C097FB3EF490958095709561957F4FDA
:105640008F4F9F4F9923A9F0F92F96E9BB27939588
:10565000F695879577956795B795F111F8CFFAF498
:10566000BB0F11F460FF1BC06F5F7F4F8F4F9F4FC9
:1056700016C0882311F096E911C0772321F09EE827
:10568000872F762F05C0662371F096E8862F70E08D
:1056900060E02AF09A95660F771F881FDAF7880F67
:1056A0009695879597F90895990F0008550FAA0BBD
:1056B000E0E8FEEF16161706E807F907C0F0121625
:1056C0001306E407F50798F0621B730B840B950B28
:1056D00039F40A2661F0232B242B252B21F408957D
:1056E0000A2609F4A140A6958FEF811D811D08951A
:1056F00097F99F6780E870E060E008959FEF80EC85
:10570000089500240A941616170618060906089527
:1057100000240A9412161306140605060895092E8D
:105720000394000C11F4882352F0BB0F40F4BF2BFC
:1057300011F460FF04C06F5F7F4F8F4F9F4F08953C
:1057400057FD9058440F551F59F05F3F71F0479532
:10575000880F97FB991F61F09F3F79F08795089517
:10576000121613061406551FF2CF4695F1DF08C036
:10577000161617061806991FF1CF86957105610553
:1057800008940895E894BB2766277727CB0197F9FB
:1057900008958ADF08F48FEF08950BD0C0CFB1DFF2
:1057A00028F0B6DF18F0952309F0A2CFA7CF112477
:1057B000EACFC6DFA0F3959FD1F3950F50E0551FB8
:1057C000629FF001729FBB27F00DB11D639FAA2756
:1057D000F00DB11DAA1F649F6627B00DA11D661FA5
:1057E000829F2227B00DA11D621F739FB00DA11DC6
:1057F000621F839FA00D611D221F749F3327A00D80
:10580000611D231F849F600D211D822F762F6A2F1B
:1058100011249F5750408AF0E1F088234AF0EE0FA0
:10582000FF1FBB1F661F771F881F91505040A9F7AD
:105830009E3F510570F05CCFA6CF5F3FECF3983EE2
:10584000DCF3869577956795B795F795E7959F5F14
:10585000C1F7FE2B880F911D9695879597F90895AE
:105860001F920F920FB60F9211242F933F938F9395
:105870009F93AF93BF938091DE069091DF06A09136
:10588000E006B091E1063091DD0623E0230F2D37CD
:1058900058F50196A11DB11D2093DD068093DE060B
:1058A0009093DF06A093E006B093E1068091E206B4
:1058B0009091E306A091E406B091E5060196A11D42
:1058C000B11D8093E2069093E306A093E406B093A3
:1058D000E506BF91AF919F918F913F912F910F90CE
:1058E0000FBE0F901F90189526E8230F0296A11D5A
:1058F000B11DD2CF3FB7F8948091E2069091E306B4
:10590000A091E406B091E50626B5A89B05C02F3FFF
:1059100019F00196A11DB11D3FBFBA2FA92F982FD5
:105920008827BC01CD01620F711D811D911D42E0D0
:10593000660F771F881F991F4A95D1F708958F9298
:105940009F92AF92BF92CF92DF92EF92FF926B0144
:105950007C01D0DF4B015C01C114D104E104F104EE
:10596000D9F0D2D5C7DF681979098A099B09683E41
:1059700073408105910580F321E0C21AD108E10846
:10598000F10888EE880E83E0981EA11CB11CC1149A
:10599000D104E104F10431F7FF90EF90DF90CF9054
:1059A000BF90AF909F908F900895789484B5826057
:1059B00084BD84B5816084BD85B5826085BD85B5B3
:1059C000816085BDEEE6F0E0808181608083E1E862
:1059D000F0E010828081826080838081816080839A
:1059E000E0E8F0E0808181608083E1EBF0E080819D
:1059F00084608083E0EBF0E0808181608083E1E976
:105A0000F0E0808182608083808181608083E0E932
:105A1000F0E0808181608083E1EAF0E08081826053
:105A20008083808181608083E0EAF0E08081816012
:105A30008083E1E2F1E08081826080838081816007
:105A40008083E0E2F1E0808181608083EAE7F0E03A
:105A50008081846080838081826080838081816096
:105A600080838081806880831092C100089586338E
:105A700008F0865320917B00982F9870277F922BF7
:105A800090937B002091BB0290E4299F9001112408
:105A90008770822B80937C0080917A008064809351
:105AA0007A0080917A0086FDFCCF809178009091F9
:105AB000790008951F93CF93DF93182FEB0161E0D6
:105AC00033D1209731F460E0812FDF91CF911F9186
:105AD00067C1CF3FD10511F461E0F6CFE12FF0E0CF
