:10000000D5C0000004C1000002C1000000C1000012
:10001000FEC00000FCC00000FAC00000F8C00000F4
:10002000F6C00000F4C00000F2C00000F0C0000004
:10003000EEC00000ECC00000EAC00000E8C0000014
:10004000E6C00000E4C00000E2C00000E0C0000024
:10005000DEC00000DCC00000DAC000000C941E26E8
:10006000D6C000000C94AE280C94E428D0C0000048
:10007000CEC00000CCC00000CAC00000C8C0000054
:10008000C6C00000C4C00000C2C00000C0C0000064
:100090000C943A290C947029BAC00000B8C0000032
:1000A000B6C00000B4C00000B2C00000B0C0000084
:1000B000AEC00000ACC00000AAC00000A8C0000094
:1000C000A6C00000A4C000000C94CD220C94C62948
:1000D0000C94FC299CC000000C94522A0C94882A91
:1000E00096C00000010210202008081020401020B7
:1000F00040800201020108040201010204081020EC
:1001000040808040201008040201800402018040E9
:100110002010080402010804020101020408102052
:1001200040800102040810204080050505050705F0
:1001300008080808020202020A0A08080404040463
:10014000010101010101010103030303030303038F
:10015000040707070C0C0C0C0C0C0C0C020202021E
:1001600006060606060606060B0B0B0B0B0B0B0B07
:1001700000002200250028002B002E003100340052
:1001800002010000050108010B010000210024000C
:1001900027002A002D003000330001010000040177
:1001A00007010A010D299929252AB12A11241FBE08
:1001B000CFEFD1E2DEBFCDBF00E00CBF12E0A0E088
:1001C000B2E0E8E0F7E500E00BBF02C007900D9257
:1001D000AC3CB107D9F727E0ACECB2E001C01D920E
:1001E000A03EB207E1F710E0C6EDD0E000E006C0A7
:1001F00021970109802FFE010E94512BC23DD1079A
:1002000080E00807A9F70E94E8230C94822BF8CE1F
:10021000CF93DF93882349F0EB0181500E9425277B
:1002200099838883DF91CF910895FB011182108219
:10023000F9CF0F931F938B019C0183E0369527958F
:10024000179507958A95D1F704531D4F462F477090
:1002500021E030E0F90102C0EE0FFF1F4A95E2F7FE
:10026000AF01F80120812423CB010196211102C0A6
:1002700090E080E01F910F9108950F931F938B01E1
:100280009C0183E036952795179507958A95D1F7B8
:10029000677081E090E001C0880F6A95EAF7F80185
:1002A000E453FD4F2081452B31F4809582238083D8
:1002B0001F910F910895822BFACFCF92DF92EF9288
:1002C000FF92CF93DF936B017C0160E086E3C81659
:1002D000D104E104F10490F486E38C0D0E944827D8
:1002E000E6012196AE01C701B601C7DFCE01DF915D
:1002F000CF91FF90EF90DF90CF9008958C2DEECFAF
:10030000882341F08150682F70E090E080E050E059
:1003100040E0B3CF089590E080E008950F931F93DD
:10032000009709F487C06115710509F483C0009135
:100330000E0210910F0220911002309111020E3F17
:100340001F4F2F4F3F4F09F066C04FEF5FEFBA01CD
:1003500040930E0250930F026093100270931102AB
:1003600040910E0250910F026091100270911102A3
:10037000DC011296ED91FC9180819181A281B38183
:100380008093410390934203A0934303B0934403AB
:1003900084819581A681B78180933D0390933E032C
:1003A000A0933F03B093400380859185A285B385D8
:1003B0008093390390933A03A0933B03B0933C039B
:1003C00084859585A685B7858093350390933603FC
:1003D000A0933703B0933803109231031092320385
:1003E0001092330310923403C1D48BED96E09093B6
:1003F000D6028093D5029093D8028093D702A5D3DA
:10040000009731F421E030E0309346032093450318
:100410001F910F91089500910E0210910F022091EB
:10042000100230911102DB010D931D932D933C932B
:10043000139796CF8FEF9FEFEBCF8F929F92AF9254
:10044000BF92CF92DF92EF92FF921F93CF93DF93F1
:100450004B015C011091480382E090E090934603C9
:100460008093450381149104A104B10441F4809167
:100470004803811104C080914703C1E08111C0E0AD
:10048000C12CD12C760180914803811106C0809146
:100490004703811102C0CC23D1F083E090E0909318
:1004A000460380934503CC2371F1CCE9DFEF1111B2
:1004B00001C0E5D7CE01DF91CF911F91FF90EF9062
:1004C000DF90CF90BF90AF909F908F9008956AE09B
:1004D00070E080E090E00E948D2680E1C80E87E207
:1004E000D81EE11CF11C8FEF88169806A806B806E6
:1004F00031F0C1E08C149D04AE04BF0408F0C0E0EC
:1005000080E057D3C0CFD0E0C0E0D1CFCF92DF9210
:10051000EF92FF920F931F93CF93DF938F3F91053D
:1005200011F008F050C0209145033091460323306C
:10053000310539F0209145033091460321303105D2
:1005400031F424E030E030934603209345036A0100
:100550007B01EC0182309105A0F011E0AE01C701F2
:10056000B601F2D2AB01BC01CE011123F9F0DF914B
:10057000CF911F910F91FF90EF90DF90CF900C944F
:10058000680C8C01000F111F0B521D4FD8018D916B
:100590009C91892B11F30E94720C0297F1F6D801FD
:1005A000ED91FC91CE011995182FD8CF0E948A0C9D
:1005B00090E080E0DF91CF911F910F91FF90EF903D
:1005C000DF90CF9008958FEF9FEFF4CF80E0F1C2DE
:1005D000CF93DF9386E090E09093460380934503AA
:1005E00041D3EC01E5EDF2E084E0DF011D928A9554
:1005F000E9F7DDD61092460310924503CE01DF9154
:10060000CF91089580914703089580913003089514
:1006100060930E0270930F02809310029093110268
:1006200090E080E008954F925F926F927F928F9258
:100630009F92AF92BF92CF92DF92EF92FF92CF93B1
:10064000DF931F921F92CDB7DEB7C0900002D0900B
:100650000102E0900202F0900302A701960160916E
:10066000D3077091D4078091D5079091D6070E9447
:10067000D524882341F0C092D307D092D407E092CA
:10068000D507F092D60766E370E080E090E0D1DD18
:100690009093D2078093D10743E050E0BE016F5F93
:1006A0007F4FB6DD20910C0230910D02A981BA81F5
:1006B0000E94592B0E94052520E030E040E057E3DE
:1006C0000E94BB2520910402309105024091060250
:1006D000509107020E947024209108023091090273
:1006E00040910A0250910B020E94BB256093DA07E9
:1006F0007093DB078093DC079093DD07C0900303C2
:10070000D0900403E0900503F09006038FEFC81A21
:10071000D80AE80AF80AC0920303D0920403E092D0
:100720000503F0920603C114D104E104F10499F425
:100730008091070390910803A0910903B0910A03E7
:100740000196A11DB11D8093070390930803A09308
:100750000903B0930A0380900B0390900C03A090C0
:100760000D03B0900E036091070370910803809110
:10077000090390910A030E940525A50194010E9496
:10078000BB2520E030E040E85FE40E94BB252B0160
:100790003C01C701B6010E940525A50194010E94F4
:1007A000BB259B01AC01C301B2010E94712460937F
:1007B000FF027093000380930103909302030F9054
:1007C0000F90DF91CF91FF90EF90DF90CF90BF908F
:1007D000AF909F908F907F906F905F904F90089513
:1007E0001F93CF93DF93E9EEF2E08BE2DF011D92DE
:1007F0008A95E9F780E090E0A0E8BFEB86A397A395
:10080000A0A7B1A78DEC9CECACE4BEE382A393A3BC
:10081000A4A3B5A38DED94E5A5EAB6E984839583F9
:10082000A683B78389E09FE5AEE1BEE78087918725
:10083000A287B38783E297EDA5E3BEEA8487958715
:10084000A687B78782E894E3ADE7B7ED808B918BFD
:10085000A28BB38BADEDB2E0B383A283E9EDF2E0FE
:100860001196FC93EE9388E392E0918380839383C7
:1008700082838DEF92E015969C938E9314978DEE64
:1008800092E013969C938E9312978FEF92E01796B7
:100890009C938E931697EAEDF7E084E0DF011D92BA
:1008A0008A95E9F7CBECD7E08FE0FE0111928A95AB
:1008B000E9F711E01E878091000290910102A0915A
:1008C0000202B091030288879987AA87BB8781E0DB
:1008D00090E0A0E0B0E089839A83AB83BC8366E3B9
:1008E00070E080E090E0E9DC9F838E831D83DF91E0
:1008F000CF911F9108958091CB0781111DC081E098
:100900008093CB078091CC079091CD07A091CE0723
:10091000B091CF070197A105B10571F48091D0077F
:10092000882351F066E370E080E090E082DC9093F1
:10093000D2078093D107E4CC08954F925F926F92D3
:100940007F928F929F92AF92BF92CF92DF92EF925F
:10095000FF920F931F93F89440902003509021032F
:100960006090220370902303C0901403D09015036D
:10097000E0901603F0901703452B09F0A6C09B01E9
:10098000AC01241935094609570929013A0100919A
:100990001C0310911D0320911E0330911F03480179
:1009A0005901840C951CA61CB71C80169106A20642
:1009B000B306A0F4009118031091190320911A03B3
:1009C00030911B030F5F1F4F2F4F3F4F00931803B2
:1009D0001093190320931A0330931B0380921C0376
:1009E00090921D03A0921E03B0921F030091180362
:1009F0001091190320911A0330911B038092240354
:100A000090922503A0922603B09227030093280317
:100A10001093290320932A0330932B036093200320
:100A2000709321038093220390932303A3019201E7
:100A300060E47DE083E090E00E940C2B6C0D7D1D56
:100A40008E1D9F1D609314037093150380931603EE
:100A50009093170300910E0210910F022091100243
:100A6000309111020F3F1F4F2F4F3F4FF1F0009178
:100A70000E0210910F0220911002309111020E3FD0
:100A80001F4F2F4F3F4F89F0C0900E02D0900F02A2
:100A9000E0901002F090110221E08C149D04AE044D
:100AA000BF0408F420E02093300378941F910F9145
:100AB000FF90EF90DF90CF90BF90AF909F908F907E
:100AC0007F906F905F904F9008954B015C01841868
:100AD0009508A608B708A3019201261B370B480BFF
:100AE000590B6415750586059705E0F08216930687
:100AF000A406B50640F420E030E0A9018114910479
:100B0000A104B104A1F460E47DE083E090E00E94E0
:100B10000C2BA7019601261B370B480B590BCA015A
:100B2000B901C3CF82169306A406B50660F7A501E6
:100B3000940160E47DE083E090E00E940C2B6C0D5A
:100B40007D1D8E1D9F1DB1CFF8CECF93DF9300D0BA
:100B50001F92CDB7DEB71C821B821A8219821092B7
:100B60002C0310922D0310922E0310922F03BE011E
:100B70006F5F7F4FCE0103960E949E2269817A812A
:100B80008B819C810E948E1B009761F4BE016F5F78
:100B90007F4FCE0103960E94AA2269817A818B81C0
:100BA0009C812ED50F900F900F900F90DF91CF91D9
:100BB0000895FF920F931F93CF93DF93082F60E068
:100BC00070E0CB010E948D26FF24F3940E94771AD7
:100BD000EC01892B89F010E0CE3F8FEFD80769F048
:100BE000002361F160E070E0CB010E948D2681E07E
:100BF00090E0892B59F322C011E025D5EC01892B17
:100C000021F0CE3F8FEFD80759F711111EC011E028
:100C1000229609F410E00E94271AEC01892B21F09A
:100C2000CE3F8FEFD807E1F6111111C011E0CE3F92
:100C30008FEFD80709F410E001110BC0CE01DF914E
:100C4000CF911F910F91FF90089511E0E4CF11E033
:100C5000F3CF60E070E0CB010E948D261F25812F2D
:100C600090E0C7CFCF93DF9380913003882321F0AA
:100C700060E070E0CB014CD635D6D0E0C0E0892BE7
:100C800071F06AE070E080E090E00E948D2681E0E3
:100C900090DF28D62196C03D27E0D20781F727D6DE
:100CA0000E94E21B109248031092470310924103E6
:100CB00010924203109243031092440310923D039A
:100CC00010923E0310923F0310924003109239039A
:100CD00010923A0310923B0310923C03109235039A
:100CE000109236031092370310923803109231039A
:100CF0001092320310923303109234034EEF5FEFE1
:100D00006FEF7FEF40930E0250930F02609310023B
:100D10007093110210923003E4E2F3E028E0DF0167
:100D20001D922A95E9F71092200310922103109248
:100D300022031092230310921C0310921D031092A1
:100D40001E0310921F0310921803109219031092A1
:100D50001A0310921B0310921403109215031092A1
:100D6000160310921703DF91CF9108951092540348
:100D7000109255031092560310925703109253038A
:100D800080915C0390915D03909352038093510393
:100D90001092500310924F0310924B0310924C0389
:100DA00010924D0310924E03109259031092580363
:100DB00090E080E00895CF92DF92EF92FF920F9340
:100DC0001F93CF938C01892B09F055C020915C03B0
:100DD00030915D03809151039091520340915C03E7
:100DE00050915D03509352034093510328173907E4
:100DF00081F01092500310924F0310924B03109207
:100E00004C0310924D0310924E031092590310920E
:100E1000580380915C0390915D03019761F5809187
:100E2000580390915903892B21F48091120281116A
:100E300012C080915803909159030197E1F4809179
:100E40004B0390914C03A0914D03B0914E03019739
:100E5000A105B10581F410924B0310924C0310923E
:100E60004D0310924E031092120282E090E0909394
:100E700059038093580380915C0390915D0301971F
:100E800009F01CC180917203909173038017910740
:100E900009F014C180916E0390916F03A0917003CB
:100EA000B0917103009709F409C120916D032111DC
:100EB0000DC040916E0350916F036091700370916B
:100EC0007103452B462B472B09F4F8C0209158039A
:100ED000309159032230310509F0F0C020914F03C1
:100EE0002111ECC0FC01C080D180E280F3808091B0
:100EF0005303882309F4D3C080915F03909160036A
:100F0000892B09F4FDC020915F033091600381E0DB
:100F10002230310509F080E020915F0330916003B9
:100F2000C1E02130310549F020915F033091600329
:100F3000C1E02230310509F0C0E0882309F456C031
:100F40002091690330916A0340916B0350916C03C7
:100F5000C701B6010E94B72587FD14C0209169031F
:100F600030916A0340916B0350916C03609154037C
:100F70007091550380915603909157030E94D52498
:100F800087FD22C02091690330916A0340916B0371
:100F900050916C03C701B6010E94B725181634F5AD
:100FA0002091690330916A0340916B0350916C0367
:100FB00060915403709155038091560390915703AB
:100FC0000E94D524811112C0809161039091620327
:100FD000A0916303B0916403892B8A2B8B2B19F4A6
:100FE00081E08093500381E080934F03CC2309F488
:100FF00056C02091690330916A0340916B03509170
:101000006C03C701B6010E94D52487FF14C020914C
:10101000690330916A0340916B0350916C036091B6
:1010200054037091550380915603909157030E9489
:10103000B72587FF22C02091690330916A03409150
:101040006B0350916C03C701B6010E94D524811136
:1010500026C02091690330916A0340916B0350913F
:101060006C036091540370915503809156039091E5
:1010700057030E94B725181694F48091610390914C
:101080006203A0916303B0916403892B8A2B8B2B9D
:1010900019F481E08093500381E080934F0381E055
:1010A00090914F03911180E080935303C0925403B9
:1010B000D0925503E0925603F0925703012B09F0AA
:1010C00067C18091580390915903892BD9F41092EC
:1010D0005E0310924F0380911202882379F082E020
:1010E00090E090935903809358031092120220913C
:1010F0005C0330915D0381E0232BE9F080E01BC0AD
:1011000081E00ACF1092120280915E03882349F099
:1011100010925003109259031092580310925E03DC
:10112000EDCF80915C0390915D03892BE1F080917C
:101130004F0310924F0320915803309159032230EE
:10114000310509F45EC088F42115310509F448C061
:101150002130310509F4F3C01092500310924F036F
:1011600010925E0338C081E0E6CF2330310509F4E8
:10117000B1C02430310581F740914B0350914C03AD
:1011800060914D0370914E03411551056105710544
:1011900061F0415051096109710940934B0350932B
:1011A0004C0360934D0370934E0340914B03509159
:1011B0004C0360914D0370914E03452B462B472BFA
:1011C000D9F420915A0330915B032130310509F0A5
:1011D00046C01092500310925903109258030CC04D
:1011E00080911202882341F082E090E090935903AD
:1011F0008093580310921202109249038091500379
:10120000CEC08823C9F38091610390916203A091BD
:101210006303B0916403181619061A061B060CF036
:101220007DC080915C0390915D03019709F076C0C9
:101230008091610390916203A0916303B091640374
:1012400080934B0390934C03A0934D03B0934E03B4
:1012500083E090E09093590380935803CDCF409161
:101260006503509166036091670370916803452B95
:10127000462B472BA9F01092500380916503909163
:101280006603A0916703B091680380934B0390932A
:101290004C03A0934D03B0934E0381E090E0DACF6E
:1012A000882399F08091130290911402A091150265
:1012B000B091160280934B0390934C03A0934D037F
:1012C000B0934E0384E090E0C5CF1092500382E0CB
:1012D00090E0C0CF80914B0390914C03A0914D03BF
:1012E000B0914E030097A105B10559F00197A109EE
:1012F000B10980934B0390934C03A0934D03B0939B
:101300004E0380914B0390914C03A0914D03B091FB
:101310004E03892B8A2B8B2B09F06ECF8091130201
:1013200090911402A0911502B0911602892B8A2B7C
:101330008B2B09F44ECF81E080935003B3CF4091C3
:101340004B0350914C0360914D0370914E03411536
:1013500051056105710561F041505109610971093B
:1013600040934B0350934C0360934D0370934E0393
:1013700040914B0350914C0360914D0370914E038B
:10138000452B462B472B09F037CF8111C7CF9FCF75
:1013900080914903882309F431CF80914A03CF918A
:1013A0001F910F91FF90EF90DF90CF9008951092D2
:1013B0005403109255031092560310925703109243
:1013C0005303109259031092580310925203109233
:1013D00051031092730310927203109250031092F3
:1013E0004F0310924B0310924C0310924D03109236
:1013F0004E0310924A031092490310926E0310920A
:101400006F03109270031092710310926D0310928B
:10141000690310926A0310926B0310926C0388EEBA
:1014200093E0A0E0B0E08093130290931402A093A5
:101430001502B09316021092650310926603109283
:101440006703109268031092610310926203109276
:101450006303109264031092600310925F0381E0B3
:101460008093120210925E0310925D0310925C034F
:1014700010925B0310925A0390E080E008958091EF
:101480005C0390915D03892B19F5809112028823EA
:1014900051F080915E03811106C081E080934A0380
:1014A00080934903089520915E033091120281E0F8
:1014B00090E0332311F090E080E030E0822393232A
:1014C000892B21F010924A0381E0EACF1092490360
:1014D000089582E090E0FA01918380838FEF9FEF7F
:1014E0000895CF93DF93EA01009711F00E94021D47
:1014F0001982188290E080E0DF91CF910895DB019E
:10150000009719F48FEF8C9308952EEF2C93FC0124
:101510003F96EF30F10508F034C08827ED56F54FBF
:101520008F4F0C94512BBF0ABD0ABB0AB90AB70AE8
:10153000B30AB50AB10AAF0AAD0AAA0AA60AA20AF4
:10154000A80AC10A80E311968C93089589E2FBCF23
:1015500082E2F9CF11961C92089583E2F4CF81E2E2
:10156000F2CF81E1F0CF87E2EECF8AE2ECCF80E1EB
:10157000EACF84E2E8CF88E2E6CF86E2E4CF81E3F7
:10158000E2CF80E2E0CF80918003909181030895C3
:101590009093810380938003089580917F03089541
:1015A00090917F03892B80937F030895982F9095C6
:1015B00080917F03892380937F03089580917E0328
:1015C000089580917C0390917D03089561157105C4
:1015D00059F0FB0130E020E070E060E024173507AF
:1015E00019F06115710511F0CB010895A081B18149
:1015F000A817B90709F4BF012F5F3F4F3696EECF0A
:101600008091820381111CC060D266D290937503D1
:10161000809374030E9400150E9412159093790321
:10162000809378030E948F190E94961990937703F4
:101630008093760381E08093820390E080E00895B8
:1016400084EF9FEF08958F929F92AF92BF92CF92B7
:10165000DF92EF92FF920F931F93CF93DF9300D00F
:1016600000D000D01F92CDB7DEB71A861986188633
:101670001F821E821D821C821B821A821982809107
:10168000820307EF1FEF882309F49CC08E010D5FD2
:101690001F4F9E012B5F3F4FAE01495F5F4FBE0161
:1016A000675F7F4F90E080E00E94131B8C010097E2
:1016B00021F00596029708F0DBC029853A852115AF
:1016C000310509F402C1ED80FE804B815C81B701D8
:1016D000640F751F8F8198858617970708F4F5C0EA
:1016E000E20EF31ED7019C91903C09F07FC042307E
:1016F000510508F47BC011968C9140918003509164
:101700008103452B09F49CC0913F08F071C02CE186
:10171000290F2D3008F48BC02DE2290F203108F459
:1017200089C0903C21F48150823008F483C088E362
:10173000890F8B3008F481C09FE7C92E9AE0D92E1B
:10174000E9E6FAE06D817E81AE014F5F5F4F8985EA
:101750009A8519955C01C114D104A1F189809A8000
:101760008114910479F18B819C818815990508F485
:1017700087C010E000E04B815C8170E060E0C70151
:101780000E947B2B01151105E9F449815A81698575
:101790007A858D819E81680F791FC501F6011995A3
:1017A000E980FA800D811E812F81388549855A850F
:1017B0006FEF7FEF81E090E00E94AE1A8C01892BE1
:1017C00009F056C0C8012A960FB6F894DEBF0FBEC6
:1017D000CDBFDF91CF911F910F91FF90EF90DF90E0
:1017E000CF90BF90AF909F908F90089580E085CF6D
:1017F00030E020E0220F331FF901EC58FC4F01903C
:10180000F081E02D309709F497CF892F90E019955A
:10181000009709F491CFDC011296ED91FC9113979A
:101820001496CD90DC90309709F08CCF1FC021E04A
:1018300030E0E0CF22E030E0DDCF23E030E0DACF6F
:10184000D12CC12CE1E7FAE09F3F09F07BCFE0917A
:101850007403F0917503309721F4C90104EF1FEF71
:101860000CC08FEF90E019950097A9F604EF1FEFD9
:1018700089859A85009709F4A5CF0E94021DA2CF01
:101880000E94DD1B8C0189859A850E94021D70E0F3
:1018900060E0C4010E94761B98878F830E94AB1A78
:1018A0009E838D836F8178856115710559F0C8011C
:1018B0000E948E1E9A87898706EF1FEF892B09F0F9
:1018C00058CF59CF08EF1FEF56CF08EF1FEFD0CFFB
:1018D00020918203222319F020E00C94171587EF42
:1018E0009FEF0895809180039091810308950E9455
:1018F0009B190E94F518F5D0E4E7F3E088E0DF01DA
:101900001D928A95E9F71092820390E080E0089595
:101910000C94531721E040E050E0BA010C941715E5
:1019200086E090E0FA019183808390E080E0089562
:1019300047E050E06BE372E049CEDF92EF92FF9216
:101940000F931F93CF93DF938A01EC01C60FD71F2C
:10195000E0908603F0908703D9800E94C51BD816BB
:10196000190678F082E090E0F801918380838EEF91
:101970009FEFDF91CF911F910F91FF90EF90DF903C
:101980000895EF2841F482E090E0F801918380838C
:1019900084EF9FEFEECF89818093850390E00196DD
:1019A000F8019183808390E080E0E3CFCF93DF93D1
:1019B000EA010E940418882321F00E94D21B0E9491
:1019C000051882E090E0998388838BEF9FEFDF9189
:1019D000CF910895CF93DF93EB0186E0FB01119245
:1019E0008A95E9F78FEF8883D8DD8983E7DD8A83DD
:1019F000E8DD9D838C83DF91CF910895CF93DF93B2
:101A0000EA010E940718811109C082E090E09983E1
:101A1000888385EF9FEFDF91CF91089590E080E07C
:101A2000B7DD81E090E09983888390E080E0F3CF98
:101A30000F931F93CF93DF93EA018C01060F171FBB
:101A40000E94071881110BC082E090E0998388837F
:101A500085EF9FEFDF91CF911F910F910895F801CE
:101A60008181823038F082E090E0998388838EEF24
:101A70009FEFF0CF81E090E08BDD88E090E09983EC
:101A8000888390E080E0E6CFCF93DF930097D1F496
:101A9000EB01FB01329686E0DF011D928A95E9F7A2
:101AA0008FEF888385E089831A820E94C51B8B8310
:101AB0000E94C41B9D838C8381E08E838F83DF9182
:101AC000CF910895DF91CF911ACD88E99CE0909352
:101AD000840380938303089580918303909184030A
:101AE00008951092840310928303089580918603D1
:101AF000909187030895411105C061157105810515
:101B0000910561F060938603709387038093880347
:101B10009093890340938A0381E0089580E00895BB
:101B2000FF920F931F93CF93DF938A01EC01C60FAF
:101B3000D71FF9800E94C51BF816190668F082E0CD
:101B400090E0F801918380838EEF9FEFDF91CF913A
:101B50001F910F91FF9008956C817D818E819F81EF
:101B60004B81C9DF811108C082E090E0F8019183C8
:101B7000808384EF9FEFEACF89818093850390E093
:101B80000196F8019183808390E080E0DFCFCF93CE
:101B9000DF93EA01FC01E60FF71F648175818681FE
:101BA00097814381A8DF811109C082E090E0998389
:101BB000888384EF9FEFDF91CF91089581E090E0DB
:101BC0009983888390E080E0F6CFE6E8F3E04081F7
:101BD000518162817381480F511D611D711D4083C8
:101BE0005183628373830895CF93C09185034C2FF3
:101BF00050E0609186037091870301960E94722BDA
:101C00008C2FE3DF10928503CF910895009799F40C
:101C100080918603909187032FEFFB012083892B0E
:101C200059F02091850330E02F5F3F4F241735078F
:101C300019F4CB01D9CF63CC0895009799F4809122
:101C40008603909187032FEFFB012083892B59F0A6
:101C50002091850330E02F5F3F4F2417350719F49B
:101C6000CB01C2CF4CCC089523E1AC01249FC0012D
:101C7000259F900D1124E0918F03F0919003E80FC0
:101C8000F91F238134812250310981E0223031054E
:101C900008F080E008950F931F93CF93DF93009196
:101CA000910310919203D0E0C0E080E00C171D0773
:101CB00049F491E0811190E0892FDF91CF911F913C
:101CC0000F9108958111F5CFCE01CEDF2196EECF91
:101CD000A0918F03B0919003109729F12091910367
:101CE0003091920382179307F0F453E1589F9001CB
:101CF000599F300D1124A20FB31FED91FC91119744
:101D0000309789F012968C91681768F48DE0689F7F
:101D1000E00DF11D112480819181892B21F081E05A
:101D20009281491708F080E008959C0143E1429FA9
:101D3000C001439F900D1124E0918F03F091900317
:101D4000E80FF91F8385823091F481E090E065818E
:101D5000768140911702509118026417750711F4AB
:101D600090E080E0892B19F081E0232B09F080E0DE
:101D70000895FC01A081B1818DE0689FA00DB11D87
:101D8000112413964D915C9185859685489F90010D
:101D9000499F300D589F300D1124C90101966111E2
:101DA00003C0478144FD04960895EF92FF920F937C
:101DB0001F93CF93DF93EA01FC01E60FF71F028127
:101DC0001381E480F5804F2D6E2DC80181DF8111D4
:101DD0000DC082E090E0998388838EEF9FEFDF91C2
:101DE000CF911F910F91FF90EF900895C8013CDFB4
:101DF000882339F082E090E09983888388EF9FEF11
:101E0000EECF10931E0200931D02E0921F02F0928B
:101E1000200281E090E09983888390E080E0DFCF2A
:101E2000CF92DF92EF92FF920F931F93CF93DF93A6
:101E30007A01EC01C60FD71FC0901D02D0901E0280
:101E400000911F0210912002412F602FC60140DF38
:101E5000811110C082E090E0F701918380838AEFC6
:101E60009FEFDF91CF911F910F91FF90EF90DF9047
:101E7000CF900895C601F8DE882341F082E090E01B
:101E8000F7019183808388EF9FEFEBCF4C815D81D9
:101E90006E817F819A8189818F3F41F082E090E05D
:101EA000F701918380838EEF9FEFDBCFE3E1EC9D21
:101EB0009001ED9D300D1124E0918F03F09190037E
:101EC000E20FF31F0190F081E02D2DE0029FE00D65
:101ED000F11D11240190F081E02D27E0129FE00D0B
:101EE000F11D1124808391838B81828343835483EA
:101EF000658376831F5F1093200281E090E0F701F5
:101F00009183808390E080E0ACCFEF92FF920F93BB
:101F10001F93CF93DF937A018C01060F171FC09197
:101F20008F03D0919003209781F021E030E0F801F9
:101F30008281938140919103509192038417950778
:101F400010F030E020E0232B71F482E090E0F70104
:101F5000918380838EEF9FEFDF91CF911F910F913F
:101F6000FF90EF90089543E1489F9001499F300D05
:101F70001124C20FD31F78DE882341F082E090E065
:101F8000F7019183808388EF9FEFE6CFF8012481EA
:101F9000358120383105C8F687818111D6CF41813E
:101FA000842F90E08F7E009741F082E090E0F7016F
:101FB0009183808386EF9FEFCFCF4F833E832D8326
:101FC000268128871986223010F421E0288721E015
:101FD00030E0F70131832083BFCF88E090E0FA0141
:101FE0009183808390E080E00895FB018FEF8083F0
:101FF00081E181838FEF9FEF9383828380E890E07C
:1020000095838483168217820895FB018FEF808366
:1020100091E0918382839383848384E3858381E049
:1020200090E0978386830895DF92EF92FF920F935B
:102030001F93CF93DF93EA01FC01E60FF71F818125
:10204000813071F082E090E0998388838FEF9FEF79
:10205000DF91CF911F910F91FF90EF90DF90089546
:1020600082819381D4802581E680F78000918F035F
:10207000109190030115110539F482E090E09983E5
:1020800088838CEF9FEFE4CF4091910350919203AE
:102090008417950738F082E090E0998388838EEF6B
:1020A0009FEFD6CF892B39F082E090E09983888327
:1020B00086EF9FEFCDCF8D2D8D7FB1F72130A1F72A
:1020C00081E0D11006C091E0E916F10431F080E022
:1020D00004C0E2E0EE16F104D0F3882329F390E087
:1020E00080E0C2DD882339F082E090E09983888324
:1020F00088EF9FEFADCFF801D38681E08487F68625
:10210000E586108A178681E090E09983888390E0C5
:1021100080E09ECF4CE050E065E672E057CA8F92B7
:102120009F92BF92CF92DF92EF92FF920F931F93F5
:10213000CF93DF93EA01FC01E60FF71F82819381C1
:102140000481B580E0918F03F0919003309791F472
:1021500082E090E0998388838CEF9FEFDF91CF91AD
:102160001F910F91FF90EF90DF90CF90BF909F90C5
:102170008F900895209191033091920382179307D5
:1021800038F082E090E0998388838EEF9FEFE6CF6E
:1021900023E1289F6001299FD00C1124EC0DFD1D27
:1021A000E080F180E114F10499F28281081748F788
:1021B0008DE0089F80011124E00EF11EF70180815F
:1021C0009181892B29F6BB20E1F2F7E0BF9E400107
:1021D0001124C4010E94C91CF70191838083E091FE
:1021E0008F03F0919003EC0DFD1D0190F081E02D27
:1021F000E00FF11F80819181009739F482E090E037
:10220000998388838DEF9FEFA9CFA40170E060E0F0
:102210000E947B2B80918F0390919003C80ED91E52
:10222000F60180819181080F191FF801B28281E0C7
:1022300090E09983888390E080E090CFAF92BF9246
:10224000CF92DF92FF920F931F93CF93DF93EA0118
:10225000FC01E60FF71F82819381F48000918F03C8
:10226000109190030115110581F482E090E09983AB
:1022700088838CEF9FEFDF91CF911F910F91FF909B
:10228000DF90CF90BF90AF9008952091910330914F
:1022900092038217930738F082E090E09983888355
:1022A0008EEF9FEFE8CF2FEF2F0D2C3FA8F723E104
:1022B000289F6001299FD00C11240C0D1D1DF801D1
:1022C00080819181892B89F6FDE0FF9E50011124C8
:1022D000C5010E94C91CF80191838083E0918F039E
:1022E000F0919003EC0DFD1D80819181009739F4F0
:1022F00082E090E0998388838DEF9FEFBCCFA501AA
:1023000070E060E00E947B2BE0918F03F0919003DE
:10231000EC0DFD1DF28281E090E09983888390E0CE
:1023200080E0A9CFCF92DF92EF92FF920F931F939D
:10233000CF93DF93860F971FFC0102811381809159
:102340008F0390919003892B81F082E090E0FA0155
:10235000918380838CEF9FEFDF91CF911F910F913D
:10236000FF90EF90DF90CF900895C801B0E0A0E01B
:102370000197A109B1098F3F9F4FA105B10540F019
:1023800082E090E0FA01918380838EEF9FEFE4CFAB
:102390007A0183E1809F6001819FD00C1124C601E6
:1023A0000E94C91CEC01009741F482E090E0F70123
:1023B000918380838DEF9FEFCFCFA60170E060E027
:1023C0000E947B2BD0939003C0938F0310939203B2
:1023D0000093910390E080E02FEF3FEF41E061E058
:1023E00070E08017910741F481E090E0F70191835C
:1023F000808390E080E0B0CF3A8B298B1B864C879E
:102400007E876D87188A1F8601966396EACFEF92C2
:10241000FF921F93CF93DF93EC0110E0F12CE12C9E
:102420006A811617B0F083E0689FB0011124AE01F5
:102430004F5E5F4FC7010E942E1D009721F02FEFC6
:102440003FEF3A8B298BDF91CF911F91FF90EF9057
:102450000895612FCE018DDC61E070E00E94761B53
:10246000E816F90608F47C011F5FDACFF894209192
:102470008D0330918E0381E02115310509F080E054
:10248000232B09F0789408952F923F924F925F92F8
:102490006F927F928F929F92AF92BF92CF92DF9274
:1024A000EF92FF920F931F93CF93DF933C01660E41
:1024B000771EF301828193814C01B12CA12CC09134
:1024C0008F03D0919003209769F021E030E0609174
:1024D0009103709192038617970710F030E020E087
:1024E000232BD1F482E090E0FA01918380838EEF78
:1024F0009FEFDF91CF911F910F91FF90EF90DF90B1
:10250000CF90BF90AF909F908F907F906F905F9093
:102510004F903F902F900895809221029092220236
:10252000A0922302B092240263E1689F9001699F08
:10253000300D1124C20FD31FF3018181833040F08D
:1025400082E090E0FA019183808386EF9FEFD1CF04
:102550002A012B813C81232BF1F4288139819F8131
:1025600091FF2EC0232B09F46FC0209194039A8110
:10257000422F490F5527551FBA0141E050E06138FD
:10258000710514F050E040E0452B09F45DC02A8746
:10259000920F909394038150823008F481C066DFDB
:1025A000882309F4D8C0F3018181813009F48DC0FA
:1025B00008F47BC0823009F4C6C090E080E0ADC072
:1025C000232B09F441C0209193039A81E22FE90F54
:1025D000FF27FF1F41E050E0ED3FF10514F050E010
:1025E00040E0452B89F12A87920F90939303D3CF34
:1025F000A081B181A20FB31F11966C91060F111D1E
:102600000196295F3F4F8417950794F38D859E852A
:10261000089F1001099F300C189F300C1124C11421
:10262000D104D1F48F8184FF17C00E94C41BF5E050
:102630002F0E311C21E08215930508F420E0A7013C
:10264000435F5F4F21110EC082E090E0F201918361
:10265000808387EF9FEF4DCF0E94C41B2FEF221A7C
:10266000320AE8CF88819981E80EF91EF7011483B8
:102670000383FFEFCF1ADF0A7A018A818C151D04CC
:1026800009F00CF48CCFE881F981EE0DFF1D428139
:1026900050E030E020E010E000E090E080E0B3CFD8
:1026A000F12CE12CD12CC12CE8CF81E090E09C836F
:1026B0008B83F1DA882309F480CF81E090E00E94D7
:1026C000C80A80E40E94D60A78CF89899A8901963F
:1026D00061F083E090E09C838B8382E090E00E9435
:1026E000C80A80E40E94D00A68CF8D819E81209123
:1026F00017023091180282179307D1F460911B02E0
:1027000070911C02AE014F5E5F4F80911902909153
:102710001A020E944D1E0097E1F2789422E030E008
:10272000F20131832083892B99F08DEF9FEFE1CE69
:1027300089288A288B2869F6892B59F6CE0167DE0D
:10274000188A1F86E8CF82E090E09C838B8335CF88
:1027500090E080E0CECE82E090E0F2019183808331
:1027600085EF9FEFC6CE8F929F92AF92BF92CF928E
:10277000DF92EF92FF920F931F93CF93DF93EA01C3
:102780008C01060F171FF8018181833098F082E0D9
:1027900090E09983888386EF9FEFDF91CF911F911F
:1027A0000F91FF90EF90DF90CF90BF90AF909F90F0
:1027B0008F90089580918F0390919003892B61F001
:1027C00081E090E02091910330919203232B11F44A
:1027D00090E080E0892B39F482E090E0998388834F
:1027E0008EEF9FEFDACF42DE882309F4DFC0F801D5
:1027F0008181813009F495C0E8F0823099F420910C
:10280000910330919203E0918F03F091900390E057
:1028100080E041E050E02817390709F0BDC03BDAFD
:10282000811117C0789481E090E09983888390E0CB
:1028300080E0B3CF2091910330919203E0918F0318
:10284000F091900390E080E041E050E028173907D4
:1028500041F481E090E00E94C80A80E40E94D60A18
:10286000E1CF63817481672B11F054834383019618
:102870007396ECCFE0918F03F0919003E00FF11F7E
:102880002381348122303105D9F4218932892F3FC7
:102890003F4FB1F4258136814091170250911802C3
:1028A0002417350761F5AF014F5E5F4F60911B0242
:1028B00070911C028091190290911A020E944D1E83
:1028C000EFEFCE1ADE0AEE0AFE0A0D5E1F4F4091B0
:1028D00091035091920370E060E0C416D506E606BD
:1028E000F7063CF5009731F27894892B09F49BCFD9
:1028F00082E090E0998388838DEF9FEF4ECFC114E3
:10290000D104E104F104E1F6232BD1F6CF017FDD00
:10291000E0918F03F0919003E00FF11F108A17866A
:10292000CFCF10E000E090E080E0C12CD12C760108
:10293000CECF0097C9F610E000E0812C912C540115
:1029400083E0E82EF12C1AC0E0918F03F091900300
:10295000E00FF11F83819481029749F4F482E382AE
:1029600082E090E00E94C80A80E40E94D00AFFEF53
:102970008F1A9F0AAF0ABF0A0D5E1F4F8091910305
:1029800090919203B0E0A0E088169906AA06BB06D3
:10299000DCF290E080E0A8CF638174816230710541
:1029A00011F4548343830196739635CF82E090E00F
:1029B0009983888385EF9FEFF0CE0097B9F48FEF6E
:1029C000FB018083209121023091220243E1429F4A
:1029D000C001439F900D1124E0918F03F09190036B
:1029E000E80FF91F8285FB01818308950C947F0A0B
:1029F00088E090E0FA019183808390E080E0089580
:102A000010928E0310928D03EFE8F3E086E0DF0171
:102A10001D928A95E9F78AE890E190938C03809360
:102A20008B03089580918B0390918C0308952F92CE
:102A30003F924F925F926F927F928F929F92AF924E
:102A4000BF92CF92DF92EF92FF920F931F93CF939B
:102A5000DF93CDB7DEB72F970FB6F894DEBF0FBE6A
:102A6000CDBFF894E0918D03F0918E033196F093F1
:102A70008E03E0938D03789440908F0350909003E1
:102A80004114510409F40CC2E0919103F0919203B6
:102A9000EF2B09F405C22D8749875A876B877C87FE
:102AA00098878F831201B12CA12C10E000E0809157
:102AB000910390919203A816B90618F40115110517
:102AC00029F1F89480918D0390918E030197909352
:102AD0008E0380938D037894C8012F960FB6F894D7
:102AE000DEBF0FBECDBFDF91CF911F910F91FF9041
:102AF000EF90DF90CF90BF90AF909F908F907F909E
:102B00006F905F904F903F902F9008957101E4185F
:102B1000F508D10117968C91179781FD54C0139633
:102B20008D919C911497039709F04DC015968D9146
:102B30009C91EF81F8858E179F0709F044C0B5017D
:102B400090E080E07FD48A8320918F0330919003BE
:102B50003D832C833D85332309F44CC04C815D813A
:102B6000452B09F49AC18091910390919203A81684
:102B7000B90608F092C1C501D8D88823E9F06C8164
:102B80007D816E0D7F1D7D836C83DB011F968D9192
:102B90009C91892B89F0D12CC12CF12CE12CAC819A
:102BA000BD8112968C9112978E151F0409F094F432
:102BB00050961C921E921F972A81222321F0B50164
:102BC00090E080E041D43FEFA31AB30A43E1240E22
:102BD000311C6DCFAC81BD81ED91FC91EC0DFD1DE3
:102BE000858196810FD7BFEFEB1AFB0AEDE0CE0E81
:102BF000D11CD5CFEC81FD81309709F44EC1809175
:102C0000910390919203A816B90608F046C1EE0D03
:102C1000FF1DFF87EE87C50188D88B83882339F194
:102C2000AE85BF851F968D919C915097019621E0AE
:102C30001D964D915C918417950709F020E02E8335
:102C40001982712C10E000E0AE85BF8512968C9140
:102C5000781608F45DC0EE85FF858785908901961A
:102C6000658576850E941B2B908B8787A5CFB1E069
:102C7000BE83E6CF992493946BC08BD6F6019683DE
:102C8000858382C0D601ED90FC90B7E06B9EE00C8E
:102C9000F11C1124F7016381748180818F3F61F100
:102CA00021E030E002C0220F331F8A95E2F7C9010C
:102CB000092E000CAA0BBB0BFB01408151816281E4
:102CC000738184239523A623B72321E0892B8A2BA4
:102CD0008B2B09F420E0D4012C93D70111968C9111
:102CE000F60123853485820F932F911D880E991E3E
:102CF0001486138663949BC0418150E0C4010E94F6
:102D0000722BEBCF998206EF1FEFC5C01982C3C0AB
:102D1000F981F111A0CFEDE07E9E70011124AE8506
:102D2000BF85CD90DC90CE0CDF1C15D49D838C83A9
:102D3000BB81BB2309F49ECF81E0EE85FF8527850B
:102D40003089232B09F080E0982E882309F458C09D
:102D5000672D8E859F850DD8D60118969C938E93EE
:102D6000179761E070E0C2D4EE85FF852189328932
:102D70002F3F320709F481CFBC01C901CFD7D6015B
:102D800016969C938E931597D60115968D919C91CE
:102D90001697009709F4B6CFEC81FD818E0F9F1F27
:102DA0001A969C938E931997AE85BF85ED91FC91F1
:102DB0001197EE0EFF1EF7012185328514861386CA
:102DC0001A968C91870DD9018D93711016C0EE85DE
:102DD000FF85878184FF11C049855A856B857C8575
:102DE000F9014183528363837483F701838594855A
:102DF0000496A80FB91F14861386F701B287A1871E
:102E0000D60115968D919C911697892B09F443C094
:102E1000EE85FF85258136818091170290911802F9
:102E20002817390779F019968D909C90612CD6015E
:102E300012968C911297681608F424CF1A969C92D9
:102E40008E921997BE81BB2309F460CF61E070E0D8
:102E5000F601878190854AD4D6011796ED90FC90B3
:102E6000189715964D915C91E1E0F0E0BA81BB2393
:102E700011F0F0E0E0E00C811D819C01B501882794
:102E800099278E1B9F0B6AD38C01892B21F0F601A9
:102E900085819681B7D57394D7CE0FEF1FEF8CCE77
:102EA00010E000E00ECE2F923F924F925F926F9211
:102EB0007F928F929F92AF92BF92CF92DF92EF92CA
:102EC000FF920F931F93CF93DF9380918F03909185
:102ED000900310E000E0892BA9F0C8DA0AEF1FEF99
:102EE000882381F02090910330909203C0918F034A
:102EF000D0919003D12CC12C10E000E02C143D04A3
:102F0000A9F47894C801DF91CF911F910F91FF90A0
:102F1000EF90DF90CF90BF90AF909F908F907F9079
:102F20006F905F904F903F902F900895C6010E9440
:102F3000950E882309F18B819C810397E9F48F8595
:102F40009889892BC9F0B60190E080E07BD221E01E
:102F500030E0882311F030E020E044245524421A68
:102F6000530AB12CA12C912C812C8A81881519042B
:102F700009F038F4188A1F864FEFC41AD40A6396F2
:102F8000BDCFE881F981EA0DFB1D85819681892BF2
:102F9000A1F161E070E087819085A8D33C01DBD28C
:102FA0008C01E881F981EA0DFB1D818592852581DF
:102FB0003681200F311FAC01421B530B9A01478110
:102FC0005085421B530B70E060E00E947B2BE88130
:102FD000F981EA0DFB1DE780F0844581568193015C
:102FE000B601C201BBD28C01892B39F0E881F9818D
:102FF000EA0DFB1D8581968105D55FEF851A950A3F
:103000008DE0A80EB11CB1CF31CA789408952F92EB
:103010003F924F925F926F927F929F92AF92BF9238
:10302000CF92DF92EF92FF920F931F93CF93DF9394
:1030300000D000D0CDB7DEB700918F031091900380
:10304000992493940115110509F43EC0A0909103B1
:10305000B09092030BDA982E8823B1F1109290036E
:1030600010928F0310929203109291031092930387
:10307000109294038FEF9FEFDC01809321029093D5
:103080002202A0932302B093240278947FD31E835C
:103090000D83C12CD12C7601C501B0E0A0E089835D
:1030A0009A83AB83BC8322242A94322C89819A810F
:1030B000AB81BC81C816D906EA06FB06F4F0C8014C
:1030C000A1D480E40E94D60A892D26960FB6F894E2
:1030D000DEBF0FBECDBFDF91CF911F910F91FF904B
:1030E000EF90DF90CF90BF90AF909F907F906F90C8
:1030F0005F904F903F902F900895AD81BE811596BF
:103100008D919C9116972091170230911802821789
:103110009307D1F451968D919C91EED5ED81FE816E
:1031200080819181B12CA12C412C512C3201892B11
:1031300089F5BFEFCB1ADB0AEB0AFB0AED81FE81B2
:103140007396FE83ED83B2CFC114D104E104F10480
:1031500029F7892B19F7ED81FE81818992898F3FAB
:10316000980709F029D5AD81BE8152963C922E92E6
:103170005197D4CF8A0D9B1DDC018D919C910097B6
:1031800009F040D4BFEF4B1A5B0A6B0A7B0AEDE0F3
:10319000AE0EB11CAD81BE818D919C91119712969E
:1031A0004C9150E070E060E04416550666067706E4
:1031B0000CF328D4BECFCF93DF93EA0128DF81112F
:1031C00009C082E090E09983888385EF9FEFDF91CB
:1031D000CF91089581E090E00E94C80A81E090E0DC
:1031E0009983888390E080E0F2CF11DF10928C0306
:1031F00010928B03089542E050E06DEA72E00C9467
:10320000E60AFF920F931F93CF93DF938A01EC019D
:10321000C60FD71FF980B9D20897F816190671F0B2
:1032200068F082E090E0F801918380838EEF9FEF59
:10323000DF91CF911F910F91FF9008956C817D8157
:103240008E819F814B810E947B0D811108C082E09D
:1032500090E0F8019183808384EF9FEFE9CFF980BC
:103260000E94760D4F2D50E0BE01685F7F4F0E9497
:10327000722B89810E94E50D81E090E0F801918335
:10328000808390E080E0D4CFDF92EF92FF920F93A3
:103290001F93CF93DF938A01EC01C60FD71F0E94C3
:1032A000760D7C01D98071D2DD2059F0029721E0A2
:1032B00030E0D816190619F010F030E020E0232B8A
:1032C00079F482E090E0F801918380838EEF9FEFA4
:1032D000DF91CF911F910F91FF90EF90DF900895B4
:1032E000EF2841F482E090E0F8019183808384EF3D
:1032F0009FEFEECFF9800E94760D4F2D50E0BE017A
:103300006E5F7F4F0E94722B89810E94E50D81E0E4
:1033100090E0F8019183808390E080E0D9CF8BEF3B
:1033200098E1909396038093950308958091950377
:103330009091960308950895FC0111821082938361
:1033400082830895DB011D921C92DC011296ED919F
:10335000FC9113977183608313967C936E931297FD
:103360000895FC0180819181DB018D939C93A08164
:10337000B181109741F08D919C9191838083892B2D
:1033800011F4F383E2830895FC0180819181DB01D4
:103390008D939C93892B11F4738362837183608373
:1033A0000895FC0111821082938382830895CF9344
:1033B000DF931F921F92CDB7DEB71A821982F8945D
:1033C000BE016F5F7F4F8CE993E0CBDF89819A81EB
:1033D000009709F017D389819A81892B89F7BE015B
:1033E0006F5F7F4F80EA93E0BCDF89819A8100970D
:1033F00009F008D389819A81892B89F778940F90F5
:103400000F90DF91CF910895CF93DF931F921F927A
:10341000CDB7DEB71A821982F894BE016F5F7F4F75
:1034200088E993E09EDF89819A81009709F0EAD2CA
:1034300089819A81892B89F778940F900F90DF9179
:10344000CF91089581E0089590E080E00895EF9293
:10345000FF920F931F93CF93DF931F921F92CDB7CD
:10346000DEB71A8219828091970307EF1FEF882336
:10347000A1F1F894BE016F5F7F4F80EA93E071DFA6
:10348000789489819A81EE24E394F12C892B51F46C
:10349000F894BE016F5F7F4F8CE993E062DF789410
:1034A000F12CE12C89819A810EEF1FEF0097A9F092
:1034B000FC014281538164E070E074D68C01892B59
:1034C00061F0F89469817A81C701880F991F880F8C
:1034D000991F84569C4F58DF7894C8010F900F9025
:1034E000DF91CF911F910F91FF90EF9008950F936F
:1034F0001F93CF93DF9300D01F92CDB7DEB71C820E
:103500001B821A8219828091970307EF1FEF88238D
:10351000C1F0AE014D5F5F4F64E070E0CE010196F7
:10352000B4D68C01892B69F4E981FA818B819C8165
:1035300093838283F89469817A8188E993E002DF3A
:103540007894C8010F900F900F900F90DF91CF915A
:103550001F910F910895B9D7049608958F929F9265
:10356000AF92BF92CF92DF92EF92FF920F931F9391
:10357000CF93DF931F921F92CDB7DEB71A821982C5
:10358000BC016F5F7F4F6330710598F0AA24AA9445
:10359000BA2CC5010F900F90DF91CF911F910F9121
:1035A000FF90EF90DF90CF90BF90AF909F908F9063
:1035B00008954115510551F3480159018A016C01E3
:1035C000CADF8815990511F7E114F104F9F28E0D9F
:1035D0009F1DA816B906D0F2809197038823F1F0B9
:1035E000F894B501645071099701AE014F5F5F4FC8
:1035F000C8010496DFD65C01892B71F489819A8118
:10360000F80193838283C601880F991F880F991F41
:10361000B80184569C4F96DE7894BBCF87EFA82ED6
:10362000BB24BA94B6CFAF92BF92CF92DF92EF9203
:10363000FF920F931F93CF93DF931F921F92CDB7EB
:10364000DEB71A821982892B09F047C0611571050E
:1036500009F443C04115510509F43FC02115310556
:1036600009F43BC001151105C1F18091970388232E
:10367000B9F179016A015B01F894BE016F5F7F4F78
:1036800088E993E06EDE789489819A81009759F1F8
:10369000DC0112966D917C91A8010496A4D68C0150
:1036A000E981FA81D501ED93FC938281938104969F
:1036B000F601918380834FDFD7018D939C93C801DE
:1036C0000F900F90DF91CF911F910F91FF90EF908E
:1036D000DF90CF90BF90AF9008950FEF1FEFEFCF27
:1036E00007EF1FEFECCF0EEF1FEFE9CFCF93DF9384
:1036F000EC01672B71F4F2D68C179D0760F0E5D6CC
:103700002496C80FD91FE4D68C0F9D1FDF91CF914F
:103710000895E1D6F1CF90E080E0F8CF0F931F93AA
:10372000CF93DF932091970321112BC08B01EC01E4
:103730008CE993E001DE80EA93E0FEDD88E993E026
:10374000FBDD97D00097C1F4C9D670E060E0CEDF12
:1037500045E252E062E070E081D1009769F4809127
:10376000250290912602CCD6B801CE0101D5009752
:1037700019F421E020939703DF91CF911F910F91CE
:10378000089584EF9FEFF8CFA6C6A8C6CF93DF9326
:10379000A8D6EC01892B11F40ADE36DECE01DF91CA
:1037A000CF910895CF93DF939CD6EC01892B09F438
:1037B000FEDDCE01DF91CF91089580912502909199
:1037C00026020895CF93DF9380919703D0E0C0E065
:1037D0008823D1F09AD6EC01892BB1F4E8DD14DE10
:1037E0008091250290912602E7D1E8D2EC01892B45
:1037F00059F48CE993E0D5DD80EA93E0D2DD88E9E5
:1038000093E0CFDD10929703CE01DF91CF91089521
:10381000EF92FF920F931F93CF93DF93EC017A0106
:103820008B010F5F1F4F0E9DA0010F9D500D1E9D20
:10383000500D112470E060E00E947B2B90E080E04E
:10384000F0E0E0E02FEFE816F90639F4DF91CF91D0
:103850001F910F91FF90EF9008951A82198228838B
:10386000309711F0D283C1830196FE01C00FD11FA2
:10387000EACFCF92DF92EF92FF920F931F93CF93F5
:10388000DF9309EA14E00C7F43E050E067E272E066
:103890008DE292E01AD487E2E82E82E0F82E9DE2D3
:1038A000C92E92E0D92EC0E1D5E0D7014D915D91AE
:1038B0007D01F601619171916F01198308835D8328
:1038C0004C835B834A837F836E839B012F5F3F4FD3
:1038D000249FC001259F900D349F900D112499873E
:1038E00088870115110511F0C80192DF8885998537
:1038F000080F191F2A96FDE2EF16F2E0FF06A9F65F
:10390000E6EAF3E080E091E0DF019C011D922150A6
:103910003040E1F71092A5031092A40310922F05F6
:1039200010922E0510923305109232051092310537
:10393000109230051092350510923405109237051B
:1039400010923605109239051092380510923D05F7
:1039500010923C0510923B0510923A0510923F05DB
:1039600010923E05109241051092400510920D05EF
:1039700010920C0510920F0510920E0590E080E059
:10398000DF91CF911F910F91FF90EF90DF90CF903B
:1039900008950097F1F0F894ADE2B2E0E0E1F5E0CF
:1039A00030E020E04D915D9148175907A8F0428121
:1039B00053814115510581F08AE0829FF001839F78
:1039C000F00D1124E05FFA4F80819181009759F446
:1039D000789490E080E008952F5F3F4F3A9623302F
:1039E000310501F7F5CFDC0111966D917C91718362
:1039F00060834150510953834283FC012193CF01DD
:103A000078940895009749F1DC018E91853041F456
:103A1000E0910E05F0910F053097F9F0CD01199462
:103A20008530D8F4282F30E0F8948FEF8C938AE01B
:103A3000829FF001839FF00D1124E05FFA4F808197
:103A4000918112969C938E931197B183A08382816A
:103A5000938101969383828378940895CF92DF9225
:103A6000EF92FF920F931F93CF93DF939C0189EA0C
:103A700093E08C7F4115510509F49BC02115310558
:103A800009F497C06115710509F493C07A01AB017F
:103A9000B9016D5F7F4F6C7F9B012F5F3F4F249F6C
:103AA0008001259F100D349F100D1124F894209152
:103AB0002E0530912F05232B59F420913605309196
:103AC00037052115310569F12017310708F058C075
:103AD0002091380530913905232B91F4209136053A
:103AE00030913705820F931F209140053091410599
:103AF0002115310509F441C02017310708F056C0DF
:103B00007894CFEFDFEF86EF9FEFF701D183C0838B
:103B1000DF91CF911F910F91FF90EF90DF90CF90A9
:103B20000895C3E0D0E0C090A403D090A5032DEF8A
:103B300030E02C193D092017310710F32AE02C9FA3
:103B4000F0012D9FF00D1124E05FFA4F91838083E7
:103B50005583448353834283778366831187008729
:103B6000009709F055DE0C0D1D1D1093A503009361
:103B7000A403789490E080E0C8CFC4E0D0E0D3CF35
:103B8000C3E0D0E02AE02C9FF0012D9FF00D11241E
:103B9000E05FFA4F9183808355834483538342834C
:103BA00077836683009729F333DEE3CFC4E0D0E068
:103BB000E9CF8FEF9FEFACCF9C010397029708F0FE
:103BC00069C0F89484E09AE0482F50E02417350744
:103BD0000CF44DC091E08AE0829FF001839FF00DCC
:103BE0001124E05FFA4F1182108215821482138231
:103BF0001282178216829923B1F180912E0590913D
:103C00002F05892BA9F42091360530913705211510
:103C1000310571F08091A4039091A503821B930B51
:103C20009093A5038093A403109237051092360554
:103C30008091380590913905892BA9F42091400590
:103C4000309141052115310571F08091A4039091C7
:103C5000A503821B930B9093A5038093A40310925A
:103C6000410510924005789490E080E00895949F7B
:103C7000F001959FF00D1124E05FFA4F40815181D2
:103C8000452B31F440855185452B11F481509CCF53
:103C900090E0A1CF8FEF9FEF08954115510549F1B5
:103CA000009739F16115710521F1F89420910C0507
:103CB00030910D05232BB9F420910E0530910F059D
:103CC000232B89F490930D0580930C0570930F05B9
:103CD00060930E05789425E030E090E080E0FA01F2
:103CE00031832083089578942FEF3FEF86EF9FEF85
:103CF000F6CF8FEF9FEF0895059769F4F89410922F
:103D00000D0510920C0510920F0510920E05789477
:103D100090E080E008958FEF9FEF089561157105A1
:103D200019F4F0E0E0E011C08530910581F4E091F4
:103D30000C05F0910D053097A1F3CB010196199573
:103D4000009779F3FC0185E08193CF0108959C01F0
:103D5000235031092230310520F72AE0289FD00175
:103D6000299FB00D1124A05FBA4F2D913C9111975E
:103D7000232BB9F216962D913C91179726173707EA
:103D800080F2F89412962D913C91139721153105EC
:103D900029F0ED91FC911197309711F47894C1CFEF
:103DA0004181528111965C934E93215031091396B3
:103DB0003C932E93129781937894C7CFE6EAF4E070
:103DC00086E6DF011D928A95E9F7E6EAF3E080E0F6
:103DD00091E0DF019C011D9221503040E1F71092EB
:103DE000A5031092A403E0E1F5E082E3DF011D9258
:103DF0008A95E9F7ECE0F5E084E0DF011D928A9511
:103E0000E9F790E080E00895CF93DF93C09133020B
:103E1000D0913402CF3FDC0759F420D49093340280
:103E20008093330297FF09C0D0933402C0933302CA
:103E300084EF9FEFDF91CF91089590E080E0FACF7B
:103E40008230910528F48093420590E080E0089547
:103E50008FEF9FEF08954F925F926F927F92AF9294
:103E6000BF92CF92DF92EF92FF920F931F93CF9367
:103E7000DF931F921F92CDB7DEB71A821982009787
:103E800009F478C06115710509F474C020913302FA
:103E90003091340207EF1FEF2F3F3F4F09F444C02A
:103EA0006B015C01412C512C3201F12CE12C10E012
:103EB00000E09E012F5F3F4FA6014E195F09B5013B
:103EC0006E0D7F1D809133029091340226D4892B90
:103ED00009F04AC089819A81009741F4E114F10404
:103EE00029F420914205222309F441C0E80EF91E6D
:103EF000EC14FD04C8F480E8481684E858068EE106
:103F00006806710418F560E070E0CB0106D72AE07E
:103F1000420E511C611C711C0A3F4FEF140721F027
:103F2000043F8FEF1807A1F4C8010F900F90DF91A5
:103F3000CF911F910F91FF90EF90DF90CF90BF90A6
:103F4000AF907F906F905F904F90089501EF1FEFBB
:103F500081E090E0013F2FEF120711F090E080E048
:103F6000892B09F4A6CFE0CF04EF1FEFDDCF0AEFD6
:103F70001FEFDACF0FEF1FEFD7CF4F925F926F9205
:103F80007F92AF92BF92CF92DF92EF92FF920F9308
:103F90001F93CF93DF931F921F92CDB7DEB71A8284
:103FA0001982009709F478C06115710509F474C08D
:103FB000209133023091340207EF1FEF2F3F3F4F24
:103FC00009F444C06B015C01412C512C3201F12CED
:103FD000E12C10E000E09E012F5F3F4FA6014E193B
:103FE0005F09B5016E0D7F1D8091330290913402FF
:103FF0004AD3892B09F04AC089819A81009741F4FC
:10400000E114F10429F420914205222309F441C06E
:10401000E80EF91EEC14FD04C8F480E4481682E4AE
:1040200058068FE06806710418F560E070E0CB0177
:1040300074D62AE0420E511C611C711C0E3F4FEFDA
:10404000140721F0043F8FEF1807A1F4C8010F9067
:104050000F90DF91CF911F910F91FF90EF90DF9024
:10406000CF90BF90AF907F906F905F904F900895EA
:1040700002EF1FEF81E090E0023F2FEF120711F0F7
:1040800090E080E0892B09F4A6CFE0CF04EF1FEF8A
:10409000DDCF0EEF1FEFDACF0FEF1FEFD7CF8091FD
:1040A0003302909134028F3F980749F0CFD2892B89
:1040B00049F48FEF9FEF909334028093330290E0A6
:1040C00080E0089584EF9FEF0895CF92DF92EF9202
:1040D000FF920F931F93CF93DF9321E0411551057A
:1040E00009F020E04150510921112CC0DC01FB01F5
:1040F000D12CC12C21E022C03FEFC31AD30A7D018D
:104100000D911D91E701EA80FB80E016F106A8F40D
:1041100020813181E280F380F182E0823383228347
:10412000ED90FC9011979D0122503109E901F9822F
:10413000E88211961C930E9320E03296C416D506A1
:10414000D8F2D2CFDF91CF911F910F91FF90EF90D6
:10415000DF90CF900895FC01680F791F90E080E018
:10416000E617F70709F408952191820F911DF8CF02
:1041700020914305211113C047DE009791F410925E
:104180004905109248051092470510924605109275
:1041900045051092440521E020934305089584EFDE
:1041A0009FEF0895AF92BF92CF92DF92EF92FF926E
:1041B0000F931F93CF93DF93009709F460C04630AD
:1041C000510508F45CC020914305C7EFDFEF2223BF
:1041D00009F449C08C01060F171FF801C080D18077
:1041E000C114D10409F44EC096012A5F3F4F421713
:1041F000530708F447C07C01809148059091490518
:1042000093838283B6016C5F7F4F5801A60EB71E61
:10421000C801A1DFF5019183808364E070E0C801EB
:104220001ADEEC01892BF9F481E090E009DEB60199
:10423000C801049610DEEC01892B91F462E070E075
:10424000C50109DEEC01892B59F4C701DBDB809144
:10425000480590914905019690934905809348053A
:1042600090E080E0EDDDCE01DF91CF911F910F91C5
:10427000FF90EF90DF90CF90BF90AF900895CFEF79
:10428000DFEFF1CFC9EFDFEFEECF6F927F928F922A
:104290009F92AF92BF92CF92DF92EF92FF920F93D5
:1042A0001F93CF93DF9300D01F92CDB7DEB7009757
:1042B00009F47AC04115510509F476C020914305EF
:1042C00007EF1FEF222309F44DC03A017B015C0187
:1042D00064E070E0CE01019650DE8C01892B09F07C
:1042E00041C009811A810115110509F45AC048011C
:1042F00086E0880E911CB701680D791D809135020A
:10430000909136020BDD6C01009709F450C0A701B3
:1043100070E060E00E947B2B89819A81AB81BC8137
:10432000EC0CFD1CF70181939193A193B1937F0154
:1043300081E090E085DDB801C7011FDE892B31F5F2
:1043400062E070E0C701800F911F17DE8C01892B9E
:10435000E9F490E080E074DDF501D182C082F301E0
:1043600091828082C8010F900F900F900F90DF9183
:10437000CF911F910F91FF90EF90DF90CF90BF9062
:10438000AF909F908F907F906F90089590E080E025
:1043900057DDF50111821082F30111821082C601EE
:1043A00031DB09EF1FEFDECF0FEF1FEFDBCF06EFA3
:1043B0001FEFD8CF0097A1F04115510589F02115C5
:1043C000310571F0F90136966E177F0748F0DC0170
:1043D0002D933C93DA01ED93FC9390E080E00895F7
:1043E0008FEF9FEF0895AF92BF92CF92DF92EF923F
:1043F000FF920F931F93CF93DF93009709F45FC051
:104400004115510509F45BC06530710508F457C0CA
:1044100020914305C7EFDFEF222391F1DC01CD901E
:10442000DC9011971296ED91FC9196012A5F3F4F17
:10443000C9EFDFEF2617370719F5C0914405D09172
:104440004505209749F521E030E03093450520935C
:1044500044057A018C01F0934705E0934605560127
:10446000B4E0AB0EB11CB50176DE0A0D1B1DF801E0
:10447000208131818217930729F5D701CD92DC92F3
:10448000CE01DF91CF911F910F91FF90EF90DF90C0
:10449000CF90BF90AF900895209146053091470589
:1044A0002F5F3F4FCCEFDFEFE217F30790F2CBEF38
:1044B000DFEF2E173F0768F2D0E0C0E0CACFCFEFA2
:1044C000DFEFDECFC3EFDFEFDBCF84E090E00895D6
:1044D00082E090E008958CEF9FEF089580E290E0F5
:1044E00008951092490510924805109247051092C0
:1044F0004605109245051092440590E080E008952D
:104500009093360280933502089580914305882365
:1045100091F0C5DD009789F4109249051092480585
:1045200010924705109246051092450510924405D9
:1045300010924305089590E080E00895009749F0B7
:104540006115710531F0FC0111821082FB011182AD
:1045500010820895F3CF26E030E040E855E260E0B5
:1045600070E090E080E000C08130910569F01CF4BB
:10457000892B39F008958230910549F0039751F065
:10458000089587E595E08AC584EF95E0FCCF81E941
:1045900096E0F9CF8EE297E0F6CF1F920F920FB61A
:1045A0000F9211240BB60F922F933F934F935F936B
:1045B0006F937F938F939F93AF93BF93EF93FF93EB
:1045C0008BEC93EF9093250180932401B9D0FF9158
:1045D000EF91BF91AF919F918F917F916F915F917B
:1045E0004F913F912F910F900BBE0F900FBE0F90E8
:1045F0001F9018958BEC93EF9093250180932401E5
:10460000A3E7B0E08C918E7F8C93E0E2F1E08081B3
:104610008C7F8083E1E2F1E08081877E80838081EE
:104620008560808380818D7F80838C9181608C9375
:104630000895E3E7F0E0808190819E7F9083817010
:10464000089581E0089510924A05089568EE73E098
:1046500080E090E062D390E080E0089526E030E0D2
:1046600040E050E16EE070E090E080E07DDF87E5C3
:1046700095E04AD4892B21F087E595E05FD4F7CF08
:1046800090E080E00895CF92DF92EF92FF920F9337
:104690001F93CF93DF936B017A01E901198218828E
:1046A00087E595E031D4892B69F18601CC24C39448
:1046B00082E0D82E80914A05811110C087E595E0EF
:1046C0003DD40297B9F7C0924A05F801D1928F0103
:1046D00088819981019699838883ECCF888199811B
:1046E0008E159F0578F487E595E028D48F3F9807CD
:1046F000A9F3F80181938F018881998101969983AB
:104700008883ECCF90E080E0DF91CF911F910F91F3
:10471000FF90EF90DF90CF9008950F931F93CF936A
:10472000DF93EA01890187E595E048D7F801D18355
:10473000C08390E080E0DF91CF911F910F910895A9
:10474000CF92DF92EF92FF92CF93DF9380914B0550
:1047500091E0980F90934B05882379F021E030E0A9
:1047600030934D0520934C0580934B05DF91CF91FD
:10477000FF90EF90DF90CF9008957894C091390228
:10478000D0913A026E8D7F8D88A199A13ED120E013
:1047900030E040E85FE4EFD16B017C016A8D7B8DF6
:1047A0008C8D9D8D32D19B01AC01C701B60199D092
:1047B00000D16B017C010E941303B701A60190E0B8
:1047C00080E00E948602F89480914B058150CCCF06
:1047D0000F931F93CF93DF931092DF071092DE07A2
:1047E000D2D2B9DEC0913902D0913A021982188230
:1047F0006FEF7FEFCB010E94080370E060E090E074
:1048000080E00E948B01009709F03AC00E94F003FB
:10481000F8947894BE016A5D7F4F8A819B810E94E3
:104820008E01892B59F46FEF7FEFCB010E941D029F
:104830000E940203882311F081E08AA7F894DADE4F
:104840000E940503882311F080E008C00E94020343
:104850008111FACF81E09AA59111F6CF8093DE07FE
:1048600078940E94C30A8C0178948091DE078111AC
:104870000CC00E947B040E94E802F89490E080E063
:10488000DF91CF911F910F9108950E94E6020E943F
:1048900005038823D9F081E08093DF079091DF073B
:1048A00081E0911180E08093DE078091DF07811124
:1048B000C0DE0130110529F40E94C30A892B09F4D6
:1048C000C2DE0E94C30A8C01BCDECFCF0E9402036D
:1048D0008111E1CF81E09AA59111DECF80E0DCCF9C
:1048E0005058BB27AA270ED008C1F9D030F0FED00F
:1048F00020F031F49F3F11F41EF4EEC00EF4E09569
:10490000E7FBE4C0E92F0AD180F3BA176207730707
:104910008407950718F071F49EF522C10EF4E09516
:104920000B2EBA2FA02D0B01B90190010C01CA0169
:10493000A0011124FF27591B99F0593F50F4503E14
:1049400068F11A16F040A22F232F342F4427585F06
:10495000F3CF469537952795A795F0405395C9F71E
:104960007EF41F16BA0B620B730B840BBAF09150D6
:10497000A1F0FF0FBB1F661F771F881FC2F70EC075
:10498000BA0F621F731F841F48F487957795679548
:10499000B795F7959E3F08F0B3CF9395880F08F031
:1049A0009927EE0F9795879508956CD008F481E0CC
:1049B0000895BCD088F09F5790F0B92F9927B75130
:1049C000A0F0D1F0660F771F881F991F1AF0BA95D3
:1049D000C9F712C0B13081F0C3D0B1E00895C0C0B2
:1049E000672F782F8827B85F39F0B93FCCF38695C9
:1049F00077956795B395D9F73EF490958095709526
:104A000061957F4F8F4F9F4F0895E89409C097FBA2
:104A10003EF490958095709561957F4F8F4F9F4F95
:104A20009923A9F0F92F96E9BB279395F6958795D9
:104A300077956795B795F111F8CFFAF4BB0F11F49C
:104A400060FF1BC06F5F7F4F8F4F9F4F16C0882343
:104A500011F096E911C0772321F09EE8872F762F79
:104A600005C0662371F096E8862F70E060E02AF0BA
:104A70009A95660F771F881FDAF7880F96958795A6
:104A800097F90895990F0008550FAA0BE0E8FEEF7B
:104A900016161706E807F907C0F012161306E40702
:104AA000F50798F0621B730B840B950B39F40A26FB
:104AB00061F0232B242B252B21F408950A2609F4D9
:104AC000A140A6958FEF811D811D089597F99F67DD
:104AD00080E870E060E008959FEF80EC0895002486
:104AE0000A941616170618060906089500240A9453
:104AF00012161306140605060895092E0394000CD9
:104B000011F4882352F0BB0F40F4BF2B11F460FF67
:104B100004C06F5F7F4F8F4F9F4F089557FD905890
:104B2000440F551F59F05F3F71F04795880F97FB71
:104B3000991F61F09F3F79F087950895121613062B
:104B40001406551FF2CF4695F1DF08C0161617065A
:104B50001806991FF1CF869571056105089408958F
:104B6000E894BB2766277727CB0197F908958ADF5A
:104B700008F48FEF08950BD0C0CFB1DF28F0B6DF77
:104B800018F0952309F0A2CFA7CF1124EACFC6DFF2
:104B9000A0F3959FD1F3950F50E0551F629FF00150
:104BA000729FBB27F00DB11D639FAA27F00DB11DA9
:104BB000AA1F649F6627B00DA11D661F829F222732
:104BC000B00DA11D621F739FB00DA11D621F839FB9
:104BD000A00D611D221F749F3327A00D611D231F8F
:104BE000849F600D211D822F762F6A2F11249F57DD
:104BF00050408AF0E1F088234AF0EE0FFF1FBB1F00
:104C0000661F771F881F91505040A9F79E3F51059E
:104C100070F05CCFA6CF5F3FECF3983EDCF3869557
:104C200077956795B795F795E7959F5FC1F7FE2B49
:104C3000880F911D9695879597F908951F920F9269
:104C40000FB60F9211242F933F938F939F93AF939F
:104C5000BF9380914F0590915005A0915105B0915F
:104C6000520530914E0523E0230F2D3758F501965C
:104C7000A11DB11D20934E0580934F0590935005C3
:104C8000A0935105B093520580915305909154051E
:104C9000A0915505B09156050196A11DB11D8093B7
:104CA000530590935405A0935505B0935605BF91B5
:104CB000AF919F918F913F912F910F900FBE0F90C9
:104CC0001F90189526E8230F0296A11DB11DD2CF83
:104CD0003FB7F8948091530590915405A0915505E4
:104CE000B091560526B5A89B05C02F3F19F0019637
:104CF000A11DB11D3FBFBA2FA92F982F8827BC0136
:104D0000CD01620F711D811D911D42E0660F771F5D
:104D1000881F991F4A95D1F708958F929F92AF925D
:104D2000BF92CF92DF92EF92FF926B017C01D0DFB6
:104D30004B015C01C114D104E104F104D9F06BD43E
:104D4000C7DF681979098A099B09683E73408105A4
:104D5000910580F321E0C21AD108E108F10888EE3C
:104D6000880E83E0981EA11CB11CC114D104E1047B
:104D7000F10431F7FF90EF90DF90CF90BF90AF90AC
:104D80009F908F900895789484B5826084BD84B597
:104D9000816084BD85B5826085BD85B5816085BD36
:104DA000EEE6F0E0808181608083E1E8F0E010824F
:104DB000808182608083808181608083E0E8F0E090
:104DC000808181608083E1EBF0E08081846080837A
:104DD000E0EBF0E0808181608083E1E9F0E08081B8
:104DE00082608083808181608083E0E9F0E080815F
:104DF00081608083E1EAF0E080818260808380814D
:104E000081608083E0EAF0E0808181608083E1E27C
:104E1000F1E0808182608083808181608083E0E234
:104E2000F1E0808181608083EAE7F0E08081846046
:104E300080838081826080838081816080838081A3
:104E4000806880831092C1000895863308F08653ED
:104E500020917B00982F9870277F922B90937B0056
:104E60002091370290E4299F900111248770822BB2
:104E700080937C0080917A00806480937A00809196
:104E80007A0086FDFCCF809178009091790008959A
:104E9000CF93DF9390E0FC01EC51FF4F2491865DAE
:104EA0009E4FFC0184918823C9F090E0880F991FE0
:104EB000FC01E657FE4FA591B491FC01E059FE4F6D
:104EC000C591D49161110DC09FB7F8948C91209534
:104ED00082238C938881282328839FBFDF91CF91E1
:104EE0000895623051F49FB7F8943C91822F8095D9
:104EF00083238C93E8812E2BEFCF8FB7F894EC911E
:104F00002E2B2C938FBFEACFFC01918D228D892F00
:104F100090E0805C9F4F821B91098F7399270895C1
:104F2000FC01918D828D981731F0828DE80FF11D73
:104F3000858D90E008958FEF9FEF0895FC01918D8E
:104F4000828D981761F0A28DAE0FBF2FB11D5D96B7
:104F50008C91928D9F5F9F73928F90E008958FEF59
:104F60009FEF0895FC01538D448D252F30E0842F51
:104F700090E0821B930B541710F0CF960895019781
:104F80000895FC01A48DA80FB92FB11DA35ABF4FDE
:104F90002C91848D90E001968F739927848FA68938
:104FA000B7892C93A089B1898C91837080648C938C
:104FB000938D848D981306C00288F389E02D80813B
:104FC0008F7D80830895CF93DF93EC01888D8823B4
:104FD000B1F0AA89BB89E889F9898C9185FD03C064
:104FE000808186FD0CC00FB607FCF7CF8C9185FF42
:104FF000F2CF808185FFEDCFCE01C3DFEACFDF9115
:10500000CF910895EF92FF920F931F93CF93DF9369
:10501000EC0181E0888F9B8D8C8D98131AC0E889F4
:10502000F989808185FF15C09FB7F894EE89FF89C3
:105030006083E889F98980818370806480839FBF61
:1050400081E090E0DF91CF911F910F91FF90EF9061
:105050000895F62E0B8D10E00F5F1F4F0F73112771
:10506000E02E8C8D8E110BC00FB607FCFACFE889AD
:10507000F989808185FFF5CFCE0183DFF2CFEB8DFB
:10508000EC0FFD2FF11DE35AFF4FF0829FB7F8940C
:105090000B8FEA89FB8980818062D0CFCF92DF922B
:1050A000EF92FF921F93CF93DF93EC016A017B0194
:1050B000122FE889F98982E08083C11481EED80635
:1050C000E104F10499F060E079E08DE390E0A7015C
:1050D0009601C5D22150310941095109569547958C
:1050E00037952795211580E1380790F0E889F989EF
:1050F000108260E874E88EE190E0A7019601AFD2DB
:105100002150310941095109569547953795279501
:10511000EC85FD853083EE85FF852083188EEC8934
:10512000FD891083EA89FB89808180618083EA8917
:10513000FB89808188608083EA89FB89808180681F
:105140008083EA89FB8980818F7D8083DF91CF9185
:105150001F91FF90EF90DF90CF9008951F920F92D4
:105160000FB60F9211240BB60F922F938F939F932C
:10517000EF93FF93E0916705F09168058081E091DE
:105180006D05F0916E0582FD1DC0908180917005C6
:105190008F5F8F7320917105821741F0E091700548
:1051A000F0E0E95AFA4F958F80937005FF91EF91E7
:1051B0009F918F912F910F900BBE0F900FBE0F906C
:1051C0001F9018958081F2CF1F920F920FB60F9209
:1051D00011240BB60F922F933F934F935F936F93CE
:1051E0007F938F939F93AF93BF93EF93FF9387E545
:1051F00095E0C7DEFF91EF91BF91AF919F918F91A5
:105200007F916F915F914F913F912F910F900BBEC6
:105210000F900FBE0F901F901895E7E5F5E01382F1
:10522000128288EE93E0A0E0B0E084839583A683A9
:10523000B7838DEB92E09183808385EC90E0958736
:10524000848784EC90E09787868780EC90E0918B50
:10525000808B81EC90E0938B828B82EC90E0958B3D
:10526000848B86EC90E0978B868B118E128E138E3A
:10527000148E08951F920F920FB60F9211240BB641
:105280000F922F938F939F93EF93FF93E0910406D8
:10529000F09105068081E0910A06F0910B0682FDEF
:1052A0001DC0908180910D068F5F8F7320910E0637
:1052B000821741F0E0910D06F0E0EC50FA4F958F27
:1052C00080930D06FF91EF919F918F912F910F90F9
:1052D0000BBE0F900FBE0F901F9018958081F2CFDC
:1052E0001F920F920FB60F9211240BB60F922F93AD
:1052F0003F934F935F936F937F938F939F93AF935E
:10530000BF93EF93FF9384EF95E03BDEFF91EF9126
:10531000BF91AF919F918F917F916F915F914F91CD
:105320003F912F910F900BBE0F900FBE0F901F90CB
:105330001895E4EFF5E01382128288EE93E0A0E086
:10534000B0E084839583A683B7838DEB92E091834D
:1053500080838DEC90E0958784878CEC90E0978734
:10536000868788EC90E0918B808B89EC90E0938B22
:10537000828B8AEC90E0958B848B8EEC90E0978BFF
:10538000868B118E128E138E148E08951F920F929B
:105390000FB60F9211240BB60F922F938F939F93FA
:1053A000EF93FF93E091A106F091A2068081E09136
:1053B000A706F091A80682FD1DC090818091AA06E3
:1053C0008F5F8F732091AB06821741F0E091AA06A0
:1053D000F0E0EF56F94F958F8093AA06FF91EF9179
:1053E0009F918F912F910F900BBE0F900FBE0F903A
:1053F0001F9018958081F2CF1F920F920FB60F92D7
:1054000011240BB60F922F933F934F935F936F939B
:105410007F938F939F93AF93BF93EF93FF9381E914
:1054200096E0AFDDFF91EF91BF91AF919F918F918A
:105430007F916F915F914F913F912F910F900BBE94
:105440000F900FBE0F901F901895E1E9F6E01382C0
:10545000128288EE93E0A0E0B0E084839583A68377
:10546000B7838DEB92E09183808385ED90E0958703
:10547000848784ED90E09787868780ED90E0918B1C
:10548000808B81ED90E0938B828B82ED90E0958B09
:10549000848B86ED90E0978B868B118E128E138E07
:1054A000148E08951F920F920FB60F9211240BB60F
:1054B0000F922F938F939F93EF93FF93E0913E076B
:1054C000F0913F078081E0914407F091450782FD0C
:1054D0001DC09081809147078F5F8F73209148078F
:1054E000821741F0E0914707F0E0E25DF84F958FB9
:1054F00080934707FF91EF919F918F912F910F908C
:105500000BBE0F900FBE0F901F9018958081F2CFA9
:105510001F920F920FB60F9211240BB60F922F937A
:105520003F934F935F936F937F938F939F93AF932B
:10553000BF93EF93FF938EE297E023DDFF91EF910E
:10554000BF91AF919F918F917F916F915F914F919B
:105550003F912F910F900BBE0F900FBE0F901F9099
:105560001895EEE2F7E01382128288EE93E0A0E055
:10557000B0E084839583A683B7838DEB92E091831B
:10558000808385E391E09587848784E391E0978722
:10559000868780E391E0918B808B81E391E0938B10
:1055A000828B82E391E0958B848B86E391E0978BED
:1055B000868B118E128E138E148E0895AF92BF9229
:1055C000CF92DF92EF92FF920F931F93CF93DF93CF
:1055D0006C017B018B01040F151FEB015E01AE18FE
:1055E000BF08C017D10759F06991D601ED91FC9120
:1055F0000190F081E02DC6011995892B79F7C5013D
:10560000DF91CF911F910F91FF90EF90DF90CF909E
:10561000BF90AF9008950895DB018F939F9358D06A
:10562000BF91AF91A29F800D911DA39F900DB29F3E
:10563000900D11240895AA1BBB1B51E107C0AA1F9E
:10564000BB1FA617B70710F0A61BB70B881F991F23
:105650005A95A9F780959095BC01CD010895A1E2D6
:105660001A2EAA1BBB1BFD010DC0AA1FBB1FEE1FDC
:10567000FF1FA217B307E407F50720F0A21BB30B27
:10568000E40BF50B661F771F881F991F1A9469F7A3
:1056900060957095809590959B01AC01BD01CF01FF
:1056A0000895EE0FFF1F881F8BBF0790F691E02D26
:1056B0001994A29FB001B39FC001A39F700D811DDB
:1056C0001124911DB29F700D811D1124911D08950B
:1056D000F0DFA59F900DB49F900DA49F800D911DAC
:1056E00011240895FB01DC0102C001900D9241508C
:1056F0005040D8F70895DC0101C06D9341505040EF
:08570000E0F70895F894FFCFD3
:10570800000080BF00003443000080BF2DB4FEFFBE
:10571800FFFF01E8030000FFFF00000000FFFFFF9C
:10572800FFFFFFFFFFFFFF0100010001002000381D
:10573800000800FFFFFFFF0101E902FF00180D4408
:105748000DFE00FE0C7F0AFD00900CEA0CFC00D652
:105758000C7F0AF600C70D7F0AF5009D0C060EF4B3
:1057680000900D1D0EDE004412DD14DD00B3137F22
:105778000ADA00ED0FF50FD900F8140510E200D58C
:105788000E7F0AE100100F7F0AE000850F7F0AD61E
:1057980000DB187F0AD50092117F0AD4001E117F02
:1057A8000AD3008F107F0AC00014107F0AF000444B
:1057B800197F0AED0001197F0A000000000228DEA7
:0C57C8002AB227E32784279E27902700A1
:00000001FF
