:10000000F8C0000027C1000025C1000023C1000086
:1000100021C100001FC100001DC100001BC1000064
:1000200019C1000017C1000015C1000013C1000074
:1000300011C100000FC100000DC100000BC1000084
:1000400009C1000007C1000005C1000003C1000094
:1000500001C10000FFC00000FDC000000C949B2BFC
:10006000F9C000000C94922F0C94C82FF3C000002C
:10007000F1C00000EFC00000EDC00000EBC00000C8
:10008000E9C00000E7C00000E5C00000E3C00000D8
:100090000C941E300C945430DDC00000DBC0000016
:1000A000D9C00000D7C00000D5C00000D3C00000F8
:1000B000D1C00000CFC00000CDC00000CBC0000008
:1000C000C9C00000C7C000000C9443280C94AA309B
:1000D0000C94E030BFC000000C9436310C946C31AD
:1000E000B9C0000000000A0B02090C0D0E0807033E
:1000F00004010000000000000000000000000000FB
:1001000000000000000000000000000000000000EF
:1001100012111000000000000000000000000000AC
:100120000000000000000000000001021020200874
:100130000810204010204080020102010804020142
:1001400001020408102040808040201008040201B1
:10015000800402018040201008040201080402010A
:100160000102040810204080010204081020408091
:1001700005050505070508080808020202020A0A23
:100180000808040404040101010101010101030341
:10019000030303030303040707070C0C0C0C0C0CEC
:1001A0000C0C0202020206060606060606060B0BE9
:1001B0000B0B0B0B0B0B00002200250028002B0063
:1001C0002E003100340002010000050108010B017E
:1001D00000002100240027002A002D0030003300F9
:1001E00001010000040107010A01F12F7D300931EE
:1001F000953111241FBECFEFD1E2DEBFCDBF00E0AD
:100200000CBF13E0A0E0B2E0E2EBF4E600E00BBFCD
:1002100002C007900D92AC33B107D9F729E0ACE3E7
:10022000B3E001C01D92A235B207E1F710E0C9EFBB
:10023000D0E000E006C021970109802FFE010E9456
:100240002632C53FD10780E00807A9F70E945F2941
:100250000C945732D5CECF92DF92EF92FF92CF938C
:10026000882351F16A017B01CFEFC80F20E030E015
:10027000A901CB01B6010E944D2A18168CF0C701C6
:10028000B60190580E94562A9B01AC016C2F70E079
:1002900090E080E0CF91FF90EF90DF90CF90B2C0E0
:1002A000C701B6010E94512A8C2FCF91FF90EF9089
:1002B000DF90CF900C94C52CCF91FF90EF90DF9002
:1002C000CF9008950F931F938B019C0183E0369587
:1002D0002795179507958A95D1F7045C1C4F462FF3
:1002E000477021E030E0F90102C0EE0FFF1F4A9590
:1002F000E2F7AF01F80120812423CB0101962111FF
:1003000002C090E080E01F910F9108950F931F931A
:100310008B019C0183E036952795179507958A9563
:10032000D1F7677081E090E001C0880F6A95EAF725
:10033000F801E45CFC4F2081452B31F48095822349
:1003400080831F910F910895822BFACF2F923F92B5
:100350004F925F926F927F928F929F92AF92BF92D5
:10036000CF92DF92EF92FF920F931F93CF93DF9381
:10037000D62EC72E782E692E49015A01280161E038
:100380008D2D0E94FF2DCD2DDC2D8E010F5F1F4F77
:10039000A8016D2D7C2D872D962DB8DF20E030E053
:1003A000A901C201B7010E94342B181664F4C201DE
:1003B000B7010E94562A2B01C501B4010E94562A9A
:1003C000A201CE0123D0C801DF91CF911F910F91DF
:1003D000FF90EF90DF90CF90BF90AF909F908F9065
:1003E0007F906F905F904F903F902F90089588235B
:1003F00041F08150682F70E090E080E050E040E0F4
:1004000085CF0895862FB9010C94C52C9C01FC0161
:10041000EC51FF4FE491E150E231E0F4F0E0882745
:10042000EB5EFD4F8F4F0C94263227022E023102D5
:1004300048025D022A0272027E0282029902AE0224
:10044000C302DA02EF022A0204031B03300384B55D
:10045000806884BD60E0822F0C943B2E84B580625E
:10046000F8CF809180008C7F8260809380008091A3
:100470008100807E8061682B6093810050938700AB
:100480004093860080918000806880938000E2CF56
:10049000809180008C7F82608093800080918100B9
:1004A000807E8061682B6093810050938700409329
:1004B0008600809180008062E8CF809180008C7FF0
:1004C00082608093800080918100807E8061682BB3
:1004D0006093810050938700409386008091800054
:1004E0008860D3CF8091B00080688093B000809105
:1004F000B100887F682B6093B100ACCF8091B000D1
:100500008062F3CF809190008C7F82608093900016
:1005100080919100807E8061682B60939100509360
:10052000970040939600809190008068809390009F
:1005300091CF809190008C7F826080939000809119
:100540009100807E8061682B6093910050939700AA
:1005500040939600809190008062E8CF8091900057
:100560008C7F82608093900080919100807E80617A
:10057000682B609391005093970040939600809170
:1005800090008860D3CF8091A0008C7F82608093A0
:10059000A0008091A100807E8061682B6093A10003
:1005A0005093A7004093A6008091A000806880939C
:1005B000A00050CF8091A0008C7F82608093A0002B
:1005C0008091A100807E8061682B6093A100509390
:1005D000A7004093A6008091A0008062E8CF8091A0
:1005E000A0008C7F82608093A0008091A100807E1B
:1005F0008061682B6093A1005093A7004093A600F0
:100600008091A0008860D3CF809120018C7F826090
:100610008093200180912101807E8061682B60930E
:100620002101509327014093260180912001806889
:10063000809320010FCF809120018C7F8260809376
:10064000200180912101807E8061682B60932101CF
:100650005093270140932601809120018062E8CFCA
:10066000809120018C7F8260809320018091210104
:10067000807E8061682B6093210150932701409315
:100680002601809120018860D3CFCF93DF93882308
:1006900049F0EB0181500E94A22C99838883DF915D
:1006A000CF910895FB0111821082F9CF0F931F9310
:1006B0008B019C0183E036952795179507958A95C0
:1006C000D1F70B5B1C4F462F477021E030E0F9015A
:1006D00002C0EE0FFF1F4A95E2F7AF01F80120813B
:1006E0002423CB010196211102C090E080E01F91EC
:1006F0000F9108950F931F938B019C0183E0369512
:100700002795179507958A95D1F7677081E090E056
:1007100001C0880F6A95EAF7F801EB5BFC4F208176
:10072000452B31F48095822380831F910F9108958A
:10073000822BFACFCF92DF92EF92FF92CF93DF938B
:100740006B017C0160E086E3C816D104E104F1048A
:1007500090F486E38C0D0E94FF2DE6012196AE01F8
:10076000C701B601C7DFCE01DF91CF91FF90EF90B7
:10077000DF90CF9008958C2DEECF882341F08150EB
:10078000682F70E090E080E050E040E0B3CF089543
:1007900090E080E008950F931F93009709F487C0BD
:1007A0006115710509F483C000917E0210917F02EA
:1007B00020918002309181020E3F1F4F2F4F3F4FFB
:1007C00009F066C04FEF5FEFBA0140937E0250938D
:1007D0007F02609380027093810240917E0250916B
:1007E0007F026091800270918102DC011296ED918E
:1007F000FC9180819181A281B3818093BC0390930D
:10080000BD03A093BE03B093BF0384819581A681ED
:10081000B7818093B8039093B903A093BA03B093C0
:10082000BB0380859185A285B3858093B4039093A3
:10083000B503A093B603B093B70384859585A685C9
:10084000B7858093B0039093B103A093B203B093A4
:10085000B3031092AC031092AD031092AE0310924A
:10086000AF03FAD781E59CE090934F0380934E034A
:100870009093510380935003DED6009731F421E02A
:1008800030E03093C1032093C0031F910F9108956E
:1008900000917E0210917F022091800230918102AE
:1008A000DB010D931D932D933C93139796CF8FEF00
:1008B0009FEFEBCF8F929F92AF92BF92CF92DF923A
:1008C000EF92FF921F93CF93DF934B015C01109146
:1008D000C30382E090E09093C1038093C00381142E
:1008E0009104A104B10441F48091C303811104C0B7
:1008F0008091C203C1E08111C0E0C12CD12C7601EE
:100900008091C303811106C08091C203811102C08E
:10091000CC23D9F083E090E09093C1038093C0038F
:10092000CC2379F1CCE9DFEF111102C00E94B50FA1
:10093000CE01DF91CF911F91FF90EF90DF90CF908C
:10094000BF90AF909F908F9008956AE070E080E034
:1009500090E00E940A2C80E1C80E87E2D81EE11CBC
:10096000F11C8FEF88169806A806B80631F0C1E092
:100970008C149D04AE04BF0408F0C0E080E08FD664
:10098000BFCFD0E0C0E0D0CFCF92DF92EF92FF9206
:100990000F931F93CF93DF938F3F910511F008F0D2
:1009A00050C02091C0033091C1032330310539F08C
:1009B0002091C0033091C1032130310531F424E08E
:1009C00030E03093C1032093C0036A017B01EC0146
:1009D00082309105A0F011E0AE01C701B6012AD620
:1009E000AB01BC01CE011123F9F0DF91CF911F9132
:1009F0000F91FF90EF90DF90CF900C94DE118C015F
:100A0000000F111F025B1C4FD8018D919C91892B07
:100A100011F30E94E8110297F1F6D801ED91FC91D3
:100A2000CE011995182FD8CF0E94001290E080E0D7
:100A3000DF91CF911F910F91FF90EF90DF90CF90BA
:100A400008958FEF9FEFF4CF80E029C6CF93DF9317
:100A500086E090E09093C1038093C00379D6EC01C7
:100A6000EEE4F3E084E0DF011D928A95E9F70E944D
:100A70004D0F1092C1031092C003CE01DF91CF91B0
:100A800008958091C20308958091AB030895609307
:100A90007E0270937F02809380029093810290E0A7
:100AA00080E008954F925F926F927F928F929F9213
:100AB000AF92BF92CF92DF92EF92FF92CF93DF93EC
:100AC000CDB7DEB766970FB6F894DEBF0FBECDBFC9
:100AD00020911A0930911B0940911C0950911D0960
:100AE0006091540270915502809156029091570284
:100AF0000E94382B6B017C0120911E0930911F0947
:100B00004091200950912109609158027091590239
:100B100080915A0290915B020E94382B9B01AC019C
:100B2000C701B6010E94E9296B017C0120912209CD
:100B300030912309409124095091250960915C026C
:100B400070915D0280915E0290915F020E94382B4D
:100B50009B01AC01C701B6010E94E9296B017C0130
:100B6000209126093091270940912809509129099F
:100B700060916002709161028091620290916302C3
:100B80000E94382B9B01AC01C701B6010E94E929E4
:100B9000609338097093390980933A0990933B091F
:100BA000209168023091690240916A0250916B0273
:100BB0000E94E92960933C0970933D0980933E09A6
:100BC00090933F0920916C0230916D0240916E022A
:100BD00050916F020E94382B209170023091710267
:100BE00040917202509173020E94E929609340097A
:100BF00070934109809342099093430969E070E042
:100C000080E090E05FDB5C01909319098093180904
:100C1000C0904009D0904109E0904209F09043090A
:100C200020E030E04FE753E4C701B6010E944D2AAF
:100C300018160CF4DBC220E030E0A901C701B601B0
:100C40000E94342B87FF03C0C12CD12C7601B70141
:100C5000A601C50100DBC0900002D0900102E09027
:100C60000202F0900302A701960160910E097091B3
:100C70000F0980911009909111090E944D2A882333
:100C800041F0C0920E09D0920F09E0921009F09243
:100C9000110966E370E080E090E008DD90930D09B3
:100CA00080930C0943E050E0BE016F5F7F4FEDDCA5
:100CB00020917C0230917D02A981BA810E942E325E
:100CC0000E94822A20E030E040E057E30E94382B67
:100CD0009B01AC0160917402709175028091760263
:100CE000909177020E94E8299B01AC01209344096E
:100CF0003093450940934609509347096091780223
:100D00007091790280917A0290917B0260934809F8
:100D10007093490980934A0990934B090E94E829EE
:100D20006B017C01C0924C09D0924D09E0924E09B2
:100D3000F0924F0980901A0990901B09A0901C090D
:100D4000B0901D0980911E0990911F09A091200962
:100D5000B09121098B839C83AD83BE83809122094E
:100D600090912309A0912409B09125098F83988738
:100D7000A987BA878091260990912709A09128090F
:100D8000B09129098B879C87AD87BE87209114027B
:100D9000309115024091160250911702C501B4011D
:100DA0000E94382B2B013C0120911802309119022E
:100DB00040911A0250911B026B817C818D819E8132
:100DC0000E94382B9B01AC01C301B2010E94E929AA
:100DD0002B013C0120911C0230911D0240911E020A
:100DE00050911F026F81788589859A850E94382BE2
:100DF0009B01AC01C301B2010E94E9292B013C0116
:100E00002091200230912102409122025091230230
:100E10006B857C858D859E850E94382B9B01AC015E
:100E2000C301B2010E94E9292B013C012091480233
:100E30003091490240914A0250914B02C701B601DC
:100E40000E94382B9B01AC01C301B2010E94E92929
:100E50006F87788B898B9A8B2091240230912502A1
:100E60004091260250912702C501B4010E94382BFF
:100E70002B013C01209128023091290240912A0245
:100E800050912B026B817C818D819E810E94382B39
:100E90009B01AC01C301B2010E94E9292B013C0175
:100EA00020912C0230912D0240912E0250912F0260
:100EB0006F81788589859A850E94382B9B01AC01CA
:100EC000C301B2010E94E9292B013C0120913002AB
:100ED0003091310240913202509133026B857C8512
:100EE0008D859E850E94382B9B01AC01C301B20108
:100EF0000E94E9292B013C0120914C0230914D02C6
:100F000040914E0250914F02C701B6010E94382B0A
:100F10009B01AC01C301B2010E94E9296B8B7C8B60
:100F20008D8B9E8B20913402309135024091360298
:100F300050913702C501B4010E94382B2B013C01AE
:100F4000209138023091390240913A0250913B028F
:100F50006B817C818D819E810E94382B9B01AC012D
:100F6000C301B2010E94E9292B013C0120913C02FE
:100F700030913D0240913E0250913F026F81788551
:100F800089859A850E94382B9B01AC01C301B2016F
:100F90000E94E9292B013C0120914002309141023D
:100FA00040914202509143026B857C858D859E85E0
:100FB0000E94382B9B01AC01C301B2010E94E929B8
:100FC0002B013C012091500230915102409152027C
:100FD00050915302C701B6010E94382B9B01AC010E
:100FE000C301B2010E94E9292B013C0120910402B6
:100FF000309105024091060250910702C501B401EB
:101000000E94382B4B015C012091080230910902AB
:1010100040910A0250910B026B817C818D819E81EF
:101020000E94382B9B01AC01C501B4010E94E92943
:101030004B015C0120910C0230910D0240910E0297
:1010400050910F026F81788589859A850E94382B8F
:101050009B01AC01C501B4010E94E9294B015C016F
:10106000209110023091110240911202509113020E
:101070006B857C858D859E850E94382B9B01AC01FC
:10108000C501B4010E94E9294B015C012091440291
:10109000309145024091460250914702C701B60186
:1010A0000E94382B9B01AC01C501B4010E94E929C3
:1010B00060931A0970931B0980931C0990931D0972
:1010C0008F859889A989BA8980931E0990931F09F1
:1010D000A0932009B09321098B899C89AD89BE8991
:1010E0008093220990932309A0932409B0932509A2
:1010F0004092260950922709609228097092290986
:10110000C0907E03D0907F03E0908003F090810335
:101110009FEFC91AD90AE90AF90AC0927E03D09250
:101120007F03E0928003F0928103C114D104E104B3
:10113000F10499F48091820390918303A091840338
:10114000B09185030196A11DB11D809382039093F8
:101150008303A0938403B0938503809086039090CB
:101160008703A0908803B0908903609182037091F7
:10117000830380918403909185030E94822AA501B4
:1011800094010E94382B20E030E040E85FE40E94A8
:10119000382B2B013C01C701B6010E94822AA50110
:1011A00094010E94382B9B01AC01C301B2010E9443
:1011B000E92960937A0370937B0380937C03909377
:1011C0007D0366960FB6F894DEBF0FBECDBFDF91EC
:1011D000CF91FF90EF90DF90CF90BF90AF909F9016
:1011E0008F907F906F905F904F900895C12CD12C7D
:1011F0008FE7E82E83E4F82E2ACD8F929F92AF924C
:10120000BF92DF92EF92FF920F931F93CF93DF93E2
:10121000E4E6F3E08BE2DF011D928A95E9F780E0D6
:1012200090E0A8E4B2E486A397A3A0A7B1A78AE0C0
:1012300097EDA3E2BCE382A393A3A4A3B5A38FEF8E
:101240009CE8A0EBBFEA84839583A683B7838FE2F3
:101250009AE4AEE1B4E480879187A287B38782EEF7
:1012600090EEA9E0BCE884879587A687B78787E4D6
:1012700094E1A7EFB1E3808B918BA28BB38BA8E5B0
:10128000B3E0B383A283E2E5F3E01196FC93EE931F
:1012900088EA92E091838083938382839583848319
:1012A00088E793E015969C938E93149788E693E0D5
:1012B00013969C938E9312978AE793E017969C93CC
:1012C0008E931697E8E3F9E088E1DF011D928A9595
:1012D000E9F7C6E0D9E082E3FE0111928A95E9F7C9
:1012E000DD24D394D9AA812C912C540183948D862A
:1012F0009E86AF86B88AE12CF12C8701A801970160
:1013000069E070E080E090E021D89B8B8A8BD98ADD
:101310001882D8AA8091000290910102A091020245
:10132000B091030288879987AA87BB8789829A82AE
:10133000AB82BC8266E370E080E090E0FBD99F83E3
:101340008E83DD828091640290916502A091660295
:10135000B09167028C8B9D8BAE8BBF8B888F998FE2
:10136000AA8FBB8F8C8F9D8FAE8FBF8F88A399A3C1
:10137000AAA3BBA3DF91CF911F910F91FF90EF9094
:10138000DF90BF90AF909F908F9008958091120949
:1013900081112DC081E080931209809113099091F1
:1013A0001409A0911509B09116090197A105B1057D
:1013B000F1F4809117098823D1F069E070E080E0B2
:1013C00090E00E946201909319098093180940E00F
:1013D00050E0BA010E942B0169E070E080E090E0EB
:1013E0000E946201909319098093180900D8809196
:1013F000060981111DC081E08093060980910709CB
:1014000090910809A0910909B0910A090197A105D5
:10141000B10571F480910B09882351F066E370E007
:1014200080E090E043D990930D0980930C09A5C901
:1014300008954F925F926F927F928F929F92AF9298
:10144000BF92CF92DF92EF92FF920F931F93F89487
:1014500040909B0350909C0360909D0370909E036E
:10146000C0908F03D0909003E0909103F09092038E
:10147000452B09F0A4C09B01AC012419350946098C
:10148000570929013A01009197031091980320917F
:10149000990330919A0348015901840C951CA61CAC
:1014A000B71C80169106A206B306A0F40091930320
:1014B0001091940320919503309196030F5F1F4F75
:1014C0002F4F3F4F00939303109394032093950362
:1014D000309396038092970390929803A092990379
:1014E000B0929A0300919303109194032091950375
:1014F0003091960380929F039092A003A092A10343
:10150000B092A2030093A3031093A4032093A50316
:101510003093A60360939B0370939C0380939D0379
:1015200090939E03A0E1B7E2A30192010E943D3295
:101530006C0D7D1D8E1D9F1D60938F037093900316
:10154000809391039093920300917E0210917F0209
:1015500020918002309181020F3F1F4F2F4F3F4F4C
:10156000F1F000917E0210917F0220918002309173
:1015700081020E3F1F4F2F4F3F4F89F0C0907E02D8
:10158000D0907F02E0908002F090810221E08C14E4
:101590009D04AE04BF0408F420E02093AB037894CC
:1015A0001F910F91FF90EF90DF90CF90BF90AF9081
:1015B0009F908F907F906F905F904F9008954B0118
:1015C0005C0184189508A608B708A3019201261BA0
:1015D000370B480B590B6415750586059705D0F038
:1015E00082169306A406B50640F420E030E0A90177
:1015F00081149104A104B10491F4A0E1B7E20E9426
:101600003D32A7019601261B370B480B590BCA0127
:10161000B901C5CF82169306A406B50670F7A0E1FE
:10162000B7E2A50194010E943D326C0D7D1D8E1D17
:101630009F1DB5CFFECECF93DF9300D01F92CDB7C5
:10164000DEB71C821B821A8219821092A7031092A5
:10165000A8031092A9031092AA03BE016F5F7F4FE7
:10166000CE0103960E94142869817A818B819C8126
:101670000E940421009761F4BE016F5F7F4FCE018D
:1016800003960E94202869817A818B819C812ED5C6
:101690000F900F900F900F90DF91CF910895FF92D0
:1016A0000F931F93CF93DF93082F60E070E0CB017F
:1016B0000E940A2CFF24F3940E94ED1FEC01892B59
:1016C00089F010E0CE3F8FEFD80769F0002361F179
:1016D00060E070E0CB010E940A2C81E090E0892B51
:1016E00059F322C011E025D5EC01892B21F0CE3F22
:1016F0008FEFD80759F711111EC011E0229609F497
:1017000010E00E949D1FEC01892B21F0CE3F8FEF4E
:10171000D807E1F6111111C011E0CE3F8FEFD807C5
:1017200009F410E001110BC0CE01DF91CF911F91A0
:101730000F91FF90089511E0E4CF11E0F3CF60E046
:1017400070E0CB010E940A2C1F25812F90E0C7CFAB
:10175000CF93DF938091AB03882321F060E070E0AA
:10176000CB014CD635D6D0E0C0E0892B71F06AE0D1
:1017700070E080E090E00E940A2C81E090DF28D6A3
:101780002196C03D27E0D20781F727D60E94582135
:101790001092C3031092C2031092BC031092BD03B7
:1017A0001092BE031092BF031092B8031092B903B7
:1017B0001092BA031092BB031092B4031092B503B7
:1017C0001092B6031092B7031092B0031092B103B7
:1017D0001092B2031092B3031092AC031092AD03B7
:1017E0001092AE031092AF034EEF5FEF6FEF7FEFFB
:1017F00040937E0250937F02609380027093810237
:101800001092AB03EFE9F3E028E0DF011D922A9587
:10181000E9F710929B0310929C0310929D03109283
:101820009E031092970310929803109299031092BE
:101830009A031092930310929403109295031092BE
:10184000960310928F0310929003109291031092BE
:101850009203DF91CF9108951092CF031092D0039D
:101860001092D1031092D2031092CE038091D7032D
:101870009091D8039093CD038093CC031092CB0327
:101880001092CA031092C6031092C7031092C803A5
:101890001092C9031092D4031092D30390E080E019
:1018A0000895CF92DF92EF92FF920F931F93CF9301
:1018B0008C01892B09F055C02091D7033091D803B2
:1018C0008091CC039091CD034091D7035091D803E0
:1018D0005093CD034093CC032817390781F0109221
:1018E000CB031092CA031092C6031092C703109242
:1018F000C8031092C9031092D4031092D3038091AD
:10190000D7039091D803019761F58091D30390910B
:10191000D403892B21F480918202811112C080911D
:10192000D3039091D4030197E1F48091C603909181
:10193000C703A091C803B091C9030197A105B105E0
:1019400081F41092C6031092C7031092C80310923C
:10195000C9031092820282E090E09093D4038093B6
:10196000D3038091D7039091D803019709F01CC14C
:101970008091ED039091EE038017910709F014C157
:101980008091E9039091EA03A091EB03B091EC03FD
:10199000009709F409C12091E80321110DC040917D
:1019A000E9035091EA036091EB037091EC03452B3E
:1019B000462B472B09F4F8C02091D3033091D40370
:1019C0002230310509F0F0C02091CA032111ECC08A
:1019D000FC01C080D180E280F3808091CE03882317
:1019E00009F4D3C08091DA039091DB03892B09F4C9
:1019F000FDC02091DA033091DB0381E02230310514
:101A000009F080E02091DA033091DB03C1E021305E
:101A1000310549F02091DA033091DB03C1E0223037
:101A2000310509F0C0E0882309F456C02091E40391
:101A30003091E5034091E6035091E703C701B601F9
:101A40000E94342B87FD14C02091E4033091E503FC
:101A50004091E6035091E7036091CF037091D0036A
:101A60008091D1039091D2030E944D2A87FD22C01C
:101A70002091E4033091E5034091E6035091E703A0
:101A8000C701B6010E94342B181634F52091E403E7
:101A90003091E5034091E6035091E7036091CF0355
:101AA0007091D0038091D1039091D2030E944D2A6E
:101AB000811112C08091DC039091DD03A091DE03BF
:101AC000B091DF03892B8A2B8B2B19F481E0809353
:101AD000CB0381E08093CA03CC2309F456C0209144
:101AE000E4033091E5034091E6035091E703C70119
:101AF000B6010E944D2A87FF14C02091E403309163
:101B0000E5034091E6035091E7036091CF037091A4
:101B1000D0038091D1039091D2030E94342B87FF90
:101B200022C02091E4033091E5034091E6035091F7
:101B3000E703C701B6010E944D2A811126C02091FA
:101B4000E4033091E5034091E6035091E70360918F
:101B5000CF037091D0038091D1039091D2030E9462
:101B6000342B181694F48091DC039091DD03A0913E
:101B7000DE03B091DF03892B8A2B8B2B19F481E0D4
:101B80008093CB0381E08093CA0381E09091CA03E4
:101B9000911180E08093CE03C092CF03D092D00306
:101BA000E092D103F092D203012B09F067C180913A
:101BB000D3039091D403892BD9F41092D9031092B6
:101BC000CA0380918202882379F082E090E09093AA
:101BD000D4038093D303109282022091D7033091D3
:101BE000D80381E0232BE9F080E01BC081E00ACF1D
:101BF000109282028091D903882349F01092CB037E
:101C00001092D4031092D3031092D903EDCF809198
:101C1000D7039091D803892BE1F08091CA031092E9
:101C2000CA032091D3033091D4032230310509F443
:101C30005EC088F42115310509F448C02130310512
:101C400009F4F3C01092CB031092CA031092D90387
:101C500038C081E0E6CF2330310509F4B1C024302B
:101C6000310581F74091C6035091C7036091C803C5
:101C70007091C903411551056105710561F041502D
:101C80005109610971094093C6035093C7036093DA
:101C9000C8037093C9034091C6035091C703609174
:101CA000C8037091C903452B462B472BD9F42091CB
:101CB000D5033091D6032130310509F046C010928A
:101CC000CB031092D4031092D3030CC080918202F4
:101CD000882341F082E090E09093D4038093D30373
:101CE000109282021092C4038091CB03CEC088234D
:101CF000C9F38091DC039091DD03A091DE03B091E4
:101D0000DF03181619061A061B060CF07DC0809119
:101D1000D7039091D803019709F076C08091DC0336
:101D20009091DD03A091DE03B091DF038093C603A1
:101D30009093C703A093C803B093C90383E090E0D6
:101D40009093D4038093D303CDCF4091E00350917F
:101D5000E1036091E2037091E303452B462B472B8F
:101D6000A9F01092CB038091E0039091E103A09140
:101D7000E203B091E3038093C6039093C703A0935B
:101D8000C803B093C90381E090E0DACF882399F0CB
:101D90008091830290918402A0918502B091860285
:101DA0008093C6039093C703A093C803B093C9035D
:101DB00084E090E0C5CF1092CB0382E090E0C0CFEA
:101DC0008091C6039091C703A091C803B091C90345
:101DD0000097A105B10559F00197A109B1098093B8
:101DE000C6039093C703A093C803B093C90380911F
:101DF000C6039091C703A091C803B091C903892B72
:101E00008A2B8B2B09F06ECF8091830290918402F4
:101E1000A0918502B0918602892B8A2B8B2B09F425
:101E20004ECF81E08093CB03B3CF4091C603509156
:101E3000C7036091C8037091C9034115510561053D
:101E4000710561F041505109610971094093C60360
:101E50005093C7036093C8037093C9034091C603AE
:101E60005091C7036091C8037091C903452B462B5D
:101E7000472B09F037CF8111C7CF9FCF8091C40383
:101E8000882309F431CF8091C503CF911F910F9121
:101E9000FF90EF90DF90CF9008951092CF031092B3
:101EA000D0031092D1031092D2031092CE0310925D
:101EB000D4031092D3031092CD031092CC0310924E
:101EC000EE031092ED031092CB031092CA0310920E
:101ED000C6031092C7031092C8031092C903109250
:101EE000C5031092C4031092E9031092EA03109202
:101EF000EB031092EC031092E8031092E4031092AB
:101F0000E5031092E6031092E70388EE93E0A0E069
:101F1000B0E08093830290938402A0938502B093F3
:101F200086021092E0031092E1031092E2031092F5
:101F3000E3031092DC031092DD031092DE03109293
:101F4000DF031092DB031092DA0381E080938202B8
:101F50001092D9031092D8031092D7031092D6038F
:101F60001092D50390E080E008958091D70390917E
:101F7000D803892B19F580918202882351F0809132
:101F8000D903811106C081E08093C5038093C40307
:101F900008952091D9033091820281E090E03323AB
:101FA00011F090E080E030E082239323892B21F030
:101FB0001092C50381E0EACF1092C403089582E035
:101FC00090E0FA01918380838FEF9FEF0895CF9384
:101FD000DF93EA01009711F00E947822198218829B
:101FE00090E080E0DF91CF910895DB01009719F434
:101FF0008FEF8C9308952EEF2C93FC013F96EF30DA
:10200000F10508F034C08827E75FFF4E8F4F0C942E
:1020100026323510331031102F102D1029102B10AF
:1020200027102510231020101C1018101E10371018
:1020300080E311968C93089589E2FBCF82E2F9CF79
:1020400011961C92089583E2F4CF81E2F2CF81E1F0
:10205000F0CF87E2EECF8AE2ECCF80E1EACF84E2F4
:10206000E8CF88E2E6CF86E2E4CF81E3E2CF80E208
:10207000E0CF8091FB039091FC0308959093FC03C3
:102080008093FB0308958091FA0308959091FA03D9
:10209000892B8093FA030895982F90958091FA03E5
:1020A00089238093FA0308958091F903089580911C
:1020B000F7039091F80308956115710559F0FB013C
:1020C00030E020E070E060E02417350719F061157A
:1020D000710511F0CB010895A081B181A817B9074E
:1020E00009F4BF012F5F3F4F3696EECF8091FD037D
:1020F00081111CC060D266D29093F0038093EF03ED
:102100000E94761A0E94881A9093F4038093F30336
:102110000E94051F0E940C1F9093F2038093F1030D
:1021200081E08093FD0390E080E0089584EF9FEFCD
:1021300008958F929F92AF92BF92CF92DF92EF92CB
:10214000FF920F931F93CF93DF9300D000D000D066
:102150001F92CDB7DEB71A86198618861F821E8297
:102160001D821C821B821A8219828091FD0307EF57
:102170001FEF882309F49CC08E010D5F1F4F9E0145
:102180002B5F3F4FAE01495F5F4FBE01675F7F4FDF
:1021900090E080E00E9489208C01009721F0059654
:1021A000029708F0DBC029853A852115310509F42D
:1021B00002C1ED80FE804B815C81B701640F751F09
:1021C0008F8198858617970708F4F5C0E20EF31EF5
:1021D000D7019C91903C09F07FC04230510508F432
:1021E0007BC011968C914091FB035091FC03452BD1
:1021F00009F49CC0913F08F071C02CE1290F2D30EB
:1022000008F48BC02DE2290F203108F489C0903CDE
:1022100021F48150823008F483C088E3890F8B3029
:1022200008F481C095EFC92E9FE0D92EEFEDFFE0B5
:102230006D817E81AE014F5F5F4F89859A851995CB
:102240005C01C114D104A1F189809A8081149104A8
:1022500079F18B819C818815990508F487C010E07D
:1022600000E04B815C8170E060E0C7010E94503269
:1022700001151105E9F449815A8169857A858D81B5
:102280009E81680F791FC501F6011995E980FA80D2
:102290000D811E812F81388549855A856FEF7FEF2B
:1022A00081E090E00E9424208C01892B09F056C027
:1022B000C8012A960FB6F894DEBF0FBECDBFDF91DE
:1022C000CF911F910F91FF90EF90DF90CF90BF9033
:1022D000AF909F908F90089580E085CF30E020E010
:1022E000220F331FF901E151FC4F0190F081E02DE5
:1022F000309709F497CF892F90E01995009709F44A
:1023000091CFDC011296ED91FC9113971496CD902C
:10231000DC90309709F08CCF1FC021E030E0E0CF97
:1023200022E030E0DDCF23E030E0DACFD12CC12C49
:10233000E7EEFFE09F3F09F07BCFE091EF03F091E4
:10234000F003309721F4C90104EF1FEF0CC08FEFA9
:1023500090E019950097A9F604EF1FEF89859A85FB
:10236000009709F4A5CF0E947822A2CF0E945321A2
:102370008C0189859A850E94782270E060E0C40112
:102380000E94EC2098878F830E9421209E838D835A
:102390006F8178856115710559F0C8010E94042488
:1023A0009A87898706EF1FEF892B09F058CF59CFFD
:1023B00008EF1FEF56CF08EF1FEFD0CF2091FD039E
:1023C000222319F020E00C948D1A87EF9FEF0895D7
:1023D0008091FB039091FC0308950E94111F0E94BD
:1023E0006B1EF5D0EFEEF3E088E0DF011D928A95D9
:1023F000E9F71092FD0390E080E008950C94C91C69
:1024000021E040E050E0BA010C948D1A86E090E0A3
:10241000FA019183808390E080E0089547E050E0E6
:102420006BEA72E049CEDF92EF92FF920F931F9317
:10243000CF93DF938A01EC01C60FD71FE090010410
:10244000F0900204D9800E943B21D816190678F03A
:1024500082E090E0F801918380838EEF9FEFDF911F
:10246000CF911F910F91FF90EF90DF900895EF288B
:1024700041F482E090E0F8019183808384EF9FEF44
:10248000EECF89818093000490E00196F80191835A
:10249000808390E080E0E3CFCF93DF93EA010E9456
:1024A0007A1D882321F00E9448210E947B1D82E032
:1024B00090E0998388838BEF9FEFDF91CF91089510
:1024C000CF93DF93EB0186E0FB0111928A95E9F748
:1024D0008FEF8883D8DD8983E7DD8A83E8DD9D83FC
:1024E0008C83DF91CF910895CF93DF93EA010E940F
:1024F0007D1D811109C082E090E09983888385EF7A
:102500009FEFDF91CF91089590E080E0B7DD81E00B
:1025100090E09983888390E080E0F3CF0F931F933E
:10252000CF93DF93EA018C01060F171F0E947D1DD8
:1025300081110BC082E090E09983888385EF9FEF43
:10254000DF91CF911F910F910895F8018181823021
:1025500038F082E090E0998388838EEF9FEFF0CF90
:1025600081E090E08BDD88E090E09983888390E0C3
:1025700080E0E6CFCF93DF930097D1F4EB01FB012E
:10258000329686E0DF011D928A95E9F78FEF888306
:1025900085E089831A820E943B218B830E943A2125
:1025A0009D838C8381E08E838F83DF91CF9108950B
:1025B000DF91CF911ACD8EE092E19093FF0380934B
:1025C000FE0308958091FE039091FF0308951092F9
:1025D000FF031092FE03089580910104909102047C
:1025E0000895411105C0611571058105910561F0DE
:1025F0006093010470930204809303049093040495
:102600004093050481E0089580E00895FF920F93C0
:102610001F93CF93DF938A01EC01C60FD71FF98078
:102620000E943B21F816190668F082E090E0F8015C
:10263000918380838EEF9FEFDF91CF911F910F9158
:10264000FF9008956C817D818E819F814B81C9DFD0
:10265000811108C082E090E0F8019183808384EFCB
:102660009FEFEACF89818093000490E00196F80102
:102670009183808390E080E0DFCFCF93DF93EA0106
:10268000FC01E60FF71F6481758186819781438184
:10269000A8DF811109C082E090E09983888384EFEC
:1026A0009FEFDF91CF91089581E090E09983888337
:1026B00090E080E0F6CFE1E0F4E04081518162817A
:1026C0007381480F511D611D711D408351836283C9
:1026D00073830895CF93C09100044C2F50E0609114
:1026E00001047091020401960E9447328C2FE3DFAF
:1026F00010920004CF910895009799F480910104FD
:10270000909102042FEFFB012083892B59F0209137
:10271000000430E02F5F3F4F2417350719F4CB0139
:10272000D9CF63CC0895009799F4809101049091DA
:1027300002042FEFFB012083892B59F02091000424
:1027400030E02F5F3F4F2417350719F4CB01C2CF7C
:102750004CCC089523E1AC01249FC001259F900D2E
:102760001124E0910A04F0910B04E80FF91F238172
:1027700034812250310981E02230310508F080E0B7
:1027800008950F931F93CF93DF9300910C04109142
:102790000D04D0E0C0E080E00C171D0749F491E083
:1027A000811190E0892FDF91CF911F910F910895B2
:1027B0008111F5CFCE01CEDF2196EECFA0910A0494
:1027C000B0910B04109729F120910C0430910D0465
:1027D00082179307F0F453E1589F9001599F300DF1
:1027E0001124A20FB31FED91FC911197309789F03E
:1027F00012968C91681768F48DE0689FE00DF11DCA
:10280000112480819181892B21F081E092814917E7
:1028100008F080E008959C0143E1429FC001439F7E
:10282000900D1124E0910A04F0910B04E80FF91FB8
:102830008385823091F481E090E0658176814091DA
:102840008702509188026417750711F490E080E0C8
:10285000892B19F081E0232B09F080E00895FC0119
:10286000A081B1818DE0689FA00DB11D1124139648
:102870004D915C9185859685489F9001499F300DCB
:10288000589F300D1124C9010196611103C0478181
:1028900044FD04960895EF92FF920F931F93CF93F8
:1028A000DF93EA01FC01E60FF71F02811381E48048
:1028B000F5804F2D6E2DC80181DF81110DC082E0A2
:1028C00090E0998388838EEF9FEFDF91CF911F91E6
:1028D0000F91FF90EF900895C8013CDF882339F0F5
:1028E00082E090E09983888388EF9FEFEECF10938A
:1028F0008E0200938D02E0928F02F092900281E0AE
:1029000090E09983888390E080E0DFCFCF92DF92E0
:10291000EF92FF920F931F93CF93DF937A01EC0115
:10292000C60FD71FC0908D02D0908E0200918F02EB
:1029300010919002412F602FC60140DF811110C01D
:1029400082E090E0F701918380838AEF9FEFDF912F
:10295000CF911F910F91FF90EF90DF90CF9008954E
:10296000C601F8DE882341F082E090E0F701918310
:10297000808388EF9FEFEBCF4C815D816E817F81FB
:102980009A8189818F3F41F082E090E0F701918345
:1029900080838EEF9FEFDBCFE3E1EC9D9001ED9D17
:1029A000300D1124E0910A04F0910B04E20FF31FA3
:1029B0000190F081E02D2DE0029FE00DF11D11242A
:1029C0000190F081E02D27E0129FE00DF11D112410
:1029D000808391838B818283438354836583768351
:1029E0001F5F1093900281E090E0F7019183808354
:1029F00090E080E0ACCFEF92FF920F931F93CF93C4
:102A0000DF937A018C01060F171FC0910A04D09141
:102A10000B04209781F021E030E0F801828193815E
:102A200040910C0450910D048417950710F030E08C
:102A300020E0232B71F482E090E0F7019183808302
:102A40008EEF9FEFDF91CF911F910F91FF90EF904D
:102A5000089543E1489F9001499F300D1124C20F12
:102A6000D31F78DE882341F082E090E0F701918364
:102A7000808388EF9FEFE6CFF801248135812038ED
:102A80003105C8F687818111D6CF4181842F90E02E
:102A90008F7E009741F082E090E0F7019183808380
:102AA00086EF9FEFCFCF4F833E832D8326812887EC
:102AB0001986223010F421E0288721E030E0F70168
:102AC00031832083BFCF88E090E0FA019183808337
:102AD00090E080E00895FB018FEF808381E18183A6
:102AE0008FEF9FEF9383828380E890E095838483C8
:102AF000168217820895FB018FEF808391E0918306
:102B000082839383848384E3858381E090E0978349
:102B100086830895DF92EF92FF920F931F93CF93D6
:102B2000DF93EA01FC01E60FF71F8181813071F02C
:102B300082E090E0998388838FEF9FEFDF91CF91C0
:102B40001F910F91FF90EF90DF9008958281938104
:102B5000D4802581E680F78000910A0410910B044F
:102B60000115110539F482E090E0998388838CEF98
:102B70009FEFE4CF40910C0450910D04841795070A
:102B800038F082E090E0998388838EEF9FEFD6CF74
:102B9000892B39F082E090E09983888386EF9FEF5C
:102BA000CDCF8D2D8D7FB1F72130A1F781E0D110F0
:102BB00006C091E0E916F10431F080E004C0E2E0E3
:102BC000EE16F104D0F3882329F390E080E0C2DD13
:102BD000882339F082E090E09983888388EF9FEF23
:102BE000ADCFF801D38681E08487F686E586108A2A
:102BF000178681E090E09983888390E080E09ECF03
:102C00004CE050E065ED72E057CA8F929F92BF9200
:102C1000CF92DF92EF92FF920F931F93CF93DF93A8
:102C2000EA01FC01E60FF71F828193810481B580E0
:102C3000E0910A04F0910B04309791F482E090E067
:102C4000998388838CEF9FEFDF91CF911F910F9134
:102C5000FF90EF90DF90CF90BF909F908F9008955E
:102C600020910C0430910D048217930738F082E014
:102C700090E0998388838EEF9FEFE6CF23E1289F32
:102C80006001299FD00C1124EC0DFD1DE080F18026
:102C9000E114F10499F28281081748F78DE0089F4A
:102CA00080011124E00EF11EF70180819181892BB2
:102CB00029F6BB20E1F2F7E0BF9E40011124C401D8
:102CC0000E943F22F70191838083E0910A04F091F2
:102CD0000B04EC0DFD1D0190F081E02DE00FF11FC4
:102CE00080819181009739F482E090E09983888314
:102CF0008DEF9FEFA9CFA40170E060E00E945032F9
:102D000080910A0490910B04C80ED91EF6018081AF
:102D10009181080F191FF801B28281E090E0998338
:102D2000888390E080E090CFAF92BF92CF92DF9205
:102D3000FF920F931F93CF93DF93EA01FC01E60FFD
:102D4000F71F82819381F48000910A0410910B0493
:102D50000115110581F482E090E0998388838CEF5E
:102D60009FEFDF91CF911F910F91FF90DF90CF9058
:102D7000BF90AF90089520910C0430910D048217FC
:102D8000930738F082E090E0998388838EEF9FEF7D
:102D9000E8CF2FEF2F0D2C3FA8F723E1289F6001EC
:102DA000299FD00C11240C0D1D1DF80180819181EB
:102DB000892B89F6FDE0FF9E50011124C5010E9478
:102DC0003F22F80191838083E0910A04F0910B0483
:102DD000EC0DFD1D80819181009739F482E090E037
:102DE000998388838DEF9FEFBCCFA50170E060E0F1
:102DF0000E945032E0910A04F0910B04EC0DFD1D8D
:102E0000F28281E090E09983888390E080E0A9CF0E
:102E1000CF92DF92EF92FF920F931F93CF93DF93A6
:102E2000860F971FFC010281138180910A04909103
:102E30000B04892B81F082E090E0FA01918380837A
:102E40008CEF9FEFDF91CF911F910F91FF90EF904B
:102E5000DF90CF900895C801B0E0A0E00197A109EC
:102E6000B1098F3F9F4FA105B10540F082E090E08E
:102E7000FA01918380838EEF9FEFE4CF7A0183E1A3
:102E8000809F6001819FD00C1124C6010E943F22C7
:102E9000EC01009741F482E090E0F7019183808398
:102EA0008DEF9FEFCFCFA60170E060E00E9450321F
:102EB000D0930B04C0930A0410930D0400930C04E8
:102EC00090E080E02FEF3FEF41E061E070E080179D
:102ED000910741F481E090E0F7019183808390E0D5
:102EE00080E0B0CF3A8B298B1B864C877E876D871D
:102EF000188A1F8601966396EACFEF92FF921F937E
:102F0000CF93DF93EC0110E0F12CE12C6A811617CE
:102F1000B0F083E0689FB0011124AE014F5E5F4FB7
:102F2000C7010E94A422009721F02FEF3FEF3A8BB8
:102F3000298BDF91CF911F91FF90EF900895612F22
:102F4000CE018DDC61E070E00E94EC20E816F9060D
:102F500008F47C011F5FDACFF894209108043091C7
:102F6000090481E02115310509F080E0232B09F0E7
:102F7000789408952F923F924F925F926F927F9232
:102F80008F929F92AF92BF92CF92DF92EF92FF9279
:102F90000F931F93CF93DF933C01660E771EF301CF
:102FA000828193814C01B12CA12CC0910A04D09153
:102FB0000B04209769F021E030E060910C047091DF
:102FC0000D048617970710F030E020E0232BD1F492
:102FD00082E090E0FA01918380838EEF9FEFDF9192
:102FE000CF911F910F91FF90EF90DF90CF90BF9006
:102FF000AF909F908F907F906F905F904F903F9099
:103000002F9008958092910290929202A092930242
:10301000B092940263E1689F9001699F300D112482
:10302000C20FD31FF3018181833040F082E090E032
:10303000FA019183808386EF9FEFD1CF2A012B8104
:103040003C81232BF1F4288139819F8191FF2EC08F
:10305000232B09F46FC020910F049A81422F490F4E
:103060005527551FBA0141E050E06138710514F051
:1030700050E040E0452B09F45DC02A87920F909301
:103080000F048150823008F481C066DF882309F480
:10309000D8C0F3018181813009F48DC008F47BC070
:1030A000823009F4C6C090E080E0ADC0232B09F463
:1030B00041C020910E049A81E22FE90FFF27FF1FE4
:1030C00041E050E0ED3FF10514F050E040E0452BC9
:1030D00089F12A87920F90930E04D3CFA081B181FA
:1030E000A20FB31F11966C91060F111D0196295F57
:1030F0003F4F8417950794F38D859E85089F100197
:10310000099F300C189F300C1124C114D104D1F444
:103110008F8184FF17C00E943A21F5E02F0E311CE9
:1031200021E08215930508F420E0A701435F5F4F7B
:1031300021110EC082E090E0F2019183808387EF3D
:103140009FEF4DCF0E943A212FEF221A320AE8CF8B
:1031500088819981E80EF91EF70114830383FFEF3C
:10316000CF1ADF0A7A018A818C151D0409F00CF44C
:103170008CCFE881F981EE0DFF1D428150E030E0F7
:1031800020E010E000E090E080E0B3CFF12CE12CF3
:10319000D12CC12CE8CF81E090E09C838B83F1DAC5
:1031A000882309F480CF81E090E00E943E1080E403
:1031B0000E944C1078CF89899A89019661F083E04A
:1031C00090E09C838B8382E090E00E943E1080E43C
:1031D0000E94461068CF8D819E8120918702309198
:1031E000880282179307D1F460918B0270918C0250
:1031F000AE014F5E5F4F8091890290918A020E94DA
:10320000C3230097E1F2789422E030E0F2013183A9
:103210002083892B99F08DEF9FEFE1CE89288A28B2
:103220008B2869F6892B59F6CE0167DE188A1F862E
:10323000E8CF82E090E09C838B8335CF90E080E004
:10324000CECE82E090E0F2019183808385EF9FEF04
:10325000C6CE8F929F92AF92BF92CF92DF92EF92A3
:10326000FF920F931F93CF93DF93EA018C01060F18
:10327000171FF8018181833098F082E090E09983F4
:10328000888386EF9FEFDF91CF911F910F91FF9081
:10329000EF90DF90CF90BF90AF909F908F90089568
:1032A00080910A0490910B04892B61F081E090E0F9
:1032B00020910C0430910D04232B11F490E080E058
:1032C000892B39F482E090E0998388838EEF9FEF19
:1032D000DACF42DE882309F4DFC0F8018181813032
:1032E00009F495C0E8F0823099F420910C043091F3
:1032F0000D04E0910A04F0910B0490E080E041E0BD
:1033000050E02817390709F0BDC03BDA811117C01A
:10331000789481E090E09983888390E080E0B3CF57
:1033200020910C0430910D04E0910A04F0910B04FB
:1033300090E080E041E050E02817390741F481E057
:1033400090E00E943E1080E40E944C10E1CF638127
:103350007481672B11F05483438301967396ECCFED
:10336000E0910A04F0910B04E00FF11F23813481F6
:1033700022303105D9F4218932892F3F3F4FB1F4F2
:1033800025813681409187025091880224173507A4
:1033900061F5AF014F5E5F4F60918B0270918C02BF
:1033A0008091890290918A020E94C323EFEFCE1A86
:1033B000DE0AEE0AFE0A0D5E1F4F40910C0450918A
:1033C0000D0470E060E0C416D506E606F7063CF58D
:1033D000009731F27894892B09F49BCF82E090E03A
:1033E000998388838DEF9FEF4ECFC114D104E10400
:1033F000F104E1F6232BD1F6CF017FDDE0910A0441
:10340000F0910B04E00FF11F108A1786CFCF10E068
:1034100000E090E080E0C12CD12C7601CECF009767
:10342000C9F610E000E0812C912C540183E0E82ED5
:10343000F12C1AC0E0910A04F0910B04E00FF11F87
:1034400083819481029749F4F482E38282E090E0E0
:103450000E943E1080E40E944610FFEF8F1A9F0AE0
:10346000AF0ABF0A0D5E1F4F80910C0490910D04AE
:10347000B0E0A0E088169906AA06BB06DCF290E050
:1034800080E0A8CF638174816230710511F45483A8
:1034900043830196739635CF82E090E099838883C9
:1034A00085EF9FEFF0CE0097B9F48FEFFB0180839B
:1034B000209191023091920243E1429FC001439FCB
:1034C000900D1124E0910A04F0910B04E80FF91F0C
:1034D0008285FB01818308950C94F50F88E090E0CC
:1034E000FA019183808390E080E0089510920904AE
:1034F00010920804EAE0F4E086E0DF011D928A956C
:10350000E9F780E096E1909307048093060408951C
:10351000809106049091070408952F923F924F9254
:103520005F926F927F928F929F92AF92BF92CF9253
:10353000DF92EF92FF920F931F93CF93DF93CDB75C
:10354000DEB72F970FB6F894DEBF0FBECDBFF8944D
:10355000E0910804F09109043196F0930904E09396
:103560000804789440900A0450900B0441145104CC
:1035700009F40CC2E0910C04F0910D04EF2B09F456
:1035800005C22D8749875A876B877C8798878F83E9
:103590001201B12CA12C10E000E080910C0490915C
:1035A0000D04A816B90618F40115110529F1F894AF
:1035B00080910804909109040197909309048093E5
:1035C00008047894C8012F960FB6F894DEBF0FBE9A
:1035D000CDBFDF91CF911F910F91FF90EF90DF90C2
:1035E000CF90BF90AF909F908F907F906F905F90A3
:1035F0004F903F902F9008957101E418F508D10184
:1036000017968C91179781FD54C013968D919C91BC
:103610001497039709F04DC015968D919C91EF81F9
:10362000F8858E179F0709F044C0B50190E080E04F
:103630007FD48A8320910A0430910B043D832C832C
:103640003D85332309F44CC04C815D81452B09F441
:103650009AC180910C0490910D04A816B90608F047
:1036600092C1C501D8D88823E9F06C817D816E0DA7
:103670007F1D7D836C83DB011F968D919C91892B2F
:1036800089F0D12CC12CF12CE12CAC81BD8112969A
:103690008C9112978E151F0409F094F450961C9289
:1036A0001E921F972A81222321F0B50190E080E02D
:1036B00041D43FEFA31AB30A43E1240E311C6DCF6E
:1036C000AC81BD81ED91FC91EC0DFD1D8581968154
:1036D0000FD7BFEFEB1AFB0AEDE0CE0ED11CD5CF12
:1036E000EC81FD81309709F44EC180910C049091DA
:1036F0000D04A816B90608F046C1EE0DFF1DFF87A0
:10370000EE87C50188D88B83882339F1AE85BF85C4
:103710001F968D919C915097019621E01D964D9199
:103720005C918417950709F020E02E831982712C93
:1037300010E000E0AE85BF8512968C91781608F4F3
:103740005DC0EE85FF8587859089019665857685C4
:103750000E94F031908B8787A5CFB1E0BE83E6CF82
:10376000992493946BC08BD6F6019683858382C08F
:10377000D601ED90FC90B7E06B9EE00CF11C11249B
:10378000F7016381748180818F3F61F121E030E036
:1037900002C0220F331F8A95E2F7C901092E000CDF
:1037A000AA0BBB0BFB014081518162817381842391
:1037B0009523A623B72321E0892B8A2B8B2B09F491
:1037C00020E0D4012C93D70111968C91F60123852A
:1037D0003485820F932F911D880E991E14861386AF
:1037E00063949BC0418150E0C4010E944732EBCFFB
:1037F000998206EF1FEFC5C01982C3C0F981F1118C
:10380000A0CFEDE07E9E70011124AE85BF85CD90E6
:10381000DC90CE0CDF1C15D49D838C83BB81BB2335
:1038200009F49ECF81E0EE85FF8527853089232B23
:1038300009F080E0982E882309F458C0672D8E8502
:103840009F850DD8D60118969C938E93179761E0AB
:1038500070E0C2D4EE85FF85218932892F3F32077F
:1038600009F481CFBC01C901CFD7D60116969C932C
:103870008E931597D60115968D919C91169700976A
:1038800009F4B6CFEC81FD818E0F9F1F1A969C9391
:103890008E931997AE85BF85ED91FC911197EE0E31
:1038A000FF1EF70121853285148613861A968C91A6
:1038B000870DD9018D93711016C0EE85FF85878124
:1038C00084FF11C049855A856B857C85F901418348
:1038D000528363837483F701838594850496A80FCC
:1038E000B91F14861386F701B287A187D6011596F2
:1038F0008D919C911697892B09F443C0EE85FF8525
:103900002581368180918702909188022817390796
:1039100079F019968D909C90612CD60112968C911D
:103920001297681608F424CF1A969C928E921997D3
:10393000BE81BB2309F460CF61E070E0F6018781AE
:1039400090854AD4D6011796ED90FC90189715965D
:103950004D915C91E1E0F0E0BA81BB2311F0F0E021
:10396000E0E00C811D819C01B501882799278E1B01
:103970009F0B6AD38C01892B21F0F60185819681FA
:10398000B7D57394D7CE0FEF1FEF8CCE10E000E0C9
:103990000ECE2F923F924F925F926F927F928F92B4
:1039A0009F92AF92BF92CF92DF92EF92FF920F93CE
:1039B0001F93CF93DF9380910A0490910B0410E042
:1039C00000E0892BA9F0C8DA0AEF1FEF882381F005
:1039D00020900C0430900D04C0910A04D0910B0487
:1039E000D12CC12C10E000E02C143D04A9F47894F3
:1039F000C801DF91CF911F910F91FF90EF90DF9061
:103A0000CF90BF90AF909F908F907F906F905F907E
:103A10004F903F902F900895C6010E940B14882369
:103A200009F18B819C810397E9F48F859889892B13
:103A3000C9F0B60190E080E07BD221E030E088233D
:103A400011F030E020E044245524421A530AB12CEE
:103A5000A12C912C812C8A818815190409F038F445
:103A6000188A1F864FEFC41AD40A6396BDCFE88127
:103A7000F981EA0DFB1D85819681892BA1F161E019
:103A800070E087819085A8D33C01DBD28C01E8816E
:103A9000F981EA0DFB1D8185928525813681200FF4
:103AA000311FAC01421B530B9A0147815085421BC9
:103AB000530B70E060E00E945032E881F981EA0D1A
:103AC000FB1DE780F084458156819301B601C20158
:103AD000BBD28C01892B39F0E881F981EA0DFB1DFD
:103AE0008581968105D55FEF851A950A8DE0A80E30
:103AF000B11CB1CF31CA789408952F923F924F9262
:103B00005F926F927F929F92AF92BF92CF92DF921D
:103B1000EF92FF920F931F93CF93DF9300D000D0CB
:103B2000CDB7DEB700910A0410910B049924939449
:103B30000115110509F43EC0A0900C04B0900D04CD
:103B40000BDA982E8823B1F110920B0410920A041C
:103B500010920D0410920C0410920E0410920F0497
:103B60008FEF9FEFDC018093910290939202A093DC
:103B70009302B093940278947FD31E830D83C12C5B
:103B8000D12C7601C501B0E0A0E089839A83AB8394
:103B9000BC8322242A94322C89819A81AB81BC81F6
:103BA000C816D906EA06FB06F4F0C801A1D480E4E1
:103BB0000E944C10892D26960FB6F894DEBF0FBEDA
:103BC000CDBFDF91CF911F910F91FF90EF90DF90CC
:103BD000CF90BF90AF909F907F906F905F904F90ED
:103BE0003F902F900895AD81BE8115968D919C9147
:103BF0001697209187023091880282179307D1F49B
:103C000051968D919C91EED5ED81FE8180819181BF
:103C1000B12CA12C412C512C3201892B89F5BFEFFD
:103C2000CB1ADB0AEB0AFB0AED81FE817396FE8359
:103C3000ED83B2CFC114D104E104F10429F7892B3B
:103C400019F7ED81FE81818992898F3F980709F0EC
:103C500029D5AD81BE8152963C922E925197D4CFF8
:103C60008A0D9B1DDC018D919C91009709F040D439
:103C7000BFEF4B1A5B0A6B0A7B0AEDE0AE0EB11C7C
:103C8000AD81BE818D919C91119712964C9150E01F
:103C900070E060E044165506660677060CF328D4FB
:103CA000BECFCF93DF93EA0128DF811109C082E004
:103CB00090E09983888385EF9FEFDF91CF910895FE
:103CC00081E090E00E943E1081E090E0998388833B
:103CD00090E080E0F2CF11DF10920704109206040A
:103CE000089542E050E06DE173E00C945C10FF92A7
:103CF0000F931F93CF93DF938A01EC01C60FD71F59
:103D0000F980B9D20897F816190671F068F082E0C8
:103D100090E0F801918380838EEF9FEFDF91CF9148
:103D20001F910F91FF9008956C817D818E819F81FD
:103D30004B810E94F112811108C082E090E0F801ED
:103D40009183808384EF9FEFE9CFF9800E94EC128A
:103D50004F2D50E0BE01685F7F4F0E94473289813E
:103D60000E945B1381E090E0F8019183808390E0F2
:103D700080E0D4CFDF92EF92FF920F931F93CF9307
:103D8000DF938A01EC01C60FD71F0E94EC127C0161
:103D9000D98071D2DD2059F0029721E030E0D816A9
:103DA000190619F010F030E020E0232B79F482E0BE
:103DB00090E0F801918380838EEF9FEFDF91CF91A8
:103DC0001F910F91FF90EF90DF900895EF2841F43D
:103DD00082E090E0F8019183808384EF9FEFEECF43
:103DE000F9800E94EC124F2D50E0BE016E5F7F4FB4
:103DF0000E94473289810E945B1381E090E0F801C4
:103E00009183808390E080E0D9CF81E79EE1909319
:103E1000110480931004089580911004909111046E
:103E200008950895FC01118210829383828308957E
:103E3000DB011D921C92DC011296ED91FC9113970F
:103E40007183608313967C936E9312970895FC019F
:103E500080819181DB018D939C93A081B18110972A
:103E600041F08D919C9191838083892B11F4F38390
:103E7000E2830895FC0180819181DB018D939C9305
:103E8000892B11F473836283718360830895FC012D
:103E900011821082938382830895CF93DF931F92C0
:103EA0001F92CDB7DEB71A821982F894BE016F5FF8
:103EB0007F4F87E194E0CBDF89819A81009709F0F9
:103EC00017D389819A81892B89F7BE016F5F7F4F54
:103ED0008BE194E0BCDF89819A81009709F008D3D7
:103EE00089819A81892B89F778940F900F90DF91BF
:103EF000CF910895CF93DF931F921F92CDB7DEB776
:103F00001A821982F894BE016F5F7F4F83E194E0BB
:103F10009EDF89819A81009709F0EAD289819A818E
:103F2000892B89F778940F900F90DF91CF910895A6
:103F300081E0089590E080E00895EF92FF920F9362
:103F40001F93CF93DF931F921F92CDB7DEB71A82D4
:103F500019828091120407EF1FEF8823A1F1F894D2
:103F6000BE016F5F7F4F8BE194E071DF78948981B0
:103F70009A81EE24E394F12C892B51F4F894BE013C
:103F80006F5F7F4F87E194E062DF7894F12CE12C42
:103F900089819A810EEF1FEF0097A9F0FC01428101
:103FA000538164E070E074D68C01892B61F0F89441
:103FB00069817A81C701880F991F880F991F895ECF
:103FC0009B4F58DF7894C8010F900F90DF91CF91ED
:103FD0001F910F91FF90EF9008950F931F93CF9330
:103FE000DF9300D01F92CDB7DEB71C821B821A82EE
:103FF00019828091120407EF1FEF8823C1F0AE01F0
:104000004D5F5F4F64E070E0CE010196B4D68C0145
:10401000892B69F4E981FA818B819C819383828366
:10402000F89469817A8183E194E002DF7894C80191
:104030000F900F900F900F90DF91CF911F910F91E4
:104040000895B9D7049608958F929F92AF92BF9228
:10405000CF92DF92EF92FF920F931F93CF93DF9354
:104060001F921F92CDB7DEB71A821982BC016F5F13
:104070007F4F6330710598F0AA24AA94BA2CC50129
:104080000F900F90DF91CF911F910F91FF90EF90C4
:10409000DF90CF90BF90AF909F908F900895411583
:1040A000510551F3480159018A016C01CADF881595
:1040B000990511F7E114F104F9F28E0D9F1DA81670
:1040C000B906D0F2809112048823F1F0F894B5017A
:1040D000645071099701AE014F5F5F4FC8010496AC
:1040E000DFD65C01892B71F489819A81F801938371
:1040F0008283C601880F991F880F991FB801895EB6
:104100009B4F96DE7894BBCF87EFA82EBB24BA9442
:10411000B6CFAF92BF92CF92DF92EF92FF920F9302
:104120001F93CF93DF931F921F92CDB7DEB71A82F2
:104130001982892B09F047C06115710509F443C044
:104140004115510509F43FC02115310509F43BC063
:1041500001151105C1F1809112048823B9F179018B
:104160006A015B01F894BE016F5F7F4F83E194E0C9
:104170006EDE789489819A81009759F1DC0112965C
:104180006D917C91A8010496A4D68C01E981FA81F5
:10419000D501ED93FC93828193810496F60191837E
:1041A00080834FDFD7018D939C93C8010F900F90B0
:1041B000DF91CF911F910F91FF90EF90DF90CF9003
:1041C000BF90AF9008950FEF1FEFEFCF07EF1FEFF6
:1041D000ECCF0EEF1FEFE9CFCF93DF93EC01672B0E
:1041E00071F4F2D68C179D0760F0E5D62496C80FBF
:1041F000D91FE4D68C0F9D1FDF91CF910895E1D692
:10420000F1CF90E080E0F8CF0F931F93CF93DF932F
:104210002091120421112BC08B01EC0187E194E065
:1042200001DE8BE194E0FEDD83E194E0FBDD97D0DD
:104230000097C1F4C9D670E060E0CEDF45E952E0F6
:1042400062E070E081D1009769F4809195029091CD
:104250009602CCD6B801CE0101D5009719F421E021
:1042600020931204DF91CF911F910F91089584EF55
:104270009FEFF8CFA6C6A8C6CF93DF93A8D6EC01D0
:10428000892B11F40ADE36DECE01DF91CF9108953D
:10429000CF93DF939CD6EC01892B09F4FEDDCE0190
:1042A000DF91CF91089580919502909196020895A3
:1042B000CF93DF9380911204D0E0C0E08823D1F047
:1042C0009AD6EC01892BB1F4E8DD14DE80919502D9
:1042D00090919602E7D1E8D2EC01892B59F487E15D
:1042E00094E0D5DD8BE194E0D2DD83E194E0CFDD95
:1042F00010921204CE01DF91CF910895EF92FF92B8
:104300000F931F93CF93DF93EC017A018B010F5F23
:104310001F4F0E9DA0010F9D500D1E9D500D11248D
:1043200070E060E00E94503290E080E0F0E0E0E079
:104330002FEFE816F90639F4DF91CF911F910F9115
:10434000FF90EF9008951A8219822883309711F018
:10435000D283C1830196FE01C00FD11FEACFCF9255
:10436000DF92EF92FF920F931F93CF93DF9304EBB3
:1043700015E00C7F43E050E067E972E08DE992E0E0
:104380001AD487E9E82E82E0F82E9DE9C92E92E042
:10439000D92ECBE4D6E0D7014D915D917D01F60198
:1043A000619171916F01198308835D834C835B83F5
:1043B0004A837F836E839B012F5F3F4F249FC00101
:1043C000259F900D349F900D1124998788870115A2
:1043D000110511F0C80192DF88859985080F191F12
:1043E0002A96FDE9EF16F2E0FF06A9F6E1E2F4E015
:1043F00080E991E0DF019C011D9221503040E1F7FE
:104400001092200410921F0410926A0610926906FE
:1044100010926E0610926D0610926C0610926B064A
:104420001092700610926F0610927206109271062A
:104430001092740610927306109278061092770606
:10444000109276061092750610927A0610927906EE
:1044500010927C0610927B06109248061092470636
:1044600010924A061092490690E080E0DF91CF91C9
:104470001F910F91FF90EF90DF90CF9008950097DC
:10448000F1F0F894ADE9B2E0EBE4F6E030E020E0E2
:104490004D915D9148175907A8F04281538141150C
:1044A000510581F08AE0829FF001839FF00D112475
:1044B000E55BF94F80819181009759F4789490E001
:1044C00080E008952F5F3F4F3A962330310501F782
:1044D000F5CFDC0111966D917C9171836083415021
:1044E000510953834283FC012193CF0178940895AD
:1044F000009749F1DC018E91853041F4E091490645
:10450000F0914A063097F9F0CD0119948530D8F42E
:10451000282F30E0F8948FEF8C938AE0829FF0018F
:10452000839FF00D1124E55BF94F808191811296F4
:104530009C938E931197B183A0838281938101967E
:104540009383828378940895CF92DF92EF92FF92C3
:104550000F931F93CF93DF939C0184E294E08C7FB1
:104560004115510509F49BC02115310509F497C087
:104570006115710509F493C07A01AB01B9016D5F52
:104580007F4F6C7F9B012F5F3F4F249F8001259FB2
:10459000100D349F100D1124F8942091690630916C
:1045A0006A06232B59F42091710630917206211569
:1045B000310569F12017310708F058C020917306C2
:1045C00030917406232B91F420917106309172067C
:1045D000820F931F20917B0630917C0621153105B7
:1045E00009F441C02017310708F056C07894CFEF86
:1045F000DFEF86EF9FEFF701D183C083DF91CF918B
:104600001F910F91FF90EF90DF90CF900895C3E03E
:10461000D0E0C0901F04D09020042DE831E02C1988
:104620003D092017310710F32AE02C9FF0012D9F40
:10463000F00D1124E55BF94F91838083558344830A
:10464000538342837783668311870087009709F03D
:1046500055DE0C0D1D1D1093200400931F0478944B
:1046600090E080E0C8CFC4E0D0E0D3CFC3E0D0E09A
:104670002AE02C9FF0012D9FF00D1124E55BF94FEE
:1046800091838083558344835383428377836683F6
:10469000009729F333DEE3CFC4E0D0E0E9CF8FEF1A
:1046A0009FEFACCF9C010397029708F069C0F89484
:1046B00084E09AE0482F50E0241735070CF44DC0F1
:1046C00091E08AE0829FF001839FF00D1124E55B69
:1046D000F94F11821082158214821382128217827E
:1046E00016829923B1F18091690690916A06892B0F
:1046F000A9F420917106309172062115310571F0EF
:1047000080911F0490912004821B930B90932004AE
:1047100080931F04109272061092710680917306A6
:1047200090917406892BA9F420917B0630917C0628
:104730002115310571F080911F0490912004821B96
:10474000930B9093200480931F0410927C06109288
:104750007B06789490E080E00895949FF001959F07
:10476000F00D1124E55BF94F40815181452B31F467
:1047700040855185452B11F481509CCF90E0A1CF0D
:104780008FEF9FEF08954115510549F1009739F1D9
:104790006115710521F1F894209147063091480682
:1047A000232BB9F42091490630914A06232B89F432
:1047B000909348068093470670934A066093490693
:1047C000789425E030E090E080E0FA0131832083A6
:1047D000089578942FEF3FEF86EF9FEFF6CF8FEF9E
:1047E0009FEF0895059769F4F89410924806109287
:1047F000470610924A0610924906789490E080E0AD
:1048000008958FEF9FEF08956115710519F4F0E099
:10481000E0E011C08530910581F4E0914706F09108
:1048200048063097A1F3CB0101961995009779F3CB
:10483000FC0185E08193CF0108959C01235031094B
:104840002230310520F72AE0289FD001299FB00DA2
:104850001124A55BB94F2D913C911197232BB9F2EF
:1048600016962D913C9117972617370780F2F894EA
:1048700012962D913C9113972115310529F0ED9158
:10488000FC911197309711F47894C1CF41815281F6
:1048900011965C934E932150310913963C932E93BD
:1048A000129781937894C7CFE1EBF5E086E9DF01B9
:1048B0001D928A95E9F7E1E2F4E080E991E0DF01F9
:1048C0009C011D9221503040E1F71092200410927B
:1048D0001F04EBE4F6E082E3DF011D928A95E9F71D
:1048E000E7E4F6E084E0DF011D928A95E9F790E0C5
:1048F00080E00895CF93DF93C091A302D091A402EA
:10490000CF3FDC0759F420D49093A4028093A302F4
:1049100097FF09C0D093A402C093A30284EF9FEF36
:10492000DF91CF91089590E080E0FACF8230910539
:1049300028F480937D0690E080E008958FEF9FEF4C
:1049400008954F925F926F927F92AF92BF92CF92F3
:10495000DF92EF92FF920F931F93CF93DF931F92FB
:104960001F92CDB7DEB71A821982009709F478C07A
:104970006115710509F474C02091A3023091A4025D
:1049800007EF1FEF2F3F3F4F09F444C06B015C015D
:10499000412C512C3201F12CE12C10E000E09E0161
:1049A0002F5F3F4FA6014E195F09B5016E0D7F1DA8
:1049B0008091A3029091A40226D4892B09F04AC0C9
:1049C00089819A81009741F4E114F10429F420913E
:1049D0007D06222309F441C0E80EF91EEC14FD0403
:1049E000C8F480E8481684E858068EE16806710429
:1049F00018F560E070E0CB010DD72AE0420E511CA3
:104A0000611C711C0A3F4FEF140721F0043F8FEF28
:104A10001807A1F4C8010F900F90DF91CF911F915B
:104A20000F91FF90EF90DF90CF90BF90AF907F906D
:104A30006F905F904F90089501EF1FEF81E090E03D
:104A4000013F2FEF120711F090E080E0892B09F46D
:104A5000A6CFE0CF04EF1FEFDDCF0AEF1FEFDACFD5
:104A60000FEF1FEFD7CF4F925F926F927F92AF926F
:104A7000BF92CF92DF92EF92FF920F931F93CF934B
:104A8000DF931F921F92CDB7DEB71A82198200976B
:104A900009F478C06115710509F474C02091A3026E
:104AA0003091A40207EF1FEF2F3F3F4F09F444C09E
:104AB0006B015C01412C512C3201F12CE12C10E0F6
:104AC00000E09E012F5F3F4FA6014E195F09B5011F
:104AD0006E0D7F1D8091A3029091A4024AD3892B71
:104AE00009F04AC089819A81009741F4E114F104E8
:104AF00029F420917D06222309F441C0E80EF91E15
:104B0000EC14FD04C8F480E4481682E458068FE0F3
:104B10006806710418F560E070E0CB017BD62AE0EE
:104B2000420E511C611C711C0E3F4FEF140721F007
:104B3000043F8FEF1807A1F4C8010F900F90DF9189
:104B4000CF911F910F91FF90EF90DF90CF90BF908A
:104B5000AF907F906F905F904F90089502EF1FEF9E
:104B600081E090E0023F2FEF120711F090E080E02B
:104B7000892B09F4A6CFE0CF04EF1FEFDDCF0EEFB6
:104B80001FEFDACF0FEF1FEFD7CF8091A3029091E5
:104B9000A4028F3F980749F0CFD2892B49F48FEFB9
:104BA0009FEF9093A4028093A30290E080E0089589
:104BB00084EF9FEF0895CF92DF92EF92FF920F93D1
:104BC0001F93CF93DF9321E04115510509F020E0B9
:104BD0004150510921112CC0DC01FB01D12CC12C09
:104BE00021E022C03FEFC31AD30A7D010D911D9130
:104BF000E701EA80FB80E016F106A8F4208131810C
:104C0000E280F380F182E08233832283ED90FC9096
:104C100011979D0122503109E901F982E88211962C
:104C20001C930E9320E03296C416D506D8F2D2CF4C
:104C3000DF91CF911F910F91FF90EF90DF90CF9078
:104C40000895FC01680F791F90E080E0E617F707F0
:104C500009F408952191820F911DF8CF20917E06CD
:104C6000211113C047DE009791F410928406109230
:104C7000830610928206109281061092800610928E
:104C80007F0621E020937E06089584EF9FEF08952C
:104C9000AF92BF92CF92DF92EF92FF920F931F934A
:104CA000CF93DF93009709F460C04630510508F4B4
:104CB0005CC020917E06C7EFDFEF222309F449C0D4
:104CC0008C01060F171FF801C080D180C114D104D8
:104CD00009F44EC096012A5F3F4F4217530708F46C
:104CE00047C07C01809183069091840693838283E0
:104CF000B6016C5F7F4F5801A60EB71EC801A1DF39
:104D0000F5019183808364E070E0C8011ADEEC0154
:104D1000892BF9F481E090E009DEB601C801049620
:104D200010DEEC01892B91F462E070E0C50109DE30
:104D3000EC01892B59F4C701DBDB8091830690914C
:104D400084060196909384068093830690E080E029
:104D5000EDDDCE01DF91CF911F910F91FF90EF908C
:104D6000DF90CF90BF90AF900895CFEFDFEFF1CFFE
:104D7000C9EFDFEFEECF6F927F928F929F92AF924B
:104D8000BF92CF92DF92EF92FF920F931F93CF9338
:104D9000DF9300D01F92CDB7DEB7009709F47AC039
:104DA0004115510509F476C020917E0607EF1FEFEB
:104DB000222309F44DC03A017B015C0164E070E0FC
:104DC000CE01019650DE8C01892B09F041C009818A
:104DD0001A810115110509F45AC0480186E0880EB0
:104DE000911CB701680D791D8091A5029091A602D2
:104DF0000BDD6C01009709F450C0A70170E060E082
:104E00000E94503289819A81AB81BC81EC0CFD1CDF
:104E1000F70181939193A193B1937F0181E090E099
:104E200085DDB801C7011FDE892B31F562E070E036
:104E3000C701800F911F17DE8C01892BE9F490E0E8
:104E400080E074DDF501D182C082F301918280821D
:104E5000C8010F900F900F900F90DF91CF911F918D
:104E60000F91FF90EF90DF90CF90BF90AF909F9009
:104E70008F907F906F90089590E080E057DDF5016E
:104E800011821082F30111821082C60131DB09EF19
:104E90001FEFDECF0FEF1FEFDBCF06EF1FEFD8CFF7
:104EA0000097A1F04115510589F02115310571F0E8
:104EB000F90136966E177F0748F0DC012D933C937D
:104EC000DA01ED93FC9390E080E008958FEF9FEF7F
:104ED0000895AF92BF92CF92DF92EF92FF920F931D
:104EE0001F93CF93DF93009709F45FC041155105DD
:104EF00009F45BC06530710508F457C020917E0647
:104F0000C7EFDFEF222391F1DC01CD90DC90119708
:104F10001296ED91FC9196012A5F3F4FC9EFDFEFAA
:104F20002617370719F5C0917F06D0918006209784
:104F300049F521E030E03093800620937F067A0126
:104F40008C01F0938206E09381065601B4E0AB0E2B
:104F5000B11CB50176DE0A0D1B1DF80120813181DF
:104F60008217930729F5D701CD92DC92CE01DF910C
:104F7000CF911F910F91FF90EF90DF90CF90BF9056
:104F8000AF90089520918106309182062F5F3F4FA8
:104F9000CCEFDFEFE217F30790F2CBEFDFEF2E1746
:104FA0003F0768F2D0E0C0E0CACFCFEFDFEFDECF3F
:104FB000C3EFDFEFDBCF84E090E0089582E090E084
:104FC00008958CEF9FEF089580E290E0089510928D
:104FD0008406109283061092820610928106109227
:104FE000800610927F0690E080E008959093A602DC
:104FF0008093A502089580917E06882391F0C5DDF7
:10500000009789F41092840610928306109282060B
:10501000109281061092800610927F0610927E06F2
:10502000089590E080E00895009749F061157105BA
:1050300031F0FC0111821082FB011182108208956F
:10504000F3CF26E030E040E855E260E070E090E029
:1050500080E000C08130910569F01CF4892B39F0A3
:1050600008958230910549F0039751F0089582E93F
:1050700096E0F8C68FE297E0FCCF8CEC97E0F9CF92
:1050800089E698E0F6CF1F920F920FB60F92112487
:105090000BB60F922F933F934F935F936F937F9332
:1050A0008F939F93AF93BF93EF93FF938FE89DEF01
:1050B0009093250180932401BAD0FF91EF91BF9185
:1050C000AF919F918F917F916F915F914F913F91A0
:1050D0002F910F900BBE0F900FBE0F901F90189541
:1050E0008FE89DEF9093250180932401A3E7B0E022
:1050F0008C918E7F8C93E0E2F1E080818C7F8083C5
:10510000E1E2F1E08081877E80838081846080831A
:1051100080818C7F80838C9181608C930895E3E7FC
:10512000F0E0808190819E7F90838170089581E07E
:10513000089510928506089568EE73E080E090E08F
:1051400069D390E080E0089526E030E040E050E14F
:105150006EE070E090E080E07DDF82E996E0B8D517
:10516000892B21F082E996E0CDD5F7CF90E080E061
:105170000895CF92DF92EF92FF920F931F93CF93F8
:10518000DF936B017A01E9011982188282E996E0C6
:105190009FD5892B69F18601CC24C39482E0D82E57
:1051A00080918506811110C082E996E0ABD5029707
:1051B000B9F7C0928506F801D1928F018881998153
:1051C000019699838883ECCF888199818E159F05FC
:1051D00078F482E996E096D58F3F9807A9F3F80115
:1051E00081938F0188819981019699838883ECCF7F
:1051F00090E080E0DF91CF911F910F91FF90EF90B1
:10520000DF90CF9008950F931F93CF93DF93EA0120
:10521000890182E996E00E94C231F801D183C083FE
:1052200090E080E0DF91CF911F910F910895CF9290
:10523000DF92EF92FF92CF93DF938091860691E009
:10524000980F90938606882379F021E030E0309320
:1052500088062093870680938606DF91CF91FF9082
:10526000EF90DF90CF9008957894C091A902D091EB
:10527000AA026E8D7F8D88A199A144D120E030E0F3
:1052800040E85FE4F5D16B017C016A8D7B8D8C8DEC
:105290009D8D38D19B01AC01C701B6019AD006D1D2
:1052A0006B017C010E945205B701A60190E080E0ED
:1052B0000E94C404F894809186068150CCCF0F934D
:1052C0001F93CF93DF931092510910925009D8D2B7
:1052D000B8DEC091A902D091AA021982188268E8AA
:1052E00073E180E090E00E94470570E060E090E0AC
:1052F00080E00E94C803009709F03AC00E94FD08B0
:10530000F8947894BE016A5D7F4F8A819B810E94E8
:10531000CB03892B59F46FEF7FEFCB010E945A0426
:105320000E944105882311F081E08AA7F894D8DE15
:105330000E944405882311F080E008C00E944105C6
:105340008111FACF81E09AA59111F6CF809350098F
:1053500078940E9439108C017894809150098111C1
:105360000CC00E94C6090E942605F89490E080E0D7
:10537000DF91CF911F910F9108950E9424050E9403
:1053800044058823D9F081E0809351099091510917
:1053900081E0911180E08093500980915109811141
:1053A000BEDE0130110529F40E943910892B09F461
:1053B000C0DE0E9439108C01BADECFCF0E944105B9
:1053C0008111E1CF81E09AA59111DECF80E0DCCFA1
:1053D0005058BB27AA270ED00DC1FED030F003D104
:1053E00020F031F49F3F11F41EF4F3C00EF4E09569
:1053F000E7FBE9C0E92F0FD180F3BA176207730703
:105400008407950718F071F49EF527C10EF4E09516
:105410000B2EBA2FA02D0B01B90190010C01CA016E
:10542000A0011124FF27591B99F0593F50F4503E19
:1054300068F11A16F040A22F232F342F4427585F0B
:10544000F3CF469537952795A795F0405395C9F723
:105450007EF41F16BA0B620B730B840BBAF09150DB
:10546000A1F0FF0FBB1F661F771F881FC2F70EC07A
:10547000BA0F621F731F841F48F48795779567954D
:10548000B795F7959E3F08F0B3CF9395880F08F036
:105490009927EE0F97958795089571D008F481E0CC
:1054A000089504D06894B111D9C00895BCD088F093
:1054B0009F5790F0B92F9927B751A0F0D1F0660F00
:1054C000771F881F991F1AF0BA95C9F712C0B1301B
:1054D00081F0C3D0B1E00895C0C0672F782F88272E
:1054E000B85F39F0B93FCCF3869577956795B3955A
:1054F000D9F73EF490958095709561957F4F8F4FC9
:105500009F4F0895E89409C097FB3EF490958095CD
:10551000709561957F4F8F4F9F4F9923A9F0F92F79
:1055200096E9BB279395F695879577956795B795F7
:10553000F111F8CFFAF4BB0F11F460FF1BC06F5FDD
:105540007F4F8F4F9F4F16C0882311F096E911C0EF
:10555000772321F09EE8872F762F05C0662371F010
:1055600096E8862F70E060E02AF09A95660F771F24
:10557000881FDAF7880F9695879597F90895990F00
:105580000008550FAA0BE0E8FEEF16161706E8070D
:10559000F907C0F012161306E407F50798F0621B2E
:1055A000730B840B950B39F40A2661F0232B242B03
:1055B000252B21F408950A2609F4A140A6958FEF22
:1055C000811D811D089597F99F6780E870E060E074
:1055D00008959FEF80EC089500240A94161617068C
:1055E00018060906089500240A94121613061406D4
:1055F00005060895092E0394000C11F4882352F037
:10560000BB0F40F4BF2B11F460FF04C06F5F7F4FEE
:105610008F4F9F4F089557FD9058440F551F59F0D5
:105620005F3F71F04795880F97FB991F61F09F3F8F
:1056300079F087950895121613061406551FF2CFB8
:105640004695F1DF08C0161617061806991FF1CF08
:1056500086957105610508940895E894BB2766272F
:105660007727CB0197F908958ADF08F48FEF089523
:105670000BD0C0CFB1DF28F0B6DF18F0952309F0CA
:10568000A2CFA7CF1124EACFC6DFA0F3959FD1F315
:10569000950F50E0551F629FF001729FBB27F00DE0
:1056A000B11D639FAA27F00DB11DAA1F649F662735
:1056B000B00DA11D661F829F2227B00DA11D621F84
:1056C000739FB00DA11D621F839FA00D611D221F3E
:1056D000749F3327A00D611D231F849F600D211D22
:1056E000822F762F6A2F11249F5750408AF0E1F0C5
:1056F00088234AF0EE0FFF1FBB1F661F771F881F0E
:1057000091505040A9F79E3F510570F05CCFA6CF55
:105710005F3FECF3983EDCF3869577956795B795F8
:10572000F795E7959F5FC1F7FE2B880F911D969522
:10573000879597F908951F920F920FB60F92112433
:105740002F933F938F939F93AF93BF9380918A063C
:1057500090918B06A0918C06B0918D0630918906B0
:1057600023E0230F2D3758F50196A11DB11D20937D
:10577000890680938A0690938B06A0938C06B0933B
:105780008D0680918E0690918F06A0919006B09123
:1057900091060196A11DB11D80938E0690938F06F0
:1057A000A0939006B0939106BF91AF919F918F9176
:1057B0003F912F910F900FBE0F901F90189526E8E4
:1057C000230F0296A11DB11DD2CF3FB7F89480914F
:1057D0008E0690918F06A0919006B091910626B505
:1057E000A89B05C02F3F19F00196A11DB11D3FBF19
:1057F000BA2FA92F982F8827BC01CD01620F711DE8
:10580000811D911D42E0660F771F881F991F4A95E1
:10581000D1F708958F929F92AF92BF92CF92DF926D
:10582000EF92FF926B017C01D0DF4B015C01C11450
:10583000D104E104F104D9F0D2D5C7DF68197909A0
:105840008A099B09683E73408105910580F321E038
:10585000C21AD108E108F10888EE880E83E0981E8C
:10586000A11CB11CC114D104E104F10431F7FF9073
:10587000EF90DF90CF90BF90AF909F908F90089562
:10588000789484B5826084BD84B5816084BD85B51B
:10589000826085BD85B5816085BDEEE6F0E08081E2
:1058A00081608083E1E8F0E0108280818260808303
:1058B000808181608083E0E8F0E080818160808386
:1058C000E1EBF0E0808184608083E0EBF0E08081B8
:1058D00081608083E1E9F0E0808182608083808163
:1058E00081608083E0E9F0E0808181608083E1EA8B
:1058F000F0E0808182608083808181608083E0EA43
:10590000F0E0808181608083E1E2F1E0808182606B
:105910008083808181608083E0E2F1E0808181602A
:105920008083EAE7F0E08081846080838081826008
:1059300080838081816080838081806880831092F1
:10594000C1000895863308F0865320917B00982F7C
:105950009870277F922B90937B002091A70290E470
:10596000299F900111248770822B80937C00809165
:105970007A00806480937A0080917A0086FDFCCF63
:10598000809178009091790008951F93CF93DF93D1
:10599000182FEB0161E033D1209731F460E0812FC3
:1059A000DF91CF911F9167C1CF3FD10511F461E025
:1059B000F6CFE12FF0E0EC51FF4FE491E150E231FE
:1059C00008F0B2C0F0E08827E851F34D8F4F3EC594
:1059D000FA2C022D072D112D1B2D942D252D2D2D4B
:1059E000352D3F2D492D532D622D6C2D942D762D67
:1059F000802D8A2D84B5806884BDC7BDDF91CF918D
:105A00001F91089584B5806284BDC8BDF7CF809191
:105A10008000806880938000D0938900C0938800C4
:105A2000EDCF80918000806280938000D0938B00C6
:105A3000C0938A00E3CF80918000886080938000CB
:105A4000D0938D00C0938C00D9CF8091B000806836
:105A50008093B000C093B300D1CF8091B00080623A
:105A60008093B000C093B400C9CF8091900080684B
:105A700080939000D0939900C0939800BFCF8091FD
:105A80009000806280939000D0939B00C0939A0016
:105A9000B5CF80919000886080939000D0939D0056
:105AA000C0939C00ABCF8091A00080688093A00041
:105AB0008091A0008F7B8093A000D093A900C09319
:105AC000A8009CCF8091A00080628093A000D0931A
:105AD000AB00C093AA0092CF8091A0008860809311
