:10000000F8C0000027C1000025C1000023C1000086
:1000100021C100001FC100001DC100001BC1000064
:1000200019C1000017C1000015C1000013C1000074
:1000300011C100000FC100000DC100000BC1000084
:1000400009C1000007C1000005C1000003C1000094
:1000500001C10000FFC00000FDC000000C94CC2BCB
:10006000F9C000000C94C32F0C94F92FF3C00000CA
:10007000F1C00000EFC00000EDC00000EBC00000C8
:10008000E9C00000E7C00000E5C00000E3C00000D8
:100090000C944F300C948530DDC00000DBC00000B4
:1000A000D9C00000D7C00000D5C00000D3C00000F8
:1000B000D1C00000CFC00000CDC00000CBC0000008
:1000C000C9C00000C7C000000C9474280C94DB3039
:1000D0000C941131BFC000000C9467310C949D3119
:1000E000B9C0000000000A0B02090C0D0E0807033E
:1000F00004010000000000000000000000000000FB
:1001000000000000000000000000000000000000EF
:1001100012111000000000000000000000000000AC
:100120000000000000000000000001021020200874
:100130000810204010204080020102010804020142
:1001400001020408102040808040201008040201B1
:10015000800402018040201008040201080402010A
:100160000102040810204080010204081020408091
:1001700005050505070508080808020202020A0A23
:100180000808040404040101010101010101030341
:10019000030303030303040707070C0C0C0C0C0CEC
:1001A0000C0C0202020206060606060606060B0BE9
:1001B0000B0B0B0B0B0B00002200250028002B0063
:1001C0002E003100340002010000050108010B017E
:1001D00000002100240027002A002D0030003300F9
:1001E00001010000040107010A012230AE303A315A
:1001F000C63111241FBECFEFD1E2DEBFCDBF00E07C
:100200000CBF13E0A0E0B2E0E4E1F5E600E00BBFD4
:1002100002C007900D92A434B107D9F729E0A4E4F5
:10022000B3E001C01D92AE35B207E1F710E0C9EFAF
:10023000D0E000E006C021970109802FFE010E9456
:100240005732C53FD10780E00807A9F70E949029DF
:100250000C948832D5CECF92DF92EF92FF92CF935B
:10026000882351F16A017B01CFEFC80F20E030E015
:10027000A901CB01B6010E947E2A18168CF0C70195
:10028000B60190580E94872A9B01AC016C2F70E048
:1002900090E080E0CF91FF90EF90DF90CF90B2C0E0
:1002A000C701B6010E94822A8C2FCF91FF90EF9058
:1002B000DF90CF900C94F62CCF91FF90EF90DF90D1
:1002C000CF9008950F931F938B019C0183E0369587
:1002D0002795179507958A95D1F70C5B1C4F462FEC
:1002E000477021E030E0F90102C0EE0FFF1F4A9590
:1002F000E2F7AF01F80120812423CB0101962111FF
:1003000002C090E080E01F910F9108950F931F931A
:100310008B019C0183E036952795179507958A9563
:10032000D1F7677081E090E001C0880F6A95EAF725
:10033000F801EC5BFC4F2081452B31F48095822342
:1003400080831F910F910895822BFACF2F923F92B5
:100350004F925F926F927F928F929F92AF92BF92D5
:10036000CF92DF92EF92FF920F931F93CF93DF9381
:10037000D62EC72E782E692E49015A01280161E038
:100380008D2D0E94302ECD2DDC2D8E010F5F1F4F45
:10039000A8016D2D7C2D872D962DB8DF20E030E053
:1003A000A901C201B7010E94652B181664F4C201AD
:1003B000B7010E94872A2B01C501B4010E94872A38
:1003C000A201CE0123D0C801DF91CF911F910F91DF
:1003D000FF90EF90DF90CF90BF90AF909F908F9065
:1003E0007F906F905F904F903F902F90089588235B
:1003F00041F08150682F70E090E080E050E040E0F4
:1004000085CF0895862FB9010C94F62C9C01FC0130
:10041000EC51FF4FE491E150E231E0F4F0E0882745
:10042000EB5EFD4F8F4F0C94573227022E023102A4
:1004300048025D022A0272027E0282029902AE0224
:10044000C302DA02EF022A0204031B03300384B55D
:10045000806884BD60E0822F0C946C2E84B580622D
:10046000F8CF809180008C7F8260809380008091A3
:100470008100807E8061682B6093810050938700AB
:100480004093860080918000806880938000E2CF56
:10049000809180008C7F82608093800080918100B9
:1004A000807E8061682B6093810050938700409329
:1004B0008600809180008062E8CF809180008C7FF0
:1004C00082608093800080918100807E8061682BB3
:1004D0006093810050938700409386008091800054
:1004E0008860D3CF8091B00080688093B000809105
:1004F000B100887F682B6093B100ACCF8091B000D1
:100500008062F3CF809190008C7F82608093900016
:1005100080919100807E8061682B60939100509360
:10052000970040939600809190008068809390009F
:1005300091CF809190008C7F826080939000809119
:100540009100807E8061682B6093910050939700AA
:1005500040939600809190008062E8CF8091900057
:100560008C7F82608093900080919100807E80617A
:10057000682B609391005093970040939600809170
:1005800090008860D3CF8091A0008C7F82608093A0
:10059000A0008091A100807E8061682B6093A10003
:1005A0005093A7004093A6008091A000806880939C
:1005B000A00050CF8091A0008C7F82608093A0002B
:1005C0008091A100807E8061682B6093A100509390
:1005D000A7004093A6008091A0008062E8CF8091A0
:1005E000A0008C7F82608093A0008091A100807E1B
:1005F0008061682B6093A1005093A7004093A600F0
:100600008091A0008860D3CF809120018C7F826090
:100610008093200180912101807E8061682B60930E
:100620002101509327014093260180912001806889
:10063000809320010FCF809120018C7F8260809376
:10064000200180912101807E8061682B60932101CF
:100650005093270140932601809120018062E8CFCA
:10066000809120018C7F8260809320018091210104
:10067000807E8061682B6093210150932701409315
:100680002601809120018860D3CFCF93DF93882308
:1006900049F0EB0181500E94D32C99838883DF912C
:1006A000CF910895FB0111821082F9CF0F931F9310
:1006B0008B019C0183E036952795179507958A95C0
:1006C000D1F7035B1C4F462F477021E030E0F90162
:1006D00002C0EE0FFF1F4A95E2F7AF01F80120813B
:1006E0002423CB010196211102C090E080E01F91EC
:1006F0000F9108950F931F938B019C0183E0369512
:100700002795179507958A95D1F7677081E090E056
:1007100001C0880F6A95EAF7F801E35BFC4F20817E
:10072000452B31F48095822380831F910F9108958A
:10073000822BFACFCF92DF92EF92FF92CF93DF938B
:100740006B017C0160E086E3C816D104E104F1048A
:1007500090F486E38C0D0E94302EE6012196AE01C6
:10076000C701B601C7DFCE01DF91CF91FF90EF90B7
:10077000DF90CF9008958C2DEECF882341F08150EB
:10078000682F70E090E080E050E040E0B3CF089543
:1007900090E080E008950F931F93009709F488C0BC
:1007A0006115710509F484C00091860210918702D9
:1007B00020918802309189020E3F1F4F2F4F3F4FEB
:1007C00009F067C04FEF5FEFBA0140938602509384
:1007D000870260938802709389024091860250914B
:1007E00087026091880270918902DC011296ED9176
:1007F000FC9180819181A281B3818093C403909305
:10080000C503A093C603B093C70384819581A681D5
:10081000B7818093C0039093C103A093C203B093A8
:10082000C30380859185A285B3858093BC03909393
:10083000BD03A093BE03B093BF0384859585A685B1
:10084000B7858093B8039093B903A093BA03B0938C
:10085000BB031092B4031092B5031092B60310922A
:10086000B7030E945D0C82E89CE09093570380934D
:10087000560390935903809358030ED7009731F491
:1008800021E030E03093C9032093C8031F910F91FA
:10089000089500918602109187022091880230917C
:1008A0008902DB010D931D932D933C93139795CFF4
:1008B0008FEF9FEFEBCF8F929F92AF92BF92CF922D
:1008C000DF92EF92FF921F93CF93DF934B015C0176
:1008D0001091CB0382E090E09093C9038093C8030A
:1008E00081149104A104B10441F48091CB038111DE
:1008F00004C08091CA03C1E08111C0E0C12CD12C99
:1009000076018091CB03811106C08091CA038111C9
:1009100002C0CC23D9F083E090E09093C903809388
:10092000C803CC2379F1CCE9DFEF111102C00E949A
:10093000E60FCE01DF91CF911F91FF90EF90DF90F6
:10094000CF90BF90AF909F908F9008956AE070E035
:1009500080E090E00E943B2C80E1C80E87E2D81E28
:10096000E11CF11C8FEF88169806A806B80631F036
:10097000C1E08C149D04AE04BF0408F0C0E080E028
:10098000BFD6BFCFD0E0C0E0D0CFCF92DF92EF9202
:10099000FF920F931F93CF93DF938F3F910511F039
:1009A00008F050C02091C8033091C90323303105AD
:1009B00039F02091C8033091C9032130310531F459
:1009C00024E030E03093C9032093C8036A017B011F
:1009D000EC0182309105A0F011E0AE01C701B60133
:1009E0005AD6AB01BC01CE011123F9F0DF91CF91B2
:1009F0001F910F91FF90EF90DF90CF900C940F120A
:100A00008C01000F111F0A5A1C4FD8018D919C9127
:100A1000892B11F30E9419120297F1F6D801ED917A
:100A2000FC91CE011995182FD8CF0E94311290E079
:100A300080E0DF91CF911F910F91FF90EF90DF90B9
:100A4000CF9008958FEF9FEFF4CF80E059C6CF93FA
:100A5000DF9386E090E09093C9038093C803A9D602
:100A6000EC01E6E5F3E084E0DF011D928A95E9F709
:100A70000E947E0F1092C9031092C803CE01DF912D
:100A8000CF9108958091CA0308958091B30308958A
:100A90006093860270938702809388029093890204
:100AA00090E080E008954F925F926F927F928F92D4
:100AB0009F92AF92BF92CF92DF92EF92FF92CF932D
:100AC000DF93CDB7DEB766970FB6F894DEBF0FBEE3
:100AD000CDBF2091220930912309409124095091E2
:100AE00025096091540270915502809156029091AF
:100AF00057020E94692B6B017C01209126093091DD
:100B00002709409128095091290960915802709154
:100B1000590280915A0290915B020E94692B9B01BD
:100B2000AC01C701B6010E941A2A6B017C01209119
:100B30002A0930912B0940912C0950912D0960917F
:100B40005C0270915D0280915E0290915F020E9452
:100B5000692B9B01AC01C701B6010E941A2A6B01E7
:100B60007C0120912E0930912F094091300950913C
:100B700031096091600270916102809162029091EE
:100B800063020E94692B9B01AC01C701B6010E9460
:100B90001A2A609340097093410980934209909307
:100BA0004309209168023091690240916A02509194
:100BB0006B020E941A2A609344097093450980933E
:100BC00046099093470920916C0230916D02409143
:100BD0006E0250916F020E94692B4B015C01C09024
:100BE0007002D0907102E0907202F09073029B014B
:100BF000AC01B601C7010E947E2A87FD12C0C090D9
:100C00007402D0907502E0907602F0907702940121
:100C1000A501B601C7010E94652B181614F06401E6
:100C200075019601A7016091780270917902809117
:100C30007A0290917B020E941A2A6093480970936D
:100C4000490980934A0990934B0969E070E080E07C
:100C500090E038DB5C019093210980932009C090DB
:100C60004809D0904909E0904A09F0904B0920E0EA
:100C700030E04FE753E4C701B6010E947E2A181600
:100C80000CF4E3C220E030E0A901C701B6010E94E4
:100C9000652B87FF03C0C12CD12C7601B701A601BB
:100CA000C501D9DAC0900002D0900102E0900202A2
:100CB000F0900302A701960160911609709117093F
:100CC00080911809909119090E947E2A882341F089
:100CD000C0921609D0921709E0921809F0921909EA
:100CE00066E370E080E090E0E1DC9093150980938A
:100CF000140943E050E0BE016F5F7F4FC6DC2091D6
:100D0000840230918502A981BA810E945F320E94DB
:100D1000B32A20E030E040E057E30E94692B9B01BA
:100D2000AC0160917C0270917D0280917E02909175
:100D30007F020E94192A9B01AC0120934C09309339
:100D40004D0940934E0950934F0920935009309319
:100D50005109409352095093530960918002709158
:100D60008102809182029091830260935409709372
:100D7000550980935609909357090E94192A6B01CF
:100D80007C01C0925809D0925909E0925A09F09218
:100D90005B098090220990902309A0902409B090CB
:100DA00025098091260990912709A0912809B091E1
:100DB00029098B839C83AD83BE8380912A099091FE
:100DC0002B09A0912C09B0912D098F839887A987B1
:100DD000BA8780912E0990912F09A0913009B09186
:100DE00031098B879C87AD87BE8720911402309193
:100DF00015024091160250911702C501B4010E94DC
:100E0000692B2B013C01209118023091190240916D
:100E10001A0250911B026B817C818D819E810E9400
:100E2000692B9B01AC01C301B2010E941A2A2B015C
:100E30003C0120911C0230911D0240911E025091F4
:100E40001F026F81788589859A850E94692B9B0195
:100E5000AC01C301B2010E941A2A2B013C0120916E
:100E600020023091210240912202509123026B8591
:100E70007C858D859E850E94692B9B01AC01C301F9
:100E8000B2010E941A2A2B013C01209148023091A4
:100E9000490240914A0250914B02C701B6010E949B
:100EA000692B9B01AC01C301B2010E941A2A6F8712
:100EB000788B898B9A8B2091240230912502409166
:100EC000260250912702C501B4010E94692B2B0113
:100ED0003C01209128023091290240912A02509130
:100EE0002B026B817C818D819E810E94692B9B01ED
:100EF000AC01C301B2010E941A2A2B013C012091CE
:100F00002C0230912D0240912E0250912F026F81C0
:100F1000788589859A850E94692B9B01AC01C30164
:100F2000B2010E941A2A2B013C012091300230911B
:100F3000310240913202509133026B857C858D8560
:100F40009E850E94692B9B01AC01C301B2010E94E6
:100F50001A2A2B013C0120914C0230914D02409104
:100F60004E0250914F02C701B6010E94692B9B01AE
:100F7000AC01C301B2010E941A2A6B8B7C8B8D8B52
:100F80009E8B20913402309135024091360250916F
:100F90003702C501B4010E94692B2B013C0120914D
:100FA00038023091390240913A0250913B026B81F4
:100FB0007C818D819E810E94692B9B01AC01C301C4
:100FC000B2010E941A2A2B013C0120913C0230916F
:100FD0003D0240913E0250913F026F8178858985A4
:100FE0009A850E94692B9B01AC01C301B2010E944A
:100FF0001A2A2B013C01209140023091410240917C
:101000004202509143026B857C858D859E850E94AE
:10101000692B9B01AC01C301B2010E941A2A2B016A
:101020003C01209150023091510240915202509166
:101030005302C701B6010E94692B9B01AC01C30199
:10104000B2010E941A2A2B013C0120910402309126
:1010500005024091060250910702C501B4010E94A9
:10106000692B4B015C0120910802309109024091EB
:101070000A0250910B026B817C818D819E810E94BE
:10108000692B9B01AC01C501B4010E941A2A4B01D6
:101090005C0120910C0230910D0240910E025091A2
:1010A0000F026F81788589859A850E94692B9B0143
:1010B000AC01C501B4010E941A2A4B015C012091C8
:1010C00010023091110240911202509113026B856F
:1010D0007C858D859E850E94692B9B01AC01C50195
:1010E000B4010E941A2A4B015C0120914402309104
:1010F00045024091460250914702C701B6010E9445
:10110000692B9B01AC01C501B4010E941A2A6093AE
:1011100022097093230980932409909325098F85D0
:101120009889A989BA898093260990932709A09361
:101130002809B09329098B899C89AD89BE89809340
:101140002A0990932B09A0932C09B0932D09409262
:101150002E0950922F096092300970923109C09087
:101160008603D0908703E0908803F09089039FEF77
:10117000C91AD90AE90AF90AC0928603D0928703EC
:10118000E0928803F0928903C114D104E104F104D0
:1011900099F480918A0390918B03A0918C03B09174
:1011A0008D030196A11DB11D80938A0390938B033B
:1011B000A0938C03B0938D0380908E0390908F0347
:1011C000A0909003B090910360918A0370918B037B
:1011D00080918C0390918D030E94B32AA501940104
:1011E0000E94692B20E030E040E85FE40E94692B18
:1011F0002B013C01C701B6010E94B32AA50194014D
:101200000E94692B9B01AC01C301B2010E941A2A02
:101210006093820370938303809384039093850388
:1012200066960FB6F894DEBF0FBECDBFDF91CF91AB
:10123000FF90EF90DF90CF90BF90AF909F908F90F6
:101240007F906F905F904F900895C12CD12C8FE7C5
:10125000E82E83E4F82E22CD8F929F92AF92BF9218
:10126000DF92EF92FF920F931F93CF93DF93ECE601
:10127000F3E08BE2DF011D928A95E9F780E090E0D0
:10128000A8E4B2E486A397A3A0A7B1A78AE097ED4C
:10129000A3E2BCE382A393A3A4A3B5A380E09CE450
:1012A000AFE1BEE684839583A683B7838DE293E0A6
:1012B000ACE7B4E580879187A287B38783E09FED91
:1012C000A1E1B7EF84879587A687B7878EE79AEF66
:1012D000A6E0B0E7808B918BA28BB38BA0E6B3E046
:1012E000B383A283EAE5F3E01196FC93EE9380EBDF
:1012F00092E091838083938382839583848380E8C3
:1013000093E015969C938E93149780E793E0139641
:101310009C938E93129782E893E017969C938E93FA
:101320001697E0E4F9E08CE1DF011D928A95E9F778
:10133000CEE0D9E082E3FE0111928A95E9F7DD243F
:10134000D394D9AA812C912C540183948D869E86A6
:10135000AF86B88AE12CF12C8701A801970169E0DA
:1013600070E080E090E00E94A6019B8B8A8BD98A76
:101370001882D8AA8091000290910102A0910202E5
:10138000B091030288879987AA87BB8789829A824E
:10139000AB82BC8266E370E080E090E0CBD99F83B3
:1013A0008E83DD828091640290916502A091660235
:1013B000B09167028C8B9D8BAE8BBF8B888F998F82
:1013C000AA8FBB8F8C8F9D8FAE8FBF8F88A399A361
:1013D000AAA3BBA3DF91CF911F910F91FF90EF9034
:1013E000DF90BF90AF909F908F90089580911A09E1
:1013F00081112EC081E080931A0980911B09909180
:101400001C09A0911D09B0911E090197A105B10504
:10141000F9F480911F098823D9F069E070E080E039
:1014200090E00E946201909321098093200940E09E
:1014300050E0BA010E942B0169E070E080E090E08A
:101440000E94620190932109809320090E94F70174
:1014500080910E0981111DC081E080930E09809159
:101460000F0990911009A0911109B09112090197EB
:10147000A105B10571F480911309882351F066E349
:1014800070E080E090E012D99093150980931409E0
:1014900074C908954F925F926F927F928F929F923C
:1014A000AF92BF92CF92DF92EF92FF920F931F9372
:1014B000F8944090A3035090A4036090A50370900B
:1014C000A603C0909703D0909803E0909903F09002
:1014D0009A03452B09F0A4C09B01AC0124193509DE
:1014E0004609570929013A0100919F031091A00371
:1014F0002091A1033091A20348015901840C951C4D
:10150000A61CB71C80169106A206B306A0F4009193
:101510009B0310919C0320919D0330919E030F5FCC
:101520001F4F2F4F3F4F00939B0310939C0320931B
:101530009D0330939E0380929F039092A003A092FC
:10154000A103B092A20300919B0310919C032091F0
:101550009D0330919E038092A7039092A803A092CE
:10156000A903B092AA030093AB031093AC0320939A
:10157000AD033093AE036093A3037093A4038093F1
:10158000A5039093A603A0E1B7E2A30192010E94F4
:101590006E326C0D7D1D8E1D9F1D609397037093A1
:1015A00098038093990390939A0300918602109177
:1015B000870220918802309189020F3F1F4F2F4FE1
:1015C0003F4FF1F00091860210918702209188022E
:1015D000309189020E3F1F4F2F4F3F4F89F0C0902F
:1015E0008602D0908702E0908802F090890221E084
:1015F0008C149D04AE04BF0408F420E02093B303D0
:1016000078941F910F91FF90EF90DF90CF90BF9053
:10161000AF909F908F907F906F905F904F900895C4
:101620004B015C0184189508A608B708A301920134
:10163000261B370B480B590B641575058605970556
:10164000D0F082169306A406B50640F420E030E000
:10165000A90181149104A104B10491F4A0E1B7E2BD
:101660000E946E32A7019601261B370B480B590BBF
:10167000CA01B901C5CF82169306A406B50670F754
:10168000A0E1B7E2A50194010E946E326C0D7D1DB0
:101690008E1D9F1DB5CFFECECF93DF9300D01F923E
:1016A000CDB7DEB71C821B821A8219821092AF035B
:1016B0001092B0031092B1031092B203BE016F5F9B
:1016C0007F4FCE0103960E94452869817A818B81E4
:1016D0009C810E943521009761F4BE016F5F7F4FAE
:1016E000CE0103960E94512869817A818B819C8169
:1016F0002ED50F900F900F900F90DF91CF910895FE
:10170000FF920F931F93CF93DF93082F60E070E059
:10171000CB010E943B2CFF24F3940E941E20EC017D
:10172000892B89F010E0CE3F8FEFD80769F00023B6
:1017300061F160E070E0CB010E943B2C81E090E021
:10174000892B59F322C011E025D5EC01892B21F01A
:10175000CE3F8FEFD80759F711111EC011E0229626
:1017600009F410E00E94CE1FEC01892B21F0CE3F3E
:101770008FEFD807E1F6111111C011E0CE3F8FEFC6
:10178000D80709F410E001110BC0CE01DF91CF9111
:101790001F910F91FF90089511E0E4CF11E0F3CF76
:1017A00060E070E0CB010E943B2C1F25812F90E070
:1017B000C7CFCF93DF938091B303882321F060E0FC
:1017C00070E0CB014CD635D6D0E0C0E0892B71F06B
:1017D0006AE070E080E090E00E943B2C81E090DFC6
:1017E00028D62196C03D27E0D20781F727D60E9450
:1017F00089211092CB031092CA031092C403109255
:10180000C5031092C6031092C7031092C003109232
:10181000C1031092C2031092C3031092BC03109232
:10182000BD031092BE031092BF031092B803109232
:10183000B9031092BA031092BB031092B403109232
:10184000B5031092B6031092B7034EEF5FEF6FEF40
:101850007FEF4093860250938702609388027093D3
:1018600089021092B303E7EAF3E028E0DF011D925A
:101870002A95E9F71092A3031092A4031092A503EE
:101880001092A60310929F031092A0031092A1033E
:101890001092A20310929B0310929C0310929D033E
:1018A00010929E031092970310929803109299033E
:1018B00010929A03DF91CF9108951092D70310925E
:1018C000D8031092D9031092DA031092D6038091B4
:1018D000DF039091E0039093D5038093D40310929B
:1018E000D3031092D2031092CE031092CF03109222
:1018F000D0031092D1031092DC031092DB0390E02E
:1019000080E00895CF92DF92EF92FF920F931F93A2
:10191000CF938C01892B09F055C02091DF033091C2
:10192000E0038091D4039091D5034091DF0350915F
:10193000E0035093D5034093D4032817390781F06F
:101940001092D3031092D2031092CE031092CF03C1
:101950001092D0031092D1031092DC031092DB039B
:101960008091DF039091E003019761F58091DB03A3
:101970009091DC03892B21F480918A02811112C09D
:101980008091DB039091DC030197E1F48091CE0319
:101990009091CF03A091D003B091D1030197A105FD
:1019A000B10581F41092CE031092CF031092D003B0
:1019B0001092D10310928A0282E090E09093DC03AF
:1019C0008093DB038091DF039091E003019709F09E
:1019D0001CC18091F5039091F6038017910709F0DF
:1019E00014C18091F1039091F203A091F303B0919F
:1019F000F403009709F409C12091F00321110DC0EF
:101A00004091F1035091F2036091F3037091F4035C
:101A1000452B462B472B09F4F8C02091DB0330916E
:101A2000DC032230310509F0F0C02091D2032111EE
:101A3000ECC0FC01C080D180E280F3808091D603AD
:101A4000882309F4D3C08091E2039091E303892BAA
:101A500009F4FDC02091E2033091E30381E02230DC
:101A6000310509F080E02091E2033091E303C1E009
:101A70002130310549F02091E2033091E303C1E0C8
:101A80002230310509F0C0E0882309F456C02091C6
:101A9000EC033091ED034091EE035091EF03C70149
:101AA000B6010E94652B87FD14C02091EC03309194
:101AB000ED034091EE035091EF036091D7037091D5
:101AC000D8038091D9039091DA030E947E2A87FD82
:101AD00022C02091EC033091ED034091EE03509130
:101AE000EF03C701B6010E94652B181634F520914B
:101AF000EC033091ED034091EE035091EF036091C0
:101B0000D7037091D8038091D9039091DA030E9492
:101B10007E2A811112C08091E4039091E503A09187
:101B2000E603B091E703892B8A2B8B2B19F481E014
:101B30008093D30381E08093D203CC2309F456C071
:101B40002091EC033091ED034091EE035091EF03AF
:101B5000C701B6010E947E2A87FF14C02091EC03C2
:101B60003091ED034091EE035091EF036091D70364
:101B70007091D8038091D9039091DA030E94652B6C
:101B800087FF22C02091EC033091ED034091EE03DA
:101B90005091EF03C701B6010E947E2A811126C031
:101BA0002091EC033091ED034091EE035091EF034F
:101BB0006091D7037091D8038091D9039091DA0393
:101BC0000E94652B181694F48091E4039091E5032C
:101BD000A091E603B091E703892B8A2B8B2B19F494
:101BE00081E08093D30381E08093D20381E09091E0
:101BF000D203911180E08093D603C092D703D09294
:101C0000D803E092D903F092DA03012B09F067C1FF
:101C10008091DB039091DC03892BD9F41092E103CE
:101C20001092D20380918A02882379F082E090E0BA
:101C30009093DC038093DB0310928A022091DF03F0
:101C40003091E00381E0232BE9F080E01BC081E0CC
:101C50000ACF10928A028091E103882349F0109202
:101C6000D3031092DC031092DB031092E103EDCF5B
:101C70008091DF039091E003892BE1F08091D20302
:101C80001092D2032091DB033091DC032230310526
:101C900009F45EC088F42115310509F448C02130EB
:101CA000310509F4F3C01092D3031092D2031092BD
:101CB000E10338C081E0E6CF2330310509F4B1C03B
:101CC0002430310581F74091CE035091CF036091CC
:101CD000D0037091D103411551056105710561F083
:101CE00041505109610971094093CE035093CF03CC
:101CF0006093D0037093D1034091CE035091CF03F2
:101D00006091D0037091D103452B462B472BD9F41A
:101D10002091DD033091DE032130310509F046C00A
:101D20001092D3031092DC031092DB030CC080915D
:101D30008A02882341F082E090E09093DC03809354
:101D4000DB0310928A021092CC038091D303CEC0A1
:101D50008823C9F38091E4039091E503A091E60301
:101D6000B091E703181619061A061B060CF07DC081
:101D70008091DF039091E003019709F076C0809194
:101D8000E4039091E503A091E603B091E70380930B
:101D9000CE039093CF03A093D003B093D10383E0FD
:101DA00090E09093DC038093DB03CDCF4091E80378
:101DB0005091E9036091EA037091EB03452B462BA8
:101DC000472BA9F01092D3038091E8039091E90387
:101DD000A091EA03B091EB038093CE039093CF03DD
:101DE000A093D003B093D10381E090E0DACF8823B1
:101DF00099F080918B0290918C02A0918D02B0910C
:101E00008E028093CE039093CF03A093D003B09320
:101E1000D10384E090E0C5CF1092D30382E090E03C
:101E2000C0CF8091CE039091CF03A091D003B09109
:101E3000D1030097A105B10559F00197A109B10996
:101E40008093CE039093CF03A093D003B093D1039C
:101E50008091CE039091CF03A091D003B091D10394
:101E6000892B8A2B8B2B09F06ECF80918B0290915E
:101E70008C02A0918D02B0918E02892B8A2B8B2B24
:101E800009F44ECF81E08093D303B3CF4091CE03CA
:101E90005091CF036091D0037091D103411551054A
:101EA0006105710561F04150510961097109409363
:101EB000CE035093CF036093D0037093D10340912E
:101EC000CE035091CF036091D0037091D103452B85
:101ED000462B472B09F037CF8111C7CF9FCF809179
:101EE000CC03882309F431CF8091CD03CF911F918A
:101EF0000F91FF90EF90DF90CF9008951092D7034D
:101F00001092D8031092D9031092DA031092D603DC
:101F10001092DC031092DB031092D5031092D403CD
:101F20001092F6031092F5031092D3031092D2038D
:101F30001092CE031092CF031092D0031092D103CF
:101F40001092CD031092CC031092F1031092F20381
:101F50001092F3031092F4031092F0031092EC032A
:101F60001092ED031092EE031092EF0388EE93E0CF
:101F7000A0E0B0E080938B0290938C02A0938D023E
:101F8000B0938E021092E8031092E9031092EA03D4
:101F90001092EB031092E4031092E5031092E60313
:101FA0001092E7031092E3031092E20381E0809322
:101FB0008A021092E1031092E0031092DF03109264
:101FC000DE031092DD0390E080E008958091DF034E
:101FD0009091E003892B19F580918A02882351F0B2
:101FE0008091E103811106C081E08093CD0380934D
:101FF000CC0308952091E10330918A0281E090E0C2
:10200000332311F090E080E030E082239323892B8A
:1020100021F01092CD0381E0EACF1092CC03089515
:1020200082E090E0FA01918380838FEF9FEF089523
:10203000CF93DF93EA01009711F00E94A922198241
:10204000188290E080E0DF91CF910895DB01009746
:1020500019F48FEF8C9308952EEF2C93FC013F968B
:10206000EF30F10508F034C08827E65CFF4E8F4F53
:102070000C94573266106410621060105E105A1093
:102080005C1058105610541051104D1049104F103C
:10209000681080E311968C93089589E2FBCF82E269
:1020A000F9CF11961C92089583E2F4CF81E2F2CF2A
:1020B00081E1F0CF87E2EECF8AE2ECCF80E1EACF98
:1020C00084E2E8CF88E2E6CF86E2E4CF81E3E2CFA4
:1020D00080E2E0CF809103049091040408959093EE
:1020E000040480930304089580910204089590915C
:1020F0000204892B809302040895982F9095809173
:1021000002048923809302040895809101040895B4
:102110008091FF039091000408956115710559F0B5
:10212000FB0130E020E070E060E02417350719F093
:102130006115710511F0CB010895A081B181A81737
:10214000B90709F4BF012F5F3F4F3696EECF80915C
:10215000050481111CC060D266D29093F80380936D
:10216000F7030E94A71A0E94B91A9093FC03809368
:10217000FB030E94361F0E943D1F9093FA03809339
:10218000F90381E08093050490E080E0089584EFF6
:102190009FEF08958F929F92AF92BF92CF92DF925E
:1021A000EF92FF920F931F93CF93DF9300D000D055
:1021B00000D01F92CDB7DEB71A86198618861F8207
:1021C0001E821D821C821B821A8219828091050444
:1021D00007EF1FEF882309F49CC08E010D5F1F4F8E
:1021E0009E012B5F3F4FAE01495F5F4FBE01675FAE
:1021F0007F4F90E080E00E94BA208C01009721F090
:102200000596029708F0DBC029853A85211531052E
:1022100009F402C1ED80FE804B815C81B701640F3F
:10222000751F8F8198858617970708F4F5C0E20E11
:10223000F31ED7019C91903C09F07FC042305105BC
:1022400008F47BC011968C914091030450910404D2
:10225000452B09F49CC0913F08F071C02CE1290F77
:102260002D3008F48BC02DE2290F203108F489C0ED
:10227000903C21F48150823008F483C088E3890FB8
:102280008B3008F481C096E2C92E90E1D92EE0E1AE
:10229000F0E16D817E81AE014F5F5F4F89859A8548
:1022A00019955C01C114D104A1F189809A8081142F
:1022B000910479F18B819C818815990508F487C078
:1022C00010E000E04B815C8170E060E0C7010E949B
:1022D000813201151105E9F449815A8169857A85B0
:1022E0008D819E81680F791FC501F6011995E980DE
:1022F000FA800D811E812F81388549855A856FEFBF
:102300007FEF81E090E00E9455208C01892B09F03D
:1023100056C0C8012A960FB6F894DEBF0FBECDBFD7
:10232000DF91CF911F910F91FF90EF90DF90CF90B1
:10233000BF90AF909F908F90089580E085CF30E060
:1023400020E0220F331FF901E950FC4F0190F0818A
:10235000E02D309709F497CF892F90E019950097D9
:1023600009F491CFDC011296ED91FC91139714962C
:10237000CD90DC90309709F08CCF1FC021E030E089
:10238000E0CF22E030E0DDCF23E030E0DACFD12C27
:10239000C12CE8E1F0E19F3F09F07BCFE091F7032A
:1023A000F091F803309721F4C90104EF1FEF0CC03E
:1023B0008FEF90E019950097A9F604EF1FEF89853C
:1023C0009A85009709F4A5CF0E94A922A2CF0E9466
:1023D00084218C0189859A850E94A92270E060E0A1
:1023E000C4010E941D2198878F830E9452209E83E2
:1023F0008D836F8178856115710559F0C8010E9440
:1024000035249A87898706EF1FEF892B09F058CF6B
:1024100059CF08EF1FEF56CF08EF1FEFD0CF209115
:102420000504222319F020E00C94BE1A87EF9FEFD9
:102430000895809103049091040408950E94421F1E
:102440000E949C1EF5D0E7EFF3E088E0DF011D92CB
:102450008A95E9F71092050490E080E008950C94C5
:10246000FA1C21E040E050E0BA010C94BE1A86E06C
:1024700090E0FA019183808390E080E0089547E046
:1024800050E063EB72E049CEDF92EF92FF920F9340
:102490001F93CF93DF938A01EC01C60FD71FE09003
:1024A0000904F0900A04D9800E946C21D8161906FC
:1024B00078F082E090E0F801918380838EEF9FEFC7
:1024C000DF91CF911F910F91FF90EF90DF900895D2
:1024D000EF2841F482E090E0F8019183808384EF5B
:1024E0009FEFEECF89818093080490E00196F80178
:1024F0009183808390E080E0E3CFCF93DF93EA0184
:102500000E94AB1D882321F00E9479210E94AC1DFE
:1025100082E090E0998388838BEF9FEFDF91CF91EA
:102520000895CF93DF93EB0186E0FB0111928A952A
:10253000E9F78FEF8883D8DD8983E7DD8A83E8DDDB
:102540009D838C83DF91CF910895CF93DF93EA0130
:102550000E94AE1D811109C082E090E099838883BA
:1025600085EF9FEFDF91CF91089590E080E0B7DD98
:1025700081E090E09983888390E080E0F3CF0F932F
:102580001F93CF93DF93EA018C01060F171F0E9460
:10259000AE1D81110BC082E090E09983888385EFA6
:1025A0009FEFDF91CF911F910F910895F8018181E5
:1025B000823038F082E090E0998388838EEF9FEF3D
:1025C000F0CF81E090E08BDD88E090E09983888314
:1025D00090E080E0E6CFCF93DF930097D1F4EB015A
:1025E000FB01329686E0DF011D928A95E9F78FEFB5
:1025F000888385E089831A820E946C218B830E94E4
:102600006B219D838C8381E08E838F83DF91CF91BB
:102610000895DF91CF911ACD8FE392E19093070453
:10262000809306040895809106049091070408950C
:102630001092070410920604089580910904909165
:102640000A040895411105C06115710581059105C0
:1026500061F06093090470930A0480930B049093D3
:102660000C0440930D0481E0089580E00895FF92EA
:102670000F931F93CF93DF938A01EC01C60FD71FEF
:10268000F9800E946C21F816190668F082E090E04B
:10269000F801918380838EEF9FEFDF91CF911F919F
:1026A0000F91FF9008956C817D818E819F814B8178
:1026B000C9DF811108C082E090E0F8019183808336
:1026C00084EF9FEFEACF89818093080490E0019620
:1026D000F8019183808390E080E0DFCFCF93DF9398
:1026E000EA01FC01E60FF71F6481758186819781FD
:1026F0004381A8DF811109C082E090E0998388833B
:1027000084EF9FEFDF91CF91089581E090E099836E
:10271000888390E080E0F6CFE9E0F4E040815181E9
:1027200062817381480F511D611D711D408351836A
:10273000628373830895CF93C09108044C2F50E0B7
:102740006091090470910A0401960E9478328C2FDE
:10275000E3DF10920804CF910895009799F48091D7
:10276000090490910A042FEFFB012083892B59F073
:102770002091080430E02F5F3F4F2417350719F4EC
:10278000CB01D9CF63CC0895009799F480910904C7
:1027900090910A042FEFFB012083892B59F020919F
:1027A000080430E02F5F3F4F2417350719F4CB01A1
:1027B000C2CF4CCC089523E1AC01249FC001259FDA
:1027C000900D1124E0911204F0911304E80FF91F09
:1027D000238134812250310981E02230310508F013
:1027E00080E008950F931F93CF93DF93009114041B
:1027F00010911504D0E0C0E080E00C171D0749F4EB
:1028000091E0811190E0892FDF91CF911F910F917D
:1028100008958111F5CFCE01CEDF2196EECFA091A4
:102820001204B0911304109729F1209114043091EF
:10283000150482179307F0F453E1589F9001599FB4
:10284000300D1124A20FB31FED91FC911197309719
:1028500089F012968C91681768F48DE0689FE00DFE
:10286000F11D112480819181892B21F081E09281D9
:10287000491708F080E008959C0143E1429FC001A0
:10288000439F900D1124E0911204F0911304E80F7E
:10289000F91F8385823091F481E090E06581768133
:1028A00040918F02509190026417750711F490E0E7
:1028B00080E0892B19F081E0232B09F080E0089556
:1028C000FC01A081B1818DE0689FA00DB11D112494
:1028D00013964D915C9185859685489F9001499FFF
:1028E000300D589F300D1124C9010196611103C0AC
:1028F000478144FD04960895EF92FF920F931F9332
:10290000CF93DF93EA01FC01E60FF71F02811381E9
:10291000E480F5804F2D6E2DC80181DF81110DC03F
:1029200082E090E0998388838EEF9FEFDF91CF91D3
:102930001F910F91FF90EF900895C8013CDF88230D
:1029400039F082E090E09983888388EF9FEFEECFA3
:102950001093960200939502E0929702F0929802EB
:1029600081E090E09983888390E080E0DFCFCF9290
:10297000DF92EF92FF920F931F93CF93DF937A0131
:10298000EC01C60FD71FC0909502D090960200911F
:10299000970210919802412F602FC60140DF8111EC
:1029A00010C082E090E0F701918380838AEF9FEF6F
:1029B000DF91CF911F910F91FF90EF90DF90CF901B
:1029C0000895C601F8DE882341F082E090E0F70127
:1029D0009183808388EF9FEFEBCF4C815D816E8187
:1029E0007F819A8189818F3F41F082E090E0F701F9
:1029F000918380838EEF9FEFDBCFE3E1EC9D90012D
:102A0000ED9D300D1124E0911204F0911304E20FBA
:102A1000F31F0190F081E02D2DE0029FE00DF11DEC
:102A200011240190F081E02D27E0129FE00DF11DAF
:102A30001124808391838B818283438354836583B4
:102A400076831F5F1093980281E090E0F7019183F5
:102A5000808390E080E0ACCFEF92FF920F931F93C2
:102A6000CF93DF937A018C01060F171FC0911204D8
:102A7000D0911304209781F021E030E0F8018281A9
:102A8000938140911404509115048417950710F018
:102A900030E020E0232B71F482E090E0F701918395
:102AA00080838EEF9FEFDF91CF911F910F91FF9069
:102AB000EF90089543E1489F9001499F300D112404
:102AC000C20FD31F78DE882341F082E090E0F70147
:102AD0009183808388EF9FEFE6CFF80124813581D1
:102AE00020383105C8F687818111D6CF4181842FE6
:102AF00090E08F7E009741F082E090E0F7019183B3
:102B0000808386EF9FEFCFCF4F833E832D83268137
:102B100028871986223010F421E0288721E030E050
:102B2000F70131832083BFCF88E090E0FA019183E1
:102B3000808390E080E00895FB018FEF808381E146
:102B400081838FEF9FEF9383828380E890E095836A
:102B50008483168217820895FB018FEF808391E0B2
:102B6000918382839383848384E3858381E090E0EF
:102B7000978386830895DF92EF92FF920F931F93BE
:102B8000CF93DF93EA01FC01E60FF71F81818130CB
:102B900071F082E090E0998388838FEF9FEFDF915F
:102BA000CF911F910F91FF90EF90DF900895828158
:102BB0009381D4802581E680F780009112041091E2
:102BC00013040115110539F482E090E0998388839C
:102BD0008CEF9FEFE4CF40911404509115048417BB
:102BE000950738F082E090E0998388838EEF9FEF1D
:102BF000D6CF892B39F082E090E09983888386EFE5
:102C00009FEFCDCF8D2D8D7FB1F72130A1F781E0E2
:102C1000D11006C091E0E916F10431F080E004C063
:102C2000E2E0EE16F104D0F3882329F390E080E08F
:102C3000C2DD882339F082E090E09983888388EFB1
:102C40009FEFADCFF801D38681E08487F686E586D5
:102C5000108A178681E090E09983888390E080E075
:102C60009ECF4CE050E06DED72E057CA8F929F927C
:102C7000BF92CF92DF92EF92FF920F931F93CF9369
:102C8000DF93EA01FC01E60FF71F82819381048143
:102C9000B580E0911204F0911304309791F482E032
:102CA00090E0998388838CEF9FEFDF91CF911F9104
:102CB0000F91FF90EF90DF90CF90BF909F908F90FB
:102CC000089520911404309115048217930738F069
:102CD00082E090E0998388838EEF9FEFE6CF23E137
:102CE000289F6001299FD00C1124EC0DFD1DE08070
:102CF000F180E114F10499F28281081748F78DE020
:102D0000089F80011124E00EF11EF701808191815E
:102D1000892B29F6BB20E1F2F7E0BF9E4001112488
:102D2000C4010E947022F70191838083E091120414
:102D3000F0911304EC0DFD1D0190F081E02DE00FEA
:102D4000F11F80819181009739F482E090E09983AE
:102D500088838DEF9FEFA9CFA40170E060E00E940F
:102D600081328091120490911304C80ED91EF6018D
:102D700080819181080F191FF801B28281E090E0F3
:102D80009983888390E080E090CFAF92BF92CF92FA
:102D9000DF92FF920F931F93CF93DF93EA01FC0121
:102DA000E60FF71F82819381F48000911204109145
:102DB00013040115110581F482E090E09983888362
:102DC0008CEF9FEFDF91CF911F910F91FF90DF90DC
:102DD000CF90BF90AF9008952091140430911504C6
:102DE0008217930738F082E090E0998388838EEF12
:102DF0009FEFE8CF2FEF2F0D2C3FA8F723E1289F5F
:102E00006001299FD00C11240C0D1D1DF80180813B
:102E10009181892B89F6FDE0FF9E50011124C501A7
:102E20000E947022F80191838083E0911204F09156
:102E30001304EC0DFD1D80819181009739F482E02F
:102E400090E0998388838DEF9FEFBCCFA50170E060
:102E500060E00E948132E0911204F0911304EC0DC5
:102E6000FD1DF28281E090E09983888390E080E00C
:102E7000A9CFCF92DF92EF92FF920F931F93CF9340
:102E8000DF93860F971FFC0102811381809112044A
:102E900090911304892B81F082E090E0FA019183F4
:102EA00080838CEF9FEFDF91CF911F910F91FF9067
:102EB000EF90DF90CF900895C801B0E0A0E00197B7
:102EC000A109B1098F3F9F4FA105B10540F082E0F4
:102ED00090E0FA01918380838EEF9FEFE4CF7A0137
:102EE00083E1809F6001819FD00C1124C6010E9464
:102EF0007022EC01009741F482E090E0F7019183A9
:102F000080838DEF9FEFCFCFA60170E060E00E943D
:102F10008132D0931304C0931204109315040093CC
:102F2000140490E080E02FEF3FEF41E061E070E0BB
:102F30008017910741F481E090E0F701918380834D
:102F400090E080E0B0CF3A8B298B1B864C877E8740
:102F50006D87188A1F8601966396EACFEF92FF92DB
:102F60001F93CF93DF93EC0110E0F12CE12C6A81E9
:102F70001617B0F083E0689FB0011124AE014F5ED8
:102F80005F4FC7010E94D522009721F02FEF3FEF3E
:102F90003A8B298BDF91CF911F91FF90EF9008958D
:102FA000612FCE018DDC61E070E00E941D21E816EA
:102FB000F90608F47C011F5FDACFF8942091100421
:102FC0003091110481E02115310509F080E0232BB7
:102FD00009F0789408952F923F924F925F926F92EA
:102FE0007F928F929F92AF92BF92CF92DF92EF9299
:102FF000FF920F931F93CF93DF933C01660E771ED2
:10300000F301828193814C01B12CA12CC091120457
:10301000D0911304209769F021E030E0609114040E
:10302000709115048617970710F030E020E0232BED
:10303000D1F482E090E0FA01918380838EEF9FEFDC
:10304000DF91CF911F910F91FF90EF90DF90CF9084
:10305000BF90AF909F908F907F906F905F904F90B8
:103060003F902F9008958092990290929A02A09298
:103070009B02B0929C0263E1689F9001699F300DB2
:103080001124C20FD31FF3018181833040F082E00D
:1030900090E0FA019183808386EF9FEFD1CF2A01E0
:1030A0002B813C81232BF1F4288139819F8191FF71
:1030B0002EC0232B09F46FC0209117049A81422F50
:1030C000490F5527551FBA0141E050E0613871059D
:1030D00014F050E040E0452B09F45DC02A87920FC0
:1030E000909317048150823008F481C066DF8823F2
:1030F00009F4D8C0F3018181813009F48DC008F44E
:103100007BC0823009F4C6C090E080E0ADC0232BC4
:1031100009F441C0209116049A81E22FE90FFF279C
:10312000FF1F41E050E0ED3FF10514F050E040E0BA
:10313000452B89F12A87920F90931604D3CFA08153
:10314000B181A20FB31F11966C91060F111D01964C
:10315000295F3F4F8417950794F38D859E85089FBF
:103160001001099F300C189F300C1124C114D10498
:10317000D1F48F8184FF17C00E946B21F5E02F0EE0
:10318000311C21E08215930508F420E0A701435F7C
:103190005F4F21110EC082E090E0F20191838083A5
:1031A00087EF9FEF4DCF0E946B212FEF221A320A3B
:1031B000E8CF88819981E80EF91EF7011483038313
:1031C000FFEFCF1ADF0A7A018A818C151D0409F0FE
:1031D0000CF48CCFE881F981EE0DFF1D428150E0A7
:1031E00030E020E010E000E090E080E0B3CFF12C90
:1031F000E12CD12CC12CE8CF81E090E09C838B8323
:10320000F1DA882309F480CF81E090E00E946F100A
:1032100080E40E947D1078CF89899A89019661F0B7
:1032200083E090E09C838B8382E090E00E946F10AB
:1032300080E40E94771068CF8D819E8120918F025B
:103240003091900282179307D1F4609193027091AC
:103250009402AE014F5E5F4F809191029091920275
:103260000E94F4230097E1F2789422E030E0F2012A
:1032700031832083892B99F08DEF9FEFE1CE892850
:103280008A288B2869F6892B59F6CE0167DE188AC1
:103290001F86E8CF82E090E09C838B8335CF90E05F
:1032A00080E0CECE82E090E0F2019183808385EFD2
:1032B0009FEFC6CE8F929F92AF92BF92CF92DF9236
:1032C000EF92FF920F931F93CF93DF93EA018C014C
:1032D000060F171FF8018181833098F082E090E09B
:1032E0009983888386EF9FEFDF91CF911F910F9194
:1032F000FF90EF90DF90CF90BF90AF909F908F9016
:1033000008958091120490911304892B61F081E05B
:1033100090E02091140430911504232B11F490E0D7
:1033200080E0892B39F482E090E0998388838EEFE6
:103330009FEFDACF42DE882309F4DFC0F8018181F4
:10334000813009F495C0E8F0823099F4209114049A
:1033500030911504E0911204F091130490E080E0A4
:1033600041E050E02817390709F0BDC03BDA811170
:1033700017C0789481E090E09983888390E080E0A2
:10338000B3CF2091140430911504E0911204F09110
:10339000130490E080E041E050E02817390741F441
:1033A00081E090E00E946F1080E40E947D10E1CFE8
:1033B00063817481672B11F0548343830196739664
:1033C000ECCFE0911204F0911304E00FF11F238180
:1033D000348122303105D9F4218932892F3F3F4F82
:1033E000B1F42581368140918F02509190022417CB
:1033F000350761F5AF014F5E5F4F609193027091A9
:10340000940280919102909192020E94F423EFEF36
:10341000CE1ADE0AEE0AFE0A0D5E1F4F409114041A
:103420005091150470E060E0C416D506E606F70674
:103430003CF5009731F27894892B09F49BCF82E018
:1034400090E0998388838DEF9FEF4ECFC114D10414
:10345000E104F104E1F6232BD1F6CF017FDDE09109
:103460001204F0911304E00FF11F108A1786CFCFDA
:1034700010E000E090E080E0C12CD12C7601CECFAE
:103480000097C9F610E000E0812C912C540183E0F4
:10349000E82EF12C1AC0E0911204F0911304E00F11
:1034A000F11F83819481029749F4F482E38282E0E0
:1034B00090E00E946F1080E40E947710FFEF8F1A57
:1034C0009F0AAF0ABF0A0D5E1F4F809114049091AE
:1034D0001504B0E0A0E088169906AA06BB06DCF247
:1034E00090E080E0A8CF638174816230710511F4AF
:1034F000548343830196739635CF82E090E099839D
:10350000888385EF9FEFF0CE0097B9F48FEFFB0132
:1035100080832091990230919A0243E1429FC00139
:10352000439F900D1124E0911204F0911304E80FD1
:10353000F91F8285FB01818308950C94261088E091
:1035400090E0FA019183808390E080E008951092EA
:10355000110410921004E2E1F4E086E0DF011D9214
:103560008A95E9F781E396E190930F0480930E0426
:10357000089580910E0490910F0408952F923F9228
:103580004F925F926F927F928F929F92AF92BF9273
:10359000CF92DF92EF92FF920F931F93CF93DF931F
:1035A000CDB7DEB72F970FB6F894DEBF0FBECDBFF5
:1035B000F894E0911004F09111043196F093110405
:1035C000E093100478944090120450901304411436
:1035D000510409F40CC2E0911404F0911504EF2B8E
:1035E00009F405C22D8749875A876B877C8798879E
:1035F0008F831201B12CA12C10E000E08091140403
:1036000090911504A816B90618F40115110529F1B1
:10361000F8948091100490911104019790931104F3
:10362000809310047894C8012F960FB6F894DEBFEB
:103630000FBECDBFDF91CF911F910F91FF90EF9003
:10364000DF90CF90BF90AF909F908F907F906F90C2
:103650005F904F903F902F9008957101E418F50806
:10366000D10117968C91179781FD54C013968D91B7
:103670009C911497039709F04DC015968D919C91DC
:10368000EF81F8858E179F0709F044C0B50190E0DF
:1036900080E07FD48A8320911204309113043D830B
:1036A0002C833D85332309F44CC04C815D81452B2F
:1036B00009F49AC18091140490911504A816B906D2
:1036C00008F092C1C501D8D88823E9F06C817D81CA
:1036D0006E0D7F1D7D836C83DB011F968D919C9108
:1036E000892B89F0D12CC12CF12CE12CAC81BD812E
:1036F00012968C9112978E151F0409F094F450962F
:103700001C921E921F972A81222321F0B50190E07E
:1037100080E041D43FEFA31AB30A43E1240E311CE9
:103720006DCFAC81BD81ED91FC91EC0DFD1D8581CE
:1037300096810FD7BFEFEB1AFB0AEDE0CE0ED11C3E
:10374000D5CFEC81FD81309709F44EC180911404EE
:1037500090911504A816B90608F046C1EE0DFF1D9C
:10376000FF87EE87C50188D88B83882339F1AE8522
:10377000BF851F968D919C915097019621E01D96D3
:103780004D915C918417950709F020E02E831982F2
:10379000712C10E000E0AE85BF8512968C917816F2
:1037A00008F45DC0EE85FF85878590890196658563
:1037B00076850E942132908B8787A5CFB1E0BE83AA
:1037C000E6CF992493946BC08BD6F60196838583BC
:1037D00082C0D601ED90FC90B7E06B9EE00CF11C2E
:1037E0001124F7016381748180818F3F61F121E0B1
:1037F00030E002C0220F331F8A95E2F7C901092E7B
:10380000000CAA0BBB0BFB014081518162817381CB
:1038100084239523A623B72321E0892B8A2B8B2B86
:1038200009F420E0D4012C93D70111968C91F60174
:1038300023853485820F932F911D880E991E14863F
:10384000138663949BC0418150E0C4010E9478328A
:10385000EBCF998206EF1FEFC5C01982C3C0F98173
:10386000F111A0CFEDE07E9E70011124AE85BF85E1
:10387000CD90DC90CE0CDF1C15D49D838C83BB8156
:10388000BB2309F49ECF81E0EE85FF852785308933
:10389000232B09F080E0982E882309F458C0672D67
:1038A0008E859F850DD8D60118969C938E93179779
:1038B00061E070E0C2D4EE85FF85218932892F3F17
:1038C000320709F481CFBC01C901CFD7D6011696C2
:1038D0009C938E931597D60115968D919C91169772
:1038E000009709F4B6CFEC81FD818E0F9F1F1A96C9
:1038F0009C938E931997AE85BF85ED91FC9111979E
:10390000EE0EFF1EF70121853285148613861A9666
:103910008C91870DD9018D93711016C0EE85FF85AE
:10392000878184FF11C049855A856B857C85F901A3
:103930004183528363837483F7018385948504965E
:10394000A80FB91F14861386F701B287A187D60185
:1039500015968D919C911697892B09F443C0EE859D
:10396000FF852581368180918F02909190022817E2
:10397000390779F019968D909C90612CD60112969A
:103980008C911297681608F424CF1A969C928E9206
:103990001997BE81BB2309F460CF61E070E0F601A6
:1039A000878190854AD4D6011796ED90FC901897A0
:1039B00015964D915C91E1E0F0E0BA81BB2311F0E6
:1039C000F0E0E0E00C811D819C01B501882799277A
:1039D0008E1B9F0B6AD38C01892B21F0F601858108
:1039E0009681B7D57394D7CE0FEF1FEF8CCE10E032
:1039F00000E00ECE2F923F924F925F926F927F9295
:103A00008F929F92AF92BF92CF92DF92EF92FF92EE
:103A10000F931F93CF93DF9380911204909113041F
:103A200010E000E0892BA9F0C8DA0AEF1FEF882325
:103A300081F02090140430901504C0911204D091AC
:103A40001304D12CC12C10E000E02C143D04A9F487
:103A50007894C801DF91CF911F910F91FF90EF9063
:103A6000DF90CF90BF90AF909F908F907F906F909E
:103A70005F904F903F902F900895C6010E943C1494
:103A8000882309F18B819C810397E9F48F859889BC
:103A9000892BC9F0B60190E080E07BD221E030E0D4
:103AA000882311F030E020E044245524421A530AC0
:103AB000B12CA12C912C812C8A818815190409F034
:103AC00038F4188A1F864FEFC41AD40A6396BDCF04
:103AD000E881F981EA0DFB1D85819681892BA1F191
:103AE00061E070E087819085A8D33C01DBD28C0136
:103AF000E881F981EA0DFB1D81859285258136815A
:103B0000200F311FAC01421B530B9A014781508596
:103B1000421B530B70E060E00E948132E881F98122
:103B2000EA0DFB1DE780F084458156819301B601C3
:103B3000C201BBD28C01892B39F0E881F981EA0DF1
:103B4000FB1D8581968105D55FEF851A950A8DE06D
:103B5000A80EB11CB1CF31CA789408952F923F922C
:103B60004F925F926F927F929F92AF92BF92CF924D
:103B7000DF92EF92FF920F931F93CF93DF9300D0CA
:103B800000D0CDB7DEB70091120410911304992430
:103B900093940115110509F43EC0A0901404B0904F
:103BA00015040BDA982E8823B1F1109213041092A9
:103BB000120410921504109214041092160410921C
:103BC00017048FEF9FEFDC018093990290939A0284
:103BD000A0939B02B0939C0278947FD31E830D83A5
:103BE000C12CD12C7601C501B0E0A0E089839A8375
:103BF000AB83BC8322242A94322C89819A81AB81A5
:103C0000BC81C816D906EA06FB06F4F0C801A1D4A7
:103C100080E40E947D10892D26960FB6F894DEBFB1
:103C20000FBECDBFDF91CF911F910F91FF90EF900D
:103C3000DF90CF90BF90AF909F907F906F905F90FC
:103C40004F903F902F900895AD81BE8115968D9134
:103C50009C91169720918F023091900282179307C2
:103C6000D1F451968D919C91EED5ED81FE818081AC
:103C70009181B12CA12C412C512C3201892B89F539
:103C8000BFEFCB1ADB0AEB0AFB0AED81FE817396CC
:103C9000FE83ED83B2CFC114D104E104F10429F70E
:103CA000892B19F7ED81FE81818992898F3F9807D1
:103CB00009F029D5AD81BE8152963C922E92519742
:103CC000D4CF8A0D9B1DDC018D919C91009709F04A
:103CD00040D4BFEF4B1A5B0A6B0A7B0AEDE0AE0ED5
:103CE000B11CAD81BE818D919C91119712964C9122
:103CF00050E070E060E044165506660677060CF367
:103D000028D4BECFCF93DF93EA0128DF811109C009
:103D100082E090E09983888385EF9FEFDF91CF91D8
:103D2000089581E090E00E946F1081E090E0998317
:103D3000888390E080E0F2CF11DF10920F041092A0
:103D40000E04089542E050E065E273E00C948D109B
:103D5000FF920F931F93CF93DF938A01EC01C60F5D
:103D6000D71FF980B9D20897F816190671F068F0D4
:103D700082E090E0F801918380838EEF9FEFDF91E6
:103D8000CF911F910F91FF9008956C817D818E815D
:103D90009F814B810E942213811108C082E090E034
:103DA000F8019183808384EF9FEFE9CFF9800E942F
:103DB0001D134F2D50E0BE01685F7F4F0E94783287
:103DC00089810E948C1381E090E0F80191838083C7
:103DD00090E080E0D4CFDF92EF92FF920F931F9399
:103DE000CF93DF938A01EC01C60FD71F0E941D13EA
:103DF0007C01D98071D2DD2059F0029721E030E0BA
:103E0000D816190619F010F030E020E0232B79F4D1
:103E100082E090E0F801918380838EEF9FEFDF9145
:103E2000CF911F910F91FF90EF90DF900895EF28B1
:103E300041F482E090E0F8019183808384EF9FEF6A
:103E4000EECFF9800E941D134F2D50E0BE016E5F32
:103E50007F4F0E94783289810E948C1381E090E02C
:103E6000F8019183808390E080E0D9CF82EA9EE1DF
:103E700090931904809318040895809118049091E8
:103E8000190408950895FC0111821082938382839E
:103E90000895DB011D921C92DC011296ED91FC91BC
:103EA00013977183608313967C936E931297089592
:103EB000FC0180819181DB018D939C93A081B18174
:103EC000109741F08D919C9191838083892B11F4FF
:103ED000F383E2830895FC0180819181DB018D935E
:103EE0009C93892B11F4738362837183608308959B
:103EF000FC0111821082938382830895CF93DF9314
:103F00001F921F92CDB7DEB71A821982F894BE01B4
:103F10006F5F7F4F8FE194E0CBDF89819A810097BB
:103F200009F017D389819A81892B89F7BE016F5FC8
:103F30007F4F83E294E0BCDF89819A81009709F08A
:103F400008D389819A81892B89F778940F900F90F3
:103F5000DF91CF910895CF93DF931F921F92CDB73A
:103F6000DEB71A821982F894BE016F5F7F4F8BE132
:103F700094E09EDF89819A81009709F0EAD28981D5
:103F80009A81892B89F778940F900F90DF91CF91C8
:103F9000089581E0089590E080E00895EF92FF9207
:103FA0000F931F93CF93DF931F921F92CDB7DEB76E
:103FB0001A82198280911A0407EF1FEF8823A1F15A
:103FC000F894BE016F5F7F4F83E294E071DF7894D5
:103FD00089819A81EE24E394F12C892B51F4F89491
:103FE000BE016F5F7F4F8FE194E062DF7894F12C28
:103FF000E12C89819A810EEF1FEF0097A9F0FC0157
:104000004281538164E070E074D68C01892B61F0A9
:10401000F89469817A81C701880F991F880F991FC9
:10402000815E9B4F58DF7894C8010F900F90DF910D
:10403000CF911F910F91FF90EF9008950F931F93D1
:10404000CF93DF9300D01F92CDB7DEB71C821B82C7
:104050001A82198280911A0407EF1FEF8823C1F09A
:10406000AE014D5F5F4F64E070E0CE010196B4D6C3
:104070008C01892B69F4E981FA818B819C8193837E
:104080008283F89469817A818BE194E002DF7894ED
:10409000C8010F900F900F900F90DF91CF911F915B
:1040A0000F910895B9D7049608958F929F92AF9279
:1040B000BF92CF92DF92EF92FF920F931F93CF9315
:1040C000DF931F921F92CDB7DEB71A821982BC010F
:1040D0006F5F7F4F6330710598F0AA24AA94BA2CC1
:1040E000C5010F900F90DF91CF911F910F91FF901D
:1040F000EF90DF90CF90BF90AF909F908F900895FA
:104100004115510551F3480159018A016C01CADF7B
:104110008815990511F7E114F104F9F28E0D9F1D30
:10412000A816B906D0F280911A048823F1F0F89409
:10413000B501645071099701AE014F5F5F4FC8012F
:104140000496DFD65C01892B71F489819A81F8018C
:1041500093838283C601880F991F880F991FB80126
:10416000815E9B4F96DE7894BBCF87EFA82EBB2451
:10417000BA94B6CFAF92BF92CF92DF92EF92FF92F6
:104180000F931F93CF93DF931F921F92CDB7DEB78C
:104190001A821982892B09F047C06115710509F44B
:1041A00043C04115510509F43FC02115310509F4FB
:1041B0003BC001151105C1F180911A048823B9F1A2
:1041C00079016A015B01F894BE016F5F7F4F8BE15B
:1041D00094E06EDE789489819A81009759F1DC0130
:1041E00012966D917C91A8010496A4D68C01E98168
:1041F000FA81D501ED93FC93828193810496F601B7
:10420000918380834FDFD7018D939C93C8010F90DA
:104210000F90DF91CF911F910F91FF90EF90DF9062
:10422000CF90BF90AF9008950FEF1FEFEFCF07EF44
:104230001FEFECCF0EEF1FEFE9CFCF93DF93EC0131
:10424000672B71F4F2D68C179D0760F0E5D62496A3
:10425000C80FD91FE4D68C0F9D1FDF91CF91089511
:10426000E1D6F1CF90E080E0F8CF0F931F93CF938A
:10427000DF9320911A0421112BC08B01EC018FE1F7
:1042800094E001DE83E294E0FEDD8BE194E0FBDD6F
:1042900097D00097C1F4C9D670E060E0CEDF4DE959
:1042A00052E062E070E081D1009769F480919D0254
:1042B00090919E02CCD6B801CE0101D5009719F499
:1042C00021E020931A04DF91CF911F910F9108955F
:1042D00084EF9FEFF8CFA6C6A8C6CF93DF93A8D6EA
:1042E000EC01892B11F40ADE36DECE01DF91CF918D
:1042F0000895CF93DF939CD6EC01892B09F4FEDD62
:10430000CE01DF91CF91089580919D0290919E0200
:104310000895CF93DF9380911A04D0E0C0E0882302
:10432000D1F09AD6EC01892BB1F4E8DD14DE80914E
:104330009D0290919E02E7D1E8D2EC01892B59F4BD
:104340008FE194E0D5DD83E294E0D2DD8BE194E06F
:10435000CFDD10921A04CE01DF91CF910895EF9234
:10436000FF920F931F93CF93DF93EC017A018B01A0
:104370000F5F1F4F0E9DA0010F9D500D1E9D500DF4
:10438000112470E060E00E94813290E080E0F0E073
:10439000E0E02FEFE816F90639F4DF91CF911F9195
:1043A0000F91FF90EF9008951A8219822883309719
:1043B00011F0D283C1830196FE01C00FD11FEACF55
:1043C000CF92DF92EF92FF920F931F93CF93DF93E1
:1043D0000CEB15E00C7F43E050E06FE972E085EAFA
:1043E00092E01AD48FE9E82E82E0F82E95EAC92EE1
:1043F00092E0D92EC3E5D6E0D7014D915D917D01C4
:10440000F601619171916F01198308835D834C837B
:104410005B834A837F836E839B012F5F3F4F249F83
:10442000C001259F900D349F900D11249987888796
:104430000115110511F0C80192DF88859985080FD3
:10444000191F2A96F5EAEF16F2E0FF06A9F6E9E24F
:10445000F4E080E991E0DF019C011D9221503040A1
:10446000E1F710922804109227041092720610921D
:1044700071061092760610927506109274061092CC
:104480007306109278061092770610927A061092B0
:10449000790610927C0610927B061092800610928C
:1044A0007F0610927E0610927D0610928206109270
:1044B0008106109284061092830610925006109284
:1044C0004F06109252061092510690E080E0DF9164
:1044D000CF911F910F91FF90EF90DF90CF900895B3
:1044E0000097F1F0F894A5EAB2E0E3E5F6E030E0F9
:1044F00020E04D915D9148175907A8F04281538102
:104500004115510581F08AE0829FF001839FF00DF3
:104510001124ED5AF94F80819181009759F47894D4
:1045200090E080E008952F5F3F4F3A9623303105A9
:1045300001F7F5CFDC0111966D917C917183608359
:104540004150510953834283FC012193CF01789458
:104550000895009749F1DC018E91853041F4E09196
:104560005106F09152063097F9F0CD01199485303B
:10457000D8F4282F30E0F8948FEF8C938AE0829F54
:10458000F001839FF00D1124ED5AF94F8081918144
:1045900012969C938E931197B183A083828193810D
:1045A00001969383828378940895CF92DF92EF925D
:1045B000FF920F931F93CF93DF939C018CE294E0C3
:1045C0008C7F4115510509F49BC02115310509F473
:1045D00097C06115710509F493C07A01AB01B90167
:1045E0006D5F7F4F6C7F9B012F5F3F4F249F80014A
:1045F000259F100D349F100D1124F8942091710601
:1046000030917206232B59F42091790630917A0665
:104610002115310569F12017310708F058C02091A4
:104620007B0630917C06232B91F420917906309102
:104630007A06820F931F20918306309184062115FC
:10464000310509F441C02017310708F056C07894AD
:10465000CFEFDFEF86EF9FEFF701D183C083DF91CC
:10466000CF911F910F91FF90EF90DF90CF90089521
:10467000C3E0D0E0C0902704D09028042DE831E0BA
:104680002C193D092017310710F32AE02C9FF00167
:104690002D9FF00D1124ED5AF94F9183808355839E
:1046A000448353834283778366831187008700970F
:1046B00009F055DE0C0D1D1D1093280400932704EE
:1046C000789490E080E0C8CFC4E0D0E0D3CFC3E0DE
:1046D000D0E02AE02C9FF0012D9FF00D1124ED5A1F
:1046E000F94F918380835583448353834283778337
:1046F0006683009729F333DEE3CFC4E0D0E0E9CF4F
:104700008FEF9FEFACCF9C010397029708F069C031
:10471000F89484E09AE0482F50E0241735070CF411
:104720004DC091E08AE0829FF001839FF00D11243B
:10473000ED5AF94F1182108215821482138212826F
:10474000178216829923B1F18091710690917206B9
:10475000892BA9F42091790630917A06211531052B
:1047600071F08091270490912804821B930B909301
:1047700028048093270410927A061092790680917B
:104780007B0690917C06892BA9F4209183063091B9
:1047900084062115310571F0809127049091280439
:1047A000821B930B90932804809327041092840615
:1047B00010928306789490E080E00895949FF00131
:1047C000959FF00D1124ED5AF94F40815181452BF1
:1047D00031F440855185452B11F481509CCF90E0F8
:1047E000A1CF8FEF9FEF08954115510549F1009733
:1047F00039F16115710521F1F89420914F0630913E
:104800005006232BB9F42091510630915206232BE8
:1048100089F49093500680934F06709352066093EC
:104820005106789425E030E090E080E0FA01318391
:104830002083089578942FEF3FEF86EF9FEFF6CF18
:104840008FEF9FEF0895059769F4F8941092500642
:1048500010924F061092520610925106789490E0F2
:1048600080E008958FEF9FEF08956115710519F4A9
:10487000F0E0E0E011C08530910581F4E0914F0651
:10488000F09150063097A1F3CB010196199500974E
:1048900079F3FC0185E08193CF0108959C012350B9
:1048A00031092230310520F72AE0289FD001299FC5
:1048B000B00D1124AD5AB94F2D913C911197232B76
:1048C000B9F216962D913C9117972617370780F26B
:1048D000F89412962D913C9113972115310529F0EA
:1048E000ED91FC911197309711F47894C1CF4181EB
:1048F000528111965C934E932150310913963C934B
:104900002E93129781937894C7CFE9EBF5E086E96F
:10491000DF011D928A95E9F7E9E2F4E080E991E090
:10492000DF019C011D9221503040E1F710922804D4
:1049300010922704E3E5F6E082E3DF011D928A95F9
:10494000E9F7EFE4F6E084E0DF011D928A95E9F7EC
:1049500090E080E00895CF93DF93C091AB02D091B7
:10496000AC02CF3FDC0759F420D49093AC02809383
:10497000AB0297FF09C0D093AC02C093AB0284EFA7
:104980009FEFDF91CF91089590E080E0FACF8230E1
:10499000910528F48093850690E080E008958FEFDC
:1049A0009FEF08954F925F926F927F92AF92BF9266
:1049B000CF92DF92EF92FF920F931F93CF93DF93EB
:1049C0001F921F92CDB7DEB71A821982009709F4A1
:1049D00078C06115710509F474C02091AB02309163
:1049E000AC0207EF1FEF2F3F3F4F09F444C06B01AC
:1049F0005C01412C512C3201F12CE12C10E000E043
:104A00009E012F5F3F4FA6014E195F09B5016E0D44
:104A10007F1D8091AB029091AC0226D4892B09F0C6
:104A20004AC089819A81009741F4E114F10429F484
:104A300020918506222309F441C0E80EF91EEC14EA
:104A4000FD04C8F480E8481684E858068EE168063C
:104A5000710418F560E070E0CB010DD72AE0420E3A
:104A6000511C611C711C0A3F4FEF140721F0043FD9
:104A70008FEF1807A1F4C8010F900F90DF91CF912D
:104A80001F910F91FF90EF90DF90CF90BF90AF906C
:104A90007F906F905F904F90089501EF1FEF81E03E
:104AA00090E0013F2FEF120711F090E080E0892B9A
:104AB00009F4A6CFE0CF04EF1FEFDDCF0AEF1FEF21
:104AC000DACF0FEF1FEFD7CF4F925F926F927F92A7
:104AD000AF92BF92CF92DF92EF92FF920F931F930C
:104AE000CF93DF931F921F92CDB7DEB71A82198240
:104AF000009709F478C06115710509F474C020911C
:104B0000AB023091AC0207EF1FEF2F3F3F4F09F48C
:104B100044C06B015C01412C512C3201F12CE12C81
:104B200010E000E09E012F5F3F4FA6014E195F0984
:104B3000B5016E0D7F1D8091AB029091AC024AD3FE
:104B4000892B09F04AC089819A81009741F4E114C8
:104B5000F10429F420918506222309F441C0E80ECE
:104B6000F91EEC14FD04C8F480E4481682E45806EB
:104B70008FE06806710418F560E070E0CB017BD629
:104B80002AE0420E511C611C711C0E3F4FEF1407AE
:104B900021F0043F8FEF1807A1F4C8010F900F9088
:104BA000DF91CF911F910F91FF90EF90DF90CF9009
:104BB000BF90AF907F906F905F904F90089502EFFD
:104BC0001FEF81E090E0023F2FEF120711F090E01D
:104BD00080E0892B09F4A6CFE0CF04EF1FEFDDCFF3
:104BE0000EEF1FEFDACF0FEF1FEFD7CF8091AB02A1
:104BF0009091AC028F3F980749F0CFD2892B49F4AE
:104C00008FEF9FEF9093AC028093AB0290E080E037
:104C1000089584EF9FEF0895CF92DF92EF92FF9275
:104C20000F931F93CF93DF9321E04115510509F0B6
:104C300020E04150510921112CC0DC01FB01D12C95
:104C4000C12C21E022C03FEFC31AD30A7D010D9190
:104C50001D91E701EA80FB80E016F106A8F42081AF
:104C60003181E280F380F182E08233832283ED9010
:104C7000FC9011979D0122503109E901F982E882E7
:104C800011961C930E9320E03296C416D506D8F2E6
:104C9000D2CFDF91CF911F910F91FF90EF90DF90D6
:104CA000CF900895FC01680F791F90E080E0E6172F
:104CB000F70709F408952191820F911DF8CF2091F3
:104CC0008606211113C047DE009791F410928C06DE
:104CD00010928B0610928A0610928906109288060E
:104CE0001092870621E020938606089584EF9FEFB7
:104CF0000895AF92BF92CF92DF92EF92FF920F93FF
:104D00001F93CF93DF93009709F460C0463051059D
:104D100008F45CC020918606C7EFDFEF222309F478
:104D200049C08C01060F171FF801C080D180C11443
:104D3000D10409F44EC096012A5F3F4F4217530732
:104D400008F447C07C0180918B0690918C06938378
:104D50008283B6016C5F7F4F5801A60EB71EC80153
:104D6000A1DFF5019183808364E070E0C8011ADE61
:104D7000EC01892BF9F481E090E009DEB601C8016D
:104D8000049610DEEC01892B91F462E070E0C5011D
:104D900009DEEC01892B59F4C701DBDB80918B061E
:104DA00090918C06019690938C0680938B0690E0F0
:104DB00080E0EDDDCE01DF91CF911F910F91FF904B
:104DC000EF90DF90CF90BF90AF900895CFEFDFEFDF
:104DD000F1CFC9EFDFEFEECF6F927F928F929F926C
:104DE000AF92BF92CF92DF92EF92FF920F931F93F9
:104DF000CF93DF9300D01F92CDB7DEB7009709F4B1
:104E00007AC04115510509F476C02091860607EF56
:104E10001FEF222309F44DC03A017B015C0164E0DD
:104E200070E0CE01019650DE8C01892B09F041C063
:104E300009811A810115110509F45AC0480186E05B
:104E4000880E911CB701680D791D8091AD0290917B
:104E5000AE020BDD6C01009709F450C0A70170E0B1
:104E600060E00E94813289819A81AB81BC81EC0C27
:104E7000FD1CF70181939193A193B1937F0181E090
:104E800090E085DDB801C7011FDE892B31F562E0B6
:104E900070E0C701800F911F17DE8C01892BE9F4A8
:104EA00090E080E074DDF501D182C082F30191824F
:104EB0008082C8010F900F900F900F90DF91CF91DB
:104EC0001F910F91FF90EF90DF90CF90BF90AF9028
:104ED0009F908F907F906F90089590E080E057DDD5
:104EE000F50111821082F30111821082C60131DBBB
:104EF00009EF1FEFDECF0FEF1FEFDBCF06EF1FEF46
:104F0000D8CF0097A1F04115510589F02115310541
:104F100071F0F90136966E177F0748F0DC012D938A
:104F20003C93DA01ED93FC9390E080E008958FEFDD
:104F30009FEF0895AF92BF92CF92DF92EF92FF92D0
:104F40000F931F93CF93DF93009709F45FC0411530
:104F5000510509F45BC06530710508F457C0209114
:104F60008606C7EFDFEF222391F1DC01CD90DC90C4
:104F700011971296ED91FC9196012A5F3F4FC9EF70
:104F8000DFEF2617370719F5C0918706D0918806FD
:104F9000209749F521E030E030938806209387067A
:104FA0007A018C01F0938A06E09389065601B4E0F9
:104FB000AB0EB11CB50176DE0A0D1B1DF801208178
:104FC00031818217930729F5D701CD92DC92CE016A
:104FD000DF91CF911F910F91FF90EF90DF90CF90D5
:104FE000BF90AF9008952091890630918A062F5F77
:104FF0003F4FCCEFDFEFE217F30790F2CBEFDFEF9D
:105000002E173F0768F2D0E0C0E0CACFCFEFDFEF46
:10501000DECFC3EFDFEFDBCF84E090E0089582E0E6
:1050200090E008958CEF9FEF089580E290E008955E
:1050300010928C0610928B0610928A0610928906A6
:10504000109288061092870690E080E00895909371
:10505000AE028093AD02089580918606882391F078
:10506000C5DD009789F410928C0610928B06109281
:105070008A0610928906109288061092870610926E
:105080008606089590E080E00895009749F0611544
:10509000710531F0FC0111821082FB011182108236
:1050A0000895F3CF26E030E040E855E260E070E09C
:1050B00090E080E000C08130910569F01CF4892BFC
:1050C00039F008958230910549F0039751F0089521
:1050D0008AE996E0F8C687E397E0FCCF84ED97E095
:1050E000F9CF81E798E0F6CF1F920F920FB60F929B
:1050F00011240BB60F922F933F934F935F936F93AF
:105100007F938F939F93AF93BF93EF93FF938FE81A
:105110009DEF9093250180932401BAD0FF91EF91E8
:10512000BF91AF919F918F917F916F915F914F91BF
:105130003F912F910F900BBE0F900FBE0F901F90BD
:1051400018958FE89DEF9093250180932401A3E7A4
:10515000B0E08C918E7F8C93E0E2F1E080818C7FD7
:105160008083E1E2F1E08081877E808380818460BA
:10517000808380818C7F80838C9181608C93089563
:10518000E3E7F0E0808190819E7F908381700895B5
:1051900081E0089510928D06089568EE73E080E036
:1051A00090E069D390E080E0089526E030E040E0B0
:1051B00050E16EE070E090E080E07DDF8AE996E00B
:1051C000B8D5892B21F08AE996E0CDD5F7CF90E0CC
:1051D00080E00895CF92DF92EF92FF920F931F939A
:1051E000CF93DF936B017A01E901198218828AE972
:1051F00096E09FD5892B69F18601CC24C39482E087
:10520000D82E80918D06811110C08AE996E0ABD529
:105210000297B9F7C0928D06F801D1928F0188816B
:105220009981019699838883ECCF888199818E1525
:105230009F0578F48AE996E096D58F3F9807A9F301
:10524000F80181938F0188819981019699838883E0
:10525000ECCF90E080E0DF91CF911F910F91FF9014
:10526000EF90DF90CF9008950F931F93CF93DF932C
:10527000EA0189018AE996E00E94F331F801D183BD
:10528000C08390E080E0DF91CF911F910F9108954E
:10529000CF92DF92EF92FF92CF93DF9380918E06B1
:1052A00091E0980F90938E06882379F021E030E00A
:1052B0003093900620938F0680938E06DF91CF91D6
:1052C000FF90EF90DF90CF9008957894C091B10255
:1052D000D091B2026E8D7F8D88A199A144D120E03A
:1052E00030E040E85FE4F5D16B017C016A8D7B8D95
:1052F0008C8D9D8D38D19B01AC01C701B6019AD030
:1053000006D16B017C010E945305B701A60190E014
:1053100080E00E94C504F89480918E068150CCCF25
:105320000F931F93CF93DF9310925D0910925C0946
:10533000D8D2B8DEC091B102D091B20219821882DF
:1053400068E873E180E090E00E94480570E060E06A
:1053500090E080E00E94C803009709F03AC00E94E4
:105360002C09F8947894BE016A5D7F4F8A819B81F5
:105370000E94CB03892B59F46FEF7FEFCB010E9482
:105380005B040E944205882311F081E08AA7F8940B
:10539000D8DE0E944505882311F080E008C00E94F5
:1053A00042058111FACF81E09AA59111F6CF809341
:1053B0005C0978940E946A108C01789480915C0951
:1053C00081110CC00E94F6090E942705F89490E014
:1053D00080E0DF91CF911F910F9108950E942505E4
:1053E0000E9445058823D9F081E080935D09909162
:1053F0005D0981E0911180E080935C0980915D09F5
:105400008111BEDE0130110529F40E946A10892B3A
:1054100009F4C0DE0E946A108C01BADECFCF0E9470
:1054200042058111E1CF81E09AA59111DECF80E0A4
:10543000DCCF5058BB27AA270ED00DC1FED030F0CC
:1054400003D120F031F49F3F11F41EF4F3C00EF4A9
:10545000E095E7FBE9C0E92F0FD180F3BA176207A7
:1054600073078407950718F071F49EF527C10EF4B1
:10547000E0950B2EBA2FA02D0B01B90190010C0164
:10548000CA01A0011124FF27591B99F0593F50F47C
:10549000503E68F11A16F040A22F232F342F4427D4
:1054A000585FF3CF469537952795A795F0405395CC
:1054B000C9F77EF41F16BA0B620B730B840BBAF09C
:1054C0009150A1F0FF0FBB1F661F771F881FC2F707
:1054D0000EC0BA0F621F731F841F48F4879577951B
:1054E0006795B795F7959E3F08F0B3CF9395880FD2
:1054F00008F09927EE0F97958795089571D008F4D5
:1055000081E0089504D06894B111D9C00895BCD049
:1055100088F09F5790F0B92F9927B751A0F0D1F09C
:10552000660F771F881F991F1AF0BA95C9F712C026
:10553000B13081F0C3D0B1E00895C0C0672F782F9B
:105540008827B85F39F0B93FCCF386957795679592
:10555000B395D9F73EF490958095709561957F4FFE
:105560008F4F9F4F0895E89409C097FB3EF49095A4
:105570008095709561957F4F8F4F9F4F9923A9F02C
:10558000F92F96E9BB279395F695879577956795BB
:10559000B795F111F8CFFAF4BB0F11F460FF1BC0FF
:1055A0006F5F7F4F8F4F9F4F16C0882311F096E992
:1055B00011C0772321F09EE8872F762F05C0662340
:1055C00071F096E8862F70E060E02AF09A95660FF9
:1055D000771F881FDAF7880F9695879597F90895B2
:1055E000990F0008550FAA0BE0E8FEEF16161706F4
:1055F000E807F907C0F012161306E407F50798F05C
:10560000621B730B840B950B39F40A2661F0232B74
:10561000242B252B21F408950A2609F4A140A695F0
:105620008FEF811D811D089597F99F6780E870E0D5
:1056300060E008959FEF80EC089500240A94161608
:10564000170618060906089500240A941216130670
:10565000140605060895092E0394000C11F48823FE
:1056600052F0BB0F40F4BF2B11F460FF04C06F5F1A
:105670007F4F8F4F9F4F089557FD9058440F551FF0
:1056800059F05F3F71F04795880F97FB991F61F0C4
:105690009F3F79F087950895121613061406551F3B
:1056A000F2CF4695F1DF08C0161617061806991FA7
:1056B000F1CF86957105610508940895E894BB279C
:1056C00066277727CB0197F908958ADF08F48FEFD3
:1056D00008950BD0C0CFB1DF28F0B6DF18F09523C6
:1056E00009F0A2CFA7CF1124EACFC6DFA0F3959F80
:1056F000D1F3950F50E0551F629FF001729FBB27B9
:10570000F00DB11D639FAA27F00DB11DAA1F649F64
:105710006627B00DA11D661F829F2227B00DA11D17
:10572000621F739FB00DA11D621F839FA00D611D9D
:10573000221F749F3327A00D611D231F849F600DBE
:10574000211D822F762F6A2F11249F5750408AF0F7
:10575000E1F088234AF0EE0FFF1FBB1F661F771F83
:10576000881F91505040A9F79E3F510570F05CCFC3
:10577000A6CF5F3FECF3983EDCF38695779567956F
:10578000B795F795E7959F5FC1F7FE2B880F911DA1
:105790009695879597F908951F920F920FB60F92DD
:1057A00011242F933F938F939F93AF93BF93809137
:1057B000920690919306A0919406B091950630912F
:1057C000910623E0230F2D3758F50196A11DB11D39
:1057D000209391068093920690939306A09394064B
:1057E000B09395068091960690919706A0919806A1
:1057F000B09199060196A11DB11D809396069093D4
:105800009706A0939806B0939906BF91AF919F9188
:105810008F913F912F910F900FBE0F901F90189571
:1058200026E8230F0296A11DB11DD2CF3FB7F894F1
:105830008091960690919706A0919806B09199064E
:1058400026B5A89B05C02F3F19F00196A11DB11DDB
:105850003FBFBA2FA92F982F8827BC01CD01620F17
:10586000711D811D911D42E0660F771F881F991FD2
:105870004A95D1F708958F929F92AF92BF92CF929F
:10588000DF92EF92FF926B017C01D0DF4B015C0154
:10589000C114D104E104F104D9F0D2D5C7DF6819ED
:1058A00079098A099B09683E73408105910580F357
:1058B00021E0C21AD108E108F10888EE880E83E0E1
:1058C000981EA11CB11CC114D104E104F10431F7EC
:1058D000FF90EF90DF90CF90BF90AF909F908F9010
:1058E0000895789484B5826084BD84B5816084BD58
:1058F00085B5826085BD85B5816085BDEEE6F0E049
:10590000808181608083E1E8F0E0108280818260A4
:105910008083808181608083E0E8F0E08081816025
:105920008083E1EBF0E0808184608083E0EBF0E055
:10593000808181608083E1E9F0E080818260808302
:10594000808181608083E0E9F0E0808181608083F4
:10595000E1EAF0E0808182608083808181608083E1
:10596000E0EAF0E0808181608083E1E2F1E0808123
:1059700082608083808181608083E0E2F1E08081C9
:1059800081608083EAE7F0E08081846080838081A9
:105990008260808380818160808380818068808351
:1059A0001092C1000895863308F0865320917B0041
:1059B000982F9870277F922B90937B002091AF02B5
:1059C00090E4299F900111248770822B80937C00A2
:1059D00080917A00806480937A0080917A0086FDBD
:1059E000FCCF809178009091790008951F93CF9318
:1059F000DF93182FEB0161E033D1209731F460E0A1
:105A0000812FDF91CF911F9167C1CF3FD10511F455
:105A100061E0F6CFE12FF0E0EC51FF4FE491E1506F
:105A2000E23108F0B2C0F0E08827E75EF24D8F4F18
:105A30003EC52B2D332D382D422D4C2DC52D562DE9
:105A40005E2D662D702D7A2D842D932D9D2DC52DC7
:105A5000A72DB12DBB2D84B5806884BDC7BDDF9156
:105A6000CF911F91089584B5806284BDC8BDF7CFE2
:105A700080918000806880938000D0938900C093DB
:105A80008800EDCF80918000806280938000D09369
:105A90008B00C0938A00E3CF809180008860809360
:105AA0008000D0938D00C0938C00D9CF8091B0003E
:105AB00080688093B000C093B300D1CF8091B000D4
:105AC00080628093B000C093B400C9CF80919000F1
:105AD000806880939000D0939900C0939800BFCFC6
