:10000000F8C0000027C1000025C1000023C1000086
:1000100021C100001FC100001DC100001BC1000064
:1000200019C1000017C1000015C1000013C1000074
:1000300011C100000FC100000DC100000BC1000084
:1000400009C1000007C1000005C1000003C1000094
:1000500001C10000FFC00000FDC000000C94812A17
:10006000F9C000000C94782E0C94AE2EF3C0000062
:10007000F1C00000EFC00000EDC00000EBC00000C8
:10008000E9C00000E7C00000E5C00000E3C00000D8
:100090000C94042F0C943A2FDDC00000DBC000004C
:1000A000D9C00000D7C00000D5C00000D3C00000F8
:1000B000D1C00000CFC00000CDC00000CBC0000008
:1000C000C9C00000C7C000000C9451270C94902FA9
:1000D0000C94C62FBFC000000C941C300C945230FE
:1000E000B9C0000000000A0B02090C0D0E0807033E
:1000F00004010000000000000000000000000000FB
:1001000000000000000000000000000000000000EF
:1001100012111000000000000000000000000000AC
:100120000000000000000000000001021020200874
:100130000810204010204080020102010804020142
:1001400001020408102040808040201008040201B1
:10015000800402018040201008040201080402010A
:100160000102040810204080010204081020408091
:1001700005050505070508080808020202020A0A23
:100180000808040404040101010101010101030341
:10019000030303030303040707070C0C0C0C0C0CEC
:1001A0000C0C0202020206060606060606060B0BE9
:1001B0000B0B0B0B0B0B00002200250028002B0063
:1001C0002E003100340002010000050108010B017E
:1001D00000002100240027002A002D0030003300F9
:1001E00001010000040107010A01D72E632FEF2F40
:1001F0007B3011241FBECFEFD1E2DEBFCDBF00E0C8
:100200000CBF13E0A0E0B2E0EEE7F2E600E00BBFC7
:1002100002C007900D92A231B107D9F728E0A2E100
:10022000B3E001C01D92AE3FB207E1F710E0C9EFA5
:10023000D0E000E006C021970109802FFE010E9456
:100240000C31C53FD10780E00807A9F70E943E287E
:100250000C943D31D5CECF93DF93882349F0EB0149
:1002600081500E94882B99838883DF91CF910895D4
:10027000FB0111821082F9CF0F931F938B019C0118
:1002800083E036952795179507958A95D1F7055EF2
:100290001C4F462F477021E030E0F90102C0EE0FFD
:1002A000FF1F4A95E2F7AF01F80120812423CB011B
:1002B0000196211102C090E080E01F910F910895F6
:1002C0000F931F938B019C0183E03695279517951B
:1002D00007958A95D1F7677081E090E001C0880F9B
:1002E0006A95EAF7F801E55EFC4F2081452B31F471
:1002F0008095822380831F910F910895822BFACFDE
:10030000CF92DF92EF92FF92CF93DF936B017C014C
:1003100060E086E3C816D104E104F10490F486E3BA
:100320008C0D0E94E52CE6012196AE01C701B601B5
:10033000C7DFCE01DF91CF91FF90EF90DF90CF909C
:1003400008958C2DEECF882341F08150682F70E006
:1003500090E080E050E040E0B3CF0895CF92DF928C
:10036000EF92FF92CF93882351F16A017B01CFEF87
:10037000C80F20E030E0A901CB01B6010E9433296B
:1003800018168CF0C701B60190580E943C299B01B9
:10039000AC016C2F70E090E080E0CF91FF90EF9087
:1003A000DF90CF90B2C0C701B6010E9437298C2FD1
:1003B000CF91FF90EF90DF90CF900C94AB2BCF912B
:1003C000FF90EF90DF90CF9008950F931F938B01D4
:1003D0009C0183E036952795179507958A95D1F767
:1003E0000E5E1C4F462F477021E030E0F90102C03D
:1003F000EE0FFF1F4A95E2F7AF01F8012081242399
:10040000CB010196211102C090E080E01F910F9175
:1004100008950F931F938B019C0183E036952795D8
:10042000179507958A95D1F7677081E090E001C034
:10043000880F6A95EAF7F801EE5EFC4F2081452BA4
:1004400031F48095822380831F910F910895822B30
:10045000FACF2F923F924F925F926F927F928F923C
:100460009F92AF92BF92CF92DF92EF92FF920F9343
:100470001F93CF93DF93D62EC72E782E692E490176
:100480005A01280161E08D2D0E94E52CCD2DDC2D37
:100490008E010F5F1F4FA8016D2D7C2D872D962D8E
:1004A000B8DF20E030E0A901C201B7010E941A2A9A
:1004B000181664F4C201B7010E943C292B01C50142
:1004C000B4010E943C29A201CE0123D0C801DF91D2
:1004D000CF911F910F91FF90EF90DF90CF90BF9041
:1004E000AF909F908F907F906F905F904F903F90D4
:1004F0002F900895882341F08150682F70E090E09C
:1005000080E050E040E085CF0895862FB9010C943B
:10051000AB2B9C01FC01EC51FF4FE491E150E23127
:10052000E0F4F0E08827E856FD4F8F4F0C940C3133
:10053000AA02B102B402CB02E002AD02F50201034D
:1005400005031C03310346035D037203AD028703F9
:100550009E03B30384B5806884BD60E0822F0C9451
:10056000212D84B58062F8CF809180008C7F8260DD
:100570008093800080918100807E8061682B6093F1
:1005800081005093870040938600809180008068AE
:1005900080938000E2CF809180008C7F8260809386
:1005A000800080918100807E8061682B6093810053
:1005B0005093870040938600809180008062E8CF4E
:1005C000809180008C7F8260809380008091810088
:1005D000807E8061682B60938100509387004093F8
:1005E0008600809180008860D3CF8091B0008068C1
:1005F0008093B0008091B100887F682B6093B10038
:10060000ACCF8091B0008062F3CF809190008C7F5E
:1006100082608093900080919100807E8061682B41
:1006200060939100509397004093960080919000C2
:1006300080688093900091CF809190008C7F826041
:100640008093900080919100807E8061682B609300
:1006500091005093970040939600809190008062A3
:10066000E8CF809190008C7F826080939000809191
:100670009100807E8061682B609391005093970079
:1006800040939600809190008860D3CF8091A00025
:100690008C7F82608093A0008091A100807E806129
:1006A000682B6093A1005093A7004093A60080910F
:1006B000A00080688093A00050CF8091A0008C7F24
:1006C00082608093A0008091A100807E8061682B71
:1006D0006093A1005093A7004093A6008091A000D2
:1006E0008062E8CF8091A0008C7F82608093A00020
:1006F0008091A100807E8061682B6093A10050935F
:10070000A7004093A6008091A0008860D3CF80917D
:1007100020018C7F82608093200180912101807E66
:100720008061682B6093210150932701409326013B
:10073000809120018068809320010FCF809120015B
:100740008C7F82608093200180912101807E806176
:10075000682B6093210150932701409326018091DB
:1007600020018062E8CF809120018C7F826080939D
:10077000200180912101807E8061682B609321019E
:100780005093270140932601809120018860D3CFA8
:1007900090E080E008950F931F93009709F487C0BD
:1007A0006115710509F483C0009142021091430262
:1007B00020914402309145020E3F1F4F2F4F3F4F73
:1007C00009F066C04FEF5FEFBA01409342025093C9
:1007D000430260934402709345024091420250915B
:1007E00043026091440270914502DC011296ED9142
:1007F000FC9180819181A281B381809326049093A2
:100800002704A0932804B093290484819581A681AC
:10081000B7818093220490932304A0932404B0937F
:10082000250480859185A285B38580931E049093CD
:100830001F04A0932004B093210484859585A68588
:10084000B78580931A0490931B04A0931C04B09363
:100850001D0410921604109217041092180410929E
:10086000190406D78DE59BE090932503809324031C
:100870009093270380932603EAD5009731F421E073
:1008800030E030932B0420932A041F910F91089598
:10089000009142021091430220914402309145029E
:1008A000DB010D931D932D933C93139796CF8FEF00
:1008B0009FEFEBCF8F929F92AF92BF92CF92DF923A
:1008C000EF92FF921F93CF93DF934B015C01109146
:1008D0002D0482E090E090932B0480932A048114ED
:1008E0009104A104B10441F480912D04811104C04C
:1008F00080912C04C1E08111C0E0C12CD12C760183
:1009000080912D04811106C080912C04811102C0B8
:10091000CC23D9F083E090E090932B0480932A04B9
:10092000CC2379F1CCE9DFEF111102C00E94C20E95
:10093000CE01DF91CF911F91FF90EF90DF90CF908C
:10094000BF90AF909F908F9008956AE070E080E034
:1009500090E00E94F02A80E1C80E87E2D81EE11CD8
:10096000F11C8FEF88169806A806B80631F0C1E092
:100970008C149D04AE04BF0408F0C0E080E09BD559
:10098000BFCFD0E0C0E0D0CFCF92DF92EF92FF9206
:100990000F931F93CF93DF938F3F910511F008F0D2
:1009A00050C020912A0430912B042330310539F0B6
:1009B00020912A0430912B042130310531F424E0B8
:1009C00030E030932B0420932A046A017B01EC0170
:1009D00082309105A0F011E0AE01C701B60136D515
:1009E000AB01BC01CE011123F9F0DF91CF911F9132
:1009F0000F91FF90EF90DF90CF900C94EB108C0153
:100A0000000F111F0C5D1C4FD8018D919C91892BFB
:100A100011F30E94F5100297F1F6D801ED91FC91C7
:100A2000CE011995182FD8CF0E940D1190E080E0CB
:100A3000DF91CF911F910F91FF90EF90DF90CF90BA
:100A400008958FEF9FEFF4CF80E035C5CF93DF930C
:100A500086E090E090932B0480932A0485D5EC01E6
:100A6000E4E2F3E084E0DF011D928A95E9F70E9459
:100A70005A0E10922B0410922A04CE01DF91CF91CE
:100A8000089580912C040895809115040895609331
:100A9000420270934302809344029093450290E097
:100AA00080E008954F925F926F927F928F929F9213
:100AB000AF92BF92CF92DF92EF92FF920F931F936C
:100AC000CF93DF931F921F92CDB7DEB7C09018026D
:100AD000D0901902E0901A02F0901B02A701960133
:100AE0006091D8087091D9088091DA089091DB085C
:100AF0000E943329882341F0C092D808D092D908A7
:100B0000E092DA08F092DB0866E370E080E090E0C3
:100B1000B3DB9093D7088093D60843E050E0BE0142
:100B20006F5F7F4F98DB2091400230914102A98195
:100B3000BA810E9414310E94682920E030E040E030
:100B400057E30E941E2A9B01AC0160911C02709128
:100B50001D0280911E0290911F020E94CE286B01FF
:100B60007C01C092F008D092F108E092F208F09275
:100B7000F308E091EF03F091F0032091200230910F
:100B80002102409122025091230260817181828171
:100B900093810E94332987FF7BC06091240270916A
:100BA00025028091260290912702A70196010E94BA
:100BB000CE286B017C01C092F408D092F508E09237
:100BC000F608F092F708209100023091010240915E
:100BD0000202509103020E941E2A2091E8083091DF
:100BE000E9084091EA085091EB080E94CE28209134
:100BF00014023091150240911602509117020E9482
:100C00001E2A4B015C01209108023091090240919B
:100C10000A0250910B02C701B6010E941E2A2091C0
:100C2000E4083091E5084091E6085091E7080E94F9
:100C3000CF28A50194010E94CF2820913402309141
:100C4000350240913602509137020E941E2A6B01F4
:100C50007C01C092F808D092F908E092FA08F0926C
:100C6000FB08409038025090390260903A02709030
:100C70003B02A30192010E941A2A181694F4409292
:100C8000F8085092F9086092FA087092FB0819C0AF
:100C9000609128027091290280912A0290912B0282
:100CA00084CF40903C0250903D0260903E02709094
:100CB0003F02A3019201C701B6010E94332987FDBB
:100CC000DECF69E070E080E090E07FDB8C01909304
:100CD000E3088093E208C090F808D090F908E0900B
:100CE000FA08F090FB0820E030E04FE753E4C7013A
:100CF000B6010E94332918160CF457C120E030E0E9
:100D0000A901C701B6010E941A2A87FF03C0C12C9E
:100D1000D12C7601B701A601C80120DB2091F4088F
:100D20003091F5084091F6085091F708609104025F
:100D30007091050280910602909107020E941E2A7E
:100D400020912C0230912D0240912E0250912F02C1
:100D50000E941E2A2091E4083091E5084091E6089F
:100D60005091E7080E94CF286093E4087093E5084B
:100D70008093E6089093E708209130023091310289
:100D80004091320250913302C501B4010E941E2AE3
:100D90002091E8083091E9084091EA085091EB0869
:100DA0000E94CF286093E8087093E9088093EA08CE
:100DB0009093EB086091D8037091D9038091DA0386
:100DC0009091DB030E94682920E030E040E85FE476
:100DD0000E941E2A6B017C016091D4037091D5039F
:100DE0008091D6039091D7030E9468299B01AC01A2
:100DF000C701B6010E94CF2820E030E0A9010E947F
:100E0000CF280E943C29AB01BC0190E080E0BCDD12
:100E10006091E4037091E5038091E6039091E7030C
:100E20000E94682920E030E040E85FE40E941E2A2A
:100E30006B017C016091E0037091E1038091E2031A
:100E40009091E3030E9468299B01AC01C701B601A0
:100E50000E94CF2820E030E0A9010E94CF280E9404
:100E60003C29AB01BC0181E090E08EDDC090D40351
:100E7000D090D503E090D603F090D7038FEFC81A37
:100E8000D80AE80AF80AC092D403D092D503E092B7
:100E9000D603F092D703C114D104E104F10499F40C
:100EA0008091D8039091D903A091DA03B091DB032C
:100EB0000196A11DB11D8093D8039093D903A093EF
:100EC000DA03B093DB038090DC039090DD03A09005
:100ED000DE03B090DF030091EF031091F003609107
:100EE000D8037091D9038091DA039091DB030E94BB
:100EF0006829A50194010E941E2A20E030E040E804
:100F00005FE40E941E2A2B013C01C701B6010E942A
:100F10006829A50194010E941E2A9B01AC01C3010E
:100F2000B2010E94CF28F80160837183828393838A
:100F30008091E0039091E103A091E203B091E3037B
:100F40000196A11DB11D8093E0039093E103A0934E
:100F5000E203B093E303892B8A2B8B2B99F48091C6
:100F6000E4039091E503A091E603B091E7030196B5
:100F7000A11DB11D8093E4039093E503A093E603C4
:100F8000B093E7030F900F90DF91CF911F910F91D6
:100F9000FF90EF90DF90CF90BF90AF909F908F9099
:100FA0007F906F905F904F900895C12CD12C8FE768
:100FB000E82E83E4F82EAECE4F925F926F927F922E
:100FC000AF92BF92DF92EF92FF920F931F93CF9356
:100FD000DF93EAE3F3E08FEBDF011D928A95E9F7F7
:100FE0008CEE93E097838683CFEED3E0D0937B03A0
:100FF000C0937A030CED13E0158B048BF093A503DB
:10100000E093A403F583E48321E030E0DC012D9339
:101010003C938CE692E09387828721EF33E039831B
:10102000288340E050E060E87FEB4093E803509372
:10103000E9036093EA037093EB034AE057ED63E240
:101040007CE3D8014D935D936D937C931397C2EC31
:10105000D3E085EE9DEDACEFB4E088839983AA835D
:10106000BB838DE29EEEADEEBBE18093C603909311
:10107000C703A093C803B093C90384E296E0A2E338
:10108000BBEC8093CA039093CB03A093CC03B093A3
:10109000CD0382E79CE2A8ECB4E08093CE0390936A
:1010A000CF03A093D003B093D103AEE2B3E0B383F8
:1010B000A283E8E2F3E01196FC93EE938EE792E0D0
:1010C00091838083938382839583848382ED93E0ED
:1010D00015969C938E9314971396DC93CE93129748
:1010E00017963C932E931697E0EFF8E08CE0DF0123
:1010F0001D928A95E9F7C0EDD8E080E2FE011192D9
:101100008A95E9F7DD24D394DF8E80E0A82E82E073
:10111000B82EF501808D918DA28DB38D888799872A
:10112000AA87BB87412C512C3201439449825A82B1
:101130006B827C8266E370E080E090E0E1D89F8380
:101140008E83DD821C86DE8E4D865E866F86788A73
:10115000E12CF12C8701A801970169E070E080E0A3
:1011600090E077D99B8B8A8BD98AF5018089918908
:10117000A289B3898C8B9D8BAE8BBF8B8485958523
:10118000A685B785888F998FAA8FBB8FDF91CF9166
:101190001F910F91FF90EF90DF90BF90AF907F90E5
:1011A0006F905F904F9008958091D00881111DC07D
:1011B00081E08093D0088091D1089091D208A091CD
:1011C000D308B091D4080197A105B10571F48091BD
:1011D000D508882351F066E370E080E090E04CD8B9
:1011E0009093D7088093D608AED88091DC088111FF
:1011F0002AC081E08093DC088091DD089091DE08B0
:10120000A091DF08B091E0080197A105B105D9F4DC
:101210008091E1088823B9F069E070E080E090E017
:10122000D4D89093E3088093E20840E050E0BA01FC
:1012300095D869E070E080E090E0C7D89093E3082B
:101240008093E20857C908954F925F926F927F9200
:101250008F929F92AF92BF92CF92DF92EF92FF92C6
:101260000F931F93F89440900504509006046090EB
:10127000070470900804C090F903D090FA03E0903E
:10128000FB03F090FC034130510509F0A4C09B0121
:10129000AC01241935094609570929013A01009181
:1012A00001041091020420910304309104044801C8
:1012B0005901840C951CA61CB71C80169106A20629
:1012C000B306A0F40091FD031091FE032091FF03EB
:1012D000309100040F5F1F4F2F4F3F4F0093FD03CE
:1012E0001093FE032093FF033093000480920104C7
:1012F00090920204A0920304B09204040091FD03B2
:101300001091FE032091FF033091000480920904A4
:1013100090920A04A0920B04B0920C0400930D0466
:1013200010930E0420930F0430931004609305046F
:10133000709306048093070490930804A0E1B7E239
:10134000A30192010E9423316C0D7D1D8E1D9F1DF6
:101350006093F9037093FA038093FB039093FC036B
:1013600000914202109143022091440230914502C3
:101370000F3F1F4F2F4F3F4FF1F00091420210914E
:10138000430220914402309145020E3F1F4F2F4FE0
:101390003F4F89F0C0904202D0904302E090440257
:1013A000F090450221E08C149D04AE04BF0408F4C3
:1013B00020E02093150478941F910F91FF90EF90F7
:1013C000DF90CF90BF90AF909F908F907F906F9065
:1013D0005F904F9008954B015C0184189508A60812
:1013E000B708A3019201261B370B480B590B641554
:1013F000750586059705D0F082169306A406B506F6
:1014000040F420E030E0A90181149104A104B1046A
:1014100091F4A0E1B7E20E942331A7019601261BB7
:10142000370B480B590BCA01B901C5CF8216930679
:10143000A406B50670F7A0E1B7E2A50194010E94E9
:1014400023316C0D7D1D8E1D9F1DB5CFFDCECF931D
:10145000DF9300D01F92CDB7DEB71C821B821A82A9
:101460001982109211041092120410921304109217
:101470001404BE016F5F7F4FCE0103960E942227A6
:1014800069817A818B819C810E941220009761F48E
:10149000BE016F5F7F4FCE0103960E942E276981A8
:1014A0007A818B819C812FD50F900F900F900F9098
:1014B000DF91CF910895FF920F931F93CF93DF9306
:1014C000082F60E070E0CB010E94F02AFF24F39423
:1014D0000E94FB1EEC01892B89F010E0CE3F8FEFBC
:1014E000D80769F0002361F160E070E0CB010E9451
:1014F000F02A81E090E0892B59F322C011E026D533
:10150000EC01892B21F0CE3F8FEFD80759F711114D
:101510001EC011E0229609F410E00E94AB1EEC01FF
:10152000892B21F0CE3F8FEFD807E1F6111111C0C2
:1015300011E0CE3F8FEFD80709F410E001110BC086
:10154000CE01DF91CF911F910F91FF90089511E08F
:10155000E4CF11E0F3CF60E070E0CB010E94F02A0D
:101560001F25812F90E0C7CFCF93DF938091150483
:10157000882321F060E070E0CB014DD636D6D0E074
:10158000C0E0892B71F06AE070E080E090E00E949A
:10159000F02A81E090DF29D62196C03D27E0D207CE
:1015A00081F728D60E94662010922D0410922C04F8
:1015B00010922604109227041092280410922904F5
:1015C00010922204109223041092240410922504F5
:1015D00010921E0410921F041092200410922104F5
:1015E00010921A0410921B0410921C0410921D04F5
:1015F00010921604109217041092180410921904F5
:101600004EEF5FEF6FEF7FEF409342025093430244
:10161000609344027093450210921504E9E0F4E0EF
:1016200028E0DF011D922A95E9F710920504109237
:1016300006041092070410920804109201041092FC
:10164000020410920304109204041092FD031092FD
:10165000FE031092FF03109200041092F9031092FF
:10166000FA031092FB031092FC03DF91CF910895CF
:101670001092390410923A0410923B0410923C04E8
:101680001092380480914104909142049093370461
:101690008093360410923504109234041092300472
:1016A00010923104109232041092330410923E04CE
:1016B00010923D0490E080E00895CF92DF92EF9287
:1016C000FF920F931F93CF938C01019709F055C0A0
:1016D0002091410430914204809136049091370466
:1016E0004091410450914204509337044093360492
:1016F0002817390781F010923504109234041092A3
:10170000300410923104109232041092330410927B
:101710003E0410923D04809141049091420401974F
:1017200061F580913D0490913E04892B21F48091D4
:101730004602811112C080913D0490913E040197B0
:10174000E1F48091300490913104A0913204B09181
:1017500033040197A105B10581F410923004109271
:10176000310410923204109233041092460282E047
:1017700090E090933E0480933D04809141049091C9
:101780004204019709F01CC18091570490915804BC
:101790008017910709F014C180915304909154046B
:1017A000A0915504B0915604009709F409C1209105
:1017B000520421110DC04091530450915404609182
:1017C000550470915604452B462B472B09F4F8C05D
:1017D00020913D0430913E042230310509F0F0C0E3
:1017E000209134042111ECC0FC01C080D180E28042
:1017F000F38080913804882309F4D3C08091440495
:1018000090914504892B09F4FEC020914404309145
:10181000450481E02230310509F080E02091440444
:1018200030914504C1E02130310549F02091440454
:1018300030914504C1E02230310509F0C0E0882331
:1018400009F456C020914E0430914F044091500449
:1018500050915104C701B6010E941A2A87FD14C095
:1018600020914E0430914F04409150045091510406
:101870006091390470913A0480913B0490913C044A
:101880000E94332987FD22C020914E0430914F04DD
:101890004091500450915104C701B6010E941A2A88
:1018A000181634F520914E0430914F0440915004A5
:1018B000509151046091390470913A0480913B0435
:1018C00090913C040E943329811112C080914604FA
:1018D00090914704A0914804B0914904892B8A2B28
:1018E0008B2B19F481E08093350481E080933404DC
:1018F000CC2309F456C020914E0430914F044091FE
:10190000500450915104C701B6010E94332987FF4A
:1019100014C020914E0430914F04409150045091D6
:1019200051046091390470913A0480913B04909184
:101930003C040E941A2A87FF22C020914E04309155
:101940004F044091500450915104C701B6010E94C8
:101950003329811126C020914E0430914F044091CB
:101960005004509151046091390470913A0480916F
:101970003B0490913C040E941A2A181694F480911A
:10198000460490914704A0914804B0914904892BE2
:101990008A2B8B2B19F481E08093350481E08093AE
:1019A000340481E090913404911180E080933804F4
:1019B000C0923904D0923A04E0923B04F0923C0485
:1019C0000130110509F067C180913D0490913E04FA
:1019D000892BD9F41092430410923404809146026A
:1019E000882379F082E090E090933E0480933D0458
:1019F00010924602209141043091420481E0232B51
:101A0000E9F080E01BC081E009CF1092460280918E
:101A10004304882349F01092350410923E0410923A
:101A20003D0410924304EDCF809141049091420413
:101A3000892BE1F0809134041092340420913D040C
:101A400030913E042230310509F45EC088F421153E
:101A5000310509F448C02130310509F4F3C0109272
:101A60003504109234041092430438C081E0E6CF6C
:101A70002330310509F4B1C02430310581F740919C
:101A80003004509131046091320470913304411557
:101A900051056105710561F04150510961097109F4
:101AA00040933004509331046093320470933304B4
:101AB00040913004509131046091320470913304AC
:101AC000452B462B472BD9F420913F0430914004FD
:101AD0002130310509F046C01092350410923E04C1
:101AE00010923D040CC080914602882341F082E0B0
:101AF00090E090933E0480933D0410924602109231
:101B00002E0480913504CEC08823C9F38091460409
:101B100090914704A0914804B09149041816190601
:101B20001A061B060CF07DC080914104909142047E
:101B3000019709F076C08091460490914704A091E6
:101B40004804B09149048093300490933104A093E9
:101B50003204B093330483E090E090933E0480938A
:101B60003D04CDCF40914A0450914B0460914C0408
:101B700070914D04452B462B472BA9F0109235044C
:101B800080914A0490914B04A0914C04B0914D0473
:101B90008093300490933104A0933204B0933304C3
:101BA00081E090E0DACF882399F08091470290910C
:101BB0004802A0914902B0914A0280933004909368
:101BC0003104A0933204B093330484E090E0C5CF95
:101BD0001092350482E090E0C0CF80913004909163
:101BE0003104A0913204B09133040097A105B105EE
:101BF00059F00197A109B109809330049093310401
:101C0000A0933204B0933304809130049091310456
:101C1000A0913204B0913304892B8A2B8B2B09F0CD
:101C20006ECF8091470290914802A0914902B091F5
:101C30004A02892B8A2B8B2B09F44ECF81E08093AB
:101C40003504B3CF40913004509131046091320497
:101C500070913304411551056105710561F04150E2
:101C60005109610971094093300450933104609324
:101C700032047093330440913004509131046091E8
:101C8000320470913304452B462B472B09F037CF94
:101C90008111C7CF9FCF80912E04882309F431CFC3
:101CA00080912F04CF911F910F91FF90EF90DF90C3
:101CB000CF9008951092390410923A0410923B0488
:101CC00010923C041092380410923E0410923D048D
:101CD0001092370410923604109258041092570450
:101CE0001092350410923404109230041092310492
:101CF000109232041092330410922F0410922E048A
:101D000010925304109254041092550410925604E9
:101D10001092520410924E0410924F0410925004EC
:101D20001092510488EE93E0A0E0B0E08093470267
:101D300090934802A0934902B0934A0210924A0439
:101D400010924B0410924C0410924D0410924604D1
:101D500010924704109248041092490410924504CE
:101D60001092440481E08093460210924304109242
:101D70004204109241041092400410923F0490E0FB
:101D800080E008958091410490914204892B19F5D7
:101D900080914602882351F080914304811106C04E
:101DA00081E080932F0480932E04089520914304B2
:101DB0003091460281E090E0332311F090E080E022
:101DC00030E082239323892B21F010922F0481E0AD
:101DD000EACF10922E04089582E090E0FA019183F8
:101DE00080838FEF9FEF0895CF93DF93EA010097F1
:101DF00011F00E9486211982188290E080E0DF9124
:101E0000CF910895DB01009719F48FEF8C9308951B
:101E10002EEF2C93FC013F96EF30F10508F034C013
:101E20008827EA5EF04F8F4F0C940C31420F400F21
:101E30003E0F3C0F3A0F360F380F340F320F300F72
:101E40002D0F290F250F2B0F440F80E311968C9334
:101E5000089589E2FBCF82E2F9CF11961C92089592
:101E600083E2F4CF81E2F2CF81E1F0CF87E2EECFDF
:101E70008AE2ECCF80E1EACF84E2E8CF88E2E6CFE5
:101E800086E2E4CF81E3E2CF80E2E0CF8091650497
:101E90009091660408959093660480936504089574
:101EA00080916404089590916404892B8093640464
:101EB0000895982F909580916404892380936404F9
:101EC0000895809163040895809161049091620463
:101ED00008956115710559F0FB0130E020E070E0D4
:101EE00060E02417350719F06115710511F0CB0179
:101EF0000895A081B181A817B90709F4BF012F5F28
:101F00003F4F3696EECF8091670481111CC060D29E
:101F100066D290935A04809359040E9484190E94B7
:101F2000961990935E0480935D040E94131E0E9494
:101F30001A1E90935C0480935B0481E08093670495
:101F400090E080E0089584EF9FEF08958F929F9234
:101F5000AF92BF92CF92DF92EF92FF920F931F93B7
:101F6000CF93DF9300D000D000D01F92CDB7DEB763
:101F70001A86198618861F821E821D821C821B8269
:101F80001A8219828091670407EF1FEF882309F4F2
:101F90009CC08E010D5F1F4F9E012B5F3F4FAE0116
:101FA000495F5F4FBE01675F7F4F90E080E00E9416
:101FB000971F8C01009721F00596029708F0DBC06F
:101FC00029853A852115310509F402C1ED80FE808D
:101FD0004B815C81B701640F751F8F8198858617CF
:101FE000970708F4F5C0E20EF31ED7019C91903CD0
:101FF00009F07FC04230510508F47BC011968C91E6
:102000004091650450916604452B09F49CC0913FB2
:1020100008F071C02CE1290F2D3008F48BC02DE29F
:10202000290F203108F489C0903C21F4815082307E
:1020300008F483C088E3890F8B3008F481C092E0F4
:10204000C92E9FE0D92EECEEFEE06D817E81AE01BF
:102050004F5F5F4F89859A8519955C01C114D10442
:10206000A1F189809A808114910479F18B819C81FE
:102070008815990508F487C010E000E04B815C8169
:1020800070E060E0C7010E94363101151105E9F4E6
:1020900049815A8169857A858D819E81680F791F72
:1020A000C501F6011995E980FA800D811E812F8105
:1020B000388549855A856FEF7FEF81E090E00E9477
:1020C000321F8C01892B09F056C0C8012A960FB621
:1020D000F894DEBF0FBECDBFDF91CF911F910F915E
:1020E000FF90EF90DF90CF90BF90AF909F908F9038
:1020F000089580E085CF30E020E0220F331FF90102
:10210000E75AFB4F0190F081E02D309709F497CF0B
:10211000892F90E01995009709F491CFDC01129670
:10212000ED91FC9113971496CD90DC90309709F0C7
:102130008CCF1FC021E030E0E0CF22E030E0DDCFE7
:1021400023E030E0DACFD12CC12CE4EFFEE09F3F5A
:1021500009F07BCFE0915904F0915A04309721F4B3
:10216000C90104EF1FEF0CC08FEF90E019950097A5
:10217000A9F604EF1FEF89859A85009709F4A5CF8A
:102180000E948621A2CF0E9461208C0189859A85B8
:102190000E94862170E060E0C4010E94FA1F9887C7
:1021A0008F830E942F1F9E838D836F817885611599
:1021B000710559F0C8010E9412239A87898706EF9A
:1021C0001FEF892B09F058CF59CF08EF1FEF56CFDB
:1021D00008EF1FEFD0CF20916704222319F020E0F1
:1021E0000C949B1987EF9FEF08958091650490915F
:1021F000660408950E941F1E0E94791DF5D0E9E52E
:10220000F4E088E0DF011D928A95E9F710926704F7
:1022100090E080E008950C94D71B21E040E050E06E
:10222000BA010C949B1986E090E0FA0191838083B7
:1022300090E080E0089547E050E061E872E049CE28
:10224000DF92EF92FF920F931F93CF93DF938A0158
:10225000EC01C60FD71FE0906B04F0906C04D9809E
:102260000E944920D816190678F082E090E0F80123
:10227000918380838EEF9FEFDF91CF911F910F911C
:10228000FF90EF90DF900895EF2841F482E090E016
:10229000F8019183808384EF9FEFEECF8981809353
:1022A0006A0490E00196F8019183808390E080E0D9
:1022B000E3CFCF93DF93EA010E94881C882321F0AB
:1022C0000E9456200E94891C82E090E099838883B6
:1022D0008BEF9FEFDF91CF910895CF93DF93EB01C9
:1022E00086E0FB0111928A95E9F78FEF8883D8DDAC
:1022F0008983E7DD8A83E8DD9D838C83DF91CF913D
:102300000895CF93DF93EA010E948B1C811109C0CD
:1023100082E090E09983888385EF9FEFDF91CF91F2
:10232000089590E080E0B7DD81E090E099838883B4
:1023300090E080E0F3CF0F931F93CF93DF93EA01F8
:102340008C01060F171F0E948B1C81110BC082E0AD
:1023500090E09983888385EF9FEFDF91CF911F9164
:102360000F910895F8018181823038F082E090E089
:10237000998388838EEF9FEFF0CF81E090E08BDD33
:1023800088E090E09983888390E080E0E6CFCF9367
:10239000DF930097D1F4EB01FB01329686E0DF0179
:1023A0001D928A95E9F78FEF888385E089831A82E9
:1023B0000E9449208B830E9448209D838C8381E06A
:1023C0008E838F83DF91CF910895DF91CF911ACDC6
:1023D0008BE191E190936904809368040895809162
:1023E0006804909169040895109269041092680439
:1023F000089580916B0490916C040895411105C07B
:10240000611571058105910561F060936B0470930E
:102410006C0480936D0490936E0440936F0481E08C
:10242000089580E00895FF920F931F93CF93DF9359
:102430008A01EC01C60FD71FF9800E944920F816C7
:10244000190668F082E090E0F801918380838EEFB6
:102450009FEFDF91CF911F910F91FF9008956C81B5
:102460007D818E819F814B81C9DF811108C082E00F
:1024700090E0F8019183808384EF9FEFEACF898118
:1024800080936A0490E00196F8019183808390E044
:1024900080E0DFCFCF93DF93EA01FC01E60FF71F67
:1024A00064817581868197814381A8DF811109C08C
:1024B00082E090E09983888384EF9FEFDF91CF9152
:1024C000089581E090E09983888390E080E0F6CFE2
:1024D000EBE6F4E04081518162817381480F511D28
:1024E000611D711D40835183628373830895CF936F
:1024F000C0916A044C2F50E060916B0470916C04A1
:1025000001960E942D318C2FE3DF10926A04CF9147
:102510000895009799F480916B0490916C042FEFCB
:10252000FB012083892B59F020916A0430E02F5F52
:102530003F4F2417350719F4CB01D9CF63CC089549
:10254000009799F480916B0490916C042FEFFB013C
:102550002083892B59F020916A0430E02F5F3F4F90
:102560002417350719F4CB01C2CF4CCC089523E1D1
:10257000AC01249FC001259F900D1124E0917404AB
:10258000F0917504E80FF91F23813481225031093D
:1025900081E02230310508F080E008950F931F9309
:1025A000CF93DF930091760410917704D0E0C0E0E0
:1025B00080E00C171D0749F491E0811190E0892F0C
:1025C000DF91CF911F910F9108958111F5CFCE0129
:1025D000CEDF2196EECFA0917404B09175041097D0
:1025E00029F1209176043091770482179307F0F453
:1025F00053E1589F9001599F300D1124A20FB31F32
:10260000ED91FC911197309789F012968C91681793
:1026100068F48DE0689FE00DF11D112480819181A7
:10262000892B21F081E09281491708F080E008951C
:102630009C0143E1429FC001439F900D1124E09112
:102640007404F0917504E80FF91F8385823091F4CA
:1026500081E090E06581768140914B0250914C027F
:102660006417750711F490E080E0892B19F081E080
:10267000232B09F080E00895FC01A081B1818DE059
:10268000689FA00DB11D112413964D915C91858515
:102690009685489F9001499F300D589F300D112419
:1026A000C9010196611103C0478144FD0496089554
:1026B000EF92FF920F931F93CF93DF93EA01FC01F8
:1026C000E60FF71F02811381E480F5804F2D6E2DF8
:1026D000C80181DF81110DC082E090E09983888379
:1026E0008EEF9FEFDF91CF911F910F91FF90EF90B1
:1026F0000895C8013CDF882339F082E090E0998397
:10270000888388EF9FEFEECF10935202009351021F
:10271000E0925302F092540281E090E09983888322
:1027200090E080E0DFCFCF92DF92EF92FF920F93A5
:102730001F93CF93DF937A01EC01C60FD71FC09090
:102740005102D09052020091530210915402412F35
:10275000602FC60140DF811110C082E090E0F701D8
:10276000918380838AEF9FEFDF91CF911F910F912B
:10277000FF90EF90DF90CF900895C601F8DE882398
:1027800041F082E090E0F7019183808388EF9FEF32
:10279000EBCF4C815D816E817F819A8189818F3FF2
:1027A00041F082E090E0F701918380838EEF9FEF0C
:1027B000DBCFE3E1EC9D9001ED9D300D1124E09124
:1027C0007404F0917504E20FF31F0190F081E02D85
:1027D0002DE0029FE00DF11D11240190F081E02D0C
:1027E00027E0129FE00DF11D1124808391838B81DE
:1027F000828343835483658376831F5F10935402DF
:1028000081E090E0F7019183808390E080E0ACCF9D
:10281000EF92FF920F931F93CF93DF937A018C0176
:10282000060F171FC0917404D0917504209781F092
:1028300021E030E0F801828193814091760450914B
:1028400077048417950710F030E020E0232B71F413
:1028500082E090E0F701918380838EEF9FEFDF911C
:10286000CF911F910F91FF90EF90089543E1489F02
:102870009001499F300D1124C20FD31F78DE8823A9
:1028800041F082E090E0F7019183808388EF9FEF31
:10289000E6CFF8012481358120383105C8F68781DB
:1028A0008111D6CF4181842F90E08F7E009741F037
:1028B00082E090E0F7019183808386EF9FEFCFCF96
:1028C0004F833E832D83268128871986223010F47A
:1028D00021E0288721E030E0F70131832083BFCF5A
:1028E00088E090E0FA019183808390E080E0089591
:1028F000FB018FEF808381E181838FEF9FEF9383D3
:10290000828380E890E095838483168217820895FD
:10291000FB018FEF808391E0918382839383848393
:1029200084E3858381E090E0978386830895DF9236
:10293000EF92FF920F931F93CF93DF93EA01FC0175
:10294000E60FF71F8181813071F082E090E099837A
:1029500088838FEF9FEFDF91CF911F910F91FF90B1
:10296000EF90DF90089582819381D4802581E68065
:10297000F78000917404109175040115110539F464
:1029800082E090E0998388838CEF9FEFE4CF4091C1
:102990007604509177048417950738F082E090E030
:1029A000998388838EEF9FEFD6CF892B39F082E011
:1029B00090E09983888386EF9FEFCDCF8D2D8D7F1B
:1029C000B1F72130A1F781E0D11006C091E0E916FE
:1029D000F10431F080E004C0E2E0EE16F104D0F33F
:1029E000882329F390E080E0C2DD882339F082E07B
:1029F00090E09983888388EF9FEFADCFF801D3866D
:102A000081E08487F686E586108A178681E090E06B
:102A10009983888390E080E09ECF4CE050E06BEAA1
:102A200072E057CA8F929F92BF92CF92DF92EF923D
:102A3000FF920F931F93CF93DF93EA01FC01E60F00
:102A4000F71F828193810481B580E0917404F09135
:102A50007504309791F482E090E0998388838CEF3D
:102A60009FEFDF91CF911F910F91FF90EF90DF903B
:102A7000CF90BF909F908F900895209176043091D1
:102A800077048217930738F082E090E09983888377
:102A90008EEF9FEFE6CF23E1289F6001299FD00CA6
:102AA0001124EC0DFD1DE080F180E114F10499F298
:102AB0008281081748F78DE0089F80011124E00EFD
:102AC000F11EF70180819181892B29F6BB20E1F26B
:102AD000F7E0BF9E40011124C4010E944D21F7017F
:102AE00091838083E0917404F0917504EC0DFD1DD9
:102AF0000190F081E02DE00FF11F8081918100971E
:102B000039F482E090E0998388838DEF9FEFA9CF1D
:102B1000A40170E060E00E943631809174049091CD
:102B20007504C80ED91EF60180819181080F191F06
:102B3000F801B28281E090E09983888390E080E0A0
:102B400090CFAF92BF92CF92DF92FF920F931F93DD
:102B5000CF93DF93EA01FC01E60FF71F8281938197
:102B6000F48000917404109175040115110581F42D
:102B700082E090E0998388838CEF9FEFDF91CF9183
:102B80001F910F91FF90DF90CF90BF90AF9008956D
:102B900020917604309177048217930738F082E011
:102BA00090E0998388838EEF9FEFE8CF2FEF2F0D72
:102BB0002C3FA8F723E1289F6001299FD00C112406
:102BC0000C0D1D1DF80180819181892B89F6FDE096
:102BD000FF9E50011124C5010E944D21F8019183EF
:102BE0008083E0917404F0917504EC0DFD1D8081EB
:102BF0009181009739F482E090E0998388838DEF8A
:102C00009FEFBCCFA50170E060E00E943631E091FB
:102C10007404F0917504EC0DFD1DF28281E090E0EA
:102C20009983888390E080E0A9CFCF92DF92EF92E2
:102C3000FF920F931F93CF93DF93860F971FFC0193
:102C4000028113818091740490917504892B81F025
:102C500082E090E0FA01918380838CEF9FEFDF9117
:102C6000CF911F910F91FF90EF90DF90CF9008953B
:102C7000C801B0E0A0E00197A109B1098F3F9F4FC3
:102C8000A105B10540F082E090E0FA0191838083D4
:102C90008EEF9FEFE4CF7A0183E1809F6001819FF7
:102CA000D00C1124C6010E944D21EC01009741F483
:102CB00082E090E0F701918380838DEF9FEFCFCF8B
:102CC000A60170E060E00E943631D0937504C09395
:102CD0007404109377040093760490E080E02FEF63
:102CE0003FEF41E061E070E08017910741F481E03F
:102CF00090E0F7019183808390E080E0B0CF3A8B41
:102D0000298B1B864C877E876D87188A1F860196C4
:102D10006396EACFEF92FF921F93CF93DF93EC017C
:102D200010E0F12CE12C6A811617B0F083E0689F67
:102D3000B0011124AE014F5E5F4FC7010E94B22166
:102D4000009721F02FEF3FEF3A8B298BDF91CF9146
:102D50001F91FF90EF900895612FCE018DDC61E00F
:102D600070E00E94FA1FE816F90608F47C011F5F64
:102D7000DACFF894209172043091730481E0211528
:102D8000310509F080E0232B09F0789408952F9203
:102D90003F924F925F926F927F928F929F92AF92EB
:102DA000BF92CF92DF92EF92FF920F931F93CF9338
:102DB000DF933C01660E771EF301828193814C0103
:102DC000B12CA12CC0917404D0917504209769F0A6
:102DD00021E030E0609176047091770486179707C0
:102DE00010F030E020E0232BD1F482E090E0FA01F3
:102DF000918380838EEF9FEFDF91CF911F910F9191
:102E0000FF90EF90DF90CF90BF90AF909F908F900A
:102E10007F906F905F904F903F902F900895809299
:102E2000550290925602A0925702B092580263E166
:102E3000689F9001699F300D1124C20FD31FF301C9
:102E40008181833040F082E090E0FA0191838083B9
:102E500086EF9FEFD1CF2A012B813C81232BF1F408
:102E6000288139819F8191FF2EC0232B09F46FC0E7
:102E7000209179049A81422F490F5527551FBA0195
:102E800041E050E06138710514F050E040E0452B1E
:102E900009F45DC02A87920F9093790481508230A3
:102EA00008F481C066DF882309F4D8C0F30181816A
:102EB000813009F48DC008F47BC0823009F4C6C0AB
:102EC00090E080E0ADC0232B09F441C0209178044C
:102ED0009A81E22FE90FFF27FF1F41E050E0ED3F0D
:102EE000F10514F050E040E0452B89F12A87920F5C
:102EF00090937804D3CFA081B181A20FB31F119614
:102F00006C91060F111D0196295F3F4F841795079D
:102F100094F38D859E85089F1001099F300C189FA2
:102F2000300C1124C114D104D1F48F8184FF17C057
:102F30000E944820F5E02F0E311C21E082159305F8
:102F400008F420E0A701435F5F4F21110EC082E02B
:102F500090E0F2019183808387EF9FEF4DCF0E9435
:102F600048202FEF221A320AE8CF88819981E80E93
:102F7000F91EF70114830383FFEFCF1ADF0A7A01EA
:102F80008A818C151D0409F00CF48CCFE881F9813D
:102F9000EE0DFF1D428150E030E020E010E000E047
:102FA00090E080E0B3CFF12CE12CD12CC12CE8CF04
:102FB00081E090E09C838B83F1DA882309F480CF51
:102FC00081E090E00E944B0F80E40E94590F78CF7F
:102FD00089899A89019661F083E090E09C838B83D4
:102FE00082E090E00E944B0F80E40E94530F68CF74
:102FF0008D819E8120914B0230914C028217930764
:10300000D1F460914F0270915002AE014F5E5F4F5C
:1030100080914D0290914E020E94D1220097E1F2E0
:10302000789422E030E0F20131832083892B99F0FB
:103030008DEF9FEFE1CE89288A288B2869F60297C9
:1030400058F6CE0167DE188A1F86E8CF82E090E04E
:103050009C838B8335CF90E080E0CECE82E090E001
:10306000F2019183808385EF9FEFC6CE8F929F926E
:10307000AF92BF92CF92DF92EF92FF920F931F9386
:10308000CF93DF93EA018C01060F171FF8018181AE
:10309000833098F082E090E09983888386EF9FEFF9
:1030A000DF91CF911F910F91FF90EF90DF90CF9024
:1030B000BF90AF909F908F900895809174049091ED
:1030C0007504892B61F081E090E0209176043091C5
:1030D0007704232B11F490E080E0892B39F482E00F
:1030E00090E0998388838EEF9FEFDACF42DE8823CA
:1030F00009F4E0C0F8018181813009F496C0E8F05C
:10310000823099F42091760430917704E091740430
:10311000F091750490E080E041E050E02817390715
:1031200009F0BEC03BDA811117C0789481E090E0CD
:103130009983888390E080E0B3CF2091760430912A
:103140007704E0917404F091750490E080E041E030
:1031500050E02817390741F481E090E00E944B0FBE
:1031600080E40E94590FE1CF63817481672B11F0D5
:103170005483438301967396ECCFE0917404F091ED
:103180007504E00FF11F2381348122303105D9F419
:10319000218932892F3F3F4FB1F4258136814091FB
:1031A0004B0250914C022417350761F5AF014F5E79
:1031B0005F4F60914F027091500280914D0290914B
:1031C0004E020E94D122EFEFCE1ADE0AEE0AFE0A6C
:1031D0000D5E1F4F409176045091770470E060E0DF
:1031E000C416D506E606F70644F5009731F2789442
:1031F000892B09F49BCF82E090E0998388838DEF3F
:103200009FEF4ECFC114D104E104F104E1F6223066
:103210003105C8F6CF017EDDE0917404F0917504AC
:10322000E00FF11F108A1786CECF10E000E090E08B
:1032300080E0C12CD12C7601CDCF0097C1F610E0F3
:1032400000E0812C912C540183E0E82EF12C1AC06F
:10325000E0917404F0917504E00FF11F8381948173
:10326000029749F4F482E38282E090E00E944B0FDF
:1032700080E40E94530FFFEF8F1A9F0AAF0ABF0A24
:103280000D5E1F4F8091760490917704B0E0A0E02E
:1032900088169906AA06BB06DCF290E080E0A7CF6C
:1032A000638174816230710511F454834383019604
:1032B000739634CF82E090E09983888385EF9FEF07
:1032C000EFCE0097B9F48FEFFB0180832091550278
:1032D0003091560243E1429FC001439F900D11245B
:1032E000E0917404F0917504E80FF91F8285FB01E9
:1032F000818308950C94020F88E090E0FA01918395
:10330000808390E080E0089510927304109272041C
:10331000E4E7F4E086E0DF011D928A95E9F78DE0AD
:1033200095E19093710480937004089580917004E6
:103330009091710408952F923F924F925F926F92F5
:103340007F928F929F92AF92BF92CF92DF92EF9235
:10335000FF920F931F93CF93DF93CDB7DEB72F97D5
:103360000FB6F894DEBF0FBECDBFF894E0917204A3
:10337000F09173043196F0937304E093720478949F
:1033800040907404509075044114510409F40CC227
:10339000E0917604F0917704EF2B09F405C22D87B4
:1033A00049875A876B877C8798878F831201B12C56
:1033B000A12C10E000E08091760490917704A8168B
:1033C000B90618F40115110529F1F89480917204D9
:1033D000909173040197909373048093720478948E
:1033E000C8012F960FB6F894DEBF0FBECDBFDF9198
:1033F000CF911F910F91FF90EF90DF90CF90BF90F2
:10340000AF909F908F907F906F905F904F903F9084
:103410002F9008957101E418F508D10117968C9149
:10342000179781FD54C013968D919C911497039723
:1034300009F04DC015968D919C91EF81F8858E17FE
:103440009F0709F044C0B50190E080E07FD48A83F3
:1034500020917404309175043D832C833D85332382
:1034600009F44CC04C815D81452B09F49AC18091CF
:10347000760490917704A816B90608F092C1C501A8
:10348000D7D88823E9F06C817D816E0D7F1D7D8307
:103490006C83DB011F968D919C91892B89F0D12C37
:1034A000C12CF12CE12CAC81BD8112968C9112972C
:1034B0008E151F0409F094F450961C921E921F97CB
:1034C0002A81222321F0B50190E080E041D43FEF32
:1034D000A31AB30A43E1240E311C6DCFAC81BD8128
:1034E000ED91FC91EC0DFD1D858196810FD7BFEF0D
:1034F000EB1AFB0AEDE0CE0ED11CD5CFEC81FD819D
:10350000309709F44EC18091760490917704A81603
:10351000B90608F046C1EE0DFF1DFF87EE87C50115
:1035200087D88B83882339F1AE85BF851F968D910F
:103530009C915097019621E01D964D915C918417C6
:10354000950709F020E02E831982712C10E000E02D
:10355000AE85BF8512968C91781608F45DC0EE8515
:10356000FF85878590890196658576850E94D6308E
:10357000908B8787A5CFB1E0BE83E6CF9924939443
:103580006BC08BD6F6019683858382C0D601ED9001
:10359000FC90B7E06B9EE00CF11C1124F7016381F5
:1035A000748180818F3F61F121E030E002C0220F01
:1035B000331F8A95E2F7C901092E000CAA0BBB0B39
:1035C000FB01408151816281738184239523A6236D
:1035D000B72321E0892B8A2B8B2B09F420E0D4011F
:1035E0002C93D70111968C91F60123853485820F97
:1035F000932F911D880E991E1486138663949BC089
:10360000418150E0C4010E942D31EBCF998206EF39
:103610001FEFC5C01982C3C0F981F111A0CFEDE041
:103620007E9E70011124AE85BF85CD90DC90CE0CBE
:10363000DF1C15D49D838C83BB81BB2309F49ECFF3
:1036400081E0EE85FF8527853089232B09F080E016
:10365000982E882309F458C0672D8E859F850CD835
:10366000D60118969C938E93179761E070E0C2D4B0
:10367000EE85FF85218932892F3F320709F481CFFA
:10368000BC01C901CFD7D60116969C938E9315978E
:10369000D60115968D919C911697009709F4B6CF97
:1036A000EC81FD818E0F9F1F1A969C938E93199724
:1036B000AE85BF85ED91FC911197EE0EFF1EF701CF
:1036C00021853285148613861A968C91870DD9012F
:1036D0008D93711016C0EE85FF85878184FF11C020
:1036E00049855A856B857C85F901418352836383C3
:1036F0007483F701838594850496A80FB91F1486F7
:103700001386F701B287A187D60115968D919C91FA
:103710001697892B09F443C0EE85FF8525813681F4
:1037200080914B0290914C022817390779F0199635
:103730008D909C90612CD60112968C9112976816F0
:1037400008F424CF1A969C928E921997BE81BB23BF
:1037500009F460CF61E070E0F601878190854AD47A
:10376000D6011796ED90FC90189715964D915C91A7
:10377000E1E0F0E0BA81BB2311F0F0E0E0E00C8181
:103780001D819C01B501882799278E1B9F0B6AD349
:103790008C01892B21F0F60185819681B7D5739430
:1037A000D7CE0FEF1FEF8CCE10E000E00ECE2F92A1
:1037B0003F924F925F926F927F928F929F92AF92C1
:1037C000BF92CF92DF92EF92FF920F931F93CF930E
:1037D000DF93809174049091750410E000E0892BD0
:1037E000A9F0C7DA0AEF1FEF882381F02090760452
:1037F00030907704C0917404D0917504D12CC12C01
:1038000010E000E02C143D04A9F47894C801DF9185
:10381000CF911F910F91FF90EF90DF90CF90BF90CD
:10382000AF909F908F907F906F905F904F903F9060
:103830002F900895C6010E941813882309F18B81E7
:103840009C810397E9F48F859889892BC9F0B6018B
:1038500090E080E07BD221E030E0882311F030E07E
:1038600020E044245524421A530AB12CA12C912C57
:10387000812C8A818815190409F038F4188A1F866A
:103880004FEFC41AD40A6396BDCFE881F981EA0DDF
:10389000FB1D85819681892BA1F161E070E0878114
:1038A0009085A8D33C01DBD28C01E881F981EA0D37
:1038B000FB1D8185928525813681200F311FAC014A
:1038C000421B530B9A0147815085421B530B70E0FA
:1038D00060E00E943631E881F981EA0DFB1DE78046
:1038E000F084458156819301B601C201BBD28C019F
:1038F000892B39F0E881F981EA0DFB1D85819681DC
:1039000005D55FEF851A950A8DE0A80EB11CB1CFE1
:1039100030CA789408952F923F924F925F926F929F
:103920007F929F92AF92BF92CF92DF92EF92FF92DF
:103930000F931F93CF93DF9300D000D0CDB7DEB7A6
:103940000091740410917504992493940115110544
:1039500009F43EC0A0907604B09077040ADA982E5D
:103960008823B1F1109275041092740410927704B8
:103970001092760410927804109279048FEF9FEFE2
:10398000DC018093550290935602A0935702B093A6
:10399000580278947FD31E830D83C12CD12C7601DD
:1039A000C501B0E0A0E089839A83AB83BC83222465
:1039B0002A94322C89819A81AB81BC81C816D906A0
:1039C000EA06FB06F4F0C801A1D480E40E94590F76
:1039D000892D26960FB6F894DEBF0FBECDBFDF91BE
:1039E000CF911F910F91FF90EF90DF90CF90BF90FC
:1039F000AF909F907F906F905F904F903F902F90EF
:103A00000895AD81BE8115968D919C911697209158
:103A10004B0230914C0282179307D1F451968D914D
:103A20009C91EED5ED81FE8180819181B12CA12CFC
:103A3000412C512C3201892B89F5BFEFCB1ADB0ABF
:103A4000EB0AFB0AED81FE817396FE83ED83B2CF14
:103A5000C114D104E104F10429F7029718F7ED81AC
:103A6000FE81818992898F3F980709F029D5AD8120
:103A7000BE8152963C922E925197D4CF8A0D9B1DB7
:103A8000DC018D919C91009709F040D4BFEF4B1A57
:103A90005B0A6B0A7B0AEDE0AE0EB11CAD81BE8104
:103AA0008D919C91119712964C9150E070E060E0DE
:103AB00044165506660677060CF328D4BECFCF937E
:103AC000DF93EA0128DF811109C082E090E0998349
:103AD000888385EF9FEFDF91CF91089581E090E09B
:103AE0000E944B0F81E090E09983888390E080E012
:103AF000F2CF11DF1092710410927004089542E029
:103B000050E063EF72E00C94690FFF920F931F93E4
:103B1000CF93DF938A01EC01C60FD71FF980B9D28A
:103B20000897F816190671F068F082E090E0F80145
:103B3000918380838EEF9FEFDF91CF911F910F9143
:103B4000FF9008956C817D818E819F814B810E94C1
:103B5000FE11811108C082E090E0F801918380831A
:103B600084EF9FEFE9CFF9800E94F9114F2D50E0CB
:103B7000BE01685F7F4F0E942D3189810E946812CB
:103B800081E090E0F8019183808390E080E0D4CFE1
:103B9000DF92EF92FF920F931F93CF93DF938A01EF
:103BA000EC01C60FD71F0E94F9117C01D98071D298
:103BB000DD2059F0029721E030E0D816190619F0FF
:103BC00010F030E020E0232B79F482E090E0F8015F
:103BD000918380838EEF9FEFDF91CF911F910F91A3
:103BE000FF90EF90DF900895EF2841F482E090E09D
:103BF000F8019183808384EF9FEFEECFF9800E94DC
:103C0000F9114F2D50E0BE016E5F7F4F0E942D31A4
:103C100089810E94681281E090E0F801918380839D
:103C200090E080E0D9CF8FE79DE190937B04809373
:103C30007A04089580917A0490917B040895089500
:103C4000FC0111821082938382830895DB011D920F
:103C50001C92DC011296ED91FC91139771836083A5
:103C600013967C936E9312970895FC018081918145
:103C7000DB018D939C93A081B181109741F08D91D0
:103C80009C9191838083892B11F4F383E2830895BF
:103C9000FC0180819181DB018D939C93892B11F430
:103CA00073836283718360830895FC0111821082A3
:103CB000938382830895CF93DF931F921F92CDB792
:103CC000DEB71A821982F894BE016F5F7F4F81E8D8
:103CD00094E0CBDF89819A81009709F017D389811D
:103CE0009A81892B89F7BE016F5F7F4F85E894E049
:103CF000BCDF89819A81009709F008D389819A8174
:103D0000892B89F778940F900F90DF91CF910895C8
:103D1000CF93DF931F921F92CDB7DEB71A8219821D
:103D2000F894BE016F5F7F4F8DE794E09EDF89813D
:103D30009A81009709F0EAD289819A81892B89F7C3
:103D400078940F900F90DF91CF91089581E00895BE
:103D500090E080E00895EF92FF920F931F93CF932E
:103D6000DF931F921F92CDB7DEB71A82198280911E
:103D70007C0407EF1FEF8823A1F1F894BE016F5F69
:103D80007F4F85E894E071DF789489819A81EE24F1
:103D9000E394F12C892B51F4F894BE016F5F7F4FAF
:103DA00081E894E062DF7894F12CE12C89819A819A
:103DB0000EEF1FEF0097A9F0FC014281538164E0F0
:103DC00070E074D68C01892B61F0F89469817A8156
:103DD000C701880F991F880F991F8F579B4F58DF76
:103DE0007894C8010F900F90DF91CF911F910F91A0
:103DF000FF90EF9008950F931F93CF93DF9300D020
:103E00001F92CDB7DEB71C821B821A821982809165
:103E10007C0407EF1FEF8823C1F0AE014D5F5F4FB9
:103E200064E070E0CE010196B4D68C01892B69F470
:103E3000E981FA818B819C8193838283F8946981E3
:103E40007A818DE794E002DF7894C8010F900F909B
:103E50000F900F90DF91CF911F910F910895B9D7D7
:103E6000049608958F929F92AF92BF92CF92DF9265
:103E7000EF92FF920F931F93CF93DF931F921F92A6
:103E8000CDB7DEB71A821982BC016F5F7F4F6330F6
:103E9000710598F0AA24AA94BA2CC5010F900F902E
:103EA000DF91CF911F910F91FF90EF90DF90CF9016
:103EB000BF90AF909F908F9008954115510551F399
:103EC000480159018A016C01CADF8815990511F76B
:103ED000E114F104F9F28E0D9F1DA816B906D0F277
:103EE00080917C048823F1F0F894B5016450710945
:103EF0009701AE014F5F5F4FC8010496DFD65C01AA
:103F0000892B71F489819A81F80193838283C60198
:103F1000880F991F880F991FB8018F579B4F96DE06
:103F20007894BBCF87EFA82EBB24BA94B6CFAF92BC
:103F3000BF92CF92DF92EF92FF920F931F93CF9396
:103F4000DF931F921F92CDB7DEB71A821982892B99
:103F500009F047C06115710509F443C041155105C9
:103F600009F43FC02115310509F43BC001151105C5
:103F7000C1F180917C048823B9F179016A015B0168
:103F8000F894BE016F5F7F4F8DE794E06EDE78940A
:103F900089819A81009759F1DC0112966D917C918B
:103FA000A8010496A4D68C01E981FA81D501ED938C
:103FB000FC93828193810496F601918380834FDF85
:103FC000D7018D939C93C8010F900F90DF91CF91F3
:103FD0001F910F91FF90EF90DF90CF90BF90AF9027
:103FE00008950FEF1FEFEFCF07EF1FEFECCF0EEFAE
:103FF0001FEFE9CFCF93DF93EC01672B71F4F2D67B
:104000008C179D0760F0E5D62496C80FD91FE4D61B
:104010008C0F9D1FDF91CF910895E1D6F1CF90E0F5
:1040200080E0F8CF0F931F93CF93DF9320917C0410
:1040300021112BC08B01EC0181E894E001DE85E8C1
:1040400094E0FEDD8DE794E0FBDD97D00097C1F4AE
:10405000C9D670E060E0CEDF49E552E062E070E092
:1040600081D1009769F48091590290915A02CCD67F
:10407000B801CE0101D5009719F421E020937C040A
:10408000DF91CF911F910F91089584EF9FEFF8CFAB
:10409000A6C6A8C6CF93DF93A8D6EC01892B11F44E
:1040A0000ADE36DECE01DF91CF910895CF93DF9304
:1040B0009CD6EC01892B09F4FEDDCE01DF91CF9176
:1040C00008958091590290915A020895CF93DF93F9
:1040D00080917C04D0E0C0E08823D1F09AD6EC0136
:1040E000892BB1F4E8DD14DE8091590290915A02D7
:1040F000E7D1E8D2EC01892B59F481E894E0D5DDD1
:1041000085E894E0D2DD8DE794E0CFDD10927C0469
:10411000CE01DF91CF910895EF92FF920F931F93FD
:10412000CF93DF93EC017A018B010F5F1F4F0E9D40
:10413000A0010F9D500D1E9D500D112470E060E0F8
:104140000E94363190E080E0F0E0E0E02FEFE816EA
:10415000F90639F4DF91CF911F910F91FF90EF9005
:1041600008951A8219822883309711F0D283C1836F
:104170000196FE01C00FD11FEACFCF92DF92EF92DE
:10418000FF920F931F93CF93DF9306EA15E00C7F06
:1041900043E050E06BE572E081E692E01AD48BE5F3
:1041A000E82E82E0F82E91E6C92E92E0D92EC5E1E4
:1041B000D6E0D7014D915D917D01F601619171913C
:1041C0006F01198308835D834C835B834A837F83FC
:1041D0006E839B012F5F3F4F249FC001259F900D51
:1041E000349F900D1124998788870115110511F0CE
:1041F000C80192DF88859985080F191F2A96F1E674
:10420000EF16F2E0FF06A9F6EBE8F4E088E191E0B2
:10421000DF019C011D9221503040E1F710928A0489
:1042200010928904109234061092330610923806C8
:1042300010923706109236061092350610923A0602
:104240001092390610923C0610923B0610923E06E0
:1042500010923D06109242061092410610924006BE
:1042600010923F06109244061092430610924606A2
:104270001092450610921206109211061092140622
:104280001092130690E080E0DF91CF911F910F9183
:10429000FF90EF90DF90CF9008950097F1F0F894A1
:1042A000A1E6B2E0E5E1F6E030E020E04D915D917D
:1042B00048175907A8F0428153814115510581F0F3
:1042C0008AE0829FF001839FF00D1124EB5EF94F8D
:1042D00080819181009759F4789490E080E008956E
:1042E0002F5F3F4F3A962330310501F7F5CFDC01C0
:1042F00011966D917C917183608341505109538374
:104300004283FC012193CF0178940895009749F1ED
:10431000DC018E91853041F4E0911306F091140692
:104320003097F9F0CD0119948530D8F4282F30E07A
:10433000F8948FEF8C938AE0829FF001839FF00DB9
:104340001124EB5EF94F8081918112969C938E939C
:104350001197B183A0838281938101969383828395
:1043600078940895CF92DF92EF92FF920F931F936C
:10437000CF93DF939C018EE894E08C7F411551052B
:1043800009F49BC02115310509F497C06115710529
:1043900009F493C07A01AB01B9016D5F7F4F6C7F67
:1043A0009B012F5F3F4F249F8001259F100D349F5D
:1043B000100D1124F8942091330630913406232BEC
:1043C00059F420913B0630913C062115310569F1E5
:1043D0002017310708F058C020913D0630913E0665
:1043E000232B91F420913B0630913C06820F931FC2
:1043F00020914506309146062115310509F441C04A
:104400002017310708F056C07894CFEFDFEF86EF22
:104410009FEFF701D183C083DF91CF911F910F915F
:10442000FF90EF90DF90CF900895C3E0D0E0C09070
:104430008904D0908A0425E131E02C193D09201728
:10444000310710F32AE02C9FF0012D9FF00D11246D
:10445000EB5EF94F9183808355834483538342837A
:104460007783668311870087009709F055DE0C0D6E
:104470001D1D10938A0400938904789490E080E0D5
:10448000C8CFC4E0D0E0D3CFC3E0D0E02AE02C9F77
:10449000F0012D9FF00D1124EB5EF94F9183808385
:1044A000558344835383428377836683009729F33C
:1044B00033DEE3CFC4E0D0E0E9CF8FEF9FEFACCFA6
:1044C0009C010397029708F069C0F89484E09AE091
:1044D000482F50E0241735070CF44DC091E08AE0D6
:1044E000829FF001839FF00D1124EB5EF94F118242
:1044F00010821582148213821282178216829923E7
:10450000B1F18091330690913406892BA9F4209162
:104510003B0630913C062115310571F080918904EC
:1045200090918A04821B930B90938A048093890450
:1045300010923C0610923B0680913D0690913E06FB
:10454000892BA9F4209145063091460621153105A5
:1045500071F08091890490918A04821B930B90934F
:104560008A04809389041092460610924506789436
:1045700090E080E00895949FF001959FF00D112444
:10458000EB5EF94F40815181452B31F440855185D7
:10459000452B11F481509CCF90E0A1CF8FEF9FEF7E
:1045A00008954115510549F1009739F161157105DB
:1045B00021F1F8942091110630911206232BB9F4C1
:1045C0002091130630911406232B89F49093120640
:1045D000809311067093140660931306789425E077
:1045E00030E090E080E0FA013183208308957894F0
:1045F0002FEF3FEF86EF9FEFF6CF8FEF9FEF0895FE
:10460000059769F4F8941092120610921106109210
:10461000140610921306789490E080E008958FEFCE
:104620009FEF08956115710519F4F0E0E0E011C005
:104630008530910581F4E0911106F09112063097D2
:10464000A1F3CB0101961995009779F3FC0185E060
:104650008193CF0108959C01235031092230310507
:1046600020F72AE0289FD001299FB00D1124AB5ECE
:10467000B94F2D913C911197232BB9F216962D919C
:104680003C9117972617370780F2F89412962D91D0
:104690003C9113972115310529F0ED91FC9111976B
:1046A000309711F47894C1CF4181528111965C9377
:1046B0004E932150310913963C932E931297819378
:1046C0007894C7CFE3EAF5E08EE6DF011D928A9584
:1046D000E9F7EBE8F4E088E191E0DF019C011D924D
:1046E00021503040E1F710928A0410928904E5E1EC
:1046F000F6E082E3DF011D928A95E9F7E1E1F6E059
:1047000084E0DF011D928A95E9F790E080E008954A
:10471000CF93DF93C0916702D0916802CF3FDC074F
:1047200059F420D4909368028093670297FF09C0E0
:10473000D0936802C093670284EF9FEFDF91CF911F
:10474000089590E080E0FACF8230910528F48093BC
:10475000470690E080E008958FEF9FEF08954F9215
:104760005F926F927F92AF92BF92CF92DF92EF9261
:10477000FF920F931F93CF93DF931F921F92CDB79A
:10478000DEB71A821982009709F478C061157105A5
:1047900009F474C0209167023091680207EF1FEF9F
:1047A0002F3F3F4F09F444C06B015C01412C512C59
:1047B0003201F12CE12C10E000E09E012F5F3F4F11
:1047C000A6014E195F09B5016E0D7F1D809167022C
:1047D0009091680226D4892B09F04AC089819A8178
:1047E000009741F4E114F10429F4209147062223B3
:1047F00009F441C0E80EF91EEC14FD04C8F480E889
:10480000481684E858068EE16806710418F560E0E1
:1048100070E0CB01E5D62AE0420E511C611C711CF0
:104820000A3F4FEF140721F0043F8FEF1807A1F460
:10483000C8010F900F90DF91CF911F910F91FF90C2
:10484000EF90DF90CF90BF90AF907F906F905F9090
:104850004F90089501EF1FEF81E090E0013F2FEFAF
:10486000120711F090E080E0892B09F4A6CFE0CF89
:1048700004EF1FEFDDCF0AEF1FEFDACF0FEF1FEFCF
:10488000D7CF4F925F926F927F92AF92BF92CF92AB
:10489000DF92EF92FF920F931F93CF93DF931F92BC
:1048A0001F92CDB7DEB71A821982009709F478C03B
:1048B0006115710509F474C0209167023091680296
:1048C00007EF1FEF2F3F3F4F09F444C06B015C011E
:1048D000412C512C3201F12CE12C10E000E09E0122
:1048E0002F5F3F4FA6014E195F09B5016E0D7F1D69
:1048F00080916702909168024AD3892B09F04AC0DF
:1049000089819A81009741F4E114F10429F42091FE
:104910004706222309F441C0E80EF91EEC14FD04F9
:10492000C8F480E4481682E458068FE068067104F3
:1049300018F560E070E0CB0153D62AE0420E511C1E
:10494000611C711C0E3F4FEF140721F0043F8FEFE5
:104950001807A1F4C8010F900F90DF91CF911F911C
:104960000F91FF90EF90DF90CF90BF90AF907F902E
:104970006F905F904F90089502EF1FEF81E090E0FD
:10498000023F2FEF120711F090E080E0892B09F42D
:10499000A6CFE0CF04EF1FEFDDCF0EEF1FEFDACF92
:1049A0000FEF1FEFD7CF80916702909168028F3F82
:1049B000980749F0CFD2892B49F48FEF9FEF90935E
:1049C00068028093670290E080E0089584EF9FEF93
:1049D0000895CF92DF92EF92FF920F931F93CF93A0
:1049E000DF9321E04115510509F020E041505109C4
:1049F00021112CC0DC01FB01D12CC12C21E022C0F3
:104A00003FEFC31AD30A7D010D911D91E701EA80A2
:104A1000FB80E016F106A8F420813181E280F3806A
:104A2000F182E08233832283ED90FC9011979D0107
:104A300022503109E901F982E88211961C930E9304
:104A400020E03296C416D506D8F2D2CFDF91CF91AE
:104A50001F910F91FF90EF90DF90CF900895FC0190
:104A6000680F791F90E080E0E617F70709F40895D2
:104A70002191820F911DF8CF20914806211113C07A
:104A800047DE009791F410924E0610924D06109258
:104A90004C0610924B0610924A061092490621E0ED
:104AA00020934806089584EF9FEF0895AF92BF9238
:104AB000CF92DF92EF92FF920F931F93CF93DF93EA
:104AC000009709F460C04630510508F45CC020919D
:104AD0004806C7EFDFEF222309F449C08C01060F17
:104AE000171FF801C080D180C114D10409F44EC051
:104AF00096012A5F3F4F4217530708F447C07C01D5
:104B000080914D0690914E0693838283B6016C5F2F
:104B10007F4F5801A60EB71EC801A1DFF501918392
:104B2000808364E070E0C8011ADEEC01892BF9F49F
:104B300081E090E009DEB601C801049610DEEC01C8
:104B4000892B91F462E070E0C50109DEEC01892B4C
:104B500059F4C701DBDB80914D0690914E0601961A
:104B600090934E0680934D0690E080E0EDDDCE01FF
:104B7000DF91CF911F910F91FF90EF90DF90CF9039
:104B8000BF90AF900895CFEFDFEFF1CFC9EFDFEF28
:104B9000EECF6F927F928F929F92AF92BF92CF9201
:104BA000DF92EF92FF920F931F93CF93DF9300D08A
:104BB0001F92CDB7DEB7009709F47AC041155105B1
:104BC00009F476C02091480607EF1FEF222309F46D
:104BD0004DC03A017B015C0164E070E0CE010196BA
:104BE00050DE8C01892B09F041C009811A81011521
:104BF000110509F45AC0480186E0880E911CB701DE
:104C0000680D791D8091690290916A020BDD6C013B
:104C1000009709F450C0A70170E060E00E943631AF
:104C200089819A81AB81BC81EC0CFD1CF7018193D9
:104C30009193A193B1937F0181E090E085DDB8016C
:104C4000C7011FDE892B31F562E070E0C701800FDC
:104C5000911F17DE8C01892BE9F490E080E074DD70
:104C6000F501D182C082F30191828082C8010F9048
:104C70000F900F900F90DF91CF911F910F91FF90A8
:104C8000EF90DF90CF90BF90AF909F908F907F90EC
:104C90006F90089590E080E057DDF5011182108259
:104CA000F30111821082C60131DB09EF1FEFDECF65
:104CB0000FEF1FEFDBCF06EF1FEFD8CF0097A1F06C
:104CC0004115510589F02115310571F0F90136962C
:104CD0006E177F0748F0DC012D933C93DA01ED93CA
:104CE000FC9390E080E008958FEF9FEF0895AF92DE
:104CF000BF92CF92DF92EF92FF920F931F93CF93C9
:104D0000DF93009709F45FC04115510509F45BC0BA
:104D10006530710508F457C020914806C7EFDFEFF2
:104D2000222391F1DC01CD90DC9011971296ED9148
:104D3000FC9196012A5F3F4FC9EFDFEF2617370737
:104D400019F5C0914906D0914A06209749F521E00E
:104D500030E030934A06209349067A018C01F093A3
:104D60004C06E0934B065601B4E0AB0EB11CB50106
:104D700076DE0A0D1B1DF801208131818217930711
:104D800029F5D701CD92DC92CE01DF91CF911F9111
:104D90000F91FF90EF90DF90CF90BF90AF9008956C
:104DA00020914B0630914C062F5F3F4FCCEFDFEF49
:104DB000E217F30790F2CBEFDFEF2E173F0768F211
:104DC000D0E0C0E0CACFCFEFDFEFDECFC3EFDFEF41
:104DD000DBCF84E090E0089582E090E008958CEFCE
:104DE0009FEF089580E290E0089510924E06109291
:104DF0004D0610924C0610924B0610924A061092E5
:104E0000490690E080E0089590936A0280936902D9
:104E1000089580914806882391F0C5DD009789F4B4
:104E200010924E0610924D0610924C0610924B06B0
:104E300010924A061092490610924806089590E092
:104E400080E00895009749F06115710531F0FC018B
:104E500011821082FB01118210820895F3CF26E0A7
:104E600030E040E855E260E070E090E080E000C0B3
:104E70008130910569F01CF4892B39F00895823056
:104E8000910549F0039751F008958CE596E0D0C65E
:104E900089EF96E0FCCF86E997E0F9CF83E398E0CD
:104EA000F6CF1F920F920FB60F9211240BB60F92EE
:104EB0002F933F934F935F936F937F938F939F9322
:104EC000AF93BF93EF93FF938FE89DEF90932501EE
:104ED00080932401BAD0FF91EF91BF91AF919F9140
:104EE0008F917F916F915F914F913F912F910F9093
:104EF0000BBE0F900FBE0F901F9018958FE89DEF7F
:104F00009093250180932401A3E7B0E08C918E7FDC
:104F10008C93E0E2F1E080818C7F8083E1E2F1E03C
:104F20008081877E808380818460808380818C7F84
:104F300080838C9181608C930895E3E7F0E0808119
:104F400090819E7F90838170089581E008951092F2
:104F50004F06089568EE73E080E090E041D390E062
:104F600080E0089526E030E040E050E16EE070E03F
:104F700090E080E07DDF8CE596E090D5892B21F0F4
:104F80008CE596E0A5D5F7CF90E080E00895CF922C
:104F9000DF92EF92FF920F931F93CF93DF936B01FA
:104FA0007A01E901198218828CE596E077D5892B80
:104FB00069F18601CC24C39482E0D82E80914F06FB
:104FC000811110C08CE596E083D50297B9F7C092A5
:104FD0004F06F801D1928F018881998101969983BA
:104FE0008883ECCF888199818E159F0578F48CE5B4
:104FF00096E06ED58F3F9807A9F3F80181938F0152
:1050000088819981019699838883ECCF90E080E034
:10501000DF91CF911F910F91FF90EF90DF90CF9094
:1050200008950F931F93CF93DF93EA0189018CE5D5
:1050300096E00E94A830F801D183C08390E080E020
:10504000DF91CF911F910F9108958091500691E0CB
:10505000980F90935006882349F021E030E0309378
:1050600052062093510680935006089578940E942A
:105070005205F894809150068150F5CF0F931F93FD
:10508000CF93DF931092FD081092FC08DFD2E7DE89
:10509000C0917F02D0918002198218826FEF7FEF5A
:1050A000CB010E94470570E060E090E080E00E9444
:1050B000C803009709F042C00E94DC07F894789476
:1050C000BE0162557F4F8A819B810E94CB03892B51
:1050D00071F46FEF7FEFCB010E945A040E944105EB
:1050E000882329F081E0FE01EC54FF4F8083F8947F
:1050F00005DF0E944405882311F080E00BC00E9468
:1051000041058111FACF81E0FE01EC54FF4F9081FF
:105110009111F3CF8093FC0878940E94460F8C0184
:105120007894CC54DF4F8091FC0881110CC00E9410
:10513000D4080E942605F89490E080E0DF91CF919A
:105140001F910F9108950E9424050E944405882311
:10515000D9F081E08093FD089091FD0881E09111E4
:1051600080E08093FC088091FD088111E6DE01302B
:10517000110529F40E94460F892B09F4E8DE0E94EC
:10518000460F8C01E2DECFCF0E9441058111E1CFB5
:1051900081E098819111DECF80E0DCCF5058BB27B1
:1051A000AA270ED00DC1FED030F003D120F031F48B
:1051B0009F3F11F41EF4F3C00EF4E095E7FBE9C045
:1051C000E92F0FD180F3BA17620773078407950799
:1051D00018F071F49EF527C10EF4E0950B2EBA2F4E
:1051E000A02D0B01B90190010C01CA01A0011124ED
:1051F000FF27591B99F0593F50F4503E68F11A1699
:10520000F040A22F232F342F4427585FF3CF469529
:1052100037952795A795F0405395C9F77EF41F164B
:10522000BA0B620B730B840BBAF09150A1F0FF0F15
:10523000BB1F661F771F881FC2F70EC0BA0F621F01
:10524000731F841F48F4879577956795B795F795F1
:105250009E3F08F0B3CF9395880F08F09927EE0F83
:1052600097958795089571D008F481E0089504D04A
:105270006894B111D9C00895BCD088F09F5790F0C0
:10528000B92F9927B751A0F0D1F0660F771F881F6B
:10529000991F1AF0BA95C9F712C0B13081F0C3D086
:1052A000B1E00895C0C0672F782F8827B85F39F024
:1052B000B93FCCF3869577956795B395D9F73EF4CA
:1052C00090958095709561957F4F8F4F9F4F089572
:1052D000E89409C097FB3EF4909580957095619590
:1052E0007F4F8F4F9F4F9923A9F0F92F96E9BB2746
:1052F0009395F695879577956795B795F111F8CFC2
:10530000FAF4BB0F11F460FF1BC06F5F7F4F8F4F2C
:105310009F4F16C0882311F096E911C0772321F022
:105320009EE8872F762F05C0662371F096E8862FBA
:1053300070E060E02AF09A95660F771F881FDAF711
:10534000880F9695879597F90895990F0008550F3E
:10535000AA0BE0E8FEEF16161706E807F907C0F0FB
:1053600012161306E407F50798F0621B730B840B03
:10537000950B39F40A2661F0232B242B252B21F4DD
:1053800008950A2609F4A140A6958FEF811D811D7D
:10539000089597F99F6780E870E060E008959FEFB7
:1053A00080EC089500240A941616170618060906BC
:1053B000089500240A94121613061406050608958B
:1053C000092E0394000C11F4882352F0BB0F40F413
:1053D000BF2B11F460FF04C06F5F7F4F8F4F9F4F53
:1053E000089557FD9058440F551F59F05F3F71F0D5
:1053F0004795880F97FB991F61F09F3F79F087953C
:105400000895121613061406551FF2CF4695F1DFC4
:1054100008C0161617061806991FF1CF8695710554
:10542000610508940895E894BB2766277727CB0188
:1054300097F908958ADF08F48FEF08950BD0C0CF55
:10544000B1DF28F0B6DF18F0952309F0A2CFA7CF7F
:105450001124EACFC6DFA0F3959FD1F3950F50E05A
:10546000551F629FF001729FBB27F00DB11D639F16
:10547000AA27F00DB11DAA1F649F6627B00DA11DBC
:10548000661F829F2227B00DA11D621F739FB00D62
:10549000A11D621F839FA00D611D221F749F3327D2
:1054A000A00D611D231F849F600D211D822F762F6B
:1054B0006A2F11249F5750408AF0E1F088234AF068
:1054C000EE0FFF1FBB1F661F771F881F91505040B4
:1054D000A9F79E3F510570F05CCFA6CF5F3FECF37C
:1054E000983EDCF3869577956795B795F795E795A0
:1054F0009F5FC1F7FE2B880F911D9695879597F9B1
:1055000008951F920F920FB60F9211242F933F937D
:105510008F939F93AF93BF938091540690915506BC
:10552000A0915606B09157063091530623E0230F01
:105530002D3758F50196A11DB11D20935306809378
:10554000540690935506A0935606B0935706809143
:10555000580690915906A0915A06B0915B060196A3
:10556000A11DB11D8093580690935906A0935A0629
:10557000B0935B06BF91AF919F918F913F912F9117
:105580000F900FBE0F901F90189526E8230F0296DC
:10559000A11DB11DD2CF3FB7F894809158069091CC
:1055A0005906A0915A06B0915B0626B5A89B05C086
:1055B0002F3F19F00196A11DB11D3FBFBA2FA92F92
:1055C000982F8827BC01CD01620F711D811D911D8F
:1055D00042E0660F771F881F991F4A95D1F70895FB
:1055E0008F929F92AF92BF92CF92DF92EF92FF92F3
:1055F0006B017C01D0DF4B015C01C114D104E104DB
:10560000F104D9F0D2D5C7DF681979098A099B0955
:10561000683E73408105910580F321E0C21AD108EC
:10562000E108F10888EE880E83E0981EA11CB11CE9
:10563000C114D104E104F10431F7FF90EF90DF9041
:10564000CF90BF90AF909F908F900895789484B53D
:10565000826084BD84B5816084BD85B5826085BD6E
:1056600085B5816085BDEEE6F0E080818160808354
:10567000E1E8F0E010828081826080838081816037
:105680008083E0E8F0E0808181608083E1EBF0E0FE
:10569000808184608083E0EBF0E0808181608083A2
:1056A000E1E9F0E080818260808380818160808395
:1056B000E0E9F0E0808181608083E1EAF0E08081D0
:1056C00082608083808181608083E0EAF0E0808175
:1056D00081608083E1E2F1E080818260808380816B
:1056E00081608083E0E2F1E0808181608083EAE78D
:1056F000F0E080818460808380818260808380810B
:10570000816080838081806880831092C1000895C9
:10571000863308F0865320917B00982F9870277F5E
:10572000922B90937B0020916B0290E4299F900133
:1057300011248770822B80937C0080917A00806492
:1057400080937A0080917A0086FDFCCF809178006A
:105750009091790008951F93CF93DF93182FEB0159
:1057600061E033D1209731F460E0812FDF91CF9158
:105770001F9167C1CF3FD10511F461E0F6CFE12F52
:10578000F0E0EC51FF4FE491E150E23108F0B2C09B
:10579000F0E08827E253F44D8F4F3EC5E02BE82B15
:1057A000ED2BF72B012C7A2C0B2C132C1B2C252CDE
:1057B0002F2C392C482C522C7A2C5C2C662C702CDB
:1057C00084B5806884BDC7BDDF91CF911F910895D6
:1057D00084B5806284BDC8BDF7CF809180008068A9
:1057E00080938000D0938900C0938800EDCF809192
:1057F0008000806280938000D0938B00C0938A00E9
:10580000E3CF80918000886080938000D0938D00EA
:10581000C0938C00D9CF8091B00080688093B00095
:10582000C093B300D1CF8091B00080628093B0006C
:10583000C093B400C9CF809190008068809390009D
:10584000D0939900C0939800BFCF80919000806260
:1058500080939000D0939B00C0939A00B5CF809125
:105860009000886080939000D0939D00C0939C002E
:10587000ABCF8091A00080688093A0008091A000B1
:105880008F7B8093A000D093A900C093A8009CCFE9
:105890008091A00080628093A000D093AB00C09361
:1058A000AA0092CF8091A00088608093A000D0933E
:1058B000AD00C093AC0088CF8091200180688093B8
:1058C0002001D0932901C09328017ECF809120012F
:1058D000806280932001D0932B01C0932A0174CF62
:1058E00080912001886080932001D0932D01C09386
:1058F0002C016ACFC038D1050CF03FCF35CF815095
:10590000823108F059C0E82FF0E08827E657F34DC0
:105910008F4F82C4AA2CAE2C9C2CA22CA62CDC2C43
:10592000B12CB72CBB2CC12CC52CC92CCF2CD32C03
:10593000DC2CD72CDD2CE12C809180008F7780939C
:1059400080000895809180008F7DF9CF8091800044
:10595000877FF5CF84B58F7784BD089584B58F7D1B
:10596000FBCF8091B0008F778093B0000895809135
:10597000B0008F7DF9CF809190008F778093900059
:105980000895809190008F7DF9CF80919000877F5E
:10599000F5CF8091A0008F778093A000089580912B
:1059A000A0008F7DF9CF8091A000877FF5CF8091F7
:1059B00020018F77809320010895809120018F7DB1
:1059C000F9CF80912001877FF5CFCF93DF9390E0CF
:1059D000FC01E65DFE4F249180599E4FFC018491AD
:1059E0008823C9F090E0880F991FFC01E053FE4F17
:1059F000A591B491FC01EA54FE4FC591D491611177
:105A00000DC09FB7F8948C91209582238C93888148
:105A1000282328839FBFDF91CF910895623051F4EE
:105A20009FB7F8943C91822F809583238C93E881D3
:105A30002E2BEFCF8FB7F894EC912E2B2C938FBF9A
:105A4000EACF1F93CF93DF93282F30E0F901EC5179
:105A5000FF4F8491F901E65DFE4FD491F901E059C1
:105A6000FE4FC491CC23A1F0162F811148DFEC2FFB
:105A7000F0E0EE0FFF1FEA54FE4FA591B4918FB7EF
:105A8000F894EC91111108C0D095DE23DC938FBF00
:105A9000DF91CF911F910895DE2BF8CFFC01918DFE
:105AA000228D892F90E0805C9F4F821B91098F731C
:105AB00099270895FC01918D828D981731F0828D80
:105AC000E80FF11D858D90E008958FEF9FEF089509
:105AD000FC01918D828D981761F0A28DAE0FBF2FC2
