:10000000F8C0000027C1000025C1000023C1000086
:1000100021C100001FC100001DC100001BC1000064
:1000200019C1000017C1000015C1000013C1000074
:1000300011C100000FC100000DC100000BC1000084
:1000400009C1000007C1000005C1000003C1000094
:1000500001C10000FFC00000FDC000000C947D2B1A
:10006000F9C000000C94742F0C94AA2FF3C0000068
:10007000F1C00000EFC00000EDC00000EBC00000C8
:10008000E9C00000E7C00000E5C00000E3C00000D8
:100090000C9400300C943630DDC00000DBC0000052
:1000A000D9C00000D7C00000D5C00000D3C00000F8
:1000B000D1C00000CFC00000CDC00000CBC0000008
:1000C000C9C00000C7C000000C9426280C948C30D6
:1000D0000C94C230BFC000000C9418310C944E3107
:1000E000B9C0000000000A0B02090C0D0E0807033E
:1000F00004010000000000000000000000000000FB
:1001000000000000000000000000000000000000EF
:1001100012111000000000000000000000000000AC
:100120000000000000000000000001021020200874
:100130000810204010204080020102010804020142
:1001400001020408102040808040201008040201B1
:10015000800402018040201008040201080402010A
:100160000102040810204080010204081020408091
:1001700005050505070508080808020202020A0A23
:100180000808040404040101010101010101030341
:10019000030303030303040707070C0C0C0C0C0CEC
:1001A0000C0C0202020206060606060606060B0BE9
:1001B0000B0B0B0B0B0B00002200250028002B0063
:1001C0002E003100340002010000050108010B017E
:1001D00000002100240027002A002D0030003300F9
:1001E00001010000040107010A01D32F5F30EB3049
:1001F000773111241FBECFEFD1E2DEBFCDBF00E0CB
:100200000CBF13E0A0E0B2E0E6E7F4E600E00BBFCD
:1002100002C007900D92A633B107D9F729E0A6E3F3
:10022000B3E001C01D92A433B207E1F710E0C9EFBB
:10023000D0E000E006C021970109802FFE010E9456
:100240000832C53FD10780E00807A9F70E9442297C
:100250000C943932D5CECF93282F8823E1F0CB01EF
:10026000BA01CFEFC20FEC2FF0E0EA5CFC4F208127
:10027000213059F490580E94382A9B01AC016C2F10
:1002800070E090E080E0CF91A2C00E94332A8C2FD2
:10029000CF910C94A72CCF9108950F931F938B01AE
:1002A0009C0183E036952795179507958A95D1F798
:1002B00004581C4F462F477021E030E0F90102C07E
:1002C000EE0FFF1F4A95E2F7AF01F80120812423CA
:1002D000CB010196211102C090E080E01F910F91A7
:1002E00008950F931F938B019C0183E0369527950A
:1002F000179507958A95D1F7677081E090E001C066
:10030000880F6A95EAF7F801E458FC4F2081452BE5
:1003100031F48095822380831F910F910895822B61
:10032000FACF4F925F926F927F928F929F92AF928D
:10033000BF92CF92DF92EF92FF920F931F93CF93D2
:10034000DF934B015C0129013A01670161E0882DCF
:100350000E94E12DE4012196AE01C501B401C1DF87
:1003600020E030E0A901C801B6010E94162B181642
:100370008CF4F401EA5CFC4F81E08083C801B60193
:100380000E94382A6B01C301B2010E94382AA601DB
:10039000C40121D0CE01DF91CF911F910F91FF9029
:1003A000EF90DF90CF90BF90AF909F908F907F9015
:1003B0006F905F904F900895882341F08150682F8F
:1003C00070E090E080E050E040E08BCF0895862F11
:1003D000B9010C94A72C9C01FC01EC51FF4FE49156
:1003E000E150E231E0F4F0E08827E650FE4F8F4F15
:1003F0000C9408320C02130216022D0242020F0264
:100400005702630267027E029302A802BF02D4026F
:100410000F02E9020003150384B5806884BD60E023
:10042000822F0C941D2E84B58062F8CF80918000BD
:100430008C7F82608093800080918100807E8061CB
:10044000682B6093810050938700409386008091D1
:100450008000806880938000E2CF809180008C7F54
:1004600082608093800080918100807E8061682B13
:1004700060938100509387004093860080918000B4
:100480008062E8CF809180008C7F826080938000C2
:1004900080918100807E8061682B60938100509301
:1004A000870040938600809180008860D3CF809140
:1004B000B00080688093B0008091B100887F682B85
:1004C0006093B100ACCF8091B0008062F3CF809197
:1004D00090008C7F82608093900080919100807E5C
:1004E0008061682B60939100509397004093960031
:1004F0008091900080688093900091CF80919000CF
:100500008C7F82608093900080919100807E8061DA
:10051000682B6093910050939700409396008091D0
:1005200090008062E8CF809190008C7F8260809301
:10053000900080919100807E8061682B6093910093
:100540005093970040939600809190008860D3CF9D
:100550008091A0008C7F82608093A0008091A10098
:10056000807E8061682B6093A1005093A700409328
:10057000A6008091A00080688093A00050CF809159
:10058000A0008C7F82608093A0008091A100807E7B
:100590008061682B6093A1005093A7004093A60050
:1005A0008091A0008062E8CF8091A0008C7F826063
:1005B0008093A0008091A100807E8061682B609371
:1005C000A1005093A7004093A6008091A0008860EE
:1005D000D3CF809120018C7F826080932001809115
:1005E0002101807E8061682B609321015093270157
:1005F00040932601809120018068809320010FCFD5
:10060000809120018C7F8260809320018091210164
:10061000807E8061682B6093210150932701409375
:100620002601809120018062E8CF809120018C7F9B
:1006300082608093200180912101807E8061682BFF
:10064000609321015093270140932601809120015E
:100650008860D3CFCF93DF93882349F0EB0181509B
:100660000E94842C99838883DF91CF910895FB01A8
:1006700011821082F9CF0F931F938B019C0183E0AD
:1006800036952795179507958A95D1F70B571C4FE7
:10069000462F477021E030E0F90102C0EE0FFF1F46
:1006A0004A95E2F7AF01F80120812423CB0101969E
:1006B000211102C090E080E01F910F9108950F93E7
:1006C0001F938B019C0183E036952795179507951D
:1006D0008A95D1F7677081E090E001C0880F6A9534
:1006E000EAF7F801EB57FC4F2081452B31F4809558
:1006F000822380831F910F910895822BFACFCF928E
:10070000DF92EF92FF92CF93DF936B017C0160E069
:1007100086E3C816D104E104F10490F486E38C0D5D
:100720000E94E12DE6012196AE01C701B601C7DFA7
:10073000CE01DF91CF91FF90EF90DF90CF900895A1
:100740008C2DEECF882341F08150682F70E090E02F
:1007500080E050E040E0B3CF089590E080E008955D
:100760000F931F93009709F487C06115710509F471
:1007700083C0009172021091730220917402309133
:1007800075020E3F1F4F2F4F3F4F09F066C04FEFCE
:100790005FEFBA0140937202509373026093740248
:1007A00070937502409172025091730260917402CD
:1007B00070917502DC011296ED91FC91808191811E
:1007C000A281B3818093FC039093FD03A093FE0369
:1007D000B093FF0384819581A681B7818093F8034C
:1007E0009093F903A093FA03B093FB03808591855E
:1007F000A285B3858093F4039093F503A093F60349
:10080000B093F70384859585A685B7858093F0031B
:100810009093F103A093F203B093F3031092EC03CF
:100820001092ED031092EE031092EF03B1D78DEE0C
:100830009BE090938F0380938E039093910380931A
:10084000900395D6009731F421E030E03093010415
:10085000209300041F910F9108950091720210914E
:1008600073022091740230917502DB010D931D9388
:100870002D933C93139796CF8FEF9FEFEBCF8F92F3
:100880009F92AF92BF92CF92DF92EF92FF921F930F
:10089000CF93DF934B015C011091030482E090E061
:1008A000909301048093000481149104A104B10485
:1008B00041F480910304811104C080910204C1E0DD
:1008C0008111C0E0C12CD12C7601809103048111EB
:1008D00006C080910204811102C0CC23D9F083E0CC
:1008E00090E09093010480930004CC2379F1CCE94B
:1008F000DFEF111102C00E94510FCE01DF91CF91A5
:100900001F91FF90EF90DF90CF90BF90AF909F909E
:100910008F9008956AE070E080E090E00E94EC2BF8
:1009200080E1C80E87E2D81EE11CF11C8FEF88160B
:100930009806A806B80631F0C1E08C149D04AE04F8
:10094000BF0408F0C0E080E046D6BFCFD0E0C0E0F2
:10095000D0CFCF92DF92EF92FF920F931F93CF935E
:10096000DF938F3F910511F008F050C020910004F3
:10097000309101042330310539F020910004309189
:1009800001042130310531F424E030E030930104DA
:10099000209300046A017B01EC0182309105A0F0F4
:1009A00011E0AE01C701B601E1D5AB01BC01CE013A
:1009B0001123F9F0DF91CF911F910F91FF90EF90EC
:1009C000DF90CF900C947D118C01000F111F025706
:1009D0001C4FD8018D919C91892B11F30E94871196
:1009E0000297F1F6D801ED91FC91CE011995182FDF
:1009F000D8CF0E949F1190E080E0DF91CF911F91AE
:100A00000F91FF90EF90DF90CF9008958FEF9FEFC1
:100A1000F4CF80E0E0C5CF93DF9386E090E0909341
:100A200001048093000430D6EC01EEE8F3E084E0AA
:100A3000DF011D928A95E9F70E94E90E10920104E8
:100A400010920004CE01DF91CF91089580910204AD
:100A500008958091EB03089560937202709373027E
:100A6000809374029093750290E080E008954F9215
:100A70005F926F927F928F929F92AF92BF92CF922E
:100A8000DF92EF92FF92CF93DF9300D000D000D09F
:100A90001F92CDB7DEB78090FC089090FD08A09023
:100AA000FE08B090FF08C0900009D0900109E090C6
:100AB0000209F090030920913802309139024091E7
:100AC0003A0250913B02C501B4010E941A2B2B013E
:100AD0003C012091400230914102409142025091EC
:100AE0004302C701B6010E941A2B9B01AC01C3014E
:100AF000B2010E94CB296093060970930709809385
:100B000008099093090920913C0230913D024091DF
:100B10003E0250913F02C501B4010E941A2B4B01C5
:100B20005C0120914402309145024091460250916F
:100B30004702C701B6010E941A2B9B01AC01C501F7
:100B4000B4010E94CB2960930A0970930B0980932A
:100B50000C0990930D09C0902402D0902502E090DA
:100B60002602F0902702A70196016091F00870918B
:100B7000F1088091F2089091F3080E942F2A8823AF
:100B800041F0C092F008D092F108E092F208F092A1
:100B9000F30866E370E080E090E06DDD9093EF088D
:100BA0008093EE0843E050E0BE016F5F7F4F52DD5F
:100BB0002091700230917102A981BA810E94103295
:100BC0000E94642A20E030E040E057E30E941A2BA4
:100BD0002091600230916102409162025091630263
:100BE0000E94CA29209164023091650240916602F8
:100BF000509167020E941A2B60930E0970930F099F
:100C000080931009909311092091200230912102C4
:100C100040912202509123020E94CA292091180279
:100C20003091190240911A0250911B020E941A2B16
:100C300020910A0930910B0940910C0950910D093E
:100C40000E94CB296B017C018FD3882309F4DAC180
:100C500020912609309127094091280950912909AE
:100C600060911C0270911D0280911E0290911F02E2
:100C700090580E941A2B209168023091690240918D
:100C80006A0250916B020E94CB294B015C01809259
:100C9000120990921309A0921409B092150920919B
:100CA000060930910709409108095091090960919E
:100CB00010027091110280911202909113020E9411
:100CC0001A2B6B017C0120910A0930910B0940918C
:100CD0000C0950910D0960911402709115028091D8
:100CE0001602909117020E941A2B9B01AC01C701BA
:100CF000B6010E94CB299B01AC0160910E09709155
:100D00000F0980911009909111090E94CA296B0165
:100D10007C01A501940160916C0270916D0280913B
:100D20006E0290916F020E941A2B609316097093C5
:100D30001709809318099093190969E070E080E021
:100D400090E0ABDA5C019093FB088093FA08409046
:100D5000160950901709609018097090190920E041
:100D600030E04FE753E4C301B2010E942F2A181666
:100D70000CF467C120E030E0A901C301B2010E9478
:100D8000162B87FF03C0412C512C3201B301A20165
:100D9000C50161DA8090FC089090FD08A090FE08E3
:100DA000B090FF088091000990910109A09102097B
:100DB000B09103098B839C83AD83BE832091040291
:100DC000309105024091060250910702C501B4011D
:100DD0000E941A2B2B013C0120910C0230910D0234
:100DE00040910E0250910F026B817C818D819E811A
:100DF0000E941A2B9B01AC01C301B2010E94CB29B6
:100E00006F83788789879A874090120950901309D9
:100E10006090140970901509209100023091010230
:100E20004091020250910302C501B4010E941A2BA5
:100E30004B015C01209108023091090240910A02A5
:100E400050910B026B817C818D819E810E941A2BB7
:100E50009B01AC01C501B4010E94CB294B015C018F
:100E6000209128023091290240912A0250912B02B0
:100E7000C301B2010E941A2B9B01AC01C501B40150
:100E80000E94CB294B015C0120913002309131024C
:100E90004091320250913302C701B6010E941A2BD1
:100EA0009B01AC01C501B4010E94CB296093FC08F1
:100EB0007093FD088093FE089093FF0820912C0208
:100EC00030912D0240912E0250912F02C301B201A8
:100ED0000E941A2B2F81388549855A850E94CB297B
:100EE0004B015C0120913402309135024091360271
:100EF00050913702C701B6010E941A2B9B01AC0129
:100F0000C501B4010E94CB296093000970930109C7
:100F10008093020990930309C090BE03D090BF0351
:100F2000E090C003F090C1039FEFC91AD90AE90A03
:100F3000F90AC092BE03D092BF03E092C003F092C0
:100F4000C103C114D104E104F10499F48091C203F6
:100F50009091C303A091C403B091C5030196A11D54
:100F6000B11D8093C2039093C303A093C403B093B5
:100F7000C5038090C6039090C703A090C803B090AB
:100F8000C9036091C2037091C3038091C40390911F
:100F9000C5030E94642AA50194010E941A2B20E037
:100FA00030E040E85FE40E941A2B2B013C01C701AE
:100FB000B6010E94642AA50194010E941A2B9B018C
:100FC000AC01C301B2010E94CB296093BA037093B4
:100FD000BB038093BC039093BD032A960FB6F8948D
:100FE000DEBF0FBECDBFDF91CF91FF90EF90DF90BE
:100FF000CF90BF90AF909F908F907F906F905F90B9
:101000004F90089520E030E0A901C701B6010E9489
:101010002F2A20E030E040E85FEB87FD21CE20E082
:1010200030E0A901C701B6010E94162B20E030E094
:10103000A90118160CF014CE20E030E040E85FE380
:101040000FCE412C512C8FE7682E83E4782E9ECE54
:101050008F929F92AF92BF92DF92EF92FF920F9387
:101060001F93CF93DF9384E090E02DD1E4EAF3E087
:101070008BE2DF011D928A95E9F780E090E0A0E81D
:10108000BFEB86A397A3A0A7B1A78AE097EDA3E241
:10109000BCE382A393A3A4A3B5A386E296E3A6E14F
:1010A000BAE784839583A683B78383E69AEEABE0A1
:1010B000B5E280879187A287B3878EE49CEEACE48B
:1010C000B5E984879587A687B7878DE696E9A6E375
:1010D000B7E1808B918BA28BB38BA8E9B3E0B3838C
:1010E000A283E2E9F3E01196FC93EE938CE992E09F
:1010F00091838083938382839583848388EB93E0B9
:1011000015969C938E93149788EA93E013969C937C
:101110008E9312978AEB93E017969C938E93169773
:10112000E6E0F9E084E1DF011D928A95E9F7C8EE77
:10113000D8E08EE1FE0111928A95E9F7DD24D3947F
:10114000DC8E8091240290912502A0912602B0911C
:10115000270288879987AA87BB87812C912C540105
:10116000839489829A82AB82BC8266E370E080E0DD
:1011700090E0C5DA9F838E83DD821C86DD8E8D86AE
:101180009E86AF86B88AE12CF12C8701A8019701D1
:1011900069E070E080E090E0C4D89B8B8A8BD98AAC
:1011A0008091580290915902A0915A02B0915B022D
:1011B0008C8B9D8BAE8BBF8B80915C0290915D027E
:1011C000A0915E02B0915F02888F998FAA8FBB8F2A
:1011D000DF91CF911F910F91FF90EF90DF90BF9023
:1011E000AF909F908F9008958091E80881111DC065
:1011F00081E08093E8088091E9089091EA08A09145
:10120000EB08B091EC080197A105B10571F480914C
:10121000ED08882351F066E370E080E090E02BDA7F
:101220009093EF088093EE088DDA8091F408811195
:101230002BC081E08093F4088091F5089091F60826
:10124000A091F708B091F8080197A105B105E1F464
:101250008091F9088823C1F069E070E080E090E0B7
:101260001CD89093FB088093FA0840E050E0BA0144
:101270000E942B0169E070E080E090E00ED890932E
:10128000FB088093FA0898C8089560E070E080E851
:101290009FE7089560E070E080E89FE7089560E0D0
:1012A00070E080E89FEF089560E070E080E89FEFD5
:1012B000089560E070E080EC9FEF089560E070E0DA
:1012C00080EC9FEF0895F5DF60932609709327095E
:1012D0008093280990932909F1DF60931A0970938C
:1012E0001B0980931C0990931D09CFDF609322098D
:1012F000709323098093240990932509CBDF609391
:101300001E0970931F098093200990932109C7DF5C
:1013100060932A0970932B0980932C0990932D09CF
:10132000C3DF60932E0970932F0980933009909347
:10133000310908950F931F938B019C0100271127FA
:1013400020783F770115110520483F4749F4AB014C
:10135000BC016F77772781E0452B462B472B09F49B
:1013600080E01F910F910895E5CF4F925F926F92A9
:101370007F928F929F92AF92BF92CF92DF92EF9225
:10138000FF920F931F93F8944090DB035090DC037F
:101390006090DD037090DE03C090CF03D090D00347
:1013A000E090D103F090D203452B09F0A4C09B013B
:1013B000AC01241935094609570929013A01009160
:1013C000D7031091D8032091D9033091DA03480153
:1013D0005901840C951CA61CB71C80169106A20608
:1013E000B306A0F40091D3031091D4032091D50348
:1013F0003091D6030F5F1F4F2F4F3F4F0093D30302
:101400001093D4032093D5033093D6038092D7034F
:101410009092D803A092D903B092DA030091D3033B
:101420001091D4032091D5033091D6038092DF032D
:101430009092E003A092E103B092E2030093E303F1
:101440001093E4032093E5033093E6036093DB03FA
:101450007093DC038093DD039093DE03A0E1B7E299
:10146000A30192010E941F326C0D7D1D8E1D9F1DD8
:101470006093CF037093D0038093D1039093D203F2
:1014800000917202109173022091740230917502E2
:101490000F3F1F4F2F4F3F4FF1F0009172021091FD
:1014A000730220917402309175020E3F1F4F2F4F2F
:1014B0003F4F89F0C0907202D0907302E0907402A6
:1014C000F090750221E08C149D04AE04BF0408F472
:1014D00020E02093EB0378941F910F91FF90EF9001
:1014E000DF90CF90BF90AF909F908F907F906F9044
:1014F0005F904F9008954B015C0184189508A608F1
:10150000B708A3019201261B370B480B590B641532
:10151000750586059705D0F082169306A406B506D4
:1015200040F420E030E0A90181149104A104B10449
:1015300091F4A0E1B7E20E941F32A7019601261B99
:10154000370B480B590BCA01B901C5CF8216930658
:10155000A406B50670F7A0E1B7E2A50194010E94C8
:101560001F326C0D7D1D8E1D9F1DB5CFFECECF93FE
:10157000DF9300D01F92CDB7DEB71C821B821A8288
:1015800019821092E7031092E8031092E903109277
:10159000EA03BE016F5F7F4FCE0103960E94BB2717
:1015A00069817A818B819C810E94AB20009761F4D4
:1015B000BE016F5F7F4FCE0103960E94C7276981EE
:1015C0007A818B819C8131D50F900F900F900F9075
:1015D000DF91CF910895FF920F931F93CF93DF93E5
:1015E000082F60E070E0CB010E94EC2BFF24F39405
:1015F0000E94941FEC01892B89F010E0CE3F8FEF01
:10160000D80769F0002361F160E070E0CB010E942F
:10161000EC2B81E090E0892B59F322C011E028D512
:10162000EC01892B21F0CE3F8FEFD80759F711112C
:101630001EC011E0229609F410E00E94441FEC0144
:10164000892B21F0CE3F8FEFD807E1F6111111C0A1
:1016500011E0CE3F8FEFD80709F410E001110BC065
:10166000CE01DF91CF911F910F91FF90089511E06E
:10167000E4CF11E0F3CF60E070E0CB010E94EC2BEF
:101680001F25812F90E0C7CFCF93DF938091EB038D
:10169000882321F060E070E0CB014FD638D6D0E04F
:1016A000C0E0892B71F06AE070E080E090E00E9479
:1016B000EC2B81E090DF2BD62196C03D27E0D207AE
:1016C00081F72AD60E94FF20109203041092020490
:1016D0001092FC031092FD031092FE031092FF0380
:1016E0001092F8031092F9031092FA031092FB0380
:1016F0001092F4031092F5031092F6031092F70380
:101700001092F0031092F1031092F2031092F3037F
:101710001092EC031092ED031092EE031092EF037F
:101720004EEF5FEF6FEF7FEF4093720250937302C3
:1017300060937402709375021092EB03EFEDF3E087
:1017400028E0DF011D922A95E9F71092DB03109241
:10175000DC031092DD031092DE031092D703109287
:10176000D8031092D9031092DA031092D303109287
:10177000D4031092D5031092D6031092CF03109287
:10178000D0031092D1031092D203DF91CF9108952C
:1017900010920F041092100410921104109212046F
:1017A00010920E04809117049091180490930D04E8
:1017B00080930C0410920B0410920A0410920604F9
:1017C0001092070410920804109209041092140455
:1017D0001092130490E080E00895CF92DF92EF9290
:1017E000FF920F931F93CF938C01892B09F055C063
:1017F000209117043091180480910C0490910D04ED
:10180000409117045091180450930D0440930C0418
:101810002817390781F010920B0410920A041092D5
:101820000604109207041092080410920904109202
:1018300014041092130480911704909118040197D6
:1018400061F58091130490911404892B21F4809107
:101850007602811112C080911304909114040197B3
:10186000E1F48091060490910704A0910804B091DE
:1018700009040197A105B10581F4109206041092A4
:10188000070410920804109209041092760282E074
:1018900090E0909314048093130480911704909126
:1018A0001804019709F01CC180912D0490912E0419
:1018B0008017910709F014C18091290490912A049E
:1018C000A0912B04B0912C04009709F409C1209138
:1018D000280421110DC04091290450912A046091DF
:1018E0002B0470912C04452B462B472B09F4F8C090
:1018F00020911304309114042230310509F0F0C016
:1019000020910A042111ECC0FC01C080D180E2804A
:10191000F38080910E04882309F4D3C080911A04C7
:1019200090911B04892B09F4FDC020911A04309179
:101930001B0481E02230310509F080E020911A0477
:1019400030911B04C1E02130310549F020911A0487
:1019500030911B04C1E02230310509F0C0E088233A
:1019600009F456C0209124043091250440912604A6
:1019700050912704C701B6010E94162B87FD14C0A1
:10198000209124043091250440912604509127048D
:1019900060910F04709110048091110490911204D1
:1019A0000E942F2A87FD22C0209124043091250413
:1019B0004091260450912704C701B6010E94162BBE
:1019C000181634F520912404309125044091260402
:1019D0005091270460910F047091100480911104BC
:1019E000909112040E942F2A811112C080911C0430
:1019F00090911D04A0911E04B0911F04892B8A2B85
:101A00008B2B19F481E080930B0481E080930A040E
:101A1000CC2309F456C02091240430912504409130
:101A2000260450912704C701B6010E942F2A87FF80
:101A300014C0209124043091250440912604509133
:101A4000270460910F04709110048091110490910B
:101A500012040E94162B87FF22C02091240430918B
:101A600025044091260450912704C701B6010E9425
:101A70002F2A811126C02091240430912504409101
:101A800026045091270460910F04709110048091F6
:101A90001104909112040E94162B181694F4809150
:101AA0001C0490911D04A0911E04B0911F04892B69
:101AB0008A2B8B2B19F481E080930B0481E08093B7
:101AC0000A0481E090910A04911180E080930E0451
:101AD000C0920F04D0921004E0921104F09212040C
:101AE000012B09F067C18091130490911404892B94
:101AF000D9F41092190410920A0480917602882376
:101B000079F082E090E09093140480931304109293
:101B10007602209117043091180481E0232BE9F01C
:101B200080E01BC081E00ACF1092760280911904F8
:101B3000882349F010920B0410921404109213049D
:101B400010921904EDCF8091170490911804892BFD
:101B5000E1F080910A0410920A042091130430915C
:101B600014042230310509F45EC088F421153105D2
:101B700009F448C02130310509F4F3C010920B0478
:101B800010920A041092190438C081E0E6CF233085
:101B9000310509F4B1C02430310581F740910604C4
:101BA0005091070460910804709109044115510592
:101BB0006105710561F04150510961097109409356
:101BC000060450930704609308047093090440913D
:101BD0000604509107046091080470910904452B94
:101BE000462B472BD9F4209115043091160421304F
:101BF000310509F046C010920B04109214041092A3
:101C000013040CC080917602882341F082E090E0BA
:101C1000909314048093130410927602109204049B
:101C200080910B04CEC08823C9F380911C0490914D
:101C30001D04A0911E04B0911F04181619061A065F
:101C40001B060CF07DC08091170490911804019739
:101C500009F076C080911C0490911D04A0911E048F
:101C6000B0911F048093060490930704A093080486
:101C7000B093090483E090E09093140480931304DC
:101C8000CDCF4091200450912104609122047091A5
:101C90002304452B462B472BA9F010920B0480916F
:101CA000200490912104A0912204B09123048093F8
:101CB000060490930704A0930804B093090481E0FC
:101CC00090E0DACF882399F08091770290917802A2
:101CD000A0917902B0917A02809306049093070450
:101CE000A0930804B093090484E090E0C5CF10925B
:101CF0000B0482E090E0C0CF80910604909107042D
:101D0000A0910804B09109040097A105B10559F00C
:101D10000197A109B1098093060490930704A09349
:101D20000804B09309048091060490910704A091DF
:101D30000804B0910904892B8A2B8B2B09F06ECFF4
:101D40008091770290917802A0917902B0917A0205
:101D5000892B8A2B8B2B09F44ECF81E080930B04C7
:101D6000B3CF40910604509107046091080470912C
:101D70000904411551056105710561F04150510992
:101D800061097109409306045093070460930804A5
:101D9000709309044091060450910704609108046F
:101DA00070910904452B462B472B09F037CF811141
:101DB000C7CF9FCF80910404882309F431CF80914D
:101DC0000504CF911F910F91FF90EF90DF90CF907E
:101DD000089510920F0410921004109211041092A2
:101DE000120410920E041092140410921304109214
:101DF0000D0410920C0410922E0410922D041092D7
:101E00000B0410920A041092060410920704109218
:101E10000804109209041092050410920404109210
:101E2000290410922A0410922B0410922C04109270
:101E30002804109224041092250410922604109273
:101E4000270488EE93E0A0E0B0E0809377029093BF
:101E50007802A0937902B0937A0210922004109233
:101E60002104109222041092230410921C04109258
:101E70001D0410921E0410921F0410921B04109255
:101E80001A0481E0809376021092190410921804CB
:101E900010921704109216041092150490E080E03E
:101EA00008958091170490911804892B19F5809159
:101EB0007602882351F080911904811106C081E0D7
:101EC00080930504809304040895209119043091AF
:101ED000760281E090E0332311F090E080E030E082
:101EE00082239323892B21F01092050481E0EACF0D
:101EF00010920404089582E090E0FA0191838083B7
:101F00008FEF9FEF0895CF93DF93EA01009711F0D1
:101F10000E941F221982188290E080E0DF91CF9109
:101F20000895DB01009719F48FEF8C9308952EEF3D
:101F30002C93FC017096E031F10508F037C088273A
:101F4000EB55F04F8F4F0C940832D40FD20FD00FB7
:101F5000CE0FCC0FCA0FC60FC80FC40FC20FC00FD1
:101F6000BD0FB90FB50FBB0FD60F80E311968C9341
:101F7000089589E2FBCF82E2F9CF11961C92089571
:101F800083E2F4CF81E2F2CF81E1F0CF87E2EECFBE
:101F90008AE2ECCF80E1EACF84E2E8CF88E2E6CFC4
:101FA00086E2E4CF81E3E2CF83E3E0CF80E2DECFDD
:101FB00080913B0490913C04089590933C0480935D
:101FC0003B04089580913A04089590913A04892B36
:101FD00080933A040895982F909580913A0489232C
:101FE00080933A04089580913904089580913704CC
:101FF0009091380408956115710559F0FB0130E0A6
:1020000020E070E060E02417350719F061157105D4
:1020100011F0CB010895A081B181A817B90709F487
:10202000BF012F5F3F4F3696EECF80913D04811167
:102030001CC060D266D29093300480932F040E941B
:102040001D1A0E942F1A90933404809333040E9427
:10205000AC1E0E94B31E909332048093310481E041
:1020600080933D0490E080E0089584EF9FEF089511
:102070008F929F92AF92BF92CF92DF92EF92FF9298
:102080000F931F93CF93DF9300D000D000D01F9207
:10209000CDB7DEB71A86198618861F821E821D826A
:1020A0001C821B821A82198280913D0407EF1FEF68
:1020B000882309F49CC08E010D5F1F4F9E012B5F8A
:1020C0003F4FAE01495F5F4FBE01675F7F4F90E0BA
:1020D00080E00E9430208C01009721F00596029745
:1020E00008F0DBC029853A852115310509F402C1C4
:1020F000ED80FE804B815C81B701640F751F8F817D
:1021000098858617970708F4F5C0E20EF31ED701ED
:102110009C91903C09F07FC04230510508F47BC08F
:1021200011968C9140913B0450913C04452B09F44D
:102130009CC0913F08F071C02CE1290F2D3008F4AC
:102140008BC02DE2290F203108F489C0903C21F486
:102150008150823008F483C088E3890F8B3008F403
:1021600081C091E9C92E9FE0D92EEBE7FFE06D8198
:102170007E81AE014F5F5F4F89859A8519955C011D
:10218000C114D104A1F189809A808114910479F15C
:102190008B819C818815990508F487C010E000E0C8
:1021A0004B815C8170E060E0C7010E943232011512
:1021B0001105E9F449815A8169857A858D819E816D
:1021C000680F791FC501F6011995E980FA800D8124
:1021D0001E812F81388549855A856FEF7FEF81E019
:1021E00090E00E94CB1F8C01892B09F056C0C801DA
:1021F0002A960FB6F894DEBF0FBECDBFDF91CF9108
:102200001F910F91FF90EF90DF90CF90BF90AF9014
:102210009F908F90089580E085CF30E020E0220FDE
:10222000331FF901E15DFB4F0190F081E02D309704
:1022300009F497CF892F90E01995009709F491CF71
:10224000DC011296ED91FC9113971496CD90DC90E1
:10225000309709F08CCF1FC021E030E0E0CF22E0C2
:1022600030E0DDCF23E030E0DACFD12CC12CE3E841
:10227000FFE09F3F09F07BCFE0912F04F091300405
:10228000309721F4C90104EF1FEF0CC08FEF90E0ED
:1022900019950097A9F604EF1FEF89859A85009795
:1022A00009F4A5CF0E941F22A2CF0E94FA208C0120
:1022B00089859A850E941F2270E060E0C4010E9417
:1022C000932098878F830E94C81F9E838D836F8180
:1022D00078856115710559F0C8010E94AB239A8772
:1022E000898706EF1FEF892B09F058CF59CF08EFE8
:1022F0001FEF56CF08EF1FEFD0CF20913D042223D0
:1023000019F020E00C94341A87EF9FEF0895809124
:102310003B0490913C0408950E94B81E0E94121E36
:10232000F5D0EFE2F4E088E0DF011D928A95E9F74D
:1023300010923D0490E080E008950C94701C21E020
:1023400040E050E0BA010C94341A86E090E0FA01C3
:102350009183808390E080E0089547E050E06FE94A
:1023600072E049CEDF92EF92FF920F931F93CF93CB
:10237000DF938A01EC01C60FD71FE0904104F09073
:102380004204D9800E94E220D816190678F082E033
:1023900090E0F801918380838EEF9FEFDF91CF91E2
:1023A0001F910F91FF90EF90DF900895EF2841F477
:1023B00082E090E0F8019183808384EF9FEFEECF7D
:1023C00089818093400490E00196F8019183808395
:1023D00090E080E0E3CFCF93DF93EA010E94211DDC
:1023E000882321F00E94EF200E94221D82E090E0CD
:1023F000998388838BEF9FEFDF91CF910895CF93DF
:10240000DF93EB0186E0FB0111928A95E9F78FEFEC
:102410008883D8DD8983E7DD8A83E8DD9D838C832B
:10242000DF91CF910895CF93DF93EA010E94241D9D
:10243000811109C082E090E09983888385EF9FEF46
:10244000DF91CF91089590E080E0B7DD81E090E0EA
:102450009983888390E080E0F3CF0F931F93CF930D
:10246000DF93EA018C01060F171F0E94241D8111C2
:102470000BC082E090E09983888385EF9FEFDF9126
:10248000CF911F910F910895F8018181823038F02A
:1024900082E090E0998388838EEF9FEFF0CF81E018
:1024A00090E08BDD88E090E09983888390E080E085
:1024B000E6CFCF93DF930097D1F4EB01FB01329687
:1024C00086E0DF011D928A95E9F78FEF888385E02A
:1024D00089831A820E94E2208B830E94E1209D83DF
:1024E0008C8381E08E838F83DF91CF910895DF917C
:1024F000CF9117CD8DEA91E190933F0480933E04F4
:10250000089580913E0490913F04089510923F04F5
:1025100010923E04089580914104909142040895E0
:10252000411105C0611571058105910561F0609348
:102530004104709342048093430490934404409375
:10254000450481E0089580E00895FF920F931F9362
:10255000CF93DF938A01EC01C60FD71FF9800E9449
:10256000E220F816190668F082E090E0F801918305
:1025700080838EEF9FEFDF91CF911F910F91FF909E
:1025800008956C817D818E819F814B81C9DF81118E
:1025900008C082E090E0F8019183808384EF9FEF90
:1025A000EACF89818093400490E00196F8019183FD
:1025B000808390E080E0DFCFCF93DF93EA01FC01DE
:1025C000E60FF71F64817581868197814381A8DFBB
:1025D000811109C082E090E09983888384EF9FEFA6
:1025E000DF91CF91089581E090E09983888390E016
:1025F00080E0F6CFE1E4F4E04081518162817381B3
:10260000480F511D611D711D408351836283738387
:102610000895CF93C09140044C2F50E06091410445
:102620007091420401960E9429328C2FE3DF1092B0
:102630004004CF910895009799F4809141049091BE
:1026400042042FEFFB012083892B59F02091400495
:1026500030E02F5F3F4F2417350719F4CB01D9CF56
:1026600060CC0895009799F48091410490914204C0
:102670002FEFFB012083892B59F02091400430E09B
:102680002F5F3F4F2417350719F4CB01C2CF49CC38
:10269000089523E1AC01249FC001259F900D1124D2
:1026A000E0914A04F0914B04E80FF91F2381348133
:1026B0002250310981E02230310508F080E0089590
:1026C0000F931F93CF93DF9300914C0410914D040F
:1026D000D0E0C0E080E00C171D0749F491E08111C3
:1026E00090E0892FDF91CF911F910F910895811173
:1026F000F5CFCE01CEDF2196EECFA0914A04B09166
:102700004B04109729F120914C0430914D0482170D
:102710009307F0F453E1589F9001599F300D112415
:10272000A20FB31FED91FC911197309789F012968B
:102730008C91681768F48DE0689FE00DF11D1124FD
:1027400080819181892B21F081E09281491708F0E5
:1027500080E008959C0143E1429FC001439F900D9A
:102760001124E0914A04F0914B04E80FF91F83858E
:10277000823091F481E090E06581768140917B0226
:1027800050917C026417750711F490E080E0892B6A
:1027900019F081E0232B09F080E00895FC01A0816D
:1027A000B1818DE0689FA00DB11D112413964D914C
:1027B0005C9185859685489F9001499F300D589F73
:1027C000300D1124C9010196611103C0478144FDF8
:1027D00004960895EF92FF920F931F93CF93DF9388
:1027E000EA01FC01E60FF71F02811381E480F58006
:1027F0004F2D6E2DC80181DF81110DC082E090E068
:10280000998388838EEF9FEFDF91CF911F910F9176
:10281000FF90EF900895C8013CDF882339F082E0F3
:1028200090E09983888388EF9FEFEECF1093820228
:1028300000938102E0928302F092840281E090E0B2
:102840009983888390E080E0DFCFCF92DF92EF9290
:10285000FF920F931F93CF93DF937A01EC01C60F82
:10286000D71FC0908102D090820200918302109104
:102870008402412F602FC60140DF811110C082E029
:1028800090E0F701918380838AEF9FEFDF91CF91F2
:102890001F910F91FF90EF90DF90CF900895C601A8
:1028A000F8DE882341F082E090E0F7019183808395
:1028B00088EF9FEFEBCF4C815D816E817F819A81A4
:1028C00089818F3F41F082E090E0F701918380831E
:1028D0008EEF9FEFDBCFE3E1EC9D9001ED9D300D9E
:1028E0001124E0914A04F0914B04E20FF31F019090
:1028F000F081E02D2DE0029FE00DF11D11240190EB
:10290000F081E02D27E0129FE00DF11D112480835E
:1029100091838B81828343835483658376831F5F96
:102920001093840281E090E0F7019183808390E02E
:1029300080E0ACCFEF92FF920F931F93CF93DF9382
:102940007A018C01060F171FC0914A04D0914B04E5
:10295000209781F021E030E0F8018281938140915D
:102960004C0450914D048417950710F030E020E09E
:10297000232B71F482E090E0F701918380838EEF46
:102980009FEFDF91CF911F910F91FF90EF900895EE
:1029900043E1489F9001499F300D1124C20FD31F7E
:1029A00078DE882341F082E090E0F7019183808314
:1029B00088EF9FEFE6CFF80124813581203831057B
:1029C000C8F687818111D6CF4181842F90E08F7E18
:1029D000009741F082E090E0F7019183808386EFD9
:1029E0009FEFCFCF4F833E832D8326812887198683
:1029F000223010F421E0288721E030E0F701318314
:102A00002083BFCF88E090E0FA019183808390E03B
:102A100080E00895FB018FEF808381E181838FEF58
:102A20009FEF9383828380E890E09583848316826E
:102A300017820895FB018FEF808391E09183828359
:102A40009383848384E3858381E090E09783868306
:102A5000089582E090E0FA019183808380EF9FEFF8
:102A60000895DF92EF92FF920F931F93CF93DF931E
:102A7000EA01FC01E60FF71F8181813071F082E0ED
:102A800090E0998388838FEF9FEFDF91CF911F9123
:102A90000F91FF90EF90DF90089582819381D48011
:102AA0002581E680F78000914A0410914B040115BE
:102AB000110539F482E090E0998388838CEF9FEFD1
:102AC000E4CF40914C0450914D048417950738F0A1
:102AD00082E090E0998388838EEF9FEFD6CF892B99
:102AE00039F082E090E09983888386EF9FEFCDCF25
:102AF0008D2D8D7FB1F72130A1F781E0D11006C077
:102B000091E0E916F10431F080E004C0E2E0EE1655
:102B1000F104D0F3882329F390E080E0BADD882324
:102B200039F082E090E09983888388EF9FEFADCF02
:102B3000F801D38681E08487F686E586108A1786B9
:102B400081E090E09983888390E080E09ECF4DE023
:102B500050E069EC72E04FCA8F929F92BF92CF9281
:102B6000DF92EF92FF920F931F93CF93DF93EA01CF
:102B7000FC01E60FF71F828193810481B580E0910B
:102B80004A04F0914B04309791F482E090E09983ED
:102B900088838CEF9FEFDF91CF911F910F91FF9072
:102BA000EF90DF90CF90BF909F908F9008952091ED
:102BB0004C0430914D048217930738F082E090E086
:102BC000998388838EEF9FEFE6CF23E1289F6001F2
:102BD000299FD00C1124EC0DFD1DE080F180E11443
:102BE000F10499F28281081748F78DE0089F80016F
:102BF0001124E00EF11EF70180819181892B29F6C5
:102C0000BB20E1F2F7E0BF9E40011124C4010E9405
:102C1000E621F70191838083E0914A04F0914B040F
:102C2000EC0DFD1D0190F081E02DE00FF11F808182
:102C30009181009739F482E090E0998388838DEF49
:102C40009FEFA9CFA40170E060E00E943232809132
:102C50004A0490914B04C80ED91EF60180819181DF
:102C6000080F191FF801B28281E090E099838883F0
:102C700090E080E090CFAF92BF92CF92DF92FF9230
:102C80000F931F93CF93DF93EA01FC01E60FF71F29
:102C900082819381F48000914A0410914B040115C4
:102CA000110581F482E090E0998388838CEF9FEF97
:102CB000DF91CF911F910F91FF90DF90CF90BF9048
:102CC000AF90089520914C0430914D0482179307E2
:102CD00038F082E090E0998388838EEF9FEFE8CF11
:102CE0002FEF2F0D2C3FA8F723E1289F6001299F8C
:102CF000D00C11240C0D1D1DF80180819181892BB0
:102D000089F6FDE0FF9E50011124C5010E94E621D5
:102D1000F80191838083E0914A04F0914B04EC0D1B
:102D2000FD1D80819181009739F482E090E09983C4
:102D300088838DEF9FEFBCCFA50170E060E00E941B
:102D40003232E0914A04F0914B04EC0DFD1DF28209
:102D500081E090E09983888390E080E0A9CFCF92D2
:102D6000DF92EF92FF920F931F93CF93DF93860F23
:102D7000971FFC010281138180914A0490914B04BA
:102D8000892B81F082E090E0FA01918380838CEFBF
:102D90009FEFDF91CF911F910F91FF90EF90DF9008
:102DA000CF900895C801B0E0A0E00197A109B10952
:102DB0008F3F9F4FA105B10540F082E090E0FA01FE
:102DC000918380838EEF9FEFE4CF7A0183E1809F30
:102DD0006001819FD00C1124C6010E94E621EC0104
:102DE000009741F482E090E0F701918380838DEFBA
:102DF0009FEFCFCFA60170E060E00E943232D09307
:102E00004B04C0934A0410934D0400934C0490E08B
:102E100080E02FEF3FEF41E061E070E08017910725
:102E200041F481E090E0F7019183808390E080E0BD
:102E3000B0CF3A8B298B1B864C877E876D87188A8B
:102E40001F8601966396EACFEF92FF921F93CF936E
:102E5000DF93EC0110E0F12CE12C6A811617B0F041
:102E600083E0689FB0011124AE014F5E5F4FC70140
:102E70000E944B22009721F02FEF3FEF3A8B298BD6
:102E8000DF91CF911F91FF90EF900895612FCE01B8
:102E900085DC61E070E00E949320E816F90608F4F2
:102EA0007C011F5FDACFF8942091480430914904E7
:102EB00081E02115310509F080E0232B09F0789499
:102EC00008952F923F924F925F926F927F928F92CE
:102ED0009F92AF92BF92CF92DF92EF92FF920F93A9
:102EE0001F93CF93DF933C01660E771EF30182811F
:102EF00093814C01B12CA12CC0914A04D0914B0478
:102F0000209769F021E030E060914C0470914D040D
:102F10008617970710F030E020E0232BD1F482E0F1
:102F200090E0FA01918380838EEF9FEFDF91CF9144
:102F30001F910F91FF90EF90DF90CF90BF90AF90D7
:102F40009F908F907F906F905F904F903F902F90C9
:102F500008958092850290928602A0928702B09294
:102F6000880263E1689F9001699F300D1124C20FB0
:102F7000D31FF3018181833040F082E090E0FA01B9
:102F80009183808386EF9FEFD1CF2A012B813C81F3
:102F9000232BF1F4288139819F8191FF2EC0232BAF
:102FA00009F46FC020914F049A81422F490F552791
:102FB000551FBA0141E050E06138710514F050E04E
:102FC00040E0452B09F45DC02A87920F90934F048F
:102FD0008150823008F481C066DF882309F4D8C0AC
:102FE000F3018181813009F48DC008F47BC0823007
:102FF00009F4C6C090E080E0ADC0232B09F441C0C5
:1030000020914E049A81E22FE90FFF27FF1F41E034
:1030100050E0ED3FF10514F050E040E0452B89F120
:103020002A87920F90934E04D3CFA081B181A20F33
:10303000B31F11966C91060F111D0196295F3F4F2A
:103040008417950794F38D859E85089F1001099F2D
:10305000300C189F300C1124C114D104D1F48F818D
:1030600084FF17C00E94E120F5E02F0E311C21E003
:103070008215930508F420E0A701435F5F4F2111FB
:103080000EC082E090E0F2019183808387EF9FEF92
:103090004DCF0E94E1202FEF221A320AE8CF88811B
:1030A0009981E80EF91EF70114830383FFEFCF1A0D
:1030B000DF0A7A018A818C151D0409F00CF48CCF8B
:1030C000E881F981EE0DFF1D428150E030E020E003
:1030D00010E000E090E080E0B3CFF12CE12CD12CA7
:1030E000C12CE8CF81E090E09C838B83E9DA8823D0
:1030F00009F480CF81E090E00E94DD0F80E40E941F
:10310000EB0F78CF89899A89019661F083E090E08E
:103110009C838B8382E090E00E94DD0F80E40E941C
:10312000E50F68CF8D819E8120917B0230917C02DA
:1031300082179307D1F460917F0270918002AE01F3
:103140004F5E5F4F80917D0290917E020E946A23C4
:103150000097E1F2789422E030E0F201318320839D
:10316000892B99F08DEF9FEFE1CE89288A288B2853
:1031700069F6892B59F6CE0167DE188A1F86E8CFDB
:1031800082E090E09C838B8335CF90E080E0CECED0
:1031900082E090E0F2019183808385EF9FEFC6CEBD
:1031A0008F929F92AF92BF92CF92DF92EF92FF9257
:1031B0000F931F93CF93DF93EA018C01060F171F24
:1031C000F8018181833098F082E090E099838883D0
:1031D00086EF9FEFDF91CF911F910F91FF90EF90BE
:1031E000DF90CF90BF90AF909F908F900895809187
:1031F0004A0490914B04892B61F081E090E020918A
:103200004C0430914D04232B11F490E080E0892B85
:1032100039F482E090E0998388838EEF9FEFDACFD4
:1032200042DE882309F4DFC0F8018181813009F48E
:1032300095C0E8F0823099F420914C0430914D040F
:10324000E0914A04F0914B0490E080E041E050E0CE
:103250002817390709F0BDC033DA811117C07894F7
:1032600081E090E09983888390E080E0B3CF209163
:103270004C0430914D04E0914A04F0914B0490E0ED
:1032800080E041E050E02817390741F481E090E008
:103290000E94DD0F80E40E94EB0FE1CF6381748117
:1032A000672B11F05483438301967396ECCFE09122
:1032B0004A04F0914B04E00FF11F23813481223046
:1032C0003105D9F4218932892F3F3F4FB1F425814F
:1032D000368140917B0250917C022417350761F5BD
:1032E000AF014F5E5F4F60917F02709180028091CD
:1032F0007D0290917E020E946A23EFEFCE1ADE0AD1
:10330000EE0AFE0A0D5E1F4F40914C0450914D0491
:1033100070E060E0C416D506E606F7063CF50097B7
:1033200031F27894892B09F49BCF82E090E0998365
:1033300088838DEF9FEF4ECFC114D104E104F104D7
:10334000E1F6232BD1F6CF017FDDE0914A04F09125
:103350004B04E00FF11F108A1786CFCF10E000E07A
:1033600090E080E0C12CD12C7601CECF0097C9F639
:1033700010E000E0812C912C540183E0E82EF12C28
:103380001AC0E0914A04F0914B04E00FF11F8381D1
:103390009481029749F4F482E38282E090E00E94F3
:1033A000DD0F80E40E94E50FFFEF8F1A9F0AAF0A3E
:1033B000BF0A0D5E1F4F80914C0490914D04B0E008
:1033C000A0E088169906AA06BB06DCF290E080E031
:1033D000A8CF638174816230710511F454834383F3
:1033E0000196739635CF82E090E09983888385EFCC
:1033F0009FEFF0CE0097B9F48FEFFB01808320910F
:1034000085023091860243E1429FC001439F900DA7
:103410001124E0914A04F0914B04E80FF91F8285D2
:10342000FB01818308950C94910F88E090E0FA01EC
:103430009183808390E080E0089510924904109277
:103440004804EAE4F4E086E0DF011D928A95E9F79A
:1034500087EA95E19093470480934604089580910C
:1034600046049091470408952F923F924F925F92A5
:103470006F927F928F929F92AF92BF92CF92DF9284
:10348000EF92FF920F931F93CF93DF93CDB7DEB7E9
:103490002F970FB6F894DEBF0FBECDBFF894E09122
:1034A0004804F09149043196F0934904E0934804AC
:1034B000789440904A0450904B044114510409F40C
:1034C0000CC2E0914C04F0914D04EF2B09F405C2BD
:1034D0002D8749875A876B877C8798878F8312014E
:1034E000B12CA12C10E000E080914C0490914D048F
:1034F000A816B90618F40115110529F1F894809160
:10350000480490914904019790934904809348049A
:103510007894C8012F960FB6F894DEBF0FBECDBFCA
:10352000DF91CF911F910F91FF90EF90DF90CF909F
:10353000BF90AF909F908F907F906F905F904F90D3
:103540003F902F9008957101E418F508D101179666
:103550008C91179781FD54C013968D919C9114976F
:10356000039709F04DC015968D919C91EF81F885D8
:103570008E179F0709F044C0B50190E080E07FD42A
:103580008A8320914A0430914B043D832C833D85EE
:10359000332309F44CC04C815D81452B09F49AC159
:1035A00080914C0490914D04A816B90608F092C180
:1035B000C501D0D88823E9F06C817D816E0D7F1D17
:1035C0007D836C83DB011F968D919C91892B89F003
:1035D000D12CC12CF12CE12CAC81BD8112968C91A7
:1035E00012978E151F0409F094F450961C921E92A7
:1035F0001F972A81222321F0B50190E080E041D479
:103600003FEFA31AB30A43E1240E311C6DCFAC8106
:10361000BD81ED91FC91EC0DFD1D858196810FD74B
:10362000BFEFEB1AFB0AEDE0CE0ED11CD5CFEC813B
:10363000FD81309709F44EC180914C0490914D0466
:10364000A816B90608F046C1EE0DFF1DFF87EE87EC
:10365000C50180D88B83882339F1AE85BF851F963D
:103660008D919C915097019621E01D964D915C9112
:103670008417950709F020E02E831982712C10E041
:1036800000E0AE85BF8512968C91781608F45DC077
:10369000EE85FF85878590890196658576850E94F0
:1036A000D231908B8787A5CFB1E0BE83E6CF992436
:1036B00093946BC08BD6F6019683858382C0D60126
:1036C000ED90FC90B7E06B9EE00CF11C1124F7012B
:1036D0006381748180818F3F61F121E030E002C01D
:1036E000220F331F8A95E2F7C901092E000CAA0B9D
:1036F000BB0BFB014081518162817381842395233F
:10370000A623B72321E0892B8A2B8B2B09F420E0F9
:10371000D4012C93D70111968C91F6012385348521
:10372000820F932F911D880E991E14861386639421
:103730009BC0418150E0C4010E942932EBCF9982A5
:1037400006EF1FEFC5C01982C3C0F981F111A0CFE8
:10375000EDE07E9E70011124AE85BF85CD90DC909A
:10376000CE0CDF1C15D49D838C83BB81BB2309F455
:103770009ECF81E0EE85FF8527853089232B09F0D8
:1037800080E0982E882309F458C0672D8E859F8588
:1037900005D8D60118969C938E93179761E070E038
:1037A000C2D4EE85FF85218932892F3F320709F483
:1037B00081CFBC01C901CFD7D60116969C938E93B9
:1037C0001597D60115968D919C911697009709F43F
:1037D000B6CFEC81FD818E0F9F1F1A969C938E931E
:1037E0001997AE85BF85ED91FC911197EE0EFF1EE6
:1037F000F70121853285148613861A968C91870DE0
:10380000D9018D93711016C0EE85FF85878184FFE5
:1038100011C049855A856B857C85F90141835283A6
:1038200063837483F701838594850496A80FB91F79
:1038300014861386F701B287A187D60115968D915C
:103840009C911697892B09F443C0EE85FF8525814D
:10385000368180917B0290917C022817390779F09C
:1038600019968D909C90612CD60112968C9112978E
:10387000681608F424CF1A969C928E921997BE81EE
:10388000BB2309F460CF61E070E0F6018781908589
:103890004AD4D6011796ED90FC90189715964D9145
:1038A0005C91E1E0F0E0BA81BB2311F0F0E0E0E0F0
:1038B0000C811D819C01B501882799278E1B9F0BC8
:1038C0006AD38C01892B21F0F60185819681B7D5C9
:1038D0007394D7CE0FEF1FEF8CCE10E000E00ECE2A
:1038E0002F923F924F925F926F927F928F929F9210
:1038F000AF92BF92CF92DF92EF92FF920F931F93FE
:10390000CF93DF9380914A0490914B0410E000E044
:10391000892BA9F0C8DA0AEF1FEF882381F02090E5
:103920004C0430904D04C0914A04D0914B04D12CEA
:10393000C12C10E000E02C143D04A9F47894C801D7
:10394000DF91CF911F910F91FF90EF90DF90CF907B
:10395000BF90AF909F908F907F906F905F904F90AF
:103960003F902F900895C6010E94AA13882309F161
:103970008B819C810397E9F48F859889892BC9F005
:10398000B60190E080E07BD221E030E0882311F0A6
:1039900030E020E044245524421A530AB12CA12CD3
:1039A000912C812C8A818815190409F038F4188A21
:1039B0001F864FEFC41AD40A6396BDCFE881F98100
:1039C000EA0DFB1D85819681892BA1F161E070E0F4
:1039D00087819085A8D33C01DBD28C01E881F981F5
:1039E000EA0DFB1D8185928525813681200F311FCF
:1039F000AC01421B530B9A0147815085421B530B6C
:103A000070E060E00E943232E881F981EA0DFB1D2E
:103A1000E780F084458156819301B601C201BBD293
:103A20008C01892B39F0E881F981EA0DFB1D858134
:103A3000968105D55FEF851A950A8DE0A80EB11C19
:103A4000B1CF31CA789408952F923F924F925F92EE
:103A50006F927F929F92AF92BF92CF92DF92EF923E
:103A6000FF920F931F93CF93DF9300D000D0CDB779
:103A7000DEB700914A0410914B04992493940115E8
:103A8000110509F43EC0A0904C04B0904D040BDA2F
:103A9000982E8823B1F110924B0410924A04109290
:103AA0004D0410924C0410924E0410924F048FEF6C
:103AB0009FEFDC018093850290938602A09387029A
:103AC000B093880278947FD31E830D83C12CD12CB0
:103AD0007601C501B0E0A0E089839A83AB83BC8303
:103AE00022242A94322C89819A81AB81BC81C81608
:103AF000D906EA06FB06F4F0C801A1D480E40E94CE
:103B0000EB0F892D26960FB6F894DEBF0FBECDBF02
:103B1000DF91CF911F910F91FF90EF90DF90CF90A9
:103B2000BF90AF909F907F906F905F904F903F902D
:103B30002F900895AD81BE8115968D919C91169719
:103B400020917B0230917C0282179307D1F4519629
:103B50008D919C91EED5ED81FE8180819181B12C7A
:103B6000A12C412C512C3201892B89F5BFEFCB1AA6
:103B7000DB0AEB0AFB0AED81FE817396FE83ED837F
:103B8000B2CFC114D104E104F10429F7892B19F74C
:103B9000ED81FE81818992898F3F980709F029D5AF
:103BA000AD81BE8152963C922E925197D4CF8A0D10
:103BB0009B1DDC018D919C91009709F040D4BFEFD3
:103BC0004B1A5B0A6B0A7B0AEDE0AE0EB11CAD81AD
:103BD000BE818D919C91119712964C9150E070E0AE
:103BE00060E044165506660677060CF328D4BECF6F
:103BF000CF93DF93EA0128DF811109C082E090E0D2
:103C00009983888385EF9FEFDF91CF91089581E0BD
:103C100090E00E94DD0F81E090E09983888390E03E
:103C200080E0F2CF11DF109247041092460408950D
:103C300042E050E067E173E00C94FB0FFF920F93BA
:103C40001F93CF93DF938A01EC01C60FD71FF98032
:103C5000B9D20897F816190671F068F082E090E082
:103C6000F801918380838EEF9FEFDF91CF911F91B9
:103C70000F91FF9008956C817D818E819F814B8192
:103C80000E949012811108C082E090E0F8019183B7
:103C9000808384EF9FEFE9CFF9800E948B124F2D34
:103CA00050E0BE01685F7F4F0E94293289810E94E7
:103CB000FA1281E090E0F8019183808390E080E047
:103CC000D4CFDF92EF92FF920F931F93CF93DF93A6
:103CD0008A01EC01C60FD71F0E948B127C01D9808C
:103CE00071D2DD2059F0029721E030E0D816190694
:103CF00019F010F030E020E0232B79F482E090E01E
:103D0000F801918380838EEF9FEFDF91CF911F9118
:103D10000F91FF90EF90DF900895EF2841F482E03B
:103D200090E0F8019183808384EF9FEFEECFF980DC
:103D30000E948B124F2D50E0BE016E5F7F4F0E949C
:103D4000293289810E94FA1281E090E0F801918382
:103D5000808390E080E0D9CF88E19EE19093510488
:103D600080935004089580915004909151040895D7
:103D70000895FC0111821082938382830895DB01F0
:103D80001D921C92DC011296ED91FC9113977183A8
:103D9000608313967C936E9312970895FC01808143
:103DA0009181DB018D939C93A081B181109741F0AB
:103DB0008D919C9191838083892B11F4F383E2830D
:103DC0000895FC0180819181DB018D939C93892B67
:103DD00011F473836283718360830895FC011182FF
:103DE0001082938382830895CF93DF931F921F9253
:103DF000CDB7DEB71A821982F894BE016F5F7F4F8C
:103E000087E594E0CBDF89819A81009709F017D389
:103E100089819A81892B89F7BE016F5F7F4F8BE57E
:103E200094E0BCDF89819A81009709F008D38981E9
:103E30009A81892B89F778940F900F90DF91CF9119
:103E40000895CF93DF931F921F92CDB7DEB71A82EA
:103E50001982F894BE016F5F7F4F83E594E09EDF87
:103E600089819A81009709F0EAD289819A81892B08
:103E700089F778940F900F90DF91CF91089581E0AA
:103E8000089590E080E00895EF92FF920F931F93C2
:103E9000CF93DF931F921F92CDB7DEB71A8219829C
:103EA0008091520407EF1FEF8823A1F1F894BE011F
:103EB0006F5F7F4F8BE594E071DF789489819A8101
:103EC000EE24E394F12C892B51F4F894BE016F5F3A
:103ED0007F4F87E594E062DF7894F12CE12C8981B3
:103EE0009A810EEF1FEF0097A9F0FC0142815381E8
:103EF00064E070E074D68C01892B61F0F8946981DC
:103F00007A81C701880F991F880F991F895A9B4F83
:103F100058DF7894C8010F900F90DF91CF911F91D7
:103F20000F91FF90EF9008950F931F93CF93DF931E
:103F300000D01F92CDB7DEB71C821B821A82198275
:103F40008091520407EF1FEF8823C1F0AE014D5F4F
:103F50005F4F64E070E0CE010196B4D68C01892BEE
:103F600069F4E981FA818B819C8193838283F8943F
:103F700069817A8183E594E002DF7894C8010F902B
:103F80000F900F900F90DF91CF911F910F91089597
:103F9000B9D7049608958F929F92AF92BF92CF9215
:103FA000DF92EF92FF920F931F93CF93DF931F92B5
:103FB0001F92CDB7DEB71A821982BC016F5F7F4FA7
:103FC0006330710598F0AA24AA94BA2CC5010F9009
:103FD0000F90DF91CF911F910F91FF90EF90DF90A5
:103FE000CF90BF90AF909F908F900895411551054D
:103FF00051F3480159018A016C01CADF88159905FE
:1040000011F7E114F104F9F28E0D9F1DA816B906FF
:10401000D0F2809152048823F1F0F894B5016450F5
:1040200071099701AE014F5F5F4FC8010496DFD65B
:104030005C01892B71F489819A81F80193838283D1
:10404000C601880F991F880F991FB801895A9B4F85
:1040500096DE7894BBCF87EFA82EBB24BA94B6CF58
:10406000AF92BF92CF92DF92EF92FF920F931F9386
:10407000CF93DF931F921F92CDB7DEB71A821982BA
:10408000892B09F047C06115710509F443C041153A
:10409000510509F43FC02115310509F43BC0011554
:1040A0001105C1F1809152048823B9F179016A01A7
:1040B0005B01F894BE016F5F7F4F83E594E06EDE95
:1040C000789489819A81009759F1DC0112966D915B
:1040D0007C91A8010496A4D68C01E981FA81D501CE
:1040E000ED93FC93828193810496F6019183808302
:1040F0004FDFD7018D939C93C8010F900F90DF91F4
:10410000CF911F910F91FF90EF90DF90CF90BF90D4
:10411000AF9008950FEF1FEFEFCF07EF1FEFECCF3A
:104120000EEF1FEFE9CFCF93DF93EC01672B71F414
:10413000F2D68C179D0760F0E5D62496C80FD91FDC
:10414000E4D68C0F9D1FDF91CF910895E1D6F1CF7A
:1041500090E080E0F8CF0F931F93CF93DF932091EF
:10416000520421112BC08B01EC0187E594E001DEA4
:104170008BE594E0FEDD83E594E0FBDD97D00097CE
:10418000C1F4C9D670E060E0CEDF49E852E062E0F9
:1041900070E081D1009769F48091890290918A0240
:1041A000CCD6B801CE0101D5009719F421E02093B7
:1041B0005204DF91CF911F910F91089584EF9FEFEB
:1041C000F8CFA6C6A8C6CF93DF93A8D6EC01892B5B
:1041D00011F40ADE36DECE01DF91CF910895CF9340
:1041E000DF939CD6EC01892B09F4FEDDCE01DF9133
:1041F000CF9108958091890290918A020895CF937A
:10420000DF9380915204D0E0C0E08823D1F09AD6A9
:10421000EC01892BB1F4E8DD14DE809189029091E4
:104220008A02E7D1E8D2EC01892B59F487E594E0C2
:10423000D5DD8BE594E0D2DD83E594E0CFDD10920F
:104240005204CE01DF91CF910895EF92FF920F9328
:104250001F93CF93DF93EC017A018B010F5F1F4F08
:104260000E9DA0010F9D500D1E9D500D112470E05C
:1042700060E00E94323290E080E0F0E0E0E02FEF7A
:10428000E816F90639F4DF91CF911F910F91FF9055
:10429000EF9008951A8219822883309711F0D28303
:1042A000C1830196FE01C00FD11FEACFCF92DF92EA
:1042B000EF92FF920F931F93CF93DF930CEA15E0D9
:1042C0000C7F43E050E06BE872E081E992E01AD4A1
:1042D0008BE8E82E82E0F82E91E9C92E92E0D92EE3
:1042E000CBE2D6E0D7014D915D917D01F601619160
:1042F00071916F01198308835D834C835B834A83CB
:104300007F836E839B012F5F3F4F249FC001259FBA
:10431000900D349F900D1124998788870115110500
:1043200011F0C80192DF88859985080F191F2A9618
:10433000F1E9EF16F2E0FF06A9F6E1E6F4E088E421
:1043400091E0DF019C011D9221503040E1F7109275
:10435000600410925F0410924A061092490610926F
:104360004E0610924D0610924C0610924B0610927B
:10437000500610924F06109252061092510610925B
:104380005406109253061092580610925706109237
:1043900056061092550610925A061092590610921F
:1043A0005C0610925B061092280610922706109267
:1043B0002A061092290690E080E0DF91CF911F91AC
:1043C0000F91FF90EF90DF90CF9008950097F1F05C
:1043D000F894A1E9B2E0EBE2F6E030E020E04D91A4
:1043E0005D9148175907A8F0428153814115510545
:1043F00081F08AE0829FF001839FF00D1124E55D3A
:10440000F94F80819181009759F4789490E080E091
:1044100008952F5F3F4F3A962330310501F7F5CFCE
:10442000DC0111966D917C9171836083415051093B
:1044300053834283FC012193CF0178940895009720
:1044400049F1DC018E91853041F4E0912906F0912B
:104450002A063097F9F0CD0119948530D8F4282F29
:1044600030E0F8948FEF8C938AE0829FF001839F75
:10447000F00D1124E55DF94F8081918112969C9396
:104480008E931197B183A083828193810196938348
:10449000828378940895CF92DF92EF92FF920F93E8
:1044A0001F93CF93DF939C0184E694E08C7F4115AA
:1044B000510509F49BC02115310509F497C0611518
:1044C000710509F493C07A01AB01B9016D5F7F4FAB
:1044D0006C7F9B012F5F3F4F249F8001259F100D14
:1044E000349F100D1124F8942091490630914A060A
:1044F000232B59F420915106309152062115310594
:1045000069F12017310708F058C020915306309107
:104510005406232B91F42091510630915206820FBC
:10452000931F20915B0630915C062115310509F43B
:1045300041C02017310708F056C07894CFEFDFEF65
:1045400086EF9FEFF701D183C083DF91CF911F9159
:104550000F91FF90EF90DF90CF900895C3E0D0E0EF
:10456000C0905F04D090600425E431E02C193D092F
:104570002017310710F32AE02C9FF0012D9FF00D3A
:104580001124E55DF94F91838083558344835383E0
:1045900042837783668311870087009709F055DE91
:1045A0000C0D1D1D1093600400935F04789490E03F
:1045B00080E0C8CFC4E0D0E0D3CFC3E0D0E02AE0B1
:1045C0002C9FF0012D9FF00D1124E55DF94F918393
:1045D0008083558344835383428377836683009724
:1045E00029F333DEE3CFC4E0D0E0E9CF8FEF9FEFD4
:1045F000ACCF9C010397029708F069C0F89484E05F
:104600009AE0482F50E0241735070CF44DC091E094
:104610008AE0829FF001839FF00D1124E55DF94F40
:1046200011821082158214821382128217821682DE
:104630009923B1F18091490690914A06892BA9F4FA
:1046400020915106309152062115310571F080916B
:104650005F0490916004821B930B9093600480939D
:104660005F04109252061092510680915306909169
:104670005406892BA9F420915B0630915C06211524
:10468000310571F080915F0490916004821B930B5F
:104690009093600480935F0410925C0610925B0616
:1046A000789490E080E00895949FF001959FF00D3C
:1046B0001124E55DF94F40815181452B31F440854E
:1046C0005185452B11F481509CCF90E0A1CF8FEF05
:1046D0009FEF08954115510549F1009739F1611592
:1046E000710521F1F8942091270630912806232B9B
:1046F000B9F42091290630912A06232B89F490934E
:1047000028068093270670932A06609329067894DA
:1047100025E030E090E080E0FA01318320830895C5
:1047200078942FEF3FEF86EF9FEFF6CF8FEF9FEF5D
:104730000895059769F4F8941092280610922706B8
:1047400010922A0610922906789490E080E008954D
:104750008FEF9FEF08956115710519F4F0E0E0E027
:1047600011C08530910581F4E0912706F09128066B
:104770003097A1F3CB0101961995009779F3FC01CD
:1047800085E08193CF0108959C01235031092230A7
:10479000310520F72AE0289FD001299FB00D112470
:1047A000A55DB94F2D913C911197232BB9F2169627
:1047B0002D913C9117972617370780F2F89412969F
:1047C0002D913C9113972115310529F0ED91FC9124
:1047D0001197309711F47894C1CF4181528111968D
:1047E0005C934E932150310913963C932E9312976C
:1047F00081937894C7CFE9EAF5E08EE7DF011D9257
:104800008A95E9F7E1E6F4E088E491E0DF019C01B4
:104810001D9221503040E1F71092600410925F0425
:10482000EBE2F6E082E3DF011D928A95E9F7E7E229
:10483000F6E084E0DF011D928A95E9F790E080E0E0
:104840000895CF93DF93C0919702D0919802CF3F04
:10485000DC0759F45CD4909398028093970297FFF9
:1048600009C0D0939802C093970284EF9FEFDF9125
:10487000CF91089590E080E0FACF8230910528F43E
:1048800080935D0690E080E008958FEF9FEF08959C
:104890004F925F926F927F92AF92BF92CF92DF92D0
:1048A000EF92FF920F931F93CF93DF931F921F926C
:1048B000CDB7DEB71A821982009709F478C0611566
:1048C000710509F474C0209197023091980207EFA6
:1048D0001FEF2F3F3F4F09F444C06B015C01412C97
:1048E000512C3201F12CE12C10E000E09E012F5FF1
:1048F0003F4FA6014E195F09B5016E0D7F1D8091D6
:1049000097029091980262D4892B09F04AC089815C
:104910009A81009741F4E114F10429F420915D0695
:10492000222309F441C0E80EF91EEC14FD04C8F47A
:1049300080E8481684E858068EE16806710418F588
:1049400060E070E0CB0148D72AE0420E511C611CA8
:10495000711C0A3F4FEF140721F0043F8FEF180737
:10496000A1F4C8010F900F90DF91CF911F910F918B
:10497000FF90EF90DF90CF90BF90AF907F906F90BF
:104980005F904F90089501EF1FEF81E090E0013FAD
:104990002FEF120711F090E080E0892B09F4A6CFE9
:1049A000E0CF04EF1FEFDDCF0AEF1FEFDACF0FEFFD
:1049B0001FEFD7CF4F925F926F927F92AF92BF92CD
:1049C000CF92DF92EF92FF920F931F93CF93DF93DB
:1049D0001F921F92CDB7DEB71A821982009709F491
:1049E00078C06115710509F474C020919702309167
:1049F000980207EF1FEF2F3F3F4F09F444C06B01B0
:104A00005C01412C512C3201F12CE12C10E000E032
:104A10009E012F5F3F4FA6014E195F09B5016E0D34
:104A20007F1D809197029091980286D3892B09F07F
:104A30004AC089819A81009741F4E114F10429F474
:104A400020915D06222309F441C0E80EF91EEC1402
:104A5000FD04C8F480E4481682E458068FE0680636
:104A6000710418F560E070E0CB01B6D62AE0420E82
:104A7000511C611C711C0E3F4FEF140721F0043FC5
:104A80008FEF1807A1F4C8010F900F90DF91CF911D
:104A90001F910F91FF90EF90DF90CF90BF90AF905C
:104AA0007F906F905F904F90089502EF1FEF81E02D
:104AB00090E0023F2FEF120711F090E080E0892B89
:104AC00009F4A6CFE0CF04EF1FEFDDCF0EEF1FEF0D
:104AD000DACF0FEF1FEFD7CF809197029091980216
:104AE0008F3F980749F00BD3892B49F48FEF9FEF45
:104AF000909398028093970290E080E0089584EF6D
:104B00009FEF0895CF92DF92EF92FF920F931F9342
:104B1000CF93DF9321E04115510509F020E041508A
:104B2000510921112CC0DC01FB01D12CC12C21E049
:104B300022C03FEFC31AD30A7D010D911D91E701F9
:104B4000EA80FB80E016F106A8F420813181E28042
:104B5000F380F182E08233832283ED90FC90119701
:104B60009D0122503109E901F982E88211961C93D6
:104B70000E9320E03296C416D506D8F2D2CFDF913C
:104B8000CF911F910F91FF90EF90DF90CF900895FC
:104B9000FC01680F791F90E080E0E617F70709F441
:104BA00008952191820F911DF8CF20915E06211169
:104BB00013C047DE009791F41092640610926306CA
:104BC00010926206109261061092600610925F06C3
:104BD00021E020935E06089584EF9FEF0895AF9241
:104BE000BF92CF92DF92EF92FF920F931F93CF93DA
:104BF000DF93009709F460C04630510508F45CC0AB
:104C000020915E06C7EFDFEF222309F449C08C0133
:104C1000060F171FF801C080D180C114D10409F418
:104C20004EC096012A5F3F4F4217530708F447C012
:104C30007C01809163069091640693838283B60120
:104C40006C5F7F4F5801A60EB71EC801A1DFF501AA
:104C50009183808364E070E0C8011ADEEC01892B47
:104C6000F9F481E090E009DEB601C801049610DE97
:104C7000EC01892B91F462E070E0C50109DEEC01E2
:104C8000892B59F4C701DBDB8091630690916406A0
:104C90000196909364068093630690E080E0EDDDDA
:104CA000CE01DF91CF911F910F91FF90EF90DF9098
:104CB000CF90BF90AF900895CFEFDFEFF1CFC9EF66
:104CC000DFEFEECF6F927F928F929F92AF92BF9263
:104CD000CF92DF92EF92FF920F931F93CF93DF93C8
:104CE00000D01F92CDB7DEB7009709F47AC0411506
:104CF000510509F476C020915E0607EF1FEF2223CD
:104D000009F44DC03A017B015C0164E070E0CE0122
:104D1000019650DE8C01892B09F041C009811A816E
:104D20000115110509F45AC0480186E0880E911C4E
:104D3000B701680D791D8091990290919A020BDD5F
:104D40006C01009709F450C0A70170E060E00E9478
:104D5000323289819A81AB81BC81EC0CFD1CF70158
:104D600081939193A193B1937F0181E090E085DDE0
:104D7000B801C7011FDE892B31F562E070E0C70181
:104D8000800F911F17DE8C01892BE9F490E080E001
:104D900074DDF501D182C082F30191828082C80165
:104DA0000F900F900F900F90DF91CF911F910F9167
:104DB000FF90EF90DF90CF90BF90AF909F908F903B
:104DC0007F906F90089590E080E057DDF5011182AB
:104DD0001082F30111821082C60131DB09EF1FEF4F
:104DE000DECF0FEF1FEFDBCF06EF1FEFD8CF00971F
:104DF000A1F04115510589F02115310571F0F90136
:104E000036966E177F0748F0DC012D933C93DA014C
:104E1000ED93FC9390E080E008958FEF9FEF08956D
:104E2000AF92BF92CF92DF92EF92FF920F931F93B8
:104E3000CF93DF93009709F45FC04115510509F442
:104E40005BC06530710508F457C020915E06C7EF5E
:104E5000DFEF222391F1DC01CD90DC9011971296C7
:104E6000ED91FC9196012A5F3F4FC9EFDFEF2617C6
:104E7000370719F5C0915F06D0916006209749F574
:104E800021E030E03093600620935F067A018C01C8
:104E9000F0936206E09361065601B4E0AB0EB11CDC
:104EA000B50176DE0A0D1B1DF801208131818217C4
:104EB000930729F5D701CD92DC92CE01DF91CF91F6
:104EC0001F910F91FF90EF90DF90CF90BF90AF9028
:104ED000089520916106309162062F5F3F4FCCEF1D
:104EE000DFEFE217F30790F2CBEFDFEF2E173F076C
:104EF00068F2D0E0C0E0CACFCFEFDFEFDECFC3EF84
:104F0000DFEFDBCF84E090E0089582E090E0089549
:104F10008CEF9FEF089580E290E008951092640670
:104F2000109263061092620610926106109260065B
:104F300010925F0690E080E0089590939A0280932B
:104F40009902089580915E06882391F0C5DD00974F
:104F500089F4109264061092630610926206109211
:104F600061061092600610925F0610925E06089528
:104F700090E080E00895009749F06115710531F0E7
:104F8000FC0111821082FB01118210820895F3CF7F
:104F900026E030E040E855E260E070E090E080E03C
:104FA00000C010926606109265068930910508F0DF
:104FB0003AC0FC018827E052F84D8F4F0C9408321C
:104FC000E927F227FB2704280D28142817281A2878
:104FD000202881E090E0909366068093650684E740
:104FE00096E022C782E090E0909366068093650683
:104FF00081E197E0F6CF84E090E09093660680939D
:1050000065068EEA97E0EDCF88E090E09093660623
:10501000809365068BE498E0E4CF80E190E0909384
:10502000660680936506089580E290E0F8CF80E4FC
:1050300090E0F5CF80E890E0909366068093650657
:1050400080916506909166069160E9CF1F920F925C
:105050000FB60F9211240BB60F922F933F934F93DD
:105060005F936F937F938F939F93AF93BF93EF93D0
:10507000FF938FE89DEF9093250180932401BAD090
:10508000FF91EF91BF91AF919F918F917F916F9120
:105090005F914F913F912F910F900BBE0F900FBEDC
:1050A0000F901F9018958FE89DEF909325018093A6
:1050B0002401A3E7B0E08C918E7F8C93E0E2F1E0D5
:1050C00080818C7F8083E1E2F1E08081877E808334
:1050D00080818460808380818C7F80838C918160DB
:1050E0008C930895E3E7F0E0808190819E7F908328
:1050F0008170089581E0089510926706089568EE22
:1051000073E080E090E068D390E080E0089526E0CE
:1051100030E040E050E16EE070E090E080E041DFA0
:1051200084E796E0B7D5892B21F084E796E0CCD5CB
:10513000F7CF90E080E00895CF92DF92EF92FF9258
:105140000F931F93CF93DF936B017A01E9011982CB
:10515000188284E796E09ED5892B69F18601CC24DC
:10516000C39482E0D82E80916706811110C084E735
:1051700096E0AAD50297B9F7C0926706F801D192D6
:105180008F0188819981019699838883ECCF8881EA
:1051900099818E159F0578F484E796E095D58F3F29
:1051A0009807A9F3F80181938F018881998101966D
:1051B00099838883ECCF90E080E0DF91CF911F91BD
:1051C0000F91FF90EF90DF90CF9008950F931F9372
:1051D000CF93DF93EA01890184E796E00E94A4312E
:1051E000F801D183C08390E080E0DF91CF911F91DF
:1051F0000F910895CF92DF92EF92FF92CF93DF93BA
:105200008091680691E0980F90936806882379F062
:1052100021E030E030936A062093690680936806A7
:10522000DF91CF91FF90EF90DF90CF900895789429
:10523000C0919D02D0919E026E8D7F8D88A199A113
:1052400043D120E030E040E85FE4F4D16B017C0121
:105250006A8D7B8D8C8D9D8D37D19B01AC01C701F3
:10526000B60199D005D16B017C010E943705B701C9
:10527000A60190E080E00E94A904F894809168065D
:105280008150CCCF0F931F93CF93DF9310923309AC
:1052900010923209D7D27CDEC0919D02D0919E023D
:1052A000198218826FEF7FEFCB010E942C0570E00E
:1052B00060E090E080E00E94AD03009709F03AC002
:1052C0000E942808F8947894BE016A5D7F4F8A8115
:1052D0009B810E94B003892B59F46FEF7FEFCB01C4
:1052E0000E943F040E942605882311F081E08AA7CE
:1052F000F894D9DE0E942905882311F080E008C0C7
:105300000E9426058111FACF81E09AA59111F6CF6E
:105310008093320978940E94D80F8C017894809100
:10532000320981110CC00E94F4080E940B05F89408
:1053300090E080E0DF91CF911F910F9108950E943E
:1053400009050E9429058823D9F081E0809333095B
:105350009091330981E0911180E08093320980912E
:1053600033098111BFDE0130110529F40E94D80FE5
:10537000892B09F4C1DE0E94D80F8C01BBDECFCF90
:105380000E9426058111E1CF81E09AA59111DECF1F
:1053900080E0DCCF5058BB27AA270ED00DC1FED02D
:1053A00030F003D120F031F49F3F11F41EF4F3C02C
:1053B0000EF4E095E7FBE9C0E92F0FD180F3BA17AF
:1053C000620773078407950718F071F49EF527C1EB
:1053D0000EF4E0950B2EBA2FA02D0B01B901900110
:1053E0000C01CA01A0011124FF27591B99F0593F54
:1053F00050F4503E68F11A16F040A22F232F342F9C
:105400004427585FF3CF469537952795A795F040E9
:105410005395C9F77EF41F16BA0B620B730B840BFE
:10542000BAF09150A1F0FF0FBB1F661F771F881FB6
:10543000C2F70EC0BA0F621F731F841F48F487950E
:1054400077956795B795F7959E3F08F0B3CF9395FD
:10545000880F08F09927EE0F97958795089571D0DA
:1054600008F481E0089504D06894B111D9C008957A
:10547000BCD088F09F5790F0B92F9927B751A0F072
:10548000D1F0660F771F881F991F1AF0BA95C9F7D8
:1054900012C0B13081F0C3D0B1E00895C0C0672F11
:1054A000782F8827B85F39F0B93FCCF38695779588
:1054B0006795B395D9F73EF4909580957095619571
:1054C0007F4F8F4F9F4F0895E89409C097FB3EF49C
:1054D00090958095709561957F4F8F4F9F4F992341
:1054E000A9F0F92F96E9BB279395F69587957795BF
:1054F0006795B795F111F8CFFAF4BB0F11F460FF7F
:105500001BC06F5F7F4F8F4F9F4F16C0882311F0D6
:1055100096E911C0772321F09EE8872F762F05C0EA
:10552000662371F096E8862F70E060E02AF09A9585
:10553000660F771F881FDAF7880F9695879597F97A
:105540000895990F0008550FAA0BE0E8FEEF161614
:105550001706E807F907C0F012161306E407F50767
:1055600098F0621B730B840B950B39F40A2661F0DB
:10557000232B242B252B21F408950A2609F4A1407E
:10558000A6958FEF811D811D089597F99F6780E88B
:1055900070E060E008959FEF80EC089500240A9485
:1055A0001616170618060906089500240A941216FE
:1055B0001306140605060895092E0394000C11F431
:1055C000882352F0BB0F40F4BF2B11F460FF04C0DE
:1055D0006F5F7F4F8F4F9F4F089557FD9058440F37
:1055E000551F59F05F3F71F04795880F97FB991F42
:1055F00061F09F3F79F087950895121613061406FF
:10560000551FF2CF4695F1DF08C01616170618068B
:10561000991FF1CF86957105610508940895E89466
:10562000BB2766277727CB0197F908958ADF08F40F
:105630008FEF08950BD0C0CFB1DF28F0B6DF18F0A0
:10564000952309F0A2CFA7CF1124EACFC6DFA0F39C
:10565000959FD1F3950F50E0551F629FF001729F07
:10566000BB27F00DB11D639FAA27F00DB11DAA1F26
:10567000649F6627B00DA11D661F829F2227B00D73
:10568000A11D621F739FB00DA11D621F839FA00DFE
:10569000611D221F749F3327A00D611D231F849F4E
:1056A000600D211D822F762F6A2F11249F575040A5
:1056B0008AF0E1F088234AF0EE0FFF1FBB1F661F40
:1056C000771F881F91505040A9F79E3F510570F0F9
:1056D0005CCFA6CF5F3FECF3983EDCF386957795E1
:1056E0006795B795F795E7959F5FC1F7FE2B880FF4
:1056F000911D9695879597F908951F920F920FB671
:105700000F9211242F933F938F939F93AF93BF9347
:1057100080916C0690916D06A0916E06B0916F0617
:1057200030916B0623E0230F2D3758F50196A11D0C
:10573000B11D20936B0680936C0690936D06A09329
:105740006E06B0936F068091700690917106A091DD
:105750007206B09173060196A11DB11D809370066B
:1057600090937106A0937206B0937306BF91AF91A8
:105770009F918F913F912F910F900FBE0F901F908F
:10578000189526E8230F0296A11DB11DD2CF3FB771
:10579000F8948091700690917106A0917206B09174
:1057A000730626B5A89B05C02F3F19F00196A11DD1
:1057B000B11D3FBFBA2FA92F982F8827BC01CD015B
:1057C000620F711D811D911D42E0660F771F881FBA
:1057D000991F4A95D1F708958F929F92AF92BF92E9
:1057E000CF92DF92EF92FF926B017C01D0DF4B01F1
:1057F0005C01C114D104E104F104D9F0D2D5C7DFB2
:10580000681979098A099B09683E734081059105E9
:1058100080F321E0C21AD108E108F10888EE880E71
:1058200083E0981EA11CB11CC114D104E104F10451
:1058300031F7FF90EF90DF90CF90BF90AF909F90A7
:105840008F900895789484B5826084BD84B581601A
:1058500084BD85B5826085BD85B5816085BDEEE678
:10586000F0E0808181608083E1E8F0E01082808157
:1058700082608083808181608083E0E8F0E08081C5
:1058800081608083E1EBF0E0808184608083E0EBE5
:10589000F0E0808181608083E1E9F0E080818260D6
:1058A0008083808181608083E0E9F0E08081816095
:1058B0008083E1EAF0E08081826080838081816082
:1058C0008083E0EAF0E0808181608083E1E2F1E0C2
:1058D000808182608083808181608083E0E2F1E06A
:1058E000808181608083EAE7F0E08081846080834A
:1058F00080818260808380818160808380818068F4
:1059000080831092C1000895863308F08653209159
:105910007B00982F9870277F922B90937B0020918B
:105920009B0290E4299F900111248770822B809321
:105930007C0080917A00806480937A0080917A0064
:1059400086FDFCCF809178009091790008951F9397
:10595000CF93DF93182FEB0161E033D1209731F41F
:1059600060E0812FDF91CF911F9167C1CF3FD105BB
:1059700011F461E0F6CFE12FF0E0EC51FF4FE4913C
:10598000E150E23108F0B2C0F0E08827E653F34D71
:105990008F4F3EC5DC2CE42CE92CF32CFD2C762D0E
:1059A000072D0F2D172D212D2B2D352D442D4E2D4F
:1059B000762D582D622D6C2D84B5806884BDC7BDB1
:1059C000DF91CF911F91089584B5806284BDC8BDD9
:1059D000F7CF80918000806880938000D093890009
:1059E000C0938800EDCF809180008062809380001A
:1059F000D0938B00C0938A00E3CF809180008860B1
:105A000080938000D0938D00C0938C00D9CF80917B
:105A1000B00080688093B000C093B300D1CF809174
:105A2000B00080628093B000C093B400C9CF809171
:105A30009000806880939000D0939900C093980064
:105A4000BFCF80919000806280939000D0939B00A4
:105A5000C0939A00B5CF80919000886080939000A9
:105A6000D0939D00C0939C00ABCF8091A000806834
:105A70008093A0008091A0008F7B8093A000D093A2
:105A8000A900C093A8009CCF8091A0008062809361
:105A9000A000D093AB00C093AA0092CF8091A00049
:105AA00088608093A000D093AD00C093AC0088CFF5
:105AB00080912001806880932001D0932901C093B8
:105AC00028017ECF80912001806280932001D093B5
:105AD0002B01C0932A0174CF8091200188608093AC
