:10000000F8C0000027C1000025C1000023C1000086
:1000100021C100001FC100001DC100001BC1000064
:1000200019C1000017C1000015C1000013C1000074
:1000300011C100000FC100000DC100000BC1000084
:1000400009C1000007C1000005C1000003C1000094
:1000500001C10000FFC00000FDC000000C94B52BE2
:10006000F9C000000C94AC2F0C94E22FF3C00000F8
:10007000F1C00000EFC00000EDC00000EBC00000C8
:10008000E9C00000E7C00000E5C00000E3C00000D8
:100090000C9438300C946E30DDC00000DBC00000E2
:1000A000D9C00000D7C00000D5C00000D3C00000F8
:1000B000D1C00000CFC00000CDC00000CBC0000008
:1000C000C9C00000C7C000000C945E280C94C43066
:1000D0000C94FA30BFC000000C9450310C9486315F
:1000E000B9C0000000000A0B02090C0D0E0807033E
:1000F00004010000000000000000000000000000FB
:1001000000000000000000000000000000000000EF
:1001100012111000000000000000000000000000AC
:100120000000000000000000000001021020200874
:100130000810204010204080020102010804020142
:1001400001020408102040808040201008040201B1
:10015000800402018040201008040201080402010A
:100160000102040810204080010204081020408091
:1001700005050505070508080808020202020A0A23
:100180000808040404040101010101010101030341
:10019000030303030303040707070C0C0C0C0C0CEC
:1001A0000C0C0202020206060606060606060B0BE9
:1001B0000B0B0B0B0B0B00002200250028002B0063
:1001C0002E003100340002010000050108010B017E
:1001D00000002100240027002A002D0030003300F9
:1001E00001010000040107010A010B30973023319F
:1001F000AF3111241FBECFEFD1E2DEBFCDBF00E093
:100200000CBF13E0A0E0B2E0E6EEF4E600E00BBFC6
:1002100002C007900D92AC31B107D9F728E0ACE1EC
:10022000B3E001C01D92A039B207E1F710E0C9EFB9
:10023000D0E000E006C021970109802FFE010E9456
:100240004032C53FD10780E00807A9F70E947A290C
:100250000C947132D5CECF92DF92EF92FF92CF9372
:10026000882351F16A017B01CFEFC80F20E030E015
:10027000A901CB01B6010E94672A18168CF0C701AC
:10028000B60190580E94702A9B01AC016C2F70E05F
:1002900090E080E0CF91FF90EF90DF90CF90B2C0E0
:1002A000C701B6010E946B2A8C2FCF91FF90EF906F
:1002B000DF90CF900C94DF2CCF91FF90EF90DF90E8
:1002C000CF9008950F931F938B019C0183E0369587
:1002D0002795179507958A95D1F7045E1C4F462FF1
:1002E000477021E030E0F90102C0EE0FFF1F4A9590
:1002F000E2F7AF01F80120812423CB0101962111FF
:1003000002C090E080E01F910F9108950F931F931A
:100310008B019C0183E036952795179507958A9563
:10032000D1F7677081E090E001C0880F6A95EAF725
:10033000F801E45EFC4F2081452B31F48095822347
:1003400080831F910F910895822BFACF2F923F92B5
:100350004F925F926F927F928F929F92AF92BF92D5
:10036000CF92DF92EF92FF920F931F93CF93DF9381
:10037000D62EC72E782E692E49015A01280161E038
:100380008D2D0E94192ECD2DDC2D8E010F5F1F4F5C
:10039000A8016D2D7C2D872D962DB8DF20E030E053
:1003A000A901C201B7010E944E2B181664F4C201C4
:1003B000B7010E94702A2B01C501B4010E94702A66
:1003C000A201CE0123D0C801DF91CF911F910F91DF
:1003D000FF90EF90DF90CF90BF90AF909F908F9065
:1003E0007F906F905F904F903F902F90089588235B
:1003F00041F08150682F70E090E080E050E040E0F4
:1004000085CF0895862FB9010C94DF2C9C01FC0147
:10041000EC51FF4FE491E150E231E0F4F0E0882745
:10042000EB5EFD4F8F4F0C94403227022E023102BB
:1004300048025D022A0272027E0282029902AE0224
:10044000C302DA02EF022A0204031B03300384B55D
:10045000806884BD60E0822F0C94552E84B5806244
:10046000F8CF809180008C7F8260809380008091A3
:100470008100807E8061682B6093810050938700AB
:100480004093860080918000806880938000E2CF56
:10049000809180008C7F82608093800080918100B9
:1004A000807E8061682B6093810050938700409329
:1004B0008600809180008062E8CF809180008C7FF0
:1004C00082608093800080918100807E8061682BB3
:1004D0006093810050938700409386008091800054
:1004E0008860D3CF8091B00080688093B000809105
:1004F000B100887F682B6093B100ACCF8091B000D1
:100500008062F3CF809190008C7F82608093900016
:1005100080919100807E8061682B60939100509360
:10052000970040939600809190008068809390009F
:1005300091CF809190008C7F826080939000809119
:100540009100807E8061682B6093910050939700AA
:1005500040939600809190008062E8CF8091900057
:100560008C7F82608093900080919100807E80617A
:10057000682B609391005093970040939600809170
:1005800090008860D3CF8091A0008C7F82608093A0
:10059000A0008091A100807E8061682B6093A10003
:1005A0005093A7004093A6008091A000806880939C
:1005B000A00050CF8091A0008C7F82608093A0002B
:1005C0008091A100807E8061682B6093A100509390
:1005D000A7004093A6008091A0008062E8CF8091A0
:1005E000A0008C7F82608093A0008091A100807E1B
:1005F0008061682B6093A1005093A7004093A600F0
:100600008091A0008860D3CF809120018C7F826090
:100610008093200180912101807E8061682B60930E
:100620002101509327014093260180912001806889
:10063000809320010FCF809120018C7F8260809376
:10064000200180912101807E8061682B60932101CF
:100650005093270140932601809120018062E8CFCA
:10066000809120018C7F8260809320018091210104
:10067000807E8061682B6093210150932701409315
:100680002601809120018860D3CFCF93DF93882308
:1006900049F0EB0181500E94BC2C99838883DF9143
:1006A000CF910895FB0111821082F9CF0F931F9310
:1006B0008B019C0183E036952795179507958A95C0
:1006C000D1F70B5D1C4F462F477021E030E0F90158
:1006D00002C0EE0FFF1F4A95E2F7AF01F80120813B
:1006E0002423CB010196211102C090E080E01F91EC
:1006F0000F9108950F931F938B019C0183E0369512
:100700002795179507958A95D1F7677081E090E056
:1007100001C0880F6A95EAF7F801EB5DFC4F208174
:10072000452B31F48095822380831F910F9108958A
:10073000822BFACFCF92DF92EF92FF92CF93DF938B
:100740006B017C0160E086E3C816D104E104F1048A
:1007500090F486E38C0D0E94192EE6012196AE01DD
:10076000C701B601C7DFCE01DF91CF91FF90EF90B7
:10077000DF90CF9008958C2DEECF882341F08150EB
:10078000682F70E090E080E050E040E0B3CF089543
:1007900090E080E008950F931F93009709F488C0BC
:1007A0006115710509F484C000915E0210915F0229
:1007B00020916002309161020E3F1F4F2F4F3F4F3B
:1007C00009F067C04FEF5FEFBA0140935E025093AC
:1007D0005F02609360027093610240915E025091EB
:1007E0005F026091600270916102DC011296ED91EE
:1007F000FC9180819181A281B38180939C0390932D
:100800009D03A0939E03B0939F0384819581A6814D
:10081000B7818093980390939903A0939A03B09320
:100820009B0380859185A285B385809394039093E3
:100830009503A0939603B093970384859585A68529
:10084000B7858093900390939103A0939203B09304
:10085000930310928C0310928D0310928E031092CA
:100860008F030E94470C8CE69CE090932F038093AB
:100870002E039093310380933003F8D6009731F420
:1008800021E030E03093A1032093A0031F910F914A
:10089000089500915E0210915F02209160023091F4
:1008A0006102DB010D931D932D933C93139795CF1C
:1008B0008FEF9FEFEBCF8F929F92AF92BF92CF922D
:1008C000DF92EF92FF921F93CF93DF934B015C0176
:1008D0001091A30382E090E09093A1038093A00382
:1008E00081149104A104B10441F48091A303811106
:1008F00004C08091A203C1E08111C0E0C12CD12CC1
:1009000076018091A303811106C08091A203811119
:1009100002C0CC23D9F083E090E09093A1038093B0
:10092000A003CC2379F1CCE9DFEF111102C00E94C2
:10093000D00FCE01DF91CF911F91FF90EF90DF900C
:10094000CF90BF90AF909F908F9008956AE070E035
:1009500080E090E00E94242C80E1C80E87E2D81E3F
:10096000E11CF11C8FEF88169806A806B80631F036
:10097000C1E08C149D04AE04BF0408F0C0E080E028
:10098000A9D6BFCFD0E0C0E0D0CFCF92DF92EF9218
:10099000FF920F931F93CF93DF938F3F910511F039
:1009A00008F050C02091A0033091A10323303105FD
:1009B00039F02091A0033091A1032130310531F4A9
:1009C00024E030E03093A1032093A0036A017B016F
:1009D000EC0182309105A0F011E0AE01C701B60133
:1009E00044D6AB01BC01CE011123F9F0DF91CF91C8
:1009F0001F910F91FF90EF90DF90CF900C94F91121
:100A00008C01000F111F025D1C4FD8018D919C912C
:100A1000892B11F30E9403120297F1F6D801ED9190
:100A2000FC91CE011995182FD8CF0E941B1290E08F
:100A300080E0DF91CF911F910F91FF90EF90DF90B9
:100A4000CF9008958FEF9FEFF4CF80E043C6CF9310
:100A5000DF9386E090E09093A1038093A00393D668
:100A6000EC01EEE2F3E084E0DF011D928A95E9F704
:100A70000E94680F1092A1031092A003CE01DF9193
:100A8000CF9108958091A203089580918B030895DA
:100A900060935E0270935F028093600290936102A4
:100AA00090E080E008954F925F926F927F928F92D4
:100AB0009F92AF92BF92CF92DF92EF92FF92CF932D
:100AC000DF93CDB7DEB7A2970FB6F894DEBF0FBEA7
:100AD000CDBF209162083091630840916408509125
:100AE0006508609118027091190280911A02909124
:100AF0001B020E94522B6B017C01209166083091F1
:100B00006708409168085091690860911C027091D3
:100B10001D0280911E0290911F020E94522B9B0188
:100B2000AC01C701B6010E94032A6B017C01209130
:100B300030023091310240913202509133020E94D2
:100B4000022A209128023091290240912A025091D4
:100B50002B020E94522B20915E0830915F08409139
:100B60006008509161080E94032A4B015C017BD40C
:100B7000882309F4B1C22091820830918308409102
:100B800084085091850860912C0270912D0280910B
:100B90002E0290912F0290580E94522B4B015C0123
:100BA00080926E0890926F08A0927008B0927108BF
:100BB00020915A0830915B0840915C0850915D0883
:100BC000609118027091190280911A0290911B0293
:100BD0000E94522B2B013C0120915E0830915F084E
:100BE000409160085091610860911C0270911D0253
:100BF00080911E0290911F020E94522B9B01AC011A
:100C0000C301B2010E94032A2B013C01209134024E
:100C1000309135024091360250913702C501B4013E
:100C20000E94522B9B01AC01C301B2010E94032A16
:100C30009B01AC01C701B6010E94022A6B017C0135
:100C400069E070E080E090E03DDB5C019093590842
:100C50008093580820916E0830916F084091700879
:100C6000509171086091500270915102809152022E
:100C7000909153020E94522B2B013C0120E030E066
:100C80004FE753E40E94672A18160CF444C220E090
:100C900030E0A901C301B2010E944E2B87FF03C0BF
:100CA000412C512C3201B301A201C501D4DA80904C
:100CB000400290904102A0904202B0904302A501F0
:100CC000940160914E0870914F0880915008909166
:100CD00051080E94672A882341F080924E08909222
:100CE0004F08A0925008B092510866E370E080E08F
:100CF00090E0DCDC90934D0880934C0843E050E09A
:100D0000BE016F5F7F4FC1DC20915C0230915D02BC
:100D1000A981BA810E9448320E949C2A20E030E0DA
:100D200040E057E30E94522B20915402309155022B
:100D300040915602509157020E94022A2091580277
:100D40003091590240915A0250915B020E94522BFD
:100D50006093720870937308809374089093750879
:100D60008091000290910102A0910202B0910302D1
:100D70008B839C83AD83BE8380905A0890905B08E0
:100D8000A0905C08B0905D0880915E0890915F082B
:100D9000A0916008B09161088F839887A987BA876E
:100DA0008091080290910902A0910A02B0910B0271
:100DB0008B879C87AD87BE87809104029091050246
:100DC000A0910602B09107028F87988BA98BBA8BEE
:100DD00080910C0290910D02A0910E02B0910F0231
:100DE0008B8B9C8BAD8BBE8B40906E0850906F08A8
:100DF000609070087090710820911002309111027B
:100E00004091120250911302C301B2010E94522B71
:100E10006F8B788F898F9A8F2091200230912102D9
:100E20004091220250912302C701B6010E94522B29
:100E30002F89388D498D5A8D0E94032A6B8F7C8FA4
:100E40008D8F9E8FA50194016B817C818D819E8108
:100E50000E94522B6F8F78A389A39AA32B853C8580
:100E60004D855E856F81788589859A850E94522B94
:100E70009B01AC016F8D78A189A19AA10E94032AE0
:100E80009B01AC016B8D7C8D8D8D9E8D0E94032A04
:100E900060935A0870935B0880935C0890935D0898
:100EA00020911402309115024091160250911702C0
:100EB000C301B2010E94522B2B013C01209124025C
:100EC000309125024091260250912702C701B601B8
:100ED0000E94522BA30192010E94032A6B017C0104
:100EE0002F85388949895A89C501B4010E94522B3E
:100EF0004B015C012B893C894D895E896F81788526
:100F000089859A850E94522B9B01AC01C501B401D1
:100F10000E94032A9B01AC01C701B6010E94032A6B
:100F200060935E0870935F088093600890936108F7
:100F30008090620890906308A0906408B090650863
:100F4000C0906608D0906708E0906808F090690843
:100F5000A50194016B817C818D819E810E94522B21
:100F60006B837C838D839E83A70196016B857C8533
:100F70008D859E850E94522B9B01AC016B817C81EB
:100F80008D819E810E94032A2F89388D498D5A8D2B
:100F90000E94032A60936208709363088093640838
:100FA00090936508A50194016F85788989899A894C
:100FB0000E94522B4B015C01A70196016B897C8931
:100FC0008D899E890E94522B9B01AC01C501B40101
:100FD0000E94032AA30192010E94032A60936608DB
:100FE000709367088093680890936908C0905E03C7
:100FF000D0905F03E0906003F09061039FEFC91A07
:10100000D90AE90AF90AC0925E03D0925F03E0921E
:101010006003F0926103C114D104E104F10499F476
:101020008091620390916303A0916403B091650382
:101030000196A11DB11D8093620390936303A09359
:101040006403B09365038090660390906703A0905B
:101050006803B090690360916203709163038091AB
:101060006403909165030E949C2AA50194010E944B
:10107000522B20E030E040E85FE40E94522B2B012D
:101080003C01C701B6010E949C2AA50194010E945F
:10109000522B9B01AC01C301B2010E94032A609351
:1010A0005A0370935B0380935C0390935D03A29655
:1010B0000FB6F894DEBF0FBECDBFDF91CF91FF908A
:1010C000EF90DF90CF90BF90AF909F908F907F90E8
:1010D0006F905F904F90089520E030E0A901C50126
:1010E000B4010E94672A20E030E040E85FEB87FD12
:1010F0004ACD20E030E0A901C501B4010E944E2B89
:1011000020E030E0A90118160CF03DCD20E030E0E1
:1011100040E85FE338CD412C512C8FE7682E83E403
:10112000782EC1CD8F929F92AF92BF92DF92EF92B5
:10113000FF920F931F93CF93DF9384E090E042D10F
:10114000E4E4F3E08BE2DF011D928A95E9F780E0A9
:1011500090E0A0E8BFEB86A397A3A0A7B1A78AE081
:1011600097EDA3E2BCE382A393A3A4A3B5A38EE06F
:1011700094E6A8E5BDE584839583A683B78380EADA
:1011800097E9A0E8B6E580879187A287B3878FE5C6
:101190009BE8A7E8B9E484879587A687B78788EC9A
:1011A0009DE2ACE8B5E9808B918BA28BB38BA8E371
:1011B000B3E0B383A283E2E3F3E01196FC93EE93F2
:1011C00088E892E0918380839383828395838483EC
:1011D00088E593E015969C938E93149788E493E0AA
:1011E00013969C938E9312978AE593E017969C939F
:1011F0008E931697EEE6F8E088E0DF011D928A955F
:10120000E9F7C6E4D8E088E2FE0111928A95E9F791
:10121000DD24D394DFA2812C912C540183948D86FC
:101220009E86AF86B88AE12CF12C8701A801970130
:1012300069E070E080E090E089D89B8B8A8BD98A46
:101240001882DEA200E012E08091400290914102FB
:10125000A0914202B091430288879987AA87BB87F1
:1012600089829A82AB82BC8266E370E080E090E083
:1012700061DA9F838E83DD82F80180AD91ADA2ADEE
:10128000B3AD8C8B9D8BAE8BBF8B809148029091C0
:101290004902A0914A02B0914B028C8F9D8FAE8F74
:1012A000BF8F84AD95ADA6ADB7AD888F998FAA8F4E
:1012B000BB8F80914C0290914D02A0914E02B09153
:1012C0004F0288A399A3AAA3BBA3DF91CF911F913B
:1012D0000F91FF90EF90DF90BF90AF909F908F9015
:1012E00008958091520881112DC081E080935208A9
:1012F0008091530890915408A0915508B0915608D8
:101300000197A105B105F1F4809157088823D1F028
:1013100069E070E080E090E00E94620190935908DB
:101320008093580840E050E0BA010E942B0169E028
:1013300070E080E090E00E946201909359088093F1
:10134000580855D88091460881111DC081E08093CE
:1013500046088091470890914808A0914908B091AB
:101360004A080197A105B10571F480914B088823C3
:1013700051F066E370E080E090E098D990934D08DA
:1013800080934C08FAC9089560E070E080E89FE718
:10139000089560E070E080E89FE7089560E070E005
:1013A00080E89FEF089560E070E080E89FEF089587
:1013B00060E070E080EC9FEF089560E070E080EC0A
:1013C0009FEF0895F5DF6093820870938308809300
:1013D000840890938508F1DF60937608709377080E
:1013E0008093780890937908CFDF60937E0870939C
:1013F0007F088093800890938108CBDF60937A0800
:1014000070937B0880937C0890937D08C7DF60937E
:101410008608709387088093880890938908C3DFB3
:1014200060938A0870938B0880938C0890938D0842
:1014300008950F931F938B019C010027112720789B
:101440003F770115110520483F4749F4AB01BC0126
:101450006F77772781E0452B462B472B09F480E0F7
:101460001F910F910895E5CF4F925F926F927F92F7
:101470008F929F92AF92BF92CF92DF92EF92FF92A4
:101480000F931F93F89440907B0350907C036090DF
:101490007D0370907E03C0906F03D0907003E09046
:1014A0007103F0907203452B09F0A4C09B01AC01BD
:1014B000241935094609570929013A010091770392
:1014C000109178032091790330917A0348015901F2
:1014D000840C951CA61CB71C80169106A206B306A8
:1014E000A0F400917303109174032091750330915F
:1014F00076030F5F1F4F2F4F3F4F009373031093DF
:10150000740320937503309376038092770390924F
:101510007803A0927903B0927A030091730310913B
:101520007403209175033091760380927F0390922B
:101530008003A0928103B0928203009383031093EF
:101540008403209385033093860360937B03709319
:101550007C0380937D0390937E03A0E1B7E2A30117
:1015600092010E9457326C0D7D1D8E1D9F1D609350
:101570006F037093700380937103909372030091D3
:101580005E0210915F0220916002309161020F3F74
:101590001F4F2F4F3F4FF1F000915E0210915F02FD
:1015A00020916002309161020E3F1F4F2F4F3F4F3D
:1015B00089F0C0905E02D0905F02E0906002F090EF
:1015C000610221E08C149D04AE04BF0408F420E005
:1015D00020938B0378941F910F91FF90EF90DF90F1
:1015E000CF90BF90AF909F908F907F906F905F90C3
:1015F0004F9008954B015C0184189508A608B70820
:10160000A3019201261B370B480B590B6415750576
:1016100086059705D0F082169306A406B50640F419
:1016200020E030E0A90181149104A104B10491F4F7
:10163000A0E1B7E20E945732A7019601261B370BA3
:10164000480B590BCA01B901C5CF82169306A406EF
:10165000B50670F7A0E1B7E2A50194010E945732E8
:101660006C0D7D1D8E1D9F1DB5CFFECECF93DF93DC
:1016700000D01F92CDB7DEB71C821B821A8219825E
:1016800010928703109288031092890310928A03A4
:10169000BE016F5F7F4FCE0103960E942F286981A4
:1016A0007A818B819C810E941F21009761F4BE0189
:1016B0006F5F7F4FCE0103960E943B2869817A813C
:1016C0008B819C812ED50F900F900F900F90DF9102
:1016D000CF910895FF920F931F93CF93DF93082F1D
:1016E00060E070E0CB010E94242CFF24F3940E9460
:1016F0000820EC01892B89F010E0CE3F8FEFD8074E
:1017000069F0002361F160E070E0CB010E94242CBD
:1017100081E090E0892B59F322C011E025D5EC013E
:10172000892B21F0CE3F8FEFD80759F711111EC03A
:1017300011E0229609F410E00E94B81FEC01892BF9
:1017400021F0CE3F8FEFD807E1F6111111C011E063
:10175000CE3F8FEFD80709F410E001110BC0CE0186
:10176000DF91CF911F910F91FF90089511E0E4CF89
:1017700011E0F3CF60E070E0CB010E94242C1F2524
:10178000812F90E0C7CFCF93DF9380918B03882385
:1017900021F060E070E0CB014CD635D6D0E0C0E05F
:1017A000892B71F06AE070E080E090E00E94242CC8
:1017B00081E090DF28D62196C03D27E0D20781F74F
:1017C00027D60E9473211092A3031092A2031092B5
:1017D0009C0310929D0310929E0310929F031092FF
:1017E00098031092990310929A0310929B031092FF
:1017F00094031092950310929603109297031092FF
:1018000090031092910310929203109293031092FE
:101810008C0310928D0310928E0310928F034EEF63
:101820005FEF6FEF7FEF40935E0250935F02609334
:1018300060027093610210928B03EFE7F3E028E0FF
:10184000DF011D922A95E9F710927B0310927C0329
:1018500010927D0310927E0310927703109278030A
:101860001092790310927A0310927303109274030A
:10187000109275031092760310926F03109270030A
:101880001092710310927203DF91CF91089510921C
:10189000AF031092B0031092B1031092B2031092F2
:1018A000AE038091B7039091B8039093AD038093FA
:1018B000AC031092AB031092AA031092A6031092ED
:1018C000A7031092A8031092A9031092B4031092D8
:1018D000B30390E080E00895CF92DF92EF92FF9201
:1018E0000F931F93CF938C01892B09F055C0209142
:1018F000B7033091B8038091AC039091AD03409150
:10190000B7035091B8035093AD034093AC0328172D
:10191000390781F01092AB031092AA031092A6032C
:101920001092A7031092A8031092A9031092B40377
:101930001092B3038091B7039091B803019761F5BA
:101940008091B3039091B403892B21F480916202BA
:10195000811112C08091B3039091B4030197E1F417
:101960008091A6039091A703A091A803B091A90329
:101970000197A105B10581F41092A6031092A70367
:101980001092A8031092A9031092620282E090E0E4
:101990009093B4038093B3038091B7039091B803FD
:1019A000019709F01CC18091CD039091CE0380175F
:1019B000910709F014C18091C9039091CA03A091C5
:1019C000CB03B091CC03009709F409C12091C8035F
:1019D00021110DC04091C9035091CA036091CB03FE
:1019E0007091CC03452B462B472B09F4F8C020916E
:1019F000B3033091B4032230310509F0F0C02091D7
:101A0000AA032111ECC0FC01C080D180E280F380E8
:101A10008091AE03882309F4D3C08091BA039091DA
:101A2000BB03892B09F4FDC02091BA033091BB039D
:101A300081E02230310509F080E02091BA03309135
:101A4000BB03C1E02130310549F02091BA03309148
:101A5000BB03C1E02230310509F0C0E0882309F45E
:101A600056C02091C4033091C5034091C6035091E4
:101A7000C703C701B6010E944E2B87FD14C02091F9
:101A8000C4033091C5034091C6035091C7036091D0
:101A9000AF037091B0038091B1039091B2030E94A3
:101AA000672A87FD22C02091C4033091C50340916D
:101AB000C6035091C703C701B6010E944E2B1816EA
:101AC00034F52091C4033091C5034091C603509171
:101AD000C7036091AF037091B0038091B1039091FF
:101AE000B2030E94672A811112C08091BC039091B9
:101AF000BD03A091BE03B091BF03892B8A2B8B2B12
:101B000019F481E08093AB0381E08093AA03CC2396
:101B100009F456C02091C4033091C5034091C60317
:101B20005091C703C701B6010E94672A87FF14C0FE
:101B30002091C4033091C5034091C6035091C7035F
:101B40006091AF037091B0038091B1039091B203A3
:101B50000E944E2B87FF22C02091C4033091C50301
:101B60004091C6035091C703C701B6010E94672A7E
:101B7000811126C02091C4033091C5034091C60352
:101B80005091C7036091AF037091B0038091B1038E
:101B90009091B2030E944E2B181694F48091BC03CE
:101BA0009091BD03A091BE03B091BF03892B8A2BF6
:101BB0008B2B19F481E08093AB0381E08093AA031F
:101BC00081E09091AA03911180E08093AE03C092CE
:101BD000AF03D092B003E092B103F092B203012BB5
:101BE00009F067C18091B3039091B403892BD9F4B4
:101BF0001092B9031092AA0380916202882379F0AF
:101C000082E090E09093B4038093B3031092620259
:101C10002091B7033091B80381E0232BE9F080E0F5
:101C20001BC081E00ACF109262028091B903882321
:101C300049F01092AB031092B4031092B3031092C8
:101C4000B903EDCF8091B7039091B803892BE1F0F0
:101C50008091AA031092AA032091B3033091B40398
:101C60002230310509F45EC088F42115310509F4EC
:101C700048C02130310509F4F3C01092AB03109233
:101C8000AA031092B90338C081E0E6CF23303105B2
:101C900009F4B1C02430310581F74091A603509179
:101CA000A7036091A8037091A9034115510561052F
:101CB000710561F041505109610971094093A60312
:101CC0005093A7036093A8037093A9034091A603C0
:101CD0005091A7036091A8037091A903452B462B4F
:101CE000472BD9F42091B5033091B603213031054B
:101CF00009F046C01092AB031092B4031092B303E4
:101D00000CC080916202882341F082E090E09093C1
:101D1000B4038093B303109262021092A4038091E3
:101D2000AB03CEC08823C9F38091BC039091BD035F
:101D3000A091BE03B091BF03181619061A061B0620
:101D40000CF07DC08091B7039091B803019709F022
:101D500076C08091BC039091BD03A091BE03B09169
:101D6000BF038093A6039093A703A093A803B09307
:101D7000A90383E090E09093B4038093B303CDCFA5
:101D80004091C0035091C1036091C2037091C3039D
:101D9000452B462B472BA9F01092AB038091C00333
:101DA0009091C103A091C203B091C3038093A60395
:101DB0009093A703A093A803B093A90381E090E0B8
:101DC000DACF882399F08091630290916402A09108
:101DD0006502B09166028093A6039093A703A09337
:101DE000A803B093A90384E090E0C5CF1092AB03A1
:101DF00082E090E0C0CF8091A6039091A703A091CC
:101E0000A803B091A9030097A105B10559F0019766
:101E1000A109B1098093A6039093A703A093A803F7
:101E2000B093A9038091A6039091A703A091A80362
:101E3000B091A903892B8A2B8B2B09F06ECF80914F
:101E4000630290916402A0916502B0916602892BB1
:101E50008A2B8B2B09F44ECF81E08093AB03B3CF59
:101E60004091A6035091A7036091A8037091A90324
:101E7000411551056105710561F041505109610934
:101E800071094093A6035093A7036093A80370932E
:101E9000A9034091A6035091A7036091A8037091F4
:101EA000A903452B462B472B09F037CF8111C7CF0C
:101EB0009FCF8091A403882309F431CF8091A5039B
:101EC000CF911F910F91FF90EF90DF90CF900895E9
:101ED0001092AF031092B0031092B1031092B203AC
:101EE0001092AE031092B4031092B3031092AD039C
:101EF0001092AC031092CE031092CD031092AB035C
:101F00001092AA031092A6031092A7031092A8039E
:101F10001092A9031092A5031092A4031092C90372
:101F20001092CA031092CB031092CC031092C803F4
:101F30001092C4031092C5031092C6031092C703F7
:101F400088EE93E0A0E0B0E0809363029093640297
:101F5000A0936502B09366021092C0031092C10371
:101F60001092C2031092C3031092BC031092BD03DF
:101F70001092BE031092BF031092BB031092BA03DB
:101F800081E0809362021092B9031092B80310921C
:101F9000B7031092B6031092B50390E080E0089565
:101FA0008091B7039091B803892B19F58091620253
:101FB000882351F08091B903811106C081E080939C
:101FC000A5038093A40308952091B9033091620280
:101FD00081E090E0332311F090E080E030E0822354
:101FE0009323892B21F01092A50381E0EACF109270
:101FF000A403089582E090E0FA01918380838FEF3B
:102000009FEF0895CF93DF93EA01009711F00E94AC
:1020100093221982188290E080E0DF91CF91089599
:10202000DB01009719F48FEF8C9308952EEF2C931A
:10203000FC013F96EF30F10508F034C08827EC5DD5
:10204000FF4E8F4F0C94403250104E104C104A10DF
:10205000481044104610421040103E103B103710FC
:1020600033103910521080E311968C93089589E251
:10207000FBCF82E2F9CF11961C92089583E2F4CF50
:1020800081E2F2CF81E1F0CF87E2EECF8AE2ECCFBE
:1020900080E1EACF84E2E8CF88E2E6CF86E2E4CFCF
:1020A00081E3E2CF80E2E0CF8091DB039091DC031B
:1020B00008959093DC038093DB0308958091DA0305
:1020C00008959091DA03892B8093DA030895982F6D
:1020D00090958091DA0389238093DA0308958091A3
:1020E000D90308958091D7039091D803089561157D
:1020F000710559F0FB0130E020E070E060E024174A
:10210000350719F06115710511F0CB010895A08113
:10211000B181A817B90709F4BF012F5F3F4F369669
:10212000EECF8091DD0381111CC060D266D2909306
:10213000D0038093CF030E94911A0E94A31A909318
:10214000D4038093D3030E94201F0E94271F9093E3
:10215000D2038093D10381E08093DD0390E080E09F
:10216000089584EF9FEF08958F929F92AF92BF9250
:10217000CF92DF92EF92FF920F931F93CF93DF9353
:1021800000D000D000D01F92CDB7DEB71A861986D6
:1021900018861F821E821D821C821B821A8219824F
:1021A0008091DD0307EF1FEF882309F49CC08E01A7
:1021B0000D5F1F4F9E012B5F3F4FAE01495F5F4F89
:1021C000BE01675F7F4F90E080E00E94A4208C01F9
:1021D000009721F00596029708F0DBC029853A8523
:1021E0002115310509F402C1ED80FE804B815C812F
:1021F000B701640F751F8F8198858617970708F4BC
:10220000F5C0E20EF31ED7019C91903C09F07FC00F
:102210004230510508F47BC011968C914091DB034C
:102220005091DC03452B09F49CC0913F08F071C02C
:102230002CE1290F2D3008F48BC02DE2290F20311D
:1022400008F489C0903C21F48150823008F483C0A6
:1022500088E3890F8B3008F481C090E1C92E90E1AA
:10226000D92EEAEFFFE06D817E81AE014F5F5F4FB7
:1022700089859A8519955C01C114D104A1F18980E1
:102280009A808114910479F18B819C81881599053C
:1022900008F487C010E000E04B815C8170E060E0F2
:1022A000C7010E946A3201151105E9F449815A817A
:1022B00069857A858D819E81680F791FC501F60138
:1022C0001995E980FA800D811E812F813885498515
:1022D0005A856FEF7FEF81E090E00E943F208C01F4
:1022E000892B09F056C0C8012A960FB6F894DEBFB4
:1022F0000FBECDBFDF91CF911F910F91FF90EF9057
:10230000DF90CF90BF90AF909F908F90089580E026
:1023100085CF30E020E0220F331FF901E153FC4F5D
:102320000190F081E02D309709F497CF892F90E04C
:102330001995009709F491CFDC011296ED91FC916B
:1023400013971496CD90DC90309709F08CCF1FC076
:1023500021E030E0E0CF22E030E0DDCF23E030E0EC
:10236000DACFD12CC12CE2E0F0E19F3F09F07BCF26
:10237000E091CF03F091D003309721F4C90104EF2D
:102380001FEF0CC08FEF90E019950097A9F604EFAE
:102390001FEF89859A85009709F4A5CF0E949322A3
:1023A000A2CF0E946E218C0189859A850E9493227A
:1023B00070E060E0C4010E94072198878F830E942B
:1023C0003C209E838D836F8178856115710559F05E
:1023D000C8010E941F249A87898706EF1FEF892B67
:1023E00009F058CF59CF08EF1FEF56CF08EF1FEF76
:1023F000D0CF2091DD03222319F020E00C94A81AFD
:1024000087EF9FEF08958091DB039091DC0308959F
:102410000E942C1F0E94861EF5D0EFECF3E088E0AE
:10242000DF011D928A95E9F71092DD0390E080E0CC
:1024300008950C94E41C21E040E050E0BA010C94B3
:10244000A81A86E090E0FA019183808390E080E012
:10245000089547E050E06BE872E049CEDF92EF92DA
:10246000FF920F931F93CF93DF938A01EC01C60F66
:10247000D71FE090E103F090E203D9800E9456213B
:10248000D816190678F082E090E0F80191838083F5
:102490008EEF9FEFDF91CF911F910F91FF90EF9003
:1024A000DF900895EF2841F482E090E0F8019183F5
:1024B000808384EF9FEFEECF89818093E00390E0EB
:1024C0000196F8019183808390E080E0E3CFCF9381
:1024D000DF93EA010E94951D882321F00E94632169
:1024E0000E94961D82E090E0998388838BEF9FEF96
:1024F000DF91CF910895CF93DF93EB0186E0FB014D
:1025000011928A95E9F78FEF8883D8DD8983E7DD1B
:102510008A83E8DD9D838C83DF91CF910895CF93EB
:10252000DF93EA010E94981D811109C082E090E0CA
:102530009983888385EF9FEFDF91CF91089590E095
:1025400080E0B7DD81E090E09983888390E080E0CF
:10255000F3CF0F931F93CF93DF93EA018C01060F04
:10256000171F0E94981D81110BC082E090E0998393
:10257000888385EF9FEFDF91CF911F910F91089591
:10258000F8018181823038F082E090E0998388837D
:102590008EEF9FEFF0CF81E090E08BDD88E090E060
:1025A0009983888390E080E0E6CFCF93DF93009714
:1025B000D1F4EB01FB01329686E0DF011D928A9592
:1025C000E9F78FEF888385E089831A820E9456217C
:1025D0008B830E9455219D838C8381E08E838F8322
:1025E000DF91CF910895DF91CF911ACD89E292E1E9
:1025F0009093DF038093DE0308958091DE03909132
:10260000DF0308951092DF031092DE030895809196
:10261000E1039091E2030895411105C06115710530
:102620008105910561F06093E1037093E20380936B
:10263000E3039093E4034093E50381E0089580E091
:102640000895FF920F931F93CF93DF938A01EC01BC
:10265000C60FD71FF9800E945621F816190668F098
:1026600082E090E0F801918380838EEF9FEFDF910D
:10267000CF911F910F91FF9008956C817D818E8184
:102680009F814B81C9DF811108C082E090E0F80191
:102690009183808384EF9FEFEACF89818093E00369
:1026A00090E00196F8019183808390E080E0DFCF95
:1026B000CF93DF93EA01FC01E60FF71F6481758178
:1026C000868197814381A8DF811109C082E090E073
:1026D0009983888384EF9FEFDF91CF91089581E004
:1026E00090E09983888390E080E0F6CFE1EEF3E01C
:1026F0004081518162817381480F511D611D711D9F
:1027000040835183628373830895CF93C091E00324
:102710004C2F50E06091E1037091E20301960E941A
:1027200061328C2FE3DF1092E003CF910895009780
:1027300099F48091E1039091E2032FEFFB01208354
:10274000892B59F02091E00330E02F5F3F4F241791
:10275000350719F4CB01D9CF63CC0895009799F4CC
:102760008091E1039091E2032FEFFB012083892BFD
:1027700059F02091E00330E02F5F3F4F24173507D9
:1027800019F4CB01C2CF4CCC089523E1AC01249FB6
:10279000C001259F900D1124E091EA03F091EB0315
:1027A000E80FF91F238134812250310981E0223062
:1027B000310508F080E008950F931F93CF93DF93C6
:1027C0000091EC031091ED03D0E0C0E080E00C1725
:1027D0001D0749F491E0811190E0892FDF91CF919D
:1027E0001F910F9108958111F5CFCE01CEDF219673
:1027F000EECFA091EA03B091EB03109729F120915D
:10280000EC033091ED0382179307F0F453E1589FE6
:102810009001599F300D1124A20FB31FED91FC912F
:102820001197309789F012968C91681768F48DE0B3
:10283000689FE00DF11D112480819181892B21F089
:1028400081E09281491708F080E008959C0143E1FE
:10285000429FC001439F900D1124E091EA03F09143
:10286000EB03E80FF91F8385823091F481E090E05B
:1028700065817681409167025091680264177507FF
:1028800011F490E080E0892B19F081E0232B09F00E
:1028900080E00895FC01A081B1818DE0689FA00DCA
:1028A000B11D112413964D915C9185859685489FA5
:1028B0009001499F300D589F300D1124C901019698
:1028C000611103C0478144FD04960895EF92FF9281
:1028D0000F931F93CF93DF93EA01FC01E60FF71FDD
:1028E00002811381E480F5804F2D6E2DC80181DFB8
:1028F00081110DC082E090E0998388838EEF9FEF75
:10290000DF91CF911F910F91FF90EF900895C80133
:102910003CDF882339F082E090E09983888388EF58
:102920009FEFEECF10936E0200936D02E0926F0264
:10293000F092700281E090E09983888390E080E0DB
:10294000DFCFCF92DF92EF92FF920F931F93CF933F
:10295000DF937A01EC01C60FD71FC0906D02D090B3
:102960006E0200916F0210917002412F602FC6011C
:1029700040DF811110C082E090E0F70191838083F5
:102980008AEF9FEFDF91CF911F910F91FF90EF9012
:10299000DF90CF900895C601F8DE882341F082E0F1
:1029A00090E0F7019183808388EF9FEFEBCF4C811C
:1029B0005D816E817F819A8189818F3F41F082E0C4
:1029C00090E0F701918380838EEF9FEFDBCFE3E10F
:1029D000EC9D9001ED9D300D1124E091EA03F09102
:1029E000EB03E20FF31F0190F081E02D2DE0029F39
:1029F000E00DF11D11240190F081E02D27E0129FE0
:102A0000E00DF11D1124808391838B8182834383A8
:102A10005483658376831F5F1093700281E090E09A
:102A2000F7019183808390E080E0ACCFEF92FF923A
:102A30000F931F93CF93DF937A018C01060F171F1B
:102A4000C091EA03D091EB03209781F021E030E0C0
:102A5000F801828193814091EC035091ED0384173A
:102A6000950710F030E020E0232B71F482E090E035
:102A7000F701918380838EEF9FEFDF91CF911F91BC
:102A80000F91FF90EF90089543E1489F9001499F77
:102A9000300D1124C20FD31F78DE882341F082E06D
:102AA00090E0F7019183808388EF9FEFE6CFF801F4
:102AB0002481358120383105C8F687818111D6CF30
:102AC0004181842F90E08F7E009741F082E090E07A
:102AD000F7019183808386EF9FEFCFCF4F833E83B3
:102AE0002D83268128871986223010F421E028873B
:102AF00021E030E0F70131832083BFCF88E090E010
:102B0000FA019183808390E080E00895FB018FEFCC
:102B1000808381E181838FEF9FEF9383828380E8BD
:102B200090E095838483168217820895FB018FEFCE
:102B3000808391E0918382839383848384E385837C
:102B400081E090E0978386830895DF92EF92FF9271
:102B50000F931F93CF93DF93EA01FC01E60FF71F5A
:102B60008181813071F082E090E0998388838FEFDA
:102B70009FEFDF91CF911F910F91FF90EF90DF902A
:102B8000089582819381D4802581E680F780009129
:102B9000EA031091EB030115110539F482E090E08E
:102BA000998388838CEF9FEFE4CF4091EC035091A1
:102BB000ED038417950738F082E090E099838883CD
:102BC0008EEF9FEFD6CF892B39F082E090E099838A
:102BD000888386EF9FEFCDCF8D2D8D7FB1F721308C
:102BE000A1F781E0D11006C091E0E916F10431F0BF
:102BF00080E004C0E2E0EE16F104D0F3882329F36C
:102C000090E080E0C2DD882339F082E090E0998393
:102C1000888388EF9FEFADCFF801D38681E084876A
:102C2000F686E586108A178681E090E0998388838E
:102C300090E080E09ECF4CE050E065EB72E057CA38
:102C40008F929F92BF92CF92DF92EF92FF920F935B
:102C50001F93CF93DF93EA01FC01E60FF71F8281F8
:102C600093810481B580E091EA03F091EB03309702
:102C700091F482E090E0998388838CEF9FEFDF915D
:102C8000CF911F910F91FF90EF90DF90CF90BF9069
:102C90009F908F9008952091EC033091ED0382175F
:102CA000930738F082E090E0998388838EEF9FEF5E
:102CB000E6CF23E1289F6001299FD00C1124EC0D61
:102CC000FD1DE080F180E114F10499F28281081782
:102CD00048F78DE0089F80011124E00EF11EF701F6
:102CE00080819181892B29F6BB20E1F2F7E0BF9E1C
:102CF00040011124C4010E945A22F701918380836C
:102D0000E091EA03F091EB03EC0DFD1D0190F081E1
:102D1000E02DE00FF11F80819181009739F482E06E
:102D200090E0998388838DEF9FEFA9CFA40170E095
:102D300060E00E946A328091EA039091EB03C80E32
:102D4000D91EF60180819181080F191FF801B28206
:102D500081E090E09983888390E080E090CFAF920B
:102D6000BF92CF92DF92FF920F931F93CF93DF9387
:102D7000EA01FC01E60FF71F82819381F480009144
:102D8000EA031091EB030115110581F482E090E054
:102D9000998388838CEF9FEFDF91CF911F910F91E3
:102DA000FF90DF90CF90BF90AF9008952091EC03FB
:102DB0003091ED038217930738F082E090E0998319
:102DC00088838EEF9FEFE8CF2FEF2F0D2C3FA8F7D2
:102DD00023E1289F6001299FD00C11240C0D1D1D9B
:102DE000F80180819181892B89F6FDE0FF9E5001D9
:102DF0001124C5010E945A22F80191838083E09139
:102E0000EA03F091EB03EC0DFD1D808191810097A9
:102E100039F482E090E0998388838DEF9FEFBCCFF7
:102E2000A50170E060E00E946A32E091EA03F0914F
:102E3000EB03EC0DFD1DF28281E090E09983888325
:102E400090E080E0A9CFCF92DF92EF92FF920F93B4
:102E50001F93CF93DF93860F971FFC01028113818D
:102E60008091EA039091EB03892B81F082E090E05E
:102E7000FA01918380838CEF9FEFDF91CF911F91B7
:102E80000F91FF90EF90DF90CF900895C801B0E0D0
:102E9000A0E00197A109B1098F3F9F4FA105B1059E
:102EA00040F082E090E0FA01918380838EEF9FEF03
:102EB000E4CF7A0183E1809F6001819FD00C1124CF
:102EC000C6010E945A22EC01009741F482E090E092
:102ED000F701918380838DEF9FEFCFCFA60170E044
:102EE00060E00E946A32D093EB03C093EA03109330
:102EF000ED030093EC0390E080E02FEF3FEF41E023
:102F000061E070E08017910741F481E090E0F70103
:102F10009183808390E080E0B0CF3A8B298B1B8631
:102F20004C877E876D87188A1F8601966396EACF45
:102F3000EF92FF921F93CF93DF93EC0110E0F12CFF
:102F4000E12C6A811617B0F083E0689FB00111246C
:102F5000AE014F5E5F4FC7010E94BF22009721F074
:102F60002FEF3FEF3A8B298BDF91CF911F91FF908D
:102F7000EF900895612FCE018DDC61E070E00E943A
:102F80000721E816F90608F47C011F5FDACFF894F0
:102F90002091E8033091E90381E02115310509F022
:102FA00080E0232B09F0789408952F923F924F925E
:102FB0005F926F927F928F929F92AF92BF92CF92C9
:102FC000DF92EF92FF920F931F93CF93DF933C0119
:102FD000660E771EF301828193814C01B12CA12CE6
:102FE000C091EA03D091EB03209769F021E030E033
:102FF0006091EC037091ED038617970710F030E0B5
:1030000020E0232BD1F482E090E0FA0191838083C9
:103010008EEF9FEFDF91CF911F910F91FF90EF9077
:10302000DF90CF90BF90AF909F908F907F906F90E8
:103030005F904F903F902F900895809271029092F0
:103040007202A0927302B092740263E1689F9001D1
:10305000699F300D1124C20FD31FF301818183308A
:1030600040F082E090E0FA019183808386EF9FEF49
:10307000D1CF2A012B813C81232BF1F42881398186
:103080009F8191FF2EC0232B09F46FC02091EF0385
:103090009A81422F490F5527551FBA0141E050E050
:1030A0006138710514F050E040E0452B09F45DC033
:1030B0002A87920F9093EF038150823008F481C0E9
:1030C00066DF882309F4D8C0F3018181813009F4D7
:1030D0008DC008F47BC0823009F4C6C090E080E067
:1030E000ADC0232B09F441C02091EE039A81E22F59
:1030F000E90FFF27FF1F41E050E0ED3FF10514F01D
:1031000050E040E0452B89F12A87920F9093EE031F
:10311000D3CFA081B181A20FB31F11966C91060F7E
:10312000111D0196295F3F4F8417950794F38D85F4
:103130009E85089F1001099F300C189F300C1124A8
:10314000C114D104D1F48F8184FF17C00E9455218E
:10315000F5E02F0E311C21E08215930508F420E0E4
:10316000A701435F5F4F21110EC082E090E0F201A2
:103170009183808387EF9FEF4DCF0E9455212FEFE2
:10318000221A320AE8CF88819981E80EF91EF701E8
:1031900014830383FFEFCF1ADF0A7A018A818C152B
:1031A0001D0409F00CF48CCFE881F981EE0DFF1DB0
:1031B000428150E030E020E010E000E090E080E06C
:1031C000B3CFF12CE12CD12CC12CE8CF81E090E0E1
:1031D0009C838B83F1DA882309F480CF81E090E02F
:1031E0000E94591080E40E94671078CF89899A89DB
:1031F000019661F083E090E09C838B8382E090E015
:103200000E94591080E40E94611068CF8D819E81D8
:10321000209167023091680282179307D1F4609180
:103220006B0270916C02AE014F5E5F4F809169023C
:1032300090916A020E94DE230097E1F2789422E0E6
:1032400030E0F20131832083892B99F08DEF9FEFDD
:10325000E1CE89288A288B2869F6892B59F6CE0178
:1032600067DE188A1F86E8CF82E090E09C838B831C
:1032700035CF90E080E0CECE82E090E0F201918305
:10328000808385EF9FEFC6CE8F929F92AF92BF92C1
:10329000CF92DF92EF92FF920F931F93CF93DF9322
:1032A000EA018C01060F171FF8018181833098F025
:1032B00082E090E09983888386EF9FEFDF91CF9142
:1032C0001F910F91FF90EF90DF90CF90BF90AF9044
:1032D0009F908F9008958091EA039091EB03892B42
:1032E00061F081E090E02091EC033091ED03232B1D
:1032F00011F490E080E0892B39F482E090E099832A
:1033000088838EEF9FEFDACF42DE882309F4DFC097
:10331000F8018181813009F495C0E8F0823099F498
:103320002091EC033091ED03E091EA03F091EB037F
:1033300090E080E041E050E02817390709F0BDC077
:103340003BDA811117C0789481E090E099838883FB
:1033500090E080E0B3CF2091EC033091ED03E09159
:10336000EA03F091EB0390E080E041E050E02817A1
:10337000390741F481E090E00E94591080E40E94F6
:103380006710E1CF63817481672B11F0548343830D
:1033900001967396ECCFE091EA03F091EB03E00F16
:1033A000F11F2381348122303105D9F421893289FA
:1033B0002F3F3F4FB1F425813681409167025091F4
:1033C00068022417350761F5AF014F5E5F4F6091CA
:1033D0006B0270916C028091690290916A020E9466
:1033E000DE23EFEFCE1ADE0AEE0AFE0A0D5E1F4F55
:1033F0004091EC035091ED0370E060E0C416D506F7
:10340000E606F7063CF5009731F27894892B09F42B
:103410009BCF82E090E0998388838DEF9FEF4ECF22
:10342000C114D104E104F104E1F6232BD1F6CF015C
:103430007FDDE091EA03F091EB03E00FF11F108ACA
:103440001786CFCF10E000E090E080E0C12CD12CB7
:103450007601CECF0097C9F610E000E0812C912CC8
:10346000540183E0E82EF12C1AC0E091EA03F091B8
:10347000EB03E00FF11F83819481029749F4F482FA
:10348000E38282E090E00E94591080E40E94611083
:10349000FFEF8F1A9F0AAF0ABF0A0D5E1F4F809180
:1034A000EC039091ED03B0E0A0E088169906AA061F
:1034B000BB06DCF290E080E0A8CF638174816230CB
:1034C000710511F4548343830196739635CF82E0DE
:1034D00090E09983888385EF9FEFF0CE0097B9F451
:1034E0008FEFFB018083209171023091720243E1E2
:1034F000429FC001439F900D1124E091EA03F09197
:10350000EB03E80FF91F8285FB01818308950C947A
:10351000101088E090E0FA019183808390E080E0D1
:1035200008951092E9031092E803EAEEF3E086E0D2
:10353000DF011D928A95E9F78BE196E19093E7030D
:103540008093E60308958091E6039091E703089540
:103550002F923F924F925F926F927F928F929F92A3
:10356000AF92BF92CF92DF92EF92FF920F931F9391
:10357000CF93DF93CDB7DEB72F970FB6F894DEBFAA
:103580000FBECDBFF894E091E803F091E9033196C6
:10359000F093E903E093E80378944090EA035090B5
:1035A000EB034114510409F40CC2E091EC03F091D7
:1035B000ED03EF2B09F405C22D8749875A876B87E6
:1035C0007C8798878F831201B12CA12C10E000E03A
:1035D0008091EC039091ED03A816B90618F401153B
:1035E000110529F1F8948091E8039091E90301977E
:1035F0009093E9038093E8037894C8012F960FB65F
:10360000F894DEBF0FBECDBFDF91CF911F910F9118
:10361000FF90EF90DF90CF90BF90AF909F908F90F2
:103620007F906F905F904F903F902F900895710121
:10363000E418F508D10117968C91179781FD54C0B5
:1036400013968D919C911497039709F04DC0159690
:103650008D919C91EF81F8858E179F0709F044C0EA
:10366000B50190E080E07FD48A832091EA03309115
:10367000EB033D832C833D85332309F44CC04C81FF
:103680005D81452B09F49AC18091EC039091ED0383
:10369000A816B90608F092C1C501D8D88823E9F068
:1036A0006C817D816E0D7F1D7D836C83DB011F9698
:1036B0008D919C91892B89F0D12CC12CF12CE12C7E
:1036C000AC81BD8112968C9112978E151F0409F062
:1036D00094F450961C921E921F972A81222321F067
:1036E000B50190E080E041D43FEFA31AB30A43E173
:1036F000240E311C6DCFAC81BD81ED91FC91EC0DA0
:10370000FD1D858196810FD7BFEFEB1AFB0AEDE017
:10371000CE0ED11CD5CFEC81FD81309709F44EC17E
:103720008091EC039091ED03A816B90608F046C10C
:10373000EE0DFF1DFF87EE87C50188D88B83882398
:1037400039F1AE85BF851F968D919C91509701965A
:1037500021E01D964D915C918417950709F020E0BA
:103760002E831982712C10E000E0AE85BF85129681
:103770008C91781608F45DC0EE85FF858785908969
:103780000196658576850E940A32908B8787A5CF42
:10379000B1E0BE83E6CF992493946BC08BD6F6013B
:1037A0009683858382C0D601ED90FC90B7E06B9E36
:1037B000E00CF11C1124F7016381748180818F3F3B
:1037C00061F121E030E002C0220F331F8A95E2F759
:1037D000C901092E000CAA0BBB0BFB0140815181D2
:1037E0006281738184239523A623B72321E0892B4B
:1037F0008A2B8B2B09F420E0D4012C93D70111964E
:103800008C91F60123853485820F932F911D880EAC
:10381000991E1486138663949BC0418150E0C401B5
:103820000E946132EBCF998206EF1FEFC5C019826B
:10383000C3C0F981F111A0CFEDE07E9E700111248B
:10384000AE85BF85CD90DC90CE0CDF1C15D49D835A
:103850008C83BB81BB2309F49ECF81E0EE85FF857D
:1038600027853089232B09F080E0982E882309F4DE
:1038700058C0672D8E859F850DD8D60118969C93CC
:103880008E93179761E070E0C2D4EE85FF852189A1
:1038900032892F3F320709F481CFBC01C901CFD74C
:1038A000D60116969C938E931597D60115968D91F9
:1038B0009C911697009709F4B6CFEC81FD818E0F8D
:1038C0009F1F1A969C938E931997AE85BF85ED9195
:1038D000FC911197EE0EFF1EF701218532851486AB
:1038E00013861A968C91870DD9018D93711016C08D
:1038F000EE85FF85878184FF11C049855A856B85D8
:103900007C85F9014183528363837483F701838546
:1039100094850496A80FB91F14861386F701B28701
:10392000A187D60115968D919C911697892B09F444
:1039300043C0EE85FF852581368180916702909195
:1039400068022817390779F019968D909C90612CA0
:10395000D60112968C911297681608F424CF1A9605
:103960009C928E921997BE81BB2309F460CF61E0CF
:1039700070E0F601878190854AD4D6011796ED90C4
:10398000FC90189715964D915C91E1E0F0E0BA81BA
:10399000BB2311F0F0E0E0E00C811D819C01B5013A
:1039A000882799278E1B9F0B6AD38C01892B21F0C6
:1039B000F60185819681B7D57394D7CE0FEF1FEFAF
:1039C0008CCE10E000E00ECE2F923F924F925F928D
:1039D0006F927F928F929F92AF92BF92CF92DF921F
:1039E000EF92FF920F931F93CF93DF938091EA039F
:1039F0009091EB0310E000E0892BA9F0C8DA0AEF00
:103A00001FEF882381F02090EC033090ED03C091EC
:103A1000EA03D091EB03D12CC12C10E000E02C1470
:103A20003D04A9F47894C801DF91CF911F910F91C3
:103A3000FF90EF90DF90CF90BF90AF909F908F90CE
:103A40007F906F905F904F903F902F900895C601A8
:103A50000E942614882309F18B819C810397E9F445
:103A60008F859889892BC9F0B60190E080E07BD2E0
:103A700021E030E0882311F030E020E04424552498
:103A8000421A530AB12CA12C912C812C8A818815C1
:103A9000190409F038F4188A1F864FEFC41AD40AA3
:103AA0006396BDCFE881F981EA0DFB1D8581968182
:103AB000892BA1F161E070E087819085A8D33C015A
:103AC000DBD28C01E881F981EA0DFB1D81859285AD
:103AD00025813681200F311FAC01421B530B9A0107
:103AE00047815085421B530B70E060E00E946A32B0
:103AF000E881F981EA0DFB1DE780F084458156815C
:103B00009301B601C201BBD28C01892B39F0E88147
:103B1000F981EA0DFB1D8581968105D55FEF851A38
:103B2000950A8DE0A80EB11CB1CF31CA78940895E2
:103B30002F923F924F925F926F927F929F92AF929D
:103B4000BF92CF92DF92EF92FF920F931F93CF938A
:103B5000DF9300D000D0CDB7DEB70091EA0310911B
:103B6000EB03992493940115110509F43EC0A0902C
:103B7000EC03B090ED030BDA982E8823B1F110928C
:103B8000EB031092EA031092ED031092EC031092F3
:103B9000EE031092EF038FEF9FEFDC018093710231
:103BA00090937202A0937302B093740278947FD3BF
:103BB0001E830D83C12CD12C7601C501B0E0A0E09D
:103BC00089839A83AB83BC8322242A94322C8981F3
:103BD0009A81AB81BC81C816D906EA06FB06F4F0CF
:103BE000C801A1D480E40E946710892D26960FB6E3
:103BF000F894DEBF0FBECDBFDF91CF911F910F9123
:103C0000FF90EF90DF90CF90BF90AF909F907F900C
:103C10006F905F904F903F902F900895AD81BE813F
:103C200015968D919C9116972091670230916802AC
:103C300082179307D1F451968D919C91EED5ED8129
:103C4000FE8180819181B12CA12C412C512C32011B
:103C5000892B89F5BFEFCB1ADB0AEB0AFB0AED8152
:103C6000FE817396FE83ED83B2CFC114D104E104CB
:103C7000F10429F7892B19F7ED81FE818189928959
:103C80008F3F980709F029D5AD81BE8152963C92AD
:103C90002E925197D4CF8A0D9B1DDC018D919C9162
:103CA000009709F040D4BFEF4B1A5B0A6B0A7B0AFE
:103CB000EDE0AE0EB11CAD81BE818D919C9111974E
:103CC00012964C9150E070E060E04416550666068E
:103CD00077060CF328D4BECFCF93DF93EA0128DF19
:103CE000811109C082E090E09983888385EF9FEF7E
:103CF000DF91CF91089581E090E00E94591081E01A
:103D000090E09983888390E080E0F2CF11DF1092F9
:103D1000E7031092E603089542E050E06DEF72E091
:103D20000C947710FF920F931F93CF93DF938A0128
:103D3000EC01C60FD71FF980B9D20897F8161906FB
:103D400071F068F082E090E0F801918380838EEF5B
:103D50009FEFDF91CF911F910F91FF9008956C819C
:103D60007D818E819F814B810E940C13811108C03F
:103D700082E090E0F8019183808384EF9FEFE9CFA8
:103D8000F9800E9407134F2D50E0BE01685F7F4FFE
:103D90000E94613289810E94761381E090E0F801EF
:103DA0009183808390E080E0D4CFDF92EF92FF9206
:103DB0000F931F93CF93DF938A01EC01C60FD71F98
:103DC0000E9407137C01D98071D2DD2059F002973F
:103DD00021E030E0D816190619F010F030E020E0AC
:103DE000232B79F482E090E0F801918380838EEFB9
:103DF0009FEFDF91CF911F910F91FF90EF90DF9098
:103E00000895EF2841F482E090E0F80191838083E7
:103E100084EF9FEFEECFF9800E9407134F2D50E003
:103E2000BE016E5F7F4F0E94613289810E947613CE
:103E300081E090E0F8019183808390E080E0D9CF29
:103E40008CE89EE19093F1038093F00308958091B4
:103E5000F0039091F10308950895FC0111821082FE
:103E6000938382830895DB011D921C92DC011296DC
:103E7000ED91FC9113977183608313967C936E93FD
:103E800012970895FC0180819181DB018D939C93B1
:103E9000A081B181109741F08D919C919183808395
:103EA000892B11F4F383E2830895FC0180819181D1
:103EB000DB018D939C93892B11F47383628371834F
:103EC00060830895FC011182108293838283089598
:103ED000CF93DF931F921F92CDB7DEB71A8219825C
:103EE000F894BE016F5F7F4F87EF93E0CBDF89814E
:103EF0009A81009709F017D389819A81892B89F7D4
:103F0000BE016F5F7F4F8BEF93E0BCDF89819A81A9
:103F1000009709F008D389819A81892B89F77894D1
:103F20000F900F90DF91CF910895CF93DF931F9261
:103F30001F92CDB7DEB71A821982F894BE016F5F67
:103F40007F4F83EF93E09EDF89819A81009709F08C
:103F5000EAD289819A81892B89F778940F900F9002
:103F6000DF91CF91089581E0089590E080E0089579
:103F7000EF92FF920F931F93CF93DF931F921F92A5
:103F8000CDB7DEB71A8219828091F20307EF1FEFD7
:103F90008823A1F1F894BE016F5F7F4F8BEF93E010
:103FA00071DF789489819A81EE24E394F12C892B36
:103FB00051F4F894BE016F5F7F4F87EF93E062DFAB
:103FC0007894F12CE12C89819A810EEF1FEF0097F4
:103FD000A9F0FC014281538164E070E074D68C0149
:103FE000892B61F0F89469817A81C701880F991F44
:103FF000880F991F89509C4F58DF7894C8010F9003
:104000000F90DF91CF911F910F91FF90EF90089546
:104010000F931F93CF93DF9300D01F92CDB7DEB7DE
:104020001C821B821A8219828091F20307EF1FEF14
:104030008823C1F0AE014D5F5F4F64E070E0CE01B8
:104040000196B4D68C01892B69F4E981FA818B81C0
:104050009C8193838283F89469817A8183EF93E0D2
:1040600002DF7894C8010F900F900F900F90DF91AE
:10407000CF911F910F910895B9D7049608958F920B
:104080009F92AF92BF92CF92DF92EF92FF920F93E7
:104090001F93CF93DF931F921F92CDB7DEB71A8283
:1040A0001982BC016F5F7F4F6330710598F0AA24BD
:1040B000AA94BA2CC5010F900F90DF91CF911F9158
:1040C0000F91FF90EF90DF90CF90BF90AF909F90B7
:1040D0008F9008954115510551F3480159018A0106
:1040E0006C01CADF8815990511F7E114F104F9F2A2
:1040F0008E0D9F1DA816B906D0F28091F203882379
:10410000F1F0F894B501645071099701AE014F5F69
:104110005F4FC8010496DFD65C01892B71F4898159
:104120009A81F80193838283C601880F991F880FB3
:10413000991FB80189509C4F96DE7894BBCF87EFCA
:10414000A82EBB24BA94B6CFAF92BF92CF92DF9283
:10415000EF92FF920F931F93CF93DF931F921F92C3
:10416000CDB7DEB71A821982892B09F047C06115D5
:10417000710509F443C04115510509F43FC02115EB
:10418000310509F43BC001151105C1F18091F2031D
:104190008823B9F179016A015B01F894BE016F5F70
:1041A0007F4F83EF93E06EDE789489819A81009748
:1041B00059F1DC0112966D917C91A8010496A4D668
:1041C0008C01E981FA81D501ED93FC938281938181
:1041D0000496F601918380834FDFD7018D939C93E2
:1041E000C8010F900F90DF91CF911F910F91FF9019
:1041F000EF90DF90CF90BF90AF9008950FEF1FEF3B
:10420000EFCF07EF1FEFECCF0EEF1FEFE9CFCF930C
:10421000DF93EC01672B71F4F2D68C179D0760F0E9
:10422000E5D62496C80FD91FE4D68C0F9D1FDF91C9
:10423000CF910895E1D6F1CF90E080E0F8CF0F93D1
:104240001F93CF93DF932091F20321112BC08B0199
:10425000EC0187EF93E001DE8BEF93E0FEDD83EF6F
:1042600093E0FBDD97D00097C1F4C9D670E060E021
:10427000CEDF45E752E062E070E081D1009769F45B
:104280008091750290917602CCD6B801CE0101D50D
:10429000009719F421E02093F203DF91CF911F9151
:1042A0000F91089584EF9FEFF8CFA6C6A8C6CF93CD
:1042B000DF93A8D6EC01892B11F40ADE36DECE019D
:1042C000DF91CF910895CF93DF939CD6EC01892B9A
:1042D00009F4FEDDCE01DF91CF9108958091750242
:1042E000909176020895CF93DF938091F203D0E00E
:1042F000C0E08823D1F09AD6EC01892BB1F4E8DD37
:1043000014DE8091750290917602E7D1E8D2EC013B
:10431000892B59F487EF93E0D5DD8BEF93E0D2DD65
:1043200083EF93E0CFDD1092F203CE01DF91CF91C6
:104330000895EF92FF920F931F93CF93DF93EC01B9
:104340007A018B010F5F1F4F0E9DA0010F9D500D35
:104350001E9D500D112470E060E00E946A3290E0D2
:1043600080E0F0E0E0E02FEFE816F90639F4DF91A5
:10437000CF911F910F91FF90EF9008951A821982AB
:104380002883309711F0D283C1830196FE01C00FBC
:10439000D11FEACFCF92DF92EF92FF920F931F933C
:1043A000CF93DF930CE115E00C7F43E050E067E72B
:1043B00072E08DE792E01AD487E7E82E82E0F82ECB
:1043C0009DE7C92E92E0D92ECBE8D5E0D7014D91DB
:1043D0005D917D01F601619171916F0119830883EF
:1043E0005D834C835B834A837F836E839B012F5F56
:1043F0003F4F249FC001259F900D349F900D1124A5
:10440000998788870115110511F0C80192DF888509
:104410009985080F191F2A96FDE7EF16F2E0FF06AF
:10442000A9F6E1E0F4E088E191E0DF019C011D9252
:1044300021503040E1F7109200041092FF031092D7
:10444000AA051092A9051092AE051092AD05109222
:10445000AC051092AB051092B0051092AF0510920A
:10446000B2051092B1051092B4051092B3051092E6
:10447000B8051092B7051092B6051092B5051092C6
:10448000BA051092B9051092BC051092BB051092A6
:1044900088051092870510928A051092890590E090
:1044A00080E0DF91CF911F910F91FF90EF90DF900F
:1044B000CF9008950097F1F0F894ADE7B2E0EBE803
:1044C000F5E030E020E04D915D9148175907A8F0E4
:1044D000428153814115510581F08AE0829FF001AC
:1044E000839FF00D1124E557FA4F80819181009749
:1044F00059F4789490E080E008952F5F3F4F3A960A
:104500002330310501F7F5CFDC0111966D917C91D7
:10451000718360834150510953834283FC0121938D
:10452000CF0178940895009749F1DC018E91853090
:1045300041F4E0918905F0918A053097F9F0CD01B9
:1045400019948530D8F4282F30E0F8948FEF8C93AD
:104550008AE0829FF001839FF00D1124E557FA4F06
:104560008081918112969C938E931197B183A08341
:104570008281938101969383828378940895CF9268
:10458000DF92EF92FF920F931F93CF93DF939C01E3
:1045900084E094E08C7F4115510509F49BC02115FE
:1045A000310509F497C06115710509F493C07A01CA
:1045B000AB01B9016D5F7F4F6C7F9B012F5F3F4F58
:1045C000249F8001259F100D349F100D1124F89415
:1045D0002091A9053091AA05232B59F42091B1050A
:1045E0003091B2052115310569F12017310708F026
:1045F00058C02091B3053091B405232B91F420913C
:10460000B1053091B205820F931F2091BB05309107
:10461000BC052115310509F441C02017310708F008
:1046200056C07894CFEFDFEF86EF9FEFF701D1838D
:10463000C083DF91CF911F910F91FF90EF90DF909A
:10464000CF900895C3E0D0E0C090FF03D090000465
:1046500025E131E02C193D092017310710F32AE03C
:104660002C9FF0012D9FF00D1124E557FA4F9183F7
:104670008083558344835383428377836683118782
:104680000087009709F055DE0C0D1D1D10930004E6
:104690000093FF03789490E080E0C8CFC4E0D0E0BE
:1046A000D3CFC3E0D0E02AE02C9FF0012D9FF00D86
:1046B0001124E557FA4F91838083558344835383B4
:1046C000428377836683009729F333DEE3CFC4E028
:1046D000D0E0E9CF8FEF9FEFACCF9C01039702971B
:1046E00008F069C0F89484E09AE0482F50E024175D
:1046F00035070CF44DC091E08AE0829FF001839F62
:10470000F00D1124E557FA4F1182108215821482A0
:1047100013821282178216829923B1F18091A90522
:104720009091AA05892BA9F42091B1053091B20589
:104730002115310571F08091FF0390910004821BD7
:10474000930B909300048093FF031092B205109294
:10475000B1058091B3059091B405892BA9F42091FE
:10476000BB053091BC052115310571F08091FF0327
:1047700090910004821B930B909300048093FF039D
:104780001092BC051092BB05789490E080E00895EB
:10479000949FF001959FF00D1124E557FA4F408149
:1047A0005181452B31F440855185452B11F48150C1
:1047B0009CCF90E0A1CF8FEF9FEF08954115510559
:1047C00049F1009739F16115710521F1F8942091B3
:1047D000870530918805232BB9F420918905309104
:1047E0008A05232B89F4909388058093870570931D
:1047F0008A0560938905789425E030E090E080E0B8
:10480000FA0131832083089578942FEF3FEF86EFEC
:104810009FEFF6CF8FEF9FEF0895059769F4F89417
:10482000109288051092870510928A0510928905CA
:10483000789490E080E008958FEF9FEF08956115E0
:10484000710519F4F0E0E0E011C08530910581F4C4
:10485000E0918705F09188053097A1F3CB0101968F
:104860001995009779F3FC0185E08193CF010895B4
:104870009C01235031092230310520F72AE0289F7E
:10488000D001299FB00D1124A557BA4F2D913C910D
:104890001197232BB9F216962D913C911797261755
:1048A000370780F2F89412962D913C9113972115B9
:1048B000310529F0ED91FC911197309711F478941E
:1048C000C1CF4181528111965C934E9321503109A1
:1048D00013963C932E93129781937894C7CFE9E176
:1048E000F5E08EE6DF011D928A95E9F7E1E0F4E05C
:1048F00088E191E0DF019C011D9221503040E1F7F9
:10490000109200041092FF03EBE8F5E082E3DF0170
:104910001D928A95E9F7E7E8F5E084E0DF011D9252
:104920008A95E9F790E080E00895CF93DF93C091F6
:104930008302D0918402CF3FDC0759F420D49093B6
:1049400084028093830297FF09C0D0938402C093AE
:10495000830284EF9FEFDF91CF91089590E080E094
:10496000FACF8230910528F48093BD0590E080E075
:1049700008958FEF9FEF08954F925F926F927F920D
:10498000AF92BF92CF92DF92EF92FF920F931F935D
:10499000CF93DF931F921F92CDB7DEB71A82198291
:1049A000009709F478C06115710509F474C020916D
:1049B00083023091840207EF1FEF2F3F3F4F09F42E
:1049C00044C06B015C01412C512C3201F12CE12CD3
:1049D00010E000E09E012F5F3F4FA6014E195F09D6
:1049E000B5016E0D7F1D809183029091840226D4C3
:1049F000892B09F04AC089819A81009741F4E1141A
:104A0000F10429F42091BD05222309F441C0E80EE8
:104A1000F91EEC14FD04C8F480E8481684E8580632
:104A20008EE16806710418F560E070E0CB010CD7E8
:104A30002AE0420E511C611C711C0A3F4FEF140703
:104A400021F0043F8FEF1807A1F4C8010F900F90D9
:104A5000DF91CF911F910F91FF90EF90DF90CF905A
:104A6000BF90AF907F906F905F904F90089501EF4F
:104A70001FEF81E090E0013F2FEF120711F090E06F
:104A800080E0892B09F4A6CFE0CF04EF1FEFDDCF44
:104A90000AEF1FEFDACF0FEF1FEFD7CF4F925F92E2
:104AA0006F927F92AF92BF92CF92DF92EF92FF927E
:104AB0000F931F93CF93DF931F921F92CDB7DEB753
:104AC0001A821982009709F478C06115710509F4FA
:104AD00074C0209183023091840207EF1FEF2F3FB3
:104AE0003F4F09F444C06B015C01412C512C320151
:104AF000F12CE12C10E000E09E012F5F3F4FA6015A
:104B00004E195F09B5016E0D7F1D80918302909152
:104B100084024AD3892B09F04AC089819A8100977F
:104B200041F4E114F10429F42091BD05222309F494
:104B300041C0E80EF91EEC14FD04C8F480E44816E8
:104B400082E458068FE06806710418F560E070E0B2
:104B5000CB017AD62AE0420E511C611C711C0E3F1B
:104B60004FEF140721F0043F8FEF1807A1F4C8019D
:104B70000F900F90DF91CF911F910F91FF90EF90C9
:104B8000DF90CF90BF90AF907F906F905F904F90ED
:104B9000089502EF1FEF81E090E0023F2FEF120730
:104BA00011F090E080E0892B09F4A6CFE0CF04EF6C
:104BB0001FEFDDCF0EEF1FEFDACF0FEF1FEFD7CFD5
:104BC00080918302909184028F3F980749F0CFD261
:104BD000892B49F48FEF9FEF909384028093830297
:104BE00090E080E0089584EF9FEF0895CF92DF92E8
:104BF000EF92FF920F931F93CF93DF9321E0411524
:104C0000510509F020E04150510921112CC0DC016F
:104C1000FB01D12CC12C21E022C03FEFC31AD30AE3
:104C20007D010D911D91E701EA80FB80E016F10600
:104C3000A8F420813181E280F380F182E082338325
:104C40002283ED90FC9011979D0122503109E901DA
:104C5000F982E88211961C930E9320E03296C416D6
:104C6000D506D8F2D2CFDF91CF911F910F91FF904F
:104C7000EF90DF90CF900895FC01680F791F90E0CE
:104C800080E0E617F70709F408952191820F911D3E
:104C9000F8CF2091BE05211113C047DE009791F493
:104CA0001092C4051092C3051092C2051092C1055E
:104CB0001092C0051092BF0521E02093BE05089513
:104CC00084EF9FEF0895AF92BF92CF92DF92EF9261
:104CD000FF920F931F93CF93DF93009709F460C067
:104CE0004630510508F45CC02091BE05C7EFDFEFE8
:104CF000222309F449C08C01060F171FF801C08058
:104D0000D180C114D10409F44EC096012A5F3F4FEF
:104D10004217530708F447C07C018091C305909166
:104D2000C40593838283B6016C5F7F4F5801A60E42
:104D3000B71EC801A1DFF5019183808364E070E0B4
:104D4000C8011ADEEC01892BF9F481E090E009DE5C
:104D5000B601C801049610DEEC01892B91F462E0E3
:104D600070E0C50109DEEC01892B59F4C701DBDBDA
:104D70008091C3059091C40501969093C4058093DA
:104D8000C30590E080E0EDDDCE01DF91CF911F9172
:104D90000F91FF90EF90DF90CF90BF90AF9008956C
:104DA000CFEFDFEFF1CFC9EFDFEFEECF6F927F9262
:104DB0008F929F92AF92BF92CF92DF92EF92FF922B
:104DC0000F931F93CF93DF9300D01F92CDB7DEB721
:104DD000009709F47AC04115510509F476C0209175
:104DE000BE0507EF1FEF222309F44DC03A017B01F6
:104DF0005C0164E070E0CE01019650DE8C01892BED
:104E000009F041C009811A810115110509F45AC040
:104E1000480186E0880E911CB701680D791D8091CC
:104E20008502909186020BDD6C01009709F450C059
:104E3000A70170E060E00E946A3289819A81AB81AB
:104E4000BC81EC0CFD1CF70181939193A193B1936C
:104E50007F0181E090E085DDB801C7011FDE892B6D
:104E600031F562E070E0C701800F911F17DE8C0101
:104E7000892BE9F490E080E074DDF501D182C082F5
:104E8000F30191828082C8010F900F900F900F90D4
:104E9000DF91CF911F910F91FF90EF90DF90CF9016
:104EA000BF90AF909F908F907F906F90089590E00B
:104EB00080E057DDF50111821082F301118210822A
:104EC000C60131DB09EF1FEFDECF0FEF1FEFDBCFA6
:104ED00006EF1FEFD8CF0097A1F04115510589F0DB
:104EE0002115310571F0F90136966E177F0748F0EC
:104EF000DC012D933C93DA01ED93FC9390E080E08C
:104F000008958FEF9FEF0895AF92BF92CF92DF92F7
:104F1000EF92FF920F931F93CF93DF93009709F4C3
:104F20005FC04115510509F45BC06530710508F497
:104F300057C02091BE05C7EFDFEF222391F1DC01BE
:104F4000CD90DC9011971296ED91FC9196012A5F1D
:104F50003F4FC9EFDFEF2617370719F5C091BF059F
:104F6000D091C005209749F521E030E03093C0058D
:104F70002093BF057A018C01F093C205E093C1052F
:104F80005601B4E0AB0EB11CB50176DE0A0D1B1D57
:104F9000F801208131818217930729F5D701CD923D
:104FA000DC92CE01DF91CF911F910F91FF90EF9096
:104FB000DF90CF90BF90AF9008952091C1053091C0
:104FC000C2052F5F3F4FCCEFDFEFE217F30790F200
:104FD000CBEFDFEF2E173F0768F2D0E0C0E0CACF7B
:104FE000CFEFDFEFDECFC3EFDFEFDBCF84E090E08A
:104FF000089582E090E008958CEF9FEF089580E29D
:1050000090E008951092C4051092C3051092C20555
:105010001092C1051092C0051092BF0590E080E08B
:105020000895909386028093850208958091BE052D
:10503000882391F0C5DD009789F41092C405109281
:10504000C3051092C2051092C1051092C0051092BE
:10505000BF051092BE05089590E080E00895009786
:1050600049F06115710531F0FC0111821082FB01DC
:10507000118210820895F3CF26E030E040E855E237
:1050800060E070E090E080E000C08130910569F060
:105090001CF4892B39F008958230910549F003976B
:1050A00051F0089582ED95E0F7C68FE696E0FCCFCB
:1050B0008CE097E0F9CF89EA97E0F6CF1F920F9244
:1050C0000FB60F9211240BB60F922F933F934F936D
:1050D0005F936F937F938F939F93AF93BF93EF9360
:1050E000FF938FE89DEF9093250180932401BAD020
:1050F000FF91EF91BF91AF919F918F917F916F91B0
:105100005F914F913F912F910F900BBE0F900FBE6B
:105110000F901F9018958FE89DEF90932501809335
:105120002401A3E7B0E08C918E7F8C93E0E2F1E064
:1051300080818C7F8083E1E2F1E08081877E8083C3
:1051400080818460808380818C7F80838C9181606A
:105150008C930895E3E7F0E0808190819E7F9083B7
:105160008170089581E008951092C505089568EE54
:1051700073E080E090E068D390E080E0089526E05E
:1051800030E040E050E16EE070E090E080E07DDFF4
:1051900082ED95E0B7D5892B21F082ED95E0CCD555
:1051A000F7CF90E080E00895CF92DF92EF92FF92E8
:1051B0000F931F93CF93DF936B017A01E90119825B
:1051C000188282ED95E09ED5892B69F18601CC2469
:1051D000C39482E0D82E8091C505811110C082ED64
:1051E00095E0AAD50297B9F7C092C505F801D1920A
:1051F0008F0188819981019699838883ECCF88817A
:1052000099818E159F0578F482ED95E095D58F3FB5
:105210009807A9F3F80181938F01888199810196FC
:1052200099838883ECCF90E080E0DF91CF911F914C
:105230000F91FF90EF90DF90CF9008950F931F9301
:10524000CF93DF93EA01890182ED95E00E94DC3182
:10525000F801D183C08390E080E0DF91CF911F916E
:105260000F910895CF92DF92EF92FF92CF93DF9349
:105270008091C60591E0980F9093C605882379F038
:1052800021E030E03093C8052093C7058093C60520
:10529000DF91CF91FF90EF90DF90CF9008957894B9
:1052A000C0918902D0918A026E8D7F8D88A199A1CB
:1052B00043D120E030E040E85FE4F4D16B017C01B1
:1052C0006A8D7B8D8C8D9D8D37D19B01AC01C70183
:1052D000B60199D005D16B017C010E945305B7013D
:1052E000A60190E080E00E94C504F8948091C60574
:1052F0008150CCCF0F931F93CF93DF9310928F08E1
:1053000010928E08D7D2B8DEC0918902D0918A025D
:10531000198218826FEF7FEFCB010E94480570E081
:1053200060E090E080E00E94C803009709F03AC076
:105330000E949208F8947894BE016A5D7F4F8A813A
:105340009B810E94CB03892B59F46FEF7FEFCB0138
:105350000E945B040E944205882311F081E08AA725
:10536000F894D9DE0E944505882311F080E008C03A
:105370000E9442058111FACF81E09AA59111F6CFE2
:1053800080938E0878940E9454108C0178948091B8
:105390008E0881110CC00E9471090E942705F894A3
:1053A00090E080E0DF91CF911F910F9108950E94CE
:1053B00025050E9445058823D9F081E080938F0858
:1053C00090918F0881E0911180E080938E08809108
:1053D0008F088111BFDE0130110529F40E9454109D
:1053E000892B09F4C1DE0E9454108C01BBDECFCFA3
:1053F0000E9442058111E1CF81E09AA59111DECF93
:1054000080E0DCCF5058BB27AA270ED00DC1FED0BC
:1054100030F003D120F031F49F3F11F41EF4F3C0BB
:105420000EF4E095E7FBE9C0E92F0FD180F3BA173E
:10543000620773078407950718F071F49EF527C17A
:105440000EF4E0950B2EBA2FA02D0B01B90190019F
:105450000C01CA01A0011124FF27591B99F0593FE3
:1054600050F4503E68F11A16F040A22F232F342F2B
:105470004427585FF3CF469537952795A795F04079
:105480005395C9F77EF41F16BA0B620B730B840B8E
:10549000BAF09150A1F0FF0FBB1F661F771F881F46
:1054A000C2F70EC0BA0F621F731F841F48F487959E
:1054B00077956795B795F7959E3F08F0B3CF93958D
:1054C000880F08F09927EE0F97958795089571D06A
:1054D00008F481E0089504D06894B111D9C008950A
:1054E000BCD088F09F5790F0B92F9927B751A0F002
:1054F000D1F0660F771F881F991F1AF0BA95C9F768
:1055000012C0B13081F0C3D0B1E00895C0C0672FA0
:10551000782F8827B85F39F0B93FCCF38695779517
:105520006795B395D9F73EF4909580957095619500
:105530007F4F8F4F9F4F0895E89409C097FB3EF42B
:1055400090958095709561957F4F8F4F9F4F9923D0
:10555000A9F0F92F96E9BB279395F695879577954E
:105560006795B795F111F8CFFAF4BB0F11F460FF0E
:105570001BC06F5F7F4F8F4F9F4F16C0882311F066
:1055800096E911C0772321F09EE8872F762F05C07A
:10559000662371F096E8862F70E060E02AF09A9515
:1055A000660F771F881FDAF7880F9695879597F90A
:1055B0000895990F0008550FAA0BE0E8FEEF1616A4
:1055C0001706E807F907C0F012161306E407F507F7
:1055D00098F0621B730B840B950B39F40A2661F06B
:1055E000232B242B252B21F408950A2609F4A1400E
:1055F000A6958FEF811D811D089597F99F6780E81B
:1056000070E060E008959FEF80EC089500240A9414
:105610001616170618060906089500240A9412168D
:105620001306140605060895092E0394000C11F4C0
:10563000882352F0BB0F40F4BF2B11F460FF04C06D
:105640006F5F7F4F8F4F9F4F089557FD9058440FC6
:10565000551F59F05F3F71F04795880F97FB991FD1
:1056600061F09F3F79F0879508951216130614068E
:10567000551FF2CF4695F1DF08C01616170618061B
:10568000991FF1CF86957105610508940895E894F6
:10569000BB2766277727CB0197F908958ADF08F49F
:1056A0008FEF08950BD0C0CFB1DF28F0B6DF18F030
:1056B000952309F0A2CFA7CF1124EACFC6DFA0F32C
:1056C000959FD1F3950F50E0551F629FF001729F97
:1056D000BB27F00DB11D639FAA27F00DB11DAA1FB6
:1056E000649F6627B00DA11D661F829F2227B00D03
:1056F000A11D621F739FB00DA11D621F839FA00D8E
:10570000611D221F749F3327A00D611D231F849FDD
:10571000600D211D822F762F6A2F11249F57504034
:105720008AF0E1F088234AF0EE0FFF1FBB1F661FCF
:10573000771F881F91505040A9F79E3F510570F088
:105740005CCFA6CF5F3FECF3983EDCF38695779570
:105750006795B795F795E7959F5FC1F7FE2B880F83
:10576000911D9695879597F908951F920F920FB600
:105770000F9211242F933F938F939F93AF93BF93D7
:105780008091CA059091CB05A091CC05B091CD0533
:105790003091C90523E0230F2D3758F50196A11D3F
:1057A000B11D2093C9058093CA059093CB05A093A2
:1057B000CC05B093CD058091CE059091CF05A091F9
:1057C000D005B091D1050196A11DB11D8093CE05E4
:1057D0009093CF05A093D005B093D105BF91AF9121
:1057E0009F918F913F912F910F900FBE0F901F901F
:1057F000189526E8230F0296A11DB11DD2CF3FB701
:10580000F8948091CE059091CF05A091D005B091EC
:10581000D10526B5A89B05C02F3F19F00196A11D03
:10582000B11D3FBFBA2FA92F982F8827BC01CD01EA
:10583000620F711D811D911D42E0660F771F881F49
:10584000991F4A95D1F708958F929F92AF92BF9278
:10585000CF92DF92EF92FF926B017C01D0DF4B0180
:105860005C01C114D104E104F104D9F0D2D5C7DF41
:10587000681979098A099B09683E73408105910579
:1058800080F321E0C21AD108E108F10888EE880E01
:1058900083E0981EA11CB11CC114D104E104F104E1
:1058A00031F7FF90EF90DF90CF90BF90AF909F9037
:1058B0008F900895789484B5826084BD84B58160AA
:1058C00084BD85B5826085BD85B5816085BDEEE608
:1058D000F0E0808181608083E1E8F0E010828081E7
:1058E00082608083808181608083E0E8F0E0808155
:1058F00081608083E1EBF0E0808184608083E0EB75
:10590000F0E0808181608083E1E9F0E08081826065
:105910008083808181608083E0E9F0E08081816024
:105920008083E1EAF0E08081826080838081816011
:105930008083E0EAF0E0808181608083E1E2F1E051
:10594000808182608083808181608083E0E2F1E0F9
:10595000808181608083EAE7F0E0808184608083D9
:105960008081826080838081816080838081806883
:1059700080831092C1000895863308F086532091E9
:105980007B00982F9870277F922B90937B0020911B
:10599000870290E4299F900111248770822B8093C5
:1059A0007C0080917A00806480937A0080917A00F4
:1059B00086FDFCCF809178009091790008951F9327
:1059C000CF93DF93182FEB0161E033D1209731F4AF
:1059D00060E0812FDF91CF911F9167C1CF3FD1054B
:1059E00011F461E0F6CFE12FF0E0EC51FF4FE491CC
:1059F000E150E23108F0B2C0F0E08827EE5FF24DEE
:105A00008F4F3EC5142D1C2D212D2B2D352DAE2D48
:105A10003F2D472D4F2D592D632D6D2D7C2D862D1E
:105A2000AE2D902D9A2DA42D84B5806884BDC7BD60
:105A3000DF91CF911F91089584B5806284BDC8BD68
:105A4000F7CF80918000806880938000D093890098
:105A5000C0938800EDCF80918000806280938000A9
:105A6000D0938B00C0938A00E3CF80918000886040
:105A700080938000D0938D00C0938C00D9CF80910B
:105A8000B00080688093B000C093B300D1CF809104
:105A9000B00080628093B000C093B400C9CF809101
:105AA0009000806880939000D0939900C0939800F4
:105AB000BFCF80919000806280939000D0939B0034
:105AC000C0939A00B5CF8091900088608093900039
:105AD000D0939D00C0939C00ABCF8091A0008068C4
