:1000000007C1000036C1000034C1000032C1000049
:1000100030C100002EC100002CC100002AC1000028
:1000200028C1000026C1000024C1000022C1000038
:1000300020C100001EC100001CC100001AC1000048
:1000400018C1000016C1000014C1000012C1000058
:1000500010C100000EC100000CC100000C94DB2F89
:1000600008C100000C94D2330C94083402C1000083
:1000700000C10000FEC00000FCC00000FAC000008B
:10008000F8C00000F6C00000F4C00000F2C000009C
:100090000C945E340C949434ECC00000EAC0000070
:1000A000E8C00000E6C00000E4C00000E2C00000BC
:1000B000E0C00000DEC00000DCC00000DAC00000CC
:1000C000D8C00000D6C000000C94C02B0C94EA34B9
:1000D0000C942035CEC000000C9476350C94AC35D1
:1000E000C8C0000005A84CCDB2D44EB93836A9021C
:1000F0000C50B9918688083CA6AAAA2ABE00000026
:10010000803F00000A0B02090C0D0E0807030401D2
:1001100000000000000000000000000000000000DF
:1001200000000000000000000000000000001211AC
:1001300010000000000000000000000000000000AF
:10014000000000000000000001021020200808103C
:100150002040102040800201020108040201010237
:100160000408102040808040201008040201800410
:10017000020180402010080402010804020101026B
:10018000040810204080010204081020408005056A
:100190000505070508080808020202020A0A0808FD
:1001A000040404040101010101010101030303032B
:1001B00003030303040707070C0C0C0C0C0C0C0CBA
:1001C0000202020206060606060606060B0B0B0BCB
:1001D0000B0B0B0B00002200250028002B002E002B
:1001E0003100340002010000050108010B0100008C
:1001F0002100240027002A002D00300033000101D7
:100200000000040107010A013134BD344935D535F8
:1002100011241FBECFEFD1E2DEBFCDBF00E00CBF87
:1002200013E0A0E0B2E0E0E5FDE600E00BBF02C0B5
:1002300007900D92A238B107D9F72AE0A2E8B3E0FF
:1002400001C01D92AB33B207E1F711E0C8E0D1E085
:1002500000E006C021970109802FFE010E9475363B
:10026000C430D10780E00807A9F70E94AD2C0C9498
:10027000A636C6CECF93DF93882349F0EB01815099
:100280000E94E23099838883DF91CF910895FB012A
:1002900011821082F9CF0F931F938B019C0183E091
:1002A00036952795179507958A95D1F705571C4FD1
:1002B000462F477021E030E0F90102C0EE0FFF1F2A
:1002C0004A95E2F7AF01F80120812423CB01019682
:1002D000211102C090E080E01F910F9108950F93CB
:1002E0001F938B019C0183E0369527951795079501
:1002F0008A95D1F7677081E090E001C0880F6A9518
:10030000EAF7F801E557FC4F2081452B31F4809541
:10031000822380831F910F910895822BFACFCF9271
:10032000DF92EF92FF92CF93DF936B017C0160E04D
:1003300086E3C816D104E104F10490F486E38C0D41
:100340000E943F32E6012196AE01C701B601C7DF28
:10035000CE01DF91CF91FF90EF90DF90CF90089585
:100360008C2DEECF882341F08150682F70E090E013
:1003700080E050E040E0B3CF0895CF93282F88234A
:10038000E1F0CB01BA01CFEFC20FEC2FF0E0EC5659
:10039000FC4F2081213059F490580E94132E9B016C
:1003A000AC016C2F70E090E080E0CF91A2C00E9481
:1003B0000E2E8C2FCF910C940531CF9108950F9371
:1003C0001F938B019C0183E0369527951795079520
:1003D0008A95D1F70E571C4F462F477021E030E029
:1003E000F90102C0EE0FFF1F4A95E2F7AF01F801D5
:1003F00020812423CB010196211102C090E080E0EE
:100400001F910F9108950F931F938B019C0183E01F
:1004100036952795179507958A95D1F7677081E0EE
:1004200090E001C0880F6A95EAF7F801EE57FC4F9B
:100430002081452B31F48095822380831F910F9179
:100440000895822BFACF4F925F926F927F928F9294
:100450009F92AF92BF92CF92DF92EF92FF920F9353
:100460001F93CF93DF934B015C0129013A01670190
:1004700061E0882D0E943F32E4012196AE01C50162
:10048000B401C1DF20E030E0A901C801B6010E943B
:10049000F12E18168CF4F401EC56FC4F81E08083A9
:1004A000C801B6010E94132E6B01C301B2010E9464
:1004B000132EA601C40121D0CE01DF91CF911F914F
:1004C0000F91FF90EF90DF90CF90BF90AF909F90F3
:1004D0008F907F906F905F904F900895882341F0A8
:1004E0008150682F70E090E080E050E040E08BCFDA
:1004F0000895862FB9010C9405319C01FC01EE5F33
:10050000FE4FE491E150E231E0F4F0E08827E45757
:10051000FD4F8F4F0C9475369E02A502A802BF02B4
:10052000D402A102E902F502F902100325033A03FD
:1005300051036603A1027B039203A70384B580687D
:1005400084BD60E0822F0C947B3284B58062F8CF4A
:10055000809180008C7F82608093800080918100F8
:10056000807E8061682B6093810050938700409368
:10057000860080918000806880938000E2CF809127
:1005800080008C7F82608093800080918100807EDB
:100590008061682B609381005093870040938600B0
:1005A000809180008062E8CF809180008C7F8260A3
:1005B0008093800080918100807E8061682B6093B1
:1005C000810050938700409386008091800088606E
:1005D000D3CF8091B00080688093B0008091B1004B
:1005E000887F682B6093B100ACCF8091B0008062AF
:1005F000F3CF809190008C7F8260809390008091F7
:100600009100807E8061682B6093910050939700E9
:10061000409396008091900080688093900091CFE5
:10062000809190008C7F82608093900080919100F7
:10063000807E8061682B6093910050939700409377
:100640009600809190008062E8CF809190008C7F2E
:1006500082608093900080919100807E8061682B01
:100660006093910050939700409396008091900082
:100670008860D3CF8091A0008C7F82608093A0009F
:100680008091A100807E8061682B6093A1005093CF
:10069000A7004093A6008091A00080688093A000EE
:1006A00050CF8091A0008C7F82608093A0008091C9
:1006B000A100807E8061682B6093A1005093A70009
:1006C0004093A6008091A0008062E8CF8091A000B6
:1006D0008C7F82608093A0008091A100807E8061E9
:1006E000682B6093A1005093A7004093A6008091CF
:1006F000A0008860D3CF809120018C7F826080939E
:10070000200180912101807E8061682B609321010E
:1007100050932701409326018091200180688093A7
:1007200020010FCF809120018C7F82608093200177
:1007300080912101807E8061682B6093210150931C
:10074000270140932601809120018062E8CF8091AB
:1007500020018C7F82608093200180912101807E26
:100760008061682B609321015093270140932601FB
:10077000809120018860D3CF90E080E008950F93AE
:100780001F93009709F489C06115710509F485C0AC
:100790000091BA021091BB022091BC023091BD02BF
:1007A0000E3F1F4F2F4F3F4F09F068C04FEF5FEFD5
:1007B000BA014093BA025093BB026093BC0270939B
:1007C000BD024091BA025091BB026091BC0270918F
:1007D000BD02DC011296ED91FC9180819181A28194
:1007E000B38180933D0590933E05A0933F05B09360
:1007F000400584819581A681B781809339059093C6
:100800003A05A0933B05B0933C0580859185A28570
:10081000B3858093350590933605A0933705B09343
:10082000380584859585A685B78580933105909395
:100830003205A0933305B093340510922D05109224
:100840002E0510922F05109230050E945F0F84E84C
:100850009FE09093DB038093DA039093DD03809312
:10086000DC030E944E0E009731F421E030E030931B
:100870004205209341051F910F9108950091BA02FE
:100880001091BB022091BC023091BD02DB010D939F
:100890001D932D933C93139794CF8FEF9FEFEBCF46
:1008A0008F929F92AF92BF92CF92DF92EF92FF9280
:1008B0001F93CF93DF934B015C011091440582E0BD
:1008C00090E0909342058093410581149104A10426
:1008D000B10441F480914405811104C08091430525
:1008E000C1E08111C0E0C12CD12C7601809144057A
:1008F000811106C080914305811102C0CC23D9F03B
:1009000083E090E09093420580934105CC2381F1F0
:10091000CCE9DFEF111102C00E94E912CE01DF9194
:10092000CF911F91FF90EF90DF90CF90BF90AF904D
:100930009F908F9008956AE070E080E090E00E94C0
:100940004A3080E1C80E87E2D81EE11CF11C8FEF0F
:1009500088169806A806B80631F0C1E08C149D04EC
:10096000AE04BF0408F0C0E080E00E94820EBECF5B
:10097000D0E0C0E0CFCFCF92DF92EF92FF920F9303
:100980001F93CF93DF938F3F910511F008F051C073
:1009900020914105309142052330310539F02091F5
:1009A0004105309142052130310531F424E030E039
:1009B00030934205209341056A017B01EC018230AE
:1009C0009105A8F011E0AE01C701B6010E944D0EDD
:1009D000AB01BC01CE011123F9F0DF91CF911F9142
:1009E0000F91FF90EF90DF90CF900C9415158C0134
:1009F000000F111F06521C4FD8018D919C91892B1D
:100A000009F30E941F150297E9F6D801ED91FC91B8
:100A1000CE011995182FD7CF0E94371590E080E0AE
:100A2000DF91CF911F910F91FF90EF90DF90CF90CA
:100A300008958FEF9FEFF4CF80E00C94820ECF9358
:100A4000DF9386E090E090934205809341050E94F9
:100A5000DB0EEC01EAEDF3E084E0DF011D928A9504
:100A6000E9F70E9481121092420510924105CE01D1
:100A7000DF91CF91089580914305089580912C05D1
:100A800008956093BA027093BB028093BC02909366
:100A9000BD0290E080E008954F925F926F927F9246
:100AA0008F929F92AF92BF92CF92DF92EF92FF927E
:100AB0000F931F93CF93DF93C0917F04D091800455
:100AC0000DEF19E0F80184859585A685B7858883A3
:100AD0009983AA83BB8380899189A289B3898C83F6
:100AE0009D83AE83BF838090AC029090AD02A090B6
:100AF000AE02B090AF028DEE682E89E0782EF30141
:100B0000C084D184E284F3846091B4027091B50210
:100B10008091B6029091B7029058A50194010E946D
:100B2000A62DF30124853585468557850E94F52E2F
:100B30002B013C016091B0027091B1028091B20230
:100B40009091B3029058A50194010E94A62DA7018F
:100B500096010E94F52E9B01AC01C301B2010E94D7
:100B60003E2D9B01AC01CC86DD86EE86FF86F8012A
:100B700064897589868997890E943E2D688779875F
:100B80008A879B87DF91CF911F910F91FF90EF9004
:100B9000DF90CF90BF90AF909F908F907F906F909D
:100BA0005F904F9008952F923F924F925F926F9275
:100BB0007F928F929F92AF92BF92CF92DF92EF92ED
:100BC000FF920F931F93CF93DF93CDB7DEB7AE970E
:100BD0000FB6F894DEBF0FBECDBF80910305909194
:100BE00004058130910509F0AEC08091E604909132
:100BF000E704A091E804B091E9048090EE0490909D
:100C0000EF04A090F004B090F104C090EA04D090FA
:100C1000EB04E090EC04F090ED048F3F2FEF92078F
:100C2000A207B20709F06CC0C701B6016F5F7F4F22
:100C30008F4F9F4F0E943F2EA50194010E94F52ED9
:100C400020E030E040E85FE40E94F52E609300046D
:100C5000709301048093020490930304C09088026F
:100C6000D0908902E0908A02F0908B02A701960151
:100C700060911D0A70911E0A80911F0A9091200AAE
:100C80000E94A22D81114EC466E370E080E090E0E6
:100C900002DB90931C0A80931B0A43E050E0BE01E4
:100CA0006F5F7F4FE7DA2091B8023091B902A981D6
:100CB000BA810E947D360E943F2E20E030E040E065
:100CC00057E30E94F52E20918C0230918D024091C5
:100CD0008E0250918F020E943D2D20919002309102
:100CE000910240919202509193020E94F52E6093DE
:100CF000FD097093FE098093FF099093000A38C0A4
:100D0000BC01CD016F5F7F4F8F4F9F4F0E943F2EE1
:100D1000A50194010E94F52E2B013C01C701B601EB
:100D20000E943F2EA50194010E94F52E20E030E0A4
:100D300040E85FE40E94F52E9B01AC01C301B201C3
:100D40000E943E2D83CF892B99F4E0913004F091DD
:100D500031040190F081E02D80819181A281B381E5
:100D6000E0910605F091070580839183A283B38308
:100D7000E0910605F0910705408051806280738004
:100D800080902B0A90902C0AA3019201D4016D91BE
:100D90007D918D919C910E94F12E18160CF0CBC381
:100DA0001092010A1092020A1092030A1092040A89
:100DB00069E070E080E090E002DB8C019093280A0B
:100DC0008093270A2091010A3091020A4091030A78
:100DD0005091040A6091940270919502809196025C
:100DE000909197020E94F52E6B017C0120E030E08B
:100DF0004FE753E40E94A22D18160CF41AC420E009
:100E000030E0A901C701B6010E94F12E87FD18C488
:100E1000B701A601C801B1DA0091030510910405DC
:100E20000130110581F48091980290919902A0916E
:100E30009A02B0919B028093050A9093060AA093B0
:100E4000070AB093080A8091350A9091360A892BD7
:100E500081F08091050A9091060AA091070AB0914D
:100E6000080A8093ED099093EE09A093EF09B093DF
:100E7000F0098090F1099090F209A090F309B090E8
:100E8000F4098092090A90920A0AA0920B0AB09281
:100E90000C0AC0907402D0907502E0907602F09037
:100EA00077026091ED097091EE098091EF099091C0
:100EB000F0090E94582F6F83788789879A8720913D
:100EC000010A3091020A4091030A5091040A60918C
:100ED0006C0270916D0280916E0290916F020E947F
:100EE000F52EA70196010E94F52E6B837C838D83DE
:100EF0009E83209170023091710240917202509154
:100F000073026091800270918102809182029091BF
:100F100083020E94F52E2B013C0120918402309126
:100F200085024091860250918702C701B6010E9456
:100F3000F52E9B01AC01C301B2010E943E2D209110
:100F40007C0230917D0240917E0250917F020E948E
:100F5000F52E2F81388549855A850E94F52E9B01F3
:100F6000AC016B817C818D819E810E943D2D6B0146
:100F70007C01209178023091790240917A0250915F
:100F80007B02C501B4010E94F52E9B01AC01C70193
:100F9000B6010E943D2D6B017C01209168023091C9
:100FA000690240916A0250916B0260E070E080E853
:100FB0009FE30E94A62D9B01AC01C701B6010E94D0
:100FC000F52E60930D0A70930E0A80930F0A90938A
:100FD000100AE0910605F09107052091A0023091DA
:100FE000A1024091A2025091A3026081718182818D
:100FF00093810E94A22D87FF27C38091A402909124
:10100000A502A091A602B091A7028093110A909325
:10101000120AA093130AB093140A0130110591F536
:101020001092360A1092350A6091F6047091F70416
:101030008091F8049091F9040E943F2E20E030E066
:1010400040E85FE40E94F52E6B017C016091F204A0
:101050007091F3048091F4049091F5040E943F2E66
:101060009B01AC01C701B6010E943E2D20E030E09B
:10107000A9010E943E2D0E94132EAB01BC0181E00C
:1010800090E079DC8091030590910405019709F0C7
:1010900030C2E0913004F09131040190F081E02DF4
:1010A00080819181A281B3818F8B988FA98FBA8F14
:1010B0008091000490910104A0910204B091030476
:1010C0008FA398A7A9A7BAA7E0910404F0910504FB
:1010D00080809180A280B380E0913404F091350447
:1010E00070806180E091F803F091F90320803180F5
:1010F0005280438094819B87A581AB8FB681BDA32D
:1011000027812EA3E091F603F091F703118210825C
:1011100080E1E72DF62DD10101900D928A95E1F73E
:10112000E0912E04F0912F0450824182B5DC20E042
:1011300030E040E05FE3C501B4010E94F52E6B0191
:101140007C0138A22F8E5D8A4E8A7B8A6C8A81014F
:10115000005F1F4F7F8268865B824C82388A2F86B1
:10116000EF85F88981919191A191B191F88BEF87E9
:1011700089A39AA3ABA3BCA3AB81BC812D913D9164
:101180004D915D91BC83AB83C701B6010E94F52EE2
:1011900029A13AA14BA15CA10E943E2DEF81F885C7
:1011A0006193719381939193F887EF838F859889E9
:1011B00008171907A9F6E0913004F0913104008175
:1011C0001181A70196016F89788D898D9A8D0E9472
:1011D0003E2DD8016D937D938D939C931397E09151
:1011E0002E04F0912F04BB85B0832B8D2183DBDC93
:1011F00053DC20E030E0A901C501B4010E94F52EC6
:1012000069A37AA38BA39CA320E030E040E45FE3D2
:10121000C501B4010E94F52E6B017C018B858F8383
:101220009B8D9887072D162DAF81B885BC87AB871E
:101230005B824C82F10181919191A191B1911F0149
:101240008B8F9C8FAD8FBE8FAB81BC816D917D915B
:101250008D919D91BC83AB83EB85FC854190519032
:1012600061907190FC87EB8729A13AA14BA15CA109
:101270000E94F52E6BA77CA78DA79EA7A7019601BC
:10128000C301B2010E94F52E9B01AC016BA57CA5A8
:101290008DA59EA50E943E2D2B8D3C8D4D8D5E8D86
:1012A0000E943E2DD8016D937D938D939D938D016A
:1012B000EF85F889E215F30509F0BCCFE091300421
:1012C000F091310400811181A70196016F89788D19
:1012D000898D9A8D0E943E2DD8016D937D938D93BB
:1012E0009C931397E0912E04F0912F04BDA1B0833D
:1012F0002EA1218358DCD0DB29E33EE843E65EE300
:10130000C501B4010E94F52E6F87788B898B9A8B6B
:101310002BEA3AEA4AEA5EE3C501B4010E94F52EDF
:101320006F8B788F898F9A8F29E33EE843EE5EE3D7
:10133000C501B4010E94F52E6B877C878D879E873F
:101340000DA11EA1EF8DF8A181919191A191B19173
:10135000F8A3EF8F8B839C83AD83BE83AD89BE8959
:101360006D917D918D919D91BE8BAD8BEF81F885B7
:101370004190519061907190F887EF83D801CD90A2
:10138000DD90ED90FD908D012F85388949895A892E
:101390000E94F52E4B015C012F89388D498D5A8DA5
:1013A000C301B2010E94F52E9B01AC01C501B4013D
:1013B0000E943E2D4B015C012B853C854D855E8551
:1013C000C701B6010E94F52E9B01AC01C501B40115
:1013D0000E943E2D2B813C814D815E810E943E2DDD
:1013E000EB89FC896193719381939193FC8BEB8BD7
:1013F0008F8D98A12816390609F0A4CFE09130040A
:10140000F09131040190F081E02D8FA198A5A9A55C
:10141000BAA580839183A283B383E091F603F09110
:10142000F70381E090E0918380838091E6049091BE
:10143000E704A091E804B091E9040196A11DB11D53
:101440008093E6049093E704A093E804B093E90442
:10145000892B8A2B8B2B99F48091EA049091EB04D1
:10146000A091EC04B091ED040196A11DB11D8093F3
:10147000EA049093EB04A093EC04B093ED04809104
:10148000000490910104A0910204B0910304E09142
:101490000605F091070580839183A283B383809131
:1014A000F2049091F304A091F404B091F504019634
:1014B000A11DB11D8093F2049093F304A093F40452
:1014C000B093F504892B8A2B8B2B99F48091F60429
:1014D0009091F704A091F804B091F9040196A11D30
:1014E000B11D8093F6049093F704A093F804B09391
:1014F000F904AE960FB6F894DEBF0FBECDBFDF91F4
:10150000CF911F910F91FF90EF90DF90CF90BF9000
:10151000AF909F908F907F906F905F904F903F9093
:101520002F900895C0921D0AD0921E0AE0921F0AC1
:10153000F092200AA9CBA0902D0AB0902E0AF401B7
:10154000C0A8D1A8E2A8F3A8A3019201C701B601DF
:101550000E94A22D81110EC0F50180A991A9A2A916
:10156000B3A98093010A9093020AA093030AB0934F
:10157000040A1ECCA3019201C701B6010E94A22D4C
:1015800087FD0ECC0091330A1091340A7801EE0CDD
:10159000FF1CEE0CFF1C6401CE0CDF1CA3019201AA
:1015A000D6016D917D918D919C910E94F12EB4E0B8
:1015B000EB0EF11C8E0C9F1C181674F5E4E0CE1A8D
:1015C000D108A3019201D60114966D917D918D9160
:1015D0009C9117970E94F12E1816CCF0C801880F25
:1015E000991F880F991FA80EB91EF501808191815E
:1015F000A281B3818093010A9093020AA093030A07
:10160000B093040A1093340A0093330AD1CB0150EB
:101610001109D4CF0F5F1F4FF40161917191819136
:1016200091914F01A30192010E94A22D181694F7E7
:10163000D5CFC12CD12C8FE7E82E83E4F82EE8CB50
:10164000C12CD12C7601E4CB8091A8029091A90203
:10165000A091AA02B091AB02D8CCCF92DF92EF92C8
:10166000FF920F931F93CF93E0EFF3E080E291E0BE
:10167000DF019C011D9221503040E1F783E095E0AD
:101680009093F7038093F60386E095E090933104FE
:10169000809330048EEE94E09093050480930404CC
:1016A0008FE794E090932F0480932E0489E794E0D1
:1016B00090933504809334048EED94E0909333043A
:1016C0008093320480EE94E0909337048093360444
:1016D0008BE794E090933904809338048DE794E08D
:1016E00090933B0480933A0481E894E090937704CC
:1016F00080937604F0935B04E0935A04F093F5032F
:10170000E093F40381E090E0909304058093030557
:1017100086E894E09093C7048093C60486E994E039
:101720009093C9048093C80486EA94E09093CB0414
:101730008093CA0486EB94E09093CD048093CC040C
:10174000ADEEB9E0B0937A04A093790409EE19E004
:10175000109382040093810486EC94E09093F90343
:101760008093F80384EE92E09093FB038093FA0356
:1017700028E035E0309307052093060540E050E06F
:1017800060E87FEB4093FF045093000560930105F0
:10179000709302054DEC5CEC6CE47EE34093EE0448
:1017A0005093EF046093F0047093F104C1E0C09390
:1017B000FA0440E156EC6BE579EA4093CE0450938D
:1017C000CF046093D0047093D1044EEE54E961E1EC
:1017D0007DE84093D2045093D3046093D404709373
:1017E000D50445E85CEE67EF72E44093D60450936D
:1017F000D7046093D8047093D90443E059E568E5B1
:101800007EE04093DA045093DB046093DC04709331
:10181000DD0484EE93E09093F3038093F2038EED66
:1018200093E09093E5038093E40389EE92E0909334
:10183000DF038093DE039093E1038093E0039093B2
:10184000E3038093E20384EE94E09093E9038093B2
:10185000E8038EEC94E09093E7038093E6033093E3
:10186000EB032093EA038DEF99E028E1FC0111924C
:101870002A95E9F780E1FD0111928A95E9F784E064
:10188000D8011D928A95E9F7E5E1FAE084E2DF01EB
:101890001D928A95E9F7C093380A80918802909149
:1018A0008902A0918A02B0918B0280931D0A9093C5
:1018B0001E0AA0931F0AB093200AC12CD12C7601D6
:1018C000C394C092160AD092170AE092180AF092B6
:1018D000190A66E370E080E090E00E948F01909327
:1018E0001C0A80931B0AC0931A0A84E392E0909327
:1018F0002C0A80932B0A80E092E090932E0A80932A
:101900002D0A1092340A1092330A1092210AC093C1
:10191000370AC092220AD092230AE092240AF09257
:10192000250AE12CF12C8701A801970169E070E0FC
:1019300080E090E00E9423029093280A8093270A77
:10194000C093260A8091980290919902A0919A02E0
:10195000B0919B028093050A9093060AA093070A10
:10196000B093080A8091FA04882341F0E092ED09CF
:10197000F092EE090093EF091093F00921E030E0B6
:101980003093360A2093350A40919C0250919D0273
:1019900060919E0270919F024093F1095093F20969
:1019A0006093F3097093F4091092F5091092F60907
:1019B0001092F7091092F8091092F9091092FA0999
:1019C0001092FB091092FC0981111092FA04CF9138
:1019D0001F910F91FF90EF90DF90CF90089580912D
:1019E000150A81111FC081E08093150A8091160AA3
:1019F0009091170AA091180AB091190A0197A105B0
:101A0000B10581F480911A0A882361F066E370E0E1
:101A100080E090E00E944B0190931C0A80931B0A87
:101A20000E94B2018091210A81112EC081E0809331
:101A3000210A8091220A9091230AA091240AB09150
:101A4000250A0197A105B105F9F48091260A88239A
:101A5000D9F069E070E080E090E00E94DF019093AF
:101A6000280A8093270A40E050E0BA010E94BD0195
:101A700069E070E080E090E00E94DF019093280A26
:101A80008093270A0C946E0208954F925F926F9292
:101A90007F928F929F92AF92BF92CF92DF92EF92FE
:101AA000FF920F931F93F89440901C0550901D05D2
:101AB00060901E0570901F05C0901005D090110514
:101AC000E0901205F09013054130510509F0A6C0D1
:101AD0009B01AC01241935094609570929013A012E
:101AE000009118051091190520911A0530911B05D8
:101AF00048015901840C951CA61CB71C8016910640
:101B0000A206B306A0F400911405109115052091CA
:101B10001605309117050F5F1F4F2F4F3F4F009352
:101B20001405109315052093160530931705809220
:101B3000180590921905A0921A05B0921B05009104
:101B40001405109115052091160530911705809206
:101B5000200590922105A0922205B09223050093C2
:101B600024051093250520932605309327056093BF
:101B70001C0570931D0580931E0590931F05A301FE
:101B8000920160E47DE083E090E00E9430366C0DCD
:101B90007D1D8E1D9F1D6093100570931105809310
:101BA0001205909313050091BA021091BB02209187
:101BB000BC023091BD020F3F1F4F2F4F3F4FF1F03E
:101BC0000091BA021091BB022091BC023091BD027B
:101BD0000E3F1F4F2F4F3F4F89F0C090BA02D09059
:101BE000BB02E090BC02F090BD0221E08C149D0489
:101BF000AE04BF0408F420E020932C0578941F91D4
:101C00000F91FF90EF90DF90CF90BF90AF909F909B
:101C10008F907F906F905F904F9008954B015C0183
:101C200084189508A608B708A3019201261B370B54
:101C3000480B590B6415750586059705E0F082166B
:101C40009306A406B50640F420E030E0A901811413
:101C50009104A104B104A1F460E47DE083E090E08C
:101C60000E943036A7019601261B370B480B590BF3
:101C7000CA01B901C3CF82169306A406B50660F760
:101C8000A501940160E47DE083E090E00E9430369D
:101C90006C0D7D1D8E1D9F1DB1CFF7CECF93DF93B1
:101CA00000D01F92CDB7DEB71C821B821A82198228
:101CB000109228051092290510922A0510922B05E2
:101CC000BE016F5F7F4FCE0103960E94552B698145
:101CD0007A818B819C810E944424009761F4BE012B
:101CE0006F5F7F4FCE0103960E94612B69817A81DD
:101CF0008B819C8132D50F900F900F900F90DF91C8
:101D0000CF910895FF920F931F93CF93DF93082FE6
:101D100060E070E0CB010E944A30FF24F3940E94FF
:101D20002D23EC01892B89F010E0CE3F8FEFD807EF
:101D300069F0002361F160E070E0CB010E944A305D
:101D400081E090E0892B59F322C011E029D5EC0104
:101D5000892B21F0CE3F8FEFD80759F711111EC004
:101D600011E0229609F410E00E94DD22EC01892B9B
:101D700021F0CE3F8FEFD807E1F6111111C011E02D
:101D8000CE3F8FEFD80709F410E001110BC0CE0150
:101D9000DF91CF911F910F91FF90089511E0E4CF53
:101DA00011E0F3CF60E070E0CB010E944A301F25C4
:101DB000812F90E0C7CFCF93DF9380912C058823AC
:101DC00021F060E070E0CB0150D639D6D0E0C0E021
:101DD000892B71F06AE070E080E090E00E944A3068
:101DE00081E090DF2CD62196C03D27E0D20781F715
:101DF0002BD60E949824109244051092430510920D
:101E00003D0510923E0510923F051092400510923C
:101E1000390510923A0510923B0510923C0510923C
:101E2000350510923605109237051092380510923C
:101E3000310510923205109233051092340510923C
:101E40002D0510922E0510922F05109230054EEFA1
:101E50005FEF6FEF7FEF4093BA025093BB02609346
:101E6000BC027093BD0210922C05E0E2F5E028E080
:101E7000DF011D922A95E9F710921C0510921D05AD
:101E800010921E0510921F05109218051092190548
:101E900010921A0510921B05109214051092150548
:101EA0001092160510921705109210051092110548
:101EB0001092120510921305DF91CF9108951092A0
:101EC0005005109251051092520510925305109230
:101ED0004F05809158059091590590934E05809338
:101EE0004D0510924C0510924B051092470510922B
:101EF00048051092490510924A0510925505109216
:101F0000540590E080E00895CF92DF92EF92FF9227
:101F10000F931F93CF938C01019709F055C0209127
:101F200058053091590580914D0590914E0540918D
:101F300058055091590550934E0540934D0528176B
:101F4000390781F010924C0510924B05109247050D
:101F5000109248051092490510924A0510925505B5
:101F6000109254058091580590915905019761F59B
:101F70008091540590915505892B21F48091BE02E2
:101F8000811112C080915405909155050197E1F49B
:101F90008091470590914805A0914905B0914A0567
:101FA0000197A105B10581F41092470510924805EB
:101FB0001092490510924A051092BE0282E090E00C
:101FC000909355058093540580915805909159053B
:101FD000019709F01CC180916E0590916F058017E3
:101FE000910709F014C180916A0590916B05A09149
:101FF0006C05B0916D05009709F409C12091690540
:1020000021110DC040916A0550916B0560916C05DE
:1020100070916D05452B462B472B09F4F8C0209194
:102020005405309155052230310509F0F0C020915A
:102030004B052111ECC0FC01C080D180E280F3800F
:1020400080914F05882309F4D3C080915B0590915E
:102050005C05892B09F4FEC020915B0530915C057D
:1020600081E02230310509F080E020915B0530915C
:102070005C05C1E02130310549F020915B053091CC
:102080005C05C1E02230310509F0C0E0882309F485
:1020900056C02091650530916605409167055091C5
:1020A0006805C701B6010E94F12E87FD14C020917A
:1020B000650530916605409167055091680560910E
:1020C00050057091510580915205909153050E94E1
:1020D000A22D87FD22C020916505309166054091B3
:1020E000670550916805C701B6010E94F12E1816C8
:1020F00034F5209165053091660540916705509152
:10210000680560915005709151058091520590913C
:1021100053050E94A22D811112C080915D059091FE
:102120005E05A0915F05B0916005892B8A2B8B2BF2
:1021300019F481E080934C0581E080934B05CC231A
:1021400009F456C0209165053091660540916705F8
:1021500050916805C701B6010E94A22D87FF14C0E7
:10216000209165053091660540916705509168059D
:1021700060915005709151058091520590915305E1
:102180000E94F12E87FF22C02091650530916605DF
:102190004091670550916805C701B6010E94A22DC4
:1021A000811126C020916505309166054091670533
:1021B00050916805609150057091510580915205CC
:1021C000909153050E94F12E181694F480915D05AC
:1021D00090915E05A0915F05B0916005892B8A2BD7
:1021E0008B2B19F481E080934C0581E080934B05A3
:1021F00081E090914B05911180E080934F05C09252
:102200005005D0925105E0925205F09253050130ED
:10221000110509F067C18091540590915505892BEE
:10222000D9F410925A0510924B058091BE02882372
:1022300079F082E090E090935505809354051092D8
:10224000BE02209158053091590581E0232BE9F019
:1022500080E01BC081E009CF1092BE0280915A0538
:10226000882349F010924C051092550510925405A0
:1022700010925A05EDCF8091580590915905892B00
:10228000E1F080914B0510924B052091540530915F
:1022900055052230310509F45EC088F42115310559
:1022A00009F448C02130310509F4F3C010924C05FF
:1022B00010924B0510925A0538C081E0E6CF2330CA
:1022C000310509F4B1C02430310581F7409147054B
:1022D000509148056091490570914A054115510595
:1022E0006105710561F0415051096109710940931F
:1022F0004705509348056093490570934A054091FE
:102300004705509148056091490570914A05452B54
:10231000462B472BD9F42091560530915705213093
:10232000310509F046C010924C05109255051092E7
:1023300054050CC08091BE02882341F082E090E0F9
:1023400090935505809354051092BE021092450556
:1023500080914C05CEC08823C9F380915D05909192
:102360005E05A0915F05B0916005181619061A0662
:102370001B060CF07DC0809158059091590501977E
:1023800009F076C080915D0590915E05A0915F0592
:10239000B09160058093470590934805A093490547
:1023A000B0934A0583E090E09093550580935405DF
:1023B000CDCF4091610550916205609163057091A8
:1023C0006405452B462B472BA9F010924C058091B4
:1023D000610590916205A0916305B09164058093B9
:1023E000470590934805A0934905B0934A0581E0BD
:1023F00090E0DACF882399F08091BF029091C002DB
:10240000A091C102B091C202809347059093480504
:10241000A0934905B0934A0584E090E0C5CF10929F
:102420004C0582E090E0C0CF80914705909148052F
:10243000A0914905B0914A050097A105B10559F051
:102440000197A109B1098093470590934805A0938E
:102450004905B0934A058091470590914805A091A0
:102460004905B0914A05892B8A2B8B2B09F06ECF39
:102470008091BF029091C002A091C102B091C202AE
:10248000892B8A2B8B2B09F44ECF81E080934C054E
:10249000B3CF40914705509148056091490570912F
:1024A0004A05411551056105710561F04150510919
:1024B00061097109409347055093480560934905A8
:1024C00070934A0540914705509148056091490530
:1024D00070914A05452B462B472B09F037CF8111C8
:1024E000C7CF9FCF80914505882309F431CF8091D4
:1024F0004605CF911F910F91FF90EF90DF90CF9005
:1025000008951092500510925105109252051092A4
:10251000530510924F0510925505109254051092D4
:102520004E0510924D0510926F0510926E05109297
:102530004C0510924B0510924705109248051092D9
:10254000490510924A0510924605109245051092D1
:102550006A0510926B0510926C0510926D05109231
:102560006905109265051092660510926705109234
:10257000680588EE93E0A0E0B0E08093BF029093FE
:10258000C002A093C102B093C202109261051092E2
:102590006205109263051092640510925D05109219
:1025A0005E0510925F051092600510925C05109216
:1025B0005B0581E08093BE0210925A051092590586
:1025C00010925805109257051092560590E080E041
:1025D00008958091580590915905892B19F580919E
:1025E000BE02882351F080915A05811106C081E016
:1025F0008093460580934505089520915A053091B2
:10260000BE0281E090E0332311F090E080E030E002
:1026100082239323892B21F01092460581E0EACF93
:1026200010924505089582E090E0FA01918380833D
:102630008FEF9FEF0895CF93DF93EA01009711F09A
:102640000E94B8251982188290E080E0DF91CF9136
:102650000895DB01009719F48FEF8C9308952EEF06
:102660002C93FC017096E031F10508F037C0882703
:10267000E35CFC4E8F4F0C9475366C136A13681331
:102680006613641362135E1360135C135A135813BA
:10269000551351134D1353136E1380E311968C93FE
:1026A000089589E2FBCF82E2F9CF11961C9208953A
:1026B00083E2F4CF81E2F2CF81E1F0CF87E2EECF87
:1026C0008AE2ECCF80E1EACF84E2E8CF88E2E6CF8D
:1026D00086E2E4CF81E3E2CF83E3E0CF80E2DECFA6
:1026E00080917C0590917D05089590937D05809360
:1026F0007C05089580917B05089590917B05892B39
:1027000080937B050895982F909580917B05892370
:1027100080937B05089580917A05089580917805CE
:102720009091790508956115710559F0FB0130E02C
:1027300020E070E060E02417350719F0611571059D
:1027400011F0CB010895A081B181A817B90709F450
:10275000BF012F5F3F4F3696EECF80917E058111EE
:102760001CC060D266D290937105809370050E9460
:10277000B61D0E94C81D90937505809374050E9434
:1027800045220E944C22909373058093720581E04C
:1027900080937E0590E080E0089584EF9FEF089598
:1027A0008F929F92AF92BF92CF92DF92EF92FF9261
:1027B0000F931F93CF93DF9300D000D000D01F92D0
:1027C000CDB7DEB71A86198618861F821E821D8233
:1027D0001C821B821A82198280917E0507EF1FEFEF
:1027E000882309F49CC08E010D5F1F4F9E012B5F53
:1027F0003F4FAE01495F5F4FBE01675F7F4F90E083
:1028000080E00E94C9238C01009721F00596029771
:1028100008F0DBC029853A852115310509F402C18C
:10282000ED80FE804B815C81B701640F751F8F8145
:1028300098858617970708F4F5C0E20EF31ED701B6
:102840009C91903C09F07FC04230510508F47BC058
:1028500011968C9140917C0550917D05452B09F492
:102860009CC0913F08F071C02CE1290F2D3008F475
:102870008BC02DE2290F203108F489C0903C21F44F
:102880008150823008F483C088E3890F8B3008F4CC
:1028900081C099E2C92E93E1D92EE3E1F3E16D8184
:1028A0007E81AE014F5F5F4F89859A8519955C01E6
:1028B000C114D104A1F189809A808114910479F125
:1028C0008B819C818815990508F487C010E000E091
:1028D0004B815C8170E060E0C7010E949F3601156A
:1028E0001105E9F449815A8169857A858D819E8136
:1028F000680F791FC501F6011995E980FA800D81ED
:102900001E812F81388549855A856FEF7FEF81E0E1
:1029100090E00E9464238C01892B09F056C0C80105
:102920002A960FB6F894DEBF0FBECDBFDF91CF91D0
:102930001F910F91FF90EF90DF90CF90BF90AF90DD
:102940009F908F90089580E085CF30E020E0220FA7
:10295000331FF901E059FA4F0190F081E02D3097D3
:1029600009F497CF892F90E01995009709F491CF3A
:10297000DC011296ED91FC9113971496CD90DC90AA
:10298000309709F08CCF1FC021E030E0E0CF22E08B
:1029900030E0DDCF23E030E0DACFD12CC12CEBE109
:1029A000F3E19F3F09F07BCFE0917005F091710555
:1029B000309721F4C90104EF1FEF0CC08FEF90E0B6
:1029C00019950097A9F604EF1FEF89859A8500975E
:1029D00009F4A5CF0E94B825A2CF0E9493248C01B0
:1029E00089859A850E94B82570E060E0C4010E9444
:1029F0002C2498878F830E9461239E838D836F810F
:102A000078856115710559F0C8010E9444279A879D
:102A1000898706EF1FEF892B09F058CF59CF08EFB0
:102A20001FEF56CF08EF1FEFD0CF20917E05222356
:102A300019F020E00C94CD1D87EF9FEF0895809151
:102A40007C0590917D0508950E9451220E94AB2142
:102A5000F5D0E0E7F5E088E0DF011D928A95E9F71F
:102A600010927E0590E080E008950C94092021E00A
:102A700040E050E0BA010C94CD1D86E090E0FA01F0
:102A80009183808390E080E0089547E050E06CEE11
:102A900072E049CEDF92EF92FF920F931F93CF9394
:102AA000DF938A01EC01C60FD71FE0908205F090FA
:102AB0008305D9800E947B24D816190678F082E01D
:102AC00090E0F801918380838EEF9FEFDF91CF91AB
:102AD0001F910F91FF90EF90DF900895EF2841F440
:102AE00082E090E0F8019183808384EF9FEFEECF46
:102AF00089818093810590E00196F801918380831C
:102B000090E080E0E3CFCF93DF93EA010E94BA2008
:102B1000882321F00E9488240E94BB2082E090E05C
:102B2000998388838BEF9FEFDF91CF910895CF93A7
:102B3000DF93EB0186E0FB0111928A95E9F78FEFB5
:102B40008883D8DD8983E7DD8A83E8DD9D838C83F4
:102B5000DF91CF910895CF93DF93EA010E94BD20CA
:102B6000811109C082E090E09983888385EF9FEF0F
:102B7000DF91CF91089590E080E0B7DD81E090E0B3
:102B80009983888390E080E0F3CF0F931F93CF93D6
:102B9000DF93EA018C01060F171F0E94BD208111EF
:102BA0000BC082E090E09983888385EF9FEFDF91EF
:102BB000CF911F910F910895F8018181823038F0F3
:102BC00082E090E0998388838EEF9FEFF0CF81E0E1
:102BD00090E08BDD88E090E09983888390E080E04E
:102BE000E6CFCF93DF930097D1F4EB01FB01329650
:102BF00086E0DF011D928A95E9F78FEF888385E0F3
:102C000089831A820E947B248B830E947A249D836D
:102C10008C8381E08E838F83DF91CF910895DF9144
:102C2000CF9117CD85E495E19093800580937F0542
:102C3000089580917F0590918005089510928005F8
:102C400010927F05089580918205909183050895E3
:102C5000411105C0611571058105910561F0609311
:102C60008205709383058093840590938505409336
:102C7000860581E0089580E00895FF920F931F93E9
:102C8000CF93DF938A01EC01C60FD71FF9800E9412
:102C90007B24F816190668F082E090E0F801918331
:102CA00080838EEF9FEFDF91CF911F910F91FF9067
:102CB00008956C817D818E819F814B81C9DF811157
:102CC00008C082E090E0F8019183808384EF9FEF59
:102CD000EACF89818093810590E00196F801918384
:102CE000808390E080E0DFCFCF93DF93EA01FC01A7
:102CF000E60FF71F64817581868197814381A8DF84
:102D0000811109C082E090E09983888384EF9FEF6E
:102D1000DF91CF91089581E090E09983888390E0DE
:102D200080E0F6CFE2E8F5E0408151816281738175
:102D3000480F511D611D711D408351836283738350
:102D40000895CF93C09181054C2F50E0609182058A
:102D50007091830501960E9496368C2FE3DF1092C6
:102D60008105CF910895009799F480918205909103
:102D700083052FEFFB012083892B59F020918105DA
:102D800030E02F5F3F4F2417350719F4CB01D9CF1F
:102D900060CC0895009799F4809182059091830505
:102DA0002FEFFB012083892B59F02091810530E022
:102DB0002F5F3F4F2417350719F4CB01C2CF49CC01
:102DC000089523E1AC01249FC001259F900D11249B
:102DD000E0918B05F0918C05E80FF91F2381348178
:102DE0002250310981E02230310508F080E0089559
:102DF0000F931F93CF93DF9300918D0510918E0554
:102E0000D0E0C0E080E00C171D0749F491E081118B
:102E100090E0892FDF91CF911F910F91089581113B
:102E2000F5CFCE01CEDF2196EECFA0918B05B091EC
:102E30008C05109729F120918D0530918E05821710
:102E40009307F0F453E1589F9001599F300D1124DE
:102E5000A20FB31FED91FC911197309789F0129654
:102E60008C91681768F48DE0689FE00DF11D1124C6
:102E700080819181892B21F081E09281491708F0AE
:102E800080E008959C0143E1429FC001439F900D63
:102E90001124E0918B05F0918C05E80FF91F8385D3
:102EA000823091F481E090E0658176814091C302A7
:102EB0005091C4026417750711F490E080E0892BEB
:102EC00019F081E0232B09F080E00895FC01A08136
:102ED000B1818DE0689FA00DB11D112413964D9115
:102EE0005C9185859685489F9001499F300D589F3C
:102EF000300D1124C9010196611103C0478144FDC1
:102F000004960895EF92FF920F931F93CF93DF9350
:102F1000EA01FC01E60FF71F02811381E480F580CE
:102F20004F2D6E2DC80181DF81110DC082E090E030
:102F3000998388838EEF9FEFDF91CF911F910F913F
:102F4000FF90EF900895C8013CDF882339F082E0BC
:102F500090E09983888388EF9FEFEECF1093CA02A9
:102F60000093C902E092CB02F092CC0281E090E0A3
:102F70009983888390E080E0DFCFCF92DF92EF9259
:102F8000FF920F931F93CF93DF937A01EC01C60F4B
:102F9000D71FC090C902D090CA020091CB021091F5
:102FA000CC02412F602FC60140DF811110C082E0AA
:102FB00090E0F701918380838AEF9FEFDF91CF91BB
:102FC0001F910F91FF90EF90DF90CF900895C60171
:102FD000F8DE882341F082E090E0F701918380835E
:102FE00088EF9FEFEBCF4C815D816E817F819A816D
:102FF00089818F3F41F082E090E0F70191838083E7
:103000008EEF9FEFDBCFE3E1EC9D9001ED9D300D66
:103010001124E0918B05F0918C05E20FF31F0190D4
:10302000F081E02D2DE0029FE00DF11D11240190B3
:10303000F081E02D27E0129FE00DF11D1124808327
:1030400091838B81828343835483658376831F5F5F
:103050001093CC0281E090E0F7019183808390E0AF
:1030600080E0ACCFEF92FF920F931F93CF93DF934B
:103070007A018C01060F171FC0918B05D0918C052A
:10308000209781F021E030E0F80182819381409126
:103090008D0550918E058417950710F030E020E0E3
:1030A000232B71F482E090E0F701918380838EEF0F
:1030B0009FEFDF91CF911F910F91FF90EF900895B7
:1030C00043E1489F9001499F300D1124C20FD31F47
:1030D00078DE882341F082E090E0F70191838083DD
:1030E00088EF9FEFE6CFF801248135812038310544
:1030F000C8F687818111D6CF4181842F90E08F7EE1
:10310000009741F082E090E0F7019183808386EFA1
:103110009FEFCFCF4F833E832D832681288719864B
:10312000223010F421E0288721E030E0F7013183DC
:103130002083BFCF88E090E0FA019183808390E004
:1031400080E00895FB018FEF808381E181838FEF21
:103150009FEF9383828380E890E095838483168237
:1031600017820895FB018FEF808391E09183828322
:103170009383848384E3858381E090E097838683CF
:10318000089582E090E0FA019183808380EF9FEFC1
:103190000895DF92EF92FF920F931F93CF93DF93E7
:1031A000EA01FC01E60FF71F8181813071F082E0B6
:1031B00090E0998388838FEF9FEFDF91CF911F91EC
:1031C0000F91FF90EF90DF90089582819381D480DA
:1031D0002581E680F78000918B0510918C05011503
:1031E000110539F482E090E0998388838CEF9FEF9A
:1031F000E4CF40918D0550918E058417950738F0E6
:1032000082E090E0998388838EEF9FEFD6CF892B61
:1032100039F082E090E09983888386EF9FEFCDCFED
:103220008D2D8D7FB1F72130A1F781E0D11006C03F
:1032300091E0E916F10431F080E004C0E2E0EE161E
:10324000F104D0F3882329F390E080E0BADD8823ED
:1032500039F082E090E09983888388EF9FEFADCFCB
:10326000F801D38681E08487F686E586108A178682
:1032700081E090E09983888390E080E09ECF4DE0EC
:1032800050E066E173E04FCA8F929F92BF92CF9257
:10329000DF92EF92FF920F931F93CF93DF93EA0198
:1032A000FC01E60FF71F828193810481B580E091D4
:1032B0008B05F0918C05309791F482E090E0998332
:1032C00088838CEF9FEFDF91CF911F910F91FF903B
:1032D000EF90DF90CF90BF909F908F9008952091B6
:1032E0008D0530918E058217930738F082E090E0CB
:1032F000998388838EEF9FEFE6CF23E1289F6001BB
:10330000299FD00C1124EC0DFD1DE080F180E1140B
:10331000F10499F28281081748F78DE0089F800137
:103320001124E00EF11EF70180819181892B29F68D
:10333000BB20E1F2F7E0BF9E40011124C4010E94CE
:103340007F25F70191838083E0918B05F0918C05B7
:10335000EC0DFD1D0190F081E02DE00FF11F80814B
:103360009181009739F482E090E0998388838DEF12
:103370009FEFA9CFA40170E060E00E949F3680918A
:103380008B0590918C05C80ED91EF6018081918124
:10339000080F191FF801B28281E090E099838883B9
:1033A00090E080E090CFAF92BF92CF92DF92FF92F9
:1033B0000F931F93CF93DF93EA01FC01E60FF71FF2
:1033C00082819381F48000918B0510918C05011509
:1033D000110581F482E090E0998388838CEF9FEF60
:1033E000DF91CF911F910F91FF90DF90CF90BF9011
:1033F000AF90089520918D0530918E058217930727
:1034000038F082E090E0998388838EEF9FEFE8CFD9
:103410002FEF2F0D2C3FA8F723E1289F6001299F54
:10342000D00C11240C0D1D1DF80180819181892B78
:1034300089F6FDE0FF9E50011124C5010E947F2501
:10344000F80191838083E0918B05F0918C05EC0D60
:10345000FD1D80819181009739F482E090E099838D
:1034600088838DEF9FEFBCCFA50170E060E00E94E4
:103470009F36E0918B05F0918C05EC0DFD1DF282DD
:1034800081E090E09983888390E080E0A9CFCF929B
:10349000DF92EF92FF920F931F93CF93DF93860FEC
:1034A000971FFC010281138180918B0590918C05FF
:1034B000892B81F082E090E0FA01918380838CEF88
:1034C0009FEFDF91CF911F910F91FF90EF90DF90D1
:1034D000CF900895C801B0E0A0E00197A109B1091B
:1034E0008F3F9F4FA105B10540F082E090E0FA01C7
:1034F000918380838EEF9FEFE4CF7A0183E1809FF9
:103500006001819FD00C1124C6010E947F25EC012F
:10351000009741F482E090E0F701918380838DEF82
:103520009FEFCFCFA60170E060E00E949F36D0935E
:103530008C05C0938B0510938E0500938D0590E04C
:1035400080E02FEF3FEF41E061E070E080179107EE
:1035500041F481E090E0F7019183808390E080E086
:10356000B0CF3A8B298B1B864C877E876D87188A54
:103570001F8601966396EACFEF92FF921F93CF9337
:10358000DF93EC0110E0F12CE12C6A811617B0F00A
:1035900083E0689FB0011124AE014F5E5F4FC70109
:1035A0000E94E425009721F02FEF3FEF3A8B298B03
:1035B000DF91CF911F91FF90EF900895612FCE0181
:1035C00085DC61E070E00E942C24E816F90608F41E
:1035D0007C011F5FDACFF8942091890530918A052C
:1035E00081E02115310509F080E0232B09F0789462
:1035F00008952F923F924F925F926F927F928F9297
:103600009F92AF92BF92CF92DF92EF92FF920F9371
:103610001F93CF93DF933C01660E771EF3018281E7
:1036200093814C01B12CA12CC0918B05D0918C05BC
:10363000209769F021E030E060918D0570918E0552
:103640008617970710F030E020E0232BD1F482E0BA
:1036500090E0FA01918380838EEF9FEFDF91CF910D
:103660001F910F91FF90EF90DF90CF90BF90AF90A0
:103670009F908F907F906F905F904F903F902F9092
:1036800008958092CD029092CE02A092CF02B09285
:10369000D00263E1689F9001699F300D1124C20F31
:1036A000D31FF3018181833040F082E090E0FA0182
:1036B0009183808386EF9FEFD1CF2A012B813C81BC
:1036C000232BF1F4288139819F8191FF2EC0232B78
:1036D00009F46FC0209190059A81422F490F552718
:1036E000551FBA0141E050E06138710514F050E017
:1036F00040E0452B09F45DC02A87920F9093900516
:103700008150823008F481C066DF882309F4D8C074
:10371000F3018181813009F48DC008F47BC08230CF
:1037200009F4C6C090E080E0ADC0232B09F441C08D
:1037300020918F059A81E22FE90FFF27FF1F41E0BB
:1037400050E0ED3FF10514F050E040E0452B89F1E9
:103750002A87920F90938F05D3CFA081B181A20FBA
:10376000B31F11966C91060F111D0196295F3F4FF3
:103770008417950794F38D859E85089F1001099FF6
:10378000300C189F300C1124C114D104D1F48F8156
:1037900084FF17C00E947A24F5E02F0E311C21E02F
:1037A0008215930508F420E0A701435F5F4F2111C4
:1037B0000EC082E090E0F2019183808387EF9FEF5B
:1037C0004DCF0E947A242FEF221A320AE8CF888147
:1037D0009981E80EF91EF70114830383FFEFCF1AD6
:1037E000DF0A7A018A818C151D0409F00CF48CCF54
:1037F000E881F981EE0DFF1D428150E030E020E0CC
:1038000010E000E090E080E0B3CFF12CE12CD12C6F
:10381000C12CE8CF81E090E09C838B83E9DA882398
:1038200009F480CF81E090E00E94751380E40E944B
:10383000831378CF89899A89019661F083E090E0BB
:103840009C838B8382E090E00E94751380E40E9449
:103850007D1368CF8D819E812091C3023091C40277
:1038600082179307D1F46091C7027091C802AE012C
:103870004F5E5F4F8091C5029091C6020E94032760
:103880000097E1F2789422E030E0F2013183208366
:10389000892B99F08DEF9FEFE1CE89288A288B281C
:1038A00069F6029758F6CE0167DE188A1F86E8CFC0
:1038B00082E090E09C838B8335CF90E080E0CECE99
:1038C00082E090E0F2019183808385EF9FEFC6CE86
:1038D0008F929F92AF92BF92CF92DF92EF92FF9220
:1038E0000F931F93CF93DF93EA018C01060F171FED
:1038F000F8018181833098F082E090E09983888399
:1039000086EF9FEFDF91CF911F910F91FF90EF9086
:10391000DF90CF90BF90AF909F908F90089580914F
:103920008B0590918C05892B61F081E090E02091CE
:103930008D0530918E05232B11F490E080E0892BCA
:1039400039F482E090E0998388838EEF9FEFDACF9D
:1039500042DE882309F4E0C0F8018181813009F456
:1039600096C0E8F0823099F420918D0530918E0553
:10397000E0918B05F0918C0590E080E041E050E013
:103980002817390709F0BEC033DA811117C07894BF
:1039900081E090E09983888390E080E0B3CF20912C
:1039A0008D0530918E05E0918B05F0918C0590E0AE
:1039B00080E041E050E02817390741F481E090E0D1
:1039C0000E94751380E40E948313E1CF63817481A8
:1039D000672B11F05483438301967396ECCFE091EB
:1039E0008B05F0918C05E00FF11F2381348122308B
:1039F0003105D9F4218932892F3F3F4FB1F4258118
:103A000036814091C3025091C4022417350761F5F5
:103A1000AF014F5E5F4F6091C7027091C802809105
:103A2000C5029091C6020E940327EFEFCE1ADE0A6C
:103A3000EE0AFE0A0D5E1F4F40918D0550918E05D6
:103A400070E060E0C416D506E606F70644F5009778
:103A500031F27894892B09F49BCF82E090E099832E
:103A600088838DEF9FEF4ECFC114D104E104F104A0
:103A7000E1F622303105C8F6CF017EDDE0918B05FD
:103A8000F0918C05E00FF11F108A1786CECF10E061
:103A900000E090E080E0C12CD12C7601CDCF0097E2
:103AA000C1F610E000E0812C912C540183E0E82E57
:103AB000F12C1AC0E0918B05F0918C05E00FF11FFD
:103AC00083819481029749F4F482E38282E090E05A
:103AD0000E94751380E40E947D13FFEF8F1A9F0AE6
:103AE000AF0ABF0A0D5E1F4F80918D0590918E0524
:103AF000B0E0A0E088169906AA06BB06DCF290E0CA
:103B000080E0A7CF638174816230710511F4548322
:103B100043830196739634CF82E090E09983888343
:103B200085EF9FEFEFCE0097B9F48FEFFB01808315
:103B30002091CD023091CE0243E1429FC001439FCC
:103B4000900D1124E0918B05F0918C05E80FF91F81
:103B50008285FB01818308950C94291388E090E00D
:103B6000FA019183808390E080E0089510928A05A5
:103B700010928905EBE8F5E086E0DF011D928A9559
:103B8000E9F78FE399E1909388058093870508957D
:103B9000809187059091880508952F923F924F92CA
:103BA0005F926F927F928F929F92AF92BF92CF92CD
:103BB000DF92EF92FF920F931F93CF93DF93CDB7D6
:103BC000DEB72F970FB6F894DEBF0FBECDBFF894C7
:103BD000E0918905F0918A053196F0938A05E0938A
:103BE0008905789440908B0550908C0541145104C0
:103BF00009F40CC2E0918D05F0918E05EF2B09F4CC
:103C000005C22D8749875A876B877C8798878F8362
:103C10001201B12CA12C10E000E080918D05909153
:103C20008E05A816B90618F40115110529F1F894A6
:103C30008091890590918A05019790938A058093D8
:103C400089057894C8012F960FB6F894DEBF0FBE91
:103C5000CDBFDF91CF911F910F91FF90EF90DF903B
:103C6000CF90BF90AF909F908F907F906F905F901C
:103C70004F903F902F9008957101E418F508D101FD
:103C800017968C91179781FD54C013968D919C9136
:103C90001497039709F04DC015968D919C91EF8173
:103CA000F8858E179F0709F044C0B50190E080E0C9
:103CB0007FD48A8320918B0530918C053D832C83A2
:103CC0003D85332309F44CC04C815D81452B09F4BB
:103CD0009AC180918D0590918E05A816B90608F0BD
:103CE00092C1C501CFD88823E9F06C817D816E0D2A
:103CF0007F1D7D836C83DB011F968D919C91892BA9
:103D000089F0D12CC12CF12CE12CAC81BD81129613
:103D10008C9112978E151F0409F094F450961C9202
:103D20001E921F972A81222321F0B50190E080E0A6
:103D300041D43FEFA31AB30A43E1240E311C6DCFE7
:103D4000AC81BD81ED91FC91EC0DFD1D85819681CD
:103D50000FD7BFEFEB1AFB0AEDE0CE0ED11CD5CF8B
:103D6000EC81FD81309709F44EC180918D059091D1
:103D70008E05A816B90608F046C1EE0DFF1DFF8797
:103D8000EE87C5017FD88B83882339F1AE85BF8547
:103D90001F968D919C915097019621E01D964D9113
:103DA0005C918417950709F020E02E831982712C0D
:103DB00010E000E0AE85BF8512968C91781608F46D
:103DC0005DC0EE85FF85878590890196658576853E
:103DD0000E943F36908B8787A5CFB1E0BE83E6CFA8
:103DE000992493946BC08BD6F6019683858382C009
:103DF000D601ED90FC90B7E06B9EE00CF11C112415
:103E0000F7016381748180818F3F61F121E030E0AF
:103E100002C0220F331F8A95E2F7C901092E000C58
:103E2000AA0BBB0BFB01408151816281738184230A
:103E30009523A623B72321E0892B8A2B8B2B09F40A
:103E400020E0D4012C93D70111968C91F6012385A3
:103E50003485820F932F911D880E991E1486138628
:103E600063949BC0418150E0C4010E949636EBCF21
:103E7000998206EF1FEFC5C01982C3C0F981F11105
:103E8000A0CFEDE07E9E70011124AE85BF85CD9060
:103E9000DC90CE0CDF1C15D49D838C83BB81BB23AF
:103EA00009F49ECF81E0EE85FF8527853089232B9D
:103EB00009F080E0982E882309F458C0672D8E857C
:103EC0009F8504D8D60118969C938E93179761E02E
:103ED00070E0C2D4EE85FF85218932892F3F3207F9
:103EE00009F481CFBC01C901CFD7D60116969C93A6
:103EF0008E931597D60115968D919C9116970097E4
:103F000009F4B6CFEC81FD818E0F9F1F1A969C930A
:103F10008E931997AE85BF85ED91FC911197EE0EAA
:103F2000FF1EF70121853285148613861A968C911F
:103F3000870DD9018D93711016C0EE85FF8587819D
:103F400084FF11C049855A856B857C85F9014183C1
:103F5000528363837483F701838594850496A80F45
:103F6000B91F14861386F701B287A187D60115966B
:103F70008D919C911697892B09F443C0EE85FF859E
:103F8000258136818091C3029091C4022817390798
:103F900079F019968D909C90612CD60112968C9197
:103FA0001297681608F424CF1A969C928E9219974D
:103FB000BE81BB2309F460CF61E070E0F601878128
:103FC00090854AD4D6011796ED90FC9018971596D7
:103FD0004D915C91E1E0F0E0BA81BB2311F0F0E09B
:103FE000E0E00C811D819C01B501882799278E1B7B
:103FF0009F0B6AD38C01892B21F0F6018581968174
:10400000B7D57394D7CE0FEF1FEF8CCE10E000E042
:104010000ECE2F923F924F925F926F927F928F922D
:104020009F92AF92BF92CF92DF92EF92FF920F9347
:104030001F93CF93DF9380918B0590918C0510E0B7
:1040400000E0892BA9F0C7DA0AEF1FEF882381F07F
:1040500020908D0530908E05C0918B05D0918C05F8
:10406000D12CC12C10E000E02C143D04A9F478946C
:10407000C801DF91CF911F910F91FF90EF90DF90DA
:10408000CF90BF90AF909F908F907F906F905F90F8
:104090004F903F902F900895C6010E9442178823A9
:1040A00009F18B819C810397E9F48F859889892B8D
:1040B000C9F0B60190E080E07BD221E030E08823B7
:1040C00011F030E020E044245524421A530AB12C68
:1040D000A12C912C812C8A818815190409F038F4BF
:1040E000188A1F864FEFC41AD40A6396BDCFE881A1
:1040F000F981EA0DFB1D85819681892BA1F161E093
:1041000070E087819085A8D33C01DBD28C01E881E7
:10411000F981EA0DFB1D8185928525813681200F6D
:10412000311FAC01421B530B9A0147815085421B42
:10413000530B70E060E00E949F36E881F981EA0D40
:10414000FB1DE780F084458156819301B601C201D1
:10415000BBD28C01892B39F0E881F981EA0DFB1D76
:104160008581968105D55FEF851A950A8DE0A80EA9
:10417000B11CB1CF30CA789408952F923F924F92DC
:104180005F926F927F929F92AF92BF92CF92DF9297
:10419000EF92FF920F931F93CF93DF9300D000D045
:1041A000CDB7DEB700918B0510918C0599249394BF
:1041B0000115110509F43EC0A0908D05B0908E0543
:1041C0000ADA982E8823B1F110928C0510928B0593
:1041D00010928E0510928D0510928F051092900509
:1041E0008FEF9FEFDC018093CD029093CE02A093DE
:1041F000CF02B093D00278947FD31E830D83C12C5D
:10420000D12C7601C501B0E0A0E089839A83AB830D
:10421000BC8322242A94322C89819A81AB81BC816F
:10422000C816D906EA06FB06F4F0C801A1D480E45A
:104230000E948313892D26960FB6F894DEBF0FBE19
:10424000CDBFDF91CF911F910F91FF90EF90DF9045
:10425000CF90BF90AF909F907F906F905F904F9066
:104260003F902F900895AD81BE8115968D919C91C0
:1042700016972091C3023091C40282179307D1F49C
:1042800051968D919C91EED5ED81FE818081918139
:10429000B12CA12C412C512C3201892B89F5BFEF77
:1042A000CB1ADB0AEB0AFB0AED81FE817396FE83D3
:1042B000ED83B2CFC114D104E104F10429F70297D0
:1042C00018F7ED81FE81818992898F3F980709F067
:1042D00029D5AD81BE8152963C922E925197D4CF72
:1042E0008A0D9B1DDC018D919C91009709F040D4B3
:1042F000BFEF4B1A5B0A6B0A7B0AEDE0AE0EB11CF6
:10430000AD81BE818D919C91119712964C9150E098
:1043100070E060E044165506660677060CF328D474
:10432000BECFCF93DF93EA0128DF811109C082E07D
:1043300090E09983888385EF9FEFDF91CF91089577
:1043400081E090E00E94751381E090E0998388837A
:1043500090E080E0F2CF11DF10928805109287057F
:10436000089542E050E064E673E00C949313FF92EA
:104370000F931F93CF93DF938A01EC01C60FD71FD2
:10438000F980B9D20897F816190671F068F082E042
:1043900090E0F801918380838EEF9FEFDF91CF91C2
:1043A0001F910F91FF9008956C817D818E819F8177
:1043B0004B810E942816811108C082E090E0F8012C
:1043C0009183808384EF9FEFE9CFF9800E942316C9
:1043D0004F2D50E0BE01685F7F4F0E949636898165
:1043E0000E94921681E090E0F8019183808390E032
:1043F00080E0D4CFDF92EF92FF920F931F93CF9381
:10440000DF938A01EC01C60FD71F0E9423167C019F
:10441000D98071D2DD2059F0029721E030E0D81622
:10442000190619F010F030E020E0232B79F482E037
:1044300090E0F801918380838EEF9FEFDF91CF9121
:104440001F910F91FF90EF90DF900895EF2841F4B6
:1044500082E090E0F8019183808384EF9FEFEECFBC
:10446000F9800E9423164F2D50E0BE016E5F7F4FF2
:104470000E94963689810E94921681E090E0F801B0
:104480009183808390E080E0D9CF81EB91E290939B
:1044900092058093910508958091910590919205E0
:1044A00008950895FC0111821082938382830895F8
:1044B000DB011D921C92DC011296ED91FC91139789
:1044C0007183608313967C936E9312970895FC0119
:1044D00080819181DB018D939C93A081B1811097A4
:1044E00041F08D919C9191838083892B11F4F3830A
:1044F000E2830895FC0180819181DB018D939C937F
:10450000892B11F473836283718360830895FC01A6
:1045100011821082938382830895CF93DF931F9239
:104520001F92CDB7DEB71A821982F894BE016F5F71
:104530007F4F88E995E0CBDF89819A81009709F068
:1045400017D389819A81892B89F7BE016F5F7F4FCD
:104550008CE995E0BCDF89819A81009709F008D346
:1045600089819A81892B89F778940F900F90DF9138
:10457000CF910895CF93DF931F921F92CDB7DEB7EF
:104580001A821982F894BE016F5F7F4F84E995E02B
:104590009EDF89819A81009709F0EAD289819A8108
:1045A000892B89F778940F900F90DF91CF91089520
:1045B00081E0089590E080E00895EF92FF920F93DC
:1045C0001F93CF93DF931F921F92CDB7DEB71A824E
:1045D00019828091930507EF1FEF8823A1F1F894CA
:1045E000BE016F5F7F4F8CE995E071DF7894898120
:1045F0009A81EE24E394F12C892B51F4F894BE01B6
:104600006F5F7F4F88E995E062DF7894F12CE12CB1
:1046100089819A810EEF1FEF0097A9F0FC0142817A
:10462000538164E070E075D68C01892B61F0F894B9
:1046300069817A81C701880F991F880F991F885651
:104640009A4F58DF7894C8010F900F90DF91CF9167
:104650001F910F91FF90EF9008950F931F93CF93A9
:10466000DF9300D01F92CDB7DEB71C821B821A8267
:1046700019828091930507EF1FEF8823C1F0AE01E7
:104680004D5F5F4F64E070E0CE010196B5D68C01BE
:10469000892B69F4E981FA818B819C8193838283E0
:1046A000F89469817A8184E995E002DF7894C80101
:1046B0000F900F900F900F90DF91CF911F910F915E
:1046C0000895BAD7049608958F929F92AF92BF92A1
:1046D000CF92DF92EF92FF920F931F93CF93DF93CE
:1046E0001F921F92CDB7DEB71A821982BC016F5F8D
:1046F0007F4F6330710598F0AA24AA94BA2CC501A3
:104700000F900F90DF91CF911F910F91FF90EF903D
:10471000DF90CF90BF90AF909F908F9008954115FC
:10472000510551F3480159018A016C01CADF88150E
:10473000990511F7E114F104F9F28E0D9F1DA816E9
:10474000B906D0F2809193058823F1F0F894B50171
:10475000645071099701AE014F5F5F4FC801049625
:10476000E0D65C01892B71F489819A81F8019383E9
:104770008283C601880F991F880F991FB801885638
:104780009A4F96DE7894BBCF87EFA82EBB24BA94BD
:10479000B6CFAF92BF92CF92DF92EF92FF920F937C
:1047A0001F93CF93DF931F921F92CDB7DEB71A826C
:1047B0001982892B09F047C06115710509F443C0BE
:1047C0004115510509F43FC02115310509F43BC0DD
:1047D00001151105C1F1809193058823B9F1790183
:1047E0006A015B01F894BE016F5F7F4F84E995E039
:1047F0006EDE789489819A81009759F1DC011296D6
:104800006D917C91A8010496A5D68C01E981FA816D
:10481000D501ED93FC93828193810496F6019183F7
:1048200080834FDFD7018D939C93C8010F900F9029
:10483000DF91CF911F910F91FF90EF90DF90CF907C
:10484000BF90AF9008950FEF1FEFEFCF07EF1FEF6F
:10485000ECCF0EEF1FEFE9CFCF93DF93EC01672B87
:1048600071F4F3D68C179D0760F0E6D62496C80F36
:10487000D91FE5D68C0F9D1FDF91CF910895E2D609
:10488000F1CF90E080E0F8CF0F931F93CF93DF93A9
:104890002091930521112BC08B01EC0188E995E053
:1048A00001DE8CE995E0FEDD84E995E0FBDD97D043
:1048B0000097C1F4CAD670E060E0CEDF41ED52E06F
:1048C00062E070E081D1009769F48091D10290910B
:1048D000D202CDD6B801CE0102D5009719F421E05D
:1048E00020939305DF91CF911F910F91089584EF4D
:1048F0009FEFF8CFA7C6A9C6CF93DF93A9D6EC0147
:10490000892B11F40ADE36DECE01DF91CF910895B6
:10491000CF93DF939DD6EC01892B09F4FEDDCE0108
:10492000DF91CF9108958091D1029091D2020895A4
:10493000CF93DF9380919305D0E0C0E08823D1F03E
:104940009BD6EC01892BB1F4E8DD14DE8091D10215
:104950009091D202E7D1E8D2EC01892B59F488E991
:1049600095E0D5DD8CE995E0D2DD84E995E0CFDDF9
:1049700010929305CE01DF91CF910895EF92FF92AF
:104980000F931F93CF93DF93EC017A018B010F5F9D
:104990001F4F0E9DA0010F9D500D1E9D500D112407
:1049A00070E060E00E949F3690E080E0F0E0E0E0A0
:1049B0002FEFE816F90639F4DF91CF911F910F918F
:1049C000FF90EF9008951A8219822883309711F092
:1049D000D283C1830196FE01C00FD11FEACFCF92CF
:1049E000DF92EF92FF920F931F93CF93DF930DEB24
:1049F00016E00C7F43E050E063ED72E089ED92E059
:104A00001BD483EDE82E82E0F82E99EDC92E92E0BA
:104A1000D92ECCE2D7E0D7014D915D917D01F60111
:104A2000619171916F01198308835D834C835B836E
:104A30004A837F836E839B012F5F3F4F249FC0017A
:104A4000259F900D349F900D11249987888701151B
:104A5000110511F0C80192DF88859985080F191F8B
:104A60002A96F9EDEF16F2E0FF06A9F6E2EAF5E084
:104A700088E191E0DF019C011D9221503040E1F777
:104A80001092A1051092A00510924B0710924A07B0
:104A900010924F0710924E0710924D0710924C073C
:104AA000109251071092500710925307109252071C
:104AB00010925507109254071092590710925807F8
:104AC000109257071092560710925B0710925A07E0
:104AD00010925D0710925C07109229071092280728
:104AE00010922B0710922A0790E080E0DF91CF917F
:104AF0001F910F91FF90EF90DF90CF900895009756
:104B0000F1F0F894A9EDB2E0ECE2F7E030E020E05B
:104B10004D915D9148175907A8F042815381411585
:104B2000510581F08AE0829FF001839FF00D1124EE
:104B3000E45DF84F80819181009759F4789490E07A
:104B400080E008952F5F3F4F3A962330310501F7FB
:104B5000F5CFDC0111966D917C917183608341509A
:104B6000510953834283FC012193CF017894089526
:104B7000009749F1DC018E91853041F4E0912A07DC
:104B8000F0912B073097F9F0CD0119948530D8F4C6
:104B9000282F30E0F8948FEF8C938AE0829FF00109
:104BA000839FF00D1124E45DF84F8081918112966E
:104BB0009C938E931197B183A083828193810196F8
:104BC0009383828378940895CF92DF92EF92FF923D
:104BD0000F931F93CF93DF939C0185EA95E08C7F21
:104BE0004115510509F49BC02115310509F497C001
:104BF0006115710509F493C07A01AB01B9016D5FCC
:104C00007F4F6C7F9B012F5F3F4F249F8001259F2B
:104C1000100D349F100D1124F89420914A07309103
:104C20004B07232B59F4209152073091530721153C
:104C3000310569F12017310708F058C02091540759
:104C400030915507232B91F420915207309153074F
:104C5000820F931F20915C0730915D07211531056C
:104C600009F441C02017310708F056C07894CFEFFF
:104C7000DFEF86EF9FEFF701D183C083DF91CF9104
:104C80001F910F91FF90EF90DF90CF900895C3E0B8
:104C9000D0E0C090A005D090A10525E131E02C190D
:104CA0003D092017310710F32AE02C9FF0012D9FBA
:104CB000F00D1124E45DF84F918380835583448384
:104CC000538342837783668311870087009709F0B7
:104CD00055DE0C0D1D1D1093A1050093A0057894C1
:104CE00090E080E0C8CFC4E0D0E0D3CFC3E0D0E014
:104CF0002AE02C9FF0012D9FF00D1124E45DF84F68
:104D0000918380835583448353834283778366836F
:104D1000009729F333DEE3CFC4E0D0E0E9CF8FEF93
:104D20009FEFACCF9C010397029708F069C0F894FD
:104D300084E09AE0482F50E0241735070CF44DC06A
:104D400091E08AE0829FF001839FF00D1124E45DE1
:104D5000F84F1182108215821482138212821782F8
:104D600016829923B1F180914A0790914B07892BC4
:104D7000A9F420915207309153072115310571F0A4
:104D80008091A0059091A105821B930B9093A105A2
:104D90008093A005109253071092520780915407F8
:104DA00090915507892BA9F420915C0730915D07FC
:104DB0002115310571F08091A0059091A105821B0C
:104DC000930B9093A1058093A00510925D0710921C
:104DD0005C07789490E080E00895949FF001959F9F
:104DE000F00D1124E45DF84F40815181452B31F4E1
:104DF00040855185452B11F481509CCF90E0A1CF87
:104E00008FEF9FEF08954115510549F1009739F152
:104E10006115710521F1F894209128073091290737
:104E2000232BB9F420912A0730912B07232B89F4E7
:104E3000909329078093280770932B0760932A0784
:104E4000789425E030E090E080E0FA01318320831F
:104E5000089578942FEF3FEF86EF9FEFF6CF8FEF17
:104E60009FEF0895059769F4F8941092290710921E
:104E7000280710922B0710922A07789490E080E080
:104E800008958FEF9FEF08956115710519F4F0E013
:104E9000E0E011C08530910581F4E0912807F091A0
:104EA00029073097A1F3CB0101961995009779F363
:104EB000FC0185E08193CF0108959C0123503109C5
:104EC0002230310520F72AE0289FD001299FB00D1C
:104ED0001124A45DB84F2D913C911197232BB9F269
:104EE00016962D913C9117972617370780F2F89464
:104EF00012962D913C9113972115310529F0ED91D2
:104F0000FC911197309711F47894C1CF418152816F
:104F100011965C934E932150310913963C932E9336
:104F2000129781937894C7CFEAEBF6E08EE6DF0123
:104F30001D928A95E9F7E2EAF5E088E191E0DF0168
:104F40009C011D9221503040E1F71092A105109272
:104F5000A005ECE2F7E082E3DF011D928A95E9F714
:104F6000E8E2F7E084E0DF011D928A95E9F790E03E
:104F700080E00895CF93DF93C091DF02D091E002EB
:104F8000CF3FDC0759F45DD49093E0028093DF02B9
:104F900097FF09C0D093E002C093DF0284EF9FEF38
:104FA000DF91CF91089590E080E0FACF82309105B3
:104FB00028F480935E0790E080E008958FEF9FEFE4
:104FC00008954F925F926F927F92AF92BF92CF926D
:104FD000DF92EF92FF920F931F93CF93DF931F9275
:104FE0001F92CDB7DEB71A821982009709F479C0F3
:104FF0006115710509F475C02091DF023091E0025E
:1050000007EF1FEF2F3F3F4F09F445C06B015C01D5
:10501000412C512C3201F12CE12C10E000E09E01DA
:105020002F5F3F4FA6014E195F09B5016E0D7F1D21
:105030008091DF029091E00263D4892B09F04BC08C
:1050400089819A81009741F4E114F10429F42091B7
:105050005E07222309F442C0E80EF91EEC14FD0499
:10506000D0F480E8481684E858068EE1680671049A
:1050700020F560E070E0CB010E944A302AE0420E49
:10508000511C611C711C0A3F4FEF140721F0043FB3
:105090008FEF1807A1F4C8010F900F90DF91CF9107
:1050A0001F910F91FF90EF90DF90CF90BF90AF9046
:1050B0007F906F905F904F90089501EF1FEF81E018
:1050C00090E0013F2FEF120711F090E080E0892B74
:1050D00009F4A5CFE0CF04EF1FEFDDCF0AEF1FEFFC
:1050E000DACF0FEF1FEFD7CF4F925F926F927F9281
:1050F000AF92BF92CF92DF92EF92FF920F931F93E6
:10510000CF93DF931F921F92CDB7DEB71A82198219
:10511000009709F478C06115710509F474C02091F5
:10512000DF023091E00207EF1FEF2F3F3F4F09F4FE
:1051300044C06B015C01412C512C3201F12CE12C5B
:1051400010E000E09E012F5F3F4FA6014E195F095E
:10515000B5016E0D7F1D8091DF029091E00286D334
:10516000892B09F04AC089819A81009741F4E114A2
:10517000F10429F420915E07222309F441C0E80ECE
:10518000F91EEC14FD04C8F480E4481682E45806C5
:105190008FE06806710418F560E070E0CB017AD703
:1051A0002AE0420E511C611C711C0E3F4FEF140788
:1051B00021F0043F8FEF1807A1F4C8010F900F9062
:1051C000DF91CF911F910F91FF90EF90DF90CF90E3
:1051D000BF90AF907F906F905F904F90089502EFD7
:1051E0001FEF81E090E0023F2FEF120711F090E0F7
:1051F00080E0892B09F4A6CFE0CF04EF1FEFDDCFCD
:105200000EEF1FEFDACF0FEF1FEFD7CF8091DF0246
:105210009091E0028F3F980749F00BD3892B49F416
:105220008FEF9FEF9093E0028093DF0290E080E0A9
:10523000089584EF9FEF0895CF92DF92EF92FF924F
:105240000F931F93CF93DF9321E04115510509F090
:1052500020E04150510921112CC0DC01FB01D12C6F
:10526000C12C21E022C03FEFC31AD30A7D010D916A
:105270001D91E701EA80FB80E016F106A8F4208189
:105280003181E280F380F182E08233832283ED90EA
:10529000FC9011979D0122503109E901F982E882C1
:1052A00011961C930E9320E03296C416D506D8F2C0
:1052B000D2CFDF91CF911F910F91FF90EF90DF90B0
:1052C000CF900895FC01680F791F90E080E0E61709
:1052D000F70709F408952191820F911DF8CF2091CD
:1052E0005F07211113C046DE009791F41092650705
:1052F0001092640710926307109262071092610780
:105300001092600721E020935F07089584EF9FEFDC
:105310000895AF92BF92CF92DF92EF92FF920F93D8
:105320001F93CF93DF93009709F460C04630510577
:1053300008F45CC020915F07C7EFDFEF222309F478
:1053400049C08C01060F171FF801C080D180C1141D
:10535000D10409F44EC096012A5F3F4F421753070C
:1053600008F447C07C01809164079091650793839E
:105370008283B6016C5F7F4F5801A60EB71EC8012D
:10538000A1DFF5019183808364E070E0C80119DE3C
:10539000EC01892BF9F481E090E008DEB601C80148
:1053A00004960FDEEC01892B91F462E070E0C501F8
:1053B00008DEEC01892B59F4C701DADB8091640720
:1053C000909165070196909365078093640790E03C
:1053D00080E0ECDDCE01DF91CF911F910F91FF9026
:1053E000EF90DF90CF90BF90AF900895CFEFDFEFB9
:1053F000F1CFC9EFDFEFEECF6F927F928F929F9246
:10540000AF92BF92CF92DF92EF92FF920F931F93D2
:10541000CF93DF9300D01F92CDB7DEB7009709F48A
:105420007AC04115510509F476C020915F0707EF56
:105430001FEF222309F44DC03A017B015C0164E0B7
:1054400070E0CE01019650DE8C01892B09F041C03D
:1054500009811A810115110509F45AC0480186E035
:10546000880E911CB701680D791D8091E102909121
:10547000E2020ADD6C01009709F450C0A70170E058
:1054800060E00E949F3689819A81AB81BC81EC0CDF
:10549000FD1CF70181939193A193B1937F0181E06A
:1054A00090E084DDB801C7011FDE892B31F562E091
:1054B00070E0C701800F911F17DE8C01892BE9F482
:1054C00090E080E073DDF501D182C082F30191822A
:1054D0008082C8010F900F900F900F90DF91CF91B5
:1054E0001F910F91FF90EF90DF90CF90BF90AF9002
:1054F0009F908F907F906F90089590E080E056DDB0
:10550000F50111821082F30111821082C60130DB95
:1055100009EF1FEFDECF0FEF1FEFDBCF06EF1FEF1F
:10552000D8CF0097A1F04115510589F0211531051B
:1055300071F0F90136966E177F0748F0DC012D9364
:105540003C93DA01ED93FC9390E080E008958FEFB7
:105550009FEF0895AF92BF92CF92DF92EF92FF92AA
:105560000F931F93CF93DF93009709F45FC041150A
:10557000510509F45BC06530710508F457C02091EE
:105580005F07C7EFDFEF222391F1DC01CD90DC90C4
:1055900011971296ED91FC9196012A5F3F4FC9EF4A
:1055A000DFEF2617370719F5C0916007D091610723
:1055B000209749F521E030E03093610720936007A0
:1055C0007A018C01F0936307E09362075601B4E01F
:1055D000AB0EB11CB50176DE0A0D1B1DF801208152
:1055E00031818217930729F5D701CD92DC92CE0144
:1055F000DF91CF911F910F91FF90EF90DF90CF90AF
:10560000BF90AF90089520916207309163072F5F9C
:105610003F4FCCEFDFEFE217F30790F2CBEFDFEF76
:105620002E173F0768F2D0E0C0E0CACFCFEFDFEF20
:10563000DECFC3EFDFEFDBCF84E090E0089582E0C0
:1056400090E008958CEF9FEF089580E290E0089538
:105650001092650710926407109263071092620718
:10566000109261071092600790E080E00895909397
:10567000E2028093E102089580915F07882391F010
:10568000C5DD009789F410926507109264071092A7
:1056900063071092620710926107109260071092E0
:1056A0005F07089590E080E00895009749F0611544
:1056B000710531F0FC0111821082FB011182108210
:1056C0000895F3CF26E030E040E855E260E070E076
:1056D00090E080E000C01092670710926607893062
:1056E000910508F03AC0FC018827E658F44D8F4F29
:1056F0000C947536832B8C2B952B9E2BA72BAE2BC6
:10570000B12BB42BBA2B81E090E090936707809384
:10571000660785E797E0E6C782E090E09093670729
:105720008093660782E198E0F6CF84E090E0909362
:105730006707809366078FEA98E0EDCF88E090E0F6
:1057400090936707809366078CE499E0E4CF80E14B
:1057500090E09093670780936607089580E290E059
:10576000F8CF80E490E0F5CF80E890E09093670771
:105770008093660780916607909167079160E9CFF3
:105780001F920F920FB60F9211240BB60F922F9308
:105790003F934F935F936F937F938F939F93AF93B9
:1057A000BF93EF93FF938BEC93EF9093250180933E
:1057B0002401BAD0FF91EF91BF91AF919F918F914A
:1057C0007F916F915F914F913F912F910F900BBE01
:1057D0000F900FBE0F901F9018958BEC93EF909346
:1057E000250180932401A3E7B0E08C918E7F8C93F8
:1057F000E0E2F1E080818C7F8083E1E2F1E0808172
:10580000877E808380818560808380818D7F808397
:105810008C9181608C930895E3E7F0E08081908122
:105820009E7F90838170089581E0089510926807AB
:10583000089568EE73E080E090E02CD490E080E082
:10584000089526E030E040E050E16EE070E090E046
:1058500080E041DF85E797E07BD6892B21F085E763
:1058600097E090D6F7CF90E080E00895CF92DF9256
:10587000EF92FF920F931F93CF93DF936B017A0107
:10588000E9011982188285E797E062D6892B69F1D0
:105890008601CC24C39482E0D82E809168078111C0
:1058A00010C085E797E06ED60297B9F7C0926807F7
:1058B000F801D1928F01888199810196998388831B
:1058C000ECCF888199818E159F0578F485E797E064
:1058D00059D68F3F9807A9F3F80181938F018881EA
:1058E0009981019699838883ECCF90E080E0DF91E5
:1058F000CF911F910F91FF90EF90DF90CF9008957F
:105900000F931F93CF93DF93EA01890185E797E017
:105910000E940236F801D183C08390E080E0DF91DD
:10592000CF911F910F9108958091690791E0980F91
:1059300090936907882349F021E030E030936B07AA
:1059400020936A0780936907089578940E94D3058D
:10595000F894809169078150F5CF0F931F93CF93EF
:10596000DF9310923A0A1092390ACAD3ABDEC09183
:10597000EA02D091EB02198218826FEF7FEFCB0120
:105980000E94410570E060E090E080E00E94BC036E
:10599000009709F042C00E942D0BF8947894BE0144
:1059A000615F7E4F8A819B810E94BF03892B71F4C6
:1059B0006FEF7FEFCB010E9450040E943B058823CC
:1059C00029F081E0FE01EB5EFE4F8083F89405DF55
:1059D0000E943E05882311F080E00BC00E943B0529
:1059E0008111FACF81E0FE01EB5EFE4F90819111B3
:1059F000F3CF8093390A78940E9470138C017894C5
:105A0000CB5EDE4F8091390A81110CC00E94EF0CF1
:105A10000E941F05F89490E080E0DF91CF911F91E4
:105A20000F9108950E941C050E943E058823D9F01D
:105A300081E080933A0A90913A0A81E0911180E0E6
:105A40008093390A80913A0A8111E6DE013011050E
:105A500029F40E947013892B09F4E8DE0E94701368
:105A60008C01E2DECFCF0E943B058111E1CF81E0C6
:105A700098819111DECF80E0DCCF5058BB27AA2758
:105A80000ED075C166D130F06BD120F031F49F3F5C
:105A900011F41EF45BC10EF4E095E7FB51C1E92F50
:105AA00077D180F3BA17620773078407950718F058
:105AB00071F49EF58FC10EF4E0950B2EBA2FA02D38
:105AC0000B01B90190010C01CA01A0011124FF27AB
:105AD000591B99F0593F50F4503E68F11A16F040A6
