:10000000F8C0000027C1000025C1000023C1000086
:1000100021C100001FC100001DC100001BC1000064
:1000200019C1000017C1000015C1000013C1000074
:1000300011C100000FC100000DC100000BC1000084
:1000400009C1000007C1000005C1000003C1000094
:1000500001C10000FFC00000FDC000000C94F429A5
:10006000F9C000000C94EB2D0C94212EF3C000007D
:10007000F1C00000EFC00000EDC00000EBC00000C8
:10008000E9C00000E7C00000E5C00000E3C00000D8
:100090000C94772E0C94AD2EDDC00000DBC0000068
:1000A000D9C00000D7C00000D5C00000D3C00000F8
:1000B000D1C00000CFC00000CDC00000CBC0000008
:1000C000C9C00000C7C000000C949D260C94032FEB
:1000D0000C94392FBFC000000C948F2F0C94C52FA7
:1000E000B9C0000000000A0B02090C0D0E0807033E
:1000F00004010000000000000000000000000000FB
:1001000000000000000000000000000000000000EF
:1001100012111000000000000000000000000000AC
:100120000000000000000000000001021020200874
:100130000810204010204080020102010804020142
:1001400001020408102040808040201008040201B1
:10015000800402018040201008040201080402010A
:100160000102040810204080010204081020408091
:1001700005050505070508080808020202020A0A23
:100180000808040404040101010101010101030341
:10019000030303030303040707070C0C0C0C0C0CEC
:1001A0000C0C0202020206060606060606060B0BE9
:1001B0000B0B0B0B0B0B00002200250028002B0063
:1001C0002E003100340002010000050108010B017E
:1001D00000002100240027002A002D0030003300F9
:1001E00001010000040107010A014A2ED62E622FE8
:1001F000EE2F11241FBECFEFD1E2DEBFCDBF00E056
:100200000CBF12E0A0E0B2E0E2E8F1E600E00BBFD4
:1002100002C007900D92A23EB107D9F728E0A2EEE6
:10022000B2E001C01D92A03FB207E1F710E0C9EFB4
:10023000D0E000E006C021970109802FFE010E9456
:100240008E30C53FD10780E00807A9F70E94B92783
:100250000C94BF30D5CECF93282F8823E1F0CB016B
:10026000BA01CFEFC20FEC2FF0E0EE51FD4F20812D
:10027000213059F490580E94AF289B01AC016C2F9B
:1002800070E090E080E0CF91A2C00E94AA288C2F5D
:10029000CF910C941E2BCF9108950F931F938B0138
:1002A0009C0183E036952795179507958A95D1F798
:1002B000085D1C4F462F477021E030E0F90102C075
:1002C000EE0FFF1F4A95E2F7AF01F80120812423CA
:1002D000CB010196211102C090E080E01F910F91A7
:1002E00008950F931F938B019C0183E0369527950A
:1002F000179507958A95D1F7677081E090E001C066
:10030000880F6A95EAF7F801E85DFC4F2081452BDC
:1003100031F48095822380831F910F910895822B61
:10032000FACF4F925F926F927F928F929F92AF928D
:10033000BF92CF92DF92EF92FF920F931F93CF93D2
:10034000DF934B015C0129013A01670161E0882DCF
:100350000E94582CE4012196AE01C501B401C1DF11
:1003600020E030E0A901C801B6010E948D291816CD
:100370008CF4F401EE51FD4F81E08083C801B60199
:100380000E94AF286B01C301B2010E94AF28A601F1
:10039000C40121D0CE01DF91CF911F910F91FF9029
:1003A000EF90DF90CF90BF90AF909F908F907F9015
:1003B0006F905F904F900895882341F08150682F8F
:1003C00070E090E080E050E040E08BCF0895862F11
:1003D000B9010C941E2B9C01FC01EC51FF4FE491E0
:1003E000E150E231E0F4F0E08827E650FE4F8F4F15
:1003F0000C948E300C02130216022D0242020F02E0
:100400005702630267027E029302A802BF02D4026F
:100410000F02E9020003150384B5806884BD60E023
:10042000822F0C94942C84B58062F8CF8091800048
:100430008C7F82608093800080918100807E8061CB
:10044000682B6093810050938700409386008091D1
:100450008000806880938000E2CF809180008C7F54
:1004600082608093800080918100807E8061682B13
:1004700060938100509387004093860080918000B4
:100480008062E8CF809180008C7F826080938000C2
:1004900080918100807E8061682B60938100509301
:1004A000870040938600809180008860D3CF809140
:1004B000B00080688093B0008091B100887F682B85
:1004C0006093B100ACCF8091B0008062F3CF809197
:1004D00090008C7F82608093900080919100807E5C
:1004E0008061682B60939100509397004093960031
:1004F0008091900080688093900091CF80919000CF
:100500008C7F82608093900080919100807E8061DA
:10051000682B6093910050939700409396008091D0
:1005200090008062E8CF809190008C7F8260809301
:10053000900080919100807E8061682B6093910093
:100540005093970040939600809190008860D3CF9D
:100550008091A0008C7F82608093A0008091A10098
:10056000807E8061682B6093A1005093A700409328
:10057000A6008091A00080688093A00050CF809159
:10058000A0008C7F82608093A0008091A100807E7B
:100590008061682B6093A1005093A7004093A60050
:1005A0008091A0008062E8CF8091A0008C7F826063
:1005B0008093A0008091A100807E8061682B609371
:1005C000A1005093A7004093A6008091A0008860EE
:1005D000D3CF809120018C7F826080932001809115
:1005E0002101807E8061682B609321015093270157
:1005F00040932601809120018068809320010FCFD5
:10060000809120018C7F8260809320018091210164
:10061000807E8061682B6093210150932701409375
:100620002601809120018062E8CF809120018C7F9B
:1006300082608093200180912101807E8061682BFF
:10064000609321015093270140932601809120015E
:100650008860D3CFCF93DF93882349F0EB0181509B
:100660000E94FB2A99838883DF91CF910895FB0133
:1006700011821082F9CF0F931F938B019C0183E0AD
:1006800036952795179507958A95D1F70F5C1C4FDE
:10069000462F477021E030E0F90102C0EE0FFF1F46
:1006A0004A95E2F7AF01F80120812423CB0101969E
:1006B000211102C090E080E01F910F9108950F93E7
:1006C0001F938B019C0183E036952795179507951D
:1006D0008A95D1F7677081E090E001C0880F6A9534
:1006E000EAF7F801EF5CFC4F2081452B31F480954F
:1006F000822380831F910F910895822BFACFCF928E
:10070000DF92EF92FF92CF93DF936B017C0160E069
:1007100086E3C816D104E104F10490F486E38C0D5D
:100720000E94582CE6012196AE01C701B601C7DF31
:10073000CE01DF91CF91FF90EF90DF90CF900895A1
:100740008C2DEECF882341F08150682F70E090E02F
:1007500080E050E040E0B3CF089590E080E008955D
:100760000F931F93009709F487C06115710509F471
:1007700083C000911E0210911F022091200230912F
:1007800021020E3F1F4F2F4F3F4F09F066C04FEF22
:100790005FEFBA0140931E0250931F026093200244
:1007A0007093210240911E0250911F02609120021D
:1007B00070912102DC011296ED91FC918081918172
:1007C000A281B3818093A8039093A903A093AA0365
:1007D000B093AB0384819581A681B7818093A403F4
:1007E0009093A503A093A603B093A703808591855A
:1007F000A285B3858093A0039093A103A093A20345
:10080000B093A30384859585A685B78580939C03C3
:1008100090939D03A0939E03B0939F03109298031F
:100820001092990310929A0310929B0328D684E6A3
:100830009AE090933B0380933A0390933D03809317
:100840003C030CD5009731F421E030E03093AD0348
:100850002093AC031F910F91089500911E021091F7
:100860001F022091200230912102DB010D931D9384
:100870002D933C93139796CF8FEF9FEFEBCF8F92F3
:100880009F92AF92BF92CF92DF92EF92FF921F930F
:10089000CF93DF934B015C011091AF0382E090E0B6
:1008A0009093AD038093AC0381149104A104B1042F
:1008B00041F48091AF03811104C08091AE03C1E087
:1008C0008111C0E0C12CD12C76018091AF03811140
:1008D00006C08091AE03811102C0CC23D9F083E021
:1008E00090E09093AD038093AC03CC2379F1CCE9F5
:1008F000DFEF111102C00E94C80DCE01DF91CF9130
:100900001F91FF90EF90DF90CF90BF90AF909F909E
:100910008F9008956AE070E080E090E00E94632A82
:1009200080E1C80E87E2D81EE11CF11C8FEF88160B
:100930009806A806B80631F0C1E08C149D04AE04F8
:10094000BF0408F0C0E080E0BDD4BFCFD0E0C0E07D
:10095000D0CFCF92DF92EF92FF920F931F93CF935E
:10096000DF938F3F910511F008F050C02091AC0348
:100970003091AD032330310539F02091AC03309133
:10098000AD032130310531F424E030E03093AD0384
:100990002093AC036A017B01EC0182309105A0F049
:1009A00011E0AE01C701B60158D4AB01BC01CE01C4
:1009B0001123F9F0DF91CF911F910F91FF90EF90EC
:1009C000DF90CF900C94F40F8C01000F111F065C88
:1009D0001C4FD8018D919C91892B11F30E94FE0F21
:1009E0000297F1F6D801ED91FC91CE011995182FDF
:1009F000D8CF0E94161090E080E0DF91CF911F9138
:100A00000F91FF90EF90DF90CF9008958FEF9FEFC1
:100A1000F4CF80E057C4CF93DF9386E090E09093CB
:100A2000AD038093AC03A7D4EC01EAE3F3E084E0E8
:100A3000DF011D928A95E9F70E94600D1092AD03C7
:100A40001092AC03CE01DF91CF9108958091AE0357
:100A5000089580919703089560931E0270931F027A
:100A6000809320029093210290E080E008954F92BD
:100A70005F926F927F928F929F92AF92BF92CF922E
:100A8000DF92EF92FF92CF93DF931F921F92CDB729
:100A9000DEB7C0900C02D0900D02E0900E02F090F4
:100AA0000F02A70196016091BC087091BD0880916A
:100AB000BE089091BF080E94A628882341F0C092EA
:100AC000BC08D092BD08E092BE08F092BF0866E371
:100AD00070E080E090E0CFDD9093BB088093BA088F
:100AE00043E050E0BE016F5F7F4FB4DD20911C02F8
:100AF00030911D02A981BA810E9496300E94DB28A4
:100B000020E030E040E057E30E9491299B01AC01D6
:100B10006091100270911102809112029091130263
:100B20000E9441286093CA087093CB088093CC0838
:100B30009093CD08209108023091090240910A0259
:100B400050910B020E944128209100023091010235
:100B500040910202509103020E9491296B017C0195
:100B600074D2882309F4D8C02091E2083091E308B8
:100B70004091E4085091E5086091040270910502EB
:100B8000809106029091070290580E94912920912D
:100B900014023091150240911602509117020E94E2
:100BA00042289B01AC012093CE083093CF0840939C
:100BB000D0085093D1086091180270911902809169
:100BC0001A0290911B020E9491296093D20870939F
:100BD000D3088093D4089093D50869E070E080E052
:100BE00090E05BDB5C019093C7088093C608C090DF
:100BF000D208D090D308E090D408F090D50820E037
:100C000030E04FE753E4C701B6010E94A62818164A
:100C10000CF4A1C020E030E0A901C701B6010E9498
:100C20008D2987FF03C0C12CD12C7601B701A60105
:100C3000C50111DBC0906A03D0906B03E0906C0398
:100C4000F0906D038FEFC81AD80AE80AF80AC0922C
:100C50006A03D0926B03E0926C03F0926D03C114AF
:100C6000D104E104F10499F480916E0390916F0333
:100C7000A0917003B09171030196A11DB11D8093E5
:100C80006E0390936F03A0937003B09371038090F1
:100C9000720390907303A0907403B09075036091F9
:100CA0006E0370916F0380917003909171030E94A5
:100CB000DB28A50194010E94912920E030E040E862
:100CC0005FE40E9491292B013C01C701B6010E94FB
:100CD000DB28A50194010E9491299B01AC01C3016D
:100CE000B2010E9442286093660370936703809369
:100CF0006803909369030F900F90DF91CF91FF905D
:100D0000EF90DF90CF90BF90AF909F908F907F90AB
:100D10006F905F904F90089520E030E0A901C701E7
:100D2000B6010E94A62820E030E040E85FEB87FD96
:100D300023CF20E030E0A901C701B6010E948D2930
:100D400020E030E0A90118160CF016CF20E030E0CA
:100D500040E85FE311CFC12CD12C8FE7E82E83E46C
:100D6000F82E64CF8F929F92AF92BF92DF92EF9254
:100D7000FF920F931F93CF93DF9384E090E014D101
:100D8000E0E5F3E08BE2DF011D928A95E9F780E070
:100D900090E0A0E8BFEB86A397A3A0A7B1A78DEC36
:100DA0009CECACE4BEE382A393A3A4A3B5A388E424
:100DB00097E0ABE3B5E184839583A683B78388EBA3
:100DC00099E4A5E6B4E380879187A287B3878DE98C
:100DD00092E6ABE4B7E284879587A687B7878AE077
:100DE00095E5AAE8B8E5808B918BA28BB38BA4E440
:100DF000B3E0B383A283EEE3F3E01196FC93EE93AA
:100E000088E492E0918380839383828395838483B3
:100E100084E693E015969C938E93149784E593E073
:100E200013969C938E93129786E693E017969C9365
:100E30008E931697EAECF8E08CE0DF011D928A951C
:100E4000E9F7C4EBD8E086E1FE0111928A95E9F753
:100E5000DD24D394DC8A80910C0290910D02A09144
:100E60000E02B0910F0288879987AA87BB87812CD1
:100E7000912C5401839489829A82AB82BC8266E36E
:100E800070E080E090E03BDC9F838E83DD821C86F7
:100E9000DD8A8D869E86AF86B88AE12CF12C87018B
:100EA000A801970169E070E080E090E03ADA9B8B5E
:100EB0008A8BD98ADF91CF911F910F91FF90EF908C
:100EC000DF90BF90AF909F908F9008958091B4086D
:100ED00081111DC081E08093B4088091B508909184
:100EE000B608A091B708B091B8080197A105B1055F
:100EF00071F48091B908882351F066E370E080E0D6
:100F000090E0B9DB9093BB088093BA081BDC80911A
:100F1000C00881112AC081E08093C0088091C10877
:100F20009091C208A091C308B091C4080197A1058F
:100F3000B105D9F48091C5088823B9F069E070E063
:100F400080E090E0AAD99093C7088093C60840E05B
:100F500050E0BA0180D969E070E080E090E09DD96E
:100F60009093C7088093C60827CA089560E070E090
:100F700080E89FE7089560E070E080E89FE70895CB
:100F800060E070E080E89FEF089560E070E080E846
:100F90009FEF089560E070E080EC9FEF089560E0BF
:100FA00070E080EC9FEF0895F5DF6093E2087093A6
:100FB000E3088093E4089093E508F1DF6093D60896
:100FC0007093D7088093D8089093D908CFDF6093A7
:100FD000DE087093DF088093E0089093E108CBDF90
:100FE0006093DA087093DB088093DC089093DD0847
:100FF000C7DF6093E6087093E7088093E808909352
:10100000E908C3DF6093EA087093EB088093EC086B
:101010009093ED0808950F931F938B019C01002777
:10102000112720783F770115110520483F4749F4E3
:10103000AB01BC016F77772781E0452B462B472B0F
:1010400009F480E01F910F910895E5CF4F925F92D0
:101050006F927F928F929F92AF92BF92CF92DF92C8
:10106000EF92FF920F931F93F89440908703509054
:1010700088036090890370908A03C0907B03D090AE
:101080007C03E0907D03F0907E03452B09F0A6C021
:101090009B01AC01241935094609570929013A0178
:1010A000009183031091840320918503309186037E
:1010B00048015901840C951CA61CB71C801691068A
:1010C000A206B306A0F400917F0310918003209143
:1010D0008103309182030F5F1F4F2F4F3F4F0093CB
:1010E0007F031093800320938103309382038092C7
:1010F000830390928403A0928503B09286030091AB
:101100007F031091800320918103309182038092AC
:101110008B0390928C03A0928D03B0928E03009368
:101120008F03109390032093910330939203609365
:101130008703709388038093890390938A03A301A4
:10114000920160E47DE083E090E00E9449306C0D04
:101150007D1D8E1D9F1D60937B0370937C03809388
:101160007D0390937E0300911E0210911F02209137
:101170002002309121020F3F1F4F2F4F3F4FF1F0C0
:1011800000911E0210911F02209120023091210235
:101190000E3F1F4F2F4F3F4F89F0C0901E02D0903F
:1011A0001F02E0902002F090210221E08C149D04A7
:1011B000AE04BF0408F420E02093970378941F91B5
:1011C0000F91FF90EF90DF90CF90BF90AF909F90E6
:1011D0008F907F906F905F904F9008954B015C01CE
:1011E00084189508A608B708A3019201261B370B9F
:1011F000480B590B6415750586059705E0F08216B6
:101200009306A406B50640F420E030E0A90181145D
:101210009104A104B104A1F460E47DE083E090E0D6
:101220000E944930A7019601261B370B480B590B2A
:10123000CA01B901C3CF82169306A406B50660F7AA
:10124000A501940160E47DE083E090E00E944930D4
:101250006C0D7D1D8E1D9F1DB1CFF8CECF93DF93FA
:1012600000D01F92CDB7DEB71C821B821A82198272
:101270001092930310929403109295031092960388
:10128000BE016F5F7F4FCE0103960E9432266981B7
:101290007A818B819C810E94221F009761F4BE019C
:1012A0006F5F7F4FCE0103960E943E2669817A814F
:1012B0008B819C8131D50F900F900F900F90DF9113
:1012C000CF910895FF920F931F93CF93DF93082F31
:1012D00060E070E0CB010E94632AFF24F3940E9437
:1012E0000B1EEC01892B89F010E0CE3F8FEFD80761
:1012F00069F0002361F160E070E0CB010E94632A95
:1013000081E090E0892B59F322C011E028D5EC014F
:10131000892B21F0CE3F8FEFD80759F711111EC04E
:1013200011E0229609F410E00E94BB1DEC01892B0C
:1013300021F0CE3F8FEFD807E1F6111111C011E077
:10134000CE3F8FEFD80709F410E001110BC0CE019A
:10135000DF91CF911F910F91FF90089511E0E4CF9D
:1013600011E0F3CF60E070E0CB010E94632A1F25FB
:10137000812F90E0C7CFCF93DF938091970388238D
:1013800021F060E070E0CB014FD638D6D0E0C0E06D
:10139000892B71F06AE070E080E090E00E94632A9F
:1013A00081E090DF2BD62196C03D27E0D20781F760
:1013B0002AD60E94761F1092AF031092AE031092AD
:1013C000A8031092A9031092AA031092AB031092E3
:1013D000A4031092A5031092A6031092A7031092E3
:1013E000A0031092A1031092A2031092A3031092E3
:1013F0009C0310929D0310929E0310929F031092E3
:1014000098031092990310929A0310929B034EEF47
:101410005FEF6FEF7FEF40931E0250931F026093C8
:1014200020027093210210929703EBE8F3E028E08A
:10143000DF011D922A95E9F7109287031092880325
:101440001092890310928A031092830310928403EE
:10145000109285031092860310927F0310928003EE
:10146000109281031092820310927B0310927C03EE
:1014700010927D0310927E03DF91CF910895109218
:10148000BB031092BC031092BD031092BE031092D6
:10149000BA038091C3039091C4039093B9038093DE
:1014A000B8031092B7031092B6031092B2031092D1
:1014B000B3031092B4031092B5031092C0031092BC
:1014C000BF0390E080E00895CF92DF92EF92FF9209
:1014D0000F931F93CF938C01892B09F055C0209156
:1014E000C3033091C4038091B8039091B903409134
:1014F000C3035091C4035093B9034093B803281712
:10150000390781F01092B7031092B6031092B2031C
:101510001092B3031092B4031092B5031092C0035B
:101520001092BF038091C3039091C403019761F5AA
:101530008091BF039091C003892B21F480912202F6
:10154000811112C08091BF039091C0030197E1F413
:101550008091B2039091B303A091B403B091B5030D
:101560000197A105B10581F41092B2031092B30363
:101570001092B4031092B5031092220282E090E020
:101580009093C0038093BF038091C3039091C403E1
:10159000019709F01CC18091D9039091DA0380175B
:1015A000910709F014C18091D5039091D603A091C1
:1015B000D703B091D803009709F409C12091D4034F
:1015C00021110DC04091D5035091D6036091D703EE
:1015D0007091D803452B462B472B09F4F8C0209176
:1015E000BF033091C0032230310509F0F0C02091D3
:1015F000B6032111ECC0FC01C080D180E280F380F1
:101600008091BA03882309F4D3C08091C6039091D6
:10161000C703892B09F4FDC02091C6033091C7038D
:1016200081E02230310509F080E02091C60330913D
:10163000C703C1E02130310549F02091C603309144
:10164000C703C1E02230310509F0C0E0882309F466
:1016500056C02091D0033091D1034091D2035091D4
:10166000D303C701B6010E948D2987FD14C02091C4
:10167000D0033091D1034091D2035091D3036091B4
:10168000BB037091BC038091BD039091BE030E9487
:10169000A62887FD22C02091D0033091D10340912C
:1016A000D2035091D303C701B6010E948D291816A9
:1016B00034F52091D0033091D1034091D203509161
:1016C000D3036091BB037091BC038091BD039091E3
:1016D000BE030E94A628811112C08091C803909178
:1016E000C903A091CA03B091CB03892B8A2B8B2B02
:1016F00019F481E08093B70381E08093B603CC2393
:1017000009F456C02091D0033091D1034091D20307
:101710005091D303C701B6010E94A62887FF14C0C9
:101720002091D0033091D1034091D2035091D30343
:101730006091BB037091BC038091BD039091BE0387
:101740000E948D2987FF22C02091D0033091D103C0
:101750004091D2035091D303C701B6010E94A6283D
:10176000811126C02091D0033091D1034091D20342
:101770005091D3036091BB037091BC038091BD0372
:101780009091BE030E948D29181694F48091C8038D
:101790009091C903A091CA03B091CB03892B8A2BE6
:1017A0008B2B19F481E08093B70381E08093B6031B
:1017B00081E09091B603911180E08093BA03C092CA
:1017C000BB03D092BC03E092BD03F092BE03012B99
:1017D00009F067C18091BF039091C003892BD9F4B0
:1017E0001092C5031092B60380912202882379F0EB
:1017F00082E090E09093C0038093BF031092220296
:101800002091C3033091C40381E0232BE9F080E0F1
:101810001BC081E00ACF109222028091C503882369
:1018200049F01092B7031092C0031092BF031092B8
:10183000C503EDCF8091C3039091C403892BE1F0E0
:101840008091B6031092B6032091BF033091C0037C
:101850002230310509F45EC088F42115310509F400
:1018600048C02130310509F4F3C01092B70310923B
:10187000B6031092C50338C081E0E6CF23303105AE
:1018800009F4B1C02430310581F74091B203509181
:10189000B3036091B4037091B5034115510561051F
:1018A000710561F041505109610971094093B2031A
:1018B0005093B3036093B4037093B5034091B203A4
:1018C0005091B3036091B4037091B503452B462B3F
:1018D000472BD9F42091C1033091C2032130310547
:1018E00009F046C01092B7031092C0031092BF03D4
:1018F0000CC080912202882341F082E090E0909316
:10190000C0038093BF03109222021092B003809113
:10191000B703CEC08823C9F38091C8039091C9034F
:10192000A091CA03B091CB03181619061A061B061C
:101930000CF07DC08091C3039091C403019709F01E
:1019400076C08091C8039091C903A091CA03B09159
:10195000CB038093B2039093B303A093B403B093EB
:10196000B50383E090E09093C0038093BF03CDCF95
:101970004091CC035091CD036091CE037091CF0381
:10198000452B462B472BA9F01092B7038091CC032F
:101990009091CD03A091CE03B091CF038093B20379
:1019A0009093B303A093B403B093B50381E090E0A8
:1019B000DACF882399F08091230290912402A0919C
:1019C0002502B09126028093B2039093B303A093B3
:1019D000B403B093B50384E090E0C5CF1092B70391
:1019E00082E090E0C0CF8091B2039091B303A091C8
:1019F000B403B091B5030097A105B10559F0019763
:101A0000A109B1098093B2039093B303A093B403E7
:101A1000B093B5038091B2039091B303A091B40346
:101A2000B091B503892B8A2B8B2B09F06ECF809157
:101A3000230290912402A0912502B0912602892BC5
:101A40008A2B8B2B09F44ECF81E08093B703B3CF61
:101A50004091B2035091B3036091B4037091B50308
:101A6000411551056105710561F041505109610948
:101A700071094093B2035093B3036093B40370931E
:101A8000B5034091B2035091B3036091B4037091D8
:101A9000B503452B462B472B09F037CF8111C7CF14
:101AA0009FCF8091B003882309F431CF8091B10397
:101AB000CF911F910F91FF90EF90DF90CF900895FD
:101AC0001092BB031092BC031092BD031092BE0390
:101AD0001092BA031092C0031092BF031092B90380
:101AE0001092B8031092DA031092D9031092B70340
:101AF0001092B6031092B2031092B3031092B40383
:101B00001092B5031092B1031092B0031092D50356
:101B10001092D6031092D7031092D8031092D403D8
:101B20001092D0031092D1031092D2031092D303DB
:101B300088EE93E0A0E0B0E080932302909324022B
:101B4000A0932502B09326021092CC031092CD03ED
:101B50001092CE031092CF031092C8031092C903C3
:101B60001092CA031092CB031092C7031092C603BF
:101B700081E0809322021092C5031092C403109258
:101B8000C3031092C2031092C10390E080E0089555
:101B90008091C3039091C403892B19F5809122028F
:101BA000882351F08091C503811106C081E08093A4
:101BB000B1038093B00308952091C50330912202B0
:101BC00081E090E0332311F090E080E030E0822368
:101BD0009323892B21F01092B10381E0EACF109278
:101BE000B003089582E090E0FA01918380838FEF43
:101BF0009FEF0895CF93DF93EA01009711F00E94C1
:101C000096201982188290E080E0DF91CF910895AC
:101C1000DB01009719F48FEF8C9308952EEF2C932E
:101C2000FC017096E031F10508F037C08827E45ECA
:101C3000F14F8F4F0C948E304B0E490E470E450ED0
:101C4000430E410E3D0E3F0E3B0E390E370E340E45
:101C5000300E2C0E320E4D0E80E311968C930895AB
:101C600089E2FBCF82E2F9CF11961C92089583E2BC
:101C7000F4CF81E2F2CF81E1F0CF87E2EECF8AE2CA
:101C8000ECCF80E1EACF84E2E8CF88E2E6CF86E2DB
:101C9000E4CF81E3E2CF83E3E0CF80E2DECF809147
:101CA000E7039091E80308959093E8038093E70396
:101CB00008958091E60308959091E603892B80931F
:101CC000E6030895982F90958091E60389238093E9
:101CD000E60308958091E50308958091E3039091D0
:101CE000E40308956115710559F0FB0130E020E02F
:101CF00070E060E02417350719F06115710511F0E7
:101D0000CB010895A081B181A817B90709F4BF01DB
:101D10002F5F3F4F3696EECF8091E90381111CC0B3
:101D200060D266D29093DC038093DB030E94941808
:101D30000E94A6189093E0038093DF030E94231D66
:101D40000E942A1D9093DE038093DD0381E080933F
:101D5000E90390E080E0089584EF9FEF08958F926B
:101D60009F92AF92BF92CF92DF92EF92FF920F932A
:101D70001F93CF93DF9300D000D000D01F92CDB738
:101D8000DEB71A86198618861F821E821D821C8263
:101D90001B821A8219828091E90307EF1FEF8823C3
:101DA00009F49CC08E010D5F1F4F9E012B5F3F4FBA
:101DB000AE01495F5F4FBE01675F7F4F90E080E0FB
:101DC0000E94A71E8C01009721F00596029708F04B
:101DD000DBC029853A852115310509F402C1ED8062
:101DE000FE804B815C81B701640F751F8F819885E0
:101DF0008617970708F4F5C0E20EF31ED7019C91F1
:101E0000903C09F07FC04230510508F47BC0119628
:101E10008C914091E7035091E803452B09F49CC055
:101E2000913F08F071C02CE1290F2D3008F48BC0D0
:101E30002DE2290F203108F489C0903C21F4815013
:101E4000823008F483C088E3890F8B3008F481C0A6
:101E500098E0C92E9EE0D92EE2EFFDE06D817E81F3
:101E6000AE014F5F5F4F89859A8519955C01C1145A
:101E7000D104A1F189809A808114910479F18B8138
:101E80009C818815990508F487C010E000E04B811B
:101E90005C8170E060E0C7010E94B8300115110557
:101EA000E9F449815A8169857A858D819E81680F1F
:101EB000791FC501F6011995E980FA800D811E810F
:101EC0002F81388549855A856FEF7FEF81E090E05B
:101ED0000E94421E8C01892B09F056C0C8012A9627
:101EE0000FB6F894DEBF0FBECDBFDF91CF911F912B
:101EF0000F91FF90EF90DF90CF90BF90AF909F90A9
:101F00008F90089580E085CF30E020E0220F331FCE
:101F1000F901E552FC4F0190F081E02D309709F472
:101F200097CF892F90E01995009709F491CFDC01A4
:101F30001296ED91FC9113971496CD90DC9030970A
:101F400009F08CCF1FC021E030E0E0CF22E030E08C
:101F5000DDCF23E030E0DACFD12CC12CEAEFFDE079
:101F60009F3F09F07BCFE091DB03F091DC033097DA
:101F700021F4C90104EF1FEF0CC08FEF90E0199519
:101F80000097A9F604EF1FEF89859A85009709F459
:101F9000A5CF0E949620A2CF0E94711F8C01898537
:101FA0009A850E94962070E060E0C4010E940A1F9A
:101FB00098878F830E943F1E9E838D836F817885D3
:101FC0006115710559F0C8010E9422229A878987FC
:101FD00006EF1FEF892B09F058CF59CF08EF1FEFFD
:101FE00056CF08EF1FEFD0CF2091E903222319F03D
:101FF00020E00C94AB1887EF9FEF08958091E703E2
:102000009091E80308950E942F1D0E94891CF5D02D
:10201000EBEDF3E088E0DF011D928A95E9F710927D
:10202000E90390E080E008950C94E71A21E040E095
:1020300050E0BA010C94AB1886E090E0FA0191836D
:10204000808390E080E0089547E050E06BE472E028
:1020500049CEDF92EF92FF920F931F93CF93DF93BE
:102060008A01EC01C60FD71FE090ED03F090EE035C
:10207000D9800E94591FD816190678F082E090E0A6
:10208000F801918380838EEF9FEFDF91CF911F91B5
:102090000F91FF90EF90DF900895EF2841F482E0D8
:1020A00090E0F8019183808384EF9FEFEECF8981E8
:1020B0008093EC0390E00196F8019183808390E097
:1020C00080E0E3CFCF93DF93EA010E94981B88233F
:1020D00021F00E94661F0E94991B82E090E0998384
:1020E00088838BEF9FEFDF91CF910895CF93DF939C
:1020F000EB0186E0FB0111928A95E9F78FEF888367
:10210000D8DD8983E7DD8A83E8DD9D838C83DF91D9
:10211000CF910895CF93DF93EA010E949B1B811119
:1021200009C082E090E09983888385EF9FEFDF917B
:10213000CF91089590E080E0B7DD81E090E0998351
:10214000888390E080E0F3CF0F931F93CF93DF93CA
:10215000EA018C01060F171F0E949B1B81110BC007
:1021600082E090E09983888385EF9FEFDF91CF91A4
:102170001F910F910895F8018181823038F082E03B
:1021800090E0998388838EEF9FEFF0CF81E090E01D
:102190008BDD88E090E09983888390E080E0E6CF53
:1021A000CF93DF930097D1F4EB01FB01329686E0E9
:1021B000DF011D928A95E9F78FEF888385E0898397
:1021C0001A820E94591F8B830E94581F9D838C8303
:1021D00081E08E838F83DF91CF910895DF91CF913E
:1021E00017CD84E290E19093EB038093EA03089586
:1021F0008091EA039091EB0308951092EB03109203
:10220000EA0308958091ED039091EE030895411142
:1022100005C0611571058105910561F06093ED03BD
:102220007093EE038093EF039093F0034093F103D8
:1022300081E0089580E00895FF920F931F93CF935C
:10224000DF938A01EC01C60FD71FF9800E94591F46
:10225000F816190668F082E090E0F8019183808317
:102260008EEF9FEFDF91CF911F910F91FF90089517
:102270006C817D818E819F814B81C9DF811108C076
:1022800082E090E0F8019183808384EF9FEFEACFB2
:1022900089818093EC0390E00196F801918380831B
:1022A00090E080E0DFCFCF93DF93EA01FC01E60FFF
:1022B000F71F64817581868197814381A8DF811131
:1022C00009C082E090E09983888384EF9FEFDF91DB
:1022D000CF91089581E090E09983888390E080E039
:1022E000F6CFEDEEF3E04081518162817381480FBA
:1022F000511D611D711D4083518362837383089555
:10230000CF93C091EC034C2F50E06091ED0370919E
:10231000EE0301960E94AF308C2FE3DF1092EC03A6
:10232000CF910895009799F48091ED039091EE0379
:102330002FEFFB012083892B59F02091EC0330E033
:102340002F5F3F4F2417350719F4CB01D9CF60CC4D
:102350000895009799F48091ED039091EE032FEF8B
:10236000FB012083892B59F02091EC0330E02F5F93
:102370003F4F2417350719F4CB01C2CF49CC08953C
:1023800023E1AC01249FC001259F900D1124E09111
:10239000F603F091F703E80FF91F238134812250EF
:1023A000310981E02230310508F080E008950F9373
:1023B0001F93CF93DF930091F8031091F903D0E0BE
:1023C000C0E080E00C171D0749F491E0811190E016
:1023D000892FDF91CF911F910F9108958111F5CF32
:1023E000CE01CEDF2196EECFA091F603B091F70398
:1023F000109729F12091F8033091F9038217930780
:10240000F0F453E1589F9001599F300D1124A20F11
:10241000B31FED91FC911197309789F012968C9132
:10242000681768F48DE0689FE00DF11D112480812C
:102430009181892B21F081E09281491708F080E099
:1024400008959C0143E1429FC001439F900D1124D8
:10245000E091F603F091F703E80FF91F83858230CE
:1024600091F481E090E0658176814091270250915E
:1024700028026417750711F490E080E0892B19F0A9
:1024800081E0232B09F080E00895FC01A081B18157
:102490008DE0689FA00DB11D112413964D915C91A4
:1024A00085859685489F9001499F300D589F300D36
:1024B0001124C9010196611103C0478144FD0496AE
:1024C0000895EF92FF920F931F93CF93DF93EA014A
:1024D000FC01E60FF71F02811381E480F5804F2D88
:1024E0006E2DC80181DF81110DC082E090E09983DB
:1024F00088838EEF9FEFDF91CF911F910F91FF9017
:10250000EF900895C8013CDF882339F082E090E025
:102510009983888388EF9FEFEECF10932E0200936C
:102520002D02E0922F02F092300281E090E0998338
:10253000888390E080E0DFCFCF92DF92EF92FF922E
:102540000F931F93CF93DF937A01EC01C60FD71F30
:10255000C0902D02D0902E0200912F0210913002D7
:10256000412F602FC60140DF811110C082E090E052
:10257000F701918380838AEF9FEFDF91CF911F91C5
:102580000F91FF90EF90DF90CF900895C601F8DE95
:10259000882341F082E090E0F7019183808388EF07
:1025A0009FEFEBCF4C815D816E817F819A81898124
:1025B0008F3F41F082E090E0F701918380838EEFBE
:1025C0009FEFDBCFE3E1EC9D9001ED9D300D1124F9
:1025D000E091F603F091F703E20FF31F0190F08111
:1025E000E02D2DE0029FE00DF11D11240190F081FE
:1025F000E02D27E0129FE00DF11D112480839183CF
:102600008B81828343835483658376831F5F10931A
:10261000300281E090E0F7019183808390E080E0D8
:10262000ACCFEF92FF920F931F93CF93DF937A017A
:102630008C01060F171FC091F603D091F703209766
:1026400081F021E030E0F801828193814091F8032C
:102650005091F9038417950710F030E020E0232B08
:1026600071F482E090E0F701918380838EEF9FEF19
:10267000DF91CF911F910F91FF90EF90089543E16B
:10268000489F9001499F300D1124C20FD31F78DE5F
:10269000882341F082E090E0F7019183808388EF06
:1026A0009FEFE6CFF8012481358120383105C8F647
:1026B00087818111D6CF4181842F90E08F7E009752
:1026C00041F082E090E0F7019183808386EF9FEFF5
:1026D000CFCF4F833E832D832681288719862230D2
:1026E00010F421E0288721E030E0F70131832083D6
:1026F000BFCF88E090E0FA019183808390E080E092
:102700000895FB018FEF808381E181838FEF9FEF3D
:102710009383828380E890E0958384831682178276
:102720000895FB018FEF808391E0918382839383EF
:10273000848384E3858381E090E097838683089592
:1027400082E090E0FA019183808380EF9FEF08950B
:10275000DF92EF92FF920F931F93CF93DF93EA01E3
:10276000FC01E60FF71F8181813071F082E090E07B
:10277000998388838FEF9FEFDF91CF911F910F9106
:10278000FF90EF90DF90089582819381D48025811E
:10279000E680F7800091F6031091F703011511050B
:1027A00039F482E090E0998388838CEF9FEFE4CF47
:1027B0004091F8035091F9038417950738F082E0AF
:1027C00090E0998388838EEF9FEFD6CF892B39F0E5
:1027D00082E090E09983888386EF9FEFCDCF8D2DA7
:1027E0008D7FB1F72130A1F781E0D11006C091E0D3
:1027F000E916F10431F080E004C0E2E0EE16F104E5
:10280000D0F3882329F390E080E0BADD882339F003
:1028100082E090E09983888388EF9FEFADCFF80145
:10282000D38681E08487F686E586108A178681E064
:1028300090E09983888390E080E09ECF4DE050E067
:1028400065E772E04FCA8F929F92BF92CF92DF925C
:10285000EF92FF920F931F93CF93DF93EA01FC0156
:10286000E60FF71F828193810481B580E091F60322
:10287000F091F703309791F482E090E09983888398
:102880008CEF9FEFDF91CF911F910F91FF90EF9011
:10289000DF90CF90BF909F908F9008952091F80384
:1028A0003091F9038217930738F082E090E0998322
:1028B00088838EEF9FEFE6CF23E1289F6001299F59
:1028C000D00C1124EC0DFD1DE080F180E114F10429
:1028D00099F28281081748F78DE0089F8001112442
:1028E000E00EF11EF70180819181892B29F6BB2032
:1028F000E1F2F7E0BF9E40011124C4010E945D2077
:10290000F70191838083E091F603F091F703EC0DDA
:10291000FD1D0190F081E02DE00FF11F808191817C
:10292000009739F482E090E0998388838DEF9FEFE0
:10293000A9CFA40170E060E00E94B8308091F60356
:102940009091F703C80ED91EF60180819181080F7E
:10295000191FF801B28281E090E09983888390E0AA
:1029600080E090CFAF92BF92CF92DF92FF920F9311
:102970001F93CF93DF93EA01FC01E60FF71F8281DB
:102980009381F4800091F6031091F703011511056E
:1029900081F482E090E0998388838CEF9FEFDF9150
:1029A000CF911F910F91FF90DF90CF90BF90AF908C
:1029B00008952091F8033091F9038217930738F0B6
:1029C00082E090E0998388838EEF9FEFE8CF2FEF2E
:1029D0002F0D2C3FA8F723E1289F6001299FD00CE1
:1029E00011240C0D1D1DF80180819181892B89F620
:1029F000FDE0FF9E50011124C5010E945D20F801F9
:102A000091838083E091F603F091F703EC0DFD1DB7
:102A100080819181009739F482E090E099838883E6
:102A20008DEF9FEFBCCFA50170E060E00E94B83051
:102A3000E091F603F091F703EC0DFD1DF28281E0C9
:102A400090E09983888390E080E0A9CFCF92DF92D5
:102A5000EF92FF920F931F93CF93DF93860F971FF1
:102A6000FC01028113818091F6039091F703892B79
:102A700081F082E090E0FA01918380838CEF9FEFF8
:102A8000DF91CF911F910F91FF90EF90DF90CF904A
:102A90000895C801B0E0A0E00197A109B1098F3FF6
:102AA0009F4FA105B10540F082E090E0FA019183CB
:102AB00080838EEF9FEFE4CF7A0183E1809F6001F6
:102AC000819FD00C1124C6010E945D20EC0100976B
:102AD00041F482E090E0F701918380838DEF9FEFD6
:102AE000CFCFA60170E060E00E94B830D093F7032A
:102AF000C093F6031093F9030093F80390E080E08D
:102B00002FEF3FEF41E061E070E08017910741F463
:102B100081E090E0F7019183808390E080E0B0CF86
:102B20003A8B298B1B864C877E876D87188A1F8678
:102B300001966396EACFEF92FF921F93CF93DF93B4
:102B4000EC0110E0F12CE12C6A811617B0F083E063
:102B5000689FB0011124AE014F5E5F4FC7010E9414
:102B6000C220009721F02FEF3FEF3A8B298BDF91A6
:102B7000CF911F91FF90EF900895612FCE0185DCDA
:102B800061E070E00E940A1FE816F90608F47C0173
:102B90001F5FDACFF8942091F4033091F50381E0C0
:102BA0002115310509F080E0232B09F07894089570
:102BB0002F923F924F925F926F927F928F929F924D
:102BC000AF92BF92CF92DF92EF92FF920F931F933B
:102BD000CF93DF933C01660E771EF30182819381D0
:102BE0004C01B12CA12CC091F603D091F703209792
:102BF00069F021E030E06091F8037091F9038617E5
:102C0000970710F030E020E0232BD1F482E090E031
:102C1000FA01918380838EEF9FEFDF91CF911F9117
:102C20000F91FF90EF90DF90CF90BF90AF909F906B
:102C30008F907F906F905F904F903F902F9008956E
:102C40008092310290923202A0923302B09234020A
:102C500063E1689F9001699F300D1124C20FD31F5B
:102C6000F3018181833040F082E090E0FA019183AA
:102C7000808386EF9FEFD1CF2A012B813C81232BCC
:102C8000F1F4288139819F8191FF2EC0232B09F413
:102C90006FC02091FB039A81422F490F5527551F82
:102CA000BA0141E050E06138710514F050E040E0B5
:102CB000452B09F45DC02A87920F9093FB03815046
:102CC000823008F481C066DF882309F4D8C0F3019C
:102CD0008181813009F48DC008F47BC0823009F411
:102CE000C6C090E080E0ADC0232B09F441C0209124
:102CF000FA039A81E22FE90FFF27FF1F41E050E01E
:102D0000ED3FF10514F050E040E0452B89F12A87B2
:102D1000920F9093FA03D3CFA081B181A20FB31F7A
:102D200011966C91060F111D0196295F3F4F841774
:102D3000950794F38D859E85089F1001099F300C9F
:102D4000189F300C1124C114D104D1F48F8184FF59
:102D500017C00E94581FF5E02F0E311C21E082158C
:102D6000930508F420E0A701435F5F4F21110EC0D7
:102D700082E090E0F2019183808387EF9FEF4DCF57
:102D80000E94581F2FEF221A320AE8CF88819981BA
:102D9000E80EF91EF70114830383FFEFCF1ADF0A51
:102DA0007A018A818C151D0409F00CF48CCFE8811E
:102DB000F981EE0DFF1D428150E030E020E010E08F
:102DC00000E090E080E0B3CFF12CE12CD12CC12CBD
:102DD000E8CF81E090E09C838B83E9DA882309F4D3
:102DE00080CF81E090E00E94540E80E40E94620E49
:102DF00078CF89899A89019661F083E090E09C837D
:102E00008B8382E090E00E94540E80E40E945C0E6E
:102E100068CF8D819E8120912702309128028217F0
:102E20009307D1F460912B0270912C02AE014F5E9A
:102E30005F4F8091290290912A020E94E121009720
:102E4000E1F2789422E030E0F20131832083892B93
:102E500099F08DEF9FEFE1CE89288A288B2869F6BB
:102E6000892B59F6CE0167DE188A1F86E8CF82E0EB
:102E700090E09C838B8335CF90E080E0CECE82E0E3
:102E800090E0F2019183808385EF9FEFC6CE8F9211
:102E90009F92AF92BF92CF92DF92EF92FF920F93E9
:102EA0001F93CF93DF93EA018C01060F171FF801E0
:102EB0008181833098F082E090E09983888386EF67
:102EC0009FEFDF91CF911F910F91FF90EF90DF90D7
:102ED000CF90BF90AF909F908F9008958091F60310
:102EE0009091F703892B61F081E090E02091F80345
:102EF0003091F903232B11F490E080E0892B39F411
:102F000082E090E0998388838EEF9FEFDACF42DEF4
:102F1000882309F4DFC0F8018181813009F495C06C
:102F2000E8F0823099F42091F8033091F903E091B0
:102F3000F603F091F70390E080E041E050E02817BD
:102F4000390709F0BDC033DA811117C0789481E0E8
:102F500090E09983888390E080E0B3CF2091F803DC
:102F60003091F903E091F603F091F70390E080E0EF
:102F700041E050E02817390741F481E090E00E94D9
:102F8000540E80E40E94620EE1CF63817481672B4E
:102F900011F05483438301967396ECCFE091F603CE
:102FA000F091F703E00FF11F2381348122303105C6
:102FB000D9F4218932892F3F3F4FB1F425813681E1
:102FC00040912702509128022417350761F5AF017F
:102FD0004F5E5F4F60912B0270912C02809129020D
:102FE00090912A020E94E121EFEFCE1ADE0AEE0A4A
:102FF000FE0A0D5E1F4F4091F8035091F90370E0F7
:1030000060E0C416D506E606F7063CF5009731F2F7
:103010007894892B09F49BCF82E090E09983888390
:103020008DEF9FEF4ECFC114D104E104F104E1F61E
:10303000232BD1F6CF017FDDE091F603F091F7036A
:10304000E00FF11F108A1786CFCF10E000E090E06C
:1030500080E0C12CD12C7601CECF0097C9F610E0CC
:1030600000E0812C912C540183E0E82EF12C1AC051
:10307000E091F603F091F703E00FF11F8381948153
:10308000029749F4F482E38282E090E00E94540EB9
:1030900080E40E945C0EFFEF8F1A9F0AAF0ABF0AFE
:1030A0000D5E1F4F8091F8039091F903B0E0A0E00E
:1030B00088169906AA06BB06DCF290E080E0A8CF4D
:1030C000638174816230710511F4548343830196E6
:1030D000739635CF82E090E09983888385EF9FEFE8
:1030E000F0CE0097B9F48FEFFB018083209131027D
:1030F0003091320243E1429FC001439F900D112461
:10310000E091F603F091F703E80FF91F8285FB01C8
:10311000818308950C94080E88E090E0FA01918371
:10312000808390E080E008951092F5031092F403FC
:10313000E6EFF3E086E0DF011D928A95E9F78EE184
:1031400094E19093F3038093F20308958091F20346
:103150009091F30308952F923F924F925F926F9256
:103160007F928F929F92AF92BF92CF92DF92EF9217
:10317000FF920F931F93CF93DF93CDB7DEB72F97B7
:103180000FB6F894DEBF0FBECDBFF894E091F40304
:10319000F091F5033196F093F503E093F4037894FE
:1031A0004090F6035090F7034114510409F40CC207
:1031B000E091F803F091F903EF2B09F405C22D8794
:1031C00049875A876B877C8798878F831201B12C38
:1031D000A12C10E000E08091F8039091F903A8166B
:1031E000B90618F40115110529F1F8948091F4033A
:1031F0009091F50301979093F5038093F4037894ED
:10320000C8012F960FB6F894DEBF0FBECDBFDF9179
:10321000CF911F910F91FF90EF90DF90CF90BF90D3
:10322000AF909F908F907F906F905F904F903F9066
:103230002F9008957101E418F508D10117968C912B
:10324000179781FD54C013968D919C911497039705
:1032500009F04DC015968D919C91EF81F8858E17E0
:103260009F0709F044C0B50190E080E07FD48A83D5
:103270002091F6033091F7033D832C833D85332362
:1032800009F44CC04C815D81452B09F49AC18091B1
:10329000F8039091F903A816B90608F092C1C50188
:1032A000D0D88823E9F06C817D816E0D7F1D7D83F0
:1032B0006C83DB011F968D919C91892B89F0D12C19
:1032C000C12CF12CE12CAC81BD8112968C9112970E
:1032D0008E151F0409F094F450961C921E921F97AD
:1032E0002A81222321F0B50190E080E041D43FEF14
:1032F000A31AB30A43E1240E311C6DCFAC81BD810A
:10330000ED91FC91EC0DFD1D858196810FD7BFEFEE
:10331000EB1AFB0AEDE0CE0ED11CD5CFEC81FD817E
:10332000309709F44EC18091F8039091F903A816E3
:10333000B90608F046C1EE0DFF1DFF87EE87C501F7
:1033400080D88B83882339F1AE85BF851F968D91F8
:103350009C915097019621E01D964D915C918417A8
:10336000950709F020E02E831982712C10E000E00F
:10337000AE85BF8512968C91781608F45DC0EE85F7
:10338000FF85878590890196658576850E945830EE
:10339000908B8787A5CFB1E0BE83E6CF9924939425
:1033A0006BC08BD6F6019683858382C0D601ED90E3
:1033B000FC90B7E06B9EE00CF11C1124F7016381D7
:1033C000748180818F3F61F121E030E002C0220FE3
:1033D000331F8A95E2F7C901092E000CAA0BBB0B1B
:1033E000FB01408151816281738184239523A6234F
:1033F000B72321E0892B8A2B8B2B09F420E0D40101
:103400002C93D70111968C91F60123853485820F78
:10341000932F911D880E991E1486138663949BC06A
:10342000418150E0C4010E94AF30EBCF998206EF9A
:103430001FEFC5C01982C3C0F981F111A0CFEDE023
:103440007E9E70011124AE85BF85CD90DC90CE0CA0
:10345000DF1C15D49D838C83BB81BB2309F49ECFD5
:1034600081E0EE85FF8527853089232B09F080E0F8
:10347000982E882309F458C0672D8E859F8505D81E
:10348000D60118969C938E93179761E070E0C2D492
:10349000EE85FF85218932892F3F320709F481CFDC
:1034A000BC01C901CFD7D60116969C938E93159770
:1034B000D60115968D919C911697009709F4B6CF79
:1034C000EC81FD818E0F9F1F1A969C938E93199706
:1034D000AE85BF85ED91FC911197EE0EFF1EF701B1
:1034E00021853285148613861A968C91870DD90111
:1034F0008D93711016C0EE85FF85878184FF11C002
:1035000049855A856B857C85F901418352836383A4
:103510007483F701838594850496A80FB91F1486D8
:103520001386F701B287A187D60115968D919C91DC
:103530001697892B09F443C0EE85FF8525813681D6
:1035400080912702909128022817390779F019965F
:103550008D909C90612CD60112968C9112976816D2
:1035600008F424CF1A969C928E921997BE81BB23A1
:1035700009F460CF61E070E0F601878190854AD45C
:10358000D6011796ED90FC90189715964D915C9189
:10359000E1E0F0E0BA81BB2311F0F0E0E0E00C8163
:1035A0001D819C01B501882799278E1B9F0B6AD32B
:1035B0008C01892B21F0F60185819681B7D5739412
:1035C000D7CE0FEF1FEF8CCE10E000E00ECE2F9283
:1035D0003F924F925F926F927F928F929F92AF92A3
:1035E000BF92CF92DF92EF92FF920F931F93CF93F0
:1035F000DF938091F6039091F70310E000E0892BB0
:10360000A9F0C8DA0AEF1FEF882381F02090F803B1
:103610003090F903C091F603D091F703D12CC12C5F
:1036200010E000E02C143D04A9F47894C801DF9167
:10363000CF911F910F91FF90EF90DF90CF90BF90AF
:10364000AF909F908F907F906F905F904F903F9042
:103650002F900895C6010E942112882309F18B81C1
:103660009C810397E9F48F859889892BC9F0B6016D
:1036700090E080E07BD221E030E0882311F030E060
:1036800020E044245524421A530AB12CA12C912C39
:10369000812C8A818815190409F038F4188A1F864C
:1036A0004FEFC41AD40A6396BDCFE881F981EA0DC1
:1036B000FB1D85819681892BA1F161E070E08781F6
:1036C0009085A8D33C01DBD28C01E881F981EA0D19
:1036D000FB1D8185928525813681200F311FAC012C
:1036E000421B530B9A0147815085421B530B70E0DC
:1036F00060E00E94B830E881F981EA0DFB1DE780A7
:10370000F084458156819301B601C201BBD28C0180
:10371000892B39F0E881F981EA0DFB1D85819681BD
:1037200005D55FEF851A950A8DE0A80EB11CB1CFC3
:1037300031CA789408952F923F924F925F926F9280
:103740007F929F92AF92BF92CF92DF92EF92FF92C1
:103750000F931F93CF93DF9300D000D0CDB7DEB788
:103760000091F6031091F703992493940115110524
:1037700009F43EC0A090F803B090F9030BDA982E3C
:103780008823B1F11092F7031092F6031092F90317
:103790001092F8031092FA031092FB038FEF9FEF41
:1037A000DC018093310290933202A0933302B093F4
:1037B000340278947FD31E830D83C12CD12C7601E3
:1037C000C501B0E0A0E089839A83AB83BC83222447
:1037D0002A94322C89819A81AB81BC81C816D90682
:1037E000EA06FB06F4F0C801A1D480E40E94620E50
:1037F000892D26960FB6F894DEBF0FBECDBFDF91A0
:10380000CF911F910F91FF90EF90DF90CF90BF90DD
:10381000AF909F907F906F905F904F903F902F90D0
:103820000895AD81BE8115968D919C91169720913A
:1038300027023091280282179307D1F451968D9177
:103840009C91EED5ED81FE8180819181B12CA12CDE
:10385000412C512C3201892B89F5BFEFCB1ADB0AA1
:10386000EB0AFB0AED81FE817396FE83ED83B2CFF6
:10387000C114D104E104F10429F7892B19F7ED8172
:10388000FE81818992898F3F980709F029D5AD8102
:10389000BE8152963C922E925197D4CF8A0D9B1D99
:1038A000DC018D919C91009709F040D4BFEF4B1A39
:1038B0005B0A6B0A7B0AEDE0AE0EB11CAD81BE81E6
:1038C0008D919C91119712964C9150E070E060E0C0
:1038D00044165506660677060CF328D4BECFCF9360
:1038E000DF93EA0128DF811109C082E090E099832B
:1038F000888385EF9FEFDF91CF91089581E090E07D
:103900000E94540E81E090E09983888390E080E0EB
:10391000F2CF11DF1092F3031092F203089542E008
:1039200050E063EC72E00C94720EFF920F931F93C1
:10393000CF93DF938A01EC01C60FD71FF980B9D26C
:103940000897F816190671F068F082E090E0F80127
:10395000918380838EEF9FEFDF91CF911F910F9125
:10396000FF9008956C817D818E819F814B810E94A3
:103970000711811108C082E090E0F80191838083F3
:1039800084EF9FEFE9CFF9800E9402114F2D50E0A4
:10399000BE01685F7F4F0E94AF3089810E94711124
:1039A00081E090E0F8019183808390E080E0D4CFC3
:1039B000DF92EF92FF920F931F93CF93DF938A01D1
:1039C000EC01C60FD71F0E9402117C01D98071D271
:1039D000DD2059F0029721E030E0D816190619F0E1
:1039E00010F030E020E0232B79F482E090E0F80141
:1039F000918380838EEF9FEFDF91CF911F910F9185
:103A0000FF90EF90DF900895EF2841F482E090E07E
:103A1000F8019183808384EF9FEFEECFF9800E94BD
:103A200002114F2D50E0BE016E5F7F4F0E94AF30FC
:103A300089810E94711181E090E0F8019183808377
:103A400090E080E0D9CF8FE89CE19093FD038093D4
:103A5000FC0308958091FC039091FD03089508955F
:103A6000FC0111821082938382830895DB011D92F1
:103A70001C92DC011296ED91FC9113977183608387
:103A800013967C936E9312970895FC018081918127
:103A9000DB018D939C93A081B181109741F08D91B2
:103AA0009C9191838083892B11F4F383E2830895A1
:103AB000FC0180819181DB018D939C93892B11F412
:103AC00073836283718360830895FC011182108285
:103AD000938382830895CF93DF931F921F92CDB774
:103AE000DEB71A821982F894BE016F5F7F4F83E0C0
:103AF00094E0CBDF89819A81009709F017D38981FF
:103B00009A81892B89F7BE016F5F7F4F87E094E030
:103B1000BCDF89819A81009709F008D389819A8155
:103B2000892B89F778940F900F90DF91CF910895AA
:103B3000CF93DF931F921F92CDB7DEB71A821982FF
:103B4000F894BE016F5F7F4F8FEF93E09EDF898116
:103B50009A81009709F0EAD289819A81892B89F7A5
:103B600078940F900F90DF91CF91089581E00895A0
:103B700090E080E00895EF92FF920F931F93CF9310
:103B8000DF931F921F92CDB7DEB71A821982809100
:103B9000FE0307EF1FEF8823A1F1F894BE016F5FCA
:103BA0007F4F87E094E071DF789489819A81EE24D9
:103BB000E394F12C892B51F4F894BE016F5F7F4F91
:103BC00083E094E062DF7894F12CE12C89819A8182
:103BD0000EEF1FEF0097A9F0FC014281538164E0D2
:103BE00070E074D68C01892B61F0F89469817A8138
:103BF000C701880F991F880F991F8D5F9B4F58DF52
:103C00007894C8010F900F90DF91CF911F910F9181
:103C1000FF90EF9008950F931F93CF93DF9300D001
:103C20001F92CDB7DEB71C821B821A821982809147
:103C3000FE0307EF1FEF8823C1F0AE014D5F5F4F1A
:103C400064E070E0CE010196B4D68C01892B69F452
:103C5000E981FA818B819C8193838283F8946981C5
:103C60007A818FEF93E002DF7894C8010F900F9074
:103C70000F900F90DF91CF911F910F910895B9D7B9
:103C8000049608958F929F92AF92BF92CF92DF9247
:103C9000EF92FF920F931F93CF93DF931F921F9288
:103CA000CDB7DEB71A821982BC016F5F7F4F6330D8
:103CB000710598F0AA24AA94BA2CC5010F900F9010
:103CC000DF91CF911F910F91FF90EF90DF90CF90F8
:103CD000BF90AF909F908F9008954115510551F37B
:103CE000480159018A016C01CADF8815990511F74D
:103CF000E114F104F9F28E0D9F1DA816B906D0F259
:103D00008091FE038823F1F0F894B50164507109A5
:103D10009701AE014F5F5F4FC8010496DFD65C018B
:103D2000892B71F489819A81F80193838283C6017A
:103D3000880F991F880F991FB8018D5F9B4F96DEE2
:103D40007894BBCF87EFA82EBB24BA94B6CFAF929E
:103D5000BF92CF92DF92EF92FF920F931F93CF9378
:103D6000DF931F921F92CDB7DEB71A821982892B7B
:103D700009F047C06115710509F443C041155105AB
:103D800009F43FC02115310509F43BC001151105A7
:103D9000C1F18091FE038823B9F179016A015B01C9
:103DA000F894BE016F5F7F4F8FEF93E06EDE7894E3
:103DB00089819A81009759F1DC0112966D917C916D
:103DC000A8010496A4D68C01E981FA81D501ED936E
:103DD000FC93828193810496F601918380834FDF67
:103DE000D7018D939C93C8010F900F90DF91CF91D5
:103DF0001F910F91FF90EF90DF90CF90BF90AF9009
:103E000008950FEF1FEFEFCF07EF1FEFECCF0EEF8F
:103E10001FEFE9CFCF93DF93EC01672B71F4F2D65C
:103E20008C179D0760F0E5D62496C80FD91FE4D6FD
:103E30008C0F9D1FDF91CF910895E1D6F1CF90E0D7
:103E400080E0F8CF0F931F93CF93DF932091FE0371
:103E500021112BC08B01EC0183E094E001DE87E0AF
:103E600094E0FEDD8FEF93E0FBDD97D00097C1F487
:103E7000C9D670E060E0CEDF45E352E062E070E07A
:103E800081D1009769F48091350290913602CCD6A9
:103E9000B801CE0101D5009719F421E02093FE036B
:103EA000DF91CF911F910F91089584EF9FEFF8CF8D
:103EB000A6C6A8C6CF93DF93A8D6EC01892B11F430
:103EC0000ADE36DECE01DF91CF910895CF93DF93E6
:103ED0009CD6EC01892B09F4FEDDCE01DF91CF9158
:103EE000089580913502909136020895CF93DF9323
:103EF0008091FE03D0E0C0E08823D1F09AD6EC0197
:103F0000892BB1F4E8DD14DE809135029091360200
:103F1000E7D1E8D2EC01892B59F483E094E0D5DDB8
:103F200087E094E0D2DD8FEF93E0CFDD1092FE03C7
:103F3000CE01DF91CF910895EF92FF920F931F93DF
:103F4000CF93DF93EC017A018B010F5F1F4F0E9D22
:103F5000A0010F9D500D1E9D500D112470E060E0DA
:103F60000E94B83090E080E0F0E0E0E02FEFE8164B
:103F7000F90639F4DF91CF911F910F91FF90EF90E7
:103F800008951A8219822883309711F0D283C18351
:103F90000196FE01C00FD11FEACFCF92DF92EF92C0
:103FA000FF920F931F93CF93DF9300E715E00C7FF1
:103FB00043E050E067E372E08DE392E01AD487E3D8
:103FC000E82E82E0F82E9DE3C92E92E0D92EC7EFAD
:103FD000D5E0D7014D915D917D01F601619171911F
:103FE0006F01198308835D834C835B834A837F83DE
:103FF0006E839B012F5F3F4F249FC001259F900D33
:10400000349F900D1124998788870115110511F0AF
:10401000C80192DF88859985080F191F2A96FDE34C
:10402000EF16F2E0FF06A9F6EDE0F4E080E691E09D
:10403000DF019C011D9221503040E1F710920C04E9
:1040400010920B04109216061092150610921A0682
:1040500010921906109218061092170610921C065C
:1040600010921B0610921E0610921D06109220063A
:1040700010921F0610922406109223061092220618
:1040800010922106109226061092250610922806FC
:10409000109227061092F4051092F3051092F6057F
:1040A0001092F50590E080E0DF91CF911F910F9184
:1040B000FF90EF90DF90CF9008950097F1F0F89483
:1040C000ADE3B2E0E7EFF5E030E020E04D915D9147
:1040D00048175907A8F0428153814115510581F0D5
:1040E0008AE0829FF001839FF00D1124E950FA4F7E
:1040F00080819181009759F4789490E080E0089550
:104100002F5F3F4F3A962330310501F7F5CFDC01A1
:1041100011966D917C917183608341505109538355
:104120004283FC012193CF0178940895009749F1CF
:10413000DC018E91853041F4E091F505F091F605B2
:104140003097F9F0CD0119948530D8F4282F30E05C
:10415000F8948FEF8C938AE0829FF001839FF00D9B
:104160001124E950FA4F8081918112969C938E938D
:104170001197B183A0838281938101969383828377
:1041800078940895CF92DF92EF92FF920F931F934E
:10419000CF93DF939C0180E194E08C7F4115510522
:1041A00009F49BC02115310509F497C0611571050B
:1041B00009F493C07A01AB01B9016D5F7F4F6C7F49
:1041C0009B012F5F3F4F249F8001259F100D349F3F
:1041D000100D1124F8942091150630911606232B0A
:1041E00059F420911D0630911E062115310569F103
:1041F0002017310708F058C020911F063091200683
:10420000232B91F420911D0630911E06820F931FDF
:1042100020912706309128062115310509F441C067
:104220002017310708F056C07894CFEFDFEF86EF04
:104230009FEFF701D183C083DF91CF911F910F9141
:10424000FF90EF90DF90CF900895C3E0D0E0C09052
:104250000B04D0900C042DE531E02C193D092017FA
:10426000310710F32AE02C9FF0012D9FF00D11244F
:10427000E950FA4F9183808355834483538342836B
:104280007783668311870087009709F055DE0C0D50
:104290001D1D10930C0400930B04789490E080E0B3
:1042A000C8CFC4E0D0E0D3CFC3E0D0E02AE02C9F59
:1042B000F0012D9FF00D1124E950FA4F9183808376
:1042C000558344835383428377836683009729F31E
:1042D00033DEE3CFC4E0D0E0E9CF8FEF9FEFACCF88
:1042E0009C010397029708F069C0F89484E09AE073
:1042F000482F50E0241735070CF44DC091E08AE0B8
:10430000829FF001839FF00D1124E950FA4F118232
:1043100010821582148213821282178216829923C8
:10432000B1F18091150690911606892BA9F4209180
:104330001D0630911E062115310571F080910B0488
:1043400090910C04821B930B90930C0480930B04AC
:1043500010921E0610921D0680911F069091200655
:10436000892BA9F4209127063091280621153105C3
:1043700071F080910B0490910C04821B930B90932D
:104380000C0480930B041092280610922706789450
:1043900090E080E00895949FF001959FF00D112426
:1043A000E950FA4F40815181452B31F440855185C8
:1043B000452B11F481509CCF90E0A1CF8FEF9FEF60
:1043C00008954115510549F1009739F161157105BD
:1043D00021F1F8942091F3053091F405232BB9F4E1
:1043E0002091F5053091F605232B89F49093F4057F
:1043F0008093F3057093F6056093F505789425E0B6
:1044000030E090E080E0FA013183208308957894D1
:104410002FEF3FEF86EF9FEFF6CF8FEF9FEF0895DF
:10442000059769F4F8941092F4051092F305109230
:10443000F6051092F505789490E080E008958FEFEE
:104440009FEF08956115710519F4F0E0E0E011C0E7
:104450008530910581F4E091F305F091F4053097F2
:10446000A1F3CB0101961995009779F3FC0185E042
:104470008193CF0108959C012350310922303105E9
:1044800020F72AE0289FD001299FB00D1124A950C0
:10449000BA4F2D913C911197232BB9F216962D917D
:1044A0003C9117972617370780F2F89412962D91B2
:1044B0003C9113972115310529F0ED91FC9111974D
:1044C000309711F47894C1CF4181528111965C9359
:1044D0004E932150310913963C932E93129781935A
:1044E0007894C7CFEDE6F5E086E8DF011D928A9566
:1044F000E9F7EDE0F4E080E691E0DF019C011D9238
:1045000021503040E1F710920C0410920B04E7EFB9
:10451000F5E082E3DF011D928A95E9F7E3EFF5E02C
:1045200084E0DF011D928A95E9F790E080E008952C
:10453000CF93DF93C0914302D0914402CF3FDC0779
:1045400059F45CD4909344028093430297FF09C0CE
:10455000D0934402C093430284EF9FEFDF91CF9149
:10456000089590E080E0FACF8230910528F480939E
:10457000290690E080E008958FEF9FEF08954F9215
:104580005F926F927F92AF92BF92CF92DF92EF9243
:10459000FF920F931F93CF93DF931F921F92CDB77C
:1045A000DEB71A821982009709F478C06115710587
:1045B00009F474C0209143023091440207EF1FEFC9
:1045C0002F3F3F4F09F444C06B015C01412C512C3B
:1045D0003201F12CE12C10E000E09E012F5F3F4FF3
:1045E000A6014E195F09B5016E0D7F1D8091430232
:1045F0009091440262D4892B09F04AC089819A8142
:10460000009741F4E114F10429F4209129062223B2
:1046100009F441C0E80EF91EEC14FD04C8F480E86A
:10462000481684E858068EE16806710418F560E0C3
:1046300070E0CB0148D72AE0420E511C611C711C6E
:104640000A3F4FEF140721F0043F8FEF1807A1F442
:10465000C8010F900F90DF91CF911F910F91FF90A4
:10466000EF90DF90CF90BF90AF907F906F905F9072
:104670004F90089501EF1FEF81E090E0013F2FEF91
:10468000120711F090E080E0892B09F4A6CFE0CF6B
:1046900004EF1FEFDDCF0AEF1FEFDACF0FEF1FEFB1
:1046A000D7CF4F925F926F927F92AF92BF92CF928D
:1046B000DF92EF92FF920F931F93CF93DF931F929E
:1046C0001F92CDB7DEB71A821982009709F478C01D
:1046D0006115710509F474C02091430230914402C0
:1046E00007EF1FEF2F3F3F4F09F444C06B015C0100
:1046F000412C512C3201F12CE12C10E000E09E0104
:104700002F5F3F4FA6014E195F09B5016E0D7F1D4A
:10471000809143029091440286D3892B09F04AC0CC
:1047200089819A81009741F4E114F10429F42091E0
:104730002906222309F441C0E80EF91EEC14FD04F9
:10474000C8F480E4481682E458068FE068067104D5
:1047500018F560E070E0CB01B6D62AE0420E511C9D
:10476000611C711C0E3F4FEF140721F0043F8FEFC7
:104770001807A1F4C8010F900F90DF91CF911F91FE
:104780000F91FF90EF90DF90CF90BF90AF907F9010
:104790006F905F904F90089502EF1FEF81E090E0DF
:1047A000023F2FEF120711F090E080E0892B09F40F
:1047B000A6CFE0CF04EF1FEFDDCF0EEF1FEFDACF74
:1047C0000FEF1FEFD7CF80914302909144028F3FAC
:1047D000980749F00BD3892B49F48FEF9FEF909303
:1047E00044028093430290E080E0089584EF9FEFBD
:1047F0000895CF92DF92EF92FF920F931F93CF9382
:10480000DF9321E04115510509F020E041505109A5
:1048100021112CC0DC01FB01D12CC12C21E022C0D4
:104820003FEFC31AD30A7D010D911D91E701EA8084
:10483000FB80E016F106A8F420813181E280F3804C
:10484000F182E08233832283ED90FC9011979D01E9
:1048500022503109E901F982E88211961C930E93E6
:1048600020E03296C416D506D8F2D2CFDF91CF9190
:104870001F910F91FF90EF90DF90CF900895FC0172
:10488000680F791F90E080E0E617F70709F40895B4
:104890002191820F911DF8CF20912A06211113C07A
:1048A00047DE009791F41092300610922F06109276
:1048B0002E0610922D0610922C0610922B0621E047
:1048C00020932A06089584EF9FEF0895AF92BF9238
:1048D000CF92DF92EF92FF920F931F93CF93DF93CC
:1048E000009709F460C04630510508F45CC020917F
:1048F0002A06C7EFDFEF222309F449C08C01060F17
:10490000171FF801C080D180C114D10409F44EC032
:1049100096012A5F3F4F4217530708F447C07C01B6
:1049200080912F069091300693838283B6016C5F4D
:104930007F4F5801A60EB71EC801A1DFF501918374
:10494000808364E070E0C8011ADEEC01892BF9F481
:1049500081E090E009DEB601C801049610DEEC01AA
:10496000892B91F462E070E0C50109DEEC01892B2E
:1049700059F4C701DBDB80912F0690913006019638
:104980009093300680932F0690E080E0EDDDCE011D
:10499000DF91CF911F910F91FF90EF90DF90CF901B
:1049A000BF90AF900895CFEFDFEFF1CFC9EFDFEF0A
:1049B000EECF6F927F928F929F92AF92BF92CF92E3
:1049C000DF92EF92FF920F931F93CF93DF9300D06C
:1049D0001F92CDB7DEB7009709F47AC04115510593
:1049E00009F476C020912A0607EF1FEF222309F46D
:1049F0004DC03A017B015C0164E070E0CE0101969C
:104A000050DE8C01892B09F041C009811A81011502
:104A1000110509F45AC0480186E0880E911CB701BF
:104A2000680D791D80914502909146020BDD6C0165
:104A3000009709F450C0A70170E060E00E94B83010
:104A400089819A81AB81BC81EC0CFD1CF7018193BB
:104A50009193A193B1937F0181E090E085DDB8014E
:104A6000C7011FDE892B31F562E070E0C701800FBE
:104A7000911F17DE8C01892BE9F490E080E074DD52
:104A8000F501D182C082F30191828082C8010F902A
:104A90000F900F900F90DF91CF911F910F91FF908A
:104AA000EF90DF90CF90BF90AF909F908F907F90CE
:104AB0006F90089590E080E057DDF501118210823B
:104AC000F30111821082C60131DB09EF1FEFDECF47
:104AD0000FEF1FEFDBCF06EF1FEFD8CF0097A1F04E
:104AE0004115510589F02115310571F0F90136960E
:104AF0006E177F0748F0DC012D933C93DA01ED93AC
:104B0000FC9390E080E008958FEF9FEF0895AF92BF
:104B1000BF92CF92DF92EF92FF920F931F93CF93AA
:104B2000DF93009709F45FC04115510509F45BC09C
:104B30006530710508F457C020912A06C7EFDFEFF2
:104B4000222391F1DC01CD90DC9011971296ED912A
:104B5000FC9196012A5F3F4FC9EFDFEF2617370719
:104B600019F5C0912B06D0912C06209749F521E02C
:104B700030E030932C0620932B067A018C01F093C1
:104B80002E06E0932D065601B4E0AB0EB11CB50124
:104B900076DE0A0D1B1DF8012081318182179307F3
:104BA00029F5D701CD92DC92CE01DF91CF911F91F3
:104BB0000F91FF90EF90DF90CF90BF90AF9008954E
:104BC00020912D0630912E062F5F3F4FCCEFDFEF67
:104BD000E217F30790F2CBEFDFEF2E173F0768F2F3
:104BE000D0E0C0E0CACFCFEFDFEFDECFC3EFDFEF23
:104BF000DBCF84E090E0089582E090E008958CEFB0
:104C00009FEF089580E290E0089510923006109290
:104C10002F0610922E0610922D0610922C0610923E
:104C20002B0690E080E00895909346028093450221
:104C3000089580912A06882391F0C5DD009789F4B4
:104C40001092300610922F0610922E0610922D060A
:104C500010922C0610922B0610922A06089590E0CE
:104C600080E00895009749F06115710531F0FC016D
:104C700011821082FB01118210820895F3CF26E089
:104C800030E040E855E260E070E090E080E000C095
:104C900010923206109231068930910508F03AC020
:104CA000FC018827E95AF94D8F4F0C948E3060260D
:104CB000692672267B2684268B268E2691269726A9
:104CC00081E090E0909332068093310680E496E094
:104CD00022C782E090E090933206809331068DEDFA
:104CE00096E0F6CF84E090E0909332068093310610
:104CF0008AE797E0EDCF88E090E0909332068093CA
:104D0000310687E198E0E4CF80E190E090933206AD
:104D100080933106089580E290E0F8CF80E490E03F
:104D2000F5CF80E890E09093320680933106809131
:104D30003106909132069160E9CF1F920F920FB623
:104D40000F9211240BB60F922F933F934F935F93C3
:104D50006F937F938F939F93AF93BF93EF93FF9343
:104D60008BEC93EF9093250180932401BAD0FF91AF
:104D7000EF91BF91AF919F918F917F916F915F91D3
:104D80004F913F912F910F900BBE0F900FBE0F9040
:104D90001F9018958BEC93EF90932501809324013D
:104DA000A3E7B0E08C918E7F8C93E0E2F1E080810C
:104DB0008C7F8083E1E2F1E08081877E8083808147
:104DC0008560808380818D7F80838C9181608C93CE
:104DD0000895E3E7F0E0808190819E7F9083817069
:104DE000089581E0089510923306089568EE73E007
:104DF00080E090E068D390E080E0089526E030E025
:104E000040E050E16EE070E090E080E041DF80E45F
:104E100096E0B7D5892B21F080E496E0CCD5F7CF8A
:104E200090E080E00895CF92DF92EF92FF920F938F
:104E30001F93CF93DF936B017A01E90119821882E6
:104E400080E496E09ED5892B69F18601CC24C39439
:104E500082E0D82E80913306811110C080E496E064
:104E6000AAD50297B9F7C0923306F801D1928F0103
:104E700088819981019699838883ECCF8881998173
:104E80008E159F0578F480E496E095D58F3F9807BE
:104E9000A9F3F80181938F01888199810196998303
:104EA0008883ECCF90E080E0DF91CF911F910F914C
:104EB000FF90EF90DF90CF9008950F931F93CF93C3
:104EC000DF93EA01890180E496E00E941B30F8013B
:104ED000D183C08390E080E0DF91CF911F910F914B
:104EE0000895CF92DF92EF92FF92CF93DF9380915C
:104EF000340691E0980F90933406882379F021E0EE
:104F000030E0309336062093350680933406DF91E7
:104F1000CF91FF90EF90DF90CF9008957894C0915B
:104F20004902D0914A026E8D7F8D88A199A143D10B
:104F300020E030E040E85FE4F4D16B017C016A8D51
:104F40007B8D8C8D9D8D37D19B01AC01C701B60146
:104F500099D005D16B017C010E943705B701A601EC
:104F600090E080E00E94A904F8948091340681507A
:104F7000CCCF0F931F93CF93DF931092EF08109233
:104F8000EE08D7D27CDEC0914902D0914A02198244
:104F900018826FEF7FEFCB010E942C0570E060E07C
:104FA00090E080E00E94AD03009709F03AC00E94B3
:104FB000B206F8947894BE016A5D7F4F8A819B8126
:104FC0000E94B003892B59F46FEF7FEFCB010E9451
:104FD0003F040E942605882311F081E08AA7F894F7
:104FE000D9DE0E942905882311F080E008C00E94C4
:104FF00026058111FACF81E09AA59111F6CF809311
:10500000EE0878940E944F0E8C0178948091EE08FF
:1050100081110CC00E9466070E940B05F89490E075
:1050200080E0DF91CF911F910F9108950E940905B3
:105030000E9429058823D9F081E08093EF089091A0
:10504000EF0881E0911180E08093EE088091EF08F5
:105050008111BFDE0130110529F40E944F0E892B0A
:1050600009F4C1DE0E944F0E8C01BBDECFCF0E943F
:1050700026058111E1CF81E09AA59111DECF80E074
:10508000DCCF5058BB27AA270ED00DC1FED030F080
:1050900003D120F031F49F3F11F41EF4F3C00EF45D
:1050A000E095E7FBE9C0E92F0FD180F3BA1762075B
:1050B00073078407950718F071F49EF527C10EF465
:1050C000E0950B2EBA2FA02D0B01B90190010C0118
:1050D000CA01A0011124FF27591B99F0593F50F430
:1050E000503E68F11A16F040A22F232F342F442788
:1050F000585FF3CF469537952795A795F040539580
:10510000C9F77EF41F16BA0B620B730B840BBAF04F
:105110009150A1F0FF0FBB1F661F771F881FC2F7BA
:105120000EC0BA0F621F731F841F48F487957795CE
:105130006795B795F7959E3F08F0B3CF9395880F85
:1051400008F09927EE0F97958795089571D008F488
:1051500081E0089504D06894B111D9C00895BCD0FD
:1051600088F09F5790F0B92F9927B751A0F0D1F050
:10517000660F771F881F991F1AF0BA95C9F712C0DA
:10518000B13081F0C3D0B1E00895C0C0672F782F4F
:105190008827B85F39F0B93FCCF386957795679546
:1051A000B395D9F73EF490958095709561957F4FB2
:1051B0008F4F9F4F0895E89409C097FB3EF4909558
:1051C0008095709561957F4F8F4F9F4F9923A9F0E0
:1051D000F92F96E9BB279395F6958795779567956F
:1051E000B795F111F8CFFAF4BB0F11F460FF1BC0B3
:1051F0006F5F7F4F8F4F9F4F16C0882311F096E946
:1052000011C0772321F09EE8872F762F05C06623F3
:1052100071F096E8862F70E060E02AF09A95660FAC
:10522000771F881FDAF7880F9695879597F9089565
:10523000990F0008550FAA0BE0E8FEEF16161706A7
:10524000E807F907C0F012161306E407F50798F00F
:10525000621B730B840B950B39F40A2661F0232B28
:10526000242B252B21F408950A2609F4A140A695A4
:105270008FEF811D811D089597F99F6780E870E089
:1052800060E008959FEF80EC089500240A941616BC
:10529000170618060906089500240A941216130624
:1052A000140605060895092E0394000C11F48823B2
:1052B00052F0BB0F40F4BF2B11F460FF04C06F5FCE
:1052C0007F4F8F4F9F4F089557FD9058440F551FA4
:1052D00059F05F3F71F04795880F97FB991F61F078
:1052E0009F3F79F087950895121613061406551FEF
:1052F000F2CF4695F1DF08C0161617061806991F5B
:10530000F1CF86957105610508940895E894BB274F
:1053100066277727CB0197F908958ADF08F48FEF86
:1053200008950BD0C0CFB1DF28F0B6DF18F0952379
:1053300009F0A2CFA7CF1124EACFC6DFA0F3959F33
:10534000D1F3950F50E0551F629FF001729FBB276C
:10535000F00DB11D639FAA27F00DB11DAA1F649F18
:105360006627B00DA11D661F829F2227B00DA11DCB
:10537000621F739FB00DA11D621F839FA00D611D51
:10538000221F749F3327A00D611D231F849F600D72
:10539000211D822F762F6A2F11249F5750408AF0AB
:1053A000E1F088234AF0EE0FFF1FBB1F661F771F37
:1053B000881F91505040A9F79E3F510570F05CCF77
:1053C000A6CF5F3FECF3983EDCF386957795679523
:1053D000B795F795E7959F5FC1F7FE2B880F911D55
:1053E0009695879597F908951F920F920FB60F9291
:1053F00011242F933F938F939F93AF93BF938091EB
:10540000380690913906A0913A06B0913B0630914A
:10541000370623E0230F2D3758F50196A11DB11D46
:10542000209337068093380690933906A0933A0666
:10543000B0933B0680913C0690913D06A0913E06BC
:10544000B0913F060196A11DB11D80933C0690933B
:105450003D06A0933E06B0933F06BF91AF919F914A
:105460008F913F912F910F900FBE0F901F90189525
:1054700026E8230F0296A11DB11DD2CF3FB7F894A5
:1054800080913C0690913D06A0913E06B0913F066A
:1054900026B5A89B05C02F3F19F00196A11DB11D8F
:1054A0003FBFBA2FA92F982F8827BC01CD01620FCB
:1054B000711D811D911D42E0660F771F881F991F86
:1054C0004A95D1F708958F929F92AF92BF92CF9253
:1054D000DF92EF92FF926B017C01D0DF4B015C0108
:1054E000C114D104E104F104D9F0D2D5C7DF6819A1
:1054F00079098A099B09683E73408105910580F30B
:1055000021E0C21AD108E108F10888EE880E83E094
:10551000981EA11CB11CC114D104E104F10431F79F
:10552000FF90EF90DF90CF90BF90AF909F908F90C3
:105530000895789484B5826084BD84B5816084BD0B
:1055400085B5826085BD85B5816085BDEEE6F0E0FC
:10555000808181608083E1E8F0E010828081826058
:105560008083808181608083E0E8F0E080818160D9
:105570008083E1EBF0E0808184608083E0EBF0E009
:10558000808181608083E1E9F0E0808182608083B6
:10559000808181608083E0E9F0E0808181608083A8
:1055A000E1EAF0E080818260808380818160808395
:1055B000E0EAF0E0808181608083E1E2F1E08081D7
:1055C00082608083808181608083E0E2F1E080817D
:1055D00081608083EAE7F0E080818460808380815D
:1055E0008260808380818160808380818068808305
:1055F0001092C1000895863308F0865320917B00F5
:10560000982F9870277F922B90937B0020914702D0
:1056100090E4299F900111248770822B80937C0055
:1056200080917A00806480937A0080917A0086FD70
:10563000FCCF809178009091790008951F93CF93CB
:10564000DF93182FEB0161E033D1209731F460E054
:10565000812FDF91CF911F9167C1CF3FD10511F409
:1056600061E0F6CFE12FF0E0EC51FF4FE491E15023
:10567000E23108F0B2C0F0E08827EF5BF44D8F4FC5
:105680004DC5532B5B2B602B6A2B742BED2B7E2B84
:10569000862B8E2B982BA22BAC2BBB2BC52BED2B4B
:1056A000CF2BD92BE32B84B5806884BDC7BDDF9198
:1056B000CF911F91089584B5806284BDC8BDF7CF96
:1056C00080918000806880938000D0938900C0938F
:1056D0008800EDCF80918000806280938000D0931D
:1056E0008B00C0938A00E3CF809180008860809314
:1056F0008000D0938D00C0938C00D9CF8091B000F2
:1057000080688093B000C093B300D1CF8091B00087
:1057100080628093B000C093B400C9CF80919000A4
:10572000806880939000D0939900C0939800BFCF79
:1057300080919000806280939000D0939B00C093F2
:105740009A00B5CF80919000886080939000D093AC
:105750009D00C0939C00ABCF8091A0008068809397
:10576000A0008091A0008F7B8093A000D093A9001F
:10577000C093A8009CCF8091A00080628093A0007D
:10578000D093AB00C093AA0092CF8091A000886014
:105790008093A000D093AD00C093AC0088CF8091DF
:1057A0002001806880932001D0932901C0932801B3
:1057B0007ECF80912001806280932001D0932B01C5
:1057C000C0932A0174CF80912001886080932001CA
:1057D000D0932D01C0932C016ACFC038D1050CF0B5
:1057E0003FCF35CF8150823108F059C0E82FF0E02B
:1057F0008827E350F44D8F4F91C41D2C212C0F2C82
:10580000152C192C4F2C242C2A2C2E2C342C382CD3
:105810003C2C422C462C4F2C4A2C502C542C809142
:1058200080008F77809380000895809180008F7D25
:10583000F9CF80918000877FF5CF84B58F7784BDC5
:10584000089584B58F7DFBCF8091B0008F778093D2
:10585000B00008958091B0008F7DF9CF80919000C5
:105860008F77809390000895809190008F7DF9CF7D
:1058700080919000877FF5CF8091A0008F778093F3
:10588000A00008958091A0008F7DF9CF8091A000A5
:10589000877FF5CF809120018F7780932001089535
:1058A000809120018F7DF9CF80912001877FF5CFF6
:1058B000CF93DF9390E0FC01E65DFE4F2491805989
:1058C0009E4FFC0184918823C9F090E0880F991FB6
:1058D000FC01E053FE4FA591B491FC01EA54FE4F48
:1058E000C591D49161110DC09FB7F8948C9120950A
:1058F00082238C938881282328839FBFDF91CF91B7
:105900000895623051F49FB7F8943C91822F8095AE
:1059100083238C93E8812E2BEFCF8FB7F894EC91F3
:105920002E2B2C938FBFEACF1F93CF93DF93282F7B
:1059300030E0F901EC51FF4F8491F901E65DFE4F33
:10594000D491F901E059FE4FC491CC23A1F0162F58
:10595000811148DFEC2FF0E0EE0FFF1FEA54FE4FFD
:10596000A591B4918FB7F894EC91111108C0D0951E
:10597000DE23DC938FBFDF91CF911F910895DE2B43
:10598000F8CFFC01918D228D892F90E0805C9F4F94
:10599000821B91098F7399270895FC01918D828D47
:1059A000981731F0828DE80FF11D858D90E00895F4
:1059B0008FEF9FEF0895FC01918D828D981761F014
:1059C000A28DAE0FBF2FB11D5D968C91928D9F5F02
:1059D0009F73928F90E008958FEF9FEF0895FC01E1
:1059E000538D448D252F30E0842F90E0821B930B44
:1059F000541710F0CF96089501970895FC01A48DD7
:105A0000A80FB92FB11DA35ABF4F2C91848D90E0E0
:105A100001968F739927848FA689B7892C93A089C3
:105A2000B1898C91837080648C93938D848D98134D
:105A300006C00288F389E02D80818F7D80830895E0
:105A4000CF93DF93EC01888D8823B1F0AA89BB89BD
:105A5000E889F9898C9185FD03C0808186FD0CC0A1
:105A60000FB607FCF7CF8C9185FFF2CF808185FFC1
:105A7000EDCFCE01C3DFEACFDF91CF910895EF9252
:105A8000FF920F931F93CF93DF93EC0181E0888FF8
:105A90009B8D8C8D98131AC0E889F989808185FFC8
:105AA00015C09FB7F894EE89FF896083E889F9896A
:105AB00080818370806480839FBF81E090E0DF916C
:105AC000CF911F910F91FF90EF900895F62E0B8DBF
:105AD00010E00F5F1F4F0F731127E02E8C8D8E117A
