:10000000F8C0000027C1000025C1000023C1000086
:1000100021C100001FC100001DC100001BC1000064
:1000200019C1000017C1000015C1000013C1000074
:1000300011C100000FC100000DC100000BC1000084
:1000400009C1000007C1000005C1000003C1000094
:1000500001C10000FFC00000FDC000000C946C2B2B
:10006000F9C000000C94632F0C94992FF3C000008A
:10007000F1C00000EFC00000EDC00000EBC00000C8
:10008000E9C00000E7C00000E5C00000E3C00000D8
:100090000C94EF2F0C942530DDC00000DBC0000075
:1000A000D9C00000D7C00000D5C00000D3C00000F8
:1000B000D1C00000CFC00000CDC00000CBC0000008
:1000C000C9C00000C7C000000C9415280C947B30F8
:1000D0000C94B130BFC000000C9407310C943D313A
:1000E000B9C0000000000A0B02090C0D0E0807033E
:1000F00004010000000000000000000000000000FB
:1001000000000000000000000000000000000000EF
:1001100012111000000000000000000000000000AC
:100120000000000000000000000001021020200874
:100130000810204010204080020102010804020142
:1001400001020408102040808040201008040201B1
:10015000800402018040201008040201080402010A
:100160000102040810204080010204081020408091
:1001700005050505070508080808020202020A0A23
:100180000808040404040101010101010101030341
:10019000030303030303040707070C0C0C0C0C0CEC
:1001A0000C0C0202020206060606060606060B0BE9
:1001B0000B0B0B0B0B0B00002200250028002B0063
:1001C0002E003100340002010000050108010B017E
:1001D00000002100240027002A002D0030003300F9
:1001E00001010000040107010A01C22F4E30DA307C
:1001F000663111241FBECFEFD1E2DEBFCDBF00E0DC
:100200000CBF13E0A0E0B2E0E4E5F4E600E00BBFD1
:1002100002C007900D92AE32B107D9F729E0AEE2E5
:10022000B3E001C01D92AE34B207E1F710E0C9EFB0
:10023000D0E000E006C021970109802FFE010E9456
:10024000F731C53FD10780E00807A9F70E9431299F
:100250000C942832D5CECF93282F8823E1F0CB0100
:10026000BA01CFEFC20FEC2FF0E0E25DFC4F20812E
:10027000213059F490580E94272A9B01AC016C2F21
:1002800070E090E080E0CF91A2C00E94222A8C2FE3
:10029000CF910C94962CCF9108950F931F938B01BF
:1002A0009C0183E036952795179507958A95D1F798
:1002B0000C581C4F462F477021E030E0F90102C076
:1002C000EE0FFF1F4A95E2F7AF01F80120812423CA
:1002D000CB010196211102C090E080E01F910F91A7
:1002E00008950F931F938B019C0183E0369527950A
:1002F000179507958A95D1F7677081E090E001C066
:10030000880F6A95EAF7F801EC58FC4F2081452BDD
:1003100031F48095822380831F910F910895822B61
:10032000FACF4F925F926F927F928F929F92AF928D
:10033000BF92CF92DF92EF92FF920F931F93CF93D2
:10034000DF934B015C0129013A01670161E0882DCF
:100350000E94D02DE4012196AE01C501B401C1DF98
:1003600020E030E0A901C801B6010E94052B181653
:100370008CF4F401E25DFC4F81E08083C801B6019A
:100380000E94272A6B01C301B2010E94272AA601FD
:10039000C40121D0CE01DF91CF911F910F91FF9029
:1003A000EF90DF90CF90BF90AF909F908F907F9015
:1003B0006F905F904F900895882341F08150682F8F
:1003C00070E090E080E050E040E08BCF0895862F11
:1003D000B9010C94962C9C01FC01EC51FF4FE49167
:1003E000E150E231E0F4F0E08827E650FE4F8F4F15
:1003F0000C94F7310C02130216022D0242020F0276
:100400005702630267027E029302A802BF02D4026F
:100410000F02E9020003150384B5806884BD60E023
:10042000822F0C940C2E84B58062F8CF80918000CE
:100430008C7F82608093800080918100807E8061CB
:10044000682B6093810050938700409386008091D1
:100450008000806880938000E2CF809180008C7F54
:1004600082608093800080918100807E8061682B13
:1004700060938100509387004093860080918000B4
:100480008062E8CF809180008C7F826080938000C2
:1004900080918100807E8061682B60938100509301
:1004A000870040938600809180008860D3CF809140
:1004B000B00080688093B0008091B100887F682B85
:1004C0006093B100ACCF8091B0008062F3CF809197
:1004D00090008C7F82608093900080919100807E5C
:1004E0008061682B60939100509397004093960031
:1004F0008091900080688093900091CF80919000CF
:100500008C7F82608093900080919100807E8061DA
:10051000682B6093910050939700409396008091D0
:1005200090008062E8CF809190008C7F8260809301
:10053000900080919100807E8061682B6093910093
:100540005093970040939600809190008860D3CF9D
:100550008091A0008C7F82608093A0008091A10098
:10056000807E8061682B6093A1005093A700409328
:10057000A6008091A00080688093A00050CF809159
:10058000A0008C7F82608093A0008091A100807E7B
:100590008061682B6093A1005093A7004093A60050
:1005A0008091A0008062E8CF8091A0008C7F826063
:1005B0008093A0008091A100807E8061682B609371
:1005C000A1005093A7004093A6008091A0008860EE
:1005D000D3CF809120018C7F826080932001809115
:1005E0002101807E8061682B609321015093270157
:1005F00040932601809120018068809320010FCFD5
:10060000809120018C7F8260809320018091210164
:10061000807E8061682B6093210150932701409375
:100620002601809120018062E8CF809120018C7F9B
:1006300082608093200180912101807E8061682BFF
:10064000609321015093270140932601809120015E
:100650008860D3CFCF93DF93882349F0EB0181509B
:100660000E94732C99838883DF91CF910895FB01B9
:1006700011821082F9CF0F931F938B019C0183E0AD
:1006800036952795179507958A95D1F703581C4FEE
:10069000462F477021E030E0F90102C0EE0FFF1F46
:1006A0004A95E2F7AF01F80120812423CB0101969E
:1006B000211102C090E080E01F910F9108950F93E7
:1006C0001F938B019C0183E036952795179507951D
:1006D0008A95D1F7677081E090E001C0880F6A9534
:1006E000EAF7F801E358FC4F2081452B31F480955F
:1006F000822380831F910F910895822BFACFCF928E
:10070000DF92EF92FF92CF93DF936B017C0160E069
:1007100086E3C816D104E104F10490F486E38C0D5D
:100720000E94D02DE6012196AE01C701B601C7DFB8
:10073000CE01DF91CF91FF90EF90DF90CF900895A1
:100740008C2DEECF882341F08150682F70E090E02F
:1007500080E050E040E0B3CF089590E080E008955D
:100760000F931F93009709F487C06115710509F471
:1007700083C000916A0210916B0220916C0230914B
:100780006D020E3F1F4F2F4F3F4F09F066C04FEFD6
:100790005FEFBA0140936A0250936B0260936C0260
:1007A00070936D0240916A0250916B0260916C02ED
:1007B00070916D02DC011296ED91FC918081918126
:1007C000A281B3818093F4039093F503A093F60381
:1007D000B093F70384819581A681B7818093F0035C
:1007E0009093F103A093F203B093F3038085918576
:1007F000A285B3858093EC039093ED03A093EE0361
:10080000B093EF0384859585A685B7858093E8032B
:100810009093E903A093EA03B093EB031092E403EF
:100820001092E5031092E6031092E703A0D78CED37
:100830009BE0909387038093860390938903809332
:10084000880384D6009731F421E030E03093F90337
:100850002093F8031F910F91089500916A0210915F
:100860006B0220916C0230916D02DB010D931D93A0
:100870002D933C93139796CF8FEF9FEFEBCF8F92F3
:100880009F92AF92BF92CF92DF92EF92FF921F930F
:10089000CF93DF934B015C011091FB0382E090E06A
:1008A0009093F9038093F80381149104A104B10497
:1008B00041F48091FB03811104C08091FA03C1E0EF
:1008C0008111C0E0C12CD12C76018091FB038111F4
:1008D00006C08091FA03811102C0CC23D9F083E0D5
:1008E00090E09093F9038093F803CC2379F1CCE95D
:1008F000DFEF111102C00E94400FCE01DF91CF91B6
:100900001F91FF90EF90DF90CF90BF90AF909F909E
:100910008F9008956AE070E080E090E00E94DB2B09
:1009200080E1C80E87E2D81EE11CF11C8FEF88160B
:100930009806A806B80631F0C1E08C149D04AE04F8
:10094000BF0408F0C0E080E035D6BFCFD0E0C0E003
:10095000D0CFCF92DF92EF92FF920F931F93CF935E
:10096000DF938F3F910511F008F050C02091F803FC
:100970003091F9032330310539F02091F80330919B
:10098000F9032130310531F424E030E03093F903EC
:100990002093F8036A017B01EC0182309105A0F0FD
:1009A00011E0AE01C701B601D0D5AB01BC01CE014B
:1009B0001123F9F0DF91CF911F910F91FF90EF90EC
:1009C000DF90CF900C946C118C01000F111F0A570F
:1009D0001C4FD8018D919C91892B11F30E947611A7
:1009E0000297F1F6D801ED91FC91CE011995182FDF
:1009F000D8CF0E948E1190E080E0DF91CF911F91BF
:100A00000F91FF90EF90DF90CF9008958FEF9FEFC1
:100A1000F4CF80E0CFC5CF93DF9386E090E0909352
:100A2000F9038093F8031FD6EC01E6E8F3E084E0D5
:100A3000DF011D928A95E9F70E94D80E1092F90302
:100A40001092F803CE01DF91CF9108958091FA03BF
:100A500008958091E303089560936A0270936B0296
:100A600080936C0290936D0290E080E008954F9225
:100A70005F926F927F928F929F92AF92BF92CF922E
:100A8000DF92EF92FF92CF93DF9300D000D000D09F
:100A90001F92CDB7DEB78090140990901509A090F1
:100AA0001609B0901709C0901809D0901909E09064
:100AB0001A09F0901B0920913802309139024091B7
:100AC0003A0250913B02C501B4010E94092B2B014F
:100AD0003C012091400230914102409142025091EC
:100AE0004302C701B6010E94092B9B01AC01C3015F
:100AF000B2010E94BA296093200970932109809362
:100B000022099093230920913C0230913D024091AB
:100B10003E0250913F02C501B4010E94092B4B01D6
:100B20005C0120914402309145024091460250916F
:100B30004702C701B6010E94092B9B01AC01C50108
:100B4000B4010E94BA296093240970932509809307
:100B5000260990932709C0902402D0902502E090A6
:100B60002602F0902702A701960160910809709172
:100B7000090980910A0990910B090E941E2A882375
:100B800041F0C0920809D0920909E0920A09F09256
:100B90000B0966E370E080E090E06DDD909307095B
:100BA0008093060943E050E0BE016F5F7F4F52DD46
:100BB0002091680230916902A981BA810E94FF31B7
:100BC0000E94532A20E030E040E057E30E94092BC6
:100BD0009B01AC0160915C0270915D0280915E02AC
:100BE00090915F020E94B9296093280970932909A6
:100BF00080932A0990932B092091200230912102A1
:100C000040912202509123020E94B929209118029A
:100C10003091190240911A0250911B020E94092B37
:100C200020912409309125094091260950912709E6
:100C30000E94BA296B017C0186D3882309F4DAC1AA
:100C40002091400930914109409142095091430956
:100C500060911C0270911D0280911E0290911F02F2
:100C600090580E94092B20916002309161024091BE
:100C70006202509163020E94BA294B015C0180928A
:100C80002C0990922D09A0922E09B0922F09209143
:100C90002009309121094091220950912309609146
:100CA00010027091110280911202909113020E9421
:100CB000092B6B017C012091240930912509409179
:100CC00026095091270960911402709115028091B4
:100CD0001602909117020E94092B9B01AC01C701DB
:100CE000B6010E94BA299B01AC016091280970915C
:100CF000290980912A0990912B090E94B9296B0139
:100D00007C01A5019401609164027091650280915B
:100D10006602909167020E94092B609330097093DC
:100D20003109809332099093330969E070E080E0E3
:100D300090E0B3DA5C01909313098093120940901C
:100D4000300950903109609032097090330920E0E9
:100D500030E04FE753E4C301B2010E941E2A181687
:100D60000CF467C120E030E0A901C301B2010E9488
:100D7000052B87FF03C0412C512C3201B301A20186
:100D8000C50169DA8090140990901509A0901609A0
:100D9000B09017098091180990911909A0911A092A
:100DA000B0911B098B839C83AD83BE832091040289
:100DB000309105024091060250910702C501B4012D
:100DC0000E94092B2B013C0120910C0230910D0255
:100DD00040910E0250910F026B817C818D819E812A
:100DE0000E94092B9B01AC01C301B2010E94BA29E8
:100DF0006F83788789879A8740902C0950902D09B6
:100E000060902E0970902F0920910002309101020C
:100E10004091020250910302C501B4010E94092BC6
:100E20004B015C01209108023091090240910A02B5
:100E300050910B026B817C818D819E810E94092BD8
:100E40009B01AC01C501B4010E94BA294B015C01B0
:100E5000209128023091290240912A0250912B02C0
:100E6000C301B2010E94092B9B01AC01C501B40171
:100E70000E94BA294B015C0120913002309131026D
:100E80004091320250913302C701B6010E94092BF2
:100E90009B01AC01C501B4010E94BA2960931409F9
:100EA00070931509809316099093170920912C02CD
:100EB00030912D0240912E0250912F02C301B201B8
:100EC0000E94092B2F81388549855A850E94BA29AD
:100ED0004B015C0120913402309135024091360281
:100EE00050913702C701B6010E94092B9B01AC014A
:100EF000C501B4010E94BA296093180970931909B9
:100F000080931A0990931B09C090B603D090B70341
:100F1000E090B803F090B9039FEFC91AD90AE90A23
:100F2000F90AC092B603D092B703E092B803F092E8
:100F3000B903C114D104E104F10499F48091BA0316
:100F40009091BB03A091BC03B091BD030196A11D7C
:100F5000B11D8093BA039093BB03A093BC03B093DD
:100F6000BD038090BE039090BF03A090C003B090DB
:100F7000C1036091BA037091BB038091BC0390914F
:100F8000BD030E94532AA50194010E94092B20E071
:100F900030E040E85FE40E94092B2B013C01C701CF
:100FA000B6010E94532AA50194010E94092B9B01BE
:100FB000AC01C301B2010E94BA296093B2037093DD
:100FC000B3038093B4039093B5032A960FB6F894B5
:100FD000DEBF0FBECDBFDF91CF91FF90EF90DF90CE
:100FE000CF90BF90AF909F908F907F906F905F90C9
:100FF0004F90089520E030E0A901C701B6010E949A
:101000001E2A20E030E040E85FEB87FD21CE20E0A3
:1010100030E0A901C701B6010E94052B20E030E0B5
:10102000A90118160CF014CE20E030E040E85FE390
:101030000FCE412C512C8FE7682E83E4782E9ECE64
:101040008F929F92AF92BF92DF92EF92FF920F9397
:101050001F93CF93DF9384E090E024D1ECE9F3E099
:101060008BE2DF011D928A95E9F780E090E0A0E82D
:10107000BFEB86A397A3A0A7B1A78DEC9CECACE433
:10108000BDE382A393A3A4A3B5A384E197E8A3E659
:10109000B4E684839583A683B78387ED90E0ADE7BC
:1010A000BAEE80879187A287B3878BEE91E0AEE29C
:1010B000B6E384879587A687B7878AE899E4A7ED82
:1010C000BFE9808B918BA28BB38BA0E9B3E0B38394
:1010D000A283EAE8F3E01196FC93EE9384E992E0B0
:1010E00091838083938382839583848380EB93E0D1
:1010F00015969C938E93149780EA93E013969C9395
:101100008E93129782EB93E017969C938E9316978B
:10111000E0E2F9E084E1DF011D928A95E9F7C0E0A1
:10112000D9E080E2FE0111928A95E9F7DD24D3949B
:10113000DE8E8091240290912502A0912602B0912A
:10114000270288879987AA87BB87812C912C540115
:10115000839489829A82AB82BC8266E370E080E0ED
:1011600090E0CDDA9F838E83DD821C86DF8E8D86B4
:101170009E86AF86B88AE12CF12C8701A8019701E1
:1011800069E070E080E090E0CCD89B8B8A8BD98AB4
:101190008091580290915902A0915A02B0915B023D
:1011A0008C8B9D8BAE8BBF8B888F998FAA8FBB8FBB
:1011B000DF91CF911F910F91FF90EF90DF90BF9043
:1011C000AF909F908F9008958091000981111DC06C
:1011D00081E0809300098091010990910209A0911A
:1011E0000309B09104090197A105B10571F480913B
:1011F0000509882351F066E370E080E090E03BDA77
:1012000090930709809306099DDA80910C0981115A
:101210002AC081E080930C0980910D0990910E09FC
:10122000A0910F09B09110090197A105B105D9F45A
:10123000809111098823B9F069E070E080E090E0C6
:101240002CD8909313098093120940E050E0BA0122
:1012500002D869E070E080E090E01FD89093130915
:1012600080931209A9C8089560E070E080E89FE7C4
:10127000089560E070E080E89FE7089560E070E026
:1012800080E89FEF089560E070E080E89FEF0895A8
:1012900060E070E080EC9FEF089560E070E080EC2B
:1012A0009FEF0895F5DF60934009709341098093A3
:1012B000420990934309F1DF609334097093350933
:1012C0008093360990933709CFDF60933C09709380
:1012D0003D0980933E0990933F09CBDF6093380925
:1012E0007093390980933A0990933B09C7DF609363
:1012F0004409709345098093460990934709C3DFD9
:10130000609348097093490980934A0990934B0967
:1013100008950F931F938B019C01002711272078BC
:101320003F770115110520483F4749F4AB01BC0147
:101330006F77772781E0452B462B472B09F480E018
:101340001F910F910895E5CF4F925F926F927F9218
:101350008F929F92AF92BF92CF92DF92EF92FF92C5
:101360000F931F93F8944090D3035090D403609050
:10137000D5037090D603C090C703D090C803E09007
:10138000C903F090CA03452B09F0A4C09B01AC012E
:10139000241935094609570929013A010091CF035B
:1013A0001091D0032091D1033091D203480159010B
:1013B000840C951CA61CB71C80169106A206B306C9
:1013C000A0F40091CB031091CC032091CD03309178
:1013D000CE030F5F1F4F2F4F3F4F0093CB03109350
:1013E000CC032093CD033093CE038092CF03909211
:1013F000D003A092D103B092D2030091CB031091FD
:10140000CC032091CD033091CE038092D7039092EC
:10141000D803A092D903B092DA030093DB031093B0
:10142000DC032093DD033093DE036093D3037093DA
:10143000D4038093D5039093D603A0E5B3ECA30126
:1014400092010E940E326C0D7D1D8E1D9F1D6093BA
:10145000C7037093C8038093C9039093CA03009194
:101460006A0210916B0220916C0230916D020F3F65
:101470001F4F2F4F3F4FF1F000916A0210916B0206
:1014800020916C0230916D020E3F1F4F2F4F3F4F46
:1014900089F0C0906A02D0906B02E0906C02F090EC
:1014A0006D0221E08C149D04AE04BF0408F420E01A
:1014B0002093E30378941F910F91FF90EF90DF90BA
:1014C000CF90BF90AF909F908F907F906F905F90E4
:1014D0004F9008954B015C0184189508A608B70841
:1014E000A3019201261B370B480B590B6415750598
:1014F00086059705D0F082169306A406B50640F43B
:1015000020E030E0A90181149104A104B10491F418
:10151000A0E5B3EC0E940E32A7019601261B370B03
:10152000480B590BCA01B901C5CF82169306A40610
:10153000B50670F7A0E5B3ECA50194010E940E3248
:101540006C0D7D1D8E1D9F1DB5CFFECECF93DF93FD
:1015500000D01F92CDB7DEB71C821B821A8219827F
:101560001092DF031092E0031092E1031092E20365
:10157000BE016F5F7F4FCE0103960E94AA2769814B
:101580007A818B819C810E949A20009761F4BE0130
:101590006F5F7F4FCE0103960E94B62769817A81E3
:1015A0008B819C8131D50F900F900F900F90DF9120
:1015B000CF910895FF920F931F93CF93DF93082F3E
:1015C00060E070E0CB010E94DB2BFF24F3940E94CB
:1015D000831FEC01892B89F010E0CE3F8FEFD807F5
:1015E00069F0002361F160E070E0CB010E94DB2B29
:1015F00081E090E0892B59F322C011E028D5EC015D
:10160000892B21F0CE3F8FEFD80759F711111EC05B
:1016100011E0229609F410E00E94331FEC01892B9F
:1016200021F0CE3F8FEFD807E1F6111111C011E084
:10163000CE3F8FEFD80709F410E001110BC0CE01A7
:10164000DF91CF911F910F91FF90089511E0E4CFAA
:1016500011E0F3CF60E070E0CB010E94DB2B1F258F
:10166000812F90E0C7CFCF93DF938091E30388234E
:1016700021F060E070E0CB014FD638D6D0E0C0E07A
:10168000892B71F06AE070E080E090E00E94DB2B33
:1016900081E090DF2BD62196C03D27E0D20781F76D
:1016A0002AD60E94EE201092FB031092FA031092A9
:1016B000F4031092F5031092F6031092F7031092C0
:1016C000F0031092F1031092F2031092F3031092C0
:1016D000EC031092ED031092EE031092EF031092C0
:1016E000E8031092E9031092EA031092EB031092C0
:1016F000E4031092E5031092E6031092E7034EEF25
:101700005FEF6FEF7FEF40936A0250936B0260933D
:101710006C0270936D021092E303E7EDF3E028E0B2
:10172000DF011D922A95E9F71092D3031092D4039A
:101730001092D5031092D6031092CF031092D003CB
:101740001092D1031092D2031092CB031092CC03CB
:101750001092CD031092CE031092C7031092C803CB
:101760001092C9031092CA03DF91CF91089510928D
:101770000704109208041092090410920A041092AF
:10178000060480910F0490911004909305048093B7
:10179000040410920304109202041092FE031092AB
:1017A000FF03109200041092010410920C04109296
:1017B0000B0490E080E00895CF92DF92EF92FF92C9
:1017C0000F931F93CF938C01892B09F055C0209163
:1017D0000F0430911004809104049091050440910D
:1017E0000F045091100450930504409304042817EB
:1017F000390781F010920304109202041092FE0344
:101800001092FF03109200041092010410920C0435
:1018100010920B0480910F0490911004019761F5D0
:1018200080910B0490910C04892B21F480916E021D
:10183000811112C080910B0490910C040197E1F486
:101840008091FE039091FF03A0910004B0910104E8
:101850000197A105B10581F41092FE031092FF03D8
:10186000109200041092010410926E0282E090E047
:1018700090930C0480930B0480910F0490911004BA
:10188000019709F01CC180912504909126048017CE
:10189000910709F014C18091210490912204A09134
:1018A0002304B0912404009709F409C12091200475
:1018B00021110DC040912104509122046091230414
:1018C00070912404452B462B472B09F4F8C0209136
:1018D0000B0430910C042230310509F0F0C0209146
:1018E00002042111ECC0FC01C080D180E280F380B1
:1018F00080910604882309F4D3C08091120490914A
:101900001304892B09F4FDC02091120430911304B3
:1019100081E02230310509F080E0209112043091FD
:101920001304C1E02130310549F0209112043091B7
:101930001304C1E02230310509F0C0E0882309F426
:1019400056C020911C0430911D0440911E045091FA
:101950001F04C701B6010E94052B87FD14C020910A
:101960001C0430911D0440911E0450911F0460918D
:101970000704709108048091090490910A040E9460
:101980001E2A87FD22C020911C0430911D04409125
:101990001E0450911F04C701B6010E94052B1816A2
:1019A00034F520911C0430911D0440911E04509187
:1019B0001F046091070470910804809109049091BC
:1019C0000A040E941E2A811112C080911404909171
:1019D0001504A0911604B0911704892B8A2B8B2B28
:1019E00019F481E08093030481E080930204CC2306
:1019F00009F456C020911C0430911D0440911E042E
:101A000050911F04C701B6010E941E2A87FF14C00F
:101A100020911C0430911D0440911E0450911F041C
:101A200060910704709108048091090490910A0460
:101A30000E94052B87FF22C020911C0430911D04B9
:101A400040911E0450911F04C701B6010E941E2A36
:101A5000811126C020911C0430911D0440911E0468
:101A600050911F046091070470910804809109044B
:101A700090910A040E94052B181694F48091140486
:101A800090911504A0911604B0911704892B8A2B0C
:101A90008B2B19F481E08093030481E0809302048E
:101AA00081E090910204911180E080930604C0923D
:101AB0000704D0920804E0920904F0920A04012B72
:101AC00009F067C180910B0490910C04892BD9F423
:101AD000109211041092020480916E02882379F012
:101AE00082E090E090930C0480930B0410926E02BD
:101AF00020910F043091100481E0232BE9F080E065
:101B00001BC081E00ACF10926E02809111048823DD
:101B100049F01092030410920C0410920B041092DE
:101B20001104EDCF80910F0490911004892BE1F006
:101B3000809102041092020420910B0430910C0455
:101B40002230310509F45EC088F42115310509F40D
:101B500048C02130310509F4F3C0109203041092FB
:101B600002041092110438C081E0E6CF2330310521
:101B700009F4B1C02430310581F74091FE03509142
:101B8000FF03609100047091010441155105610546
:101B9000710561F041505109610971094093FE03DB
:101BA0005093FF0360930004709301044091FE037F
:101BB0005091FF036091000470910104452B462B66
:101BC000472BD9F420910D0430910E0421303105BA
:101BD00009F046C01092030410920C0410920B04FA
:101BE0000CC080916E02882341F082E090E09093D7
:101BF0000C0480930B0410926E021092FC038091EF
:101C00000304CEC08823C9F3809114049091150475
:101C1000A0911604B0911704181619061A061B068F
:101C20000CF07DC080910F0490911004019709F091
:101C300076C08091140490911504A0911604B0917F
:101C400017048093FE039093FF03A0930004B093C6
:101C5000010483E090E090930C0480930B04CDCFBB
:101C6000409118045091190460911A0470911B045A
:101C7000452B462B472BA9F01092030480911804A2
:101C800090911904A0911A04B0911B048093FE0353
:101C90009093FF03A0930004B093010481E090E0CF
:101CA000DACF882399F080916F0290917002A09111
:101CB0007102B09172028093FE039093FF03A09390
:101CC0000004B093010484E090E0C5CF10920304B7
:101CD00082E090E0C0CF8091FE039091FF03A0913D
:101CE0000004B09101040097A105B10559F00197D6
:101CF000A109B1098093FE039093FF03A093000410
:101D0000B09301048091FE039091FF03A091000421
:101D1000B0910104892B8A2B8B2B09F06ECF809117
:101D20006F0290917002A0917102B0917202892BA2
:101D30008A2B8B2B09F44ECF81E080930304B3CF21
:101D40004091FE035091FF036091000470910104E3
:101D5000411551056105710561F041505109610955
:101D600071094093FE035093FF0360930004709346
:101D700001044091FE035091FF03609100047091B3
:101D80000104452B462B472B09F037CF8111C7CFD4
:101D90009FCF8091FC03882309F431CF8091FD030C
:101DA000CF911F910F91FF90EF90DF90CF9008950A
:101DB00010920704109208041092090410920A0469
:101DC0001092060410920C0410920B041092050459
:101DD0001092040410922604109225041092030419
:101DE000109202041092FE031092FF03109200045E
:101DF000109201041092FD031092FC031092210432
:101E000010922204109223041092240410922004B1
:101E100010921C0410921D0410921E0410921F04B4
:101E200088EE93E0A0E0B0E080936F0290937002A0
:101E3000A0937102B09372021092180410921904C8
:101E400010921A0410921B0410921404109215049C
:101E50001092160410921704109213041092120498
:101E600081E080936E02109211041092100410927F
:101E70000F0410920E0410920D0490E080E008957B
:101E800080910F0490911004892B19F580916E02B6
:101E9000882351F080911104811106C081E0809364
:101EA000FD038093FC0308952091110430916E028C
:101EB00081E090E0332311F090E080E030E0822375
:101EC0009323892B21F01092FD0381E0EACF109239
:101ED000FC03089582E090E0FA01918380838FEF04
:101EE0009FEF0895CF93DF93EA01009711F00E94CE
:101EF0000E221982188290E080E0DF91CF91089540
:101F0000DB01009719F48FEF8C9308952EEF2C933B
:101F1000FC017096E031F10508F037C08827EC56D7
:101F2000F04F8F4F0C94F731C30FC10FBF0FBD0F90
:101F3000BB0FB90FB50FB70FB30FB10FAF0FAC0F8A
:101F4000A80FA40FAA0FC50F80E311968C930895D4
:101F500089E2FBCF82E2F9CF11961C92089583E2C9
:101F6000F4CF81E2F2CF81E1F0CF87E2EECF8AE2D7
:101F7000ECCF80E1EACF84E2E8CF88E2E6CF86E2E8
:101F8000E4CF81E3E2CF83E3E0CF80E2DECF809154
:101F9000330490913404089590933404809333046F
:101FA000089580913204089590913204892B809392
:101FB00032040895982F909580913204892380935C
:101FC0003204089580913104089580912F049091F6
:101FD000300408956115710559F0FB0130E020E0EF
:101FE00070E060E02417350719F06115710511F0F4
:101FF000CB010895A081B181A817B90709F4BF01E9
:102000002F5F3F4F3696EECF8091350481111CC073
:1020100060D266D290932804809327040E940C1A01
:102020000E941E1A90932C0480932B040E949B1EE6
:102030000E94A21E90932A048093290481E0809339
:10204000350490E080E0089584EF9FEF08958F922B
:102050009F92AF92BF92CF92DF92EF92FF920F9337
:102060001F93CF93DF9300D000D000D01F92CDB745
:10207000DEB71A86198618861F821E821D821C8270
:102080001B821A8219828091350407EF1FEF882383
:1020900009F49CC08E010D5F1F4F9E012B5F3F4FC7
:1020A000AE01495F5F4FBE01675F7F4F90E080E008
:1020B0000E941F208C01009721F00596029708F0DE
:1020C000DBC029853A852115310509F402C1ED806F
:1020D000FE804B815C81B701640F751F8F819885ED
:1020E0008617970708F4F5C0E20EF31ED7019C91FE
:1020F000903C09F07FC04230510508F47BC0119636
:102100008C914091330450913404452B09F49CC0C8
:10211000913F08F071C02CE1290F2D3008F48BC0DD
:102120002DE2290F203108F489C0903C21F4815020
:10213000823008F483C088E3890F8B3008F481C0B3
:1021400090E8C92E9FE0D92EEAE6FFE06D817E81FE
:10215000AE014F5F5F4F89859A8519955C01C11467
:10216000D104A1F189809A808114910479F18B8145
:102170009C818815990508F487C010E000E04B8128
:102180005C8170E060E0C7010E94213201151105F9
:10219000E9F449815A8169857A858D819E81680F2C
:1021A000791FC501F6011995E980FA800D811E811C
:1021B0002F81388549855A856FEF7FEF81E090E068
:1021C0000E94BA1F8C01892B09F056C0C8012A96BB
:1021D0000FB6F894DEBF0FBECDBFDF91CF911F9138
:1021E0000F91FF90EF90DF90CF90BF90AF909F90B6
:1021F0008F90089580E085CF30E020E0220F331FDC
:10220000F901E95DFB4F0190F081E02D309709F471
:1022100097CF892F90E01995009709F491CFDC01B1
:102220001296ED91FC9113971496CD90DC90309717
:1022300009F08CCF1FC021E030E0E0CF22E030E099
:10224000DDCF23E030E0DACFD12CC12CE2E7FFE094
:102250009F3F09F07BCFE0912704F091280430974D
:1022600021F4C90104EF1FEF0CC08FEF90E0199526
:102270000097A9F604EF1FEF89859A85009709F466
:10228000A5CF0E940E22A2CF0E94E9208C01898551
:102290009A850E940E2270E060E0C4010E948220B4
:1022A00098878F830E94B71F9E838D836F81788567
:1022B0006115710559F0C8010E949A239A87898790
:1022C00006EF1FEF892B09F058CF59CF08EF1FEF0A
:1022D00056CF08EF1FEFD0CF20913504222319F0FD
:1022E00020E00C94231A87EF9FEF08958091330428
:1022F0009091340408950E94A71E0E94011EF5D0FB
:10230000E7E2F4E088E0DF011D928A95E9F7109298
:10231000350490E080E008950C945F1C21E040E0DB
:1023200050E0BA010C94231A86E090E0FA01918300
:10233000808390E080E0089547E050E067E972E034
:1023400049CEDF92EF92FF920F931F93CF93DF93CB
:102350008A01EC01C60FD71FE0903904F0903A04CF
:10236000D9800E94D120D816190678F082E090E03A
:10237000F801918380838EEF9FEFDF91CF911F91C2
:102380000F91FF90EF90DF900895EF2841F482E0E5
:1023900090E0F8019183808384EF9FEFEECF8981F5
:1023A0008093380490E00196F8019183808390E057
:1023B00080E0E3CFCF93DF93EA010E94101D8823D2
:1023C00021F00E94DE200E94111D82E090E099839E
:1023D00088838BEF9FEFDF91CF910895CF93DF93A9
:1023E000EB0186E0FB0111928A95E9F78FEF888374
:1023F000D8DD8983E7DD8A83E8DD9D838C83DF91E7
:10240000CF910895CF93DF93EA010E94131D8111AC
:1024100009C082E090E09983888385EF9FEFDF9188
:10242000CF91089590E080E0B7DD81E090E099835E
:10243000888390E080E0F3CF0F931F93CF93DF93D7
:10244000EA018C01060F171F0E94131D81110BC09A
:1024500082E090E09983888385EF9FEFDF91CF91B1
:102460001F910F910895F8018181823038F082E048
:1024700090E0998388838EEF9FEFF0CF81E090E02A
:102480008BDD88E090E09983888390E080E0E6CF60
:10249000CF93DF930097D1F4EB01FB01329686E0F6
:1024A000DF011D928A95E9F78FEF888385E08983A4
:1024B0001A820E94D1208B830E94D0209D838C831E
:1024C00081E08E838F83DF91CF910895DF91CF914B
:1024D00017CD8CE991E190933704809336040895E9
:1024E0008091360490913704089510923704109229
:1024F000360408958091390490913A040895411169
:1025000005C0611571058105910561F0609339047D
:1025100070933A0480933B0490933C0440933D04B1
:1025200081E0089580E00895FF920F931F93CF9369
:10253000DF938A01EC01C60FD71FF9800E94D120DA
:10254000F816190668F082E090E0F8019183808324
:102550008EEF9FEFDF91CF911F910F91FF90089524
:102560006C817D818E819F814B81C9DF811108C083
:1025700082E090E0F8019183808384EF9FEFEACFBF
:1025800089818093380490E00196F80191838083DB
:1025900090E080E0DFCFCF93DF93EA01FC01E60F0C
:1025A000F71F64817581868197814381A8DF81113E
:1025B00009C082E090E09983888384EF9FEFDF91E8
:1025C000CF91089581E090E09983888390E080E046
:1025D000F6CFE9E3F4E04081518162817381480FD5
:1025E000511D611D711D4083518362837383089562
:1025F000CF93C09138044C2F50E060913904709112
:102600003A0401960E9418328C2FE3DF10923804AE
:10261000CF910895009799F48091390490913A04EC
:102620002FEFFB012083892B59F02091380430E0F3
:102630002F5F3F4F2417350719F4CB01D9CF60CC5A
:102640000895009799F48091390490913A042FEFFE
:10265000FB012083892B59F02091380430E02F5F53
:102660003F4F2417350719F4CB01C2CF49CC089549
:1026700023E1AC01249FC001259F900D1124E0911E
:102680004204F0914304E80FF91F23813481225062
:10269000310981E02230310508F080E008950F9380
:1026A0001F93CF93DF930091440410914504D0E031
:1026B000C0E080E00C171D0749F491E0811190E023
:1026C000892FDF91CF911F910F9108958111F5CF3F
:1026D000CE01CEDF2196EECFA0914204B09143040B
:1026E000109729F1209144043091450482179307F3
:1026F000F0F453E1589F9001599F300D1124A20F1F
:10270000B31FED91FC911197309789F012968C913F
:10271000681768F48DE0689FE00DF11D1124808139
:102720009181892B21F081E09281491708F080E0A6
:1027300008959C0143E1429FC001439F900D1124E5
:10274000E0914204F0914304E80FF91F8385823041
:1027500091F481E090E0658176814091730250911F
:1027600074026417750711F490E080E0892B19F06A
:1027700081E0232B09F080E00895FC01A081B18164
:102780008DE0689FA00DB11D112413964D915C91B1
:1027900085859685489F9001499F300D589F300D43
:1027A0001124C9010196611103C0478144FD0496BB
:1027B0000895EF92FF920F931F93CF93DF93EA0157
:1027C000FC01E60FF71F02811381E480F5804F2D95
:1027D0006E2DC80181DF81110DC082E090E09983E8
:1027E00088838EEF9FEFDF91CF911F910F91FF9024
:1027F000EF900895C8013CDF882339F082E090E033
:102800009983888388EF9FEFEECF10937A0200932D
:102810007902E0927B02F0927C0281E090E0998361
:10282000888390E080E0DFCFCF92DF92EF92FF923B
:102830000F931F93CF93DF937A01EC01C60FD71F3D
:10284000C0907902D0907A0200917B0210917C02B4
:10285000412F602FC60140DF811110C082E090E05F
:10286000F701918380838AEF9FEFDF91CF911F91D2
:102870000F91FF90EF90DF90CF900895C601F8DEA2
:10288000882341F082E090E0F7019183808388EF14
:102890009FEFEBCF4C815D816E817F819A81898131
:1028A0008F3F41F082E090E0F701918380838EEFCB
:1028B0009FEFDBCFE3E1EC9D9001ED9D300D112406
:1028C000E0914204F0914304E20FF31F0190F08184
:1028D000E02D2DE0029FE00DF11D11240190F0810B
:1028E000E02D27E0129FE00DF11D112480839183DC
:1028F0008B81828343835483658376831F5F109328
:102900007C0281E090E0F7019183808390E080E099
:10291000ACCFEF92FF920F931F93CF93DF937A0187
:102920008C01060F171FC0914204D09143042097D9
:1029300081F021E030E0F8018281938140914404EC
:10294000509145048417950710F030E020E0232BC8
:1029500071F482E090E0F701918380838EEF9FEF26
:10296000DF91CF911F910F91FF90EF90089543E178
:10297000489F9001499F300D1124C20FD31F78DE6C
:10298000882341F082E090E0F7019183808388EF13
:102990009FEFE6CFF8012481358120383105C8F654
:1029A00087818111D6CF4181842F90E08F7E00975F
:1029B00041F082E090E0F7019183808386EF9FEF02
:1029C000CFCF4F833E832D832681288719862230DF
:1029D00010F421E0288721E030E0F70131832083E3
:1029E000BFCF88E090E0FA019183808390E080E09F
:1029F0000895FB018FEF808381E181838FEF9FEF4B
:102A00009383828380E890E0958384831682178283
:102A10000895FB018FEF808391E0918382839383FC
:102A2000848384E3858381E090E09783868308959F
:102A300082E090E0FA019183808380EF9FEF089518
:102A4000DF92EF92FF920F931F93CF93DF93EA01F0
:102A5000FC01E60FF71F8181813071F082E090E088
:102A6000998388838FEF9FEFDF91CF911F910F9113
:102A7000FF90EF90DF90089582819381D48025812B
:102A8000E680F7800091420410914304011511057E
:102A900039F482E090E0998388838CEF9FEFE4CF54
:102AA00040914404509145048417950738F082E022
:102AB00090E0998388838EEF9FEFD6CF892B39F0F2
:102AC00082E090E09983888386EF9FEFCDCF8D2DB4
:102AD0008D7FB1F72130A1F781E0D11006C091E0E0
:102AE000E916F10431F080E004C0E2E0EE16F104F2
:102AF000D0F3882329F390E080E0BADD882339F011
:102B000082E090E09983888388EF9FEFADCFF80152
:102B1000D38681E08487F686E586108A178681E071
:102B200090E09983888390E080E09ECF4DE050E074
:102B300061EC72E04FCA8F929F92BF92CF92DF9268
:102B4000EF92FF920F931F93CF93DF93EA01FC0163
:102B5000E60FF71F828193810481B580E0914204E2
:102B6000F0914304309791F482E090E09983888358
:102B70008CEF9FEFDF91CF911F910F91FF90EF901E
:102B8000DF90CF90BF909F908F9008952091440444
:102B9000309145048217930738F082E090E09983E2
:102BA00088838EEF9FEFE6CF23E1289F6001299F66
:102BB000D00C1124EC0DFD1DE080F180E114F10436
:102BC00099F28281081748F78DE0089F800111244F
:102BD000E00EF11EF70180819181892B29F6BB203F
:102BE000E1F2F7E0BF9E40011124C4010E94D5210B
:102BF000F70191838083E0914204F0914304EC0D4E
:102C0000FD1D0190F081E02DE00FF11F8081918189
:102C1000009739F482E090E0998388838DEF9FEFED
:102C2000A9CFA40170E060E00E94213280914204AB
:102C300090914304C80ED91EF60180819181080F3E
:102C4000191FF801B28281E090E09983888390E0B7
:102C500080E090CFAF92BF92CF92DF92FF920F931E
:102C60001F93CF93DF93EA01FC01E60FF71F8281E8
:102C70009381F480009142041091430401151105E1
:102C800081F482E090E0998388838CEF9FEFDF915D
:102C9000CF911F910F91FF90DF90CF90BF90AF9099
:102CA000089520914404309145048217930738F029
:102CB00082E090E0998388838EEF9FEFE8CF2FEF3B
:102CC0002F0D2C3FA8F723E1289F6001299FD00CEE
:102CD00011240C0D1D1DF80180819181892B89F62D
:102CE000FDE0FF9E50011124C5010E94D521F8018D
:102CF00091838083E0914204F0914304EC0DFD1D2B
:102D000080819181009739F482E090E099838883F3
:102D10008DEF9FEFBCCFA50170E060E00E942132F3
:102D2000E0914204F0914304EC0DFD1DF28281E03C
:102D300090E09983888390E080E0A9CFCF92DF92E2
:102D4000EF92FF920F931F93CF93DF93860F971FFE
:102D5000FC01028113818091420490914304892BEC
:102D600081F082E090E0FA01918380838CEF9FEF05
:102D7000DF91CF911F910F91FF90EF90DF90CF9057
:102D80000895C801B0E0A0E00197A109B1098F3F03
:102D90009F4FA105B10540F082E090E0FA019183D8
:102DA00080838EEF9FEFE4CF7A0183E1809F600103
:102DB000819FD00C1124C6010E94D521EC010097FF
:102DC00041F482E090E0F701918380838DEF9FEFE3
:102DD000CFCFA60170E060E00E942132D09343047F
:102DE000C0934204109345040093440490E080E0B3
:102DF0002FEF3FEF41E061E070E08017910741F471
:102E000081E090E0F7019183808390E080E0B0CF93
:102E10003A8B298B1B864C877E876D87188A1F8685
:102E200001966396EACFEF92FF921F93CF93DF93C1
:102E3000EC0110E0F12CE12C6A811617B0F083E070
:102E4000689FB0011124AE014F5E5F4FC7010E9421
:102E50003A22009721F02FEF3FEF3A8B298BDF9139
:102E6000CF911F91FF90EF900895612FCE0185DCE7
:102E700061E070E00E948220E816F90608F47C0107
:102E80001F5FDACFF894209140043091410481E033
:102E90002115310509F080E0232B09F0789408957D
:102EA0002F923F924F925F926F927F928F929F925A
:102EB000AF92BF92CF92DF92EF92FF920F931F9348
:102EC000CF93DF933C01660E771EF30182819381DD
:102ED0004C01B12CA12CC0914204D0914304209705
:102EE00069F021E030E06091440470914504861758
:102EF000970710F030E020E0232BD1F482E090E03F
:102F0000FA01918380838EEF9FEFDF91CF911F9124
:102F10000F91FF90EF90DF90CF90BF90AF909F9078
:102F20008F907F906F905F904F903F902F9008957B
:102F300080927D0290927E02A0927F02B0928002E7
:102F400063E1689F9001699F300D1124C20FD31F68
:102F5000F3018181833040F082E090E0FA019183B7
:102F6000808386EF9FEFD1CF2A012B813C81232BD9
:102F7000F1F4288139819F8191FF2EC0232B09F420
:102F80006FC0209147049A81422F490F5527551F42
:102F9000BA0141E050E06138710514F050E040E0C2
:102FA000452B09F45DC02A87920F90934704815006
:102FB000823008F481C066DF882309F4D8C0F301A9
:102FC0008181813009F48DC008F47BC0823009F41E
:102FD000C6C090E080E0ADC0232B09F441C0209131
:102FE00046049A81E22FE90FFF27FF1F41E050E0DE
:102FF000ED3FF10514F050E040E0452B89F12A87C0
:10300000920F90934604D3CFA081B181A20FB31F3A
:1030100011966C91060F111D0196295F3F4F841781
:10302000950794F38D859E85089F1001099F300CAC
:10303000189F300C1124C114D104D1F48F8184FF66
:1030400017C00E94D020F5E02F0E311C21E0821520
:10305000930508F420E0A701435F5F4F21110EC0E4
:1030600082E090E0F2019183808387EF9FEF4DCF64
:103070000E94D0202FEF221A320AE8CF888199814E
:10308000E80EF91EF70114830383FFEFCF1ADF0A5E
:103090007A018A818C151D0409F00CF48CCFE8812B
:1030A000F981EE0DFF1D428150E030E020E010E09C
:1030B00000E090E080E0B3CFF12CE12CD12CC12CCA
:1030C000E8CF81E090E09C838B83E9DA882309F4E0
:1030D00080CF81E090E00E94CC0F80E40E94DA0F64
:1030E00078CF89899A89019661F083E090E09C838A
:1030F0008B8382E090E00E94CC0F80E40E94D40F8A
:1031000068CF8D819E812091730230917402821765
:103110009307D1F46091770270917802AE014F5E0F
:103120005F4F80917502909176020E94592300971B
:10313000E1F2789422E030E0F20131832083892BA0
:1031400099F08DEF9FEFE1CE89288A288B2869F6C8
:10315000892B59F6CE0167DE188A1F86E8CF82E0F8
:1031600090E09C838B8335CF90E080E0CECE82E0F0
:1031700090E0F2019183808385EF9FEFC6CE8F921E
:103180009F92AF92BF92CF92DF92EF92FF920F93F6
:103190001F93CF93DF93EA018C01060F171FF801ED
:1031A0008181833098F082E090E09983888386EF74
:1031B0009FEFDF91CF911F910F91FF90EF90DF90E4
:1031C000CF90BF90AF909F908F90089580914204D0
:1031D00090914304892B61F081E090E020914404B8
:1031E00030914504232B11F490E080E0892B39F4D1
:1031F00082E090E0998388838EEF9FEFDACF42DE02
:10320000882309F4DFC0F8018181813009F495C079
:10321000E8F0823099F42091440430914504E09123
:103220004204F091430490E080E041E050E0281730
:10323000390709F0BDC033DA811117C0789481E0F5
:1032400090E09983888390E080E0B3CF209144049C
:1032500030914504E0914204F091430490E080E015
:1032600041E050E02817390741F481E090E00E94E6
:10327000CC0F80E40E94DA0FE1CF63817481672B69
:1032800011F05483438301967396ECCFE09142048E
:10329000F0914304E00FF11F238134812230310586
:1032A000D9F4218932892F3F3F4FB1F425813681EE
:1032B00040917302509174022417350761F5AF01F4
:1032C0004F5E5F4F60917702709178028091750236
:1032D000909176020E945923EFEFCE1ADE0AEE0A91
:1032E000FE0A0D5E1F4F409144045091450470E06A
:1032F00060E0C416D506E606F7063CF5009731F205
:103300007894892B09F49BCF82E090E0998388839D
:103310008DEF9FEF4ECFC114D104E104F104E1F62B
:10332000232BD1F6CF017FDDE0914204F0914304DD
:10333000E00FF11F108A1786CFCF10E000E090E079
:1033400080E0C12CD12C7601CECF0097C9F610E0D9
:1033500000E0812C912C540183E0E82EF12C1AC05E
:10336000E0914204F0914304E00FF11F83819481C6
:10337000029749F4F482E38282E090E00E94CC0F4D
:1033800080E40E94D40FFFEF8F1A9F0AAF0ABF0A92
:103390000D5E1F4F8091440490914504B0E0A0E081
:1033A00088169906AA06BB06DCF290E080E0A8CF5A
:1033B000638174816230710511F4548343830196F3
:1033C000739635CF82E090E09983888385EF9FEFF5
:1033D000F0CE0097B9F48FEFFB01808320917D023E
:1033E00030917E0243E1429FC001439F900D112422
:1033F000E0914204F0914304E80FF91F8285FB013C
:10340000818308950C94800F88E090E0FA01918305
:10341000808390E080E0089510924104109240046F
:10342000E2E4F4E086E0DF011D928A95E9F786E99F
:1034300095E190933F0480933E04089580913E046B
:1034400090913F0408952F923F924F925F926F9216
:103450007F928F929F92AF92BF92CF92DF92EF9224
:10346000FF920F931F93CF93DF93CDB7DEB72F97C4
:103470000FB6F894DEBF0FBECDBFF894E0914004C4
:10348000F09141043196F0934104E0934004789424
:1034900040904204509043044114510409F40CC27A
:1034A000E0914404F0914504EF2B09F405C22D8707
:1034B00049875A876B877C8798878F831201B12C45
:1034C000A12C10E000E08091440490914504A816DE
:1034D000B90618F40115110529F1F89480914004FA
:1034E0009091410401979093410480934004789413
:1034F000C8012F960FB6F894DEBF0FBECDBFDF9187
:10350000CF911F910F91FF90EF90DF90CF90BF90E0
:10351000AF909F908F907F906F905F904F903F9073
:103520002F9008957101E418F508D10117968C9138
:10353000179781FD54C013968D919C911497039712
:1035400009F04DC015968D919C91EF81F8858E17ED
:103550009F0709F044C0B50190E080E07FD48A83E2
:1035600020914204309143043D832C833D853323D5
:1035700009F44CC04C815D81452B09F49AC18091BE
:10358000440490914504A816B90608F092C1C501FB
:10359000D0D88823E9F06C817D816E0D7F1D7D83FD
:1035A0006C83DB011F968D919C91892B89F0D12C26
:1035B000C12CF12CE12CAC81BD8112968C9112971B
:1035C0008E151F0409F094F450961C921E921F97BA
:1035D0002A81222321F0B50190E080E041D43FEF21
:1035E000A31AB30A43E1240E311C6DCFAC81BD8117
:1035F000ED91FC91EC0DFD1D858196810FD7BFEFFC
:10360000EB1AFB0AEDE0CE0ED11CD5CFEC81FD818B
:10361000309709F44EC18091440490914504A81656
:10362000B90608F046C1EE0DFF1DFF87EE87C50104
:1036300080D88B83882339F1AE85BF851F968D9105
:103640009C915097019621E01D964D915C918417B5
:10365000950709F020E02E831982712C10E000E01C
:10366000AE85BF8512968C91781608F45DC0EE8504
:10367000FF85878590890196658576850E94C13191
:10368000908B8787A5CFB1E0BE83E6CF9924939432
:103690006BC08BD6F6019683858382C0D601ED90F0
:1036A000FC90B7E06B9EE00CF11C1124F7016381E4
:1036B000748180818F3F61F121E030E002C0220FF0
:1036C000331F8A95E2F7C901092E000CAA0BBB0B28
:1036D000FB01408151816281738184239523A6235C
:1036E000B72321E0892B8A2B8B2B09F420E0D4010E
:1036F0002C93D70111968C91F60123853485820F86
:10370000932F911D880E991E1486138663949BC077
:10371000418150E0C4010E941832EBCF998206EF3C
:103720001FEFC5C01982C3C0F981F111A0CFEDE030
:103730007E9E70011124AE85BF85CD90DC90CE0CAD
:10374000DF1C15D49D838C83BB81BB2309F49ECFE2
:1037500081E0EE85FF8527853089232B09F080E005
:10376000982E882309F458C0672D8E859F8505D82B
:10377000D60118969C938E93179761E070E0C2D49F
:10378000EE85FF85218932892F3F320709F481CFE9
:10379000BC01C901CFD7D60116969C938E9315977D
:1037A000D60115968D919C911697009709F4B6CF86
:1037B000EC81FD818E0F9F1F1A969C938E93199713
:1037C000AE85BF85ED91FC911197EE0EFF1EF701BE
:1037D00021853285148613861A968C91870DD9011E
:1037E0008D93711016C0EE85FF85878184FF11C00F
:1037F00049855A856B857C85F901418352836383B2
:103800007483F701838594850496A80FB91F1486E5
:103810001386F701B287A187D60115968D919C91E9
:103820001697892B09F443C0EE85FF8525813681E3
:1038300080917302909174022817390779F01996D4
:103840008D909C90612CD60112968C9112976816DF
:1038500008F424CF1A969C928E921997BE81BB23AE
:1038600009F460CF61E070E0F601878190854AD469
:10387000D6011796ED90FC90189715964D915C9196
:10388000E1E0F0E0BA81BB2311F0F0E0E0E00C8170
:103890001D819C01B501882799278E1B9F0B6AD338
:1038A0008C01892B21F0F60185819681B7D573941F
:1038B000D7CE0FEF1FEF8CCE10E000E00ECE2F9290
:1038C0003F924F925F926F927F928F929F92AF92B0
:1038D000BF92CF92DF92EF92FF920F931F93CF93FD
:1038E000DF93809142049091430410E000E0892B23
:1038F000A9F0C8DA0AEF1FEF882381F02090440472
:1039000030904504C0914204D0914304D12CC12C85
:1039100010E000E02C143D04A9F47894C801DF9174
:10392000CF911F910F91FF90EF90DF90CF90BF90BC
:10393000AF909F908F907F906F905F904F903F904F
:103940002F900895C6010E949913882309F18B8155
:103950009C810397E9F48F859889892BC9F0B6017A
:1039600090E080E07BD221E030E0882311F030E06D
:1039700020E044245524421A530AB12CA12C912C46
:10398000812C8A818815190409F038F4188A1F8659
:103990004FEFC41AD40A6396BDCFE881F981EA0DCE
:1039A000FB1D85819681892BA1F161E070E0878103
:1039B0009085A8D33C01DBD28C01E881F981EA0D26
:1039C000FB1D8185928525813681200F311FAC0139
:1039D000421B530B9A0147815085421B530B70E0E9
:1039E00060E00E942132E881F981EA0DFB1DE78049
:1039F000F084458156819301B601C201BBD28C018E
:103A0000892B39F0E881F981EA0DFB1D85819681CA
:103A100005D55FEF851A950A8DE0A80EB11CB1CFD0
:103A200031CA789408952F923F924F925F926F928D
:103A30007F929F92AF92BF92CF92DF92EF92FF92CE
:103A40000F931F93CF93DF9300D000D0CDB7DEB795
:103A50000091420410914304992493940115110597
:103A600009F43EC0A0904404B09045040BDA982EAF
:103A70008823B1F11092430410924204109245043D
:103A80001092440410924604109247048FEF9FEF67
:103A9000DC0180937D0290937E02A0937F02B0931D
:103AA000800278947FD31E830D83C12CD12C7601A4
:103AB000C501B0E0A0E089839A83AB83BC83222454
:103AC0002A94322C89819A81AB81BC81C816D9068F
:103AD000EA06FB06F4F0C801A1D480E40E94DA0FE4
:103AE000892D26960FB6F894DEBF0FBECDBFDF91AD
:103AF000CF911F910F91FF90EF90DF90CF90BF90EB
:103B0000AF909F907F906F905F904F903F902F90DD
:103B10000895AD81BE8115968D919C911697209147
:103B200073023091740282179307D1F451968D91EC
:103B30009C91EED5ED81FE8180819181B12CA12CEB
:103B4000412C512C3201892B89F5BFEFCB1ADB0AAE
:103B5000EB0AFB0AED81FE817396FE83ED83B2CF03
:103B6000C114D104E104F10429F7892B19F7ED817F
:103B7000FE81818992898F3F980709F029D5AD810F
:103B8000BE8152963C922E925197D4CF8A0D9B1DA6
:103B9000DC018D919C91009709F040D4BFEF4B1A46
:103BA0005B0A6B0A7B0AEDE0AE0EB11CAD81BE81F3
:103BB0008D919C91119712964C9150E070E060E0CD
:103BC00044165506660677060CF328D4BECFCF936D
:103BD000DF93EA0128DF811109C082E090E0998338
:103BE000888385EF9FEFDF91CF91089581E090E08A
:103BF0000E94CC0F81E090E09983888390E080E080
:103C0000F2CF11DF10923F0410923E04089542E07B
:103C100050E06FE073E00C94EA0FFF920F931F9354
:103C2000CF93DF938A01EC01C60FD71FF980B9D279
:103C30000897F816190671F068F082E090E0F80134
:103C4000918380838EEF9FEFDF91CF911F910F9132
:103C5000FF9008956C817D818E819F814B810E94B0
:103C60007F12811108C082E090E0F8019183808387
:103C700084EF9FEFE9CFF9800E947A124F2D50E038
:103C8000BE01685F7F4F0E94183289810E94E9124D
:103C900081E090E0F8019183808390E080E0D4CFD0
:103CA000DF92EF92FF920F931F93CF93DF938A01DE
:103CB000EC01C60FD71F0E947A127C01D98071D205
:103CC000DD2059F0029721E030E0D816190619F0EE
:103CD00010F030E020E0232B79F482E090E0F8014E
:103CE000918380838EEF9FEFDF91CF911F910F9192
:103CF000FF90EF90DF900895EF2841F482E090E08C
:103D0000F8019183808384EF9FEFEECFF9800E94CA
:103D10007A124F2D50E0BE016E5F7F4F0E94183225
:103D200089810E94E91281E090E0F801918380830B
:103D300090E080E0D9CF87E09EE1909349048093A2
:103D40004804089580914804909149040895089585
:103D5000FC0111821082938382830895DB011D92FE
:103D60001C92DC011296ED91FC9113977183608394
:103D700013967C936E9312970895FC018081918134
:103D8000DB018D939C93A081B181109741F08D91BF
:103D90009C9191838083892B11F4F383E2830895AE
:103DA000FC0180819181DB018D939C93892B11F41F
:103DB00073836283718360830895FC011182108292
:103DC000938382830895CF93DF931F921F92CDB781
:103DD000DEB71A821982F894BE016F5F7F4F8FE4BD
:103DE00094E0CBDF89819A81009709F017D389810C
:103DF0009A81892B89F7BE016F5F7F4F83E594E03D
:103E0000BCDF89819A81009709F008D389819A8162
:103E1000892B89F778940F900F90DF91CF910895B7
:103E2000CF93DF931F921F92CDB7DEB71A8219820C
:103E3000F894BE016F5F7F4F8BE494E09EDF898131
:103E40009A81009709F0EAD289819A81892B89F7B2
:103E500078940F900F90DF91CF91089581E00895AD
:103E600090E080E00895EF92FF920F931F93CF931D
:103E7000DF931F921F92CDB7DEB71A82198280910D
:103E80004A0407EF1FEF8823A1F1F894BE016F5F8A
:103E90007F4F83E594E071DF789489819A81EE24E5
:103EA000E394F12C892B51F4F894BE016F5F7F4F9E
:103EB0008FE494E062DF7894F12CE12C89819A817F
:103EC0000EEF1FEF0097A9F0FC014281538164E0DF
:103ED00070E074D68C01892B61F0F89469817A8145
:103EE000C701880F991F880F991F815B9B4F58DF6F
:103EF0007894C8010F900F90DF91CF911F910F918F
:103F0000FF90EF9008950F931F93CF93DF9300D00E
:103F10001F92CDB7DEB71C821B821A821982809154
:103F20004A0407EF1FEF8823C1F0AE014D5F5F4FDA
:103F300064E070E0CE010196B4D68C01892B69F45F
:103F4000E981FA818B819C8193838283F8946981D2
:103F50007A818BE494E002DF7894C8010F900F908F
:103F60000F900F90DF91CF911F910F910895B9D7C6
:103F7000049608958F929F92AF92BF92CF92DF9254
:103F8000EF92FF920F931F93CF93DF931F921F9295
:103F9000CDB7DEB71A821982BC016F5F7F4F6330E5
:103FA000710598F0AA24AA94BA2CC5010F900F901D
:103FB000DF91CF911F910F91FF90EF90DF90CF9005
:103FC000BF90AF909F908F9008954115510551F388
:103FD000480159018A016C01CADF8815990511F75A
:103FE000E114F104F9F28E0D9F1DA816B906D0F266
:103FF00080914A048823F1F0F894B5016450710966
:104000009701AE014F5F5F4FC8010496DFD65C0198
:10401000892B71F489819A81F80193838283C60187
:10402000880F991F880F991FB801815B9B4F96DEFF
:104030007894BBCF87EFA82EBB24BA94B6CFAF92AB
:10404000BF92CF92DF92EF92FF920F931F93CF9385
:10405000DF931F921F92CDB7DEB71A821982892B88
:1040600009F047C06115710509F443C041155105B8
:1040700009F43FC02115310509F43BC001151105B4
:10408000C1F180914A048823B9F179016A015B0189
:10409000F894BE016F5F7F4F8BE494E06EDE7894FE
:1040A00089819A81009759F1DC0112966D917C917A
:1040B000A8010496A4D68C01E981FA81D501ED937B
:1040C000FC93828193810496F601918380834FDF74
:1040D000D7018D939C93C8010F900F90DF91CF91E2
:1040E0001F910F91FF90EF90DF90CF90BF90AF9016
:1040F00008950FEF1FEFEFCF07EF1FEFECCF0EEF9D
:104100001FEFE9CFCF93DF93EC01672B71F4F2D669
:104110008C179D0760F0E5D62496C80FD91FE4D60A
:104120008C0F9D1FDF91CF910895E1D6F1CF90E0E4
:1041300080E0F8CF0F931F93CF93DF9320914A0431
:1041400021112BC08B01EC018FE494E001DE83E5AB
:1041500094E0FEDD8BE494E0FBDD97D00097C1F4A2
:10416000C9D670E060E0CEDF41E852E062E070E086
:1041700081D1009769F48091810290918202CCD61E
:10418000B801CE0101D5009719F421E020934A042B
:10419000DF91CF911F910F91089584EF9FEFF8CF9A
:1041A000A6C6A8C6CF93DF93A8D6EC01892B11F43D
:1041B0000ADE36DECE01DF91CF910895CF93DF93F3
:1041C0009CD6EC01892B09F4FEDDCE01DF91CF9165
:1041D000089580918102909182020895CF93DF9398
:1041E00080914A04D0E0C0E08823D1F09AD6EC0157
:1041F000892BB1F4E8DD14DE809181029091820276
:10420000E7D1E8D2EC01892B59F48FE494E0D5DDB5
:1042100083E594E0D2DD8BE494E0CFDD10924A0494
:10422000CE01DF91CF910895EF92FF920F931F93EC
:10423000CF93DF93EC017A018B010F5F1F4F0E9D2F
:10424000A0010F9D500D1E9D500D112470E060E0E7
:104250000E94213290E080E0F0E0E0E02FEFE816ED
:10426000F90639F4DF91CF911F910F91FF90EF90F4
:1042700008951A8219822883309711F0D283C1835E
:104280000196FE01C00FD11FEACFCF92DF92EF92CD
:10429000FF920F931F93CF93DF930CEB15E00C7FEE
:1042A00043E050E063E872E089E892E01AD483E8E2
:1042B000E82E82E0F82E99E8C92E92E0D92EC3E4C8
:1042C000D6E0D7014D915D917D01F601619171912B
:1042D0006F01198308835D834C835B834A837F83EB
:1042E0006E839B012F5F3F4F249FC001259F900D40
:1042F000349F900D1124998788870115110511F0BD
:10430000C80192DF88859985080F191F2A96F9E858
:10431000EF16F2E0FF06A9F6E9E5F4E080E691E0A9
:10432000DF019C011D9221503040E1F710925804AA
:10433000109257041092620610926106109266065F
:104340001092650610926406109263061092680639
:104350001092670610926A061092690610926C0617
:1043600010926B061092700610926F0610926E06F5
:1043700010926D06109272061092710610927406D9
:10438000109273061092400610923F061092420659
:104390001092410690E080E0DF91CF911F910F9144
:1043A000FF90EF90DF90CF9008950097F1F0F89490
:1043B000A9E8B2E0E3E4F6E030E020E04D915D9161
:1043C00048175907A8F0428153814115510581F0E2
:1043D0008AE0829FF001839FF00D1124ED5BF94F7D
:1043E00080819181009759F4789490E080E008955D
:1043F0002F5F3F4F3A962330310501F7F5CFDC01AF
:1044000011966D917C917183608341505109538362
:104410004283FC012193CF0178940895009749F1DC
:10442000DC018E91853041F4E0914106F091420625
:104430003097F9F0CD0119948530D8F4282F30E069
:10444000F8948FEF8C938AE0829FF001839FF00DA8
:104450001124ED5BF94F8081918112969C938E938C
:104460001197B183A0838281938101969383828384
:1044700078940895CF92DF92EF92FF920F931F935B
:10448000CF93DF939C018CE594E08C7F411551051F
:1044900009F49BC02115310509F497C06115710518
:1044A00009F493C07A01AB01B9016D5F7F4F6C7F56
:1044B0009B012F5F3F4F249F8001259F100D349F4C
:1044C000100D1124F8942091610630916206232B7F
:1044D00059F42091690630916A062115310569F178
:1044E0002017310708F058C020916B0630916C06F8
:1044F000232B91F42091690630916A06820F931F55
:1045000020917306309174062115310509F441C0DC
:104510002017310708F056C07894CFEFDFEF86EF11
:104520009FEFF701D183C083DF91CF911F910F914E
:10453000FF90EF90DF90CF900895C3E0D0E0C0905F
:104540005704D09058042DE531E02C193D0920176F
:10455000310710F32AE02C9FF0012D9FF00D11245C
:10456000ED5BF94F9183808355834483538342836A
:104570007783668311870087009709F055DE0C0D5D
:104580001D1D1093580400935704789490E080E028
:10459000C8CFC4E0D0E0D3CFC3E0D0E02AE02C9F66
:1045A000F0012D9FF00D1124ED5BF94F9183808375
:1045B000558344835383428377836683009729F32B
:1045C00033DEE3CFC4E0D0E0E9CF8FEF9FEFACCF95
:1045D0009C010397029708F069C0F89484E09AE080
:1045E000482F50E0241735070CF44DC091E08AE0C5
:1045F000829FF001839FF00D1124ED5BF94F118232
:1046000010821582148213821282178216829923D5
:10461000B1F18091610690916206892BA9F42091F5
:10462000690630916A062115310571F080915704B1
:1046300090915804821B930B9093580480935704D5
:1046400010926A061092690680916B0690916C0632
:10465000892BA9F420917306309174062115310538
:1046600071F08091570490915804821B930B9093A2
:10467000580480935704109274061092730678942D
:1046800090E080E00895949FF001959FF00D112433
:10469000ED5BF94F40815181452B31F440855185C7
:1046A000452B11F481509CCF90E0A1CF8FEF9FEF6D
:1046B00008954115510549F1009739F161157105CA
:1046C00021F1F89420913F0630914006232BB9F454
:1046D0002091410630914206232B89F490934006A5
:1046E00080933F067093420660934106789425E0DC
:1046F00030E090E080E0FA013183208308957894DF
:104700002FEF3FEF86EF9FEFF6CF8FEF9FEF0895EC
:10471000059769F4F8941092400610923F061092A3
:10472000420610924106789490E080E008958FEF61
:104730009FEF08956115710519F4F0E0E0E011C0F4
:104740008530910581F4E0913F06F0914006309765
:10475000A1F3CB0101961995009779F3FC0185E04F
:104760008193CF0108959C012350310922303105F6
:1047700020F72AE0289FD001299FB00D1124AD5BBE
:10478000B94F2D913C911197232BB9F216962D918B
:104790003C9117972617370780F2F89412962D91BF
:1047A0003C9113972115310529F0ED91FC9111975A
:1047B000309711F47894C1CF4181528111965C9366
:1047C0004E932150310913963C932E931297819367
:1047D0007894C7CFE9EBF5E086E8DF011D928A9572
:1047E000E9F7E9E5F4E080E691E0DF019C011D9244
:1047F00021503040E1F71092580410925704E3E43E
:10480000F6E082E3DF011D928A95E9F7EFE3F6E037
:1048100084E0DF011D928A95E9F790E080E0089539
:10482000CF93DF93C0918F02D0919002CF3FDC07EE
:1048300059F45CD49093900280938F0297FF09C043
:10484000D0939002C0938F0284EF9FEFDF91CF91BE
:10485000089590E080E0FACF8230910528F48093AB
:10486000750690E080E008958FEF9FEF08954F92D6
:104870005F926F927F92AF92BF92CF92DF92EF9250
:10488000FF920F931F93CF93DF931F921F92CDB789
:10489000DEB71A821982009709F478C06115710594
:1048A00009F474C020918F023091900207EF1FEF3E
:1048B0002F3F3F4F09F444C06B015C01412C512C48
:1048C0003201F12CE12C10E000E09E012F5F3F4F00
:1048D000A6014E195F09B5016E0D7F1D80918F02F3
:1048E0009091900262D4892B09F04AC089819A8103
:1048F000009741F4E114F10429F420917506222374
:1049000009F441C0E80EF91EEC14FD04C8F480E877
:10491000481684E858068EE16806710418F560E0D0
:1049200070E0CB0148D72AE0420E511C611C711C7B
:104930000A3F4FEF140721F0043F8FEF1807A1F44F
:10494000C8010F900F90DF91CF911F910F91FF90B1
:10495000EF90DF90CF90BF90AF907F906F905F907F
:104960004F90089501EF1FEF81E090E0013F2FEF9E
:10497000120711F090E080E0892B09F4A6CFE0CF78
:1049800004EF1FEFDDCF0AEF1FEFDACF0FEF1FEFBE
:10499000D7CF4F925F926F927F92AF92BF92CF929A
:1049A000DF92EF92FF920F931F93CF93DF931F92AB
:1049B0001F92CDB7DEB71A821982009709F478C02A
:1049C0006115710509F474C020918F023091900235
:1049D00007EF1FEF2F3F3F4F09F444C06B015C010D
:1049E000412C512C3201F12CE12C10E000E09E0111
:1049F0002F5F3F4FA6014E195F09B5016E0D7F1D58
:104A000080918F029091900286D3892B09F04AC041
:104A100089819A81009741F4E114F10429F42091ED
:104A20007506222309F441C0E80EF91EEC14FD04BA
:104A3000C8F480E4481682E458068FE068067104E2
:104A400018F560E070E0CB01B6D62AE0420E511CAA
:104A5000611C711C0E3F4FEF140721F0043F8FEFD4
:104A60001807A1F4C8010F900F90DF91CF911F910B
:104A70000F91FF90EF90DF90CF90BF90AF907F901D
:104A80006F905F904F90089502EF1FEF81E090E0EC
:104A9000023F2FEF120711F090E080E0892B09F41C
:104AA000A6CFE0CF04EF1FEFDDCF0EEF1FEFDACF81
:104AB0000FEF1FEFD7CF80918F02909190028F3F21
:104AC000980749F00BD3892B49F48FEF9FEF909310
:104AD000900280938F0290E080E0089584EF9FEF32
:104AE0000895CF92DF92EF92FF920F931F93CF938F
:104AF000DF9321E04115510509F020E041505109B3
:104B000021112CC0DC01FB01D12CC12C21E022C0E1
:104B10003FEFC31AD30A7D010D911D91E701EA8091
:104B2000FB80E016F106A8F420813181E280F38059
:104B3000F182E08233832283ED90FC9011979D01F6
:104B400022503109E901F982E88211961C930E93F3
:104B500020E03296C416D506D8F2D2CFDF91CF919D
:104B60001F910F91FF90EF90DF90CF900895FC017F
:104B7000680F791F90E080E0E617F70709F40895C1
:104B80002191820F911DF8CF20917606211113C03B
:104B900047DE009791F410927C0610927B061092EB
:104BA0007A0610927906109278061092770621E024
:104BB00020937606089584EF9FEF0895AF92BF92F9
:104BC000CF92DF92EF92FF920F931F93CF93DF93D9
:104BD000009709F460C04630510508F45CC020918C
:104BE0007606C7EFDFEF222309F449C08C01060FD8
:104BF000171FF801C080D180C114D10409F44EC040
:104C000096012A5F3F4F4217530708F447C07C01C3
:104C100080917B0690917C0693838283B6016C5FC2
:104C20007F4F5801A60EB71EC801A1DFF501918381
:104C3000808364E070E0C8011ADEEC01892BF9F48E
:104C400081E090E009DEB601C801049610DEEC01B7
:104C5000892B91F462E070E0C50109DEEC01892B3B
:104C600059F4C701DBDB80917B0690917C060196AD
:104C700090937C0680937B0690E080E0EDDDCE0192
:104C8000DF91CF911F910F91FF90EF90DF90CF9028
:104C9000BF90AF900895CFEFDFEFF1CFC9EFDFEF17
:104CA000EECF6F927F928F929F92AF92BF92CF92F0
:104CB000DF92EF92FF920F931F93CF93DF9300D079
:104CC0001F92CDB7DEB7009709F47AC041155105A0
:104CD00009F476C02091760607EF1FEF222309F42E
:104CE0004DC03A017B015C0164E070E0CE010196A9
:104CF00050DE8C01892B09F041C009811A81011510
:104D0000110509F45AC0480186E0880E911CB701CC
:104D1000680D791D80919102909192020BDD6C01DA
:104D2000009709F450C0A70170E060E00E942132B2
:104D300089819A81AB81BC81EC0CFD1CF7018193C8
:104D40009193A193B1937F0181E090E085DDB8015B
:104D5000C7011FDE892B31F562E070E0C701800FCB
:104D6000911F17DE8C01892BE9F490E080E074DD5F
:104D7000F501D182C082F30191828082C8010F9037
:104D80000F900F900F90DF91CF911F910F91FF9097
:104D9000EF90DF90CF90BF90AF909F908F907F90DB
:104DA0006F90089590E080E057DDF5011182108248
:104DB000F30111821082C60131DB09EF1FEFDECF54
:104DC0000FEF1FEFDBCF06EF1FEFD8CF0097A1F05B
:104DD0004115510589F02115310571F0F90136961B
:104DE0006E177F0748F0DC012D933C93DA01ED93B9
:104DF000FC9390E080E008958FEF9FEF0895AF92CD
:104E0000BF92CF92DF92EF92FF920F931F93CF93B7
:104E1000DF93009709F45FC04115510509F45BC0A9
:104E20006530710508F457C020917606C7EFDFEFB3
:104E3000222391F1DC01CD90DC9011971296ED9137
:104E4000FC9196012A5F3F4FC9EFDFEF2617370726
:104E500019F5C0917706D0917806209749F521E0A1
:104E600030E030937806209377067A018C01F09336
:104E70007A06E09379065601B4E0AB0EB11CB50199
:104E800076DE0A0D1B1DF801208131818217930700
:104E900029F5D701CD92DC92CE01DF91CF911F9100
:104EA0000F91FF90EF90DF90CF90BF90AF9008955B
:104EB0002091790630917A062F5F3F4FCCEFDFEFDC
:104EC000E217F30790F2CBEFDFEF2E173F0768F200
:104ED000D0E0C0E0CACFCFEFDFEFDECFC3EFDFEF30
:104EE000DBCF84E090E0089582E090E008958CEFBD
:104EF0009FEF089580E290E0089510927C06109252
:104F00007B0610927A06109279061092780610921B
:104F1000770690E080E0089590939202809391024A
:104F2000089580917606882391F0C5DD009789F475
:104F300010927C0610927B0610927A0610927906E7
:104F4000109278061092770610927606089590E0F7
:104F500080E00895009749F06115710531F0FC017A
:104F600011821082FB01118210820895F3CF26E096
:104F700030E040E855E260E070E090E080E000C0A2
:104F800010927E0610927D068930910508F03AC095
:104F9000FC018827E153F84D8F4F0C94F731D82747
:104FA000E127EA27F327FC270328062809280F28EA
:104FB00081E090E090937E0680937D068CE896E0F9
:104FC00022C782E090E090937E0680937D0689E27E
:104FD00097E0F6CF84E090E090937E0680937D0684
:104FE00086EC97E0EDCF88E090E090937E0680938A
:104FF0007D0683E698E0E4CF80E190E090937E0622
:1050000080937D06089580E290E0F8CF80E490E000
:10501000F5CF80E890E090937E0680937D068091A6
:105020007D0690917E069160E9CF1F920F920FB698
:105030000F9211240BB60F922F933F934F935F93D0
:105040006F937F938F939F93AF93BF93EF93FF9350
:105050008BEC93EF9093250180932401BAD0FF91BC
:10506000EF91BF91AF919F918F917F916F915F91E0
:105070004F913F912F910F900BBE0F900FBE0F904D
:105080001F9018958BEC93EF90932501809324014A
:10509000A3E7B0E08C918E7F8C93E0E2F1E0808119
:1050A0008C7F8083E1E2F1E08081877E8083808154
:1050B0008460808380818C7F80838C9181608C93DD
:1050C0000895E3E7F0E0808190819E7F9083817076
:1050D000089581E0089510927F06089568EE73E0C8
:1050E00080E090E068D390E080E0089526E030E032
:1050F00040E050E16EE070E090E080E041DF8CE85D
:1051000096E0B7D5892B21F08CE896E0CCD5F7CF87
:1051100090E080E00895CF92DF92EF92FF920F939C
:105120001F93CF93DF936B017A01E90119821882F3
:105130008CE896E09ED5892B69F18601CC24C39436
:1051400082E0D82E80917F06811110C08CE896E015
:10515000AAD50297B9F7C0927F06F801D1928F01C4
:1051600088819981019699838883ECCF8881998180
:105170008E159F0578F48CE896E095D58F3F9807BB
:10518000A9F3F80181938F01888199810196998310
:105190008883ECCF90E080E0DF91CF911F910F9159
:1051A000FF90EF90DF90CF9008950F931F93CF93D0
:1051B000DF93EA0189018CE896E00E949331F801BF
:1051C000D183C08390E080E0DF91CF911F910F9158
:1051D0000895CF92DF92EF92FF92CF93DF93809169
:1051E000800691E0980F90938006882379F021E063
:1051F00030E0309382062093810680938006DF9111
:10520000CF91FF90EF90DF90CF9008957894C09168
:105210009502D09196026E8D7F8D88A199A143D180
:1052200020E030E040E85FE4F4D16B017C016A8D5E
:105230007B8D8C8D9D8D37D19B01AC01C701B60153
:1052400099D005D16B017C010E943705B701A601F9
:1052500090E080E00E94A904F8948091800681503B
:10526000CCCF0F931F93CF93DF9310924D091092E1
:105270004C09D7D27CDEC0919502D091960219825A
:1052800018826FEF7FEFCB010E942C0570E060E089
:1052900090E080E00E94AD03009709F03AC00E94C0
:1052A0002008F8947894BE016A5D7F4F8A819B81C3
:1052B0000E94B003892B59F46FEF7FEFCB010E945E
:1052C0003F040E942605882311F081E08AA7F89404
:1052D000D9DE0E942905882311F080E008C00E94D1
:1052E00026058111FACF81E09AA59111F6CF80931E
:1052F0004C0978940E94C70F8C01789480914C09D6
:1053000081110CC00E94E4080E940B05F89490E003
:1053100080E0DF91CF911F910F9108950E940905C0
:105320000E9429058823D9F081E080934D0990914E
:105330004D0981E0911180E080934C0980914D09E5
:105340008111BFDE0130110529F40E94C70F892B9E
:1053500009F4C1DE0E94C70F8C01BBDECFCF0E94D3
:1053600026058111E1CF81E09AA59111DECF80E081
:10537000DCCF5058BB27AA270ED00DC1FED030F08D
:1053800003D120F031F49F3F11F41EF4F3C00EF46A
:10539000E095E7FBE9C0E92F0FD180F3BA17620768
:1053A00073078407950718F071F49EF527C10EF472
:1053B000E0950B2EBA2FA02D0B01B90190010C0125
:1053C000CA01A0011124FF27591B99F0593F50F43D
:1053D000503E68F11A16F040A22F232F342F442795
:1053E000585FF3CF469537952795A795F04053958D
:1053F000C9F77EF41F16BA0B620B730B840BBAF05D
:105400009150A1F0FF0FBB1F661F771F881FC2F7C7
:105410000EC0BA0F621F731F841F48F487957795DB
:105420006795B795F7959E3F08F0B3CF9395880F92
:1054300008F09927EE0F97958795089571D008F495
:1054400081E0089504D06894B111D9C00895BCD00A
:1054500088F09F5790F0B92F9927B751A0F0D1F05D
:10546000660F771F881F991F1AF0BA95C9F712C0E7
:10547000B13081F0C3D0B1E00895C0C0672F782F5C
:105480008827B85F39F0B93FCCF386957795679553
:10549000B395D9F73EF490958095709561957F4FBF
:1054A0008F4F9F4F0895E89409C097FB3EF4909565
:1054B0008095709561957F4F8F4F9F4F9923A9F0ED
:1054C000F92F96E9BB279395F6958795779567957C
:1054D000B795F111F8CFFAF4BB0F11F460FF1BC0C0
:1054E0006F5F7F4F8F4F9F4F16C0882311F096E953
:1054F00011C0772321F09EE8872F762F05C0662301
:1055000071F096E8862F70E060E02AF09A95660FB9
:10551000771F881FDAF7880F9695879597F9089572
:10552000990F0008550FAA0BE0E8FEEF16161706B4
:10553000E807F907C0F012161306E407F50798F01C
:10554000621B730B840B950B39F40A2661F0232B35
:10555000242B252B21F408950A2609F4A140A695B1
:105560008FEF811D811D089597F99F6780E870E096
:1055700060E008959FEF80EC089500240A941616C9
:10558000170618060906089500240A941216130631
:10559000140605060895092E0394000C11F48823BF
:1055A00052F0BB0F40F4BF2B11F460FF04C06F5FDB
:1055B0007F4F8F4F9F4F089557FD9058440F551FB1
:1055C00059F05F3F71F04795880F97FB991F61F085
:1055D0009F3F79F087950895121613061406551FFC
:1055E000F2CF4695F1DF08C0161617061806991F68
:1055F000F1CF86957105610508940895E894BB275D
:1056000066277727CB0197F908958ADF08F48FEF93
:1056100008950BD0C0CFB1DF28F0B6DF18F0952386
:1056200009F0A2CFA7CF1124EACFC6DFA0F3959F40
:10563000D1F3950F50E0551F629FF001729FBB2779
:10564000F00DB11D639FAA27F00DB11DAA1F649F25
:105650006627B00DA11D661F829F2227B00DA11DD8
:10566000621F739FB00DA11D621F839FA00D611D5E
:10567000221F749F3327A00D611D231F849F600D7F
:10568000211D822F762F6A2F11249F5750408AF0B8
:10569000E1F088234AF0EE0FFF1FBB1F661F771F44
:1056A000881F91505040A9F79E3F510570F05CCF84
:1056B000A6CF5F3FECF3983EDCF386957795679530
:1056C000B795F795E7959F5FC1F7FE2B880F911D62
:1056D0009695879597F908951F920F920FB60F929E
:1056E00011242F933F938F939F93AF93BF938091F8
:1056F000840690918506A0918606B0918706309128
:10570000830623E0230F2D3758F50196A11DB11D07
:10571000209383068093840690938506A093860643
:10572000B09387068091880690918906A0918A0699
:10573000B0918B060196A11DB11D809388069093B0
:105740008906A0938A06B0938B06BF91AF919F9173
:105750008F913F912F910F900FBE0F901F90189532
:1057600026E8230F0296A11DB11DD2CF3FB7F894B2
:105770008091880690918906A0918A06B0918B0647
:1057800026B5A89B05C02F3F19F00196A11DB11D9C
:105790003FBFBA2FA92F982F8827BC01CD01620FD8
:1057A000711D811D911D42E0660F771F881F991F93
:1057B0004A95D1F708958F929F92AF92BF92CF9260
:1057C000DF92EF92FF926B017C01D0DF4B015C0115
:1057D000C114D104E104F104D9F0D2D5C7DF6819AE
:1057E00079098A099B09683E73408105910580F318
:1057F00021E0C21AD108E108F10888EE880E83E0A2
:10580000981EA11CB11CC114D104E104F10431F7AC
:10581000FF90EF90DF90CF90BF90AF909F908F90D0
:105820000895789484B5826084BD84B5816084BD18
:1058300085B5826085BD85B5816085BDEEE6F0E009
:10584000808181608083E1E8F0E010828081826065
:105850008083808181608083E0E8F0E080818160E6
:105860008083E1EBF0E0808184608083E0EBF0E016
:10587000808181608083E1E9F0E0808182608083C3
:10588000808181608083E0E9F0E0808181608083B5
:10589000E1EAF0E0808182608083808181608083A2
:1058A000E0EAF0E0808181608083E1E2F1E08081E4
:1058B00082608083808181608083E0E2F1E080818A
:1058C00081608083EAE7F0E080818460808380816A
:1058D0008260808380818160808380818068808312
:1058E0001092C1000895863308F0865320917B0002
:1058F000982F9870277F922B90937B002091930292
:1059000090E4299F900111248770822B80937C0062
:1059100080917A00806480937A0080917A0086FD7D
:10592000FCCF809178009091790008951F93CF93D8
:10593000DF93182FEB0161E033D1209731F460E061
:10594000812FDF91CF911F9167C1CF3FD10511F416
:1059500061E0F6CFE12FF0E0EC51FF4FE491E15030
:10596000E23108F0B2C0F0E08827E754F34D8F4FE2
:105970003EC5CB2CD32CD82CE22CEC2C652DF62C50
:10598000FE2C062D102D1A2D242D332D3D2D652D89
:10599000472D512D5B2D84B5806884BDC7BDDF9137
:1059A000CF911F91089584B5806284BDC8BDF7CFA3
:1059B00080918000806880938000D0938900C0939C
:1059C0008800EDCF80918000806280938000D0932A
:1059D0008B00C0938A00E3CF809180008860809321
:1059E0008000D0938D00C0938C00D9CF8091B000FF
:1059F00080688093B000C093B300D1CF8091B00095
:105A000080628093B000C093B400C9CF80919000B1
:105A1000806880939000D0939900C0939800BFCF86
:105A200080919000806280939000D0939B00C093FF
:105A30009A00B5CF80919000886080939000D093B9
:105A40009D00C0939C00ABCF8091A00080688093A4
:105A5000A0008091A0008F7B8093A000D093A9002C
:105A6000C093A8009CCF8091A00080628093A0008A
:105A7000D093AB00C093AA0092CF8091A000886021
:105A80008093A000D093AD00C093AC0088CF8091EC
:105A90002001806880932001D0932901C0932801C0
:105AA0007ECF80912001806280932001D0932B01D2
:105AB000C0932A0174CF80912001886080932001D7
:105AC000D0932D01C0932C016ACFC038D1050CF0C2
:105AD0003FCF35CF8150823108F059C0E82FF0E038
