:10000000F8C0000027C1000025C1000023C1000086
:1000100021C100001FC100001DC100001BC1000064
:1000200019C1000017C1000015C1000013C1000074
:1000300011C100000FC100000DC100000BC1000084
:1000400009C1000007C1000005C1000003C1000094
:1000500001C10000FFC00000FDC000000C94842B13
:10006000F9C000000C947B2F0C94B12FF3C000005A
:10007000F1C00000EFC00000EDC00000EBC00000C8
:10008000E9C00000E7C00000E5C00000E3C00000D8
:100090000C9407300C943D30DDC00000DBC0000044
:1000A000D9C00000D7C00000D5C00000D3C00000F8
:1000B000D1C00000CFC00000CDC00000CBC0000008
:1000C000C9C00000C7C000000C942D280C949330C8
:1000D0000C94C930BFC000000C941F310C945531F2
:1000E000B9C0000000000A0B02090C0D0E0807033E
:1000F00004010000000000000000000000000000FB
:1001000000000000000000000000000000000000EF
:1001100012111000000000000000000000000000AC
:100120000000000000000000000001021020200874
:100130000810204010204080020102010804020142
:1001400001020408102040808040201008040201B1
:10015000800402018040201008040201080402010A
:100160000102040810204080010204081020408091
:1001700005050505070508080808020202020A0A23
:100180000808040404040101010101010101030341
:10019000030303030303040707070C0C0C0C0C0CEC
:1001A0000C0C0202020206060606060606060B0BE9
:1001B0000B0B0B0B0B0B00002200250028002B0063
:1001C0002E003100340002010000050108010B017E
:1001D00000002100240027002A002D0030003300F9
:1001E00001010000040107010A01DA2F6630F23034
:1001F0007E3111241FBECFEFD1E2DEBFCDBF00E0C4
:100200000CBF13E0A0E0B2E0E4E8F4E600E00BBFCE
:1002100002C007900D92A433B107D9F729E0A4E3F7
:10022000B3E001C01D92A235B207E1F710E0C9EFBB
:10023000D0E000E006C021970109802FFE010E9456
:100240000F32C53FD10780E00807A9F70E9449296E
:100250000C944032D5CECF92DF92EF92FF92CF93A3
:10026000882351F16A017B01CFEFC80F20E030E015
:10027000A901CB01B6010E94362A18168CF0C701DD
:10028000B60190580E943F2A9B01AC016C2F70E090
:1002900090E080E0CF91FF90EF90DF90CF90B2C0E0
:1002A000C701B6010E943A2A8C2FCF91FF90EF90A0
:1002B000DF90CF900C94AE2CCF91FF90EF90DF9019
:1002C000CF9008950F931F938B019C0183E0369587
:1002D0002795179507958A95D1F70C5C1C4F462FEB
:1002E000477021E030E0F90102C0EE0FFF1F4A9590
:1002F000E2F7AF01F80120812423CB0101962111FF
:1003000002C090E080E01F910F9108950F931F931A
:100310008B019C0183E036952795179507958A9563
:10032000D1F7677081E090E001C0880F6A95EAF725
:10033000F801EC5CFC4F2081452B31F48095822341
:1003400080831F910F910895822BFACF2F923F92B5
:100350004F925F926F927F928F929F92AF92BF92D5
:10036000CF92DF92EF92FF920F931F93CF93DF9381
:10037000D62EC72E782E692E49015A01280161E038
:100380008D2D0E94E82DCD2DDC2D8E010F5F1F4F8E
:10039000A8016D2D7C2D872D962DB8DF20E030E053
:1003A000A901C201B7010E941D2B181664F4C201F5
:1003B000B7010E943F2A2B01C501B4010E943F2AC8
:1003C000A201CE0123D0C801DF91CF911F910F91DF
:1003D000FF90EF90DF90CF90BF90AF909F908F9065
:1003E0007F906F905F904F903F902F90089588235B
:1003F00041F08150682F70E090E080E050E040E0F4
:1004000085CF0895862FB9010C94AE2C9C01FC0178
:10041000EC51FF4FE491E150E231E0F4F0E0882745
:10042000EB5EFD4F8F4F0C940F3227022E023102EC
:1004300048025D022A0272027E0282029902AE0224
:10044000C302DA02EF022A0204031B03300384B55D
:10045000806884BD60E0822F0C94242E84B5806275
:10046000F8CF809180008C7F8260809380008091A3
:100470008100807E8061682B6093810050938700AB
:100480004093860080918000806880938000E2CF56
:10049000809180008C7F82608093800080918100B9
:1004A000807E8061682B6093810050938700409329
:1004B0008600809180008062E8CF809180008C7FF0
:1004C00082608093800080918100807E8061682BB3
:1004D0006093810050938700409386008091800054
:1004E0008860D3CF8091B00080688093B000809105
:1004F000B100887F682B6093B100ACCF8091B000D1
:100500008062F3CF809190008C7F82608093900016
:1005100080919100807E8061682B60939100509360
:10052000970040939600809190008068809390009F
:1005300091CF809190008C7F826080939000809119
:100540009100807E8061682B6093910050939700AA
:1005500040939600809190008062E8CF8091900057
:100560008C7F82608093900080919100807E80617A
:10057000682B609391005093970040939600809170
:1005800090008860D3CF8091A0008C7F82608093A0
:10059000A0008091A100807E8061682B6093A10003
:1005A0005093A7004093A6008091A000806880939C
:1005B000A00050CF8091A0008C7F82608093A0002B
:1005C0008091A100807E8061682B6093A100509390
:1005D000A7004093A6008091A0008062E8CF8091A0
:1005E000A0008C7F82608093A0008091A100807E1B
:1005F0008061682B6093A1005093A7004093A600F0
:100600008091A0008860D3CF809120018C7F826090
:100610008093200180912101807E8061682B60930E
:100620002101509327014093260180912001806889
:10063000809320010FCF809120018C7F8260809376
:10064000200180912101807E8061682B60932101CF
:100650005093270140932601809120018062E8CFCA
:10066000809120018C7F8260809320018091210104
:10067000807E8061682B6093210150932701409315
:100680002601809120018860D3CFCF93DF93882308
:1006900049F0EB0181500E948B2C99838883DF9174
:1006A000CF910895FB0111821082F9CF0F931F9310
:1006B0008B019C0183E036952795179507958A95C0
:1006C000D1F7035C1C4F462F477021E030E0F90161
:1006D00002C0EE0FFF1F4A95E2F7AF01F80120813B
:1006E0002423CB010196211102C090E080E01F91EC
:1006F0000F9108950F931F938B019C0183E0369512
:100700002795179507958A95D1F7677081E090E056
:1007100001C0880F6A95EAF7F801E35CFC4F20817D
:10072000452B31F48095822380831F910F9108958A
:10073000822BFACFCF92DF92EF92FF92CF93DF938B
:100740006B017C0160E086E3C816D104E104F1048A
:1007500090F486E38C0D0E94E82DE6012196AE010F
:10076000C701B601C7DFCE01DF91CF91FF90EF90B7
:10077000DF90CF9008958C2DEECF882341F08150EB
:10078000682F70E090E080E050E040E0B3CF089543
:1007900090E080E008950F931F93009709F487C0BD
:1007A0006115710509F483C00091760210917702FA
:1007B00020917802309179020E3F1F4F2F4F3F4F0B
:1007C00009F066C04FEF5FEFBA0140937602509395
:1007D000770260937802709379024091760250918B
:1007E00077026091780270917902DC011296ED91A6
:1007F000FC9180819181A281B3818093B403909315
:10080000B503A093B603B093B70384819581A68105
:10081000B7818093B0039093B103A093B203B093D8
:10082000B30380859185A285B3858093AC039093B3
:10083000AD03A093AE03B093AF0384859585A685E1
:10084000B7858093A8039093A903A093AA03B093BC
:10085000AB031092A4031092A5031092A60310926A
:10086000A703E4D78BE39CE0909347038093460370
:100870009093490380934803C8D6009731F421E050
:1008800030E03093B9032093B8031F910F9108957E
:1008900000917602109177022091780230917902CE
:1008A000DB010D931D932D933C93139796CF8FEF00
:1008B0009FEFEBCF8F929F92AF92BF92CF92DF923A
:1008C000EF92FF921F93CF93DF934B015C01109146
:1008D000BB0382E090E09093B9038093B803811446
:1008E0009104A104B10441F48091BB03811104C0BF
:1008F0008091BA03C1E08111C0E0C12CD12C7601F6
:100900008091BB03811106C08091BA03811102C09E
:10091000CC23D9F083E090E09093B9038093B8039F
:10092000CC2379F1CCE9DFEF111102C00E949F0FB7
:10093000CE01DF91CF911F91FF90EF90DF90CF908C
:10094000BF90AF909F908F9008956AE070E080E034
:1009500090E00E94F32B80E1C80E87E2D81EE11CD4
:10096000F11C8FEF88169806A806B80631F0C1E092
:100970008C149D04AE04BF0408F0C0E080E079D67A
:10098000BFCFD0E0C0E0D0CFCF92DF92EF92FF9206
:100990000F931F93CF93DF938F3F910511F008F0D2
:1009A00050C02091B8033091B9032330310539F09C
:1009B0002091B8033091B9032130310531F424E09E
:1009C00030E03093B9032093B8036A017B01EC0156
:1009D00082309105A0F011E0AE01C701B60114D636
:1009E000AB01BC01CE011123F9F0DF91CF911F9132
:1009F0000F91FF90EF90DF90CF900C94C8118C0175
:100A0000000F111F0A5B1C4FD8018D919C91892BFF
:100A100011F30E94D2110297F1F6D801ED91FC91E9
:100A2000CE011995182FD8CF0E94EA1190E080E0EE
:100A3000DF91CF911F910F91FF90EF90DF90CF90BA
:100A400008958FEF9FEFF4CF80E013C6CF93DF932D
:100A500086E090E09093B9038093B80363D6EC01ED
:100A6000E6E4F3E084E0DF011D928A95E9F70E9455
:100A7000370F1092B9031092B803CE01DF91CF91D6
:100A800008958091BA0308958091A3030895609317
:100A9000760270937702809378029093790290E0C7
:100AA00080E008952F923F924F925F926F927F92D3
:100AB0008F929F92AF92BF92CF92DF92EF92FF926E
:100AC000CF93DF9300D000D000D01F92CDB7DEB718
:100AD0008090120990901309A0901409B090150904
:100AE000C0901609D0901709E0901809F0901909E4
:100AF00020913402309135024091360250913702F4
:100B0000C501B4010E94212B2B013C0120913C0224
:100B100030913D0240913E0250913F02C701B60123
:100B20000E94212B9B01AC01C301B2010E94D2297A
:100B300060932409709325098093260990932709CF
:100B4000209138023091390240913A0250913B0293
:100B5000C501B4010E94212B4B015C012091400290
:100B6000309141024091420250914302C701B601C7
:100B70000E94212B9B01AC01C501B4010E94D22926
:100B8000609328097093290980932A0990932B096F
:100B9000C0902002D0902102E0902202F090230227
:100BA000A7019601609106097091070980910809D3
:100BB000909109090E94362A882341F0C0920609C3
:100BC000D0920709E0920809F092090966E370E003
:100BD00080E090E06BDD909305098093040943E089
:100BE00050E0BE016F5F7F4F50DD20917402309165
:100BF0007502A981BA810E9417320E946B2A20E0F7
:100C000030E040E057E30E94212B9B01AC01609152
:100C100058027091590280915A0290915B020E9491
:100C2000D12960932C0970932D0980932E099093FC
:100C30002F0920915C0230915D0240915E0250913B
:100C40005F020E94D129209118023091190240912F
:100C50001A0250911B020E94212B209128093091E9
:100C6000290940912A0950912B090E94D2296B0130
:100C70007C01C8D3882309F4A2C020914409309193
:100C80004509409146095091470960911C027091B5
:100C90001D0280911E0290911F0290580E94212BEC
:100CA0002091600230916102409162025091630292
:100CB0000E94D229609330097093310980933209E0
:100CC000909333092091640230916502409166024D
:100CD000509167020E94212B6B017C012091240915
:100CE0003091250940912609509127096091100201
:100CF0007091110280911202909113020E94212B97
:100D00004B015C01209128093091290940912A0961
:100D100050912B0960911402709115028091160276
:100D2000909117020E94212B9B01AC01C501B401D7
:100D30000E94D2299B01AC0160912C0970912D0970
:100D400080912E0990912F090E94D1294B015C01BD
:100D5000209168023091690240916A0250916B02C1
:100D6000C701B6010E94D2292B013C0140923409EF
:100D700050923509609236097092370980916C0261
:100D800090916D02A0916E02B0916F028B839C8353
:100D9000AD83BE839C01AD01C301B2010E941D2B36
:100DA000181664F58B819C81AD81BE8180933409D6
:100DB00090933509A0933609B093370933C020E0EA
:100DC00030E0A901C701B6010E94362A20E030E0D8
:100DD00040E85FEB87FD59CF20E030E0A901C70173
:100DE000B6010E941D2B20E030E0A90118160CF07E
:100DF0004CCF20E030E040E85FE347CF80917002C5
:100E000090917102A0917202B09173028B839C83C6
:100E1000AD83BE839C01AD01C301B2010E94362A9D
:100E200087FDC0CF69E070E080E090E04BDA3C01E4
:100E3000909311098093100920903409309035095E
:100E4000409036095090370920E030E04FE753E4F6
:100E5000C201B1010E94362A18160CF446C120E0E6
:100E600030E0A901C201B1010E941D2B87FF03C020
:100E7000212C312C2101B201A101C301ECD94090F8
:100E8000120950901309609014097090150980910F
:100E9000160990911709A0911809B09119098B832F
:100EA0009C83AD83BE832091040230910502409162
:100EB000060250910702C301B2010E94212B6F83E9
:100EC000788789879A8720910C0230910D02409192
:100ED0000E0250910F026B817C818D819E810E9458
:100EE000212B9B01AC016F81788589859A850E94B1
:100EF000D2296F83788789879A8720910002309161
:100F000001024091020250910302C301B2010E940A
:100F1000212B2B013C0120910802309109024091C4
:100F20000A0250910B026B817C818D819E810E940F
:100F3000212B9B01AC01C301B2010E94D2292B01DC
:100F40003C012091240230912502409126025091CB
:100F50002702C701B6010E94212B9B01AC01C301EE
:100F6000B2010E94D2292B013C0120912C02309128
:100F70002D0240912E0250912F02C501B4010E9412
:100F8000212B9B01AC01C301B2010E94D2296093C5
:100F900012097093130980931409909315092091F5
:100FA00028023091290240912A0250912B02C70158
:100FB000B6010E94212B2F81388549855A850E94D0
:100FC000D2296B017C012091300230913102409195
:100FD000320250913302C501B4010E94212B9B01C2
:100FE000AC01C701B6010E94D22960931609709323
:100FF00017098093180990931909C0907603D0902F
:101000007703E0907803F09079039FEFC91AD90A2B
:10101000E90AF90AC0927603D0927703E092780346
:10102000F0927903C114D104E104F10499F48091A0
:101030007A0390917B03A0917C03B0917D0301968C
:10104000A11DB11D80937A0390937B03A0937C0331
:10105000B0937D0380907E0390907F03A0908003E7
:10106000B090810360917A0370917B0380917C033F
:1010700090917D030E946B2AA50194010E94212B6F
:1010800020E030E040E85FE40E94212B2B013C018E
:10109000C701B6010E946B2AA50194010E94212B71
:1010A0009B01AC01C301B2010E94D229609372037B
:1010B0007093730380937403909375032A960FB60D
:1010C000F894DEBF0FBECDBFDF91CF91FF90EF90C0
:1010D000DF90CF90BF90AF909F908F907F906F9058
:1010E0005F904F903F902F900895212C312C8FE7E7
:1010F000482E83E4582EBFCE8F929F92AF92BF921C
:10110000DF92EF92FF920F931F93CF93DF9384E0D0
:1011100090E027D1ECE5F3E08BE2DF011D928A95A8
:10112000E9F780E090E0A0E8BFEB86A397A3A0A733
:10113000B1A78AE097EDA3E2BCE382A393A3A4A3A3
:10114000B5A388E394EEADE2B7ED84839583A683DF
:10115000B78389E490E8AFE1BEEA80879187A287F0
:10116000B3878EE29EEDA5E8B1E084879587A687D8
:10117000B78783E797EEA2E3B7E6808B918BA28BCC
:10118000B38BA0E5B3E0B383A283EAE4F3E0119666
:10119000FC93EE9380EA92E0918380839383828331
:1011A0009583848380E793E015969C938E931497A0
:1011B00080E693E013969C938E93129782E793E0D8
:1011C00017969C938E931697E4E2F9E084E1DF0191
:1011D0001D928A95E9F7CEEFD8E086E2FE011192E2
:1011E0008A95E9F7DD24D394DCA2809120029091C6
:1011F0002102A0912202B091230288879987AA87B1
:10120000BB87812C912C5401839489829A82AB8272
:10121000BC8266E370E080E090E08CDA9F838E838E
:10122000DD821C86DDA28D869E86AF86B88AE12C83
:10123000F12C8701A801970169E070E080E090E05F
:1012400085D89B8B8A8BD98A8091540290915502C4
:10125000A0915602B09157028C8B9D8BAE8BBF8BA9
:10126000888F998FAA8FBB8FDF91CF911F910F919C
:10127000FF90EF90DF90BF90AF909F908F90089578
:101280008091FE0881111DC081E08093FE0880914D
:10129000FF0890910009A0910109B09102090197FE
:1012A000A105B10571F480910309882351F066E32B
:1012B00070E080E090E0FAD99093050980930409EA
:1012C0005CDA80910A0981112DC081E080930A09BE
:1012D00080910B0990910C09A0910D09B0910E0914
:1012E0000197A105B105F1F480910F098823D1F090
:1012F00069E070E080E090E00E9462019093110943
:101300008093100940E050E0BA010E942B0169E08F
:1013100070E080E090E00E94620190931109809358
:10132000100965C8089560E070E080E89FE70895BF
:1013300060E070E080E89FE7089560E070E080E89A
:101340009FEF089560E070E080E89FEF089560E00F
:1013500070E080EC9FEF089560E070E080EC9FEF1C
:101360000895F5DF60934409709345098093460919
:1013700090934709F1DF609338097093390980939E
:101380003A0990933B09CFDF60934009709341097C
:101390008093420990934309CBDF60933C0970939B
:1013A0003D0980933E0990933F09C7DF6093480948
:1013B0007093490980934A0990934B09C3DF609366
:1013C0004C0970934D0980934E0990934F090895ED
:1013D0000F931F938B019C010027112720783F77E3
:1013E0000115110520483F4749F4AB01BC016F7757
:1013F000772781E0452B462B472B09F480E01F918E
:101400000F910895E5CF4F925F926F927F928F92E6
:101410009F92AF92BF92CF92DF92EF92FF920F9383
:101420001F93F89440909303509094036090950319
:1014300070909603C0908703D0908803E090890352
:10144000F0908A03452B09F0A4C09B01AC0124193C
:1014500035094609570929013A0100918F03109176
:101460009003209191033091920348015901840C1B
:10147000951CA61CB71C80169106A206B306A0F404
:1014800000918B0310918C0320918D0330918E037A
:101490000F5F1F4F2F4F3F4F00938B0310938C0311
:1014A00020938D0330938E0380928F03909290034C
:1014B000A0929103B092920300918B0310918C0340
:1014C00020918D0330918E03809297039092980320
:1014D000A0929903B0929A0300939B0310939C03EC
:1014E00020939D0330939E03609393037093940322
:1014F0008093950390939603A0E1B7E2A301920134
:101500000E9426326C0D7D1D8E1D9F1D60938703EA
:10151000709388038093890390938A0300917602E5
:101520001091770220917802309179020F3F1F4F7E
:101530002F4F3F4FF1F000917602109177022091EA
:101540007802309179020E3F1F4F2F4F3F4F89F0A5
:10155000C0907602D0907702E0907802F090790205
:1015600021E08C149D04AE04BF0408F420E0209315
:10157000A30378941F910F91FF90EF90DF90CF908D
:10158000BF90AF909F908F907F906F905F904F90A3
:1015900008954B015C0184189508A608B708A301BB
:1015A0009201261B370B480B590B641575058605F0
:1015B0009705D0F082169306A406B50640F420E005
:1015C00030E0A90181149104A104B10491F4A0E1D7
:1015D000B7E20E942632A7019601261B370B480B63
:1015E000590BCA01B901C5CF82169306A406B506E8
:1015F00070F7A0E1B7E2A50194010E9426326C0DBC
:101600007D1D8E1D9F1DB5CFFECECF93DF9300D0E5
:101610001F92CDB7DEB71C821B821A8219821092EC
:101620009F031092A0031092A1031092A203BE0187
:101630006F5F7F4FCE0103960E94FE2769817A81FA
:101640008B819C810E94EE20009761F4BE016F5F48
:101650007F4FCE0103960E940A2869817A818B818F
:101660009C812ED50F900F900F900F90DF91CF910E
:101670000895FF920F931F93CF93DF93082F60E09D
:1016800070E0CB010E94F32BFF24F3940E94D71F3C
:10169000EC01892B89F010E0CE3F8FEFD80769F07D
:1016A000002361F160E070E0CB010E94F32B81E048
:1016B00090E0892B59F322C011E025D5EC01892B4C
:1016C00021F0CE3F8FEFD80759F711111EC011E05E
:1016D000229609F410E00E94871FEC01892B21F06B
:1016E000CE3F8FEFD807E1F6111111C011E0CE3FC8
:1016F0008FEFD80709F410E001110BC0CE01DF9184
:10170000CF911F910F91FF90089511E0E4CF11E068
:10171000F3CF60E070E0CB010E94F32B1F25812FF7
:1017200090E0C7CFCF93DF938091A303882321F06C
:1017300060E070E0CB014CD635D6D0E0C0E0892B1C
:1017400071F06AE070E080E090E00E94F32B81E0AD
:1017500090DF28D62196C03D27E0D20781F727D613
:101760000E9442211092BB031092BA031092B4035C
:101770001092B5031092B6031092B7031092B00303
:101780001092B1031092B2031092B3031092AC0303
:101790001092AD031092AE031092AF031092A80303
:1017A0001092A9031092AA031092AB031092A40303
:1017B0001092A5031092A6031092A7034EEF5FEFBD
:1017C0006FEF7FEF40937602509377026093780239
:1017D000709379021092A303E7E9F3E028E0DF01B8
:1017E0001D922A95E9F71092930310929403109298
:1017F00095031092960310928F031092900310920B
:1018000091031092920310928B0310928C0310920A
:101810008D0310928E03109287031092880310920A
:10182000890310928A03DF91CF9108951092C70324
:101830001092C8031092C9031092CA031092C603F3
:101840008091CF039091D0039093C5038093C403FC
:101850001092C3031092C2031092BE031092BF03F2
:101860001092C0031092C1031092CC031092CB03CC
:1018700090E080E00895CF92DF92EF92FF920F9375
:101880001F93CF938C01892B09F055C02091CF0372
:101890003091D0038091C4039091C5034091CF0350
:1018A0005091D0035093C5034093C40328173907C0
:1018B00081F01092C3031092C2031092BE031092E3
:1018C000BF031092C0031092C1031092CC03109278
:1018D000CB038091CF039091D003019761F5809164
:1018E000CB039091CC03892B21F480917A02811152
:1018F00012C08091CB039091CC030197E1F48091C9
:10190000BE039091BF03A091C003B091C1030197A2
:10191000A105B10581F41092BE031092BF0310928D
:10192000C0031092C10310927A0282E090E090937B
:10193000CC038093CB038091CF039091D003019788
:1019400009F01CC18091E5039091E603801791078F
:1019500009F014C18091E1039091E203A091E303A7
:10196000B091E403009709F409C12091E00321112B
:101970000DC04091E1035091E2036091E303709147
:10198000E403452B462B472B09F4F8C02091CB03E9
:101990003091CC032230310509F0F0C02091C20310
:1019A0002111ECC0FC01C080D180E280F3808091E5
:1019B000C603882309F4D3C08091D2039091D30346
:1019C000892B09F4FDC02091D2033091D30381E02B
:1019D0002230310509F080E02091D2033091D30309
:1019E000C1E02130310549F02091D2033091D30379
:1019F000C1E02230310509F0C0E0882309F456C067
:101A00002091DC033091DD034091DE035091DF0330
:101A1000C701B6010E941D2B87FD14C02091DC0375
:101A20003091DD034091DE035091DF036091C703E5
:101A30007091C8038091C9039091CA030E94362A0D
:101A400087FD22C02091DC033091DD034091DE034D
:101A50005091DF03C701B6010E941D2B181634F503
:101A60002091DC033091DD034091DE035091DF03D0
:101A70006091C7037091C8038091C9039091CA0314
:101A80000E94362A811112C08091D4039091D5030F
:101A9000A091D603B091D703892B8A2B8B2B19F4F5
:101AA00081E08093C30381E08093C203CC2309F4D7
:101AB00056C02091DC033091DD034091DE0350914C
:101AC000DF03C701B6010E94362A87FF14C02091A8
:101AD000DC033091DD034091DE035091DF03609120
:101AE000C7037091C8038091C9039091CA030E94F3
:101AF0001D2B87FF22C02091DC033091DD03409134
:101B0000DE035091DF03C701B6010E94362A81111E
:101B100026C02091DC033091DD034091DE0350911B
:101B2000DF036091C7037091C8038091C90390914E
:101B3000CA030E941D2B181694F48091D40390912F
:101B4000D503A091D603B091D703892B8A2B8B2B79
:101B500019F481E08093C30381E08093C20381E0A4
:101B60009091C203911180E08093C603C092C70395
:101B7000D092C803E092C903F092CA03012B09F086
:101B800067C18091CB039091CC03892BD9F410923B
:101B9000D1031092C20380917A02882379F082E007
:101BA00090E09093CC038093CB0310927A02209123
:101BB000CF033091D00381E0232BE9F080E01BC0FC
:101BC00081E00ACF10927A028091D103882349F0F4
:101BD0001092C3031092CC031092CB031092D10346
:101BE000EDCF8091CF039091D003892BE1F08091CC
:101BF000C2031092C2032091CB033091CC03223058
:101C0000310509F45EC088F42115310509F448C096
:101C10002130310509F4F3C01092C3031092C203BE
:101C20001092D10338C081E0E6CF2330310509F4AA
:101C3000B1C02430310581F74091BE035091BF03FC
:101C40006091C0037091C103411551056105710593
:101C500061F041505109610971094093BE035093ED
:101C6000BF036093C0037093C1034091BE035091C2
:101C7000BF036091C0037091C103452B462B472BD6
:101C8000D9F42091CD033091CE032130310509F0F4
:101C900046C01092C3031092CC031092CB030CC029
:101CA00080917A02882341F082E090E09093CC0307
:101CB0008093CB0310927A021092BC038091C303ED
:101CC000CEC08823C9F38091D4039091D503A0910D
:101CD000D603B091D703181619061A061B060CF086
:101CE0007DC08091CF039091D003019709F076C019
:101CF0008091D4039091D503A091D603B091D703DE
:101D00008093BE039093BF03A093C003B093C1031D
:101D100083E090E09093CC038093CB03CDCF4091B0
:101D2000D8035091D9036091DA037091DB03452BFE
:101D3000462B472BA9F01092C3038091D8039091B2
:101D4000D903A091DA03B091DB038093BE03909393
:101D5000BF03A093C003B093C10381E090E0DACF4A
:101D6000882399F080917B0290917C02A0917D0262
:101D7000B0917E028093BE039093BF03A093C003F3
:101D8000B093C10384E090E0C5CF1092C30382E01A
:101D900090E0C0CF8091BE039091BF03A091C0039B
:101DA000B091C1030097A105B10559F00197A109B0
:101DB000B1098093BE039093BF03A093C003B09377
:101DC000C1038091BE039091BF03A091C003B09165
:101DD000C103892B8A2B8B2B09F06ECF80917B025C
:101DE00090917C02A0917D02B0917E02892B8A2B7A
:101DF0008B2B09F44ECF81E08093C303B3CF409186
:101E0000BE035091BF036091C0037091C10341159F
:101E100051056105710561F0415051096109710970
:101E20004093BE035093BF036093C0037093C103FC
:101E30004091BE035091BF036091C0037091C103F4
:101E4000452B462B472B09F037CF8111C7CF9FCFAA
:101E50008091BC03882309F431CF8091BD03CF91D9
:101E60001F910F91FF90EF90DF90CF900895109207
:101E7000C7031092C8031092C9031092CA031092AC
:101E8000C6031092CC031092CB031092C50310929C
:101E9000C4031092E6031092E5031092C30310925C
:101EA000C2031092BE031092BF031092C00310929F
:101EB000C1031092BD031092BC031092E103109273
:101EC000E2031092E3031092E4031092E0031092F5
:101ED000DC031092DD031092DE031092DF0388EE24
:101EE00093E0A0E0B0E080937B0290937C02A0930B
:101EF0007D02B0937E021092D8031092D903109203
:101F0000DA031092DB031092D4031092D5031092DF
:101F1000D6031092D7031092D3031092D20381E01C
:101F200080937A021092D1031092D0031092CF03C3
:101F30001092CE031092CD0390E080E0089580913E
:101F4000CF039091D003892B19F580917A028823D1
:101F500051F08091D103811106C081E08093BD03CF
:101F60008093BC0308952091D10330917A0281E0DF
:101F700090E0332311F090E080E030E0822393235F
:101F8000892B21F01092BD0381E0EACF1092BC03AF
:101F9000089582E090E0FA01918380838FEF9FEFB4
:101FA0000895CF93DF93EA01009711F00E94622217
:101FB0001982188290E080E0DF91CF910895DB01D3
:101FC000009719F48FEF8C9308952EEF2C93FC015A
:101FD0003F96EF30F10508F034C08827ED50F04F00
:101FE0008F4F0C940F321F101D101B10191017105B
:101FF0001310151011100F100D100A1006100210FA
:102000000810211080E311968C93089589E2FBCF8C
:1020100082E2F9CF11961C92089583E2F4CF81E217
:10202000F2CF81E1F0CF87E2EECF8AE2ECCF80E120
:10203000EACF84E2E8CF88E2E6CF86E2E4CF81E32C
:10204000E2CF80E2E0CF8091F3039091F403089512
:102050009093F4038093F30308958091F20308951D
:102060009091F203892B8093F2030895982F909515
:102070008091F20389238093F20308958091F10304
:1020800008958091EF039091F00308956115710513
:1020900059F0FB0130E020E070E060E024173507E4
:1020A00019F06115710511F0CB010895A081B1817E
:1020B000A817B90709F4BF012F5F3F4F3696EECF3F
:1020C0008091F50381111CC060D266D29093E80321
:1020D0008093E7030E94601A0E94721A9093EC03A7
:1020E0008093EB030E94EF1E0E94F61E9093EA037A
:1020F0008093E90381E08093F50390E080E0089508
:1021000084EF9FEF08958F929F92AF92BF92CF92EC
:10211000DF92EF92FF920F931F93CF93DF9300D044
:1021200000D000D01F92CDB7DEB71A861986188668
:102130001F821E821D821C821B821A82198280913C
:10214000F50307EF1FEF882309F49CC08E010D5F94
:102150001F4F9E012B5F3F4FAE01495F5F4FBE0196
:10216000675F7F4F90E080E00E9473208C010097B2
:1021700021F00596029708F0DBC029853A852115E4
:10218000310509F402C1ED80FE804B815C81B7010D
:10219000640F751F8F8198858617970708F4F5C01F
:1021A000E20EF31ED7019C91903C09F07FC04230B3
:1021B000510508F47BC011968C914091F303509126
:1021C000F403452B09F49CC0913F08F071C02CE149
:1021D000290F2D3008F48BC02DE2290F203108F48F
:1021E00089C0903C21F48150823008F483C088E398
:1021F000890F8B3008F481C09FEDC92E9FE0D92E46
:10220000E9ECFFE06D817E81AE014F5F5F4F898514
:102210009A8519955C01C114D104A1F189809A8035
:102220008114910479F18B819C818815990508F4BA
:1022300087C010E000E04B815C8170E060E0C70186
:102240000E94393201151105E9F449815A816985E5
:102250007A858D819E81680F791FC501F6011995D8
:10226000E980FA800D811E812F81388549855A8544
:102270006FEF7FEF81E090E00E940E208C01892BB0
:1022800009F056C0C8012A960FB6F894DEBF0FBEFB
:10229000CDBFDF91CF911F910F91FF90EF90DF9015
:1022A000CF90BF90AF909F908F90089580E085CFA2
:1022B00030E020E0220F331FF901E951FC4F01907B
:1022C000F081E02D309709F497CF892F90E0199590
:1022D000009709F491CFDC011296ED91FC911397D0
:1022E0001496CD90DC90309709F08CCF1FC021E080
:1022F00030E0E0CF22E030E0DDCF23E030E0DACFA5
:10230000D12CC12CE1EDFFE09F3F09F07BCFE091A4
:10231000E703F091E803309721F4C90104EF1FEFC0
:102320000CC08FEF90E019950097A9F604EF1FEF0E
:1023300089859A85009709F4A5CF0E946222A2CFD1
:102340000E943D218C0189859A850E94622270E05D
:1023500060E0C4010E94D62098878F830E940B20E2
:102360009E838D836F8178856115710559F0C80151
:102370000E94EE239A87898706EF1FEF892B09F0C9
:1023800058CF59CF08EF1FEF56CF08EF1FEFD0CF30
:102390002091F503222319F020E00C94771A87EF9F
:1023A0009FEF08958091F3039091F40308950E94A4
:1023B000FB1E0E94551EF5D0E7EEF3E088E0DF013A
:1023C0001D928A95E9F71092F50390E080E0089558
:1023D0000C94B31C21E040E050E0BA010C94771A51
:1023E00086E090E0FA019183808390E080E0089598
:1023F00047E050E063EA72E049CEDF92EF92FF924D
:102400000F931F93CF93DF938A01EC01C60FD71F61
:10241000E090F903F090FA03D9800E942521D816A4
:10242000190678F082E090E0F801918380838EEFC6
:102430009FEFDF91CF911F910F91FF90EF90DF9071
:102440000895EF2841F482E090E0F80191838083C1
:1024500084EF9FEFEECF89818093F80390E001969F
:10246000F8019183808390E080E0E3CFCF93DF9306
:10247000EA010E94641D882321F00E9432210E94FB
:10248000651D82E090E0998388838BEF9FEFDF9159
:10249000CF910895CF93DF93EB0186E0FB0111927A
:1024A0008A95E9F78FEF8883D8DD8983E7DD8A8312
:1024B000E8DD9D838C83DF91CF910895CF93DF93E7
:1024C000EA010E94671D811109C082E090E09983B2
:1024D000888385EF9FEFDF91CF91089590E080E0B2
:1024E000B7DD81E090E09983888390E080E0F3CFCE
:1024F0000F931F93CF93DF93EA018C01060F171FF1
:102500000E94671D81110BC082E090E0998388834F
:1025100085EF9FEFDF91CF911F910F910895F80103
:102520008181823038F082E090E0998388838EEF59
:102530009FEFF0CF81E090E08BDD88E090E0998321
:10254000888390E080E0E6CFCF93DF930097D1F4CB
:10255000EB01FB01329686E0DF011D928A95E9F7D7
:102560008FEF888385E089831A820E9425218B83DF
:102570000E9424219D838C8381E08E838F83DF9151
:10258000CF910895DF91CF911ACD88EF91E190938B
:10259000F7038093F60308958091F6039091F70373
:1025A00008951092F7031092F60308958091F903AD
:1025B0009091FA030895411105C0611571058105D7
:1025C000910561F06093F9037093FA038093FB0324
:1025D0009093FC034093FD0381E0089580E008950B
:1025E000FF920F931F93CF93DF938A01EC01C60FE5
:1025F000D71FF9800E942521F816190668F082E09D
:1026000090E0F801918380838EEF9FEFDF91CF916F
:102610001F910F91FF9008956C817D818E819F8124
:102620004B81C9DF811108C082E090E0F8019183FD
:10263000808384EF9FEFEACF89818093F80390E055
:102640000196F8019183808390E080E0DFCFCF9303
:10265000DF93EA01FC01E60FF71F64817581868133
:1026600097814381A8DF811109C082E090E09983BE
:10267000888384EF9FEFDF91CF91089581E090E010
:102680009983888390E080E0F6CFE9EFF3E0408122
:10269000518162817381480F511D611D711D4083FD
:1026A0005183628373830895CF93C091F8034C2FB5
:1026B00050E06091F9037091FA0301960E94303264
:1026C0008C2FE3DF1092F803CF910895009799F4CF
:1026D0008091F9039091FA032FEFFB012083892B5E
:1026E00059F02091F80330E02F5F3F4F2417350752
:1026F00019F4CB01D9CF63CC0895009799F4809158
:10270000F9039091FA032FEFFB012083892B59F0F5
:102710002091F80330E02F5F3F4F2417350719F45D
:10272000CB01C2CF4CCC089523E1AC01249FC00162
:10273000259F900D1124E0910204F0910304E80F0D
:10274000F91F238134812250310981E02230310583
:1027500008F080E008950F931F93CF93DF930091CB
:10276000040410910504D0E0C0E080E00C171D07C0
:1027700049F491E0811190E0892FDF91CF911F9171
:102780000F9108958111F5CFCE01CEDF2196EECFC6
:10279000A0910204B0910304109729F12091040440
:1027A0003091050482179307F0F453E1589F90018C
:1027B000599F300D1124A20FB31FED91FC91119779
:1027C000309789F012968C91681768F48DE0689FB5
:1027D000E00DF11D112480819181892B21F081E090
:1027E0009281491708F080E008959C0143E1429FDF
:1027F000C001439F900D1124E0910204F091030465
:10280000E80FF91F8385823091F481E090E06581C3
:10281000768140917F02509180026417750711F410
:1028200090E080E0892B19F081E0232B09F080E013
:102830000895FC01A081B1818DE0689FA00DB11DBC
:10284000112413964D915C9185859685489F900142
:10285000499F300D589F300D1124C9010196611117
:1028600003C0478144FD04960895EF92FF920F93B1
:102870001F93CF93DF93EA01FC01E60FF71F02815C
:102880001381E480F5804F2D6E2DC80181DF811109
:102890000DC082E090E0998388838EEF9FEFDF91F7
:1028A000CF911F910F91FF90EF900895C8013CDFE9
:1028B000882339F082E090E09983888388EF9FEF46
:1028C000EECF1093860200938502E0928702F09289
:1028D000880281E090E09983888390E080E0DFCFF8
:1028E000CF92DF92EF92FF920F931F93CF93DF93DC
:1028F0007A01EC01C60FD71FC0908502D0908602E6
:102900000091870210918802412F602FC60140DF9D
:10291000811110C082E090E0F701918380838AEFFB
:102920009FEFDF91CF911F910F91FF90EF90DF907C
:10293000CF900895C601F8DE882341F082E090E050
:10294000F7019183808388EF9FEFEBCF4C815D810E
:102950006E817F819A8189818F3F41F082E090E092
:10296000F701918380838EEF9FEFDBCFE3E1EC9D56
:102970009001ED9D300D1124E0910204F0910304CB
:10298000E20FF31F0190F081E02D2DE0029FE00D9A
:10299000F11D11240190F081E02D27E0129FE00D40
:1029A000F11D1124808391838B818283438354831F
:1029B000658376831F5F1093880281E090E0F701C2
:1029C0009183808390E080E0ACCFEF92FF920F93F1
:1029D0001F93CF93DF937A018C01060F171FC091CD
:1029E0000204D0910304209781F021E030E0F80147
:1029F00082819381409104045091050484179507C6
:102A000010F030E020E0232B71F482E090E0F70139
:102A1000918380838EEF9FEFDF91CF911F910F9174
:102A2000FF90EF90089543E1489F9001499F300D3A
:102A30001124C20FD31F78DE882341F082E090E09A
:102A4000F7019183808388EF9FEFE6CFF80124811F
:102A5000358120383105C8F687818111D6CF418173
:102A6000842F90E08F7E009741F082E090E0F701A4
:102A70009183808386EF9FEFCFCF4F833E832D835B
:102A8000268128871986223010F421E0288721E04A
:102A900030E0F70131832083BFCF88E090E0FA0176
:102AA0009183808390E080E00895FB018FEF808325
:102AB00081E181838FEF9FEF9383828380E890E0B1
:102AC00095838483168217820895FB018FEF80839C
:102AD00091E0918382839383848384E3858381E07F
:102AE00090E0978386830895DF92EF92FF920F9391
:102AF0001F93CF93DF93EA01FC01E60FF71F81815B
:102B0000813071F082E090E0998388838FEF9FEFAE
:102B1000DF91CF911F910F91FF90EF90DF9008957B
:102B200082819381D4802581E680F7800091020420
:102B3000109103040115110539F482E090E09983A6
:102B400088838CEF9FEFE4CF4091040450910504FB
:102B50008417950738F082E090E0998388838EEFA0
:102B60009FEFD6CF892B39F082E090E0998388835C
:102B700086EF9FEFCDCF8D2D8D7FB1F72130A1F75F
:102B800081E0D11006C091E0E916F10431F080E057
:102B900004C0E2E0EE16F104D0F3882329F390E0BC
:102BA00080E0C2DD882339F082E090E09983888359
:102BB00088EF9FEFADCFF801D38681E08487F6865A
:102BC000E586108A178681E090E09983888390E0FB
:102BD00080E09ECF4CE050E06DEC72E057CA8F92DF
:102BE0009F92BF92CF92DF92EF92FF920F931F932B
:102BF000CF93DF93EA01FC01E60FF71F82819381F7
:102C00000481B580E0910204F0910304309791F4BF
:102C100082E090E0998388838CEF9FEFDF91CF91E2
:102C20001F910F91FF90EF90DF90CF90BF909F90FA
:102C30008F90089520910404309105048217930722
:102C400038F082E090E0998388838EEF9FEFE6CFA3
:102C500023E1289F6001299FD00C1124EC0DFD1D5C
:102C6000E080F180E114F10499F28281081748F7BD
:102C70008DE0089F80011124E00EF11EF701808194
:102C80009181892B29F6BB20E1F2F7E0BF9E40013C
:102C90001124C4010E942922F70191838083E091CD
:102CA0000204F0910304EC0DFD1D0190F081E02D74
:102CB000E00FF11F80819181009739F482E090E06C
:102CC000998388838DEF9FEFA9CFA40170E060E026
:102CD0000E9439328091020490910304C80ED91EDB
:102CE000F60180819181080F191FF801B28281E0FD
:102CF00090E09983888390E080E090CFAF92BF927C
:102D0000CF92DF92FF920F931F93CF93DF93EA014D
:102D1000FC01E60FF71F82819381F4800091020489
:102D2000109103040115110581F482E090E099836C
:102D300088838CEF9FEFDF91CF911F910F91FF90D0
:102D4000DF90CF90BF90AF90089520910404309110
:102D500005048217930738F082E090E09983888316
:102D60008EEF9FEFE8CF2FEF2F0D2C3FA8F723E139
:102D7000289F6001299FD00C11240C0D1D1DF80106
:102D800080819181892B89F6FDE0FF9E50011124FD
:102D9000C5010E942922F80191838083E0910204F9
:102DA000F0910304EC0DFD1D80819181009739F4B1
:102DB00082E090E0998388838DEF9FEFBCCFA501DF
:102DC00070E060E00E943932E0910204F091030467
:102DD000EC0DFD1DF28281E090E09983888390E004
:102DE00080E0A9CFCF92DF92EF92FF920F931F93D3
:102DF000CF93DF93860F971FFC010281138180918F
:102E0000020490910304892B81F082E090E0FA01A2
:102E1000918380838CEF9FEFDF91CF911F910F9172
:102E2000FF90EF90DF90CF900895C801B0E0A0E050
:102E30000197A109B1098F3F9F4FA105B10540F04E
:102E400082E090E0FA01918380838EEF9FEFE4CFE0
:102E50007A0183E1809F6001819FD00C1124C6011B
:102E60000E942922EC01009741F482E090E0F701F2
:102E7000918380838DEF9FEFCFCFA60170E060E05C
:102E80000E943932D0930304C093020410930504C6
:102E90000093040490E080E02FEF3FEF41E061E019
:102EA00070E08017910741F481E090E0F701918391
:102EB000808390E080E0B0CF3A8B298B1B864C87D3
:102EC0007E876D87188A1F8601966396EACFEF92F8
:102ED000FF921F93CF93DF93EC0110E0F12CE12CD4
:102EE0006A811617B0F083E0689FB0011124AE012B
:102EF0004F5E5F4FC7010E948E22009721F02FEF97
:102F00003FEF3A8B298BDF91CF911F91FF90EF908C
:102F10000895612FCE018DDC61E070E00E94D62023
:102F2000E816F90608F47C011F5FDACFF8942091C7
:102F300000043091010481E02115310509F080E0A1
:102F4000232B09F0789408952F923F924F925F922D
:102F50006F927F928F929F92AF92BF92CF92DF92A9
:102F6000EF92FF920F931F93CF93DF933C01660E76
:102F7000771EF301828193814C01B12CA12CC09169
:102F80000204D0910304209769F021E030E06091C1
:102F90000404709105048617970710F030E020E0D4
:102FA000232BD1F482E090E0FA01918380838EEFAD
:102FB0009FEFDF91CF911F910F91FF90EF90DF90E6
:102FC000CF90BF90AF909F908F907F906F905F90C9
:102FD0004F903F902F9008958092890290928A029C
:102FE000A0928B02B0928C0263E1689F9001699F6E
:102FF000300D1124C20FD31FF3018181833040F0C3
:1030000082E090E0FA019183808386EF9FEFD1CF39
:103010002A012B813C81232BF1F4288139819F8166
:1030200091FF2EC0232B09F46FC0209107049A81D1
:10303000422F490F5527551FBA0141E050E0613832
:10304000710514F050E040E0452B09F45DC02A877B
:10305000920F909307048150823008F481C066DF9C
:10306000882309F4D8C0F3018181813009F48DC02F
:1030700008F47BC0823009F4C6C090E080E0ADC0A7
:10308000232B09F441C0209106049A81E22FE90F15
:10309000FF27FF1F41E050E0ED3FF10514F050E045
:1030A00040E0452B89F12A87920F90930604D3CFF5
:1030B000A081B181A20FB31F11966C91060F111D53
:1030C0000196295F3F4F8417950794F38D859E8560
:1030D000089F1001099F300C189F300C1124C11457
:1030E000D104D1F48F8184FF17C00E942421F5E020
:1030F0002F0E311C21E08215930508F420E0A70172
:10310000435F5F4F21110EC082E090E0F201918396
:10311000808387EF9FEF4DCF0E9424212FEF221A4B
:10312000320AE8CF88819981E80EF91EF7011483ED
:103130000383FFEFCF1ADF0A7A018A818C151D0401
:1031400009F00CF48CCFE881F981EE0DFF1D42816E
:1031500050E030E020E010E000E090E080E0B3CF0D
:10316000F12CE12CD12CC12CE8CF81E090E09C83A4
:103170008B83F1DA882309F480CF81E090E00E940C
:10318000281080E40E94361078CF89899A890196A8
:1031900061F083E090E09C838B8382E090E00E946A
:1031A000281080E40E94301068CF8D819E8120918C
:1031B0007F023091800282179307D1F460918302DD
:1031C00070918402AE014F5E5F4F809181029091B9
:1031D00082020E94AD230097E1F2789422E030E071
:1031E000F20131832083892B99F08DEF9FEFE1CE9F
:1031F00089288A288B2869F6892B59F6CE0167DE43
:10320000188A1F86E8CF82E090E09C838B8335CFBD
:1032100090E080E0CECE82E090E0F2019183808366
:1032200085EF9FEFC6CE8F929F92AF92BF92CF92C3
:10323000DF92EF92FF920F931F93CF93DF93EA01F8
:103240008C01060F171FF8018181833098F082E00E
:1032500090E09983888386EF9FEFDF91CF911F9154
:103260000F91FF90EF90DF90CF90BF90AF909F9025
:103270008F9008958091020490910304892B61F04E
:1032800081E090E02091040430910504232B11F497
:1032900090E080E0892B39F482E090E09983888384
:1032A0008EEF9FEFDACF42DE882309F4DFC0F8010A
:1032B0008181813009F495C0E8F0823099F4209141
:1032C000040430910504E0910204F091030490E0BD
:1032D00080E041E050E02817390709F0BDC03BDA33
:1032E000811117C0789481E090E09983888390E001
:1032F00080E0B3CF2091040430910504E0910204F2
:10330000F091030490E080E041E050E02817390795
:1033100041F481E090E00E94281080E40E94361081
:10332000E1CF63817481672B11F05483438301964D
:103330007396ECCFE0910204F0910304E00FF11FCB
:103340002381348122303105D9F4218932892F3FFC
:103350003F4FB1F42581368140917F025091800228
:103360002417350761F5AF014F5E5F4F609183020F
:103370007091840280918102909182020E94AD231B
:10338000EFEFCE1ADE0AEE0AFE0A0D5E1F4F4091E5
:1033900004045091050470E060E0C416D506E6060A
:1033A000F7063CF5009731F27894892B09F49BCF0E
:1033B00082E090E0998388838DEF9FEF4ECFC11418
:1033C000D104E104F104E1F6232BD1F6CF017FDD36
:1033D000E0910204F0910304E00FF11F108A1786B8
:1033E000CFCF10E000E090E080E0C12CD12C76013E
:1033F000CECF0097C9F610E000E0812C912C54014B
:1034000083E0E82EF12C1AC0E0910204F09103044D
:10341000E00FF11F83819481029749F4F482E382E3
:1034200082E090E00E94281080E40E943010FFEFBC
:103430008F1A9F0AAF0ABF0A0D5E1F4F80910404C6
:1034400090910504B0E0A0E088169906AA06BB0694
:10345000DCF290E080E0A8CF638174816230710576
:1034600011F4548343830196739635CF82E090E044
:103470009983888385EF9FEFF0CE0097B9F48FEFA3
:10348000FB0180832091890230918A0243E1429FAF
:10349000C001439F900D1124E0910204F0910304B8
:1034A000E80FF91F8285FB01818308950C94DF0FDB
:1034B00088E090E0FA019183808390E080E00895B5
:1034C0001092010410920004E2E0F4E086E0DF01D3
:1034D0001D928A95E9F78AEE95E19093FF03809318
:1034E000FE0308958091FE039091FF0308952F92AB
:1034F0003F924F925F926F927F928F929F92AF9284
:10350000BF92CF92DF92EF92FF920F931F93CF93D0
:10351000DF93CDB7DEB72F970FB6F894DEBF0FBE9F
:10352000CDBFF894E0910004F09101043196F0933E
:103530000104E09300047894409002045090030446
:103540004114510409F40CC2E0910404F091050403
:10355000EF2B09F405C22D8749875A876B877C8733
:1035600098878F831201B12CA12C10E000E080918C
:10357000040490910504A816B90618F40115110564
:1035800029F1F8948091000490910104019790939F
:103590000104809300047894C8012F960FB6F89424
:1035A000DEBF0FBECDBFDF91CF911F910F91FF9076
:1035B000EF90DF90CF90BF90AF909F908F907F90D3
:1035C0006F905F904F903F902F9008957101E41895
:1035D000F508D10117968C91179781FD54C0139669
:1035E0008D919C911497039709F04DC015968D917C
:1035F0009C91EF81F8858E179F0709F044C0B501B3
:1036000090E080E07FD48A8320910204309103040B
:103610003D832C833D85332309F44CC04C815D816F
:10362000452B09F49AC18091040490910504A816D1
:10363000B90608F092C1C501D8D88823E9F06C8199
:103640007D816E0D7F1D7D836C83DB011F968D91C7
:103650009C91892B89F0D12CC12CF12CE12CAC81CF
:10366000BD8112968C9112978E151F0409F094F467
:1036700050961C921E921F972A81222321F0B50199
:1036800090E080E041D43FEFA31AB30A43E1240E57
:10369000311C6DCFAC81BD81ED91FC91EC0DFD1D18
:1036A000858196810FD7BFEFEB1AFB0AEDE0CE0EB6
:1036B000D11CD5CFEC81FD81309709F44EC18091AA
:1036C000040490910504A816B90608F046C1EE0D51
:1036D000FF1DFF87EE87C50188D88B83882339F1CA
:1036E000AE85BF851F968D919C915097019621E0E4
:1036F0001D964D915C918417950709F020E02E836B
:103700001982712C10E000E0AE85BF8512968C9175
:10371000781608F45DC0EE85FF858785908901964F
:10372000658576850E94D931908B8787A5CFB1E0DA
:10373000BE83E6CF992493946BC08BD6F601968313
:10374000858382C0D601ED90FC90B7E06B9EE00CC3
:10375000F11C1124F7016381748180818F3F61F135
:1037600021E030E002C0220F331F8A95E2F7C90141
:10377000092E000CAA0BBB0BFB0140815181628119
:10378000738184239523A623B72321E0892B8A2BD9
:103790008B2B09F420E0D4012C93D70111968C9146
:1037A000F60123853485820F932F911D880E991E73
:1037B0001486138663949BC0418150E0C4010E942B
:1037C0003032EBCF998206EF1FEFC5C01982C3C01C
:1037D000F981F111A0CFEDE07E9E70011124AE853C
:1037E000BF85CD90DC90CE0CDF1C15D49D838C83DF
:1037F000BB81BB2309F49ECF81E0EE85FF85278541
:103800003089232B09F080E0982E882309F458C0D2
:10381000672D8E859F850DD8D60118969C938E9323
:10382000179761E070E0C2D4EE85FF852189328967
:103830002F3F320709F481CFBC01C901CFD7D60190
:1038400016969C938E931597D60115968D919C9103
:103850001697009709F4B6CFEC81FD818E0F9F1F5C
:103860001A969C938E931997AE85BF85ED91FC9126
:103870001197EE0EFF1EF7012185328514861386FF
:103880001A968C91870DD9018D93711016C0EE8513
:10389000FF85878184FF11C049855A856B857C85AA
:1038A000F9014183528363837483F701838594858F
:1038B0000496A80FB91F14861386F701B287A18753
:1038C000D60115968D919C911697892B09F443C0CA
:1038D000EE85FF852581368180917F02909180025F
:1038E0002817390779F019968D909C90612CD60194
:1038F00012968C911297681608F424CF1A969C920F
:103900008E921997BE81BB2309F460CF61E070E00D
:10391000F601878190854AD4D6011796ED90FC90E8
:10392000189715964D915C91E1E0F0E0BA81BB23C8
:1039300011F0F0E0E0E00C811D819C01B5018827C9
:1039400099278E1B9F0B6AD38C01892B21F0F601DE
:1039500085819681B7D57394D7CE0FEF1FEF8CCEAC
:1039600010E000E00ECE2F923F924F925F926F9246
:103970007F928F929F92AF92BF92CF92DF92EF92FF
:10398000FF920F931F93CF93DF9380910204909146
:10399000030410E000E0892BA9F0C8DA0AEF1FEF5A
:1039A000882381F02090040430900504C091020423
:1039B000D0910304D12CC12C10E000E02C143D0464
:1039C000A9F47894C801DF91CF911F910F91FF90D6
:1039D000EF90DF90CF90BF90AF909F908F907F90AF
:1039E0006F905F904F903F902F900895C6010E9476
:1039F000F513882309F18B819C810397E9F48F8566
:103A00009889892BC9F0B60190E080E07BD221E053
:103A100030E0882311F030E020E044245524421A9D
:103A2000530AB12CA12C912C812C8A818815190460
:103A300009F038F4188A1F864FEFC41AD40A639627
:103A4000BDCFE881F981EA0DFB1D85819681892B27
:103A5000A1F161E070E087819085A8D33C01DBD2C1
:103A60008C01E881F981EA0DFB1D81859285258114
:103A70003681200F311FAC01421B530B9A01478145
:103A80005085421B530B70E060E00E943932E881A0
:103A9000F981EA0DFB1DE780F08445815681930191
:103AA000B601C201BBD28C01892B39F0E881F981C2
:103AB000EA0DFB1D8581968105D55FEF851A950A74
:103AC0008DE0A80EB11CB1CF31CA789408952F9221
:103AD0003F924F925F926F927F929F92AF92BF926E
:103AE000CF92DF92EF92FF920F931F93CF93DF93CA
:103AF00000D000D0CDB7DEB70091020410910304CE
:103B0000992493940115110509F43EC0A090040472
:103B1000B09005040BDA982E8823B1F110920304BB
:103B200010920204109205041092040410920604EC
:103B3000109207048FEF9FEFDC018093890290932E
:103B40008A02A0938B02B0938C0278947FD31E8359
:103B50000D83C12CD12C7601C501B0E0A0E0898392
:103B60009A83AB83BC8322242A94322C89819A8144
:103B7000AB81BC81C816D906EA06FB06F4F0C80181
:103B8000A1D480E40E943610892D26960FB6F894B1
:103B9000DEBF0FBECDBFDF91CF911F910F91FF9080
:103BA000EF90DF90CF90BF90AF909F907F906F90FD
:103BB0005F904F903F902F900895AD81BE811596F4
:103BC0008D919C91169720917F02309180028217EF
:103BD0009307D1F451968D919C91EED5ED81FE81A4
:103BE00080819181B12CA12C412C512C3201892B47
:103BF00089F5BFEFCB1ADB0AEB0AFB0AED81FE81E8
:103C00007396FE83ED83B2CFC114D104E104F104B5
:103C100029F7892B19F7ED81FE81818992898F3FE0
:103C2000980709F029D5AD81BE8152963C922E921B
:103C30005197D4CF8A0D9B1DDC018D919C910097EB
:103C400009F040D4BFEF4B1A5B0A6B0A7B0AEDE028
:103C5000AE0EB11CAD81BE818D919C9111971296D3
:103C60004C9150E070E060E0441655066606770619
:103C70000CF328D4BECFCF93DF93EA0128DF811164
:103C800009C082E090E09983888385EF9FEFDF9100
:103C9000CF91089581E090E00E94281081E090E0AB
:103CA0009983888390E080E0F2CF11DF1092FF03C8
:103CB0001092FE03089542E050E065E173E00C9439
:103CC0004610FF920F931F93CF93DF938A01EC016D
:103CD000C60FD71FF980B9D20897F816190671F0E8
:103CE00068F082E090E0F801918380838EEF9FEF8F
:103CF000DF91CF911F910F91FF9008956C817D818D
:103D00008E819F814B810E94DB12811108C082E06D
:103D100090E0F8019183808384EF9FEFE9CFF980F1
:103D20000E94D6124F2D50E0BE01685F7F4F0E9467
:103D3000303289810E94451381E090E0F80191833F
:103D4000808390E080E0D4CFDF92EF92FF920F93D8
:103D50001F93CF93DF938A01EC01C60FD71F0E94F8
:103D6000D6127C01D98071D2DD2059F0029721E072
:103D700030E0D816190619F010F030E020E0232BBF
:103D800079F482E090E0F801918380838EEF9FEFD9
:103D9000DF91CF911F910F91FF90EF90DF900895E9
:103DA000EF2841F482E090E0F8019183808384EF72
:103DB0009FEFEECFF9800E94D6124F2D50E0BE014A
:103DC0006E5F7F4F0E94303289810E94451381E0EF
:103DD00090E0F8019183808390E080E0D9CF8BE57B
:103DE0009EE190930904809308040895809108044B
:103DF0009091090408950895FC0111821082938323
:103E000082830895DB011D921C92DC011296ED91D4
:103E1000FC9113977183608313967C936E93129732
:103E20000895FC0180819181DB018D939C93A08199
:103E3000B181109741F08D919C9191838083892B62
:103E400011F4F383E2830895FC0180819181DB0109
:103E50008D939C93892B11F47383628371836083A8
:103E60000895FC0111821082938382830895CF9379
:103E7000DF931F921F92CDB7DEB71A821982F89492
:103E8000BE016F5F7F4F8FE094E0CBDF89819A8125
:103E9000009709F017D389819A81892B89F7BE0190
:103EA0006F5F7F4F83E194E0BCDF89819A81009747
:103EB00009F008D389819A81892B89F778940F902A
:103EC0000F90DF91CF910895CF93DF931F921F92B0
:103ED000CDB7DEB71A821982F894BE016F5F7F4FAB
:103EE0008BE094E09EDF89819A81009709F0EAD205
:103EF00089819A81892B89F778940F900F90DF91AF
:103F0000CF91089581E0089590E080E00895EF92C8
:103F1000FF920F931F93CF93DF931F921F92CDB702
:103F2000DEB71A82198280910A0407EF1FEF8823F7
:103F3000A1F1F894BE016F5F7F4F83E194E071DFE0
:103F4000789489819A81EE24E394F12C892B51F4A1
:103F5000F894BE016F5F7F4F8FE094E062DF78944A
:103F6000F12CE12C89819A810EEF1FEF0097A9F0C7
:103F7000FC014281538164E070E074D68C01892B8E
:103F800061F0F89469817A81C701880F991F880FC1
:103F9000991F815F9B4F58DF7894C8010F900F9055
:103FA000DF91CF911F910F91FF90EF9008950F93A4
:103FB0001F93CF93DF9300D01F92CDB7DEB71C8243
:103FC0001B821A82198280910A0407EF1FEF88234F
:103FD000C1F0AE014D5F5F4F64E070E0CE0101962D
:103FE000B4D68C01892B69F4E981FA818B819C819B
:103FF00093838283F89469817A818BE094E002DF75
:104000007894C8010F900F900F900F90DF91CF918F
:104010001F910F910895B9D7049608958F929F929A
:10402000AF92BF92CF92DF92EF92FF920F931F93C6
:10403000CF93DF931F921F92CDB7DEB71A821982FA
:10404000BC016F5F7F4F6330710598F0AA24AA947A
:10405000BA2CC5010F900F90DF91CF911F910F9156
:10406000FF90EF90DF90CF90BF90AF909F908F9098
:1040700008954115510551F3480159018A016C0118
:10408000CADF8815990511F7E114F104F9F28E0DD4
:104090009F1DA816B906D0F280910A048823F1F07A
:1040A000F894B501645071099701AE014F5F5F4FFD
:1040B000C8010496DFD65C01892B71F489819A814D
:1040C000F80193838283C601880F991F880F991F77
:1040D000B801815F9B4F96DE7894BBCF87EFA82E07
:1040E000BB24BA94B6CFAF92BF92CF92DF92EF9239
:1040F000FF920F931F93CF93DF931F921F92CDB721
:10410000DEB71A821982892B09F047C06115710543
:1041100009F443C04115510509F43FC0211531058B
:1041200009F43BC001151105C1F180910A048823EF
:10413000B9F179016A015B01F894BE016F5F7F4FAD
:104140008BE094E06EDE789489819A81009759F132
:10415000DC0112966D917C91A8010496A4D68C0185
:10416000E981FA81D501ED93FC93828193810496D4
:10417000F601918380834FDFD7018D939C93C80113
:104180000F900F90DF91CF911F910F91FF90EF90C3
:10419000DF90CF90BF90AF9008950FEF1FEFEFCF5C
:1041A00007EF1FEFECCF0EEF1FEFE9CFCF93DF93B9
:1041B000EC01672B71F4F2D68C179D0760F0E5D601
:1041C0002496C80FD91FE4D68C0F9D1FDF91CF9185
:1041D0000895E1D6F1CF90E080E0F8CF0F931F93E0
:1041E000CF93DF9320910A0421112BC08B01EC01A6
:1041F0008FE094E001DE83E194E0FEDD8BE094E06B
:10420000FBDD97D00097C1F4C9D670E060E0CEDF47
:104210004DE852E062E070E081D1009769F480914E
:104220008D0290918E02CCD6B801CE0101D50097B7
:1042300019F421E020930A04DF91CF911F910F918F
:10424000089584EF9FEFF8CFA6C6A8C6CF93DF935B
:10425000A8D6EC01892B11F40ADE36DECE01DF91FF
:10426000CF910895CF93DF939CD6EC01892B09F46D
:10427000FEDDCE01DF91CF91089580918D02909166
:104280008E020895CF93DF9380910A04D0E0C0E0BE
:104290008823D1F09AD6EC01892BB1F4E8DD14DE45
:1042A00080918D0290918E02E7D1E8D2EC01892BAA
:1042B00059F48FE094E0D5DD83E194E0D2DD8BE02A
:1042C00094E0CFDD10920A04CE01DF91CF910895E2
:1042D000EF92FF920F931F93CF93DF93EC017A013C
:1042E0008B010F5F1F4F0E9DA0010F9D500D1E9D56
:1042F000500D112470E060E00E94393290E080E0BF
:10430000F0E0E0E02FEFE816F90639F4DF91CF9105
:104310001F910F91FF90EF9008951A8219822883C0
:10432000309711F0D283C1830196FE01C00FD11FD7
:10433000EACFCF92DF92EF92FF920F931F93CF932A
:10434000DF930CEA15E00C7F43E050E06FE872E089
:1043500085E992E01AD48FE8E82E82E0F82E95E9FC
:10436000C92E92E0D92EC3E4D6E0D7014D915D91DC
:104370007D01F601619171916F01198308835D835D
:104380004C835B834A837F836E839B012F5F3F4F08
:10439000249FC001259F900D349F900D1124998773
:1043A00088870115110511F0C80192DF888599856C
:1043B000080F191F2A96F5E9EF16F2E0FF06A9F695
:1043C000E9E1F4E080E991E0DF019C011D922150D8
:1043D0003040E1F710921804109217041092620610
:1043E000109261061092660610926506109264069D
:1043F00010926306109268061092670610926A0681
:104400001092690610926C0610926B06109270065C
:1044100010926F0610926E0610926D061092720640
:104420001092710610927406109273061092400654
:1044300010923F06109242061092410690E080E0F2
:10444000DF91CF911F910F91FF90EF90DF90CF9070
:1044500008950097F1F0F894A5E9B2E0E3E4F6E0FE
:1044600030E020E04D915D9148175907A8F0428156
:1044700053814115510581F08AE0829FF001839FAD
:10448000F00D1124ED5BF94F80819181009759F473
:10449000789490E080E008952F5F3F4F3A96233064
:1044A000310501F7F5CFDC0111966D917C91718397
:1044B00060834150510953834283FC012193CF0112
:1044C00078940895009749F1DC018E91853041F48C
:1044D000E0914106F09142063097F9F0CD01199430
:1044E0008530D8F4282F30E0F8948FEF8C938AE051
:1044F000829FF001839FF00D1124ED5BF94F8081C5
:10450000918112969C938E931197B183A08382819F
:10451000938101969383828378940895CF92DF925A
:10452000EF92FF920F931F93CF93DF939C018CE147
:1045300094E08C7F4115510509F49BC0211531058C
:1045400009F497C06115710509F493C07A01AB01B4
:10455000B9016D5F7F4F6C7F9B012F5F3F4F249FA1
:104560008001259F100D349F100D1124F894209187
:10457000610630916206232B59F42091690630912F
:104580006A062115310569F12017310708F058C076
:1045900020916B0630916C06232B91F420916906D3
:1045A00030916A06820F931F209173063091740632
:1045B0002115310509F441C02017310708F056C014
:1045C0007894CFEFDFEF86EF9FEFF701D183C083C1
:1045D000DF91CF911F910F91FF90EF90DF90CF90DF
:1045E0000895C3E0D0E0C0901704D09018042DE8DF
:1045F00031E02C193D092017310710F32AE02C9FD8
:10460000F0012D9FF00D1124ED5BF94F9183808314
:10461000558344835383428377836683118700875E
:10462000009709F055DE0C0D1D1D10931804009322
:104630001704789490E080E0C8CFC4E0D0E0D3CFF6
:10464000C3E0D0E02AE02C9FF0012D9FF00D112453
:10465000ED5BF94F91838083558344835383428379
:1046600077836683009729F333DEE3CFC4E0D0E09D
:10467000E9CF8FEF9FEFACCF9C010397029708F033
:1046800069C0F89484E09AE0482F50E02417350779
:104690000CF44DC091E08AE0829FF001839FF00D01
:1046A0001124ED5BF94F118210821582148213825E
:1046B0001282178216829923B1F18091610690913E
:1046C0006206892BA9F42091690630916A062115AA
:1046D000310571F08091170490911804821B930B9F
:1046E000909318048093170410926A06109269063A
:1046F00080916B0690916C06892BA9F4209173062A
:10470000309174062115310571F080911704909154
:104710001804821B930B9093180480931704109233
:10472000740610927306789490E080E00895949F48
:10473000F001959FF00D1124ED5BF94F40815181FF
:10474000452B31F440855185452B11F481509CCF88
:1047500090E0A1CF8FEF9FEF08954115510549F1EA
:10476000009739F16115710521F1F89420913F0608
:1047700030914006232BB9F4209141063091420636
:10478000232B89F49093400680933F067093420652
:1047900060934106789425E030E090E080E0FA01F3
:1047A00031832083089578942FEF3FEF86EF9FEFBA
:1047B000F6CF8FEF9FEF0895059769F4F894109264
:1047C000400610923F0610924206109241067894DD
:1047D00090E080E008958FEF9FEF089561157105D7
:1047E00019F4F0E0E0E011C08530910581F4E0912A
:1047F0003F06F09140063097A1F3CB010196199541
:10480000009779F3FC0185E08193CF0108959C0125
:10481000235031092230310520F72AE0289FD001AA
:10482000299FB00D1124AD5BB94F2D913C9111978B
:10483000232BB9F216962D913C911797261737071F
:1048400080F2F89412962D913C9113972115310521
:1048500029F0ED91FC911197309711F47894C1CF24
:104860004181528111965C934E93215031091396E8
:104870003C932E93129781937894C7CFE9EAF5E0A1
:1048800086E9DF011D928A95E9F7E9E1F4E080E924
:1048900091E0DF019C011D9221503040E1F7109220
:1048A000180410921704E3E4F6E082E3DF011D929E
:1048B0008A95E9F7EFE3F6E084E0DF011D928A953F
:1048C000E9F790E080E00895CF93DF93C0919B02D9
:1048D000D0919C02CF3FDC0759F420D490939C02E6
:1048E00080939B0297FF09C0D0939C02C0939B02C8
:1048F00084EF9FEFDF91CF91089590E080E0FACFB1
:104900008230910528F48093750690E080E0089548
:104910008FEF9FEF08954F925F926F927F92AF92C9
:10492000BF92CF92DF92EF92FF920F931F93CF939C
:10493000DF931F921F92CDB7DEB71A8219820097BC
:1049400009F478C06115710509F474C020919B02C7
:1049500030919C0207EF1FEF2F3F3F4F09F444C0F7
:104960006B015C01412C512C3201F12CE12C10E047
:1049700000E09E012F5F3F4FA6014E195F09B50170
:104980006E0D7F1D80919B0290919C0226D4892BF5
:1049900009F04AC089819A81009741F4E114F10439
:1049A00029F420917506222309F441C0E80EF91E6E
:1049B000EC14FD04C8F480E8481684E858068EE13B
:1049C0006806710418F560E070E0CB010CD72AE0AE
:1049D000420E511C611C711C0A3F4FEF140721F05D
:1049E000043F8FEF1807A1F4C8010F900F90DF91DB
:1049F000CF911F910F91FF90EF90DF90CF90BF90DC
:104A0000AF907F906F905F904F90089501EF1FEFF0
:104A100081E090E0013F2FEF120711F090E080E07D
:104A2000892B09F4A6CFE0CF04EF1FEFDDCF0AEF0B
:104A30001FEFDACF0FEF1FEFD7CF4F925F926F923A
:104A40007F92AF92BF92CF92DF92EF92FF920F933D
:104A50001F93CF93DF931F921F92CDB7DEB71A82B9
:104A60001982009709F478C06115710509F474C0C2
:104A700020919B0230919C0207EF1FEF2F3F3F4F89
:104A800009F444C06B015C01412C512C3201F12C22
:104A9000E12C10E000E09E012F5F3F4FA6014E1970
:104AA0005F09B5016E0D7F1D80919B0290919C0264
:104AB0004AD3892B09F04AC089819A81009741F431
:104AC000E114F10429F420917506222309F441C070
:104AD000E80EF91EEC14FD04C8F480E4481682E4E4
:104AE00058068FE06806710418F560E070E0CB01AD
:104AF0007AD62AE0420E511C611C711C0E3F4FEF0A
:104B0000140721F0043F8FEF1807A1F4C8010F909C
:104B10000F90DF91CF911F910F91FF90EF90DF9059
:104B2000CF90BF90AF907F906F905F904F9008951F
:104B300002EF1FEF81E090E0023F2FEF120711F02C
:104B400090E080E0892B09F4A6CFE0CF04EF1FEFBF
:104B5000DDCF0EEF1FEFDACF0FEF1FEFD7CF809132
:104B60009B0290919C028F3F980749F0CFD2892BEE
:104B700049F48FEF9FEF90939C0280939B0290E00B
:104B800080E0089584EF9FEF0895CF92DF92EF9237
:104B9000FF920F931F93CF93DF9321E041155105AF
:104BA00009F020E04150510921112CC0DC01FB012A
:104BB000D12CC12C21E022C03FEFC31AD30A7D01C2
:104BC0000D911D91E701EA80FB80E016F106A8F443
:104BD00020813181E280F380F182E082338322837D
:104BE000ED90FC9011979D0122503109E901F98265
:104BF000E88211961C930E9320E03296C416D506D7
:104C0000D8F2D2CFDF91CF911F910F91FF90EF900B
:104C1000DF90CF900895FC01680F791F90E080E04D
:104C2000E617F70709F408952191820F911DF8CF37
:104C300020917606211113C047DE009791F410925F
:104C40007C0610927B0610927A06109279061092DA
:104C500078061092770621E020937606089584EF77
:104C60009FEF0895AF92BF92CF92DF92EF92FF92A3
:104C70000F931F93CF93DF93009709F460C04630E2
:104C8000510508F45CC020917606C7EFDFEF2223C0
:104C900009F449C08C01060F171FF801C080D180AC
:104CA000C114D10409F44EC096012A5F3F4F421748
:104CB000530708F447C07C0180917B0690917C06E5
:104CC00093838283B6016C5F7F4F5801A60EB71E97
:104CD000C801A1DFF5019183808364E070E0C80121
:104CE0001ADEEC01892BF9F481E090E009DEB601CF
:104CF000C801049610DEEC01892B91F462E070E0AB
:104D0000C50109DEEC01892B59F4C701DBDB809179
:104D10007B0690917C06019690937C0680937B069F
:104D200090E080E0EDDDCE01DF91CF911F910F91FA
:104D3000FF90EF90DF90CF90BF90AF900895CFEFAE
:104D4000DFEFF1CFC9EFDFEFEECF6F927F928F925F
:104D50009F92AF92BF92CF92DF92EF92FF920F930A
:104D60001F93CF93DF9300D01F92CDB7DEB700978C
:104D700009F47AC04115510509F476C020917606F0
:104D800007EF1FEF222309F44DC03A017B015C01BC
:104D900064E070E0CE01019650DE8C01892B09F0B1
:104DA00041C009811A810115110509F45AC0480151
:104DB00086E0880E911CB701680D791D80919D02D7
:104DC00090919E020BDD6C01009709F450C0A70181
:104DD00070E060E00E94393289819A81AB81BC81A8
:104DE000EC0CFD1CF70181939193A193B1937F018A
:104DF00081E090E085DDB801C7011FDE892B31F528
:104E000062E070E0C701800F911F17DE8C01892BD3
:104E1000E9F490E080E074DDF501D182C082F30115
:104E200091828082C8010F900F900F900F90DF91B8
:104E3000CF911F910F91FF90EF90DF90CF90BF9097
:104E4000AF909F908F907F906F90089590E080E05A
:104E500057DDF50111821082F30111821082C60123
:104E600031DB09EF1FEFDECF0FEF1FEFDBCF06EFD8
:104E70001FEFD8CF0097A1F04115510589F02115FA
:104E8000310571F0F90136966E177F0748F0DC01A5
:104E90002D933C93DA01ED93FC9390E080E008952C
:104EA0008FEF9FEF0895AF92BF92CF92DF92EF9274
:104EB000FF920F931F93CF93DF93009709F45FC086
:104EC0004115510509F45BC06530710508F457C000
:104ED00020917606C7EFDFEF222391F1DC01CD9020
:104EE000DC9011971296ED91FC9196012A5F3F4F4D
:104EF000C9EFDFEF2617370719F5C0917706D09174
:104F00007806209749F521E030E030937806209329
:104F100077067A018C01F0937A06E09379065601C0
:104F2000B4E0AB0EB11CB50176DE0A0D1B1DF80115
:104F3000208131818217930729F5D701CD92DC9228
:104F4000CE01DF91CF911F910F91FF90EF90DF90F5
:104F5000CF90BF90AF9008952091790630917A0656
:104F60002F5F3F4FCCEFDFEFE217F30790F2CBEF6D
:104F7000DFEF2E173F0768F2D0E0C0E0CACFCFEFD7
:104F8000DFEFDECFC3EFDFEFDBCF84E090E008950B
:104F900082E090E008958CEF9FEF089580E290E02A
:104FA000089510927C0610927B0610927A06109259
:104FB0007906109278061092770690E080E00895C6
:104FC00090939E0280939D02089580917606882397
:104FD00091F0C5DD009789F410927C0610927B0653
:104FE00010927A061092790610927806109277063F
:104FF00010927606089590E080E00895009749F0B9
:105000006115710531F0FC0111821082FB011182E2
:1050100010820895F3CF26E030E040E855E260E0EA
:1050200070E090E080E000C08130910569F01CF4F0
:10503000892B39F008958230910549F0039751F09A
:1050400008958AE896E0F7C687E297E0FCCF84EC03
:1050500097E0F9CF81E698E0F6CF1F920F920FB656
:105060000F9211240BB60F922F933F934F935F93A0
:105070006F937F938F939F93AF93BF93EF93FF9320
:105080008FE89DEF9093250180932401BAD0FF9182
:10509000EF91BF91AF919F918F917F916F915F91B0
:1050A0004F913F912F910F900BBE0F900FBE0F901D
:1050B0001F9018958FE89DEF909325018093240110
:1050C000A3E7B0E08C918E7F8C93E0E2F1E08081E9
:1050D0008C7F8083E1E2F1E08081877E8083808124
:1050E0008460808380818C7F80838C9181608C93AD
:1050F0000895E3E7F0E0808190819E7F9083817046
:10510000089581E0089510927D06089568EE73E099
:1051100080E090E068D390E080E0089526E030E001
:1051200040E050E16EE070E090E080E07DDF8AE8F2
:1051300096E0B7D5892B21F08AE896E0CCD5F7CF59
:1051400090E080E00895CF92DF92EF92FF920F936C
:105150001F93CF93DF936B017A01E90119821882C3
:105160008AE896E09ED5892B69F18601CC24C39408
:1051700082E0D82E80917D06811110C08AE896E0E9
:10518000AAD50297B9F7C0927D06F801D1928F0196
:1051900088819981019699838883ECCF8881998150
:1051A0008E159F0578F48AE896E095D58F3F98078D
:1051B000A9F3F80181938F018881998101969983E0
:1051C0008883ECCF90E080E0DF91CF911F910F9129
:1051D000FF90EF90DF90CF9008950F931F93CF93A0
:1051E000DF93EA0189018AE896E00E94AB31F80179
:1051F000D183C08390E080E0DF91CF911F910F9128
:105200000895CF92DF92EF92FF92CF93DF93809138
:105210007E0691E0980F90937E06882379F021E036
:1052200030E03093800620937F0680937E06DF91E6
:10523000CF91FF90EF90DF90CF9008957894C09138
:10524000A102D091A2026E8D7F8D88A199A143D138
:1052500020E030E040E85FE4F4D16B017C016A8D2E
:105260007B8D8C8D9D8D37D19B01AC01C701B60123
:1052700099D005D16B017C010E945205B701A601AE
:1052800090E080E00E94C404F89480917E068150F2
:10529000CCCF0F931F93CF93DF93109251091092AD
:1052A0005009D7D2B8DEC091A102D091A2021982D2
:1052B00018826FEF7FEFCB010E94470570E060E03E
:1052C00090E080E00E94C803009709F03AC00E9475
:1052D0007C08F8947894BE016A5D7F4F8A819B8137
:1052E0000E94CB03892B59F46FEF7FEFCB010E9413
:1052F0005A040E944105882311F081E08AA7F8949E
:10530000D9DE0E944405882311F080E008C00E9485
:1053100041058111FACF81E09AA59111F6CF8093D2
:10532000500978940E9423108C0178948091500940
:1053300081110CC00E9440090E942605F89490E05B
:1053400080E0DF91CF911F910F9108950E94240575
:105350000E9444058823D9F081E0809351099091FF
:10536000510981E0911180E08093500980915109A9
:105370008111BFDE0130110529F40E942310892B11
:1053800009F4C1DE0E9423108C01BBDECFCF0E9446
:1053900041058111E1CF81E09AA59111DECF80E036
:1053A000DCCF5058BB27AA270ED00DC1FED030F05D
:1053B00003D120F031F49F3F11F41EF4F3C00EF43A
:1053C000E095E7FBE9C0E92F0FD180F3BA17620738
:1053D00073078407950718F071F49EF527C10EF442
:1053E000E0950B2EBA2FA02D0B01B90190010C01F5
:1053F000CA01A0011124FF27591B99F0593F50F40D
:10540000503E68F11A16F040A22F232F342F442764
:10541000585FF3CF469537952795A795F04053955C
:10542000C9F77EF41F16BA0B620B730B840BBAF02C
:105430009150A1F0FF0FBB1F661F771F881FC2F797
:105440000EC0BA0F621F731F841F48F487957795AB
:105450006795B795F7959E3F08F0B3CF9395880F62
:1054600008F09927EE0F97958795089571D008F465
:1054700081E0089504D06894B111D9C00895BCD0DA
:1054800088F09F5790F0B92F9927B751A0F0D1F02D
:10549000660F771F881F991F1AF0BA95C9F712C0B7
:1054A000B13081F0C3D0B1E00895C0C0672F782F2C
:1054B0008827B85F39F0B93FCCF386957795679523
:1054C000B395D9F73EF490958095709561957F4F8F
:1054D0008F4F9F4F0895E89409C097FB3EF4909535
:1054E0008095709561957F4F8F4F9F4F9923A9F0BD
:1054F000F92F96E9BB279395F6958795779567954C
:10550000B795F111F8CFFAF4BB0F11F460FF1BC08F
:105510006F5F7F4F8F4F9F4F16C0882311F096E922
:1055200011C0772321F09EE8872F762F05C06623D0
:1055300071F096E8862F70E060E02AF09A95660F89
:10554000771F881FDAF7880F9695879597F9089542
:10555000990F0008550FAA0BE0E8FEEF1616170684
:10556000E807F907C0F012161306E407F50798F0EC
:10557000621B730B840B950B39F40A2661F0232B05
:10558000242B252B21F408950A2609F4A140A69581
:105590008FEF811D811D089597F99F6780E870E066
:1055A00060E008959FEF80EC089500240A94161699
:1055B000170618060906089500240A941216130601
:1055C000140605060895092E0394000C11F488238F
:1055D00052F0BB0F40F4BF2B11F460FF04C06F5FAB
:1055E0007F4F8F4F9F4F089557FD9058440F551F81
:1055F00059F05F3F71F04795880F97FB991F61F055
:105600009F3F79F087950895121613061406551FCB
:10561000F2CF4695F1DF08C0161617061806991F37
:10562000F1CF86957105610508940895E894BB272C
:1056300066277727CB0197F908958ADF08F48FEF63
:1056400008950BD0C0CFB1DF28F0B6DF18F0952356
:1056500009F0A2CFA7CF1124EACFC6DFA0F3959F10
:10566000D1F3950F50E0551F629FF001729FBB2749
:10567000F00DB11D639FAA27F00DB11DAA1F649FF5
:105680006627B00DA11D661F829F2227B00DA11DA8
:10569000621F739FB00DA11D621F839FA00D611D2E
:1056A000221F749F3327A00D611D231F849F600D4F
:1056B000211D822F762F6A2F11249F5750408AF088
:1056C000E1F088234AF0EE0FFF1FBB1F661F771F14
:1056D000881F91505040A9F79E3F510570F05CCF54
:1056E000A6CF5F3FECF3983EDCF386957795679500
:1056F000B795F795E7959F5FC1F7FE2B880F911D32
:105700009695879597F908951F920F920FB60F926D
:1057100011242F933F938F939F93AF93BF938091C7
:10572000820690918306A0918406B09185063091FF
:10573000810623E0230F2D3758F50196A11DB11DD9
:10574000209381068093820690938306A09384061B
:10575000B09385068091860690918706A091880671
:10576000B09189060196A11DB11D80938606909384
:105770008706A0938806B0938906BF91AF919F9149
:105780008F913F912F910F900FBE0F901F90189502
:1057900026E8230F0296A11DB11DD2CF3FB7F89482
:1057A0008091860690918706A0918806B09189061F
:1057B00026B5A89B05C02F3F19F00196A11DB11D6C
:1057C0003FBFBA2FA92F982F8827BC01CD01620FA8
:1057D000711D811D911D42E0660F771F881F991F63
:1057E0004A95D1F708958F929F92AF92BF92CF9230
:1057F000DF92EF92FF926B017C01D0DF4B015C01E5
:10580000C114D104E104F104D9F0D2D5C7DF68197D
:1058100079098A099B09683E73408105910580F3E7
:1058200021E0C21AD108E108F10888EE880E83E071
:10583000981EA11CB11CC114D104E104F10431F77C
:10584000FF90EF90DF90CF90BF90AF909F908F90A0
:105850000895789484B5826084BD84B5816084BDE8
:1058600085B5826085BD85B5816085BDEEE6F0E0D9
:10587000808181608083E1E8F0E010828081826035
:105880008083808181608083E0E8F0E080818160B6
:105890008083E1EBF0E0808184608083E0EBF0E0E6
:1058A000808181608083E1E9F0E080818260808393
:1058B000808181608083E0E9F0E080818160808385
:1058C000E1EAF0E080818260808380818160808372
:1058D000E0EAF0E0808181608083E1E2F1E08081B4
:1058E00082608083808181608083E0E2F1E080815A
:1058F00081608083EAE7F0E080818460808380813A
:1059000082608083808181608083808180688083E1
:105910001092C1000895863308F0865320917B00D1
:10592000982F9870277F922B90937B0020919F0255
:1059300090E4299F900111248770822B80937C0032
:1059400080917A00806480937A0080917A0086FD4D
:10595000FCCF809178009091790008951F93CF93A8
:10596000DF93182FEB0161E033D1209731F460E031
:10597000812FDF91CF911F9167C1CF3FD10511F4E6
:1059800061E0F6CFE12FF0E0EC51FF4FE491E15000
:10599000E23108F0B2C0F0E08827EF52F34D8F4FAC
:1059A0003EC5E32CEB2CF02CFA2C042D7D2D0E2D76
:1059B000162D1E2D282D322D3C2D4B2D552D7D2D98
:1059C0005F2D692D732D84B5806884BDC7BDDF91BF
:1059D000CF911F91089584B5806284BDC8BDF7CF73
:1059E00080918000806880938000D0938900C0936C
:1059F0008800EDCF80918000806280938000D093FA
:105A00008B00C0938A00E3CF8091800088608093F0
:105A10008000D0938D00C0938C00D9CF8091B000CE
:105A200080688093B000C093B300D1CF8091B00064
:105A300080628093B000C093B400C9CF8091900081
:105A4000806880939000D0939900C0939800BFCF56
:105A500080919000806280939000D0939B00C093CF
:105A60009A00B5CF80919000886080939000D09389
:105A70009D00C0939C00ABCF8091A0008068809374
:105A8000A0008091A0008F7B8093A000D093A900FC
:105A9000C093A8009CCF8091A00080628093A0005A
:105AA000D093AB00C093AA0092CF8091A0008860F1
:105AB0008093A000D093AD00C093AC0088CF8091BC
:105AC0002001806880932001D0932901C093280190
:105AD0007ECF80912001806280932001D0932B01A2
