:10000000F8C0000027C1000025C1000023C1000086
:1000100021C100001FC100001DC100001BC1000064
:1000200019C1000017C1000015C1000013C1000074
:1000300011C100000FC100000DC100000BC1000084
:1000400009C1000007C1000005C1000003C1000094
:1000500001C10000FFC00000FDC000000C94172B80
:10006000F9C000000C940E2F0C94442FF3C0000034
:10007000F1C00000EFC00000EDC00000EBC00000C8
:10008000E9C00000E7C00000E5C00000E3C00000D8
:100090000C949A2F0C94D02FDDC00000DBC0000020
:1000A000D9C00000D7C00000D5C00000D3C00000F8
:1000B000D1C00000CFC00000CDC00000CBC0000008
:1000C000C9C00000C7C000000C94C0270C942630A3
:1000D0000C945C30BFC000000C94B2300C94E8303B
:1000E000B9C0000000000A0B02090C0D0E0807033E
:1000F00004010000000000000000000000000000FB
:1001000000000000000000000000000000000000EF
:1001100012111000000000000000000000000000AC
:100120000000000000000000000001021020200874
:100130000810204010204080020102010804020142
:1001400001020408102040808040201008040201B1
:10015000800402018040201008040201080402010A
:100160000102040810204080010204081020408091
:1001700005050505070508080808020202020A0A23
:100180000808040404040101010101010101030341
:10019000030303030303040707070C0C0C0C0C0CEC
:1001A0000C0C0202020206060606060606060B0BE9
:1001B0000B0B0B0B0B0B00002200250028002B0063
:1001C0002E003100340002010000050108010B017E
:1001D00000002100240027002A002D0030003300F9
:1001E00001010000040107010A016D2FF92F85307C
:1001F000113111241FBECFEFD1E2DEBFCDBF00E031
:100200000CBF13E0A0E0B2E0EAEAF3E600E00BBFC7
:1002100002C007900D92A431B107D9F728E0A4E1FC
:10022000B3E001C01D92A438B207E1F710E0C9EFB6
:10023000D0E000E006C021970109802FFE010E9456
:10024000A231C53FD10780E00807A9F70E94DC284A
:100250000C94D331D5CECF92DF92EF92FF92CF9311
:10026000882351F16A017B01CFEFC80F20E030E015
:10027000A901CB01B6010E94C92918168CF0C7014B
:10028000B60190580E94D2299B01AC016C2F70E0FE
:1002900090E080E0CF91FF90EF90DF90CF90B2C0E0
:1002A000C701B6010E94CD298C2FCF91FF90EF900E
:1002B000DF90CF900C94412CCF91FF90EF90DF9086
:1002C000CF9008950F931F938B019C0183E0369587
:1002D0002795179507958A95D1F70C5E1C4F462FE9
:1002E000477021E030E0F90102C0EE0FFF1F4A9590
:1002F000E2F7AF01F80120812423CB0101962111FF
:1003000002C090E080E01F910F9108950F931F931A
:100310008B019C0183E036952795179507958A9563
:10032000D1F7677081E090E001C0880F6A95EAF725
:10033000F801EC5EFC4F2081452B31F4809582233F
:1003400080831F910F910895822BFACF2F923F92B5
:100350004F925F926F927F928F929F92AF92BF92D5
:10036000CF92DF92EF92FF920F931F93CF93DF9381
:10037000D62EC72E782E692E49015A01280161E038
:100380008D2D0E947B2DCD2DDC2D8E010F5F1F4FFB
:10039000A8016D2D7C2D872D962DB8DF20E030E053
:1003A000A901C201B7010E94B02A181664F4C20163
:1003B000B7010E94D2292B01C501B4010E94D229A4
:1003C000A201CE0123D0C801DF91CF911F910F91DF
:1003D000FF90EF90DF90CF90BF90AF909F908F9065
:1003E0007F906F905F904F903F902F90089588235B
:1003F00041F08150682F70E090E080E050E040E0F4
:1004000085CF0895862FB9010C94412C9C01FC01E5
:10041000EC51FF4FE491E150E231E0F4F0E0882745
:10042000EB5EFD4F8F4F0C94A23127022E0231025A
:1004300048025D022A0272027E0282029902AE0224
:10044000C302DA02EF022A0204031B03300384B55D
:10045000806884BD60E0822F0C94B72D84B58062E3
:10046000F8CF809180008C7F8260809380008091A3
:100470008100807E8061682B6093810050938700AB
:100480004093860080918000806880938000E2CF56
:10049000809180008C7F82608093800080918100B9
:1004A000807E8061682B6093810050938700409329
:1004B0008600809180008062E8CF809180008C7FF0
:1004C00082608093800080918100807E8061682BB3
:1004D0006093810050938700409386008091800054
:1004E0008860D3CF8091B00080688093B000809105
:1004F000B100887F682B6093B100ACCF8091B000D1
:100500008062F3CF809190008C7F82608093900016
:1005100080919100807E8061682B60939100509360
:10052000970040939600809190008068809390009F
:1005300091CF809190008C7F826080939000809119
:100540009100807E8061682B6093910050939700AA
:1005500040939600809190008062E8CF8091900057
:100560008C7F82608093900080919100807E80617A
:10057000682B609391005093970040939600809170
:1005800090008860D3CF8091A0008C7F82608093A0
:10059000A0008091A100807E8061682B6093A10003
:1005A0005093A7004093A6008091A000806880939C
:1005B000A00050CF8091A0008C7F82608093A0002B
:1005C0008091A100807E8061682B6093A100509390
:1005D000A7004093A6008091A0008062E8CF8091A0
:1005E000A0008C7F82608093A0008091A100807E1B
:1005F0008061682B6093A1005093A7004093A600F0
:100600008091A0008860D3CF809120018C7F826090
:100610008093200180912101807E8061682B60930E
:100620002101509327014093260180912001806889
:10063000809320010FCF809120018C7F8260809376
:10064000200180912101807E8061682B60932101CF
:100650005093270140932601809120018062E8CFCA
:10066000809120018C7F8260809320018091210104
:10067000807E8061682B6093210150932701409315
:100680002601809120018860D3CFCF93DF93882308
:1006900049F0EB0181500E941E2C99838883DF91E1
:1006A000CF910895FB0111821082F9CF0F931F9310
:1006B0008B019C0183E036952795179507958A95C0
:1006C000D1F7035E1C4F462F477021E030E0F9015F
:1006D00002C0EE0FFF1F4A95E2F7AF01F80120813B
:1006E0002423CB010196211102C090E080E01F91EC
:1006F0000F9108950F931F938B019C0183E0369512
:100700002795179507958A95D1F7677081E090E056
:1007100001C0880F6A95EAF7F801E35EFC4F20817B
:10072000452B31F48095822380831F910F9108958A
:10073000822BFACFCF92DF92EF92FF92CF93DF938B
:100740006B017C0160E086E3C816D104E104F1048A
:1007500090F486E38C0D0E947B2DE6012196AE017C
:10076000C701B601C7DFCE01DF91CF91FF90EF90B7
:10077000DF90CF9008958C2DEECF882341F08150EB
:10078000682F70E090E080E050E040E0B3CF089543
:1007900090E080E008950F931F93009709F487C0BD
:1007A0006115710509F483C000915602109157023A
:1007B00020915802309159020E3F1F4F2F4F3F4F4B
:1007C00009F066C04FEF5FEFBA01409356025093B5
:1007D000570260935802709359024091560250910B
:1007E00057026091580270915902DC011296ED9106
:1007F000FC9180819181A281B38180939403909335
:100800009503A0939603B093970384819581A68165
:10081000B7818093900390939103A0939203B09338
:10082000930380859185A285B38580938C039093F3
:100830008D03A0938E03B0938F0384859585A68541
:10084000B7858093880390938903A0938A03B0931C
:100850008B031092840310928503109286031092EA
:10086000870377D78EEC9BE0909327038093260332
:1008700090932903809328035BD6009731F421E0FD
:1008800030E030939903209398031F910F910895BE
:10089000009156021091570220915802309159024E
:1008A000DB010D931D932D933C93139796CF8FEF00
:1008B0009FEFEBCF8F929F92AF92BF92CF92DF923A
:1008C000EF92FF921F93CF93DF934B015C01109146
:1008D0009B0382E090E090939903809398038114A6
:1008E0009104A104B10441F480919B03811104C0DF
:1008F00080919A03C1E08111C0E0C12CD12C760116
:1009000080919B03811106C080919A03811102C0DE
:10091000CC23D9F083E090E09093990380939803DF
:10092000CC2379F1CCE9DFEF111102C00E94320F24
:10093000CE01DF91CF911F91FF90EF90DF90CF908C
:10094000BF90AF909F908F9008956AE070E080E034
:1009500090E00E94862B80E1C80E87E2D81EE11C41
:10096000F11C8FEF88169806A806B80631F0C1E092
:100970008C149D04AE04BF0408F0C0E080E00CD6E7
:10098000BFCFD0E0C0E0D0CFCF92DF92EF92FF9206
:100990000F931F93CF93DF938F3F910511F008F0D2
:1009A00050C020919803309199032330310539F0DC
:1009B00020919803309199032130310531F424E0DE
:1009C00030E030939903209398036A017B01EC0196
:1009D00082309105A0F011E0AE01C701B601A7D5A4
:1009E000AB01BC01CE011123F9F0DF91CF911F9132
:1009F0000F91FF90EF90DF90CF900C945B118C01E2
:100A0000000F111F0A5D1C4FD8018D919C91892BFD
:100A100011F30E9465110297F1F6D801ED91FC9156
:100A2000CE011995182FD8CF0E947D1190E080E05B
:100A3000DF91CF911F910F91FF90EF90DF90CF90BA
:100A400008958FEF9FEFF4CF80E0A6C5CF93DF939B
:100A500086E090E09093990380939803F6D5EC019B
:100A6000E6E2F3E084E0DF011D928A95E9F70E9457
:100A7000CA0E1092990310929803CE01DF91CF9184
:100A8000089580919A030895809183030895609357
:100A9000560270935702809358029093590290E047
:100AA00080E008954F925F926F927F928F929F9213
:100AB000AF92BF92CF92DF92EF92FF920F931F936C
:100AC000CF93DF93CDB7DEB72E970FB6F894DEBF86
:100AD0000FBECDBF8091520890915308A091540849
:100AE000B091550880935E0890935F08A0936008CA
:100AF000B09361088091560890915708A0915808CA
:100B0000B09159088093620890936308A093640899
:100B1000B0936508C0904002D0904102E09042023C
:100B2000F0904302A7019601609146087091470832
:100B300080914808909149080E94C929882341F072
:100B4000C0924608D0924708E0924808F0924908BF
:100B500066E370E080E090E0A9DD90934508809323
:100B6000440843E050E0BE016F5F7F4F8EDD20916F
:100B7000540230915502A981BA810E94AA310E9483
:100B8000FE2920E030E040E057E30E94B42A2091A3
:100B900044023091450240914602509147020E9422
:100BA0006429209148023091490240914A025091B3
:100BB0004B020E94B42A6093660870936708809382
:100BC0006808909369082091300230913102409179
:100BD0003202509133020E94642920912802309100
:100BE000290240912A0250912B020E94B42A20919E
:100BF00062083091630840916408509165080E9432
:100C000065296B017C0191D3882309F4DCC1209113
:100C10007608309177084091780850917908609172
:100C20002C0270912D0280912E0290912F029058EB
:100C30000E94B42A2B013C0120914C0230914D02BC
:100C400040914E0250914F020E94B42A6B017C01E8
:100C500020915E0830915F084091600850916108D2
:100C6000609118027091190280911A0290911B02F2
:100C70000E94B42A4B015C01209162083091630804
:100C8000409164085091650860911C0270911D02AA
:100C900080911E0290911F020E94B42A9B01AC0118
:100CA000C501B4010E9465294B015C012091340209
:100CB000309135024091360250913702C701B6019A
:100CC0000E94B42A9B01AC01C501B4010E946529B0
:100CD0009B01AC016091660870916708809168087B
:100CE000909169080E9464294B015C0169E070E001
:100CF00080E090E0E7DA8C019093510880935008EF
:100D00002091500230915102409152025091530271
:100D1000C301B2010E94B42A2B013C0120E030E063
:100D20004FE753E40E94C92918160CF46BC120E068
:100D300030E0A901C301B2010E94B02A87FF03C0BD
:100D4000412C512C3201B301A201C80184DA8091F7
:100D50005E0890915F08A0916008B09161088B8354
:100D60009C83AD83BE838091620890916308A091BB
:100D70006408B09165088F839887A987BA87209106
:100D80001002309111024091120250911302C701DA
:100D9000B6010E94B42A2B013C012091200230911F
:100DA00021024091220250912302C501B4010E9408
:100DB000B42A9B01AC01C301B2010E9465296B8773
:100DC0007C878D879E87209100023091010240919F
:100DD0000202509103026B817C818D819E810E9471
:100DE000B42A2B013C012091080230910902409164
:100DF0000A0250910B026F81788589859A850E943D
:100E0000B42A9B01AC01C301B2010E9465299B0178
:100E1000AC016B857C858D859E850E9465296093DC
:100E2000520870935308809354089093550820916A
:100E30001402309115024091160250911702C70119
:100E4000B6010E94B42A6B017C01209124023091EA
:100E500025024091260250912702C501B4010E944B
:100E6000B42A9B01AC01C701B6010E9465296B0140
:100E70007C012091040230910502409106025091BC
:100E800007026B817C818D819E810E94B42A4B0177
:100E90005C0120910C0230910D0240910E025091A4
:100EA0000F026F81788589859A850E94B42A9B01FB
:100EB000AC01C501B4010E9465299B01AC01C701C9
:100EC000B6010E9465296093560870935708809375
:100ED000580890935908C0905603D0905703E0905B
:100EE0005803F09059039FEFC91AD90AE90AF90A81
:100EF000C0925603D0925703E0925803F0925903E0
:100F0000C114D104E104F10499F480915A03909141
:100F10005B03A0915C03B0915D030196A11DB11D1F
:100F200080935A0390935B03A0935C03B0935D039B
:100F300080905E0390905F03A0906003B090610387
:100F400060915A0370915B0380915C0390915D0303
:100F50000E94FE29A50194010E94B42A20E030E0FD
:100F600040E85FE40E94B42A2B013C01C701B601AE
:100F70000E94FE29A50194010E94B42A9B01AC01A4
:100F8000C301B2010E946529609352037093530319
:100F900080935403909355032E960FB6F894DEBFBA
:100FA0000FBECDBFDF91CF911F910F91FF90EF90BA
:100FB000DF90CF90BF90AF909F908F907F906F9079
:100FC0005F904F90089520E030E0A901C701B6017D
:100FD0000E94C92920E030E040E85FEB87FD1FCE8A
:100FE00020E030E0A901C701B6010E94B02A20E04C
:100FF00030E0A90118160CF012CE20E030E040E8F5
:101000005FE30DCE412C512C8FE7682E83E4782EC0
:101010009ACE4F925F926F927F92AF92BF92DF9281
:10102000EF92FF920F931F93CF93DF9384E090E0B2
:101030002BD1ECE3F3E08BE2DF011D928A95E9F717
:1010400080E090E0A0E8BFEB86A397A3A0A7B1A79C
:101050008AE097EDA3E2BCE382A393A3A4A3B5A384
:1010600081E39DEFA8ECBAE784839583A683B783D9
:1010700088E79EEDAAE8B7E180879187A287B387CA
:101080008FED94EEA2E7B0E984879587A687B787AE
:101090008DEC92E6ADE1BAED808B918BA28BB38B98
:1010A000A0E3B3E0B383A283EAE2F3E01196FC93FA
:1010B000EE9380E892E0918380839383828395838B
:1010C000848380E593E015969C938E93149780E437
:1010D00093E013969C938E93129782E593E0179674
:1010E0009C938E931697EEE5F8E08CE0DF011D925D
:1010F0008A95E9F7CEE3D8E080E2FE0111928A9565
:10110000E9F7DD24D394DE8E80E0A82E82E0B82EAD
:101110008091400290914102A0914202B09143021D
:1011200088879987AA87BB87412C512C3201439429
:1011300049825A826B827C8266E370E080E090E0B4
:10114000F9DA9F838E83DD821C86DF8E4D865E8674
:101150006F86788AE12CF12C8701A801970169E05C
:1011600070E080E090E0F2D89B8B8A8BD98AF50101
:1011700080AD91ADA2ADB3AD8C8B9D8BAE8BBF8B93
:1011800084AD95ADA6ADB7AD888F998FAA8FBB8F73
:10119000DF91CF911F910F91FF90EF90DF90BF9063
:1011A000AF907F906F905F904F90089580913E0830
:1011B00081111DC081E080933E0880913F0890918D
:1011C0004008A0914108B09142080197A105B105DE
:1011D00071F480914308882351F066E370E080E069
:1011E00090E064DA9093450880934408C6DA8091D1
:1011F0004A0881112AC081E080934A0880914B08F7
:1012000090914C08A0914D08B0914E080197A1050E
:10121000B105D9F480914F088823B9F069E070E0F6
:1012200080E090E04FD8909351088093500840E0C0
:1012300050E0BA0110D869E070E080E090E042D858
:101240009093510880935008D2C8089560E070E0F0
:1012500080E89FE7089560E070E080E89FE70895E8
:1012600060E070E080E89FEF089560E070E080E863
:101270009FEF089560E070E080EC9FEF089560E0DC
:1012800070E080EC9FEF0895F5DF6093760870932F
:1012900077088093780890937908F1DF60936A0863
:1012A00070936B0880936C0890936D08CFDF609308
:1012B0007208709373088093740890937508CBDF5D
:1012C00060936E0870936F08809370089093710814
:1012D000C7DF60937A0870937B0880937C089093B3
:1012E0007D08C3DF60937E0870937F088093800839
:1012F0009093810808950F931F938B019C01002701
:10130000112720783F770115110520483F4749F400
:10131000AB01BC016F77772781E0452B462B472B2C
:1013200009F480E01F910F910895E5CF4F925F92ED
:101330006F927F928F929F92AF92BF92CF92DF92E5
:10134000EF92FF920F931F93F89440907303509085
:1013500074036090750370907603C0906703D0901B
:101360006803E0906903F0906A03452B09F0A4C07C
:101370009B01AC01241935094609570929013A0195
:1013800000916F03109170032091710330917203EB
:1013900048015901840C951CA61CB71C80169106A7
:1013A000A206B306A0F400916B0310916C03209188
:1013B0006D0330916E030F5F1F4F2F4F3F4F009310
:1013C0006B0310936C0320936D0330936E03809234
:1013D0006F0390927003A0927103B0927203009118
:1013E0006B0310916C0320916D0330916E0380921A
:1013F000770390927803A0927903B0927A030093D6
:101400007B0310937C0320937D0330937E036093D2
:101410007303709374038093750390937603A0E134
:10142000B7E2A30192010E94B9316C0D7D1D8E1DA2
:101430009F1D609367037093680380936903909383
:101440006A03009156021091570220915802309180
:1014500059020F3F1F4F2F4F3F4FF1F0009156029F
:101460001091570220915802309159020E3F1F4FA0
:101470002F4F3F4F89F0C0905602D0905702E09016
:101480005802F090590221E08C149D04AE04BF0470
:1014900008F420E02093830378941F910F91FF902C
:1014A000EF90DF90CF90BF90AF909F908F907F9004
:1014B0006F905F904F9008954B015C0184189508E0
:1014C000A608B708A3019201261B370B480B590B3E
:1014D0006415750586059705D0F082169306A40657
:1014E000B50640F420E030E0A90181149104A10484
:1014F000B10491F4A0E1B7E20E94B931A7019601CD
:10150000261B370B480B590BCA01B901C5CF8216F0
:101510009306A406B50670F7A0E1B7E2A501940111
:101520000E94B9316C0D7D1D8E1D9F1DB5CFFECE65
:10153000CF93DF9300D01F92CDB7DEB71C821B8202
:101540001A82198210927F031092800310928103F5
:1015500010928203BE016F5F7F4FCE0103960E94FF
:10156000912769817A818B819C810E9481200097DB
:1015700061F4BE016F5F7F4FCE0103960E949D27ED
:1015800069817A818B819C812ED50F900F900F906D
:101590000F90DF91CF910895FF920F931F93CF93F8
:1015A000DF93082F60E070E0CB010E94862BFF24C0
:1015B000F3940E946A1FEC01892B89F010E0CE3F62
:1015C0008FEFD80769F0002361F160E070E0CB0194
:1015D0000E94862B81E090E0892B59F322C011E014
:1015E00025D5EC01892B21F0CE3F8FEFD80759F795
:1015F00011111EC011E0229609F410E00E941A1F7A
:10160000EC01892B21F0CE3F8FEFD807E1F61111C5
:1016100011C011E0CE3F8FEFD80709F410E001119F
:101620000BC0CE01DF91CF911F910F91FF900895D4
:1016300011E0E4CF11E0F3CF60E070E0CB010E9455
:10164000862B1F25812F90E0C7CFCF93DF9380910A
:101650008303882321F060E070E0CB014CD635D6BF
:10166000D0E0C0E0892B71F06AE070E080E090E0AB
:101670000E94862B81E090DF28D62196C03D27E08E
:10168000D20781F727D60E94D52010929B03109293
:101690009A0310929403109295031092960310925D
:1016A000970310929003109291031092920310925C
:1016B000930310928C0310928D0310928E0310925C
:1016C0008F03109288031092890310928A0310925C
:1016D0008B0310928403109285031092860310925C
:1016E00087034EEF5FEF6FEF7FEF4093560250930B
:1016F0005702609358027093590210928303E7E7F0
:10170000F3E028E0DF011D922A95E9F710927303B8
:1017100010927403109275031092760310926F0367
:1017200010927003109271031092720310926B0367
:1017300010926C0310926D0310926E031092670367
:10174000109268031092690310926A03DF91CF919F
:1017500008951092A7031092A8031092A903109263
:10176000AA031092A6038091AF039091B0039093C7
:10177000A5038093A4031092A3031092A2031092D6
:101780009E0310929F031092A0031092A103109247
:10179000AC031092AB0390E080E00895CF92DF920B
:1017A000EF92FF920F931F93CF938C01892B09F037
:1017B00055C02091AF033091B0038091A403909164
:1017C000A5034091AF035091B0035093A5034093FC
:1017D000A4032817390781F01092A3031092A203E3
:1017E00010929E0310929F031092A0031092A103E7
:1017F0001092AC031092AB038091AF039091B003B1
:10180000019761F58091AB039091AC03892B21F492
:1018100080915A02811112C08091AB039091AC0368
:101820000197E1F480919E0390919F03A091A00302
:10183000B091A1030197A105B10581F410929E0317
:1018400010929F031092A0031092A10310925A02CB
:1018500082E090E09093AC038093AB038091AF0360
:101860009091B003019709F01CC18091C50390913C
:10187000C6038017910709F014C18091C1039091AC
:10188000C203A091C303B091C403009709F409C136
:101890002091C00321110DC04091C1035091C2039A
:1018A0006091C3037091C403452B462B472B09F469
:1018B000F8C02091AB033091AC032230310509F020
:1018C000F0C02091A2032111ECC0FC01C080D180A6
:1018D000E280F3808091A603882309F4D3C080912D
:1018E000B2039091B303892B09F4FDC02091B20398
:1018F0003091B30381E02230310509F080E020917E
:10190000B2033091B303C1E02130310549F0209199
:10191000B2033091B303C1E02230310509F0C0E0D9
:10192000882309F456C02091BC033091BD03409137
:10193000BE035091BF03C701B6010E94B02A87FDC4
:1019400014C02091BC033091BD034091BE0350915F
:10195000BF036091A7037091A8038091A9039091A0
:10196000AA030E94C92987FD22C02091BC0330919F
:10197000BD034091BE035091BF03C701B6010E9451
:10198000B02A181634F52091BC033091BD03409164
:10199000BE035091BF036091A7037091A80380918B
:1019A000A9039091AA030E94C929811112C08091B4
:1019B000B4039091B503A091B603B091B703892BFE
:1019C0008A2B8B2B19F481E08093A30381E0809311
:1019D000A203CC2309F456C02091BC033091BD036F
:1019E0004091BE035091BF03C701B6010E94C929AF
:1019F00087FF14C02091BC033091BD034091BE030A
:101A00005091BF036091A7037091A8038091A9032F
:101A10009091AA030E94B02A87FF22C02091BC03A4
:101A20003091BD034091BE035091BF03C701B60181
:101A30000E94C929811126C02091BC033091BD03A9
:101A40004091BE035091BF036091A7037091A8031A
:101A50008091A9039091AA030E94B02A181694F4C9
:101A60008091B4039091B503A091B603B091B703F0
:101A7000892B8A2B8B2B19F481E08093A30381E0BF
:101A80008093A20381E09091A203911180E0809362
:101A9000A603C092A703D092A803E092A903F092F4
:101AA000AA03012B09F067C18091AB039091AC03AD
:101AB000892BD9F41092B1031092A20380915A029B
:101AC000882379F082E090E09093AC038093AB039D
:101AD00010925A022091AF033091B00381E0232B82
:101AE000E9F080E01BC081E00ACF10925A02809199
:101AF000B103882349F01092A3031092AC03109213
:101B0000AB031092B103EDCF8091AF039091B0037E
:101B1000892BE1F08091A2031092A2032091AB03E4
:101B20003091AC032230310509F45EC088F42115F0
:101B3000310509F448C02130310509F4F3C0109291
:101B4000A3031092A2031092B10338C081E0E6CF44
:101B50002330310509F4B1C02430310581F74091BB
:101B60009E0350919F036091A0037091A1034115C2
:101B700051056105710561F0415051096109710913
:101B800040939E0350939F036093A0037093A1031F
:101B900040919E0350919F036091A0037091A10317
:101BA000452B462B472BD9F42091AD033091AE0342
:101BB0002130310509F046C01092A3031092AC0306
:101BC0001092AB030CC080915A02882341F082E04E
:101BD00090E09093AC038093AB0310925A02109262
:101BE0009C038091A303CEC08823C9F38091B403E2
:101BF0009091B503A091B603B091B70318161906DA
:101C00001A061B060CF07DC08091AF039091B003C3
:101C1000019709F076C08091B4039091B503A0912B
:101C2000B603B091B70380939E0390939F03A09354
:101C3000A003B093A10383E090E09093AC03809362
:101C4000AB03CDCF4091B8035091B9036091BA0373
:101C50007091BB03452B462B472BA9F01092A30391
:101C60008091B8039091B903A091BA03B091BB03DE
:101C700080939E0390939F03A093A003B093A1032E
:101C800081E090E0DACF882399F080915B02909117
:101C90005C02A0915D02B0915E0280939E039093DE
:101CA0009F03A093A003B093A10384E090E0C5CF6D
:101CB0001092A30382E090E0C0CF80919E039091A8
:101CC0009F03A091A003B091A1030097A105B105C6
:101CD00059F00197A109B10980939E0390939F0346
:101CE000A093A003B093A10380919E0390919F03C2
:101CF000A091A003B091A103892B8A2B8B2B09F013
:101D00006ECF80915B0290915C02A0915D02B091D8
:101D10005E02892B8A2B8B2B09F44ECF81E08093B6
:101D2000A303B3CF40919E0350919F036091A00302
:101D30007091A103411551056105710561F0415094
:101D400051096109710940939E0350939F03609369
:101D5000A0037093A10340919E0350919F03609153
:101D6000A0037091A103452B462B472B09F037CFD9
:101D70008111C7CF9FCF80919C03882309F431CF75
:101D800080919D03CF911F910F91FF90EF90DF9075
:101D9000CF9008951092A7031092A8031092A90360
:101DA0001092AA031092A6031092AC031092AB03F8
:101DB0001092A5031092A4031092C6031092C503BB
:101DC0001092A3031092A20310929E0310929F03FD
:101DD0001092A0031092A10310929D0310929C03F5
:101DE0001092C1031092C2031092C3031092C40355
:101DF0001092C0031092BC031092BD031092BE0358
:101E00001092BF0388EE93E0A0E0B0E080935B0205
:101E100090935C02A0935D02B0935E021092B803AF
:101E20001092B9031092BA031092BB031092B4033C
:101E30001092B5031092B6031092B7031092B30339
:101E40001092B20381E080935A021092B103109273
:101E5000B0031092AF031092AE031092AD0390E066
:101E600080E008958091AF039091B003892B19F51C
:101E700080915A02882351F08091B103811106C0EC
:101E800081E080939D0380939C0308952091B1038A
:101E900030915A0281E090E0332311F090E080E02D
:101EA00030E082239323892B21F010929D0381E05F
:101EB000EACF10929C03089582E090E0FA019183AA
:101EC00080838FEF9FEF0895CF93DF93EA01009710
:101ED00011F00E94F5211982188290E080E0DF91D4
:101EE000CF910895DB01009719F48FEF8C9308953B
:101EF0002EEF2C93FC013F96EF30F10508F034C033
:101F00008827EA57F04F8F4F0C94A231B20FB00FD1
:101F1000AE0FAC0FAA0FA60FA80FA40FA20FA00F11
:101F20009D0F990F950F9B0FB40F80E311968C9323
:101F3000089589E2FBCF82E2F9CF11961C920895B1
:101F400083E2F4CF81E2F2CF81E1F0CF87E2EECFFE
:101F50008AE2ECCF80E1EACF84E2E8CF88E2E6CF04
:101F600086E2E4CF81E3E2CF80E2E0CF8091D30349
:101F70009091D40308959093D4038093D30308954C
:101F80008091D20308959091D203892B8093D2033C
:101F90000895982F90958091D20389238093D2033E
:101FA00008958091D10308958091CF039091D0033B
:101FB00008956115710559F0FB0130E020E070E0F3
:101FC00060E02417350719F06115710511F0CB0198
:101FD0000895A081B181A817B90709F4BF012F5F47
:101FE0003F4F3696EECF8091D50381111CC060D251
:101FF00066D29093C8038093C7030E94F3190E948E
:10200000051A9093CC038093CB030E94821E0E94FA
:10201000891E9093CA038093C90381E08093D503FE
:1020200090E080E0089584EF9FEF08958F929F9253
:10203000AF92BF92CF92DF92EF92FF920F931F93D6
:10204000CF93DF9300D000D000D01F92CDB7DEB782
:102050001A86198618861F821E821D821C821B8288
:102060001A8219828091D50307EF1FEF882309F4A4
:102070009CC08E010D5F1F4F9E012B5F3F4FAE0135
:10208000495F5F4FBE01675F7F4F90E080E00E9435
:1020900006208C01009721F00596029708F0DBC01E
:1020A00029853A852115310509F402C1ED80FE80AC
:1020B0004B815C81B701640F751F8F8198858617EE
:1020C000970708F4F5C0E20EF31ED7019C91903CEF
:1020D00009F07FC04230510508F47BC011968C9105
:1020E0004091D3035091D403452B09F49CC0913FF8
:1020F00008F071C02CE1290F2D3008F48BC02DE2BF
:10210000290F203108F489C0903C21F4815082309D
:1021100008F483C088E3890F8B3008F481C092E70C
:10212000C92E9FE0D92EECE5FFE06D817E81AE01E6
:102130004F5F5F4F89859A8519955C01C114D10461
:10214000A1F189809A808114910479F18B819C811D
:102150008815990508F487C010E000E04B815C8188
:1021600070E060E0C7010E94CC3101151105E9F46F
:1021700049815A8169857A858D819E81680F791F91
:10218000C501F6011995E980FA800D811E812F8124
:10219000388549855A856FEF7FEF81E090E00E9496
:1021A000A11F8C01892B09F056C0C8012A960FB6D1
:1021B000F894DEBF0FBECDBFDF91CF911F910F917D
:1021C000FF90EF90DF90CF90BF90AF909F908F9057
:1021D000089580E085CF30E020E0220F331FF90121
:1021E000E953FC4F0190F081E02D309709F497CF2F
:1021F000892F90E01995009709F491CFDC01129690
:10220000ED91FC9113971496CD90DC90309709F0E6
:102210008CCF1FC021E030E0E0CF22E030E0DDCF06
:1022200023E030E0DACFD12CC12CE4E6FFE09F3F81
:1022300009F07BCFE091C703F091C803309721F4F8
:10224000C90104EF1FEF0CC08FEF90E019950097C4
:10225000A9F604EF1FEF89859A85009709F4A5CFA9
:102260000E94F521A2CF0E94D0208C0189859A85F9
:102270000E94F52170E060E0C4010E946920988707
:102280008F830E949E1F9E838D836F817885611549
:10229000710559F0C8010E9481239A87898706EF4A
:1022A0001FEF892B09F058CF59CF08EF1FEF56CFFA
:1022B00008EF1FEFD0CF2091D503222319F020E0A3
:1022C0000C940A1A87EF9FEF08958091D3039091A1
:1022D000D40308950E948E1E0E94E81DF5D0E7ECFD
:1022E000F3E088E0DF011D928A95E9F71092D503AB
:1022F00090E080E008950C94461C21E040E050E01E
:10230000BA010C940A1A86E090E0FA019183808366
:1023100090E080E0089547E050E063E872E049CE45
:10232000DF92EF92FF920F931F93CF93DF938A0177
:10233000EC01C60FD71FE090D903F090DA03D980E3
:102340000E94B820D816190678F082E090E0F801D3
:10235000918380838EEF9FEFDF91CF911F910F913B
:10236000FF90EF90DF900895EF2841F482E090E035
:10237000F8019183808384EF9FEFEECF8981809372
:10238000D80390E00196F8019183808390E080E08B
:10239000E3CFCF93DF93EA010E94F71C882321F05B
:1023A0000E94C5200E94F81C82E090E099838883F7
:1023B0008BEF9FEFDF91CF910895CF93DF93EB01E8
:1023C00086E0FB0111928A95E9F78FEF8883D8DDCB
:1023D0008983E7DD8A83E8DD9D838C83DF91CF915C
:1023E0000895CF93DF93EA010E94FA1C811109C07E
:1023F00082E090E09983888385EF9FEFDF91CF9112
:10240000089590E080E0B7DD81E090E099838883D3
:1024100090E080E0F3CF0F931F93CF93DF93EA0117
:102420008C01060F171F0E94FA1C81110BC082E05D
:1024300090E09983888385EF9FEFDF91CF911F9183
:102440000F910895F8018181823038F082E090E0A8
:10245000998388838EEF9FEFF0CF81E090E08BDD52
:1024600088E090E09983888390E080E0E6CFCF9386
:10247000DF930097D1F4EB01FB01329686E0DF0198
:102480001D928A95E9F78FEF888385E089831A8208
:102490000E94B8208B830E94B7209D838C8381E0AB
:1024A0008E838F83DF91CF910895DF91CF911ACDE5
:1024B0008BE891E19093D7038093D60308958091A0
:1024C000D6039091D70308951092D7031092D603A4
:1024D00008958091D9039091DA030895411105C0C0
:1024E000611571058105910561F06093D9037093C1
:1024F000DA038093DB039093DC034093DD0381E0F8
:10250000089580E00895FF920F931F93CF93DF9378
:102510008A01EC01C60FD71FF9800E94B820F81677
:10252000190668F082E090E0F801918380838EEFD5
:102530009FEFDF91CF911F910F91FF9008956C81D4
:102540007D818E819F814B81C9DF811108C082E02E
:1025500090E0F8019183808384EF9FEFEACF898137
:102560008093D80390E00196F8019183808390E0F6
:1025700080E0DFCFCF93DF93EA01FC01E60FF71F86
:1025800064817581868197814381A8DF811109C0AB
:1025900082E090E09983888384EF9FEFDF91CF9171
:1025A000089581E090E09983888390E080E0F6CF01
:1025B000E9EDF3E04081518162817381480F511D43
:1025C000611D711D40835183628373830895CF938E
:1025D000C091D8034C2F50E06091D9037091DA0379
:1025E00001960E94C3318C2FE3DF1092D803CF9164
:1025F0000895009799F48091D9039091DA032FEF11
:10260000FB012083892B59F02091D80330E02F5F04
:102610003F4F2417350719F4CB01D9CF63CC089568
:10262000009799F48091D9039091DA032FEFFB0181
:102630002083892B59F02091D80330E02F5F3F4F42
:102640002417350719F4CB01C2CF4CCC089523E1F0
:10265000AC01249FC001259F900D1124E091E2035D
:10266000F091E303E80FF91F2381348122503109EF
:1026700081E02230310508F080E008950F931F9328
:10268000CF93DF930091E4031091E503D0E0C0E025
:1026900080E00C171D0749F491E0811190E0892F2B
:1026A000DF91CF911F910F9108958111F5CFCE0148
:1026B000CEDF2196EECFA091E203B091E303109715
:1026C00029F12091E4033091E50382179307F0F498
:1026D00053E1589F9001599F300D1124A20FB31F51
:1026E000ED91FC911197309789F012968C916817B3
:1026F00068F48DE0689FE00DF11D112480819181C7
:10270000892B21F081E09281491708F080E008953B
:102710009C0143E1429FC001439F900D1124E09131
:10272000E203F091E303E80FF91F8385823091F40F
:1027300081E090E06581768140915F025091600276
:102740006417750711F490E080E0892B19F081E09F
:10275000232B09F080E00895FC01A081B1818DE078
:10276000689FA00DB11D112413964D915C91858534
:102770009685489F9001499F300D589F300D112438
:10278000C9010196611103C0478144FD0496089573
:10279000EF92FF920F931F93CF93DF93EA01FC0117
:1027A000E60FF71F02811381E480F5804F2D6E2D17
:1027B000C80181DF81110DC082E090E09983888398
:1027C0008EEF9FEFDF91CF911F910F91FF90EF90D0
:1027D0000895C8013CDF882339F082E090E09983B6
:1027E000888388EF9FEFEECF109366020093650217
:1027F000E0926702F092680281E090E0998388831A
:1028000090E080E0DFCFCF92DF92EF92FF920F93C4
:102810001F93CF93DF937A01EC01C60FD71FC090AF
:102820006502D09066020091670210916802412F04
:10283000602FC60140DF811110C082E090E0F701F7
:10284000918380838AEF9FEFDF91CF911F910F914A
:10285000FF90EF90DF90CF900895C601F8DE8823B7
:1028600041F082E090E0F7019183808388EF9FEF51
:10287000EBCF4C815D816E817F819A8189818F3F11
:1028800041F082E090E0F701918380838EEF9FEF2B
:10289000DBCFE3E1EC9D9001ED9D300D1124E09143
:1028A000E203F091E303E20FF31F0190F081E02DCA
:1028B0002DE0029FE00DF11D11240190F081E02D2B
:1028C00027E0129FE00DF11D1124808391838B81FD
:1028D000828343835483658376831F5F10936802EA
:1028E00081E090E0F7019183808390E080E0ACCFBD
:1028F000EF92FF920F931F93CF93DF937A018C0196
:10290000060F171FC091E203D091E303209781F0D7
:1029100021E030E0F801828193814091E4035091FD
:10292000E5038417950710F030E020E0232B71F4C5
:1029300082E090E0F701918380838EEF9FEFDF913B
:10294000CF911F910F91FF90EF90089543E1489F21
:102950009001499F300D1124C20FD31F78DE8823C8
:1029600041F082E090E0F7019183808388EF9FEF50
:10297000E6CFF8012481358120383105C8F68781FA
:102980008111D6CF4181842F90E08F7E009741F056
:1029900082E090E0F7019183808386EF9FEFCFCFB5
:1029A0004F833E832D83268128871986223010F499
:1029B00021E0288721E030E0F70131832083BFCF79
:1029C00088E090E0FA019183808390E080E00895B0
:1029D000FB018FEF808381E181838FEF9FEF9383F2
:1029E000828380E890E0958384831682178208951D
:1029F000FB018FEF808391E09183828393838483B3
:102A000084E3858381E090E0978386830895DF9255
:102A1000EF92FF920F931F93CF93DF93EA01FC0194
:102A2000E60FF71F8181813071F082E090E0998399
:102A300088838FEF9FEFDF91CF911F910F91FF90D0
:102A4000EF90DF90089582819381D4802581E68084
:102A5000F7800091E2031091E3030115110539F4A9
:102A600082E090E0998388838CEF9FEFE4CF4091E0
:102A7000E4035091E5038417950738F082E090E075
:102A8000998388838EEF9FEFD6CF892B39F082E030
:102A900090E09983888386EF9FEFCDCF8D2D8D7F3A
:102AA000B1F72130A1F781E0D11006C091E0E9161D
:102AB000F10431F080E004C0E2E0EE16F104D0F35E
:102AC000882329F390E080E0C2DD882339F082E09A
:102AD00090E09983888388EF9FEFADCFF801D3868C
:102AE00081E08487F686E586108A178681E090E08B
:102AF0009983888390E080E09ECF4CE050E06DEABF
:102B000072E057CA8F929F92BF92CF92DF92EF925C
:102B1000FF920F931F93CF93DF93EA01FC01E60F1F
:102B2000F71F828193810481B580E091E203F091E7
:102B3000E303309791F482E090E0998388838CEFEF
:102B40009FEFDF91CF911F910F91FF90EF90DF905A
:102B5000CF90BF909F908F9008952091E403309183
:102B6000E5038217930738F082E090E09983888329
:102B70008EEF9FEFE6CF23E1289F6001299FD00CC5
:102B80001124EC0DFD1DE080F180E114F10499F2B7
:102B90008281081748F78DE0089F80011124E00E1C
:102BA000F11EF70180819181892B29F6BB20E1F28A
:102BB000F7E0BF9E40011124C4010E94BC21F7012F
:102BC00091838083E091E203F091E303EC0DFD1D1E
:102BD0000190F081E02DE00FF11F8081918100973D
:102BE00039F482E090E0998388838DEF9FEFA9CF3D
:102BF000A40170E060E00E94CC318091E2039091EA
:102C0000E303C80ED91EF60180819181080F191FB8
:102C1000F801B28281E090E09983888390E080E0BF
:102C200090CFAF92BF92CF92DF92FF920F931F93FC
:102C3000CF93DF93EA01FC01E60FF71F82819381B6
:102C4000F4800091E2031091E3030115110581F472
:102C500082E090E0998388838CEF9FEFDF91CF91A2
:102C60001F910F91FF90DF90CF90BF90AF9008958C
:102C70002091E4033091E5038217930738F082E056
:102C800090E0998388838EEF9FEFE8CF2FEF2F0D91
:102C90002C3FA8F723E1289F6001299FD00C112425
:102CA0000C0D1D1DF80180819181892B89F6FDE0B5
:102CB000FF9E50011124C5010E94BC21F80191839F
:102CC0008083E091E203F091E303EC0DFD1D808130
:102CD0009181009739F482E090E0998388838DEFA9
:102CE0009FEFBCCFA50170E060E00E94CC31E09185
:102CF000E203F091E303EC0DFD1DF28281E090E030
:102D00009983888390E080E0A9CFCF92DF92EF9201
:102D1000FF920F931F93CF93DF93860F971FFC01B2
:102D2000028113818091E2039091E303892B81F06A
:102D300082E090E0FA01918380838CEF9FEFDF9136
:102D4000CF911F910F91FF90EF90DF90CF9008955A
:102D5000C801B0E0A0E00197A109B1098F3F9F4FE2
:102D6000A105B10540F082E090E0FA0191838083F3
:102D70008EEF9FEFE4CF7A0183E1809F6001819F16
:102D8000D00C1124C6010E94BC21EC01009741F433
:102D900082E090E0F701918380838DEF9FEFCFCFAA
:102DA000A60170E060E00E94CC31D093E303C093B1
:102DB000E2031093E5030093E40390E080E02FEF3B
:102DC0003FEF41E061E070E08017910741F481E05E
:102DD00090E0F7019183808390E080E0B0CF3A8B60
:102DE000298B1B864C877E876D87188A1F860196E4
:102DF0006396EACFEF92FF921F93CF93DF93EC019C
:102E000010E0F12CE12C6A811617B0F083E0689F86
:102E1000B0011124AE014F5E5F4FC7010E94212215
:102E2000009721F02FEF3FEF3A8B298BDF91CF9165
:102E30001F91FF90EF900895612FCE018DDC61E02E
:102E400070E00E946920E816F90608F47C011F5F13
:102E5000DACFF8942091E0033091E10381E021156D
:102E6000310509F080E0232B09F0789408952F9222
:102E70003F924F925F926F927F928F929F92AF920A
:102E8000BF92CF92DF92EF92FF920F931F93CF9357
:102E9000DF933C01660E771EF301828193814C0122
:102EA000B12CA12CC091E203D091E303209769F0EB
:102EB00021E030E06091E4037091E5038617970705
:102EC00010F030E020E0232BD1F482E090E0FA0112
:102ED000918380838EEF9FEFDF91CF911F910F91B0
:102EE000FF90EF90DF90CF90BF90AF909F908F902A
:102EF0007F906F905F904F903F902F9008958092B9
:102F0000690290926A02A0926B02B0926C0263E135
:102F1000689F9001699F300D1124C20FD31FF301E8
:102F20008181833040F082E090E0FA0191838083D8
:102F300086EF9FEFD1CF2A012B813C81232BF1F427
:102F4000288139819F8191FF2EC0232B09F46FC006
:102F50002091E7039A81422F490F5527551FBA0147
:102F600041E050E06138710514F050E040E0452B3D
:102F700009F45DC02A87920F9093E7038150823055
:102F800008F481C066DF882309F4D8C0F301818189
:102F9000813009F48DC008F47BC0823009F4C6C0CA
:102FA00090E080E0ADC0232B09F441C02091E603FE
:102FB0009A81E22FE90FFF27FF1F41E050E0ED3F2C
:102FC000F10514F050E040E0452B89F12A87920F7B
:102FD0009093E603D3CFA081B181A20FB31F1196C6
:102FE0006C91060F111D0196295F3F4F84179507BD
:102FF00094F38D859E85089F1001099F300C189FC2
:10300000300C1124C114D104D1F48F8184FF17C076
:103010000E94B720F5E02F0E311C21E082159305A8
:1030200008F420E0A701435F5F4F21110EC082E04A
:1030300090E0F2019183808387EF9FEF4DCF0E9454
:10304000B7202FEF221A320AE8CF88819981E80E43
:10305000F91EF70114830383FFEFCF1ADF0A7A0109
:103060008A818C151D0409F00CF48CCFE881F9815C
:10307000EE0DFF1D428150E030E020E010E000E066
:1030800090E080E0B3CFF12CE12CD12CC12CE8CF23
:1030900081E090E09C838B83F1DA882309F480CF70
:1030A00081E090E00E94BB0F80E40E94C90F78CFBE
:1030B00089899A89019661F083E090E09C838B83F3
:1030C00082E090E00E94BB0F80E40E94C30F68CFB3
:1030D0008D819E8120915F0230916002821793075B
:1030E000D1F46091630270916402AE014F5E5F4F54
:1030F00080916102909162020E9440230097E1F268
:10310000789422E030E0F20131832083892B99F01A
:103110008DEF9FEFE1CE89288A288B2869F6892BCD
:1031200059F6CE0167DE188A1F86E8CF82E090E06C
:103130009C838B8335CF90E080E0CECE82E090E020
:10314000F2019183808385EF9FEFC6CE8F929F928D
:10315000AF92BF92CF92DF92EF92FF920F931F93A5
:10316000CF93DF93EA018C01060F171FF8018181CD
:10317000833098F082E090E09983888386EF9FEF18
:10318000DF91CF911F910F91FF90EF90DF90CF9043
:10319000BF90AF909F908F9008958091E20390919F
:1031A000E303892B61F081E090E02091E40330910A
:1031B000E503232B11F490E080E0892B39F482E0C1
:1031C00090E0998388838EEF9FEFDACF42DE8823E9
:1031D00009F4DFC0F8018181813009F495C0E8F07D
:1031E000823099F42091E4033091E503E091E20309
:1031F000F091E30390E080E041E050E028173907C8
:1032000009F0BDC03BDA811117C0789481E090E0ED
:103210009983888390E080E0B3CF2091E4033091DC
:10322000E503E091E203F091E30390E080E041E008
:1032300050E02817390741F481E090E00E94BB0F6D
:1032400080E40E94C90FE1CF63817481672B11F084
:103250005483438301967396ECCFE091E203F0919F
:10326000E303E00FF11F2381348122303105D9F4CB
:10327000218932892F3F3F4FB1F42581368140911A
:103280005F02509160022417350761F5AF014F5E70
:103290005F4F60916302709164028091610290912E
:1032A00062020E944023EFEFCE1ADE0AEE0AFE0A07
:1032B0000D5E1F4F4091E4035091E50370E060E024
:1032C000C416D506E606F7063CF5009731F2789469
:1032D000892B09F49BCF82E090E0998388838DEF5E
:1032E0009FEF4ECFC114D104E104F104E1F6232B8A
:1032F000D1F6CF017FDDE091E203F091E303E00F2F
:10330000F11F108A1786CFCF10E000E090E080E038
:10331000C12CD12C7601CECF0097C9F610E000E089
:10332000812C912C540183E0E82EF12C1AC0E091FD
:10333000E203F091E303E00FF11F83819481029790
:1033400049F4F482E38282E090E00E94BB0F80E4C3
:103350000E94C30FFFEF8F1A9F0AAF0ABF0A0D5ECC
:103360001F4F8091E4039091E503B0E0A0E0881640
:103370009906AA06BB06DCF290E080E0A8CF638144
:1033800074816230710511F45483438301967396FE
:1033900035CF82E090E09983888385EF9FEFF0CE70
:1033A0000097B9F48FEFFB0180832091690230917F
:1033B0006A0243E1429FC001439F900D1124E091B6
:1033C000E203F091E303E80FF91F8285FB0181839B
:1033D00008950C94720F88E090E0FA019183808345
:1033E00090E080E008951092E1031092E003E2EE95
:1033F000F3E086E0DF011D928A95E9F78DE795E11C
:103400009093DF038093DE0308958091DE03909113
:10341000DF0308952F923F924F925F926F927F92B7
:103420008F929F92AF92BF92CF92DF92EF92FF92D4
:103430000F931F93CF93DF93CDB7DEB72F970FB6C0
:10344000F894DEBF0FBECDBFF894E091E003F09199
:10345000E1033196F093E103E093E0037894409028
:10346000E2035090E3034114510409F40CC2E091CB
:10347000E403F091E503EF2B09F405C22D8749879A
:103480005A876B877C8798878F831201B12CA12C78
:1034900010E000E08091E4039091E503A816B906DE
:1034A00018F40115110529F1F8948091E003909129
:1034B000E10301979093E1038093E0037894C801BE
:1034C0002F960FB6F894DEBF0FBECDBFDF91CF9120
:1034D0001F910F91FF90EF90DF90CF90BF90AF9032
:1034E0009F908F907F906F905F904F903F902F9024
:1034F00008957101E418F508D10117968C9117977A
:1035000081FD54C013968D919C911497039709F0F7
:103510004DC015968D919C91EF81F8858E179F0770
:1035200009F044C0B50190E080E07FD48A83209107
:10353000E2033091E3033D832C833D85332309F47B
:103540004CC04C815D81452B09F49AC18091E40304
:103550009091E503A816B90608F092C1C501D8D824
:103560008823E9F06C817D816E0D7F1D7D836C83E6
:10357000DB011F968D919C91892B89F0D12CC12C58
:10358000F12CE12CAC81BD8112968C9112978E1595
:103590001F0409F094F450961C921E921F972A81E2
:1035A000222321F0B50190E080E041D43FEFA31A3F
:1035B000B30A43E1240E311C6DCFAC81BD81ED9186
:1035C000FC91EC0DFD1D858196810FD7BFEFEB1AA5
:1035D000FB0AEDE0CE0ED11CD5CFEC81FD813097FA
:1035E00009F44EC18091E4039091E503A816B90651
:1035F00008F046C1EE0DFF1DFF87EE87C50188D894
:103600008B83882339F1AE85BF851F968D919C9160
:103610005097019621E01D964D915C918417950776
:1036200009F020E02E831982712C10E000E0AE85B5
:10363000BF8512968C91781608F45DC0EE85FF85E3
:10364000878590890196658576850E946C31908B7F
:103650008787A5CFB1E0BE83E6CF992493946BC052
:103660008BD6F6019683858382C0D601ED90FC90BF
:10367000B7E06B9EE00CF11C1124F70163817481AB
:1036800080818F3F61F121E030E002C0220F331FC3
:103690008A95E2F7C901092E000CAA0BBB0BFB01AE
:1036A000408151816281738184239523A623B723AE
:1036B00021E0892B8A2B8B2B09F420E0D4012C9359
:1036C000D70111968C91F60123853485820F932FB3
:1036D000911D880E991E1486138663949BC04181A8
:1036E00050E0C4010E94C331EBCF998206EF1FEF77
:1036F000C5C01982C3C0F981F111A0CFEDE07E9E53
:1037000070011124AE85BF85CD90DC90CE0CDF1CFE
:1037100015D49D838C83BB81BB2309F49ECF81E0AC
:10372000EE85FF8527853089232B09F080E0982ED0
:10373000882309F458C0672D8E859F850DD8D60142
:1037400018969C938E93179761E070E0C2D4EE8533
:10375000FF85218932892F3F320709F481CFBC01CF
:10376000C901CFD7D60116969C938E931597D60193
:1037700015968D919C911697009709F4B6CFEC8120
:10378000FD818E0F9F1F1A969C938E931997AE857D
:10379000BF85ED91FC911197EE0EFF1EF70121857B
:1037A0003285148613861A968C91870DD9018D93D4
:1037B000711016C0EE85FF85878184FF11C0498591
:1037C0005A856B857C85F9014183528363837483B9
:1037D000F701838594850496A80FB91F1486138674
:1037E000F701B287A187D60115968D919C91169706
:1037F000892B09F443C0EE85FF85258136818091B0
:103800005F02909160022817390779F019968D9020
:103810009C90612CD60112968C911297681608F430
:1038200024CF1A969C928E921997BE81BB2309F4DD
:1038300060CF61E070E0F601878190854AD4D601BF
:103840001796ED90FC90189715964D915C91E1E0DC
:10385000F0E0BA81BB2311F0F0E0E0E00C811D81C3
:103860009C01B501882799278E1B9F0B6AD38C0179
:10387000892B21F0F60185819681B7D57394D7CE37
:103880000FEF1FEF8CCE10E000E00ECE2F923F9294
:103890004F925F926F927F928F929F92AF92BF9260
:1038A000CF92DF92EF92FF920F931F93CF93DF930C
:1038B0008091E2039091E30310E000E0892BA9F0EE
:1038C000C8DA0AEF1FEF882381F02090E4033090DC
:1038D000E503C091E203D091E303D12CC12C10E0A9
:1038E00000E02C143D04A9F47894C801DF91CF9135
:1038F0001F910F91FF90EF90DF90CF90BF90AF900E
:103900009F908F907F906F905F904F903F902F90FF
:103910000895C6010E948813882309F18B819C8138
:103920000397E9F48F859889892BC9F0B60190E057
:1039300080E07BD221E030E0882311F030E020E00D
:1039400044245524421A530AB12CA12C912C812CC9
:103950008A818815190409F038F4188A1F864FEFF8
:10396000C41AD40A6396BDCFE881F981EA0DFB1D24
:1039700085819681892BA1F161E070E08781908536
:10398000A8D33C01DBD28C01E881F981EA0DFB1D53
:103990008185928525813681200F311FAC01421B24
:1039A000530B9A0147815085421B530B70E060E036
:1039B0000E94CC31E881F981EA0DFB1DE780F0849B
:1039C000458156819301B601C201BBD28C01892B7E
:1039D00039F0E881F981EA0DFB1D8581968105D5D5
:1039E0005FEF851A950A8DE0A80EB11CB1CF31CAE0
:1039F000789408952F923F924F925F926F927F92A8
:103A00009F92AF92BF92CF92DF92EF92FF920F936D
:103A10001F93CF93DF9300D000D0CDB7DEB70091D6
:103A2000E2031091E303992493940115110509F41D
:103A30003EC0A090E403B090E5030BDA982E8823F3
:103A4000B1F11092E3031092E2031092E503109299
:103A5000E4031092E6031092E7038FEF9FEFDC017F
:103A60008093690290936A02A0936B02B0936C02F8
:103A700078947FD31E830D83C12CD12C7601C50190
:103A8000B0E0A0E089839A83AB83BC8322242A948C
:103A9000322C89819A81AB81BC81C816D906EA068D
:103AA000FB06F4F0C801A1D480E40E94C90F892D5F
:103AB00026960FB6F894DEBF0FBECDBFDF91CF9133
:103AC0001F910F91FF90EF90DF90CF90BF90AF903C
:103AD0009F907F906F905F904F903F902F900895B0
:103AE000AD81BE8115968D919C91169720915F02B4
:103AF0003091600282179307D1F451968D919C9179
:103B0000EED5ED81FE8180819181B12CA12C412CDB
:103B1000512C3201892B89F5BFEFCB1ADB0AEB0A56
:103B2000FB0AED81FE817396FE83ED83B2CFC11453
:103B3000D104E104F10429F7892B19F7ED81FE8105
:103B4000818992898F3F980709F029D5AD81BE817F
:103B500052963C922E925197D4CF8A0D9B1DDC0138
:103B60008D919C91009709F040D4BFEF4B1A5B0AEE
:103B70006B0A7B0AEDE0AE0EB11CAD81BE818D916A
:103B80009C91119712964C9150E070E060E04416C1
:103B90005506660677060CF328D4BECFCF93DF9385
:103BA000EA0128DF811109C082E090E099838883CF
:103BB00085EF9FEFDF91CF91089581E090E00E9423
:103BC000BB0F81E090E09983888390E080E0F2CFA2
:103BD00011DF1092DF031092DE03089542E050E0FF
:103BE00065EF72E00C94D90FFF920F931F93CF9360
:103BF000DF938A01EC01C60FD71FF980B9D208976D
:103C0000F816190671F068F082E090E0F8019183EF
:103C100080838EEF9FEFDF91CF911F910F91FF90E7
:103C200008956C817D818E819F814B810E946E12EF
:103C3000811108C082E090E0F8019183808384EFD5
:103C40009FEFE9CFF9800E9469124F2D50E0BE012D
:103C5000685F7F4F0E94C33189810E94D81281E042
:103C600090E0F8019183808390E080E0D4CFDF92F0
:103C7000EF92FF920F931F93CF93DF938A01EC0192
:103C8000C60FD71F0E9469127C01D98071D2DD2036
:103C900059F0029721E030E0D816190619F010F01B
:103CA00030E020E0232B79F482E090E0F80191836A
:103CB00080838EEF9FEFDF91CF911F910F91FF9047
:103CC000EF90DF900895EF2841F482E090E0F80152
:103CD0009183808384EF9FEFEECFF9800E94691279
:103CE0004F2D50E0BE016E5F7F4F0E94C33189812E
:103CF0000E94D81281E090E0F8019183808390E0E7
:103D000080E0D9CF8EEE9DE19093E9038093E803A4
:103D100008958091E8039091E90308950895FC01C6
:103D200011821082938382830895DB011D921C927D
:103D3000DC011296ED91FC911397718360831396C9
:103D40007C936E9312970895FC0180819181DB0131
:103D50008D939C93A081B181109741F08D919C919E
:103D600091838083892B11F4F383E2830895FC010E
:103D700080819181DB018D939C93892B11F4738356
:103D80006283718360830895FC01118210829383A2
:103D900082830895CF93DF931F921F92CDB7DEB732
:103DA0001A821982F894BE016F5F7F4F8FEE93E005
:103DB000CBDF89819A81009709F017D389819A8195
:103DC000892B89F7BE016F5F7F4F83EF93E0BCDFE4
:103DD00089819A81009709F008D389819A81892B7A
:103DE00089F778940F900F90DF91CF910895CF933A
:103DF000DF931F921F92CDB7DEB71A821982F89413
:103E0000BE016F5F7F4F8BEE93E09EDF89819A81C9
:103E1000009709F0EAD289819A81892B89F77894F1
:103E20000F900F90DF91CF91089581E0089590E079
:103E300080E00895EF92FF920F931F93CF93DF934B
:103E40001F921F92CDB7DEB71A8219828091EA03C2
:103E500007EF1FEF8823A1F1F894BE016F5F7F4F3A
:103E600083EF93E071DF789489819A81EE24E39463
:103E7000F12C892B51F4F894BE016F5F7F4F8FEEC8
:103E800093E062DF7894F12CE12C89819A810EEF26
:103E90001FEF0097A9F0FC014281538164E070E0BC
:103EA00074D68C01892B61F0F89469817A81C701FD
:103EB000880F991F880F991F81519C4F58DF789464
:103EC000C8010F900F90DF91CF911F910F91FF903C
:103ED000EF9008950F931F93CF93DF9300D01F921D
:103EE000CDB7DEB71C821B821A8219828091EA0349
:103EF00007EF1FEF8823C1F0AE014D5F5F4F64E015
:103F000070E0CE010196B4D68C01892B69F4E98169
:103F1000FA818B819C8193838283F89469817A8171
:103F20008BEE93E002DF7894C8010F900F900F9012
:103F30000F90DF91CF911F910F910895B9D70496FB
:103F400008958F929F92AF92BF92CF92DF92EF929D
:103F5000FF920F931F93CF93DF931F921F92CDB7C2
:103F6000DEB71A821982BC016F5F7F4F6330710523
:103F700098F0AA24AA94BA2CC5010F900F90DF9153
:103F8000CF911F910F91FF90EF90DF90CF90BF9056
:103F9000AF909F908F9008954115510551F34801BE
:103FA00059018A016C01CADF8815990511F7E114DE
:103FB000F104F9F28E0D9F1DA816B906D0F280917A
:103FC000EA038823F1F0F894B50164507109970170
:103FD000AE014F5F5F4FC8010496DFD65C01892BAD
:103FE00071F489819A81F80193838283C601880FD5
:103FF000991F880F991FB80181519C4F96DE7894C4
:10400000BBCF87EFA82EBB24BA94B6CFAF92BF9296
:10401000CF92DF92EF92FF920F931F93CF93DF9394
:104020001F921F92CDB7DEB71A821982892B09F031
:1040300047C06115710509F443C04115510509F4E4
:104040003FC02115310509F43BC001151105C1F12F
:104050008091EA038823B9F179016A015B01F89440
:10406000BE016F5F7F4F8BEE93E06EDE78948981A7
:104070009A81009759F1DC0112966D917C91A8010B
:104080000496A4D68C01E981FA81D501ED93FC93C5
:10409000828193810496F601918380834FDFD7015B
:1040A0008D939C93C8010F900F90DF91CF911F913A
:1040B0000F91FF90EF90DF90CF90BF90AF90089559
:1040C0000FEF1FEFEFCF07EF1FEFECCF0EEF1FEF5C
:1040D000E9CFCF93DF93EC01672B71F4F2D68C1705
:1040E0009D0760F0E5D62496C80FD91FE4D68C0F43
:1040F0009D1FDF91CF910895E1D6F1CF90E080E050
:10410000F8CF0F931F93CF93DF932091EA032111F0
:104110002BC08B01EC018FEE93E001DE83EF93E087
:10412000FEDD8BEE93E0FBDD97D00097C1F4C9D69E
:1041300070E060E0CEDF4DE652E062E070E081D1F9
:10414000009769F480916D0290916E02CCD6B8010F
:10415000CE0101D5009719F421E02093EA03DF9105
:10416000CF911F910F91089584EF9FEFF8CFA6C6CE
:10417000A8C6CF93DF93A8D6EC01892B11F40ADEF1
:1041800036DECE01DF91CF910895CF93DF939CD699
:10419000EC01892B09F4FEDDCE01DF91CF9108956A
:1041A00080916D0290916E020895CF93DF9380917C
:1041B000EA03D0E0C0E08823D1F09AD6EC01892B45
:1041C000B1F4E8DD14DE80916D0290916E02E7D1CA
:1041D000E8D2EC01892B59F48FEE93E0D5DD83EF23
:1041E00093E0D2DD8BEE93E0CFDD1092EA03CE01B7
:1041F000DF91CF910895EF92FF920F931F93CF938A
:10420000DF93EC017A018B010F5F1F4F0E9DA00120
:104210000F9D500D1E9D500D112470E060E00E9416
:10422000CC3190E080E0F0E0E0E02FEFE816F90616
:1042300039F4DF91CF911F910F91FF90EF90089586
:104240001A8219822883309711F0D283C183019694
:10425000FE01C00FD11FEACFCF92DF92EF92FF9203
:104260000F931F93CF93DF9304E115E00C7F43E09E
:1042700050E06FE672E085E792E01AD48FE6E82E10
:1042800082E0F82E95E7C92E92E0D92EC3E8D5E05A
:10429000D7014D915D917D01F601619171916F01A1
:1042A000198308835D834C835B834A837F836E839A
:1042B0009B012F5F3F4F249FC001259F900D349F8E
:1042C000900D1124998788870115110511F0C801F7
:1042D00092DF88859985080F191F2A96F5E7EF1652
:1042E000F2E0FF06A9F6E9EFF3E088E191E0DF01F3
:1042F0009C011D9221503040E1F71092F80310927A
:10430000F7031092A2051092A1051092A605109233
:10431000A5051092A4051092A3051092A80510926D
:10432000A7051092AA051092A9051092AC0510924B
:10433000AB051092B0051092AF051092AE05109229
:10434000AD051092B2051092B1051092B40510920D
:10435000B3051092800510927F051092820510928D
:10436000810590E080E0DF91CF911F910F91FF9048
:10437000EF90DF90CF9008950097F1F0F894A5E7C3
:10438000B2E0E3E8F5E030E020E04D915D914817C0
:104390005907A8F0428153814115510581F08AE007
:1043A000829FF001839FF00D1124ED57FA4F808119
:1043B0009181009759F4789490E080E008952F5F00
:1043C0003F4F3A962330310501F7F5CFDC011196C6
:1043D0006D917C9171836083415051095383428375
:1043E000FC012193CF0178940895009749F1DC01F5
:1043F0008E91853041F4E0918105F09182053097EE
:10440000F9F0CD0119948530D8F4282F30E0F894D4
:104410008FEF8C938AE0829FF001839FF00D11242F
:10442000ED57FA4F8081918112969C938E9311974C
:10443000B183A08382819381019693838283789450
:104440000895CF92DF92EF92FF920F931F93CF9335
:10445000DF939C018CEF93E08C7F4115510509F4AB
:104460009BC02115310509F497C06115710509F448
:1044700093C07A01AB01B9016D5F7F4F6C7F9B01E7
:104480002F5F3F4F249F8001259F100D349F100DFB
:104490001124F8942091A1053091A205232B59F401
:1044A0002091A9053091AA052115310569F1201740
:1044B000310708F058C02091AB053091AC05232B93
:1044C00091F42091A9053091AA05820F931F2091A4
:1044D000B3053091B4052115310509F441C0201709
:1044E000310708F056C07894CFEFDFEF86EF9FEFEB
:1044F000F701D183C083DF91CF911F910F91FF907E
:10450000EF90DF90CF900895C3E0D0E0C090F70324
:10451000D090F80325E131E02C193D09201731072F
:1045200010F32AE02C9FF0012D9FF00D1124ED5780
:10453000FA4F9183808355834483538342837783E7
:10454000668311870087009709F055DE0C0D1D1D4D
:104550001093F8030093F703789490E080E0C8CFBD
:10456000C4E0D0E0D3CFC3E0D0E02AE02C9FF0013C
:104570002D9FF00D1124ED57FA4F918380835583C1
:1045800044835383428377836683009729F333DE22
:10459000E3CFC4E0D0E0E9CF8FEF9FEFACCF9C0139
:1045A0000397029708F069C0F89484E09AE0482FD6
:1045B00050E0241735070CF44DC091E08AE0829F4B
:1045C000F001839FF00D1124ED57FA4F11821082F4
:1045D0001582148213821282178216829923B1F1F6
:1045E0008091A1059091A205892BA9F42091A9059C
:1045F0003091AA052115310571F08091F703909152
:10460000F803821B930B9093F8038093F7031092A7
:10461000AA051092A9058091AB059091AC05892B54
:10462000A9F42091B3053091B4052115310571F03D
:104630008091F7039091F803821B930B9093F803FA
:104640008093F7031092B4051092B305789490E02C
:1046500080E00895949FF001959FF00D1124ED578F
:10466000FA4F40815181452B31F440855185452BCE
:1046700011F481509CCF90E0A1CF8FEF9FEF089570
:104680004115510549F1009739F16115710521F185
:10469000F89420917F0530918005232BB9F4209167
:1046A000810530918205232B89F4909380058093B6
:1046B0007F057093820560938105789425E030E052
:1046C00090E080E0FA0131832083089578942FEF01
:1046D0003FEF86EF9FEFF6CF8FEF9FEF089505979F
:1046E00069F4F8941092800510927F05109282056B
:1046F00010928105789490E080E008958FEF9FEF0D
:1047000008956115710519F4F0E0E0E011C08530FD
:10471000910581F4E0917F05F09180053097A1F338
:10472000CB0101961995009779F3FC0185E08193FF
:10473000CF0108959C01235031092230310520F723
:104740002AE0289FD001299FB00D1124AD57BA4F00
:104750002D913C911197232BB9F216962D913C91F6
:1047600017972617370780F2F89412962D913C91EF
:1047700013972115310529F0ED91FC911197309790
:1047800011F47894C1CF4181528111965C934E937C
:104790002150310913963C932E931297819378946C
:1047A000C7CFE1E1F5E08EE6DF011D928A95E9F7DA
:1047B000E9EFF3E088E191E0DF019C011D922150D7
:1047C0003040E1F71092F8031092F703E3E8F5E0C8
:1047D00082E3DF011D928A95E9F7EFE7F5E084E0D7
:1047E000DF011D928A95E9F790E080E00895CF936C
:1047F000DF93C0917B02D0917C02CF3FDC0759F45C
:1048000020D490937C0280937B0297FF09C0D093C1
:104810007C02C0937B0284EF9FEFDF91CF910895DC
:1048200090E080E0FACF8230910528F48093B505BE
:1048300090E080E008958FEF9FEF08954F925F9290
:104840006F927F92AF92BF92CF92DF92EF92FF92E0
:104850000F931F93CF93DF931F921F92CDB7DEB7B5
:104860001A821982009709F478C06115710509F45C
:1048700074C020917B0230917C0207EF1FEF2F3F25
:104880003F4F09F444C06B015C01412C512C3201B3
:10489000F12CE12C10E000E09E012F5F3F4FA601BC
:1048A0004E195F09B5016E0D7F1D80917B029091BD
:1048B0007C0226D4892B09F04AC089819A8100970D
:1048C00041F4E114F10429F42091B505222309F4FF
:1048D00041C0E80EF91EEC14FD04C8F480E8481647
:1048E00084E858068EE16806710418F560E070E00F
:1048F000CB010CD72AE0420E511C611C711C0A3FEF
:104900004FEF140721F0043F8FEF1807A1F4C801FF
:104910000F900F90DF91CF911F910F91FF90EF902B
:10492000DF90CF90BF90AF907F906F905F904F904F
:10493000089501EF1FEF81E090E0013F2FEF120794
:1049400011F090E080E0892B09F4A6CFE0CF04EFCE
:104950001FEFDDCF0AEF1FEFDACF0FEF1FEFD7CF3B
:104960004F925F926F927F92AF92BF92CF92DF92FF
:10497000EF92FF920F931F93CF93DF931F921F929B
:10498000CDB7DEB71A821982009709F478C0611595
:10499000710509F474C020917B0230917C0207EF0D
:1049A0001FEF2F3F3F4F09F444C06B015C01412CC6
:1049B000512C3201F12CE12C10E000E09E012F5F20
:1049C0003F4FA6014E195F09B5016E0D7F1D809105
:1049D0007B0290917C024AD3892B09F04AC08981DD
:1049E0009A81009741F4E114F10429F42091B5056E
:1049F000222309F441C0E80EF91EEC14FD04C8F4AA
:104A000080E4481682E458068FE06806710418F5C1
:104A100060E070E0CB017AD62AE0420E511C611CA6
:104A2000711C0E3F4FEF140721F0043F8FEF180762
:104A3000A1F4C8010F900F90DF91CF911F910F91BA
:104A4000FF90EF90DF90CF90BF90AF907F906F90EE
:104A50005F904F90089502EF1FEF81E090E0023FDA
:104A60002FEF120711F090E080E0892B09F4A6CF18
:104A7000E0CF04EF1FEFDDCF0EEF1FEFDACF0FEF28
:104A80001FEFD7CF80917B0290917C028F3F9807D8
:104A900049F0CFD2892B49F48FEF9FEF90937C029E
:104AA00080937B0290E080E0089584EF9FEF08956B
:104AB000CF92DF92EF92FF920F931F93CF93DF93EA
:104AC00021E04115510509F020E041505109211123
:104AD0002CC0DC01FB01D12CC12C21E022C03FEF16
:104AE000C31AD30A7D010D911D91E701EA80FB8075
:104AF000E016F106A8F420813181E280F380F18292
:104B0000E08233832283ED90FC9011979D01225027
:104B10003109E901F982E88211961C930E9320E095
:104B20003296C416D506D8F2D2CFDF91CF911F911D
:104B30000F91FF90EF90DF90CF900895FC01680FE8
:104B4000791F90E080E0E617F70709F408952191B6
:104B5000820F911DF8CF2091B605211113C047DEB9
:104B6000009791F41092BC051092BB051092BA0503
:104B70001092B9051092B8051092B70521E0209364
:104B8000B605089584EF9FEF0895AF92BF92CF923C
:104B9000DF92EF92FF920F931F93CF93DF930097D3
:104BA00009F460C04630510508F45CC02091B60598
:104BB000C7EFDFEF222309F449C08C01060F171F4E
:104BC000F801C080D180C114D10409F44EC096010F
:104BD0002A5F3F4F4217530708F447C07C0180917A
:104BE000BB059091BC0593838283B6016C5F7F4FB8
:104BF0005801A60EB71EC801A1DFF501918380837D
:104C000064E070E0C8011ADEEC01892BF9F481E060
:104C100090E009DEB601C801049610DEEC01892B94
:104C200091F462E070E0C50109DEEC01892B59F4D2
:104C3000C701DBDB8091BB059091BC050196909389
:104C4000BC058093BB0590E080E0EDDDCE01DF91F7
:104C5000CF911F910F91FF90EF90DF90CF90BF9079
:104C6000AF900895CFEFDFEFF1CFC9EFDFEFEECFD9
:104C70006F927F928F929F92AF92BF92CF92DF926C
:104C8000EF92FF920F931F93CF93DF9300D01F9269
:104C9000CDB7DEB7009709F47AC04115510509F484
:104CA00076C02091B60507EF1FEF222309F44DC00F
:104CB0003A017B015C0164E070E0CE01019650DEB8
:104CC0008C01892B09F041C009811A810115110558
:104CD00009F45AC0480186E0880E911CB701680D9E
:104CE000791D80917D0290917E020BDD6C01009711
:104CF00009F450C0A70170E060E00E94CC318981C6
:104D00009A81AB81BC81EC0CFD1CF70181939193DE
:104D1000A193B1937F0181E090E085DDB801C701E7
:104D20001FDE892B31F562E070E0C701800F911F13
:104D300017DE8C01892BE9F490E080E074DDF50149
:104D4000D182C082F30191828082C8010F900F90BE
:104D50000F900F90DF91CF911F910F91FF90EF90E7
:104D6000DF90CF90BF90AF909F908F907F906F908B
:104D7000089590E080E057DDF50111821082F30183
:104D800011821082C60131DB09EF1FEFDECF0FEF7A
:104D90001FEFDBCF06EF1FEFD8CF0097A1F0411533
:104DA000510589F02115310571F0F90136966E171C
:104DB0007F0748F0DC012D933C93DA01ED93FC93DF
:104DC00090E080E008958FEF9FEF0895AF92BF923B
:104DD000CF92DF92EF92FF920F931F93CF93DF93C7
:104DE000009709F45FC04115510509F45BC06530B7
:104DF000710508F457C02091B605C7EFDFEF2223F5
:104E000091F1DC01CD90DC9011971296ED91FC911F
:104E100096012A5F3F4FC9EFDFEF2617370719F5D5
:104E2000C091B705D091B805209749F521E030E051
:104E30003093B8052093B7057A018C01F093BA0539
:104E4000E093B9055601B4E0AB0EB11CB50176DEB6
:104E50000A0D1B1DF801208131818217930729F566
:104E6000D701CD92DC92CE01DF91CF911F910F91AE
:104E7000FF90EF90DF90CF90BF90AF90089520917A
:104E8000B9053091BA052F5F3F4FCCEFDFEFE21746
:104E9000F30790F2CBEFDFEF2E173F0768F2D0E079
:104EA000C0E0CACFCFEFDFEFDECFC3EFDFEFDBCF66
:104EB00084E090E0089582E090E008958CEF9FEF09
:104EC000089580E290E008951092BC051092BB0511
:104ED0001092BA051092B9051092B8051092B70554
:104EE00090E080E0089590937E0280937D02089583
:104EF0008091B605882391F0C5DD009789F4109262
:104F0000BC051092BB051092BA051092B90510921B
:104F1000B8051092B7051092B605089590E080E0AC
:104F20000895009749F06115710531F0FC01118277
:104F30001082FB01118210820895F3CF26E030E049
:104F400040E855E260E070E090E080E000C0813031
:104F5000910569F01CF4892B39F008958230910590
:104F600049F0039751F008958AEC95E0F7C687E67B
:104F700096E0FCCF84E097E0F9CF81EA97E0F6CFA6
:104F80001F920F920FB60F9211240BB60F922F9310
:104F90003F934F935F936F937F938F939F93AF93C1
:104FA000BF93EF93FF938FE89DEF9093250180933C
:104FB0002401BAD0FF91EF91BF91AF919F918F9152
:104FC0007F916F915F914F913F912F910F900BBE09
:104FD0000F900FBE0F901F9018958FE89DEF909344
:104FE000250180932401A3E7B0E08C918E7F8C9300
:104FF000E0E2F1E080818C7F8083E1E2F1E080817A
:10500000877E808380818460808380818C7F8083A1
:105010008C9181608C930895E3E7F0E0808190812A
:105020009E7F90838170089581E008951092BD0560
:10503000089568EE73E080E090E068D390E080E04F
:10504000089526E030E040E050E16EE070E090E04E
:1050500080E07DDF8AEC95E0B7D5892B21F08AECE2
:1050600095E0CCD5F7CF90E080E00895CF92DF9225
:10507000EF92FF920F931F93CF93DF936B017A010F
:10508000E901198218828AEC95E09ED5892B69F195
:105090008601CC24C39482E0D82E8091BD05811175
:1050A00010C08AEC95E0AAD50297B9F7C092BD0569
:1050B000F801D1928F018881998101969983888323
:1050C000ECCF888199818E159F0578F48AEC95E064
:1050D00095D58F3F9807A9F3F80181938F018881B7
:1050E0009981019699838883ECCF90E080E0DF91ED
:1050F000CF911F910F91FF90EF90DF90CF90089587
:105100000F931F93CF93DF93EA0189018AEC95E017
:105110000E943E31F801D183C08390E080E0DF91AE
:10512000CF911F910F910895CF92DF92EF92FF924E
:10513000CF93DF938091BE0591E0980F9093BE05C9
:10514000882379F021E030E03093C0052093BF053B
:105150008093BE05DF91CF91FF90EF90DF90CF90CD
:1051600008957894C0918102D09182026E8D7F8DD6
:1051700088A199A143D120E030E040E85FE4F4D178
:105180006B017C016A8D7B8D8C8D9D8D37D19B0150
:10519000AC01C701B60199D005D16B017C010E9419
:1051A0005205B701A60190E080E00E94C404F89483
:1051B0008091BE058150CCCF0F931F93CF93DF9387
:1051C0001092830810928208D7D2B8DEC091810273
:1051D000D0918202198218826FEF7FEFCB010E947B
:1051E000470570E060E090E080E00E94C80300970F
:1051F00009F03AC00E940908F8947894BE016A5DEB
:105200007F4F8A819B810E94CB03892B59F46FEFDA
:105210007FEFCB010E945A040E944105882311F0C0
:1052200081E08AA7F894D9DE0E944405882311F012
:1052300080E008C00E9441058111FACF81E09AA563
:105240009111F6CF8093820878940E94B60F8C015A
:1052500078948091820881110CC00E94D6080E9427
:105260002605F89490E080E0DF91CF911F910F9197
:1052700008950E9424050E9444058823D9F081E006
:10528000809383089091830881E0911180E080935E
:105290008208809183088111BFDE0130110529F455
:1052A0000E94B60F892B09F4C1DE0E94B60F8C0153
:1052B000BBDECFCF0E9441058111E1CF81E09AA5ED
:1052C0009111DECF80E0DCCF5058BB27AA270ED04B
:1052D0000DC1FED030F003D120F031F49F3F11F426
:1052E0001EF4F3C00EF4E095E7FBE9C0E92F0FD1FF
:1052F00080F3BA17620773078407950718F071F4F3
:105300009EF527C10EF4E0950B2EBA2FA02D0B01B0
:10531000B90190010C01CA01A0011124FF27591BFA
:1053200099F0593F50F4503E68F11A16F040A22F00
:10533000232F342F4427585FF3CF46953795279571
:10534000A795F0405395C9F77EF41F16BA0B620B70
:10535000730B840BBAF09150A1F0FF0FBB1F661FB7
:10536000771F881FC2F70EC0BA0F621F731F841FFA
:1053700048F4879577956795B795F7959E3F08F020
:10538000B3CF9395880F08F09927EE0F97958795DF
:10539000089571D008F481E0089504D06894B111A3
:1053A000D9C00895BCD088F09F5790F0B92F9927A5
:1053B000B751A0F0D1F0660F771F881F991F1AF020
:1053C000BA95C9F712C0B13081F0C3D0B1E00895E9
:1053D000C0C0672F782F8827B85F39F0B93FCCF36A
:1053E000869577956795B395D9F73EF49095809516
:1053F000709561957F4F8F4F9F4F0895E89409C036
:1054000097FB3EF490958095709561957F4F8F4FF7
:105410009F4F9923A9F0F92F96E9BB279395F6950D
:10542000879577956795B795F111F8CFFAF4BB0F8B
:1054300011F460FF1BC06F5F7F4F8F4F9F4F16C0EF
:10544000882311F096E911C0772321F09EE8872F79
:10545000762F05C0662371F096E8862F70E060E035
:105460002AF09A95660F771F881FDAF7880F9695AE
:10547000879597F90895990F0008550FAA0BE0E852
:10548000FEEF16161706E807F907C0F01216130606
:10549000E407F50798F0621B730B840B950B39F446
:1054A0000A2661F0232B242B252B21F408950A26AC
:1054B00009F4A140A6958FEF811D811D089597F9EC
:1054C0009F6780E870E060E008959FEF80EC0895AA
:1054D00000240A94161617061806090608950024D3
:1054E0000A9412161306140605060895092E03944D
:1054F000000C11F4882352F0BB0F40F4BF2B11F4C1
:1055000060FF04C06F5F7F4F8F4F9F4F089557FD1F
:105510009058440F551F59F05F3F71F04795880F21
:1055200097FB991F61F09F3F79F0879508951216B8
:1055300013061406551FF2CF4695F1DF08C0161664
:1055400017061806991FF1CF869571056105089415
:105550000895E894BB2766277727CB0197F908952C
:105560008ADF08F48FEF08950BD0C0CFB1DF28F0A9
:10557000B6DF18F0952309F0A2CFA7CF1124EACF08
:10558000C6DFA0F3959FD1F3950F50E0551F629FA2
:10559000F001729FBB27F00DB11D639FAA27F00D8C
:1055A000B11DAA1F649F6627B00DA11D661F829FB3
:1055B0002227B00DA11D621F739FB00DA11D621F98
:1055C000839FA00D611D221F749F3327A00D611DB5
:1055D000231F849F600D211D822F762F6A2F112497
:1055E0009F5750408AF0E1F088234AF0EE0FFF1FEA
:1055F000BB1F661F771F881F91505040A9F79E3F21
:10560000510570F05CCFA6CF5F3FECF3983EDCF322
:10561000869577956795B795F795E7959F5FC1F75D
:10562000FE2B880F911D9695879597F908951F92E7
:105630000F920FB60F9211242F933F938F939F9346
:10564000AF93BF938091C2059091C305A091C4050B
:10565000B091C5053091C10523E0230F2D3758F5D2
:105660000196A11DB11D2093C1058093C2059093A1
:10567000C305A093C405B093C5058091C60590915C
:10568000C705A091C805B091C9050196A11DB11D1E
:105690008093C6059093C705A093C805B093C9052C
:1056A000BF91AF919F918F913F912F910F900FBE1E
:1056B0000F901F90189526E8230F0296A11DB11D8B
:1056C000D2CF3FB7F8948091C6059091C705A091BD
:1056D000C805B091C90526B5A89B05C02F3F19F094
:1056E0000196A11DB11D3FBFBA2FA92F982F882762
:1056F000BC01CD01620F711D811D911D42E0660F3D
:10570000771F881F991F4A95D1F708958F929F920E
:10571000AF92BF92CF92DF92EF92FF926B017C012A
:10572000D0DF4B015C01C114D104E104F104D9F0D4
:10573000D2D5C7DF681979098A099B09683E734089
:105740008105910580F321E0C21AD108E108F10832
:1057500088EE880E83E0981EA11CB11CC114D104F0
:10576000E104F10431F7FF90EF90DF90CF90BF900C
:10577000AF909F908F900895789484B5826084BD97
:1057800084B5816084BD85B5826085BD85B5816045
:1057900085BDEEE6F0E0808181608083E1E8F0E0A5
:1057A0001082808182608083808181608083E0E8D4
:1057B000F0E0808181608083E1EBF0E080818460B3
:1057C0008083E0EBF0E0808181608083E1E9F0E0BC
:1057D000808182608083808181608083E0E9F0E065
:1057E000808181608083E1EAF0E080818260808353
:1057F000808181608083E0EAF0E080818160808345
:10580000E1E2F1E080818260808380818160808339
:10581000E0E2F1E0808181608083EAE7F0E080816E
:1058200084608083808182608083808181608083C6
:105830008081806880831092C1000895863308F0CB
:10584000865320917B00982F9870277F922B9093FE
:105850007B0020917F0290E4299F900111248770A2
:10586000822B80937C0080917A00806480937A0000
:1058700080917A0086FDFCCF80917800909179002C
:1058800008951F93CF93DF93182FEB0161E033D17D
:10589000209731F460E0812FDF91CF911F9167C194
:1058A000CF3FD10511F461E0F6CFE12FF0E0EC51EC
:1058B000FF4FE491E150E23108F0B2C0F0E08827F8
:1058C000EC59F34D8F4F3EC5762C7E2C832C8D2CBE
:1058D000972C102DA12CA92CB12CBB2CC52CCF2C76
:1058E000DE2CE82C102DF22CFC2C062D84B58068C3
:1058F00084BDC7BDDF91CF911F91089584B58062AB
:1059000084BDC8BDF7CF80918000806880938000FF
:10591000D0938900C0938800EDCF80918000806291
:1059200080938000D0938B00C0938A00E3CF809156
:105930008000886080938000D0938D00C0938C009D
:10594000D9CF8091B00080688093B000C093B3003D
:10595000D1CF8091B00080628093B000C093B4003A
:10596000C9CF80919000806880939000D093990077
:10597000C0939800BFCF8091900080628093900088
:10598000D0939B00C0939A00B5CF8091900088601F
:1059900080939000D0939D00C0939C00ABCF8091EA
:1059A000A00080688093A0008091A0008F7B8093EE
:1059B000A000D093A900C093A8009CCF8091A00024
:1059C00080628093A000D093AB00C093AA0092CFD6
:1059D0008091A00088608093A000D093AD00C09318
:1059E000AC0088CF80912001806880932001D09303
:1059F0002901C09328017ECF80912001806280938D
:105A00002001D0932B01C0932A0174CF80912001F3
:105A1000886080932001D0932D01C0932C016ACF20
:105A2000C038D1050CF03FCF35CF8150823108F01E
:105A300059C0E82FF0E08827E05EF24D8F4F82C416
:105A4000402D442D322D382D3C2D722D472D4D2DBE
:105A5000512D572D5B2D5F2D652D692D722D6D2DCF
:105A6000732D772D809180008F778093800008952B
:105A7000809180008F7DF9CF80918000877FF5CF66
:105A800084B58F7784BD089584B58F7DFBCF8091D9
:105A9000B0008F778093B00008958091B0008F7D23
:105AA000F9CF809190008F77809390000895809136
:105AB00090008F7DF9CF80919000877FF5CF809106
:105AC000A0008F778093A00008958091A0008F7D23
:105AD000F9CF8091A000877FF5CF809120018F774B
