:10000000F8C0000027C1000025C1000023C1000086
:1000100021C100001FC100001DC100001BC1000064
:1000200019C1000017C1000015C1000013C1000074
:1000300011C100000FC100000DC100000BC1000084
:1000400009C1000007C1000005C1000003C1000094
:1000500001C10000FFC00000FDC000000C94492B4E
:10006000F9C000000C94402F0C94762FF3C00000D0
:10007000F1C00000EFC00000EDC00000EBC00000C8
:10008000E9C00000E7C00000E5C00000E3C00000D8
:100090000C94CC2F0C940230DDC00000DBC00000BB
:1000A000D9C00000D7C00000D5C00000D3C00000F8
:1000B000D1C00000CFC00000CDC00000CBC0000008
:1000C000C9C00000C7C000000C94F2270C9458303F
:1000D0000C948E30BFC000000C94E4300C941A31A4
:1000E000B9C0000000000A0B02090C0D0E0807033E
:1000F00004010000000000000000000000000000FB
:1001000000000000000000000000000000000000EF
:1001100012111000000000000000000000000000AC
:100120000000000000000000000001021020200874
:100130000810204010204080020102010804020142
:1001400001020408102040808040201008040201B1
:10015000800402018040201008040201080402010A
:100160000102040810204080010204081020408091
:1001700005050505070508080808020202020A0A23
:100180000808040404040101010101010101030341
:10019000030303030303040707070C0C0C0C0C0CEC
:1001A0000C0C0202020206060606060606060B0BE9
:1001B0000B0B0B0B0B0B00002200250028002B0063
:1001C0002E003100340002010000050108010B017E
:1001D00000002100240027002A002D0030003300F9
:1001E00001010000040107010A019F2F2B30B730E5
:1001F000433111241FBECFEFD1E2DEBFCDBF00E0FF
:100200000CBF13E0A0E0B2E0EEE0F4E600E00BBFCC
:1002100002C007900D92AC32B107D9F728E0ACE2EA
:10022000B3E001C01D92A23EB207E1F710E0C9EFB2
:10023000D0E000E006C021970109802FFE010E9456
:10024000D431C53FD10780E00807A9F70E940E29E5
:100250000C940532D5CECF92DF92EF92FF92CF93DE
:10026000882351F16A017B01CFEFC80F20E030E015
:10027000A901CB01B6010E94FB2918168CF0C70119
:10028000B60190580E94042A9B01AC016C2F70E0CB
:1002900090E080E0CF91FF90EF90DF90CF90B2C0E0
:1002A000C701B6010E94FF298C2FCF91FF90EF90DC
:1002B000DF90CF900C94732CCF91FF90EF90DF9054
:1002C000CF9008950F931F938B019C0183E0369587
:1002D0002795179507958A95D1F7045D1C4F462FF2
:1002E000477021E030E0F90102C0EE0FFF1F4A9590
:1002F000E2F7AF01F80120812423CB0101962111FF
:1003000002C090E080E01F910F9108950F931F931A
:100310008B019C0183E036952795179507958A9563
:10032000D1F7677081E090E001C0880F6A95EAF725
:10033000F801E45DFC4F2081452B31F48095822348
:1003400080831F910F910895822BFACF2F923F92B5
:100350004F925F926F927F928F929F92AF92BF92D5
:10036000CF92DF92EF92FF920F931F93CF93DF9381
:10037000D62EC72E782E692E49015A01280161E038
:100380008D2D0E94AD2DCD2DDC2D8E010F5F1F4FC9
:10039000A8016D2D7C2D872D962DB8DF20E030E053
:1003A000A901C201B7010E94E22A181664F4C20131
:1003B000B7010E94042A2B01C501B4010E94042A3E
:1003C000A201CE0123D0C801DF91CF911F910F91DF
:1003D000FF90EF90DF90CF90BF90AF909F908F9065
:1003E0007F906F905F904F903F902F90089588235B
:1003F00041F08150682F70E090E080E050E040E0F4
:1004000085CF0895862FB9010C94732C9C01FC01B3
:10041000EC51FF4FE491E150E231E0F4F0E0882745
:10042000EB5EFD4F8F4F0C94D43127022E02310228
:1004300048025D022A0272027E0282029902AE0224
:10044000C302DA02EF022A0204031B03300384B55D
:10045000806884BD60E0822F0C94E92D84B58062B1
:10046000F8CF809180008C7F8260809380008091A3
:100470008100807E8061682B6093810050938700AB
:100480004093860080918000806880938000E2CF56
:10049000809180008C7F82608093800080918100B9
:1004A000807E8061682B6093810050938700409329
:1004B0008600809180008062E8CF809180008C7FF0
:1004C00082608093800080918100807E8061682BB3
:1004D0006093810050938700409386008091800054
:1004E0008860D3CF8091B00080688093B000809105
:1004F000B100887F682B6093B100ACCF8091B000D1
:100500008062F3CF809190008C7F82608093900016
:1005100080919100807E8061682B60939100509360
:10052000970040939600809190008068809390009F
:1005300091CF809190008C7F826080939000809119
:100540009100807E8061682B6093910050939700AA
:1005500040939600809190008062E8CF8091900057
:100560008C7F82608093900080919100807E80617A
:10057000682B609391005093970040939600809170
:1005800090008860D3CF8091A0008C7F82608093A0
:10059000A0008091A100807E8061682B6093A10003
:1005A0005093A7004093A6008091A000806880939C
:1005B000A00050CF8091A0008C7F82608093A0002B
:1005C0008091A100807E8061682B6093A100509390
:1005D000A7004093A6008091A0008062E8CF8091A0
:1005E000A0008C7F82608093A0008091A100807E1B
:1005F0008061682B6093A1005093A7004093A600F0
:100600008091A0008860D3CF809120018C7F826090
:100610008093200180912101807E8061682B60930E
:100620002101509327014093260180912001806889
:10063000809320010FCF809120018C7F8260809376
:10064000200180912101807E8061682B60932101CF
:100650005093270140932601809120018062E8CFCA
:10066000809120018C7F8260809320018091210104
:10067000807E8061682B6093210150932701409315
:100680002601809120018860D3CFCF93DF93882308
:1006900049F0EB0181500E94502C99838883DF91AF
:1006A000CF910895FB0111821082F9CF0F931F9310
:1006B0008B019C0183E036952795179507958A95C0
:1006C000D1F70B5C1C4F462F477021E030E0F90159
:1006D00002C0EE0FFF1F4A95E2F7AF01F80120813B
:1006E0002423CB010196211102C090E080E01F91EC
:1006F0000F9108950F931F938B019C0183E0369512
:100700002795179507958A95D1F7677081E090E056
:1007100001C0880F6A95EAF7F801EB5CFC4F208175
:10072000452B31F48095822380831F910F9108958A
:10073000822BFACFCF92DF92EF92FF92CF93DF938B
:100740006B017C0160E086E3C816D104E104F1048A
:1007500090F486E38C0D0E94AD2DE6012196AE014A
:10076000C701B601C7DFCE01DF91CF91FF90EF90B7
:10077000DF90CF9008958C2DEECF882341F08150EB
:10078000682F70E090E080E050E040E0B3CF089543
:1007900090E080E008950F931F93009709F487C0BD
:1007A0006115710509F483C000916E0210916F020A
:1007B00020917002309171020E3F1F4F2F4F3F4F1B
:1007C00009F066C04FEF5FEFBA0140936E0250939D
:1007D0006F02609370027093710240916E025091AB
:1007E0006F026091700270917102DC011296ED91BE
:1007F000FC9180819181A281B3818093AC0390931D
:10080000AD03A093AE03B093AF0384819581A6811D
:10081000B7818093A8039093A903A093AA03B093F0
:10082000AB0380859185A285B3858093A4039093C3
:10083000A503A093A603B093A70384859585A685F9
:10084000B7858093A0039093A103A093A203B093D4
:10085000A30310929C0310929D0310929E0310928A
:100860009F03A9D780E09CE090933F0380933E03D1
:1008700090934103809340038DD6009731F421E09B
:1008800030E03093B1032093B0031F910F9108958E
:1008900000916E0210916F022091700230917102EE
:1008A000DB010D931D932D933C93139796CF8FEF00
:1008B0009FEFEBCF8F929F92AF92BF92CF92DF923A
:1008C000EF92FF921F93CF93DF934B015C01109146
:1008D000B30382E090E09093B1038093B00381145E
:1008E0009104A104B10441F48091B303811104C0C7
:1008F0008091B203C1E08111C0E0C12CD12C7601FE
:100900008091B303811106C08091B203811102C0AE
:10091000CC23D9F083E090E09093B1038093B003AF
:10092000CC2379F1CCE9DFEF111102C00E94640FF2
:10093000CE01DF91CF911F91FF90EF90DF90CF908C
:10094000BF90AF909F908F9008956AE070E080E034
:1009500090E00E94B82B80E1C80E87E2D81EE11C0F
:10096000F11C8FEF88169806A806B80631F0C1E092
:100970008C149D04AE04BF0408F0C0E080E03ED6B5
:10098000BFCFD0E0C0E0D0CFCF92DF92EF92FF9206
:100990000F931F93CF93DF938F3F910511F008F0D2
:1009A00050C02091B0033091B1032330310539F0AC
:1009B0002091B0033091B1032130310531F424E0AE
:1009C00030E03093B1032093B0036A017B01EC0166
:1009D00082309105A0F011E0AE01C701B601D9D572
:1009E000AB01BC01CE011123F9F0DF91CF911F9132
:1009F0000F91FF90EF90DF90CF900C948D118C01B0
:100A0000000F111F025C1C4FD8018D919C91892B06
:100A100011F30E9497110297F1F6D801ED91FC9124
:100A2000CE011995182FD8CF0E94AF1190E080E029
:100A3000DF91CF911F910F91FF90EF90DF90CF90BA
:100A400008958FEF9FEFF4CF80E0D8C5CF93DF9369
:100A500086E090E09093B1038093B00328D6EC0138
:100A6000EEE3F3E084E0DF011D928A95E9F70E944E
:100A7000FC0E1092B1031092B003CE01DF91CF9122
:100A800008958091B203089580919B030895609327
:100A90006E0270936F02809370029093710290E0E7
:100AA00080E008954F925F926F927F928F929F9213
:100AB000AF92BF92CF92DF92EF92FF92CF93DF93EC
:100AC00000D000D000D01F92CDB7DEB78090AA082A
:100AD0009090AB08A090AC08B090AD08C090AE0864
:100AE000D090AF08E090B008F090B10820913802A3
:100AF0003091390240913A0250913B02C501B40154
:100B00000E94E62A2B013C012091400230914102D3
:100B10004091420250914302C701B6010E94E62A69
:100B20009B01AC01C301B2010E9497296093B408F4
:100B30007093B5088093B6089093B70820913C0253
:100B400030913D0240913E0250913F02C501B401F7
:100B50000E94E62A4B015C0120914402309145023B
:100B60004091460250914702C701B6010E94E62A11
:100B70009B01AC01C501B4010E9497296093B8089C
:100B80007093B9088093BA089093BB08C090240270
:100B9000D0902502E0902602F0902702A70196014E
:100BA00060919E0870919F088091A0089091A10883
:100BB0000E94FB29882341F0C0929E08D0929F0892
:100BC000E092A008F092A10866E370E080E090E077
:100BD0006DDD90939D0880939C0843E050E0BE013A
:100BE0006F5F7F4F52DD20916C0230916D02A981C1
:100BF000BA810E94DC310E94302A20E030E040E0DF
:100C000057E30E94E62A20915C0230915D024091F8
:100C10005E0250915F020E949629209160023091FD
:100C2000610240916202509163020E94E62A609341
:100C3000BC087093BD088093BE089093BF082091B4
:100C400020023091210240912202509123020E9401
:100C50009629209118023091190240911A02509160
:100C60001B020E94E62A2091B8083091B9084091F1
:100C7000BA085091BB080E9497296B017C0187D369
:100C8000882309F4DAC12091D4083091D508409125
:100C9000D6085091D70860911C0270911D02809176
:100CA0001E0290911F0290580E94E62A2091640231
:100CB0003091650240916602509167020E94972927
:100CC0004B015C018092C0089092C108A092C208BA
:100CD000B092C3082091B4083091B5084091B6088D
:100CE0005091B70860911002709111028091120228
:100CF000909113020E94E62A6B017C012091B808B2
:100D00003091B9084091BA085091BB086091140223
:100D10007091150280911602909117020E94E62AA6
:100D20009B01AC01C701B6010E9497299B01AC0150
:100D30006091BC087091BD088091BE089091BF0879
:100D40000E9496296B017C01A501940160916802C3
:100D50007091690280916A0290916B020E94E62A6A
:100D60006093C4087093C5088093C6089093C70821
:100D700069E070E080E090E0A5DA5C019093A9085A
:100D80008093A8084090C4085090C5086090C60899
:100D90007090C70820E030E04FE753E4C301B20190
:100DA0000E94FB2918160CF467C120E030E0A9016D
:100DB000C301B2010E94E22A87FF03C0412C512CDB
:100DC0003201B301A201C50146DA8090AA089090D1
:100DD000AB08A090AC08B090AD088091AE0890919F
:100DE000AF08A091B008B091B1088B839C83AD830C
:100DF000BE83209104023091050240910602509179
:100E00000702C501B4010E94E62A2B013C01209192
:100E10000C0230910D0240910E0250910F026B8135
:100E20007C818D819E810E94E62A9B01AC01C301D9
:100E3000B2010E9497296F83788789879A874090AB
:100E4000C0085090C1086090C2087090C3082091FB
:100E50000002309101024091020250910302C5014B
:100E6000B4010E94E62A4B015C01209108023091F6
:100E7000090240910A0250910B026B817C818D81A5
:100E80009E810E94E62A9B01AC01C501B4010E942B
:100E900097294B015C012091280230912902409151
:100EA0002A0250912B02C301B2010E94E62A9B0143
:100EB000AC01C501B4010E9497294B015C0120914E
:100EC0003002309131024091320250913302C70119
:100ED000B6010E94E62A9B01AC01C501B4010E9443
:100EE00097296093AA087093AB088093AC089093FD
:100EF000AD0820912C0230912D0240912E0250918C
:100F00002F02C301B2010E94E62A2F81388549854C
:100F10005A850E9497294B015C012091340230913F
:100F200035024091360250913702C701B6010E9446
:100F3000E62A9B01AC01C501B4010E949729609388
:100F4000AE087093AF088093B0089093B108C0903A
:100F50006E03D0906F03E0907003F09071039FEFE9
:100F6000C91AD90AE90AF90AC0926E03D0926F032E
:100F7000E0927003F0927103C114D104E104F10412
:100F800099F48091720390917303A0917403B091CE
:100F900075030196A11DB11D809372039093730395
:100FA000A0937403B09375038090760390907703B9
:100FB000A0907803B09079036091720370917303ED
:100FC00080917403909175030E94302AA5019401C9
:100FD0000E94E62A20E030E040E85FE40E94E62A32
:100FE0002B013C01C701B6010E94302AA5019401E2
:100FF0000E94E62A9B01AC01C301B2010E9497291D
:1010000060936A0370936B0380936C0390936D03FA
:101010002A960FB6F894DEBF0FBECDBFDF91CF91F9
:10102000FF90EF90DF90CF90BF90AF909F908F9008
:101030007F906F905F904F90089520E030E0A9017D
:10104000C701B6010E94FB2920E030E040E85FEBD9
:1010500087FD21CE20E030E0A901C701B6010E9442
:10106000E22A20E030E0A90118160CF014CE20E0AE
:1010700030E040E85FE30FCE412C512C8FE7682E23
:1010800083E4782E9ECE8F929F92AF92BF92DF9292
:10109000EF92FF920F931F93CF93DF9384E090E042
:1010A00025D1E4E5F3E08BE2DF011D928A95E9F7B3
:1010B00080E090E0A0E8BFEB86A397A3A0A7B1A72C
:1010C0008AE097EDA3E2BCE382A393A3A4A3B5A314
:1010D0008AE790E3ACEDBBE384839583A683B78373
:1010E00084EA9BEDA0EFB7E380879187A287B3875F
:1010F00086E399EEA5E5BFE784879587A687B7873E
:101100008AE790E1A4EDB7E5808B918BA28BB38B3E
:10111000A8E4B3E0B383A283E2E4F3E01196FC9386
:10112000EE9388E992E09183808393838283958311
:10113000848388E693E015969C938E93149788E5B4
:1011400093E013969C938E9312978AE693E01796FA
:101150009C938E931697E4EBF8E084E1DF011D92F7
:101160008A95E9F7C6E9D8E08EE1FE0111928A95E9
:10117000E9F7DD24D394DC8E80912402909125023E
:10118000A0912602B091270288879987AA87BB87FA
:10119000812C912C5401839489829A82AB82BC82E7
:1011A00066E370E080E090E0C5DA9F838E83DD82A5
:1011B0001C86DD8E8D869E86AF86B88AE12CF12C4A
:1011C0008701A801970169E070E080E090E0BED857
:1011D0009B8B8A8BD98A8091580290915902A09159
:1011E0005A02B0915B028C8B9D8BAE8BBF8B888F2C
:1011F000998FAA8FBB8FDF91CF911F910F91FF9095
:10120000EF90DF90BF90AF909F908F900895809166
:10121000960881111DC081E08093960880919708FF
:1012200090919808A0919908B0919A080197A1050A
:10123000B10571F480919B08882351F066E370E05A
:1012400080E090E033DA90939D0880939C0895DAD3
:101250008091A20881112BC081E08093A208809127
:10126000A3089091A408A091A508B091A6080197A1
:10127000A105B105E1F48091A7088823C1F069E0D8
:1012800070E080E090E01ED89093A9088093A808B1
:1012900040E050E0BA010E942B0169E070E080E07C
:1012A00090E010D89093A9088093A808A0C808954A
:1012B00060E070E080E89FE7089560E070E080E81B
:1012C0009FE7089560E070E080E89FEF089560E098
:1012D00070E080E89FEF089560E070E080EC9FEFA1
:1012E000089560E070E080EC9FEF0895F5DF609373
:1012F000D4087093D5088093D6089093D708F1DF6F
:101300006093C8087093C9088093CA089093CB086B
:10131000CFDF6093D0087093D1088093D208909368
:10132000D308CBDF6093CC087093CD088093CE08B0
:101330009093CF08C7DF6093D8087093D908809343
:10134000DA089093DB08C3DF6093DC087093DD0854
:101350008093DE089093DF0808950F931F938B010D
:101360009C010027112720783F770115110520489F
:101370003F4749F4AB01BC016F77772781E0452BEC
:10138000462B472B09F480E01F910F910895E5CF7C
:101390004F925F926F927F928F929F92AF92BF9285
:1013A000CF92DF92EF92FF920F931F93F8944090A9
:1013B0008B0350908C0360908D0370908E03C090CF
:1013C0007F03D0908003E0908103F0908203452B4F
:1013D00009F0A4C09B01AC0124193509460957093D
:1013E00029013A0100918703109188032091890314
:1013F00030918A0348015901840C951CA61CB71C26
:1014000080169106A206B306A0F400918303109102
:10141000840320918503309186030F5F1F4F2F4F68
:101420003F4F0093830310938403209385033093ED
:1014300086038092870390928803A0928903B092DA
:101440008A030091830310918403209185033091D6
:10145000860380928F0390929003A0929103B092A2
:101460009203009393031093940320939503309376
:10147000960360938B0370938C0380938D039093FA
:101480008E03A0E1B7E2A30192010E94EB316C0D43
:101490007D1D8E1D9F1D60937F037093800380933D
:1014A00081039093820300916E0210916F0220914C
:1014B0007002309171020F3F1F4F2F4F3F4FF1F0DD
:1014C00000916E0210916F022091700230917102B2
:1014D0000E3F1F4F2F4F3F4F89F0C0906E02D090AC
:1014E0006F02E0907002F090710221E08C149D0474
:1014F000AE04BF0408F420E020939B0378941F916E
:101500000F91FF90EF90DF90CF90BF90AF909F90A2
:101510008F907F906F905F904F9008954B015C018A
:1015200084189508A608B708A3019201261B370B5B
:10153000480B590B6415750586059705D0F0821682
:101540009306A406B50640F420E030E0A90181141A
:101550009104A104B10491F4A0E1B7E20E94EB313F
:10156000A7019601261B370B480B590BCA01B9017D
:10157000C5CF82169306A406B50670F7A0E1B7E2C0
:10158000A50194010E94EB316C0D7D1D8E1D9F1DE8
:10159000B5CFFECECF93DF9300D01F92CDB7DEB78D
:1015A0001C821B821A821982109297031092980350
:1015B0001092990310929A03BE016F5F7F4FCE0184
:1015C00003960E94C32769817A818B819C810E9446
:1015D000B320009761F4BE016F5F7F4FCE01039689
:1015E0000E94CF2769817A818B819C812ED50F90B3
:1015F0000F900F900F90DF91CF910895FF920F936E
:101600001F93CF93DF93082F60E070E0CB010E941F
:10161000B82BFF24F3940E949C1FEC01892B89F0C6
:1016200010E0CE3F8FEFD80769F0002361F160E052
:1016300070E0CB010E94B82B81E090E0892B59F338
:1016400022C011E025D5EC01892B21F0CE3F8FEF90
:10165000D80759F711111EC011E0229609F410E0C5
:101660000E944C1FEC01892B21F0CE3F8FEFD80751
:10167000E1F6111111C011E0CE3F8FEFD80709F448
:1016800010E001110BC0CE01DF91CF911F910F919E
:10169000FF90089511E0E4CF11E0F3CF60E070E037
:1016A000CB010E94B82B1F25812F90E0C7CFCF938D
:1016B000DF9380919B03882321F060E070E0CB01F1
:1016C0004CD635D6D0E0C0E0892B71F06AE070E0EE
:1016D00080E090E00E94B82B81E090DF28D6219630
:1016E000C03D27E0D20781F727D60E94072110923C
:1016F000B3031092B2031092AC031092AD03109298
:10170000AE031092AF031092A8031092A903109297
:10171000AA031092AB031092A4031092A503109297
:10172000A6031092A7031092A0031092A103109297
:10173000A2031092A30310929C0310929D03109297
:101740009E0310929F034EEF5FEF6FEF7FEF40938A
:101750006E0250936F026093700270937102109248
:101760009B03EFE8F3E028E0DF011D922A95E9F7FB
:1017700010928B0310928C0310928D0310928E03A3
:1017800010928703109288031092890310928A03A3
:1017900010928303109284031092850310928603A3
:1017A00010927F03109280031092810310928203A3
:1017B000DF91CF9108951092BF031092C003109251
:1017C000C1031092C2031092BE038091C70390918F
:1017D000C8039093BD038093BC031092BB03109287
:1017E000BA031092B6031092B7031092B803109286
:1017F000B9031092C4031092C30390E080E00895EF
:10180000CF92DF92EF92FF920F931F93CF938C01B1
:10181000892B09F055C02091C7033091C8038091EE
:10182000BC039091BD034091C7035091C8035093EE
:10183000BD034093BC032817390781F01092BB0306
:101840001092BA031092B6031092B7031092B80325
:101850001092B9031092C4031092C3038091C7037E
:101860009091C803019761F58091C3039091C403DF
:10187000892B21F480917202811112C08091C303DF
:101880009091C4030197E1F48091B6039091B7035E
:10189000A091B803B091B9030197A105B10581F4F6
:1018A0001092B6031092B7031092B8031092B903C6
:1018B0001092720282E090E09093C4038093C3037D
:1018C0008091C7039091C803019709F01CC18091D2
:1018D000DD039091DE038017910709F014C1809118
:1018E000D9039091DA03A091DB03B091DC03009758
:1018F00009F409C12091D80321110DC04091D903E9
:101900005091DA036091DB037091DC03452B462B89
:10191000472B09F4F8C02091C3033091C40322304F
:10192000310509F0F0C02091BA032111ECC0FC018F
:10193000C080D180E280F3808091BE03882309F4C7
:10194000D3C08091CA039091CB03892B09F4FDC0C9
:101950002091CA033091CB0381E02230310509F098
:1019600080E02091CA033091CB03C1E021303105E2
:1019700049F02091CA033091CB03C1E022303105F8
:1019800009F0C0E0882309F456C02091D4033091B7
:10199000D5034091D6035091D703C701B6010E94E9
:1019A000E22A87FD14C02091D4033091D5034091E1
:1019B000D6035091D7036091BF037091C00380910B
:1019C000C1039091C2030E94FB2987FD22C0209190
:1019D000D4033091D5034091D6035091D703C7016A
:1019E000B6010E94E22A181634F52091D4033091F2
:1019F000D5034091D6035091D7036091BF037091F6
:101A0000C0038091C1039091C2030E94FB29811100
:101A100012C08091CC039091CD03A091CE03B091E0
:101A2000CF03892B8A2B8B2B19F481E08093BB0386
:101A300081E08093BA03CC2309F456C02091D403EB
:101A40003091D5034091D6035091D703C701B60119
:101A50000E94FB2987FF14C02091D4033091D50345
:101A60004091D6035091D7036091BF037091C0039A
:101A70008091C1039091C2030E94E22A87FF22C095
:101A80002091D4033091D5034091D6035091D703D0
:101A9000C701B6010E94FB29811126C02091D40301
:101AA0003091D5034091D6035091D7036091BF0385
:101AB0007091C0038091C1039091C2030E94E22AF9
:101AC000181694F48091CC039091CD03A091CE038D
:101AD000B091CF03892B8A2B8B2B19F481E0809353
:101AE000BB0381E08093BA0381E09091BA03911126
:101AF00080E08093BE03C092BF03D092C003E09207
:101B0000C103F092C203012B09F067C18091C303A6
:101B10009091C403892BD9F41092C9031092BA038F
:101B200080917202882379F082E090E09093C40360
:101B30008093C303109272022091C7033091C803AF
:101B400081E0232BE9F080E01BC081E00ACF1092F6
:101B500072028091C903882349F01092BB0310924E
:101B6000C4031092C3031092C903EDCF8091C70341
:101B70009091C803892BE1F08091BA031092BA03C7
:101B80002091C3033091C4032230310509F45EC0B3
:101B900088F42115310509F448C02130310509F4D4
:101BA000F3C01092BB031092BA031092C90338C05D
:101BB00081E0E6CF2330310509F4B1C0243031058E
:101BC00081F74091B6035091B7036091B8037091CB
:101BD000B903411551056105710561F04150510985
:101BE000610971094093B6035093B7036093B8033A
:101BF0007093B9034091B6035091B7036091B80355
:101C00007091B903452B462B472BD9F42091C5037E
:101C10003091C6032130310509F046C01092BB0354
:101C20001092C4031092C3030CC0809172028823E7
:101C300041F082E090E09093C4038093C30310923C
:101C400072021092B4038091BB03CEC08823C9F303
:101C50008091CC039091CD03A091CE03B091CF039E
:101C6000181619061A061B060CF07DC08091C703D2
:101C70009091C803019709F076C08091CC039091B0
:101C8000CD03A091CE03B091CF038093B603909380
:101C9000B703A093B803B093B90383E090E09093A7
:101CA000C4038093C303CDCF4091D0035091D1039F
:101CB0006091D2037091D303452B462B472BA9F09B
:101CC0001092BB038091D0039091D103A091D203D5
:101CD000B091D3038093B6039093B703A093B80356
:101CE000B093B90381E090E0DACF882399F0809136
:101CF000730290917402A0917502B0917602809364
:101D0000B6039093B703A093B803B093B90384E0EC
:101D100090E0C5CF1092BB0382E090E0C0CF8091ED
:101D2000B6039091B703A091B803B091B90300979F
:101D3000A105B10559F00197A109B1098093B60336
:101D40009093B703A093B803B093B9038091B603FF
:101D50009091B703A091B803B091B903892B8A2B56
:101D60008B2B09F06ECF8091730290917402A09139
:101D70007502B0917602892B8A2B8B2B09F44ECFFA
:101D800081E08093BB03B3CF4091B6035091B7037A
:101D90006091B8037091B903411551056105710552
:101DA00061F041505109610971094093B6035093A4
:101DB000B7036093B8037093B9034091B603509191
:101DC000B7036091B8037091B903452B462B472B9D
:101DD00009F037CF8111C7CF9FCF8091B4038823FB
:101DE00009F431CF8091B503CF911F910F91FF90EE
:101DF000EF90DF90CF9008951092BF031092C00330
:101E00001092C1031092C2031092BE031092C40339
:101E10001092C3031092BD031092BC031092DE0314
:101E20001092DD031092BB031092BA031092B60316
:101E30001092B7031092B8031092B9031092B50331
:101E40001092B4031092D9031092DA031092DB03BC
:101E50001092DC031092D8031092D4031092D50391
:101E60001092D6031092D70388EE93E0A0E0B0E082
:101E70008093730290937402A0937502B0937602DC
:101E80001092D0031092D1031092D2031092D30378
:101E90001092CC031092CD031092CE031092CF0378
:101EA0001092CB031092CA0381E0809372021092C9
:101EB000C9031092C8031092C7031092C603109270
:101EC000C50390E080E008958091C7039091C80316
:101ED000892B19F580917202882351F08091C903F2
:101EE000811106C081E08093B5038093B403089507
:101EF0002091C9033091720281E090E0332311F008
:101F000090E080E030E082239323892B21F010922F
:101F1000B50381E0EACF1092B403089582E090E027
:101F2000FA01918380838FEF9FEF0895CF93DF9322
:101F3000EA01009711F00E9427221982188290E08E
:101F400080E0DF91CF910895DB01009719F48FEFC6
:101F50008C9308952EEF2C93FC013F96EF30F10502
:101F600008F034C08827E854F04F8F4F0C94D431D8
:101F7000E40FE20FE00FDE0FDC0FD80FDA0FD60F01
:101F8000D40FD20FCF0FCB0FC70FCD0FE60F80E3CB
:101F900011968C93089589E2FBCF82E2F9CF1196D6
:101FA0001C92089583E2F4CF81E2F2CF81E1F0CF79
:101FB00087E2EECF8AE2ECCF80E1EACF84E2E8CF9D
:101FC00088E2E6CF86E2E4CF81E3E2CF80E2E0CFB1
:101FD0008091EB039091EC0308959093EC03809330
:101FE000EB0308958091EA0308959091EA03892B09
:101FF0008093EA030895982F90958091EA038923AE
:102000008093EA0308958091E90308958091E7039E
:102010009091E80308956115710559F0FB0130E0D6
:1020200020E070E060E02417350719F061157105B4
:1020300011F0CB010895A081B181A817B90709F467
:10204000BF012F5F3F4F3696EECF8091ED03811198
:102050001CC060D266D29093E0038093DF030E949D
:10206000251A0E94371A9093E4038093E3030E9499
:10207000B41E0E94BB1E9093E2038093E10381E0B3
:102080008093ED0390E080E0089584EF9FEF089542
:102090008F929F92AF92BF92CF92DF92EF92FF9278
:1020A0000F931F93CF93DF9300D000D000D01F92E7
:1020B000CDB7DEB71A86198618861F821E821D824A
:1020C0001C821B821A8219828091ED0307EF1FEF99
:1020D000882309F49CC08E010D5F1F4F9E012B5F6A
:1020E0003F4FAE01495F5F4FBE01675F7F4F90E09A
:1020F00080E00E9438208C01009721F0059602971D
:1021000008F0DBC029853A852115310509F402C1A3
:10211000ED80FE804B815C81B701640F751F8F815C
:1021200098858617970708F4F5C0E20EF31ED701CD
:102130009C91903C09F07FC04230510508F47BC06F
:1021400011968C914091EB035091EC03452B09F4CF
:102150009CC0913F08F071C02CE1290F2D3008F48C
:102160008BC02DE2290F203108F489C0903C21F466
:102170008150823008F483C088E3890F8B3008F4E3
:1021800081C094EAC92E9FE0D92EEEE8FFE06D8170
:102190007E81AE014F5F5F4F89859A8519955C01FD
:1021A000C114D104A1F189809A808114910479F13C
:1021B0008B819C818815990508F487C010E000E0A8
:1021C0004B815C8170E060E0C7010E94FE31011527
:1021D0001105E9F449815A8169857A858D819E814D
:1021E000680F791FC501F6011995E980FA800D8104
:1021F0001E812F81388549855A856FEF7FEF81E0F9
:1022000090E00E94D31F8C01892B09F056C0C801B1
:102210002A960FB6F894DEBF0FBECDBFDF91CF91E7
:102220001F910F91FF90EF90DF90CF90BF90AF90F4
:102230009F908F90089580E085CF30E020E0220FBE
:10224000331FF901E152FC4F0190F081E02D3097EE
:1022500009F497CF892F90E01995009709F491CF51
:10226000DC011296ED91FC9113971496CD90DC90C1
:10227000309709F08CCF1FC021E030E0E0CF22E0A2
:1022800030E0DDCF23E030E0DACFD12CC12CE6E91D
:10229000FFE09F3F09F07BCFE091DF03F091E00387
:1022A000309721F4C90104EF1FEF0CC08FEF90E0CD
:1022B00019950097A9F604EF1FEF89859A85009775
:1022C00009F4A5CF0E942722A2CF0E9402218C01EF
:1022D00089859A850E94272270E060E0C4010E94EF
:1022E0009B2098878F830E94D01F9E838D836F8150
:1022F00078856115710559F0C8010E94B3239A874A
:10230000898706EF1FEF892B09F058CF59CF08EFC7
:102310001FEF56CF08EF1FEFD0CF2091ED03222300
:1023200019F020E00C943C1A87EF9FEF08958091FC
:10233000EB039091EC0308950E94C01E0E941A1EA8
:10234000F5D0EFEDF3E088E0DF011D928A95E9F723
:102350001092ED0390E080E008950C94781C21E049
:1023600040E050E0BA010C943C1A86E090E0FA019B
:102370009183808390E080E0089547E050E06BE92E
:1023800072E049CEDF92EF92FF920F931F93CF93AB
:10239000DF938A01EC01C60FD71FE090F103F090A4
:1023A000F203D9800E94EA20D816190678F082E05C
:1023B00090E0F801918380838EEF9FEFDF91CF91C2
:1023C0001F910F91FF90EF90DF900895EF2841F457
:1023D00082E090E0F8019183808384EF9FEFEECF5D
:1023E00089818093F00390E00196F80191838083C6
:1023F00090E080E0E3CFCF93DF93EA010E94291DB4
:10240000882321F00E94F7200E942A1D82E090E09C
:10241000998388838BEF9FEFDF91CF910895CF93BE
:10242000DF93EB0186E0FB0111928A95E9F78FEFCC
:102430008883D8DD8983E7DD8A83E8DD9D838C830B
:10244000DF91CF910895CF93DF93EA010E942C1D75
:10245000811109C082E090E09983888385EF9FEF26
:10246000DF91CF91089590E080E0B7DD81E090E0CA
:102470009983888390E080E0F3CF0F931F93CF93ED
:10248000DF93EA018C01060F171F0E942C1D81119A
:102490000BC082E090E09983888385EF9FEFDF9106
:1024A000CF911F910F910895F8018181823038F00A
:1024B00082E090E0998388838EEF9FEFF0CF81E0F8
:1024C00090E08BDD88E090E09983888390E080E065
:1024D000E6CFCF93DF930097D1F4EB01FB01329667
:1024E00086E0DF011D928A95E9F78FEF888385E00A
:1024F00089831A820E94EA208B830E94E9209D83AF
:102500008C8381E08E838F83DF91CF910895DF915B
:10251000CF911ACD8DEB91E19093EF038093EE0371
:1025200008958091EE039091EF0308951092EF03C8
:102530001092EE0308958091F1039091F2030895B3
:10254000411105C0611571058105910561F0609328
:10255000F1037093F2038093F3039093F403409399
:10256000F50381E0089580E00895FF920F931F9393
:10257000CF93DF938A01EC01C60FD71FF9800E9429
:10258000EA20F816190668F082E090E0F8019183DD
:1025900080838EEF9FEFDF91CF911F910F91FF907E
:1025A00008956C817D818E819F814B81C9DF81116E
:1025B00008C082E090E0F8019183808384EF9FEF70
:1025C000EACF89818093F00390E00196F80191832E
:1025D000808390E080E0DFCFCF93DF93EA01FC01BE
:1025E000E60FF71F64817581868197814381A8DF9B
:1025F000811109C082E090E09983888384EF9FEF86
:10260000DF91CF91089581E090E09983888390E0F5
:1026100080E0F6CFE1EFF3E0408151816281738188
:10262000480F511D611D711D408351836283738367
:102630000895CF93C091F0034C2F50E06091F103C7
:102640007091F20301960E94F5318C2FE3DF109216
:10265000F003CF910895009799F48091F103909140
:10266000F2032FEFFB012083892B59F02091F00317
:1026700030E02F5F3F4F2417350719F4CB01D9CF36
:1026800063CC0895009799F48091F1039091F2033F
:102690002FEFFB012083892B59F02091F00330E0CC
:1026A0002F5F3F4F2417350719F4CB01C2CF4CCC15
:1026B000089523E1AC01249FC001259F900D1124B2
:1026C000E091FA03F091FB03E80FF91F23813481B5
:1026D0002250310981E02230310508F080E0089570
:1026E0000F931F93CF93DF930091FC031091FD0391
:1026F000D0E0C0E080E00C171D0749F491E08111A3
:1027000090E0892FDF91CF911F910F910895811152
:10271000F5CFCE01CEDF2196EECFA091FA03B09196
:10272000FB03109729F12091FC033091FD038217E0
:102730009307F0F453E1589F9001599F300D1124F5
:10274000A20FB31FED91FC911197309789F012966B
:102750008C91681768F48DE0689FE00DF11D1124DD
:1027600080819181892B21F081E09281491708F0C5
:1027700080E008959C0143E1429FC001439F900D7A
:102780001124E091FA03F091FB03E80FF91F838510
:10279000823091F481E090E065817681409177020A
:1027A000509178026417750711F490E080E0892B4E
:1027B00019F081E0232B09F080E00895FC01A0814D
:1027C000B1818DE0689FA00DB11D112413964D912C
:1027D0005C9185859685489F9001499F300D589F53
:1027E000300D1124C9010196611103C0478144FDD8
:1027F00004960895EF92FF920F931F93CF93DF9368
:10280000EA01FC01E60FF71F02811381E480F580E5
:102810004F2D6E2DC80181DF81110DC082E090E047
:10282000998388838EEF9FEFDF91CF911F910F9156
:10283000FF90EF900895C8013CDF882339F082E0D3
:1028400090E09983888388EF9FEFEECF10937E020C
:1028500000937D02E0927F02F092800281E090E09E
:102860009983888390E080E0DFCFCF92DF92EF9270
:10287000FF920F931F93CF93DF937A01EC01C60F62
:10288000D71FC0907D02D0907E0200917F021091F0
:102890008002412F602FC60140DF811110C082E00D
:1028A00090E0F701918380838AEF9FEFDF91CF91D2
:1028B0001F910F91FF90EF90DF90CF900895C60188
:1028C000F8DE882341F082E090E0F7019183808375
:1028D00088EF9FEFEBCF4C815D816E817F819A8184
:1028E00089818F3F41F082E090E0F70191838083FE
:1028F0008EEF9FEFDBCFE3E1EC9D9001ED9D300D7E
:102900001124E091FA03F091FB03E20FF31F019011
:10291000F081E02D2DE0029FE00DF11D11240190CA
:10292000F081E02D27E0129FE00DF11D112480833E
:1029300091838B81828343835483658376831F5F76
:102940001093800281E090E0F7019183808390E012
:1029500080E0ACCFEF92FF920F931F93CF93DF9362
:102960007A018C01060F171FC091FA03D091FB0367
:10297000209781F021E030E0F8018281938140913D
:10298000FC035091FD038417950710F030E020E020
:10299000232B71F482E090E0F701918380838EEF26
:1029A0009FEFDF91CF911F910F91FF90EF900895CE
:1029B00043E1489F9001499F300D1124C20FD31F5E
:1029C00078DE882341F082E090E0F70191838083F4
:1029D00088EF9FEFE6CFF80124813581203831055B
:1029E000C8F687818111D6CF4181842F90E08F7EF8
:1029F000009741F082E090E0F7019183808386EFB9
:102A00009FEFCFCF4F833E832D8326812887198662
:102A1000223010F421E0288721E030E0F7013183F3
:102A20002083BFCF88E090E0FA019183808390E01B
:102A300080E00895FB018FEF808381E181838FEF38
:102A40009FEF9383828380E890E09583848316824E
:102A500017820895FB018FEF808391E09183828339
:102A60009383848384E3858381E090E097838683E6
:102A70000895DF92EF92FF920F931F93CF93DF930E
:102A8000EA01FC01E60FF71F8181813071F082E0DD
:102A900090E0998388838FEF9FEFDF91CF911F9113
:102AA0000F91FF90EF90DF90089582819381D48001
:102AB0002581E680F7800091FA031091FB03011550
:102AC000110539F482E090E0998388838CEF9FEFC1
:102AD000E4CF4091FC035091FD038417950738F033
:102AE00082E090E0998388838EEF9FEFD6CF892B89
:102AF00039F082E090E09983888386EF9FEFCDCF15
:102B00008D2D8D7FB1F72130A1F781E0D11006C066
:102B100091E0E916F10431F080E004C0E2E0EE1645
:102B2000F104D0F3882329F390E080E0C2DD88230C
:102B300039F082E090E09983888388EF9FEFADCFF2
:102B4000F801D38681E08487F686E586108A1786A9
:102B500081E090E09983888390E080E09ECF4CE014
:102B600050E065EC72E057CA8F929F92BF92CF926D
:102B7000DF92EF92FF920F931F93CF93DF93EA01BF
:102B8000FC01E60FF71F828193810481B580E091FB
:102B9000FA03F091FB03309791F482E090E099837F
:102BA00088838CEF9FEFDF91CF911F910F91FF9062
:102BB000EF90DF90CF90BF909F908F9008952091DD
:102BC000FC033091FD038217930738F082E090E018
:102BD000998388838EEF9FEFE6CF23E1289F6001E2
:102BE000299FD00C1124EC0DFD1DE080F180E11433
:102BF000F10499F28281081748F78DE0089F80015F
:102C00001124E00EF11EF70180819181892B29F6B4
:102C1000BB20E1F2F7E0BF9E40011124C4010E94F5
:102C2000EE21F70191838083E091FA03F091FB0399
:102C3000EC0DFD1D0190F081E02DE00FF11F808172
:102C40009181009739F482E090E0998388838DEF39
:102C50009FEFA9CFA40170E060E00E94FE31809157
:102C6000FA039091FB03C80ED91EF6018081918171
:102C7000080F191FF801B28281E090E099838883E0
:102C800090E080E090CFAF92BF92CF92DF92FF9220
:102C90000F931F93CF93DF93EA01FC01E60FF71F19
:102CA00082819381F4800091FA031091FB03011556
:102CB000110581F482E090E0998388838CEF9FEF87
:102CC000DF91CF911F910F91FF90DF90CF90BF9038
:102CD000AF9008952091FC033091FD038217930774
:102CE00038F082E090E0998388838EEF9FEFE8CF01
:102CF0002FEF2F0D2C3FA8F723E1289F6001299F7C
:102D0000D00C11240C0D1D1DF80180819181892B9F
:102D100089F6FDE0FF9E50011124C5010E94EE21BD
:102D2000F80191838083E091FA03F091FB03EC0DAD
:102D3000FD1D80819181009739F482E090E09983B4
:102D400088838DEF9FEFBCCFA50170E060E00E940B
:102D5000FE31E091FA03F091FB03EC0DFD1DF282D0
:102D600081E090E09983888390E080E0A9CFCF92C2
:102D7000DF92EF92FF920F931F93CF93DF93860F13
:102D8000971FFC01028113818091FA039091FB034C
:102D9000892B81F082E090E0FA01918380838CEFAF
:102DA0009FEFDF91CF911F910F91FF90EF90DF90F8
:102DB000CF900895C801B0E0A0E00197A109B10942
:102DC0008F3F9F4FA105B10540F082E090E0FA01EE
:102DD000918380838EEF9FEFE4CF7A0183E1809F20
:102DE0006001819FD00C1124C6010E94EE21EC01EC
:102DF000009741F482E090E0F701918380838DEFAA
:102E00009FEFCFCFA60170E060E00E94FE31D0932B
:102E1000FB03C093FA031093FD030093FC0390E0BF
:102E200080E02FEF3FEF41E061E070E08017910715
:102E300041F481E090E0F7019183808390E080E0AD
:102E4000B0CF3A8B298B1B864C877E876D87188A7B
:102E50001F8601966396EACFEF92FF921F93CF935E
:102E6000DF93EC0110E0F12CE12C6A811617B0F031
:102E700083E0689FB0011124AE014F5E5F4FC70130
:102E80000E945322009721F02FEF3FEF3A8B298BBE
:102E9000DF91CF911F91FF90EF900895612FCE01A8
:102EA0008DDC61E070E00E949B20E816F90608F4D2
:102EB0007C011F5FDACFF8942091F8033091F90379
:102EC00081E02115310509F080E0232B09F0789489
:102ED00008952F923F924F925F926F927F928F92BE
:102EE0009F92AF92BF92CF92DF92EF92FF920F9399
:102EF0001F93CF93DF933C01660E771EF30182810F
:102F000093814C01B12CA12CC091FA03D091FB0309
:102F1000209769F021E030E06091FC037091FD039F
:102F20008617970710F030E020E0232BD1F482E0E1
:102F300090E0FA01918380838EEF9FEFDF91CF9134
:102F40001F910F91FF90EF90DF90CF90BF90AF90C7
:102F50009F908F907F906F905F904F903F902F90B9
:102F600008958092810290928202A0928302B09290
:102F7000840263E1689F9001699F300D1124C20FA4
:102F8000D31FF3018181833040F082E090E0FA01A9
:102F90009183808386EF9FEFD1CF2A012B813C81E3
:102FA000232BF1F4288139819F8191FF2EC0232B9F
:102FB00009F46FC02091FF039A81422F490F5527D2
:102FC000551FBA0141E050E06138710514F050E03E
:102FD00040E0452B09F45DC02A87920F9093FF03D0
:102FE0008150823008F481C066DF882309F4D8C09C
:102FF000F3018181813009F48DC008F47BC08230F7
:1030000009F4C6C090E080E0ADC0232B09F441C0B4
:103010002091FE039A81E22FE90FFF27FF1F41E075
:1030200050E0ED3FF10514F050E040E0452B89F110
:103030002A87920F9093FE03D3CFA081B181A20F74
:10304000B31F11966C91060F111D0196295F3F4F1A
:103050008417950794F38D859E85089F1001099F1D
:10306000300C189F300C1124C114D104D1F48F817D
:1030700084FF17C00E94E920F5E02F0E311C21E0EB
:103080008215930508F420E0A701435F5F4F2111EB
:103090000EC082E090E0F2019183808387EF9FEF82
:1030A0004DCF0E94E9202FEF221A320AE8CF888103
:1030B0009981E80EF91EF70114830383FFEFCF1AFD
:1030C000DF0A7A018A818C151D0409F00CF48CCF7B
:1030D000E881F981EE0DFF1D428150E030E020E0F3
:1030E00010E000E090E080E0B3CFF12CE12CD12C97
:1030F000C12CE8CF81E090E09C838B83F1DA8823B8
:1031000009F480CF81E090E00E94ED0F80E40E94FE
:10311000FB0F78CF89899A89019661F083E090E06E
:103120009C838B8382E090E00E94ED0F80E40E94FC
:10313000F50F68CF8D819E812091770230917802C2
:1031400082179307D1F460917B0270917C02AE01EB
:103150004F5E5F4F8091790290917A020E947223B4
:103160000097E1F2789422E030E0F201318320838D
:10317000892B99F08DEF9FEFE1CE89288A288B2843
:1031800069F6892B59F6CE0167DE188A1F86E8CFCB
:1031900082E090E09C838B8335CF90E080E0CECEC0
:1031A00082E090E0F2019183808385EF9FEFC6CEAD
:1031B0008F929F92AF92BF92CF92DF92EF92FF9247
:1031C0000F931F93CF93DF93EA018C01060F171F14
:1031D000F8018181833098F082E090E099838883C0
:1031E00086EF9FEFDF91CF911F910F91FF90EF90AE
:1031F000DF90CF90BF90AF909F908F900895809177
:10320000FA039091FB03892B61F081E090E020911B
:10321000FC033091FD03232B11F490E080E0892B17
:1032200039F482E090E0998388838EEF9FEFDACFC4
:1032300042DE882309F4DFC0F8018181813009F47E
:1032400095C0E8F0823099F42091FC033091FD03A1
:10325000E091FA03F091FB0390E080E041E050E060
:103260002817390709F0BDC03BDA811117C07894DF
:1032700081E090E09983888390E080E0B3CF209153
:10328000FC033091FD03E091FA03F091FB0390E021
:1032900080E041E050E02817390741F481E090E0F8
:1032A0000E94ED0F80E40E94FB0FE1CF63817481E7
:1032B000672B11F05483438301967396ECCFE09112
:1032C000FA03F091FB03E00FF11F238134812230D8
:1032D0003105D9F4218932892F3F3F4FB1F425813F
:1032E000368140917702509178022417350761F5B5
:1032F000AF014F5E5F4F60917B0270917C028091C5
:10330000790290917A020E947223EFEFCE1ADE0AC0
:10331000EE0AFE0A0D5E1F4F4091FC035091FD0323
:1033200070E060E0C416D506E606F7063CF50097A7
:1033300031F27894892B09F49BCF82E090E0998355
:1033400088838DEF9FEF4ECFC114D104E104F104C7
:10335000E1F6232BD1F6CF017FDDE091FA03F09166
:10336000FB03E00FF11F108A1786CFCF10E000E0BB
:1033700090E080E0C12CD12C7601CECF0097C9F629
:1033800010E000E0812C912C540183E0E82EF12C18
:103390001AC0E091FA03F091FB03E00FF11F838163
:1033A0009481029749F4F482E38282E090E00E94E3
:1033B000ED0F80E40E94F50FFFEF8F1A9F0AAF0A0E
:1033C000BF0A0D5E1F4F8091FC039091FD03B0E09A
:1033D000A0E088169906AA06BB06DCF290E080E021
:1033E000A8CF638174816230710511F454834383E3
:1033F0000196739635CF82E090E09983888385EFBC
:103400009FEFF0CE0097B9F48FEFFB0180832091FE
:1034100081023091820243E1429FC001439F900D9F
:103420001124E091FA03F091FB03E80FF91F828564
:10343000FB01818308950C94A40F88E090E0FA01C9
:103440009183808390E080E008951092F9031092B8
:10345000F803EAEFF3E086E0DF011D928A95E9F7D1
:103460008FEA95E19093F7038093F6030895809196
:10347000F6039091F70308952F923F924F925F9237
:103480006F927F928F929F92AF92BF92CF92DF9274
:10349000EF92FF920F931F93CF93DF93CDB7DEB7D9
:1034A0002F970FB6F894DEBF0FBECDBFF894E09112
:1034B000F803F091F9033196F093F903E093F803E0
:1034C00078944090FA035090FB034114510409F49E
:1034D0000CC2E091FC03F091FD03EF2B09F405C24F
:1034E0002D8749875A876B877C8798878F8312013E
:1034F000B12CA12C10E000E08091FC039091FD0321
:10350000A816B90618F40115110529F1F89480914F
:10351000F8039091F90301979093F9038093F803CE
:103520007894C8012F960FB6F894DEBF0FBECDBFBA
:10353000DF91CF911F910F91FF90EF90DF90CF908F
:10354000BF90AF909F908F907F906F905F904F90C3
:103550003F902F9008957101E418F508D101179656
:103560008C91179781FD54C013968D919C9114975F
:10357000039709F04DC015968D919C91EF81F885C8
:103580008E179F0709F044C0B50190E080E07FD41A
:103590008A832091FA033091FB033D832C833D8580
:1035A000332309F44CC04C815D81452B09F49AC149
:1035B0008091FC039091FD03A816B90608F092C112
:1035C000C501D8D88823E9F06C817D816E0D7F1DFF
:1035D0007D836C83DB011F968D919C91892B89F0F3
:1035E000D12CC12CF12CE12CAC81BD8112968C9197
:1035F00012978E151F0409F094F450961C921E9297
:103600001F972A81222321F0B50190E080E041D468
:103610003FEFA31AB30A43E1240E311C6DCFAC81F6
:10362000BD81ED91FC91EC0DFD1D858196810FD73B
:10363000BFEFEB1AFB0AEDE0CE0ED11CD5CFEC812B
:10364000FD81309709F44EC18091FC039091FD03F8
:10365000A816B90608F046C1EE0DFF1DFF87EE87DC
:10366000C50188D88B83882339F1AE85BF851F9625
:103670008D919C915097019621E01D964D915C9102
:103680008417950709F020E02E831982712C10E031
:1036900000E0AE85BF8512968C91781608F45DC067
:1036A000EE85FF85878590890196658576850E94E0
:1036B0009E31908B8787A5CFB1E0BE83E6CF99245A
:1036C00093946BC08BD6F6019683858382C0D60116
:1036D000ED90FC90B7E06B9EE00CF11C1124F7011B
:1036E0006381748180818F3F61F121E030E002C00D
:1036F000220F331F8A95E2F7C901092E000CAA0B8D
:10370000BB0BFB014081518162817381842395232E
:10371000A623B72321E0892B8A2B8B2B09F420E0E9
:10372000D4012C93D70111968C91F6012385348511
:10373000820F932F911D880E991E14861386639411
:103740009BC0418150E0C4010E94F531EBCF9982CA
:1037500006EF1FEFC5C01982C3C0F981F111A0CFD8
:10376000EDE07E9E70011124AE85BF85CD90DC908A
:10377000CE0CDF1C15D49D838C83BB81BB2309F445
:103780009ECF81E0EE85FF8527853089232B09F0C8
:1037900080E0982E882309F458C0672D8E859F8578
:1037A0000DD8D60118969C938E93179761E070E020
:1037B000C2D4EE85FF85218932892F3F320709F473
:1037C00081CFBC01C901CFD7D60116969C938E93A9
:1037D0001597D60115968D919C911697009709F42F
:1037E000B6CFEC81FD818E0F9F1F1A969C938E930E
:1037F0001997AE85BF85ED91FC911197EE0EFF1ED6
:10380000F70121853285148613861A968C91870DCF
:10381000D9018D93711016C0EE85FF85878184FFD5
:1038200011C049855A856B857C85F9014183528396
:1038300063837483F701838594850496A80FB91F69
:1038400014861386F701B287A187D60115968D914C
:103850009C911697892B09F443C0EE85FF8525813D
:10386000368180917702909178022817390779F094
:1038700019968D909C90612CD60112968C9112977E
:10388000681608F424CF1A969C928E921997BE81DE
:10389000BB2309F460CF61E070E0F6018781908579
:1038A0004AD4D6011796ED90FC90189715964D9135
:1038B0005C91E1E0F0E0BA81BB2311F0F0E0E0E0E0
:1038C0000C811D819C01B501882799278E1B9F0BB8
:1038D0006AD38C01892B21F0F60185819681B7D5B9
:1038E0007394D7CE0FEF1FEF8CCE10E000E00ECE1A
:1038F0002F923F924F925F926F927F928F929F9200
:10390000AF92BF92CF92DF92EF92FF920F931F93ED
:10391000CF93DF938091FA039091FB0310E000E0D6
:10392000892BA9F0C8DA0AEF1FEF882381F02090D5
:10393000FC033090FD03C091FA03D091FB03D12C1E
:10394000C12C10E000E02C143D04A9F47894C801C7
:10395000DF91CF911F910F91FF90EF90DF90CF906B
:10396000BF90AF909F908F907F906F905F904F909F
:103970003F902F900895C6010E94BA13882309F141
:103980008B819C810397E9F48F859889892BC9F0F5
:10399000B60190E080E07BD221E030E0882311F096
:1039A00030E020E044245524421A530AB12CA12CC3
:1039B000912C812C8A818815190409F038F4188A11
:1039C0001F864FEFC41AD40A6396BDCFE881F981F0
:1039D000EA0DFB1D85819681892BA1F161E070E0E4
:1039E00087819085A8D33C01DBD28C01E881F981E5
:1039F000EA0DFB1D8185928525813681200F311FBF
:103A0000AC01421B530B9A0147815085421B530B5B
:103A100070E060E00E94FE31E881F981EA0DFB1D53
:103A2000E780F084458156819301B601C201BBD283
:103A30008C01892B39F0E881F981EA0DFB1D858124
:103A4000968105D55FEF851A950A8DE0A80EB11C09
:103A5000B1CF31CA789408952F923F924F925F92DE
:103A60006F927F929F92AF92BF92CF92DF92EF922E
:103A7000FF920F931F93CF93DF9300D000D0CDB769
:103A8000DEB70091FA031091FB039924939401157A
:103A9000110509F43EC0A090FC03B090FD030BDAC1
:103AA000982E8823B1F11092FB031092FA03109222
:103AB000FD031092FC031092FE031092FF038FEFA0
:103AC0009FEFDC018093810290938202A093830296
:103AD000B093840278947FD31E830D83C12CD12CA4
:103AE0007601C501B0E0A0E089839A83AB83BC83F3
:103AF00022242A94322C89819A81AB81BC81C816F8
:103B0000D906EA06FB06F4F0C801A1D480E40E94BD
:103B1000FB0F892D26960FB6F894DEBF0FBECDBFE2
:103B2000DF91CF911F910F91FF90EF90DF90CF9099
:103B3000BF90AF909F907F906F905F904F903F901D
:103B40002F900895AD81BE8115968D919C91169709
:103B5000209177023091780282179307D1F4519621
:103B60008D919C91EED5ED81FE8180819181B12C6A
:103B7000A12C412C512C3201892B89F5BFEFCB1A96
:103B8000DB0AEB0AFB0AED81FE817396FE83ED836F
:103B9000B2CFC114D104E104F10429F7892B19F73C
:103BA000ED81FE81818992898F3F980709F029D59F
:103BB000AD81BE8152963C922E925197D4CF8A0D00
:103BC0009B1DDC018D919C91009709F040D4BFEFC3
:103BD0004B1A5B0A6B0A7B0AEDE0AE0EB11CAD819D
:103BE000BE818D919C91119712964C9150E070E09E
:103BF00060E044165506660677060CF328D4BECF5F
:103C0000CF93DF93EA0128DF811109C082E090E0C1
:103C10009983888385EF9FEFDF91CF91089581E0AD
:103C200090E00E94ED0F81E090E09983888390E01E
:103C300080E0F2CF11DF1092F7031092F60308959F
:103C400042E050E06DE073E00C940B10FF920F9394
:103C50001F93CF93DF938A01EC01C60FD71FF98022
:103C6000B9D20897F816190671F068F082E090E072
:103C7000F801918380838EEF9FEFDF91CF911F91A9
:103C80000F91FF9008956C817D818E819F814B8182
:103C90000E94A012811108C082E090E0F801918397
:103CA000808384EF9FEFE9CFF9800E949B124F2D14
:103CB00050E0BE01685F7F4F0E94F53189810E940C
:103CC0000A1381E090E0F8019183808390E080E026
:103CD000D4CFDF92EF92FF920F931F93CF93DF9396
:103CE0008A01EC01C60FD71F0E949B127C01D9806C
:103CF00071D2DD2059F0029721E030E0D816190684
:103D000019F010F030E020E0232B79F482E090E00D
:103D1000F801918380838EEF9FEFDF91CF911F9108
:103D20000F91FF90EF90DF900895EF2841F482E02B
:103D300090E0F8019183808384EF9FEFEECFF980CC
:103D40000E949B124F2D50E0BE016E5F7F4F0E947C
:103D5000F53189810E940A1381E090E0F801918396
:103D6000808390E080E0D9CF80E29EE190930104CF
:103D700080930004089580910004909101040895B7
:103D80000895FC0111821082938382830895DB01E0
:103D90001D921C92DC011296ED91FC911397718398
:103DA000608313967C936E9312970895FC01808133
:103DB0009181DB018D939C93A081B181109741F09B
:103DC0008D919C9191838083892B11F4F383E283FD
:103DD0000895FC0180819181DB018D939C93892B57
:103DE00011F473836283718360830895FC011182EF
:103DF0001082938382830895CF93DF931F921F9243
:103E0000CDB7DEB71A821982F894BE016F5F7F4F7B
:103E100087E094E0CBDF89819A81009709F017D37E
:103E200089819A81892B89F7BE016F5F7F4F8BE073
:103E300094E0BCDF89819A81009709F008D38981D9
:103E40009A81892B89F778940F900F90DF91CF9109
:103E50000895CF93DF931F921F92CDB7DEB71A82DA
:103E60001982F894BE016F5F7F4F83E094E09EDF7C
:103E700089819A81009709F0EAD289819A81892BF8
:103E800089F778940F900F90DF91CF91089581E09A
:103E9000089590E080E00895EF92FF920F931F93B2
:103EA000CF93DF931F921F92CDB7DEB71A8219828C
:103EB0008091020407EF1FEF8823A1F1F894BE015F
:103EC0006F5F7F4F8BE094E071DF789489819A81F6
:103ED000EE24E394F12C892B51F4F894BE016F5F2A
:103EE0007F4F87E094E062DF7894F12CE12C8981A8
:103EF0009A810EEF1FEF0097A9F0FC0142815381D8
:103F000064E070E074D68C01892B61F0F8946981CB
:103F10007A81C701880F991F880F991F895F9B4F6E
:103F200058DF7894C8010F900F90DF91CF911F91C7
:103F30000F91FF90EF9008950F931F93CF93DF930E
:103F400000D01F92CDB7DEB71C821B821A82198265
:103F50008091020407EF1FEF8823C1F0AE014D5F8F
:103F60005F4F64E070E0CE010196B4D68C01892BDE
:103F700069F4E981FA818B819C8193838283F8942F
:103F800069817A8183E094E002DF7894C8010F9020
:103F90000F900F900F90DF91CF911F910F91089587
:103FA000B9D7049608958F929F92AF92BF92CF9205
:103FB000DF92EF92FF920F931F93CF93DF931F92A5
:103FC0001F92CDB7DEB71A821982BC016F5F7F4F97
:103FD0006330710598F0AA24AA94BA2CC5010F90F9
:103FE0000F90DF91CF911F910F91FF90EF90DF9095
:103FF000CF90BF90AF909F908F900895411551053D
:1040000051F3480159018A016C01CADF88159905ED
:1040100011F7E114F104F9F28E0D9F1DA816B906EF
:10402000D0F2809102048823F1F0F894B501645035
:1040300071099701AE014F5F5F4FC8010496DFD64B
:104040005C01892B71F489819A81F80193838283C1
:10405000C601880F991F880F991FB801895F9B4F70
:1040600096DE7894BBCF87EFA82EBB24BA94B6CF48
:10407000AF92BF92CF92DF92EF92FF920F931F9376
:10408000CF93DF931F921F92CDB7DEB71A821982AA
:10409000892B09F047C06115710509F443C041152A
:1040A000510509F43FC02115310509F43BC0011544
:1040B0001105C1F1809102048823B9F179016A01E7
:1040C0005B01F894BE016F5F7F4F83E094E06EDE8A
:1040D000789489819A81009759F1DC0112966D914B
:1040E0007C91A8010496A4D68C01E981FA81D501BE
:1040F000ED93FC93828193810496F60191838083F2
:104100004FDFD7018D939C93C8010F900F90DF91E3
:10411000CF911F910F91FF90EF90DF90CF90BF90C4
:10412000AF9008950FEF1FEFEFCF07EF1FEFECCF2A
:104130000EEF1FEFE9CFCF93DF93EC01672B71F404
:10414000F2D68C179D0760F0E5D62496C80FD91FCC
:10415000E4D68C0F9D1FDF91CF910895E1D6F1CF6A
:1041600090E080E0F8CF0F931F93CF93DF932091DF
:10417000020421112BC08B01EC0187E094E001DEE9
:104180008BE094E0FEDD83E094E0FBDD97D00097C8
:10419000C1F4C9D670E060E0CEDF45E852E062E0ED
:1041A00070E081D1009769F4809185029091860238
:1041B000CCD6B801CE0101D5009719F421E02093A7
:1041C0000204DF91CF911F910F91089584EF9FEF2B
:1041D000F8CFA6C6A8C6CF93DF93A8D6EC01892B4B
:1041E00011F40ADE36DECE01DF91CF910895CF9330
:1041F000DF939CD6EC01892B09F4FEDDCE01DF9123
:10420000CF91089580918502909186020895CF9371
:10421000DF9380910204D0E0C0E08823D1F09AD6E9
:10422000EC01892BB1F4E8DD14DE809185029091D8
:104230008602E7D1E8D2EC01892B59F487E094E0BB
:10424000D5DD8BE094E0D2DD83E094E0CFDD109209
:104250000204CE01DF91CF910895EF92FF920F9368
:104260001F93CF93DF93EC017A018B010F5F1F4FF8
:104270000E9DA0010F9D500D1E9D500D112470E04C
:1042800060E00E94FE3190E080E0F0E0E0E02FEF9F
:10429000E816F90639F4DF91CF911F910F91FF9045
:1042A000EF9008951A8219822883309711F0D283F3
:1042B000C1830196FE01C00FD11FEACFCF92DF92DA
:1042C000EF92FF920F931F93CF93DF930CE515E0CE
:1042D0000C7F43E050E067E872E08DE892E01AD48A
:1042E00087E8E82E82E0F82E9DE8C92E92E0D92ECC
:1042F000CBEDD5E0D7014D915D917D01F601619146
:1043000071916F01198308835D834C835B834A83BA
:104310007F836E839B012F5F3F4F249FC001259FAA
:10432000900D349F900D11249987888701151105F0
:1043300011F0C80192DF88859985080F191F2A9608
:10434000FDE8EF16F2E0FF06A9F6E1E1F4E088E40B
:1043500091E0DF019C011D9221503040E1F7109265
:10436000100410920F041092FA051092F9051092A1
:10437000FE051092FD051092FC051092FB051092AF
:1043800000061092FF05109202061092010610928C
:104390000406109203061092080610920706109267
:1043A00006061092050610920A061092090610924F
:1043B0000C0610920B061092D8051092D705109299
:1043C000DA051092D90590E080E0DF91CF911F913E
:1043D0000F91FF90EF90DF90CF9008950097F1F04C
:1043E000F894ADE8B2E0EBEDF5E030E020E04D917F
:1043F0005D9148175907A8F0428153814115510535
:1044000081F08AE0829FF001839FF00D1124E55234
:10441000FA4F80819181009759F4789490E080E080
:1044200008952F5F3F4F3A962330310501F7F5CFBE
:10443000DC0111966D917C9171836083415051092B
:1044400053834283FC012193CF0178940895009710
:1044500049F1DC018E91853041F4E091D905F0916C
:10446000DA053097F9F0CD0119948530D8F4282F6A
:1044700030E0F8948FEF8C938AE0829FF001839F65
:10448000F00D1124E552FA4F8081918112969C9390
:104490008E931197B183A083828193810196938338
:1044A000828378940895CF92DF92EF92FF920F93D8
:1044B0001F93CF93DF939C0184E194E08C7F41159F
:1044C000510509F49BC02115310509F497C0611508
:1044D000710509F493C07A01AB01B9016D5F7F4F9B
:1044E0006C7F9B012F5F3F4F249F8001259F100D04
:1044F000349F100D1124F8942091F9053091FA059C
:10450000232B59F420910106309102062115310523
:1045100069F12017310708F058C020910306309147
:104520000406232B91F42091010630910206820F9C
:10453000931F20910B0630910C062115310509F4CB
:1045400041C02017310708F056C07894CFEFDFEF55
:1045500086EF9FEFF701D183C083DF91CF911F9149
:104560000F91FF90EF90DF90CF900895C3E0D0E0DF
:10457000C0900F04D090100425E431E02C193D09BF
:104580002017310710F32AE02C9FF0012D9FF00D2A
:104590001124E552FA4F91838083558344835383DA
:1045A00042837783668311870087009709F055DE81
:1045B0000C0D1D1D1093100400930F04789490E0CF
:1045C00080E0C8CFC4E0D0E0D3CFC3E0D0E02AE0A1
:1045D0002C9FF0012D9FF00D1124E552FA4F91838D
:1045E0008083558344835383428377836683009714
:1045F00029F333DEE3CFC4E0D0E0E9CF8FEF9FEFC4
:10460000ACCF9C010397029708F069C0F89484E04E
:104610009AE0482F50E0241735070CF44DC091E084
:104620008AE0829FF001839FF00D1124E552FA4F3A
:1046300011821082158214821382128217821682CE
:104640009923B1F18091F9059091FA05892BA9F48C
:1046500020910106309102062115310571F08091FB
:104660000F0490911004821B930B9093100480937D
:104670000F04109202061092010680910306909199
:104680000406892BA9F420910B0630910C06211504
:10469000310571F080910F0490911004821B930BEF
:1046A0009093100480930F0410920C0610920B0646
:1046B000789490E080E00895949FF001959FF00D2C
:1046C0001124E552FA4F40815181452B31F4408548
:1046D0005185452B11F481509CCF90E0A1CF8FEFF5
:1046E0009FEF08954115510549F1009739F1611582
:1046F000710521F1F8942091D7053091D805232B2D
:10470000B9F42091D9053091DA05232B89F49093DF
:10471000D8058093D7057093DA056093D90578940E
:1047200025E030E090E080E0FA01318320830895B5
:1047300078942FEF3FEF86EF9FEFF6CF8FEF9FEF4D
:104740000895059769F4F8941092D8051092D7054A
:104750001092DA051092D905789490E080E00895DF
:104760008FEF9FEF08956115710519F4F0E0E0E017
:1047700011C08530910581F4E091D705F091D805FD
:104780003097A1F3CB0101961995009779F3FC01BD
:1047900085E08193CF0108959C0123503109223097
:1047A000310520F72AE0289FD001299FB00D112460
:1047B000A552BA4F2D913C911197232BB9F2169621
:1047C0002D913C9117972617370780F2F89412968F
:1047D0002D913C9113972115310529F0ED91FC9114
:1047E0001197309711F47894C1CF4181528111967D
:1047F0005C934E932150310913963C932E9312975C
:1048000081937894C7CFE9E5F5E08EE7DF011D924B
:104810008A95E9F7E1E1F4E088E491E0DF019C01A9
:104820001D9221503040E1F71092100410920F04B5
:10483000EBEDF5E082E3DF011D928A95E9F7E7ED04
:10484000F5E084E0DF011D928A95E9F790E080E0D1
:104850000895CF93DF93C0919302D0919402CF3FFC
:10486000DC0759F420D4909394028093930297FF2D
:1048700009C0D0939402C093930284EF9FEFDF911D
:10488000CF91089590E080E0FACF8230910528F42E
:1048900080930D0690E080E008958FEF9FEF0895DC
:1048A0004F925F926F927F92AF92BF92CF92DF92C0
:1048B000EF92FF920F931F93CF93DF931F921F925C
:1048C000CDB7DEB71A821982009709F478C0611556
:1048D000710509F474C0209193023091940207EF9E
:1048E0001FEF2F3F3F4F09F444C06B015C01412C87
:1048F000512C3201F12CE12C10E000E09E012F5FE1
:104900003F4FA6014E195F09B5016E0D7F1D8091C5
:1049100093029091940226D4892B09F04AC0898190
:104920009A81009741F4E114F10429F420910D06D5
:10493000222309F441C0E80EF91EEC14FD04C8F46A
:1049400080E8481684E858068EE16806710418F578
:1049500060E070E0CB010CD72AE0420E511C611CD4
:10496000711C0A3F4FEF140721F0043F8FEF180727
:10497000A1F4C8010F900F90DF91CF911F910F917B
:10498000FF90EF90DF90CF90BF90AF907F906F90AF
:104990005F904F90089501EF1FEF81E090E0013F9D
:1049A0002FEF120711F090E080E0892B09F4A6CFD9
:1049B000E0CF04EF1FEFDDCF0AEF1FEFDACF0FEFED
:1049C0001FEFD7CF4F925F926F927F92AF92BF92BD
:1049D000CF92DF92EF92FF920F931F93CF93DF93CB
:1049E0001F921F92CDB7DEB71A821982009709F481
:1049F00078C06115710509F474C02091930230915B
:104A0000940207EF1FEF2F3F3F4F09F444C06B01A3
:104A10005C01412C512C3201F12CE12C10E000E022
:104A20009E012F5F3F4FA6014E195F09B5016E0D24
:104A30007F1D80919302909194024AD3892B09F0B3
:104A40004AC089819A81009741F4E114F10429F464
:104A500020910D06222309F441C0E80EF91EEC1442
:104A6000FD04C8F480E4481682E458068FE0680626
:104A7000710418F560E070E0CB017AD62AE0420EAE
:104A8000511C611C711C0E3F4FEF140721F0043FB5
:104A90008FEF1807A1F4C8010F900F90DF91CF910D
:104AA0001F910F91FF90EF90DF90CF90BF90AF904C
:104AB0007F906F905F904F90089502EF1FEF81E01D
:104AC00090E0023F2FEF120711F090E080E0892B79
:104AD00009F4A6CFE0CF04EF1FEFDDCF0EEF1FEFFD
:104AE000DACF0FEF1FEFD7CF80919302909194020E
:104AF0008F3F980749F0CFD2892B49F48FEF9FEF72
:104B0000909394028093930290E080E0089584EF64
:104B10009FEF0895CF92DF92EF92FF920F931F9332
:104B2000CF93DF9321E04115510509F020E041507A
:104B3000510921112CC0DC01FB01D12CC12C21E039
:104B400022C03FEFC31AD30A7D010D911D91E701E9
:104B5000EA80FB80E016F106A8F420813181E28032
:104B6000F380F182E08233832283ED90FC901197F1
:104B70009D0122503109E901F982E88211961C93C6
:104B80000E9320E03296C416D506D8F2D2CFDF912C
:104B9000CF911F910F91FF90EF90DF90CF900895EC
:104BA000FC01680F791F90E080E0E617F70709F431
:104BB00008952191820F911DF8CF20910E062111A9
:104BC00013C047DE009791F410921406109213065A
:104BD00010921206109211061092100610920F06F3
:104BE00021E020930E06089584EF9FEF0895AF9281
:104BF000BF92CF92DF92EF92FF920F931F93CF93CA
:104C0000DF93009709F460C04630510508F45CC09A
:104C100020910E06C7EFDFEF222309F449C08C0173
:104C2000060F171FF801C080D180C114D10409F408
:104C30004EC096012A5F3F4F4217530708F447C002
:104C40007C01809113069091140693838283B601B0
:104C50006C5F7F4F5801A60EB71EC801A1DFF5019A
:104C60009183808364E070E0C8011ADEEC01892B37
:104C7000F9F481E090E009DEB601C801049610DE87
:104C8000EC01892B91F462E070E0C50109DEEC01D2
:104C9000892B59F4C701DBDB809113069091140630
:104CA0000196909314068093130690E080E0EDDD6A
:104CB000CE01DF91CF911F910F91FF90EF90DF9088
:104CC000CF90BF90AF900895CFEFDFEFF1CFC9EF56
:104CD000DFEFEECF6F927F928F929F92AF92BF9253
:104CE000CF92DF92EF92FF920F931F93CF93DF93B8
:104CF00000D01F92CDB7DEB7009709F47AC04115F6
:104D0000510509F476C020910E0607EF1FEF22230C
:104D100009F44DC03A017B015C0164E070E0CE0112
:104D2000019650DE8C01892B09F041C009811A815E
:104D30000115110509F45AC0480186E0880E911C3E
:104D4000B701680D791D80919502909196020BDD57
:104D50006C01009709F450C0A70170E060E00E9468
:104D6000FE3189819A81AB81BC81EC0CFD1CF7017D
:104D700081939193A193B1937F0181E090E085DDD0
:104D8000B801C7011FDE892B31F562E070E0C70171
:104D9000800F911F17DE8C01892BE9F490E080E0F1
:104DA00074DDF501D182C082F30191828082C80155
:104DB0000F900F900F900F90DF91CF911F910F9157
:104DC000FF90EF90DF90CF90BF90AF909F908F902B
:104DD0007F906F90089590E080E057DDF50111829B
:104DE0001082F30111821082C60131DB09EF1FEF3F
:104DF000DECF0FEF1FEFDBCF06EF1FEFD8CF00970F
:104E0000A1F04115510589F02115310571F0F90125
:104E100036966E177F0748F0DC012D933C93DA013C
:104E2000ED93FC9390E080E008958FEF9FEF08955D
:104E3000AF92BF92CF92DF92EF92FF920F931F93A8
:104E4000CF93DF93009709F45FC04115510509F432
:104E50005BC06530710508F457C020910E06C7EF9E
:104E6000DFEF222391F1DC01CD90DC9011971296B7
:104E7000ED91FC9196012A5F3F4FC9EFDFEF2617B6
:104E8000370719F5C0910F06D0911006209749F504
:104E900021E030E03093100620930F067A018C0158
:104EA000F0931206E09311065601B4E0AB0EB11C6C
:104EB000B50176DE0A0D1B1DF801208131818217B4
:104EC000930729F5D701CD92DC92CE01DF91CF91E6
:104ED0001F910F91FF90EF90DF90CF90BF90AF9018
:104EE000089520911106309112062F5F3F4FCCEFAD
:104EF000DFEFE217F30790F2CBEFDFEF2E173F075C
:104F000068F2D0E0C0E0CACFCFEFDFEFDECFC3EF73
:104F1000DFEFDBCF84E090E0089582E090E0089539
:104F20008CEF9FEF089580E290E0089510921406B0
:104F3000109213061092120610921106109210068B
:104F400010920F0690E080E008959093960280936F
:104F50009502089580910E06882391F0C5DD009793
:104F600089F41092140610921306109212061092F1
:104F700011061092100610920F0610920E06089558
:104F800090E080E00895009749F06115710531F0D7
:104F9000FC0111821082FB01118210820895F3CF6F
:104FA00026E030E040E855E260E070E090E080E02C
:104FB00000C08130910569F01CF4892B39F0089507
:104FC0008230910549F0039751F0089582E296E00E
:104FD000F7C68FEB96E0FCCF8CE597E0F9CF89EF31
:104FE00097E0F6CF1F920F920FB60F9211240BB6D7
:104FF0000F922F933F934F935F936F937F938F9372
:105000009F93AF93BF93EF93FF938FE89DEF9093A0
:10501000250180932401BAD0FF91EF91BF91AF9108
:105020009F918F917F916F915F914F913F912F91C0
:105030000F900BBE0F900FBE0F901F9018958FE82A
:105040009DEF9093250180932401A3E7B0E08C911C
:105050008E7F8C93E0E2F1E080818C7F8083E1E2BF
:10506000F1E08081877E808380818460808380817D
:105070008C7F80838C9181608C930895E3E7F0E0CE
:10508000808190819E7F90838170089581E0089552
:1050900010921506089568EE73E080E090E068D302
:1050A00090E080E0089526E030E040E050E16EE0DE
:1050B00070E090E080E07DDF82E296E0B7D5892B5A
:1050C00021F082E296E0CCD5F7CF90E080E0089521
:1050D000CF92DF92EF92FF920F931F93CF93DF93C4
:1050E0006B017A01E9011982188282E296E09ED56D
:1050F000892B69F18601CC24C39482E0D82E80915B
:105100001506811110C082E296E0AAD50297B9F780
:10511000C0921506F801D1928F018881998101967C
:1051200099838883ECCF888199818E159F0578F4C7
:1051300082E296E095D58F3F9807A9F3F801819315
:105140008F0188819981019699838883ECCF90E0C3
:1051500080E0DF91CF911F910F91FF90EF90DF9052
:10516000CF9008950F931F93CF93DF93EA018901A6
:1051700082E296E00E947031F801D183C08390E012
:1051800080E0DF91CF911F910F910895CF92DF9230
:10519000EF92FF92CF93DF938091160691E0980FE4
:1051A00090931606882379F021E030E030931806BA
:1051B0002093170680931606DF91CF91FF90EF9012
:1051C000DF90CF9008957894C0919902D0919A027F
:1051D0006E8D7F8D88A199A143D120E030E040E819
:1051E0005FE4F4D16B017C016A8D7B8D8C8D9D8D8C
:1051F00037D19B01AC01C701B60199D005D16B0134
:105200007C010E945205B701A60190E080E00E9457
:10521000C404F894809116068150CCCF0F931F934D
:10522000CF93DF931092E1081092E008D7D2B8DE56
:10523000C0919902D0919A02198218826FEF7FEF84
:10524000CB010E94470570E060E090E080E00E94A2
:10525000C803009709F03AC00E944308F894789474
:10526000BE016A5D7F4F8A819B810E94CB03892B9F
:1052700059F46FEF7FEFCB010E945A040E94410561
:10528000882311F081E08AA7F894D9DE0E944405B2
:10529000882311F080E008C00E9441058111FACFF7
:1052A00081E09AA59111F6CF8093E00878940E944E
:1052B000E80F8C0178948091E00881110CC00E9465
:1052C00007090E942605F89490E080E0DF91CF91D5
:1052D0001F910F9108950E9424050E944405882380
:1052E000D9F081E08093E1089091E10881E091118B
:1052F00080E08093E0088091E1088111BFDE0130F9
:10530000110529F40E94E80F892B09F4C1DE0E94DF
:10531000E80F8C01BBDECFCF0E9441058111E1CFA8
:1053200081E09AA59111DECF80E0DCCF5058BB27F9
:10533000AA270ED00DC1FED030F003D120F031F4F9
:105340009F3F11F41EF4F3C00EF4E095E7FBE9C0B3
:10535000E92F0FD180F3BA17620773078407950707
:1053600018F071F49EF527C10EF4E0950B2EBA2FBC
:10537000A02D0B01B90190010C01CA01A00111245B
:10538000FF27591B99F0593F50F4503E68F11A1607
:10539000F040A22F232F342F4427585FF3CF469598
:1053A00037952795A795F0405395C9F77EF41F16BA
:1053B000BA0B620B730B840BBAF09150A1F0FF0F84
:1053C000BB1F661F771F881FC2F70EC0BA0F621F70
:1053D000731F841F48F4879577956795B795F79560
:1053E0009E3F08F0B3CF9395880F08F09927EE0FF2
:1053F00097958795089571D008F481E0089504D0B9
:105400006894B111D9C00895BCD088F09F5790F02E
:10541000B92F9927B751A0F0D1F0660F771F881FD9
:10542000991F1AF0BA95C9F712C0B13081F0C3D0F4
:10543000B1E00895C0C0672F782F8827B85F39F092
:10544000B93FCCF3869577956795B395D9F73EF438
:1054500090958095709561957F4F8F4F9F4F0895E0
:10546000E89409C097FB3EF49095809570956195FE
:105470007F4F8F4F9F4F9923A9F0F92F96E9BB27B4
:105480009395F695879577956795B795F111F8CF30
:10549000FAF4BB0F11F460FF1BC06F5F7F4F8F4F9B
:1054A0009F4F16C0882311F096E911C0772321F091
:1054B0009EE8872F762F05C0662371F096E8862F29
:1054C00070E060E02AF09A95660F771F881FDAF780
:1054D000880F9695879597F90895990F0008550FAD
:1054E000AA0BE0E8FEEF16161706E807F907C0F06A
:1054F00012161306E407F50798F0621B730B840B72
:10550000950B39F40A2661F0232B242B252B21F44B
:1055100008950A2609F4A140A6958FEF811D811DEB
:10552000089597F99F6780E870E060E008959FEF25
:1055300080EC089500240A9416161706180609062A
:10554000089500240A9412161306140605060895F9
:10555000092E0394000C11F4882352F0BB0F40F481
:10556000BF2B11F460FF04C06F5F7F4F8F4F9F4FC1
:10557000089557FD9058440F551F59F05F3F71F043
:105580004795880F97FB991F61F09F3F79F08795AA
:105590000895121613061406551FF2CF4695F1DF33
:1055A00008C0161617061806991FF1CF86957105C3
:1055B000610508940895E894BB2766277727CB01F7
:1055C00097F908958ADF08F48FEF08950BD0C0CFC4
:1055D000B1DF28F0B6DF18F0952309F0A2CFA7CFEE
:1055E0001124EACFC6DFA0F3959FD1F3950F50E0C9
:1055F000551F629FF001729FBB27F00DB11D639F85
:10560000AA27F00DB11DAA1F649F6627B00DA11D2A
:10561000661F829F2227B00DA11D621F739FB00DD0
:10562000A11D621F839FA00D611D221F749F332740
:10563000A00D611D231F849F600D211D822F762FD9
:105640006A2F11249F5750408AF0E1F088234AF0D6
:10565000EE0FFF1FBB1F661F771F881F9150504022
:10566000A9F79E3F510570F05CCFA6CF5F3FECF3EA
:10567000983EDCF3869577956795B795F795E7950E
:105680009F5FC1F7FE2B880F911D9695879597F91F
:1056900008951F920F920FB60F9211242F933F93EC
:1056A0008F939F93AF93BF9380911A0690911B069F
:1056B000A0911C06B0911D063091190623E0230F1E
:1056C0002D3758F50196A11DB11D20931906809321
:1056D0001A0690931B06A0931C06B0931D0680919A
:1056E0001E0690911F06A0912006B09121060196FA
:1056F000A11DB11D80931E0690931F06A093200646
:10570000B0932106BF91AF919F918F913F912F91BF
:105710000F900FBE0F901F90189526E8230F02964A
:10572000A11DB11DD2CF3FB7F89480911E06909174
:105730001F06A0912006B091210626B5A89B05C0A2
:105740002F3F19F00196A11DB11D3FBFBA2FA92F00
:10575000982F8827BC01CD01620F711D811D911DFD
:1057600042E0660F771F881F991F4A95D1F7089569
:105770008F929F92AF92BF92CF92DF92EF92FF9261
:105780006B017C01D0DF4B015C01C114D104E10449
:10579000F104D9F0D2D5C7DF681979098A099B09C4
:1057A000683E73408105910580F321E0C21AD1085B
:1057B000E108F10888EE880E83E0981EA11CB11C58
:1057C000C114D104E104F10431F7FF90EF90DF90B0
:1057D000CF90BF90AF909F908F900895789484B5AC
:1057E000826084BD84B5816084BD85B5826085BDDD
:1057F00085B5816085BDEEE6F0E0808181608083C3
:10580000E1E8F0E0108280818260808380818160A5
:105810008083E0E8F0E0808181608083E1EBF0E06C
:10582000808184608083E0EBF0E080818160808310
:10583000E1E9F0E080818260808380818160808303
:10584000E0E9F0E0808181608083E1EAF0E080813E
:1058500082608083808181608083E0EAF0E08081E3
:1058600081608083E1E2F1E08081826080838081D9
:1058700081608083E0E2F1E0808181608083EAE7FB
:10588000F0E0808184608083808182608083808179
:10589000816080838081806880831092C100089538
:1058A000863308F0865320917B00982F9870277FCD
:1058B000922B90937B002091970290E4299F900176
:1058C00011248770822B80937C0080917A00806401
:1058D00080937A0080917A0086FDFCCF80917800D9
:1058E0009091790008951F93CF93DF93182FEB01C8
:1058F00061E033D1209731F460E0812FDF91CF91C7
:105900001F9167C1CF3FD10511F461E0F6CFE12FC0
:10591000F0E0EC51FF4FE491E150E23108F0B2C009
:10592000F0E08827EA56F34D8F4F3EC5A82CB02CE7
:10593000B52CBF2CC92C422DD32CDB2CE32CED2C09
:10594000F72C012D102D1A2D422D242D2E2D382D02
:1059500084B5806884BDC7BDDF91CF911F91089544
:1059600084B5806284BDC8BDF7CF80918000806817
:1059700080938000D0938900C0938800EDCF809100
:105980008000806280938000D0938B00C0938A0057
:10599000E3CF80918000886080938000D0938D0059
:1059A000C0938C00D9CF8091B00080688093B00004
:1059B000C093B300D1CF8091B00080628093B000DB
:1059C000C093B400C9CF809190008068809390000C
:1059D000D0939900C0939800BFCF809190008062CF
:1059E00080939000D0939B00C0939A00B5CF809194
:1059F0009000886080939000D0939D00C0939C009D
:105A0000ABCF8091A00080688093A0008091A0001F
:105A10008F7B8093A000D093A900C093A8009CCF57
:105A20008091A00080628093A000D093AB00C093CF
:105A3000AA0092CF8091A00088608093A000D093AC
:105A4000AD00C093AC0088CF809120018068809326
:105A50002001D0932901C09328017ECF809120019D
:105A6000806280932001D0932B01C0932A0174CFD0
:105A700080912001886080932001D0932D01C093F4
:105A80002C016ACFC038D1050CF03FCF35CF815003
:105A9000823108F059C0E82FF0E08827EE5AF24D25
:105AA0008F4F82C4722D762D642D6A2D6E2DA42DFC
:105AB000792D7F2D832D892D8D2D912D972D9B2D2A
:105AC000A42D9F2DA52DA92D809180008F778093E7
:105AD00080000895809180008F7DF9CF80918000B3
